{
	"contracts/distribution.sol": {
		"Distribution": {
			"abi": [
				{
					"inputs": [],
					"stateMutability": "nonpayable",
					"type": "constructor"
				},
				{
					"inputs": [],
					"name": "DISTRIBUTION_BLOCK_INTERVAL",
					"outputs": [
						{
							"internalType": "uint256",
							"name": "",
							"type": "uint256"
						}
					],
					"stateMutability": "view",
					"type": "function"
				},
				{
					"inputs": [],
					"name": "LOCK_BLOCKS",
					"outputs": [
						{
							"internalType": "uint256",
							"name": "",
							"type": "uint256"
						}
					],
					"stateMutability": "view",
					"type": "function"
				},
				{
					"inputs": [],
					"name": "checkClaimRelease",
					"outputs": [
						{
							"internalType": "uint256",
							"name": "",
							"type": "uint256"
						}
					],
					"stateMutability": "view",
					"type": "function"
				},
				{
					"inputs": [],
					"name": "distributeRewards",
					"outputs": [],
					"stateMutability": "nonpayable",
					"type": "function"
				},
				{
					"inputs": [],
					"name": "lastDistributionBlock",
					"outputs": [
						{
							"internalType": "uint256",
							"name": "",
							"type": "uint256"
						}
					],
					"stateMutability": "view",
					"type": "function"
				},
				{
					"inputs": [
						{
							"internalType": "address",
							"name": "",
							"type": "address"
						}
					],
					"name": "lockedBalances",
					"outputs": [
						{
							"internalType": "uint256",
							"name": "unlockedAmount",
							"type": "uint256"
						}
					],
					"stateMutability": "view",
					"type": "function"
				},
				{
					"inputs": [],
					"name": "onlineReward",
					"outputs": [
						{
							"internalType": "uint256",
							"name": "",
							"type": "uint256"
						}
					],
					"stateMutability": "view",
					"type": "function"
				},
				{
					"inputs": [
						{
							"internalType": "uint256",
							"name": "",
							"type": "uint256"
						}
					],
					"name": "recipients",
					"outputs": [
						{
							"internalType": "address",
							"name": "",
							"type": "address"
						}
					],
					"stateMutability": "view",
					"type": "function"
				},
				{
					"inputs": [],
					"name": "roundUnlock",
					"outputs": [
						{
							"internalType": "uint256",
							"name": "",
							"type": "uint256"
						}
					],
					"stateMutability": "view",
					"type": "function"
				}
			],
			"devdoc": {
				"kind": "dev",
				"methods": {},
				"version": 1
			},
			"evm": {
				"assembly": "    /* \"contracts/distribution.sol\":57:3172  contract Distribution {... */\n  mstore(0x40, 0x80)\n    /* \"contracts/distribution.sol\":159:161  60 */\n  0x3c\n    /* \"contracts/distribution.sol\":129:161  uint256 public onlineReward = 60 */\n  0x01\n  sstore\n    /* \"contracts/distribution.sol\":269:272  180 */\n  0xb4\n    /* \"contracts/distribution.sol\":263:266  100 */\n  0x64\n    /* \"contracts/distribution.sol\":257:259  70 */\n  0x46\n    /* \"contracts/distribution.sol\":242:254  onlineReward */\n  sload(0x01)\n    /* \"contracts/distribution.sol\":242:259  onlineReward * 70 */\n  tag_1\n  swap2\n  swap1\n  tag_2\n  jump\t// in\ntag_1:\n    /* \"contracts/distribution.sol\":241:266  (onlineReward * 70) / 100 */\n  tag_3\n  swap2\n  swap1\n  tag_4\n  jump\t// in\ntag_3:\n    /* \"contracts/distribution.sol\":241:272  (onlineReward * 70) / 100 / 180 */\n  tag_5\n  swap2\n  swap1\n  tag_4\n  jump\t// in\ntag_5:\n    /* \"contracts/distribution.sol\":212:272  uint256 public roundUnlock = (onlineReward * 70) / 100 / 180 */\n  0x02\n  sstore\n    /* \"contracts/distribution.sol\":340:344  7200 */\n  0x1c20\n    /* \"contracts/distribution.sol\":295:344  uint256 public DISTRIBUTION_BLOCK_INTERVAL = 7200 */\n  0x03\n  sstore\n    /* \"contracts/distribution.sol\":424:431  1080000 */\n  0x107ac0\n    /* \"contracts/distribution.sol\":395:431  uint256 public LOCK_BLOCKS = 1080000 */\n  0x04\n  sstore\n    /* \"contracts/distribution.sol\":911:978  constructor() {... */\n  callvalue\n  dup1\n  iszero\n  tag_6\n  jumpi\n  revert(0x00, 0x00)\ntag_6:\n  pop\n    /* \"contracts/distribution.sol\":959:971  block.number */\n  number\n    /* \"contracts/distribution.sol\":935:956  lastDistributionBlock */\n  0x00\n    /* \"contracts/distribution.sol\":935:971  lastDistributionBlock = block.number */\n  dup2\n  swap1\n  sstore\n  pop\n    /* \"contracts/distribution.sol\":57:3172  contract Distribution {... */\n  jump(tag_9)\n    /* \"#utility.yul\":7:84   */\ntag_10:\n    /* \"#utility.yul\":44:51   */\n  0x00\n    /* \"#utility.yul\":73:78   */\n  dup2\n    /* \"#utility.yul\":62:78   */\n  swap1\n  pop\n    /* \"#utility.yul\":7:84   */\n  swap2\n  swap1\n  pop\n  jump\t// out\n    /* \"#utility.yul\":90:270   */\ntag_11:\n    /* \"#utility.yul\":138:215   */\n  0x4e487b7100000000000000000000000000000000000000000000000000000000\n    /* \"#utility.yul\":135:136   */\n  0x00\n    /* \"#utility.yul\":128:216   */\n  mstore\n    /* \"#utility.yul\":235:239   */\n  0x11\n    /* \"#utility.yul\":232:233   */\n  0x04\n    /* \"#utility.yul\":225:240   */\n  mstore\n    /* \"#utility.yul\":259:263   */\n  0x24\n    /* \"#utility.yul\":256:257   */\n  0x00\n    /* \"#utility.yul\":249:264   */\n  revert\n    /* \"#utility.yul\":276:686   */\ntag_2:\n    /* \"#utility.yul\":316:323   */\n  0x00\n    /* \"#utility.yul\":339:359   */\n  tag_17\n    /* \"#utility.yul\":357:358   */\n  dup3\n    /* \"#utility.yul\":339:359   */\n  tag_10\n  jump\t// in\ntag_17:\n    /* \"#utility.yul\":334:359   */\n  swap2\n  pop\n    /* \"#utility.yul\":373:393   */\n  tag_18\n    /* \"#utility.yul\":391:392   */\n  dup4\n    /* \"#utility.yul\":373:393   */\n  tag_10\n  jump\t// in\ntag_18:\n    /* \"#utility.yul\":368:393   */\n  swap3\n  pop\n    /* \"#utility.yul\":428:429   */\n  dup3\n    /* \"#utility.yul\":425:426   */\n  dup3\n    /* \"#utility.yul\":421:430   */\n  mul\n    /* \"#utility.yul\":450:480   */\n  tag_19\n    /* \"#utility.yul\":468:479   */\n  dup2\n    /* \"#utility.yul\":450:480   */\n  tag_10\n  jump\t// in\ntag_19:\n    /* \"#utility.yul\":439:480   */\n  swap2\n  pop\n    /* \"#utility.yul\":629:630   */\n  dup3\n    /* \"#utility.yul\":620:627   */\n  dup3\n    /* \"#utility.yul\":616:631   */\n  div\n    /* \"#utility.yul\":613:614   */\n  dup5\n    /* \"#utility.yul\":610:632   */\n  eq\n    /* \"#utility.yul\":590:591   */\n  dup4\n    /* \"#utility.yul\":583:592   */\n  iszero\n    /* \"#utility.yul\":563:646   */\n  or\n    /* \"#utility.yul\":540:679   */\n  tag_20\n  jumpi\n    /* \"#utility.yul\":659:677   */\n  tag_21\n  tag_11\n  jump\t// in\ntag_21:\n    /* \"#utility.yul\":540:679   */\ntag_20:\n    /* \"#utility.yul\":324:686   */\n  pop\n    /* \"#utility.yul\":276:686   */\n  swap3\n  swap2\n  pop\n  pop\n  jump\t// out\n    /* \"#utility.yul\":692:872   */\ntag_12:\n    /* \"#utility.yul\":740:817   */\n  0x4e487b7100000000000000000000000000000000000000000000000000000000\n    /* \"#utility.yul\":737:738   */\n  0x00\n    /* \"#utility.yul\":730:818   */\n  mstore\n    /* \"#utility.yul\":837:841   */\n  0x12\n    /* \"#utility.yul\":834:835   */\n  0x04\n    /* \"#utility.yul\":827:842   */\n  mstore\n    /* \"#utility.yul\":861:865   */\n  0x24\n    /* \"#utility.yul\":858:859   */\n  0x00\n    /* \"#utility.yul\":851:866   */\n  revert\n    /* \"#utility.yul\":878:1063   */\ntag_4:\n    /* \"#utility.yul\":918:919   */\n  0x00\n    /* \"#utility.yul\":935:955   */\n  tag_24\n    /* \"#utility.yul\":953:954   */\n  dup3\n    /* \"#utility.yul\":935:955   */\n  tag_10\n  jump\t// in\ntag_24:\n    /* \"#utility.yul\":930:955   */\n  swap2\n  pop\n    /* \"#utility.yul\":969:989   */\n  tag_25\n    /* \"#utility.yul\":987:988   */\n  dup4\n    /* \"#utility.yul\":969:989   */\n  tag_10\n  jump\t// in\ntag_25:\n    /* \"#utility.yul\":964:989   */\n  swap3\n  pop\n    /* \"#utility.yul\":1008:1009   */\n  dup3\n    /* \"#utility.yul\":998:1033   */\n  tag_26\n  jumpi\n    /* \"#utility.yul\":1013:1031   */\n  tag_27\n  tag_12\n  jump\t// in\ntag_27:\n    /* \"#utility.yul\":998:1033   */\ntag_26:\n    /* \"#utility.yul\":1055:1056   */\n  dup3\n    /* \"#utility.yul\":1052:1053   */\n  dup3\n    /* \"#utility.yul\":1048:1057   */\n  div\n    /* \"#utility.yul\":1043:1057   */\n  swap1\n  pop\n    /* \"#utility.yul\":878:1063   */\n  swap3\n  swap2\n  pop\n  pop\n  jump\t// out\n    /* \"contracts/distribution.sol\":57:3172  contract Distribution {... */\ntag_9:\n  dataSize(sub_0)\n  dup1\n  dataOffset(sub_0)\n  0x00\n  codecopy\n  0x00\n  return\nstop\n\nsub_0: assembly {\n        /* \"contracts/distribution.sol\":57:3172  contract Distribution {... */\n      mstore(0x40, 0x80)\n      callvalue\n      dup1\n      iszero\n      tag_1\n      jumpi\n      revert(0x00, 0x00)\n    tag_1:\n      pop\n      jumpi(tag_2, lt(calldatasize, 0x04))\n      shr(0xe0, calldataload(0x00))\n      dup1\n      0xaca32d86\n      gt\n      tag_12\n      jumpi\n      dup1\n      0xaca32d86\n      eq\n      tag_7\n      jumpi\n      dup1\n      0xcb3cc126\n      eq\n      tag_8\n      jumpi\n      dup1\n      0xd1bc76a1\n      eq\n      tag_9\n      jumpi\n      dup1\n      0xf2bc79a3\n      eq\n      tag_10\n      jumpi\n      dup1\n      0xf5c330a8\n      eq\n      tag_11\n      jumpi\n      jump(tag_2)\n    tag_12:\n      dup1\n      0x0483a7f6\n      eq\n      tag_3\n      jumpi\n      dup1\n      0x31008aae\n      eq\n      tag_4\n      jumpi\n      dup1\n      0x6f4a2cd0\n      eq\n      tag_5\n      jumpi\n      dup1\n      0x82dc7c9d\n      eq\n      tag_6\n      jumpi\n    tag_2:\n      revert(0x00, 0x00)\n        /* \"contracts/distribution.sol\":778:826  mapping(address => Reward) public lockedBalances */\n    tag_3:\n      tag_13\n      0x04\n      dup1\n      calldatasize\n      sub\n      dup2\n      add\n      swap1\n      tag_14\n      swap2\n      swap1\n      tag_15\n      jump\t// in\n    tag_14:\n      tag_16\n      jump\t// in\n    tag_13:\n      mload(0x40)\n      tag_17\n      swap2\n      swap1\n      tag_18\n      jump\t// in\n    tag_17:\n      mload(0x40)\n      dup1\n      swap2\n      sub\n      swap1\n      return\n        /* \"contracts/distribution.sol\":295:344  uint256 public DISTRIBUTION_BLOCK_INTERVAL = 7200 */\n    tag_4:\n      tag_19\n      tag_20\n      jump\t// in\n    tag_19:\n      mload(0x40)\n      tag_21\n      swap2\n      swap1\n      tag_18\n      jump\t// in\n    tag_21:\n      mload(0x40)\n      dup1\n      swap2\n      sub\n      swap1\n      return\n        /* \"contracts/distribution.sol\":1004:1882  function distributeRewards() public {... */\n    tag_5:\n      tag_22\n      tag_23\n      jump\t// in\n    tag_22:\n      stop\n        /* \"contracts/distribution.sol\":395:431  uint256 public LOCK_BLOCKS = 1080000 */\n    tag_6:\n      tag_24\n      tag_25\n      jump\t// in\n    tag_24:\n      mload(0x40)\n      tag_26\n      swap2\n      swap1\n      tag_18\n      jump\t// in\n    tag_26:\n      mload(0x40)\n      dup1\n      swap2\n      sub\n      swap1\n      return\n        /* \"contracts/distribution.sol\":1888:3170  function checkClaimRelease() public view returns (uint256) {... */\n    tag_7:\n      tag_27\n      tag_28\n      jump\t// in\n    tag_27:\n      mload(0x40)\n      tag_29\n      swap2\n      swap1\n      tag_18\n      jump\t// in\n    tag_29:\n      mload(0x40)\n      dup1\n      swap2\n      sub\n      swap1\n      return\n        /* \"contracts/distribution.sol\":129:161  uint256 public onlineReward = 60 */\n    tag_8:\n      tag_30\n      tag_31\n      jump\t// in\n    tag_30:\n      mload(0x40)\n      tag_32\n      swap2\n      swap1\n      tag_18\n      jump\t// in\n    tag_32:\n      mload(0x40)\n      dup1\n      swap2\n      sub\n      swap1\n      return\n        /* \"contracts/distribution.sol\":855:882  address[] public recipients */\n    tag_9:\n      tag_33\n      0x04\n      dup1\n      calldatasize\n      sub\n      dup2\n      add\n      swap1\n      tag_34\n      swap2\n      swap1\n      tag_35\n      jump\t// in\n    tag_34:\n      tag_36\n      jump\t// in\n    tag_33:\n      mload(0x40)\n      tag_37\n      swap2\n      swap1\n      tag_38\n      jump\t// in\n    tag_37:\n      mload(0x40)\n      dup1\n      swap2\n      sub\n      swap1\n      return\n        /* \"contracts/distribution.sol\":86:122  uint256 public lastDistributionBlock */\n    tag_10:\n      tag_39\n      tag_40\n      jump\t// in\n    tag_39:\n      mload(0x40)\n      tag_41\n      swap2\n      swap1\n      tag_18\n      jump\t// in\n    tag_41:\n      mload(0x40)\n      dup1\n      swap2\n      sub\n      swap1\n      return\n        /* \"contracts/distribution.sol\":212:272  uint256 public roundUnlock = (onlineReward * 70) / 100 / 180 */\n    tag_11:\n      tag_42\n      tag_43\n      jump\t// in\n    tag_42:\n      mload(0x40)\n      tag_44\n      swap2\n      swap1\n      tag_18\n      jump\t// in\n    tag_44:\n      mload(0x40)\n      dup1\n      swap2\n      sub\n      swap1\n      return\n        /* \"contracts/distribution.sol\":778:826  mapping(address => Reward) public lockedBalances */\n    tag_16:\n      mstore(0x20, 0x05)\n      dup1\n      0x00\n      mstore\n      keccak256(0x00, 0x40)\n      0x00\n      swap2\n      pop\n      swap1\n      pop\n      dup1\n      0x01\n      add\n      sload\n      swap1\n      pop\n      dup2\n      jump\t// out\n        /* \"contracts/distribution.sol\":295:344  uint256 public DISTRIBUTION_BLOCK_INTERVAL = 7200 */\n    tag_20:\n      sload(0x03)\n      dup2\n      jump\t// out\n        /* \"contracts/distribution.sol\":1004:1882  function distributeRewards() public {... */\n    tag_23:\n        /* \"contracts/distribution.sol\":1098:1125  DISTRIBUTION_BLOCK_INTERVAL */\n      sload(0x03)\n        /* \"contracts/distribution.sol\":1074:1095  lastDistributionBlock */\n      sload(0x00)\n        /* \"contracts/distribution.sol\":1074:1125  lastDistributionBlock + DISTRIBUTION_BLOCK_INTERVAL */\n      tag_46\n      swap2\n      swap1\n      tag_47\n      jump\t// in\n    tag_46:\n        /* \"contracts/distribution.sol\":1058:1070  block.number */\n      number\n        /* \"contracts/distribution.sol\":1058:1125  block.number >= lastDistributionBlock + DISTRIBUTION_BLOCK_INTERVAL */\n      lt\n      iszero\n        /* \"contracts/distribution.sol\":1050:1152  require(block.number >= lastDistributionBlock + DISTRIBUTION_BLOCK_INTERVAL, \"Distribution not ready\") */\n      tag_48\n      jumpi\n      mload(0x40)\n      0x08c379a000000000000000000000000000000000000000000000000000000000\n      dup2\n      mstore\n      0x04\n      add\n      tag_49\n      swap1\n      tag_50\n      jump\t// in\n    tag_49:\n      mload(0x40)\n      dup1\n      swap2\n      sub\n      swap1\n      revert\n    tag_48:\n        /* \"contracts/distribution.sol\":1187:1199  block.number */\n      number\n        /* \"contracts/distribution.sol\":1163:1184  lastDistributionBlock */\n      0x00\n        /* \"contracts/distribution.sol\":1163:1199  lastDistributionBlock = block.number */\n      dup2\n      swap1\n      sstore\n      pop\n        /* \"contracts/distribution.sol\":1214:1223  uint256 i */\n      0x00\n        /* \"contracts/distribution.sol\":1226:1227  0 */\n      0x00\n        /* \"contracts/distribution.sol\":1214:1227  uint256 i = 0 */\n      swap1\n      pop\n        /* \"contracts/distribution.sol\":1209:1876  for (uint256 i = 0; i < recipients.length; i++) {... */\n    tag_51:\n        /* \"contracts/distribution.sol\":1233:1243  recipients */\n      0x06\n        /* \"contracts/distribution.sol\":1233:1250  recipients.length */\n      dup1\n      sload\n      swap1\n      pop\n        /* \"contracts/distribution.sol\":1229:1230  i */\n      dup2\n        /* \"contracts/distribution.sol\":1229:1250  i < recipients.length */\n      lt\n        /* \"contracts/distribution.sol\":1209:1876  for (uint256 i = 0; i < recipients.length; i++) {... */\n      iszero\n      tag_52\n      jumpi\n        /* \"contracts/distribution.sol\":1271:1288  address recipient */\n      0x00\n        /* \"contracts/distribution.sol\":1291:1301  recipients */\n      0x06\n        /* \"contracts/distribution.sol\":1302:1303  i */\n      dup3\n        /* \"contracts/distribution.sol\":1291:1304  recipients[i] */\n      dup2\n      sload\n      dup2\n      lt\n      tag_54\n      jumpi\n      tag_55\n      tag_56\n      jump\t// in\n    tag_55:\n    tag_54:\n      swap1\n      0x00\n      mstore\n      keccak256(0x00, 0x20)\n      add\n      0x00\n      swap1\n      sload\n      swap1\n      0x0100\n      exp\n      swap1\n      div\n      0xffffffffffffffffffffffffffffffffffffffff\n      and\n        /* \"contracts/distribution.sol\":1271:1304  address recipient = recipients[i] */\n      swap1\n      pop\n        /* \"contracts/distribution.sol\":1377:1398  uint256 initialAmount */\n      0x00\n        /* \"contracts/distribution.sol\":1423:1426  100 */\n      0x64\n        /* \"contracts/distribution.sol\":1417:1419  30 */\n      0x1e\n        /* \"contracts/distribution.sol\":1402:1414  onlineReward */\n      sload(0x01)\n        /* \"contracts/distribution.sol\":1402:1419  onlineReward * 30 */\n      tag_58\n      swap2\n      swap1\n      tag_59\n      jump\t// in\n    tag_58:\n        /* \"contracts/distribution.sol\":1401:1426  (onlineReward * 30) / 100 */\n      tag_60\n      swap2\n      swap1\n      tag_61\n      jump\t// in\n    tag_60:\n        /* \"contracts/distribution.sol\":1377:1426  uint256 initialAmount = (onlineReward * 30) / 100 */\n      swap1\n      pop\n        /* \"contracts/distribution.sol\":1488:1501  initialAmount */\n      dup1\n        /* \"contracts/distribution.sol\":1444:1458  lockedBalances */\n      0x05\n        /* \"contracts/distribution.sol\":1444:1469  lockedBalances[recipient] */\n      0x00\n        /* \"contracts/distribution.sol\":1459:1468  recipient */\n      dup5\n        /* \"contracts/distribution.sol\":1444:1469  lockedBalances[recipient] */\n      0xffffffffffffffffffffffffffffffffffffffff\n      and\n      0xffffffffffffffffffffffffffffffffffffffff\n      and\n      dup2\n      mstore\n      0x20\n      add\n      swap1\n      dup2\n      mstore\n      0x20\n      add\n      0x00\n      keccak256\n        /* \"contracts/distribution.sol\":1444:1484  lockedBalances[recipient].unlockedAmount */\n      0x01\n      add\n      0x00\n        /* \"contracts/distribution.sol\":1444:1501  lockedBalances[recipient].unlockedAmount += initialAmount */\n      dup3\n      dup3\n      sload\n      tag_62\n      swap2\n      swap1\n      tag_47\n      jump\t// in\n    tag_62:\n      swap3\n      pop\n      pop\n      dup2\n      swap1\n      sstore\n      pop\n        /* \"contracts/distribution.sol\":1519:1533  lockedBalances */\n      0x05\n        /* \"contracts/distribution.sol\":1519:1544  lockedBalances[recipient] */\n      0x00\n        /* \"contracts/distribution.sol\":1534:1543  recipient */\n      dup4\n        /* \"contracts/distribution.sol\":1519:1544  lockedBalances[recipient] */\n      0xffffffffffffffffffffffffffffffffffffffff\n      and\n      0xffffffffffffffffffffffffffffffffffffffff\n      and\n      dup2\n      mstore\n      0x20\n      add\n      swap1\n      dup2\n      mstore\n      0x20\n      add\n      0x00\n      keccak256\n        /* \"contracts/distribution.sol\":1519:1553  lockedBalances[recipient].lockInfo */\n      0x00\n      add\n        /* \"contracts/distribution.sol\":1559:1847  LockInfo({... */\n      mload(0x40)\n      dup1\n      0x80\n      add\n      0x40\n      mstore\n      dup1\n        /* \"contracts/distribution.sol\":1618:1631  initialAmount */\n      dup4\n        /* \"contracts/distribution.sol\":1603:1615  onlineReward */\n      sload(0x01)\n        /* \"contracts/distribution.sol\":1603:1631  onlineReward - initialAmount */\n      tag_63\n      swap2\n      swap1\n      tag_64\n      jump\t// in\n    tag_63:\n        /* \"contracts/distribution.sol\":1559:1847  LockInfo({... */\n      dup2\n      mstore\n      0x20\n      add\n        /* \"contracts/distribution.sol\":1665:1686  lastDistributionBlock */\n      sload(0x00)\n        /* \"contracts/distribution.sol\":1559:1847  LockInfo({... */\n      dup2\n      mstore\n      0x20\n      add\n        /* \"contracts/distribution.sol\":1750:1771  lastDistributionBlock */\n      sload(0x00)\n        /* \"contracts/distribution.sol\":1559:1847  LockInfo({... */\n      dup2\n      mstore\n      0x20\n      add\n        /* \"contracts/distribution.sol\":1823:1828  false */\n      0x00\n        /* \"contracts/distribution.sol\":1559:1847  LockInfo({... */\n      iszero\n      iszero\n      dup2\n      mstore\n      pop\n        /* \"contracts/distribution.sol\":1519:1848  lockedBalances[recipient].lockInfo.push(LockInfo({... */\n      swap1\n      dup1\n      0x01\n      dup2\n      sload\n      add\n      dup1\n      dup3\n      sstore\n      dup1\n      swap2\n      pop\n      pop\n      0x01\n      swap1\n      sub\n      swap1\n      0x00\n      mstore\n      keccak256(0x00, 0x20)\n      swap1\n      0x04\n      mul\n      add\n      0x00\n      swap1\n      swap2\n      swap1\n      swap2\n      swap1\n      swap2\n      pop\n      0x00\n      dup3\n      add\n      mload\n      dup2\n      0x00\n      add\n      sstore\n      0x20\n      dup3\n      add\n      mload\n      dup2\n      0x01\n      add\n      sstore\n      0x40\n      dup3\n      add\n      mload\n      dup2\n      0x02\n      add\n      sstore\n      0x60\n      dup3\n      add\n      mload\n      dup2\n      0x03\n      add\n      exp(0x0100, 0x00)\n      dup2\n      sload\n      dup2\n      0xff\n      mul\n      not\n      and\n      swap1\n      dup4\n      iszero\n      iszero\n      mul\n      or\n      swap1\n      sstore\n      pop\n      pop\n      pop\n        /* \"contracts/distribution.sol\":1257:1876  {... */\n      pop\n      pop\n        /* \"contracts/distribution.sol\":1252:1255  i++ */\n      dup1\n      dup1\n      0x01\n      add\n      swap2\n      pop\n      pop\n        /* \"contracts/distribution.sol\":1209:1876  for (uint256 i = 0; i < recipients.length; i++) {... */\n      jump(tag_51)\n    tag_52:\n      pop\n        /* \"contracts/distribution.sol\":1004:1882  function distributeRewards() public {... */\n      jump\t// out\n        /* \"contracts/distribution.sol\":395:431  uint256 public LOCK_BLOCKS = 1080000 */\n    tag_25:\n      sload(0x04)\n      dup2\n      jump\t// out\n        /* \"contracts/distribution.sol\":1888:3170  function checkClaimRelease() public view returns (uint256) {... */\n    tag_28:\n        /* \"contracts/distribution.sol\":1938:1945  uint256 */\n      0x00\n        /* \"contracts/distribution.sol\":1957:1978  Reward storage reward */\n      0x00\n        /* \"contracts/distribution.sol\":1981:1995  lockedBalances */\n      0x05\n        /* \"contracts/distribution.sol\":1981:2007  lockedBalances[msg.sender] */\n      0x00\n        /* \"contracts/distribution.sol\":1996:2006  msg.sender */\n      caller\n        /* \"contracts/distribution.sol\":1981:2007  lockedBalances[msg.sender] */\n      0xffffffffffffffffffffffffffffffffffffffff\n      and\n      0xffffffffffffffffffffffffffffffffffffffff\n      and\n      dup2\n      mstore\n      0x20\n      add\n      swap1\n      dup2\n      mstore\n      0x20\n      add\n      0x00\n      keccak256\n        /* \"contracts/distribution.sol\":1957:2007  Reward storage reward = lockedBalances[msg.sender] */\n      swap1\n      pop\n        /* \"contracts/distribution.sol\":2050:2051  0 */\n      0x00\n        /* \"contracts/distribution.sol\":2025:2031  reward */\n      dup2\n        /* \"contracts/distribution.sol\":2025:2040  reward.lockInfo */\n      0x00\n      add\n        /* \"contracts/distribution.sol\":2025:2047  reward.lockInfo.length */\n      dup1\n      sload\n      swap1\n      pop\n        /* \"contracts/distribution.sol\":2025:2051  reward.lockInfo.length > 0 */\n      gt\n        /* \"contracts/distribution.sol\":2017:2072  require(reward.lockInfo.length > 0, \"No locked tokens\") */\n      tag_67\n      jumpi\n      mload(0x40)\n      0x08c379a000000000000000000000000000000000000000000000000000000000\n      dup2\n      mstore\n      0x04\n      add\n      tag_68\n      swap1\n      tag_69\n      jump\t// in\n    tag_68:\n      mload(0x40)\n      dup1\n      swap2\n      sub\n      swap1\n      revert\n    tag_67:\n        /* \"contracts/distribution.sol\":2083:2105  uint256 unlockedAmount */\n      0x00\n        /* \"contracts/distribution.sol\":2108:2114  reward */\n      dup2\n        /* \"contracts/distribution.sol\":2108:2129  reward.unlockedAmount */\n      0x01\n      add\n      sload\n        /* \"contracts/distribution.sol\":2083:2129  uint256 unlockedAmount = reward.unlockedAmount */\n      swap1\n      pop\n        /* \"contracts/distribution.sol\":2144:2153  uint256 i */\n      0x00\n        /* \"contracts/distribution.sol\":2156:2157  0 */\n      0x00\n        /* \"contracts/distribution.sol\":2144:2157  uint256 i = 0 */\n      swap1\n      pop\n        /* \"contracts/distribution.sol\":2139:3133  for (uint256 i = 0; i < reward.lockInfo.length; i++) {... */\n    tag_70:\n        /* \"contracts/distribution.sol\":2163:2169  reward */\n      dup3\n        /* \"contracts/distribution.sol\":2163:2178  reward.lockInfo */\n      0x00\n      add\n        /* \"contracts/distribution.sol\":2163:2185  reward.lockInfo.length */\n      dup1\n      sload\n      swap1\n      pop\n        /* \"contracts/distribution.sol\":2159:2160  i */\n      dup2\n        /* \"contracts/distribution.sol\":2159:2185  i < reward.lockInfo.length */\n      lt\n        /* \"contracts/distribution.sol\":2139:3133  for (uint256 i = 0; i < reward.lockInfo.length; i++) {... */\n      iszero\n      tag_71\n      jumpi\n        /* \"contracts/distribution.sol\":2211:2217  reward */\n      dup3\n        /* \"contracts/distribution.sol\":2211:2226  reward.lockInfo */\n      0x00\n      add\n        /* \"contracts/distribution.sol\":2227:2228  i */\n      dup2\n        /* \"contracts/distribution.sol\":2211:2229  reward.lockInfo[i] */\n      dup2\n      sload\n      dup2\n      lt\n      tag_73\n      jumpi\n      tag_74\n      tag_56\n      jump\t// in\n    tag_74:\n    tag_73:\n      swap1\n      0x00\n      mstore\n      keccak256(0x00, 0x20)\n      swap1\n      0x04\n      mul\n      add\n        /* \"contracts/distribution.sol\":2211:2240  reward.lockInfo[i].isUnlocked */\n      0x03\n      add\n      0x00\n      swap1\n      sload\n      swap1\n      0x0100\n      exp\n      swap1\n      div\n      0xff\n      and\n        /* \"contracts/distribution.sol\":2206:3123  if (!reward.lockInfo[i].isUnlocked) {... */\n      tag_76\n      jumpi\n        /* \"contracts/distribution.sol\":2260:2281  uint256 elapsedBlocks */\n      0x00\n        /* \"contracts/distribution.sol\":2351:2362  LOCK_BLOCKS */\n      sload(0x04)\n        /* \"contracts/distribution.sol\":2318:2324  reward */\n      dup5\n        /* \"contracts/distribution.sol\":2318:2333  reward.lockInfo */\n      0x00\n      add\n        /* \"contracts/distribution.sol\":2334:2335  i */\n      dup4\n        /* \"contracts/distribution.sol\":2318:2336  reward.lockInfo[i] */\n      dup2\n      sload\n      dup2\n      lt\n      tag_77\n      jumpi\n      tag_78\n      tag_56\n      jump\t// in\n    tag_78:\n    tag_77:\n      swap1\n      0x00\n      mstore\n      keccak256(0x00, 0x20)\n      swap1\n      0x04\n      mul\n      add\n        /* \"contracts/distribution.sol\":2318:2347  reward.lockInfo[i].startBlock */\n      0x01\n      add\n      sload\n        /* \"contracts/distribution.sol\":2303:2315  block.number */\n      number\n        /* \"contracts/distribution.sol\":2303:2347  block.number - reward.lockInfo[i].startBlock */\n      tag_80\n      swap2\n      swap1\n      tag_64\n      jump\t// in\n    tag_80:\n        /* \"contracts/distribution.sol\":2303:2362  block.number - reward.lockInfo[i].startBlock >= LOCK_BLOCKS */\n      lt\n        /* \"contracts/distribution.sol\":2299:2615  if (block.number - reward.lockInfo[i].startBlock >= LOCK_BLOCKS) {... */\n      tag_81\n      jumpi\n        /* \"contracts/distribution.sol\":2448:2454  reward */\n      dup4\n        /* \"contracts/distribution.sol\":2448:2463  reward.lockInfo */\n      0x00\n      add\n        /* \"contracts/distribution.sol\":2464:2465  i */\n      dup3\n        /* \"contracts/distribution.sol\":2448:2466  reward.lockInfo[i] */\n      dup2\n      sload\n      dup2\n      lt\n      tag_82\n      jumpi\n      tag_83\n      tag_56\n      jump\t// in\n    tag_83:\n    tag_82:\n      swap1\n      0x00\n      mstore\n      keccak256(0x00, 0x20)\n      swap1\n      0x04\n      mul\n      add\n        /* \"contracts/distribution.sol\":2448:2483  reward.lockInfo[i].lastClaimedBlock */\n      0x02\n      add\n      sload\n        /* \"contracts/distribution.sol\":2434:2445  LOCK_BLOCKS */\n      sload(0x04)\n        /* \"contracts/distribution.sol\":2402:2408  reward */\n      dup6\n        /* \"contracts/distribution.sol\":2402:2417  reward.lockInfo */\n      0x00\n      add\n        /* \"contracts/distribution.sol\":2418:2419  i */\n      dup5\n        /* \"contracts/distribution.sol\":2402:2420  reward.lockInfo[i] */\n      dup2\n      sload\n      dup2\n      lt\n      tag_85\n      jumpi\n      tag_86\n      tag_56\n      jump\t// in\n    tag_86:\n    tag_85:\n      swap1\n      0x00\n      mstore\n      keccak256(0x00, 0x20)\n      swap1\n      0x04\n      mul\n      add\n        /* \"contracts/distribution.sol\":2402:2431  reward.lockInfo[i].startBlock */\n      0x01\n      add\n      sload\n        /* \"contracts/distribution.sol\":2402:2445  reward.lockInfo[i].startBlock + LOCK_BLOCKS */\n      tag_88\n      swap2\n      swap1\n      tag_47\n      jump\t// in\n    tag_88:\n        /* \"contracts/distribution.sol\":2402:2483  reward.lockInfo[i].startBlock + LOCK_BLOCKS - reward.lockInfo[i].lastClaimedBlock */\n      tag_89\n      swap2\n      swap1\n      tag_64\n      jump\t// in\n    tag_89:\n        /* \"contracts/distribution.sol\":2386:2483  elapsedBlocks = reward.lockInfo[i].startBlock + LOCK_BLOCKS - reward.lockInfo[i].lastClaimedBlock */\n      swap1\n      pop\n        /* \"contracts/distribution.sol\":2299:2615  if (block.number - reward.lockInfo[i].startBlock >= LOCK_BLOCKS) {... */\n      jump(tag_90)\n    tag_81:\n        /* \"contracts/distribution.sol\":2561:2567  reward */\n      dup4\n        /* \"contracts/distribution.sol\":2561:2576  reward.lockInfo */\n      0x00\n      add\n        /* \"contracts/distribution.sol\":2577:2578  i */\n      dup3\n        /* \"contracts/distribution.sol\":2561:2579  reward.lockInfo[i] */\n      dup2\n      sload\n      dup2\n      lt\n      tag_91\n      jumpi\n      tag_92\n      tag_56\n      jump\t// in\n    tag_92:\n    tag_91:\n      swap1\n      0x00\n      mstore\n      keccak256(0x00, 0x20)\n      swap1\n      0x04\n      mul\n      add\n        /* \"contracts/distribution.sol\":2561:2596  reward.lockInfo[i].lastClaimedBlock */\n      0x02\n      add\n      sload\n        /* \"contracts/distribution.sol\":2546:2558  block.number */\n      number\n        /* \"contracts/distribution.sol\":2546:2596  block.number - reward.lockInfo[i].lastClaimedBlock */\n      tag_94\n      swap2\n      swap1\n      tag_64\n      jump\t// in\n    tag_94:\n        /* \"contracts/distribution.sol\":2530:2596  elapsedBlocks = block.number - reward.lockInfo[i].lastClaimedBlock */\n      swap1\n      pop\n        /* \"contracts/distribution.sol\":2299:2615  if (block.number - reward.lockInfo[i].startBlock >= LOCK_BLOCKS) {... */\n    tag_90:\n        /* \"contracts/distribution.sol\":2657:2684  DISTRIBUTION_BLOCK_INTERVAL */\n      sload(0x03)\n        /* \"contracts/distribution.sol\":2640:2653  elapsedBlocks */\n      dup2\n        /* \"contracts/distribution.sol\":2640:2684  elapsedBlocks >= DISTRIBUTION_BLOCK_INTERVAL */\n      lt\n      iszero\n        /* \"contracts/distribution.sol\":2632:2722  require(elapsedBlocks >= DISTRIBUTION_BLOCK_INTERVAL, \"Not yet reached next unlock point\") */\n      tag_95\n      jumpi\n      mload(0x40)\n      0x08c379a000000000000000000000000000000000000000000000000000000000\n      dup2\n      mstore\n      0x04\n      add\n      tag_96\n      swap1\n      tag_97\n      jump\t// in\n    tag_96:\n      mload(0x40)\n      dup1\n      swap2\n      sub\n      swap1\n      revert\n    tag_95:\n        /* \"contracts/distribution.sol\":2741:2761  uint256 unlockRounds */\n      0x00\n        /* \"contracts/distribution.sol\":2780:2807  DISTRIBUTION_BLOCK_INTERVAL */\n      sload(0x03)\n        /* \"contracts/distribution.sol\":2764:2777  elapsedBlocks */\n      dup3\n        /* \"contracts/distribution.sol\":2764:2807  elapsedBlocks / DISTRIBUTION_BLOCK_INTERVAL */\n      tag_98\n      swap2\n      swap1\n      tag_61\n      jump\t// in\n    tag_98:\n        /* \"contracts/distribution.sol\":2741:2807  uint256 unlockRounds = elapsedBlocks / DISTRIBUTION_BLOCK_INTERVAL */\n      swap1\n      pop\n        /* \"contracts/distribution.sol\":2825:2845  uint256 unlockReward */\n      0x00\n        /* \"contracts/distribution.sol\":2863:2874  roundUnlock */\n      sload(0x02)\n        /* \"contracts/distribution.sol\":2848:2860  unlockRounds */\n      dup3\n        /* \"contracts/distribution.sol\":2848:2874  unlockRounds * roundUnlock */\n      tag_99\n      swap2\n      swap1\n      tag_59\n      jump\t// in\n    tag_99:\n        /* \"contracts/distribution.sol\":2825:2874  uint256 unlockReward = unlockRounds * roundUnlock */\n      swap1\n      pop\n        /* \"contracts/distribution.sol\":2911:2917  reward */\n      dup6\n        /* \"contracts/distribution.sol\":2911:2926  reward.lockInfo */\n      0x00\n      add\n        /* \"contracts/distribution.sol\":2927:2928  i */\n      dup5\n        /* \"contracts/distribution.sol\":2911:2929  reward.lockInfo[i] */\n      dup2\n      sload\n      dup2\n      lt\n      tag_100\n      jumpi\n      tag_101\n      tag_56\n      jump\t// in\n    tag_101:\n    tag_100:\n      swap1\n      0x00\n      mstore\n      keccak256(0x00, 0x20)\n      swap1\n      0x04\n      mul\n      add\n        /* \"contracts/distribution.sol\":2911:2941  reward.lockInfo[i].totalAmount */\n      0x00\n      add\n      sload\n        /* \"contracts/distribution.sol\":2896:2908  unlockReward */\n      dup2\n        /* \"contracts/distribution.sol\":2896:2941  unlockReward < reward.lockInfo[i].totalAmount */\n      lt\n        /* \"contracts/distribution.sol\":2892:3109  if (unlockReward < reward.lockInfo[i].totalAmount) {... */\n      iszero\n      tag_103\n      jumpi\n        /* \"contracts/distribution.sol\":2983:2995  unlockReward */\n      dup1\n        /* \"contracts/distribution.sol\":2965:2995  unlockedAmount += unlockReward */\n      dup6\n      tag_104\n      swap2\n      swap1\n      tag_47\n      jump\t// in\n    tag_104:\n      swap5\n      pop\n        /* \"contracts/distribution.sol\":2892:3109  if (unlockReward < reward.lockInfo[i].totalAmount) {... */\n      jump(tag_105)\n    tag_103:\n        /* \"contracts/distribution.sol\":3060:3066  reward */\n      dup6\n        /* \"contracts/distribution.sol\":3060:3075  reward.lockInfo */\n      0x00\n      add\n        /* \"contracts/distribution.sol\":3076:3077  i */\n      dup5\n        /* \"contracts/distribution.sol\":3060:3078  reward.lockInfo[i] */\n      dup2\n      sload\n      dup2\n      lt\n      tag_106\n      jumpi\n      tag_107\n      tag_56\n      jump\t// in\n    tag_107:\n    tag_106:\n      swap1\n      0x00\n      mstore\n      keccak256(0x00, 0x20)\n      swap1\n      0x04\n      mul\n      add\n        /* \"contracts/distribution.sol\":3060:3090  reward.lockInfo[i].totalAmount */\n      0x00\n      add\n      sload\n        /* \"contracts/distribution.sol\":3042:3090  unlockedAmount += reward.lockInfo[i].totalAmount */\n      dup6\n      tag_109\n      swap2\n      swap1\n      tag_47\n      jump\t// in\n    tag_109:\n      swap5\n      pop\n        /* \"contracts/distribution.sol\":2892:3109  if (unlockReward < reward.lockInfo[i].totalAmount) {... */\n    tag_105:\n        /* \"contracts/distribution.sol\":2242:3123  {... */\n      pop\n      pop\n      pop\n        /* \"contracts/distribution.sol\":2206:3123  if (!reward.lockInfo[i].isUnlocked) {... */\n    tag_76:\n        /* \"contracts/distribution.sol\":2187:2190  i++ */\n      dup1\n      dup1\n      0x01\n      add\n      swap2\n      pop\n      pop\n        /* \"contracts/distribution.sol\":2139:3133  for (uint256 i = 0; i < reward.lockInfo.length; i++) {... */\n      jump(tag_70)\n    tag_71:\n      pop\n        /* \"contracts/distribution.sol\":3149:3163  unlockedAmount */\n      dup1\n        /* \"contracts/distribution.sol\":3142:3163  return unlockedAmount */\n      swap3\n      pop\n      pop\n      pop\n        /* \"contracts/distribution.sol\":1888:3170  function checkClaimRelease() public view returns (uint256) {... */\n      swap1\n      jump\t// out\n        /* \"contracts/distribution.sol\":129:161  uint256 public onlineReward = 60 */\n    tag_31:\n      sload(0x01)\n      dup2\n      jump\t// out\n        /* \"contracts/distribution.sol\":855:882  address[] public recipients */\n    tag_36:\n      0x06\n      dup2\n      dup2\n      sload\n      dup2\n      lt\n      tag_110\n      jumpi\n      0x00\n      dup1\n      revert\n    tag_110:\n      swap1\n      0x00\n      mstore\n      keccak256(0x00, 0x20)\n      add\n      0x00\n      swap2\n      pop\n      sload\n      swap1\n      0x0100\n      exp\n      swap1\n      div\n      0xffffffffffffffffffffffffffffffffffffffff\n      and\n      dup2\n      jump\t// out\n        /* \"contracts/distribution.sol\":86:122  uint256 public lastDistributionBlock */\n    tag_40:\n      sload(0x00)\n      dup2\n      jump\t// out\n        /* \"contracts/distribution.sol\":212:272  uint256 public roundUnlock = (onlineReward * 70) / 100 / 180 */\n    tag_43:\n      sload(0x02)\n      dup2\n      jump\t// out\n        /* \"#utility.yul\":88:205   */\n    tag_113:\n        /* \"#utility.yul\":197:198   */\n      0x00\n        /* \"#utility.yul\":194:195   */\n      0x00\n        /* \"#utility.yul\":187:199   */\n      revert\n        /* \"#utility.yul\":334:460   */\n    tag_115:\n        /* \"#utility.yul\":371:378   */\n      0x00\n        /* \"#utility.yul\":411:453   */\n      0xffffffffffffffffffffffffffffffffffffffff\n        /* \"#utility.yul\":404:409   */\n      dup3\n        /* \"#utility.yul\":400:454   */\n      and\n        /* \"#utility.yul\":389:454   */\n      swap1\n      pop\n        /* \"#utility.yul\":334:460   */\n      swap2\n      swap1\n      pop\n      jump\t// out\n        /* \"#utility.yul\":466:562   */\n    tag_116:\n        /* \"#utility.yul\":503:510   */\n      0x00\n        /* \"#utility.yul\":532:556   */\n      tag_139\n        /* \"#utility.yul\":550:555   */\n      dup3\n        /* \"#utility.yul\":532:556   */\n      tag_115\n      jump\t// in\n    tag_139:\n        /* \"#utility.yul\":521:556   */\n      swap1\n      pop\n        /* \"#utility.yul\":466:562   */\n      swap2\n      swap1\n      pop\n      jump\t// out\n        /* \"#utility.yul\":568:690   */\n    tag_117:\n        /* \"#utility.yul\":641:665   */\n      tag_141\n        /* \"#utility.yul\":659:664   */\n      dup2\n        /* \"#utility.yul\":641:665   */\n      tag_116\n      jump\t// in\n    tag_141:\n        /* \"#utility.yul\":634:639   */\n      dup2\n        /* \"#utility.yul\":631:666   */\n      eq\n        /* \"#utility.yul\":621:684   */\n      tag_142\n      jumpi\n        /* \"#utility.yul\":680:681   */\n      0x00\n        /* \"#utility.yul\":677:678   */\n      0x00\n        /* \"#utility.yul\":670:682   */\n      revert\n        /* \"#utility.yul\":621:684   */\n    tag_142:\n        /* \"#utility.yul\":568:690   */\n      pop\n      jump\t// out\n        /* \"#utility.yul\":696:835   */\n    tag_118:\n        /* \"#utility.yul\":742:747   */\n      0x00\n        /* \"#utility.yul\":780:786   */\n      dup2\n        /* \"#utility.yul\":767:787   */\n      calldataload\n        /* \"#utility.yul\":758:787   */\n      swap1\n      pop\n        /* \"#utility.yul\":796:829   */\n      tag_144\n        /* \"#utility.yul\":823:828   */\n      dup2\n        /* \"#utility.yul\":796:829   */\n      tag_117\n      jump\t// in\n    tag_144:\n        /* \"#utility.yul\":696:835   */\n      swap3\n      swap2\n      pop\n      pop\n      jump\t// out\n        /* \"#utility.yul\":841:1170   */\n    tag_15:\n        /* \"#utility.yul\":900:906   */\n      0x00\n        /* \"#utility.yul\":949:951   */\n      0x20\n        /* \"#utility.yul\":937:946   */\n      dup3\n        /* \"#utility.yul\":928:935   */\n      dup5\n        /* \"#utility.yul\":924:947   */\n      sub\n        /* \"#utility.yul\":920:952   */\n      slt\n        /* \"#utility.yul\":917:1036   */\n      iszero\n      tag_146\n      jumpi\n        /* \"#utility.yul\":955:1034   */\n      tag_147\n      tag_113\n      jump\t// in\n    tag_147:\n        /* \"#utility.yul\":917:1036   */\n    tag_146:\n        /* \"#utility.yul\":1075:1076   */\n      0x00\n        /* \"#utility.yul\":1100:1153   */\n      tag_148\n        /* \"#utility.yul\":1145:1152   */\n      dup5\n        /* \"#utility.yul\":1136:1142   */\n      dup3\n        /* \"#utility.yul\":1125:1134   */\n      dup6\n        /* \"#utility.yul\":1121:1143   */\n      add\n        /* \"#utility.yul\":1100:1153   */\n      tag_118\n      jump\t// in\n    tag_148:\n        /* \"#utility.yul\":1090:1153   */\n      swap2\n      pop\n        /* \"#utility.yul\":1046:1163   */\n      pop\n        /* \"#utility.yul\":841:1170   */\n      swap3\n      swap2\n      pop\n      pop\n      jump\t// out\n        /* \"#utility.yul\":1176:1253   */\n    tag_119:\n        /* \"#utility.yul\":1213:1220   */\n      0x00\n        /* \"#utility.yul\":1242:1247   */\n      dup2\n        /* \"#utility.yul\":1231:1247   */\n      swap1\n      pop\n        /* \"#utility.yul\":1176:1253   */\n      swap2\n      swap1\n      pop\n      jump\t// out\n        /* \"#utility.yul\":1259:1377   */\n    tag_120:\n        /* \"#utility.yul\":1346:1370   */\n      tag_151\n        /* \"#utility.yul\":1364:1369   */\n      dup2\n        /* \"#utility.yul\":1346:1370   */\n      tag_119\n      jump\t// in\n    tag_151:\n        /* \"#utility.yul\":1341:1344   */\n      dup3\n        /* \"#utility.yul\":1334:1371   */\n      mstore\n        /* \"#utility.yul\":1259:1377   */\n      pop\n      pop\n      jump\t// out\n        /* \"#utility.yul\":1383:1605   */\n    tag_18:\n        /* \"#utility.yul\":1476:1480   */\n      0x00\n        /* \"#utility.yul\":1514:1516   */\n      0x20\n        /* \"#utility.yul\":1503:1512   */\n      dup3\n        /* \"#utility.yul\":1499:1517   */\n      add\n        /* \"#utility.yul\":1491:1517   */\n      swap1\n      pop\n        /* \"#utility.yul\":1527:1598   */\n      tag_153\n        /* \"#utility.yul\":1595:1596   */\n      0x00\n        /* \"#utility.yul\":1584:1593   */\n      dup4\n        /* \"#utility.yul\":1580:1597   */\n      add\n        /* \"#utility.yul\":1571:1577   */\n      dup5\n        /* \"#utility.yul\":1527:1598   */\n      tag_120\n      jump\t// in\n    tag_153:\n        /* \"#utility.yul\":1383:1605   */\n      swap3\n      swap2\n      pop\n      pop\n      jump\t// out\n        /* \"#utility.yul\":1611:1733   */\n    tag_121:\n        /* \"#utility.yul\":1684:1708   */\n      tag_155\n        /* \"#utility.yul\":1702:1707   */\n      dup2\n        /* \"#utility.yul\":1684:1708   */\n      tag_119\n      jump\t// in\n    tag_155:\n        /* \"#utility.yul\":1677:1682   */\n      dup2\n        /* \"#utility.yul\":1674:1709   */\n      eq\n        /* \"#utility.yul\":1664:1727   */\n      tag_156\n      jumpi\n        /* \"#utility.yul\":1723:1724   */\n      0x00\n        /* \"#utility.yul\":1720:1721   */\n      0x00\n        /* \"#utility.yul\":1713:1725   */\n      revert\n        /* \"#utility.yul\":1664:1727   */\n    tag_156:\n        /* \"#utility.yul\":1611:1733   */\n      pop\n      jump\t// out\n        /* \"#utility.yul\":1739:1878   */\n    tag_122:\n        /* \"#utility.yul\":1785:1790   */\n      0x00\n        /* \"#utility.yul\":1823:1829   */\n      dup2\n        /* \"#utility.yul\":1810:1830   */\n      calldataload\n        /* \"#utility.yul\":1801:1830   */\n      swap1\n      pop\n        /* \"#utility.yul\":1839:1872   */\n      tag_158\n        /* \"#utility.yul\":1866:1871   */\n      dup2\n        /* \"#utility.yul\":1839:1872   */\n      tag_121\n      jump\t// in\n    tag_158:\n        /* \"#utility.yul\":1739:1878   */\n      swap3\n      swap2\n      pop\n      pop\n      jump\t// out\n        /* \"#utility.yul\":1884:2213   */\n    tag_35:\n        /* \"#utility.yul\":1943:1949   */\n      0x00\n        /* \"#utility.yul\":1992:1994   */\n      0x20\n        /* \"#utility.yul\":1980:1989   */\n      dup3\n        /* \"#utility.yul\":1971:1978   */\n      dup5\n        /* \"#utility.yul\":1967:1990   */\n      sub\n        /* \"#utility.yul\":1963:1995   */\n      slt\n        /* \"#utility.yul\":1960:2079   */\n      iszero\n      tag_160\n      jumpi\n        /* \"#utility.yul\":1998:2077   */\n      tag_161\n      tag_113\n      jump\t// in\n    tag_161:\n        /* \"#utility.yul\":1960:2079   */\n    tag_160:\n        /* \"#utility.yul\":2118:2119   */\n      0x00\n        /* \"#utility.yul\":2143:2196   */\n      tag_162\n        /* \"#utility.yul\":2188:2195   */\n      dup5\n        /* \"#utility.yul\":2179:2185   */\n      dup3\n        /* \"#utility.yul\":2168:2177   */\n      dup6\n        /* \"#utility.yul\":2164:2186   */\n      add\n        /* \"#utility.yul\":2143:2196   */\n      tag_122\n      jump\t// in\n    tag_162:\n        /* \"#utility.yul\":2133:2196   */\n      swap2\n      pop\n        /* \"#utility.yul\":2089:2206   */\n      pop\n        /* \"#utility.yul\":1884:2213   */\n      swap3\n      swap2\n      pop\n      pop\n      jump\t// out\n        /* \"#utility.yul\":2219:2337   */\n    tag_123:\n        /* \"#utility.yul\":2306:2330   */\n      tag_164\n        /* \"#utility.yul\":2324:2329   */\n      dup2\n        /* \"#utility.yul\":2306:2330   */\n      tag_116\n      jump\t// in\n    tag_164:\n        /* \"#utility.yul\":2301:2304   */\n      dup3\n        /* \"#utility.yul\":2294:2331   */\n      mstore\n        /* \"#utility.yul\":2219:2337   */\n      pop\n      pop\n      jump\t// out\n        /* \"#utility.yul\":2343:2565   */\n    tag_38:\n        /* \"#utility.yul\":2436:2440   */\n      0x00\n        /* \"#utility.yul\":2474:2476   */\n      0x20\n        /* \"#utility.yul\":2463:2472   */\n      dup3\n        /* \"#utility.yul\":2459:2477   */\n      add\n        /* \"#utility.yul\":2451:2477   */\n      swap1\n      pop\n        /* \"#utility.yul\":2487:2558   */\n      tag_166\n        /* \"#utility.yul\":2555:2556   */\n      0x00\n        /* \"#utility.yul\":2544:2553   */\n      dup4\n        /* \"#utility.yul\":2540:2557   */\n      add\n        /* \"#utility.yul\":2531:2537   */\n      dup5\n        /* \"#utility.yul\":2487:2558   */\n      tag_123\n      jump\t// in\n    tag_166:\n        /* \"#utility.yul\":2343:2565   */\n      swap3\n      swap2\n      pop\n      pop\n      jump\t// out\n        /* \"#utility.yul\":2571:2751   */\n    tag_124:\n        /* \"#utility.yul\":2619:2696   */\n      0x4e487b7100000000000000000000000000000000000000000000000000000000\n        /* \"#utility.yul\":2616:2617   */\n      0x00\n        /* \"#utility.yul\":2609:2697   */\n      mstore\n        /* \"#utility.yul\":2716:2720   */\n      0x11\n        /* \"#utility.yul\":2713:2714   */\n      0x04\n        /* \"#utility.yul\":2706:2721   */\n      mstore\n        /* \"#utility.yul\":2740:2744   */\n      0x24\n        /* \"#utility.yul\":2737:2738   */\n      0x00\n        /* \"#utility.yul\":2730:2745   */\n      revert\n        /* \"#utility.yul\":2757:2948   */\n    tag_47:\n        /* \"#utility.yul\":2797:2800   */\n      0x00\n        /* \"#utility.yul\":2816:2836   */\n      tag_169\n        /* \"#utility.yul\":2834:2835   */\n      dup3\n        /* \"#utility.yul\":2816:2836   */\n      tag_119\n      jump\t// in\n    tag_169:\n        /* \"#utility.yul\":2811:2836   */\n      swap2\n      pop\n        /* \"#utility.yul\":2850:2870   */\n      tag_170\n        /* \"#utility.yul\":2868:2869   */\n      dup4\n        /* \"#utility.yul\":2850:2870   */\n      tag_119\n      jump\t// in\n    tag_170:\n        /* \"#utility.yul\":2845:2870   */\n      swap3\n      pop\n        /* \"#utility.yul\":2893:2894   */\n      dup3\n        /* \"#utility.yul\":2890:2891   */\n      dup3\n        /* \"#utility.yul\":2886:2895   */\n      add\n        /* \"#utility.yul\":2879:2895   */\n      swap1\n      pop\n        /* \"#utility.yul\":2914:2917   */\n      dup1\n        /* \"#utility.yul\":2911:2912   */\n      dup3\n        /* \"#utility.yul\":2908:2918   */\n      gt\n        /* \"#utility.yul\":2905:2941   */\n      iszero\n      tag_171\n      jumpi\n        /* \"#utility.yul\":2921:2939   */\n      tag_172\n      tag_124\n      jump\t// in\n    tag_172:\n        /* \"#utility.yul\":2905:2941   */\n    tag_171:\n        /* \"#utility.yul\":2757:2948   */\n      swap3\n      swap2\n      pop\n      pop\n      jump\t// out\n        /* \"#utility.yul\":2954:3123   */\n    tag_125:\n        /* \"#utility.yul\":3038:3049   */\n      0x00\n        /* \"#utility.yul\":3072:3078   */\n      dup3\n        /* \"#utility.yul\":3067:3070   */\n      dup3\n        /* \"#utility.yul\":3060:3079   */\n      mstore\n        /* \"#utility.yul\":3112:3116   */\n      0x20\n        /* \"#utility.yul\":3107:3110   */\n      dup3\n        /* \"#utility.yul\":3103:3117   */\n      add\n        /* \"#utility.yul\":3088:3117   */\n      swap1\n      pop\n        /* \"#utility.yul\":2954:3123   */\n      swap3\n      swap2\n      pop\n      pop\n      jump\t// out\n        /* \"#utility.yul\":3129:3301   */\n    tag_126:\n        /* \"#utility.yul\":3269:3293   */\n      0x446973747269627574696f6e206e6f7420726561647900000000000000000000\n        /* \"#utility.yul\":3265:3266   */\n      0x00\n        /* \"#utility.yul\":3257:3263   */\n      dup3\n        /* \"#utility.yul\":3253:3267   */\n      add\n        /* \"#utility.yul\":3246:3294   */\n      mstore\n        /* \"#utility.yul\":3129:3301   */\n      pop\n      jump\t// out\n        /* \"#utility.yul\":3307:3673   */\n    tag_127:\n        /* \"#utility.yul\":3449:3452   */\n      0x00\n        /* \"#utility.yul\":3470:3537   */\n      tag_176\n        /* \"#utility.yul\":3534:3536   */\n      0x16\n        /* \"#utility.yul\":3529:3532   */\n      dup4\n        /* \"#utility.yul\":3470:3537   */\n      tag_125\n      jump\t// in\n    tag_176:\n        /* \"#utility.yul\":3463:3537   */\n      swap2\n      pop\n        /* \"#utility.yul\":3546:3639   */\n      tag_177\n        /* \"#utility.yul\":3635:3638   */\n      dup3\n        /* \"#utility.yul\":3546:3639   */\n      tag_126\n      jump\t// in\n    tag_177:\n        /* \"#utility.yul\":3664:3666   */\n      0x20\n        /* \"#utility.yul\":3659:3662   */\n      dup3\n        /* \"#utility.yul\":3655:3667   */\n      add\n        /* \"#utility.yul\":3648:3667   */\n      swap1\n      pop\n        /* \"#utility.yul\":3307:3673   */\n      swap2\n      swap1\n      pop\n      jump\t// out\n        /* \"#utility.yul\":3679:4098   */\n    tag_50:\n        /* \"#utility.yul\":3845:3849   */\n      0x00\n        /* \"#utility.yul\":3883:3885   */\n      0x20\n        /* \"#utility.yul\":3872:3881   */\n      dup3\n        /* \"#utility.yul\":3868:3886   */\n      add\n        /* \"#utility.yul\":3860:3886   */\n      swap1\n      pop\n        /* \"#utility.yul\":3932:3941   */\n      dup2\n        /* \"#utility.yul\":3926:3930   */\n      dup2\n        /* \"#utility.yul\":3922:3942   */\n      sub\n        /* \"#utility.yul\":3918:3919   */\n      0x00\n        /* \"#utility.yul\":3907:3916   */\n      dup4\n        /* \"#utility.yul\":3903:3920   */\n      add\n        /* \"#utility.yul\":3896:3943   */\n      mstore\n        /* \"#utility.yul\":3960:4091   */\n      tag_179\n        /* \"#utility.yul\":4086:4090   */\n      dup2\n        /* \"#utility.yul\":3960:4091   */\n      tag_127\n      jump\t// in\n    tag_179:\n        /* \"#utility.yul\":3952:4091   */\n      swap1\n      pop\n        /* \"#utility.yul\":3679:4098   */\n      swap2\n      swap1\n      pop\n      jump\t// out\n        /* \"#utility.yul\":4104:4284   */\n    tag_56:\n        /* \"#utility.yul\":4152:4229   */\n      0x4e487b7100000000000000000000000000000000000000000000000000000000\n        /* \"#utility.yul\":4149:4150   */\n      0x00\n        /* \"#utility.yul\":4142:4230   */\n      mstore\n        /* \"#utility.yul\":4249:4253   */\n      0x32\n        /* \"#utility.yul\":4246:4247   */\n      0x04\n        /* \"#utility.yul\":4239:4254   */\n      mstore\n        /* \"#utility.yul\":4273:4277   */\n      0x24\n        /* \"#utility.yul\":4270:4271   */\n      0x00\n        /* \"#utility.yul\":4263:4278   */\n      revert\n        /* \"#utility.yul\":4290:4700   */\n    tag_59:\n        /* \"#utility.yul\":4330:4337   */\n      0x00\n        /* \"#utility.yul\":4353:4373   */\n      tag_182\n        /* \"#utility.yul\":4371:4372   */\n      dup3\n        /* \"#utility.yul\":4353:4373   */\n      tag_119\n      jump\t// in\n    tag_182:\n        /* \"#utility.yul\":4348:4373   */\n      swap2\n      pop\n        /* \"#utility.yul\":4387:4407   */\n      tag_183\n        /* \"#utility.yul\":4405:4406   */\n      dup4\n        /* \"#utility.yul\":4387:4407   */\n      tag_119\n      jump\t// in\n    tag_183:\n        /* \"#utility.yul\":4382:4407   */\n      swap3\n      pop\n        /* \"#utility.yul\":4442:4443   */\n      dup3\n        /* \"#utility.yul\":4439:4440   */\n      dup3\n        /* \"#utility.yul\":4435:4444   */\n      mul\n        /* \"#utility.yul\":4464:4494   */\n      tag_184\n        /* \"#utility.yul\":4482:4493   */\n      dup2\n        /* \"#utility.yul\":4464:4494   */\n      tag_119\n      jump\t// in\n    tag_184:\n        /* \"#utility.yul\":4453:4494   */\n      swap2\n      pop\n        /* \"#utility.yul\":4643:4644   */\n      dup3\n        /* \"#utility.yul\":4634:4641   */\n      dup3\n        /* \"#utility.yul\":4630:4645   */\n      div\n        /* \"#utility.yul\":4627:4628   */\n      dup5\n        /* \"#utility.yul\":4624:4646   */\n      eq\n        /* \"#utility.yul\":4604:4605   */\n      dup4\n        /* \"#utility.yul\":4597:4606   */\n      iszero\n        /* \"#utility.yul\":4577:4660   */\n      or\n        /* \"#utility.yul\":4554:4693   */\n      tag_185\n      jumpi\n        /* \"#utility.yul\":4673:4691   */\n      tag_186\n      tag_124\n      jump\t// in\n    tag_186:\n        /* \"#utility.yul\":4554:4693   */\n    tag_185:\n        /* \"#utility.yul\":4338:4700   */\n      pop\n        /* \"#utility.yul\":4290:4700   */\n      swap3\n      swap2\n      pop\n      pop\n      jump\t// out\n        /* \"#utility.yul\":4706:4886   */\n    tag_128:\n        /* \"#utility.yul\":4754:4831   */\n      0x4e487b7100000000000000000000000000000000000000000000000000000000\n        /* \"#utility.yul\":4751:4752   */\n      0x00\n        /* \"#utility.yul\":4744:4832   */\n      mstore\n        /* \"#utility.yul\":4851:4855   */\n      0x12\n        /* \"#utility.yul\":4848:4849   */\n      0x04\n        /* \"#utility.yul\":4841:4856   */\n      mstore\n        /* \"#utility.yul\":4875:4879   */\n      0x24\n        /* \"#utility.yul\":4872:4873   */\n      0x00\n        /* \"#utility.yul\":4865:4880   */\n      revert\n        /* \"#utility.yul\":4892:5077   */\n    tag_61:\n        /* \"#utility.yul\":4932:4933   */\n      0x00\n        /* \"#utility.yul\":4949:4969   */\n      tag_189\n        /* \"#utility.yul\":4967:4968   */\n      dup3\n        /* \"#utility.yul\":4949:4969   */\n      tag_119\n      jump\t// in\n    tag_189:\n        /* \"#utility.yul\":4944:4969   */\n      swap2\n      pop\n        /* \"#utility.yul\":4983:5003   */\n      tag_190\n        /* \"#utility.yul\":5001:5002   */\n      dup4\n        /* \"#utility.yul\":4983:5003   */\n      tag_119\n      jump\t// in\n    tag_190:\n        /* \"#utility.yul\":4978:5003   */\n      swap3\n      pop\n        /* \"#utility.yul\":5022:5023   */\n      dup3\n        /* \"#utility.yul\":5012:5047   */\n      tag_191\n      jumpi\n        /* \"#utility.yul\":5027:5045   */\n      tag_192\n      tag_128\n      jump\t// in\n    tag_192:\n        /* \"#utility.yul\":5012:5047   */\n    tag_191:\n        /* \"#utility.yul\":5069:5070   */\n      dup3\n        /* \"#utility.yul\":5066:5067   */\n      dup3\n        /* \"#utility.yul\":5062:5071   */\n      div\n        /* \"#utility.yul\":5057:5071   */\n      swap1\n      pop\n        /* \"#utility.yul\":4892:5077   */\n      swap3\n      swap2\n      pop\n      pop\n      jump\t// out\n        /* \"#utility.yul\":5083:5277   */\n    tag_64:\n        /* \"#utility.yul\":5123:5127   */\n      0x00\n        /* \"#utility.yul\":5143:5163   */\n      tag_194\n        /* \"#utility.yul\":5161:5162   */\n      dup3\n        /* \"#utility.yul\":5143:5163   */\n      tag_119\n      jump\t// in\n    tag_194:\n        /* \"#utility.yul\":5138:5163   */\n      swap2\n      pop\n        /* \"#utility.yul\":5177:5197   */\n      tag_195\n        /* \"#utility.yul\":5195:5196   */\n      dup4\n        /* \"#utility.yul\":5177:5197   */\n      tag_119\n      jump\t// in\n    tag_195:\n        /* \"#utility.yul\":5172:5197   */\n      swap3\n      pop\n        /* \"#utility.yul\":5221:5222   */\n      dup3\n        /* \"#utility.yul\":5218:5219   */\n      dup3\n        /* \"#utility.yul\":5214:5223   */\n      sub\n        /* \"#utility.yul\":5206:5223   */\n      swap1\n      pop\n        /* \"#utility.yul\":5245:5246   */\n      dup2\n        /* \"#utility.yul\":5239:5243   */\n      dup2\n        /* \"#utility.yul\":5236:5247   */\n      gt\n        /* \"#utility.yul\":5233:5270   */\n      iszero\n      tag_196\n      jumpi\n        /* \"#utility.yul\":5250:5268   */\n      tag_197\n      tag_124\n      jump\t// in\n    tag_197:\n        /* \"#utility.yul\":5233:5270   */\n    tag_196:\n        /* \"#utility.yul\":5083:5277   */\n      swap3\n      swap2\n      pop\n      pop\n      jump\t// out\n        /* \"#utility.yul\":5283:5449   */\n    tag_129:\n        /* \"#utility.yul\":5423:5441   */\n      0x4e6f206c6f636b656420746f6b656e7300000000000000000000000000000000\n        /* \"#utility.yul\":5419:5420   */\n      0x00\n        /* \"#utility.yul\":5411:5417   */\n      dup3\n        /* \"#utility.yul\":5407:5421   */\n      add\n        /* \"#utility.yul\":5400:5442   */\n      mstore\n        /* \"#utility.yul\":5283:5449   */\n      pop\n      jump\t// out\n        /* \"#utility.yul\":5455:5821   */\n    tag_130:\n        /* \"#utility.yul\":5597:5600   */\n      0x00\n        /* \"#utility.yul\":5618:5685   */\n      tag_200\n        /* \"#utility.yul\":5682:5684   */\n      0x10\n        /* \"#utility.yul\":5677:5680   */\n      dup4\n        /* \"#utility.yul\":5618:5685   */\n      tag_125\n      jump\t// in\n    tag_200:\n        /* \"#utility.yul\":5611:5685   */\n      swap2\n      pop\n        /* \"#utility.yul\":5694:5787   */\n      tag_201\n        /* \"#utility.yul\":5783:5786   */\n      dup3\n        /* \"#utility.yul\":5694:5787   */\n      tag_129\n      jump\t// in\n    tag_201:\n        /* \"#utility.yul\":5812:5814   */\n      0x20\n        /* \"#utility.yul\":5807:5810   */\n      dup3\n        /* \"#utility.yul\":5803:5815   */\n      add\n        /* \"#utility.yul\":5796:5815   */\n      swap1\n      pop\n        /* \"#utility.yul\":5455:5821   */\n      swap2\n      swap1\n      pop\n      jump\t// out\n        /* \"#utility.yul\":5827:6246   */\n    tag_69:\n        /* \"#utility.yul\":5993:5997   */\n      0x00\n        /* \"#utility.yul\":6031:6033   */\n      0x20\n        /* \"#utility.yul\":6020:6029   */\n      dup3\n        /* \"#utility.yul\":6016:6034   */\n      add\n        /* \"#utility.yul\":6008:6034   */\n      swap1\n      pop\n        /* \"#utility.yul\":6080:6089   */\n      dup2\n        /* \"#utility.yul\":6074:6078   */\n      dup2\n        /* \"#utility.yul\":6070:6090   */\n      sub\n        /* \"#utility.yul\":6066:6067   */\n      0x00\n        /* \"#utility.yul\":6055:6064   */\n      dup4\n        /* \"#utility.yul\":6051:6068   */\n      add\n        /* \"#utility.yul\":6044:6091   */\n      mstore\n        /* \"#utility.yul\":6108:6239   */\n      tag_203\n        /* \"#utility.yul\":6234:6238   */\n      dup2\n        /* \"#utility.yul\":6108:6239   */\n      tag_130\n      jump\t// in\n    tag_203:\n        /* \"#utility.yul\":6100:6239   */\n      swap1\n      pop\n        /* \"#utility.yul\":5827:6246   */\n      swap2\n      swap1\n      pop\n      jump\t// out\n        /* \"#utility.yul\":6252:6472   */\n    tag_131:\n        /* \"#utility.yul\":6392:6426   */\n      0x4e6f74207965742072656163686564206e65787420756e6c6f636b20706f696e\n        /* \"#utility.yul\":6388:6389   */\n      0x00\n        /* \"#utility.yul\":6380:6386   */\n      dup3\n        /* \"#utility.yul\":6376:6390   */\n      add\n        /* \"#utility.yul\":6369:6427   */\n      mstore\n        /* \"#utility.yul\":6461:6464   */\n      0x7400000000000000000000000000000000000000000000000000000000000000\n        /* \"#utility.yul\":6456:6458   */\n      0x20\n        /* \"#utility.yul\":6448:6454   */\n      dup3\n        /* \"#utility.yul\":6444:6459   */\n      add\n        /* \"#utility.yul\":6437:6465   */\n      mstore\n        /* \"#utility.yul\":6252:6472   */\n      pop\n      jump\t// out\n        /* \"#utility.yul\":6478:6844   */\n    tag_132:\n        /* \"#utility.yul\":6620:6623   */\n      0x00\n        /* \"#utility.yul\":6641:6708   */\n      tag_206\n        /* \"#utility.yul\":6705:6707   */\n      0x21\n        /* \"#utility.yul\":6700:6703   */\n      dup4\n        /* \"#utility.yul\":6641:6708   */\n      tag_125\n      jump\t// in\n    tag_206:\n        /* \"#utility.yul\":6634:6708   */\n      swap2\n      pop\n        /* \"#utility.yul\":6717:6810   */\n      tag_207\n        /* \"#utility.yul\":6806:6809   */\n      dup3\n        /* \"#utility.yul\":6717:6810   */\n      tag_131\n      jump\t// in\n    tag_207:\n        /* \"#utility.yul\":6835:6837   */\n      0x40\n        /* \"#utility.yul\":6830:6833   */\n      dup3\n        /* \"#utility.yul\":6826:6838   */\n      add\n        /* \"#utility.yul\":6819:6838   */\n      swap1\n      pop\n        /* \"#utility.yul\":6478:6844   */\n      swap2\n      swap1\n      pop\n      jump\t// out\n        /* \"#utility.yul\":6850:7269   */\n    tag_97:\n        /* \"#utility.yul\":7016:7020   */\n      0x00\n        /* \"#utility.yul\":7054:7056   */\n      0x20\n        /* \"#utility.yul\":7043:7052   */\n      dup3\n        /* \"#utility.yul\":7039:7057   */\n      add\n        /* \"#utility.yul\":7031:7057   */\n      swap1\n      pop\n        /* \"#utility.yul\":7103:7112   */\n      dup2\n        /* \"#utility.yul\":7097:7101   */\n      dup2\n        /* \"#utility.yul\":7093:7113   */\n      sub\n        /* \"#utility.yul\":7089:7090   */\n      0x00\n        /* \"#utility.yul\":7078:7087   */\n      dup4\n        /* \"#utility.yul\":7074:7091   */\n      add\n        /* \"#utility.yul\":7067:7114   */\n      mstore\n        /* \"#utility.yul\":7131:7262   */\n      tag_209\n        /* \"#utility.yul\":7257:7261   */\n      dup2\n        /* \"#utility.yul\":7131:7262   */\n      tag_132\n      jump\t// in\n    tag_209:\n        /* \"#utility.yul\":7123:7262   */\n      swap1\n      pop\n        /* \"#utility.yul\":6850:7269   */\n      swap2\n      swap1\n      pop\n      jump\t// out\n\n    auxdata: 0xa2646970667358221220575160e27f1f07d3df5eb321960dffd072aec05bc3c0b1529ac672d128a8163664736f6c634300081c0033\n}\n",
				"bytecode": {
					"linkReferences": {},
					"object": "6080604052603c60015560b46064604660015461001c919061008d565b61002691906100fb565b61003091906100fb565b600255611c2060035562107ac060045534801561004b575f5ffd5b50435f8190555061012b565b5f819050919050565b7f4e487b71000000000000000000000000000000000000000000000000000000005f52601160045260245ffd5b5f61009782610057565b91506100a283610057565b92508282026100b081610057565b915082820484148315176100c7576100c6610060565b5b5092915050565b7f4e487b71000000000000000000000000000000000000000000000000000000005f52601260045260245ffd5b5f61010582610057565b915061011083610057565b9250826101205761011f6100ce565b5b828204905092915050565b610aff806101385f395ff3fe608060405234801561000f575f5ffd5b5060043610610091575f3560e01c8063aca32d8611610064578063aca32d861461010b578063cb3cc12614610129578063d1bc76a114610147578063f2bc79a314610177578063f5c330a81461019557610091565b80630483a7f61461009557806331008aae146100c55780636f4a2cd0146100e357806382dc7c9d146100ed575b5f5ffd5b6100af60048036038101906100aa9190610724565b6101b3565b6040516100bc9190610767565b60405180910390f35b6100cd6101ce565b6040516100da9190610767565b60405180910390f35b6100eb6101d4565b005b6100f56103d6565b6040516101029190610767565b60405180910390f35b6101136103dc565b6040516101209190610767565b60405180910390f35b61013161067a565b60405161013e9190610767565b60405180910390f35b610161600480360381019061015c91906107aa565b610680565b60405161016e91906107e4565b60405180910390f35b61017f6106bb565b60405161018c9190610767565b60405180910390f35b61019d6106c0565b6040516101aa9190610767565b60405180910390f35b6005602052805f5260405f205f915090508060010154905081565b60035481565b6003545f546101e3919061082a565b431015610225576040517f08c379a000000000000000000000000000000000000000000000000000000000815260040161021c906108b7565b60405180910390fd5b435f819055505f5f90505b6006805490508110156103d3575f60068281548110610252576102516108d5565b5b905f5260205f20015f9054906101000a900473ffffffffffffffffffffffffffffffffffffffff1690505f6064601e60015461028e9190610902565b6102989190610970565b90508060055f8473ffffffffffffffffffffffffffffffffffffffff1673ffffffffffffffffffffffffffffffffffffffff1681526020019081526020015f206001015f8282546102e9919061082a565b9250508190555060055f8373ffffffffffffffffffffffffffffffffffffffff1673ffffffffffffffffffffffffffffffffffffffff1681526020019081526020015f205f0160405180608001604052808360015461034891906109a0565b81526020015f5481526020015f5481526020015f1515815250908060018154018082558091505060019003905f5260205f2090600402015f909190919091505f820151815f015560208201518160010155604082015181600201556060820151816003015f6101000a81548160ff021916908315150217905550505050508080600101915050610230565b50565b60045481565b5f5f60055f3373ffffffffffffffffffffffffffffffffffffffff1673ffffffffffffffffffffffffffffffffffffffff1681526020019081526020015f2090505f815f018054905011610465576040517f08c379a000000000000000000000000000000000000000000000000000000000815260040161045c90610a1d565b60405180910390fd5b5f816001015490505f5f90505b825f018054905081101561067157825f018181548110610495576104946108d5565b5b905f5260205f2090600402016003015f9054906101000a900460ff16610664575f600454845f0183815481106104ce576104cd6108d5565b5b905f5260205f20906004020160010154436104e991906109a0565b1061055657835f018281548110610503576105026108d5565b5b905f5260205f20906004020160020154600454855f01848154811061052b5761052a6108d5565b5b905f5260205f20906004020160010154610545919061082a565b61054f91906109a0565b9050610589565b835f01828154811061056b5761056a6108d5565b5b905f5260205f209060040201600201544361058691906109a0565b90505b6003548110156105ce576040517f08c379a00000000000000000000000000000000000000000000000000000000081526004016105c590610aab565b60405180910390fd5b5f600354826105dd9190610970565b90505f600254826105ee9190610902565b9050855f018481548110610605576106046108d5565b5b905f5260205f2090600402015f015481101561062e578085610627919061082a565b9450610660565b855f018481548110610643576106426108d5565b5b905f5260205f2090600402015f01548561065d919061082a565b94505b5050505b8080600101915050610472565b50809250505090565b60015481565b6006818154811061068f575f80fd5b905f5260205f20015f915054906101000a900473ffffffffffffffffffffffffffffffffffffffff1681565b5f5481565b60025481565b5f5ffd5b5f73ffffffffffffffffffffffffffffffffffffffff82169050919050565b5f6106f3826106ca565b9050919050565b610703816106e9565b811461070d575f5ffd5b50565b5f8135905061071e816106fa565b92915050565b5f60208284031215610739576107386106c6565b5b5f61074684828501610710565b91505092915050565b5f819050919050565b6107618161074f565b82525050565b5f60208201905061077a5f830184610758565b92915050565b6107898161074f565b8114610793575f5ffd5b50565b5f813590506107a481610780565b92915050565b5f602082840312156107bf576107be6106c6565b5b5f6107cc84828501610796565b91505092915050565b6107de816106e9565b82525050565b5f6020820190506107f75f8301846107d5565b92915050565b7f4e487b71000000000000000000000000000000000000000000000000000000005f52601160045260245ffd5b5f6108348261074f565b915061083f8361074f565b9250828201905080821115610857576108566107fd565b5b92915050565b5f82825260208201905092915050565b7f446973747269627574696f6e206e6f74207265616479000000000000000000005f82015250565b5f6108a160168361085d565b91506108ac8261086d565b602082019050919050565b5f6020820190508181035f8301526108ce81610895565b9050919050565b7f4e487b71000000000000000000000000000000000000000000000000000000005f52603260045260245ffd5b5f61090c8261074f565b91506109178361074f565b92508282026109258161074f565b9150828204841483151761093c5761093b6107fd565b5b5092915050565b7f4e487b71000000000000000000000000000000000000000000000000000000005f52601260045260245ffd5b5f61097a8261074f565b91506109858361074f565b92508261099557610994610943565b5b828204905092915050565b5f6109aa8261074f565b91506109b58361074f565b92508282039050818111156109cd576109cc6107fd565b5b92915050565b7f4e6f206c6f636b656420746f6b656e73000000000000000000000000000000005f82015250565b5f610a0760108361085d565b9150610a12826109d3565b602082019050919050565b5f6020820190508181035f830152610a34816109fb565b9050919050565b7f4e6f74207965742072656163686564206e65787420756e6c6f636b20706f696e5f8201527f7400000000000000000000000000000000000000000000000000000000000000602082015250565b5f610a9560218361085d565b9150610aa082610a3b565b604082019050919050565b5f6020820190508181035f830152610ac281610a89565b905091905056fea2646970667358221220575160e27f1f07d3df5eb321960dffd072aec05bc3c0b1529ac672d128a8163664736f6c634300081c0033",
					"opcodes": "PUSH1 0x80 PUSH1 0x40 MSTORE PUSH1 0x3C PUSH1 0x1 SSTORE PUSH1 0xB4 PUSH1 0x64 PUSH1 0x46 PUSH1 0x1 SLOAD PUSH2 0x1C SWAP2 SWAP1 PUSH2 0x8D JUMP JUMPDEST PUSH2 0x26 SWAP2 SWAP1 PUSH2 0xFB JUMP JUMPDEST PUSH2 0x30 SWAP2 SWAP1 PUSH2 0xFB JUMP JUMPDEST PUSH1 0x2 SSTORE PUSH2 0x1C20 PUSH1 0x3 SSTORE PUSH3 0x107AC0 PUSH1 0x4 SSTORE CALLVALUE DUP1 ISZERO PUSH2 0x4B JUMPI PUSH0 PUSH0 REVERT JUMPDEST POP NUMBER PUSH0 DUP2 SWAP1 SSTORE POP PUSH2 0x12B JUMP JUMPDEST PUSH0 DUP2 SWAP1 POP SWAP2 SWAP1 POP JUMP JUMPDEST PUSH32 0x4E487B7100000000000000000000000000000000000000000000000000000000 PUSH0 MSTORE PUSH1 0x11 PUSH1 0x4 MSTORE PUSH1 0x24 PUSH0 REVERT JUMPDEST PUSH0 PUSH2 0x97 DUP3 PUSH2 0x57 JUMP JUMPDEST SWAP2 POP PUSH2 0xA2 DUP4 PUSH2 0x57 JUMP JUMPDEST SWAP3 POP DUP3 DUP3 MUL PUSH2 0xB0 DUP2 PUSH2 0x57 JUMP JUMPDEST SWAP2 POP DUP3 DUP3 DIV DUP5 EQ DUP4 ISZERO OR PUSH2 0xC7 JUMPI PUSH2 0xC6 PUSH2 0x60 JUMP JUMPDEST JUMPDEST POP SWAP3 SWAP2 POP POP JUMP JUMPDEST PUSH32 0x4E487B7100000000000000000000000000000000000000000000000000000000 PUSH0 MSTORE PUSH1 0x12 PUSH1 0x4 MSTORE PUSH1 0x24 PUSH0 REVERT JUMPDEST PUSH0 PUSH2 0x105 DUP3 PUSH2 0x57 JUMP JUMPDEST SWAP2 POP PUSH2 0x110 DUP4 PUSH2 0x57 JUMP JUMPDEST SWAP3 POP DUP3 PUSH2 0x120 JUMPI PUSH2 0x11F PUSH2 0xCE JUMP JUMPDEST JUMPDEST DUP3 DUP3 DIV SWAP1 POP SWAP3 SWAP2 POP POP JUMP JUMPDEST PUSH2 0xAFF DUP1 PUSH2 0x138 PUSH0 CODECOPY PUSH0 RETURN INVALID PUSH1 0x80 PUSH1 0x40 MSTORE CALLVALUE DUP1 ISZERO PUSH2 0xF JUMPI PUSH0 PUSH0 REVERT JUMPDEST POP PUSH1 0x4 CALLDATASIZE LT PUSH2 0x91 JUMPI PUSH0 CALLDATALOAD PUSH1 0xE0 SHR DUP1 PUSH4 0xACA32D86 GT PUSH2 0x64 JUMPI DUP1 PUSH4 0xACA32D86 EQ PUSH2 0x10B JUMPI DUP1 PUSH4 0xCB3CC126 EQ PUSH2 0x129 JUMPI DUP1 PUSH4 0xD1BC76A1 EQ PUSH2 0x147 JUMPI DUP1 PUSH4 0xF2BC79A3 EQ PUSH2 0x177 JUMPI DUP1 PUSH4 0xF5C330A8 EQ PUSH2 0x195 JUMPI PUSH2 0x91 JUMP JUMPDEST DUP1 PUSH4 0x483A7F6 EQ PUSH2 0x95 JUMPI DUP1 PUSH4 0x31008AAE EQ PUSH2 0xC5 JUMPI DUP1 PUSH4 0x6F4A2CD0 EQ PUSH2 0xE3 JUMPI DUP1 PUSH4 0x82DC7C9D EQ PUSH2 0xED JUMPI JUMPDEST PUSH0 PUSH0 REVERT JUMPDEST PUSH2 0xAF PUSH1 0x4 DUP1 CALLDATASIZE SUB DUP2 ADD SWAP1 PUSH2 0xAA SWAP2 SWAP1 PUSH2 0x724 JUMP JUMPDEST PUSH2 0x1B3 JUMP JUMPDEST PUSH1 0x40 MLOAD PUSH2 0xBC SWAP2 SWAP1 PUSH2 0x767 JUMP JUMPDEST PUSH1 0x40 MLOAD DUP1 SWAP2 SUB SWAP1 RETURN JUMPDEST PUSH2 0xCD PUSH2 0x1CE JUMP JUMPDEST PUSH1 0x40 MLOAD PUSH2 0xDA SWAP2 SWAP1 PUSH2 0x767 JUMP JUMPDEST PUSH1 0x40 MLOAD DUP1 SWAP2 SUB SWAP1 RETURN JUMPDEST PUSH2 0xEB PUSH2 0x1D4 JUMP JUMPDEST STOP JUMPDEST PUSH2 0xF5 PUSH2 0x3D6 JUMP JUMPDEST PUSH1 0x40 MLOAD PUSH2 0x102 SWAP2 SWAP1 PUSH2 0x767 JUMP JUMPDEST PUSH1 0x40 MLOAD DUP1 SWAP2 SUB SWAP1 RETURN JUMPDEST PUSH2 0x113 PUSH2 0x3DC JUMP JUMPDEST PUSH1 0x40 MLOAD PUSH2 0x120 SWAP2 SWAP1 PUSH2 0x767 JUMP JUMPDEST PUSH1 0x40 MLOAD DUP1 SWAP2 SUB SWAP1 RETURN JUMPDEST PUSH2 0x131 PUSH2 0x67A JUMP JUMPDEST PUSH1 0x40 MLOAD PUSH2 0x13E SWAP2 SWAP1 PUSH2 0x767 JUMP JUMPDEST PUSH1 0x40 MLOAD DUP1 SWAP2 SUB SWAP1 RETURN JUMPDEST PUSH2 0x161 PUSH1 0x4 DUP1 CALLDATASIZE SUB DUP2 ADD SWAP1 PUSH2 0x15C SWAP2 SWAP1 PUSH2 0x7AA JUMP JUMPDEST PUSH2 0x680 JUMP JUMPDEST PUSH1 0x40 MLOAD PUSH2 0x16E SWAP2 SWAP1 PUSH2 0x7E4 JUMP JUMPDEST PUSH1 0x40 MLOAD DUP1 SWAP2 SUB SWAP1 RETURN JUMPDEST PUSH2 0x17F PUSH2 0x6BB JUMP JUMPDEST PUSH1 0x40 MLOAD PUSH2 0x18C SWAP2 SWAP1 PUSH2 0x767 JUMP JUMPDEST PUSH1 0x40 MLOAD DUP1 SWAP2 SUB SWAP1 RETURN JUMPDEST PUSH2 0x19D PUSH2 0x6C0 JUMP JUMPDEST PUSH1 0x40 MLOAD PUSH2 0x1AA SWAP2 SWAP1 PUSH2 0x767 JUMP JUMPDEST PUSH1 0x40 MLOAD DUP1 SWAP2 SUB SWAP1 RETURN JUMPDEST PUSH1 0x5 PUSH1 0x20 MSTORE DUP1 PUSH0 MSTORE PUSH1 0x40 PUSH0 KECCAK256 PUSH0 SWAP2 POP SWAP1 POP DUP1 PUSH1 0x1 ADD SLOAD SWAP1 POP DUP2 JUMP JUMPDEST PUSH1 0x3 SLOAD DUP2 JUMP JUMPDEST PUSH1 0x3 SLOAD PUSH0 SLOAD PUSH2 0x1E3 SWAP2 SWAP1 PUSH2 0x82A JUMP JUMPDEST NUMBER LT ISZERO PUSH2 0x225 JUMPI PUSH1 0x40 MLOAD PUSH32 0x8C379A000000000000000000000000000000000000000000000000000000000 DUP2 MSTORE PUSH1 0x4 ADD PUSH2 0x21C SWAP1 PUSH2 0x8B7 JUMP JUMPDEST PUSH1 0x40 MLOAD DUP1 SWAP2 SUB SWAP1 REVERT JUMPDEST NUMBER PUSH0 DUP2 SWAP1 SSTORE POP PUSH0 PUSH0 SWAP1 POP JUMPDEST PUSH1 0x6 DUP1 SLOAD SWAP1 POP DUP2 LT ISZERO PUSH2 0x3D3 JUMPI PUSH0 PUSH1 0x6 DUP3 DUP2 SLOAD DUP2 LT PUSH2 0x252 JUMPI PUSH2 0x251 PUSH2 0x8D5 JUMP JUMPDEST JUMPDEST SWAP1 PUSH0 MSTORE PUSH1 0x20 PUSH0 KECCAK256 ADD PUSH0 SWAP1 SLOAD SWAP1 PUSH2 0x100 EXP SWAP1 DIV PUSH20 0xFFFFFFFFFFFFFFFFFFFFFFFFFFFFFFFFFFFFFFFF AND SWAP1 POP PUSH0 PUSH1 0x64 PUSH1 0x1E PUSH1 0x1 SLOAD PUSH2 0x28E SWAP2 SWAP1 PUSH2 0x902 JUMP JUMPDEST PUSH2 0x298 SWAP2 SWAP1 PUSH2 0x970 JUMP JUMPDEST SWAP1 POP DUP1 PUSH1 0x5 PUSH0 DUP5 PUSH20 0xFFFFFFFFFFFFFFFFFFFFFFFFFFFFFFFFFFFFFFFF AND PUSH20 0xFFFFFFFFFFFFFFFFFFFFFFFFFFFFFFFFFFFFFFFF AND DUP2 MSTORE PUSH1 0x20 ADD SWAP1 DUP2 MSTORE PUSH1 0x20 ADD PUSH0 KECCAK256 PUSH1 0x1 ADD PUSH0 DUP3 DUP3 SLOAD PUSH2 0x2E9 SWAP2 SWAP1 PUSH2 0x82A JUMP JUMPDEST SWAP3 POP POP DUP2 SWAP1 SSTORE POP PUSH1 0x5 PUSH0 DUP4 PUSH20 0xFFFFFFFFFFFFFFFFFFFFFFFFFFFFFFFFFFFFFFFF AND PUSH20 0xFFFFFFFFFFFFFFFFFFFFFFFFFFFFFFFFFFFFFFFF AND DUP2 MSTORE PUSH1 0x20 ADD SWAP1 DUP2 MSTORE PUSH1 0x20 ADD PUSH0 KECCAK256 PUSH0 ADD PUSH1 0x40 MLOAD DUP1 PUSH1 0x80 ADD PUSH1 0x40 MSTORE DUP1 DUP4 PUSH1 0x1 SLOAD PUSH2 0x348 SWAP2 SWAP1 PUSH2 0x9A0 JUMP JUMPDEST DUP2 MSTORE PUSH1 0x20 ADD PUSH0 SLOAD DUP2 MSTORE PUSH1 0x20 ADD PUSH0 SLOAD DUP2 MSTORE PUSH1 0x20 ADD PUSH0 ISZERO ISZERO DUP2 MSTORE POP SWAP1 DUP1 PUSH1 0x1 DUP2 SLOAD ADD DUP1 DUP3 SSTORE DUP1 SWAP2 POP POP PUSH1 0x1 SWAP1 SUB SWAP1 PUSH0 MSTORE PUSH1 0x20 PUSH0 KECCAK256 SWAP1 PUSH1 0x4 MUL ADD PUSH0 SWAP1 SWAP2 SWAP1 SWAP2 SWAP1 SWAP2 POP PUSH0 DUP3 ADD MLOAD DUP2 PUSH0 ADD SSTORE PUSH1 0x20 DUP3 ADD MLOAD DUP2 PUSH1 0x1 ADD SSTORE PUSH1 0x40 DUP3 ADD MLOAD DUP2 PUSH1 0x2 ADD SSTORE PUSH1 0x60 DUP3 ADD MLOAD DUP2 PUSH1 0x3 ADD PUSH0 PUSH2 0x100 EXP DUP2 SLOAD DUP2 PUSH1 0xFF MUL NOT AND SWAP1 DUP4 ISZERO ISZERO MUL OR SWAP1 SSTORE POP POP POP POP POP DUP1 DUP1 PUSH1 0x1 ADD SWAP2 POP POP PUSH2 0x230 JUMP JUMPDEST POP JUMP JUMPDEST PUSH1 0x4 SLOAD DUP2 JUMP JUMPDEST PUSH0 PUSH0 PUSH1 0x5 PUSH0 CALLER PUSH20 0xFFFFFFFFFFFFFFFFFFFFFFFFFFFFFFFFFFFFFFFF AND PUSH20 0xFFFFFFFFFFFFFFFFFFFFFFFFFFFFFFFFFFFFFFFF AND DUP2 MSTORE PUSH1 0x20 ADD SWAP1 DUP2 MSTORE PUSH1 0x20 ADD PUSH0 KECCAK256 SWAP1 POP PUSH0 DUP2 PUSH0 ADD DUP1 SLOAD SWAP1 POP GT PUSH2 0x465 JUMPI PUSH1 0x40 MLOAD PUSH32 0x8C379A000000000000000000000000000000000000000000000000000000000 DUP2 MSTORE PUSH1 0x4 ADD PUSH2 0x45C SWAP1 PUSH2 0xA1D JUMP JUMPDEST PUSH1 0x40 MLOAD DUP1 SWAP2 SUB SWAP1 REVERT JUMPDEST PUSH0 DUP2 PUSH1 0x1 ADD SLOAD SWAP1 POP PUSH0 PUSH0 SWAP1 POP JUMPDEST DUP3 PUSH0 ADD DUP1 SLOAD SWAP1 POP DUP2 LT ISZERO PUSH2 0x671 JUMPI DUP3 PUSH0 ADD DUP2 DUP2 SLOAD DUP2 LT PUSH2 0x495 JUMPI PUSH2 0x494 PUSH2 0x8D5 JUMP JUMPDEST JUMPDEST SWAP1 PUSH0 MSTORE PUSH1 0x20 PUSH0 KECCAK256 SWAP1 PUSH1 0x4 MUL ADD PUSH1 0x3 ADD PUSH0 SWAP1 SLOAD SWAP1 PUSH2 0x100 EXP SWAP1 DIV PUSH1 0xFF AND PUSH2 0x664 JUMPI PUSH0 PUSH1 0x4 SLOAD DUP5 PUSH0 ADD DUP4 DUP2 SLOAD DUP2 LT PUSH2 0x4CE JUMPI PUSH2 0x4CD PUSH2 0x8D5 JUMP JUMPDEST JUMPDEST SWAP1 PUSH0 MSTORE PUSH1 0x20 PUSH0 KECCAK256 SWAP1 PUSH1 0x4 MUL ADD PUSH1 0x1 ADD SLOAD NUMBER PUSH2 0x4E9 SWAP2 SWAP1 PUSH2 0x9A0 JUMP JUMPDEST LT PUSH2 0x556 JUMPI DUP4 PUSH0 ADD DUP3 DUP2 SLOAD DUP2 LT PUSH2 0x503 JUMPI PUSH2 0x502 PUSH2 0x8D5 JUMP JUMPDEST JUMPDEST SWAP1 PUSH0 MSTORE PUSH1 0x20 PUSH0 KECCAK256 SWAP1 PUSH1 0x4 MUL ADD PUSH1 0x2 ADD SLOAD PUSH1 0x4 SLOAD DUP6 PUSH0 ADD DUP5 DUP2 SLOAD DUP2 LT PUSH2 0x52B JUMPI PUSH2 0x52A PUSH2 0x8D5 JUMP JUMPDEST JUMPDEST SWAP1 PUSH0 MSTORE PUSH1 0x20 PUSH0 KECCAK256 SWAP1 PUSH1 0x4 MUL ADD PUSH1 0x1 ADD SLOAD PUSH2 0x545 SWAP2 SWAP1 PUSH2 0x82A JUMP JUMPDEST PUSH2 0x54F SWAP2 SWAP1 PUSH2 0x9A0 JUMP JUMPDEST SWAP1 POP PUSH2 0x589 JUMP JUMPDEST DUP4 PUSH0 ADD DUP3 DUP2 SLOAD DUP2 LT PUSH2 0x56B JUMPI PUSH2 0x56A PUSH2 0x8D5 JUMP JUMPDEST JUMPDEST SWAP1 PUSH0 MSTORE PUSH1 0x20 PUSH0 KECCAK256 SWAP1 PUSH1 0x4 MUL ADD PUSH1 0x2 ADD SLOAD NUMBER PUSH2 0x586 SWAP2 SWAP1 PUSH2 0x9A0 JUMP JUMPDEST SWAP1 POP JUMPDEST PUSH1 0x3 SLOAD DUP2 LT ISZERO PUSH2 0x5CE JUMPI PUSH1 0x40 MLOAD PUSH32 0x8C379A000000000000000000000000000000000000000000000000000000000 DUP2 MSTORE PUSH1 0x4 ADD PUSH2 0x5C5 SWAP1 PUSH2 0xAAB JUMP JUMPDEST PUSH1 0x40 MLOAD DUP1 SWAP2 SUB SWAP1 REVERT JUMPDEST PUSH0 PUSH1 0x3 SLOAD DUP3 PUSH2 0x5DD SWAP2 SWAP1 PUSH2 0x970 JUMP JUMPDEST SWAP1 POP PUSH0 PUSH1 0x2 SLOAD DUP3 PUSH2 0x5EE SWAP2 SWAP1 PUSH2 0x902 JUMP JUMPDEST SWAP1 POP DUP6 PUSH0 ADD DUP5 DUP2 SLOAD DUP2 LT PUSH2 0x605 JUMPI PUSH2 0x604 PUSH2 0x8D5 JUMP JUMPDEST JUMPDEST SWAP1 PUSH0 MSTORE PUSH1 0x20 PUSH0 KECCAK256 SWAP1 PUSH1 0x4 MUL ADD PUSH0 ADD SLOAD DUP2 LT ISZERO PUSH2 0x62E JUMPI DUP1 DUP6 PUSH2 0x627 SWAP2 SWAP1 PUSH2 0x82A JUMP JUMPDEST SWAP5 POP PUSH2 0x660 JUMP JUMPDEST DUP6 PUSH0 ADD DUP5 DUP2 SLOAD DUP2 LT PUSH2 0x643 JUMPI PUSH2 0x642 PUSH2 0x8D5 JUMP JUMPDEST JUMPDEST SWAP1 PUSH0 MSTORE PUSH1 0x20 PUSH0 KECCAK256 SWAP1 PUSH1 0x4 MUL ADD PUSH0 ADD SLOAD DUP6 PUSH2 0x65D SWAP2 SWAP1 PUSH2 0x82A JUMP JUMPDEST SWAP5 POP JUMPDEST POP POP POP JUMPDEST DUP1 DUP1 PUSH1 0x1 ADD SWAP2 POP POP PUSH2 0x472 JUMP JUMPDEST POP DUP1 SWAP3 POP POP POP SWAP1 JUMP JUMPDEST PUSH1 0x1 SLOAD DUP2 JUMP JUMPDEST PUSH1 0x6 DUP2 DUP2 SLOAD DUP2 LT PUSH2 0x68F JUMPI PUSH0 DUP1 REVERT JUMPDEST SWAP1 PUSH0 MSTORE PUSH1 0x20 PUSH0 KECCAK256 ADD PUSH0 SWAP2 POP SLOAD SWAP1 PUSH2 0x100 EXP SWAP1 DIV PUSH20 0xFFFFFFFFFFFFFFFFFFFFFFFFFFFFFFFFFFFFFFFF AND DUP2 JUMP JUMPDEST PUSH0 SLOAD DUP2 JUMP JUMPDEST PUSH1 0x2 SLOAD DUP2 JUMP JUMPDEST PUSH0 PUSH0 REVERT JUMPDEST PUSH0 PUSH20 0xFFFFFFFFFFFFFFFFFFFFFFFFFFFFFFFFFFFFFFFF DUP3 AND SWAP1 POP SWAP2 SWAP1 POP JUMP JUMPDEST PUSH0 PUSH2 0x6F3 DUP3 PUSH2 0x6CA JUMP JUMPDEST SWAP1 POP SWAP2 SWAP1 POP JUMP JUMPDEST PUSH2 0x703 DUP2 PUSH2 0x6E9 JUMP JUMPDEST DUP2 EQ PUSH2 0x70D JUMPI PUSH0 PUSH0 REVERT JUMPDEST POP JUMP JUMPDEST PUSH0 DUP2 CALLDATALOAD SWAP1 POP PUSH2 0x71E DUP2 PUSH2 0x6FA JUMP JUMPDEST SWAP3 SWAP2 POP POP JUMP JUMPDEST PUSH0 PUSH1 0x20 DUP3 DUP5 SUB SLT ISZERO PUSH2 0x739 JUMPI PUSH2 0x738 PUSH2 0x6C6 JUMP JUMPDEST JUMPDEST PUSH0 PUSH2 0x746 DUP5 DUP3 DUP6 ADD PUSH2 0x710 JUMP JUMPDEST SWAP2 POP POP SWAP3 SWAP2 POP POP JUMP JUMPDEST PUSH0 DUP2 SWAP1 POP SWAP2 SWAP1 POP JUMP JUMPDEST PUSH2 0x761 DUP2 PUSH2 0x74F JUMP JUMPDEST DUP3 MSTORE POP POP JUMP JUMPDEST PUSH0 PUSH1 0x20 DUP3 ADD SWAP1 POP PUSH2 0x77A PUSH0 DUP4 ADD DUP5 PUSH2 0x758 JUMP JUMPDEST SWAP3 SWAP2 POP POP JUMP JUMPDEST PUSH2 0x789 DUP2 PUSH2 0x74F JUMP JUMPDEST DUP2 EQ PUSH2 0x793 JUMPI PUSH0 PUSH0 REVERT JUMPDEST POP JUMP JUMPDEST PUSH0 DUP2 CALLDATALOAD SWAP1 POP PUSH2 0x7A4 DUP2 PUSH2 0x780 JUMP JUMPDEST SWAP3 SWAP2 POP POP JUMP JUMPDEST PUSH0 PUSH1 0x20 DUP3 DUP5 SUB SLT ISZERO PUSH2 0x7BF JUMPI PUSH2 0x7BE PUSH2 0x6C6 JUMP JUMPDEST JUMPDEST PUSH0 PUSH2 0x7CC DUP5 DUP3 DUP6 ADD PUSH2 0x796 JUMP JUMPDEST SWAP2 POP POP SWAP3 SWAP2 POP POP JUMP JUMPDEST PUSH2 0x7DE DUP2 PUSH2 0x6E9 JUMP JUMPDEST DUP3 MSTORE POP POP JUMP JUMPDEST PUSH0 PUSH1 0x20 DUP3 ADD SWAP1 POP PUSH2 0x7F7 PUSH0 DUP4 ADD DUP5 PUSH2 0x7D5 JUMP JUMPDEST SWAP3 SWAP2 POP POP JUMP JUMPDEST PUSH32 0x4E487B7100000000000000000000000000000000000000000000000000000000 PUSH0 MSTORE PUSH1 0x11 PUSH1 0x4 MSTORE PUSH1 0x24 PUSH0 REVERT JUMPDEST PUSH0 PUSH2 0x834 DUP3 PUSH2 0x74F JUMP JUMPDEST SWAP2 POP PUSH2 0x83F DUP4 PUSH2 0x74F JUMP JUMPDEST SWAP3 POP DUP3 DUP3 ADD SWAP1 POP DUP1 DUP3 GT ISZERO PUSH2 0x857 JUMPI PUSH2 0x856 PUSH2 0x7FD JUMP JUMPDEST JUMPDEST SWAP3 SWAP2 POP POP JUMP JUMPDEST PUSH0 DUP3 DUP3 MSTORE PUSH1 0x20 DUP3 ADD SWAP1 POP SWAP3 SWAP2 POP POP JUMP JUMPDEST PUSH32 0x446973747269627574696F6E206E6F7420726561647900000000000000000000 PUSH0 DUP3 ADD MSTORE POP JUMP JUMPDEST PUSH0 PUSH2 0x8A1 PUSH1 0x16 DUP4 PUSH2 0x85D JUMP JUMPDEST SWAP2 POP PUSH2 0x8AC DUP3 PUSH2 0x86D JUMP JUMPDEST PUSH1 0x20 DUP3 ADD SWAP1 POP SWAP2 SWAP1 POP JUMP JUMPDEST PUSH0 PUSH1 0x20 DUP3 ADD SWAP1 POP DUP2 DUP2 SUB PUSH0 DUP4 ADD MSTORE PUSH2 0x8CE DUP2 PUSH2 0x895 JUMP JUMPDEST SWAP1 POP SWAP2 SWAP1 POP JUMP JUMPDEST PUSH32 0x4E487B7100000000000000000000000000000000000000000000000000000000 PUSH0 MSTORE PUSH1 0x32 PUSH1 0x4 MSTORE PUSH1 0x24 PUSH0 REVERT JUMPDEST PUSH0 PUSH2 0x90C DUP3 PUSH2 0x74F JUMP JUMPDEST SWAP2 POP PUSH2 0x917 DUP4 PUSH2 0x74F JUMP JUMPDEST SWAP3 POP DUP3 DUP3 MUL PUSH2 0x925 DUP2 PUSH2 0x74F JUMP JUMPDEST SWAP2 POP DUP3 DUP3 DIV DUP5 EQ DUP4 ISZERO OR PUSH2 0x93C JUMPI PUSH2 0x93B PUSH2 0x7FD JUMP JUMPDEST JUMPDEST POP SWAP3 SWAP2 POP POP JUMP JUMPDEST PUSH32 0x4E487B7100000000000000000000000000000000000000000000000000000000 PUSH0 MSTORE PUSH1 0x12 PUSH1 0x4 MSTORE PUSH1 0x24 PUSH0 REVERT JUMPDEST PUSH0 PUSH2 0x97A DUP3 PUSH2 0x74F JUMP JUMPDEST SWAP2 POP PUSH2 0x985 DUP4 PUSH2 0x74F JUMP JUMPDEST SWAP3 POP DUP3 PUSH2 0x995 JUMPI PUSH2 0x994 PUSH2 0x943 JUMP JUMPDEST JUMPDEST DUP3 DUP3 DIV SWAP1 POP SWAP3 SWAP2 POP POP JUMP JUMPDEST PUSH0 PUSH2 0x9AA DUP3 PUSH2 0x74F JUMP JUMPDEST SWAP2 POP PUSH2 0x9B5 DUP4 PUSH2 0x74F JUMP JUMPDEST SWAP3 POP DUP3 DUP3 SUB SWAP1 POP DUP2 DUP2 GT ISZERO PUSH2 0x9CD JUMPI PUSH2 0x9CC PUSH2 0x7FD JUMP JUMPDEST JUMPDEST SWAP3 SWAP2 POP POP JUMP JUMPDEST PUSH32 0x4E6F206C6F636B656420746F6B656E7300000000000000000000000000000000 PUSH0 DUP3 ADD MSTORE POP JUMP JUMPDEST PUSH0 PUSH2 0xA07 PUSH1 0x10 DUP4 PUSH2 0x85D JUMP JUMPDEST SWAP2 POP PUSH2 0xA12 DUP3 PUSH2 0x9D3 JUMP JUMPDEST PUSH1 0x20 DUP3 ADD SWAP1 POP SWAP2 SWAP1 POP JUMP JUMPDEST PUSH0 PUSH1 0x20 DUP3 ADD SWAP1 POP DUP2 DUP2 SUB PUSH0 DUP4 ADD MSTORE PUSH2 0xA34 DUP2 PUSH2 0x9FB JUMP JUMPDEST SWAP1 POP SWAP2 SWAP1 POP JUMP JUMPDEST PUSH32 0x4E6F74207965742072656163686564206E65787420756E6C6F636B20706F696E PUSH0 DUP3 ADD MSTORE PUSH32 0x7400000000000000000000000000000000000000000000000000000000000000 PUSH1 0x20 DUP3 ADD MSTORE POP JUMP JUMPDEST PUSH0 PUSH2 0xA95 PUSH1 0x21 DUP4 PUSH2 0x85D JUMP JUMPDEST SWAP2 POP PUSH2 0xAA0 DUP3 PUSH2 0xA3B JUMP JUMPDEST PUSH1 0x40 DUP3 ADD SWAP1 POP SWAP2 SWAP1 POP JUMP JUMPDEST PUSH0 PUSH1 0x20 DUP3 ADD SWAP1 POP DUP2 DUP2 SUB PUSH0 DUP4 ADD MSTORE PUSH2 0xAC2 DUP2 PUSH2 0xA89 JUMP JUMPDEST SWAP1 POP SWAP2 SWAP1 POP JUMP INVALID LOG2 PUSH5 0x6970667358 0x22 SLT KECCAK256 JUMPI MLOAD PUSH1 0xE2 PUSH32 0x1F07D3DF5EB321960DFFD072AEC05BC3C0B1529AC672D128A8163664736F6C63 NUMBER STOP ADDMOD SHR STOP CALLER "
				},
				"gasEstimates": {
					"creation": {
						"codeDepositCost": "563000",
						"executionCost": "infinite",
						"totalCost": "infinite"
					},
					"external": {
						"DISTRIBUTION_BLOCK_INTERVAL()": "2448",
						"LOCK_BLOCKS()": "2492",
						"checkClaimRelease()": "infinite",
						"distributeRewards()": "infinite",
						"lastDistributionBlock()": "2490",
						"lockedBalances(address)": "2817",
						"onlineReward()": "2447",
						"recipients(uint256)": "4988",
						"roundUnlock()": "2513"
					}
				},
				"methodIdentifiers": {
					"DISTRIBUTION_BLOCK_INTERVAL()": "31008aae",
					"LOCK_BLOCKS()": "82dc7c9d",
					"checkClaimRelease()": "aca32d86",
					"distributeRewards()": "6f4a2cd0",
					"lastDistributionBlock()": "f2bc79a3",
					"lockedBalances(address)": "0483a7f6",
					"onlineReward()": "cb3cc126",
					"recipients(uint256)": "d1bc76a1",
					"roundUnlock()": "f5c330a8"
				}
			},
			"storageLayout": {
				"storage": [
					{
						"astId": 3,
						"contract": "contracts/distribution.sol:Distribution",
						"label": "lastDistributionBlock",
						"offset": 0,
						"slot": "0",
						"type": "t_uint256"
					},
					{
						"astId": 6,
						"contract": "contracts/distribution.sol:Distribution",
						"label": "onlineReward",
						"offset": 0,
						"slot": "1",
						"type": "t_uint256"
					},
					{
						"astId": 16,
						"contract": "contracts/distribution.sol:Distribution",
						"label": "roundUnlock",
						"offset": 0,
						"slot": "2",
						"type": "t_uint256"
					},
					{
						"astId": 19,
						"contract": "contracts/distribution.sol:Distribution",
						"label": "DISTRIBUTION_BLOCK_INTERVAL",
						"offset": 0,
						"slot": "3",
						"type": "t_uint256"
					},
					{
						"astId": 22,
						"contract": "contracts/distribution.sol:Distribution",
						"label": "LOCK_BLOCKS",
						"offset": 0,
						"slot": "4",
						"type": "t_uint256"
					},
					{
						"astId": 43,
						"contract": "contracts/distribution.sol:Distribution",
						"label": "lockedBalances",
						"offset": 0,
						"slot": "5",
						"type": "t_mapping(t_address,t_struct(Reward)38_storage)"
					},
					{
						"astId": 46,
						"contract": "contracts/distribution.sol:Distribution",
						"label": "recipients",
						"offset": 0,
						"slot": "6",
						"type": "t_array(t_address)dyn_storage"
					}
				],
				"types": {
					"t_address": {
						"encoding": "inplace",
						"label": "address",
						"numberOfBytes": "20"
					},
					"t_array(t_address)dyn_storage": {
						"base": "t_address",
						"encoding": "dynamic_array",
						"label": "address[]",
						"numberOfBytes": "32"
					},
					"t_array(t_struct(LockInfo)31_storage)dyn_storage": {
						"base": "t_struct(LockInfo)31_storage",
						"encoding": "dynamic_array",
						"label": "struct Distribution.LockInfo[]",
						"numberOfBytes": "32"
					},
					"t_bool": {
						"encoding": "inplace",
						"label": "bool",
						"numberOfBytes": "1"
					},
					"t_mapping(t_address,t_struct(Reward)38_storage)": {
						"encoding": "mapping",
						"key": "t_address",
						"label": "mapping(address => struct Distribution.Reward)",
						"numberOfBytes": "32",
						"value": "t_struct(Reward)38_storage"
					},
					"t_struct(LockInfo)31_storage": {
						"encoding": "inplace",
						"label": "struct Distribution.LockInfo",
						"members": [
							{
								"astId": 24,
								"contract": "contracts/distribution.sol:Distribution",
								"label": "totalAmount",
								"offset": 0,
								"slot": "0",
								"type": "t_uint256"
							},
							{
								"astId": 26,
								"contract": "contracts/distribution.sol:Distribution",
								"label": "startBlock",
								"offset": 0,
								"slot": "1",
								"type": "t_uint256"
							},
							{
								"astId": 28,
								"contract": "contracts/distribution.sol:Distribution",
								"label": "lastClaimedBlock",
								"offset": 0,
								"slot": "2",
								"type": "t_uint256"
							},
							{
								"astId": 30,
								"contract": "contracts/distribution.sol:Distribution",
								"label": "isUnlocked",
								"offset": 0,
								"slot": "3",
								"type": "t_bool"
							}
						],
						"numberOfBytes": "128"
					},
					"t_struct(Reward)38_storage": {
						"encoding": "inplace",
						"label": "struct Distribution.Reward",
						"members": [
							{
								"astId": 35,
								"contract": "contracts/distribution.sol:Distribution",
								"label": "lockInfo",
								"offset": 0,
								"slot": "0",
								"type": "t_array(t_struct(LockInfo)31_storage)dyn_storage"
							},
							{
								"astId": 37,
								"contract": "contracts/distribution.sol:Distribution",
								"label": "unlockedAmount",
								"offset": 0,
								"slot": "1",
								"type": "t_uint256"
							}
						],
						"numberOfBytes": "64"
					},
					"t_uint256": {
						"encoding": "inplace",
						"label": "uint256",
						"numberOfBytes": "32"
					}
				}
			},
			"userdoc": {
				"kind": "user",
				"methods": {},
				"version": 1
			}
		}
	}
}