{
	"contracts/test.sol": {
		"AutoDistribution": {
			"abi": [
				{
					"inputs": [
						{
							"internalType": "address",
							"name": "_token",
							"type": "address"
						},
						{
							"internalType": "address",
							"name": "_checker",
							"type": "address"
						}
					],
					"stateMutability": "nonpayable",
					"type": "constructor"
				},
				{
					"inputs": [],
					"name": "DISTRIBUTION_BLOCK_INTERVAL",
					"outputs": [
						{
							"internalType": "uint256",
							"name": "",
							"type": "uint256"
						}
					],
					"stateMutability": "view",
					"type": "function"
				},
				{
					"inputs": [],
					"name": "EARLY_UNLOCK_PERCENT",
					"outputs": [
						{
							"internalType": "uint256",
							"name": "",
							"type": "uint256"
						}
					],
					"stateMutability": "view",
					"type": "function"
				},
				{
					"inputs": [],
					"name": "LOCK_BLOCKS",
					"outputs": [
						{
							"internalType": "uint256",
							"name": "",
							"type": "uint256"
						}
					],
					"stateMutability": "view",
					"type": "function"
				},
				{
					"inputs": [
						{
							"internalType": "address",
							"name": "wallet",
							"type": "address"
						}
					],
					"name": "addWallet",
					"outputs": [],
					"stateMutability": "nonpayable",
					"type": "function"
				},
				{
					"inputs": [
						{
							"internalType": "address",
							"name": "",
							"type": "address"
						}
					],
					"name": "authorizedAddress",
					"outputs": [
						{
							"internalType": "bool",
							"name": "",
							"type": "bool"
						}
					],
					"stateMutability": "view",
					"type": "function"
				},
				{
					"inputs": [
						{
							"internalType": "address",
							"name": "",
							"type": "address"
						}
					],
					"name": "bindingWallets",
					"outputs": [
						{
							"internalType": "address",
							"name": "",
							"type": "address"
						}
					],
					"stateMutability": "view",
					"type": "function"
				},
				{
					"inputs": [],
					"name": "checker",
					"outputs": [
						{
							"internalType": "contract CHECKER",
							"name": "",
							"type": "address"
						}
					],
					"stateMutability": "view",
					"type": "function"
				},
				{
					"inputs": [
						{
							"internalType": "address",
							"name": "_rewardAddress",
							"type": "address"
						}
					],
					"name": "claimReleaseTokens",
					"outputs": [],
					"stateMutability": "nonpayable",
					"type": "function"
				},
				{
					"inputs": [
						{
							"internalType": "address",
							"name": "_rewardAddress",
							"type": "address"
						}
					],
					"name": "claimUnlockedTokens",
					"outputs": [],
					"stateMutability": "nonpayable",
					"type": "function"
				},
				{
					"inputs": [],
					"name": "distributeRewards",
					"outputs": [],
					"stateMutability": "nonpayable",
					"type": "function"
				},
				{
					"inputs": [
						{
							"internalType": "address",
							"name": "_rewardAddress",
							"type": "address"
						}
					],
					"name": "earlyUnlock",
					"outputs": [],
					"stateMutability": "nonpayable",
					"type": "function"
				},
				{
					"inputs": [
						{
							"internalType": "address",
							"name": "wallet",
							"type": "address"
						}
					],
					"name": "isAuthorized",
					"outputs": [
						{
							"internalType": "bool",
							"name": "",
							"type": "bool"
						}
					],
					"stateMutability": "view",
					"type": "function"
				},
				{
					"inputs": [],
					"name": "lastDistributionBlock",
					"outputs": [
						{
							"internalType": "uint256",
							"name": "",
							"type": "uint256"
						}
					],
					"stateMutability": "view",
					"type": "function"
				},
				{
					"inputs": [
						{
							"internalType": "address",
							"name": "",
							"type": "address"
						}
					],
					"name": "lockedBalances",
					"outputs": [
						{
							"internalType": "uint256",
							"name": "unlockedAmount",
							"type": "uint256"
						}
					],
					"stateMutability": "view",
					"type": "function"
				},
				{
					"inputs": [],
					"name": "onlineReward",
					"outputs": [
						{
							"internalType": "uint256",
							"name": "",
							"type": "uint256"
						}
					],
					"stateMutability": "view",
					"type": "function"
				},
				{
					"inputs": [],
					"name": "owner",
					"outputs": [
						{
							"internalType": "address",
							"name": "",
							"type": "address"
						}
					],
					"stateMutability": "view",
					"type": "function"
				},
				{
					"inputs": [
						{
							"internalType": "uint256",
							"name": "",
							"type": "uint256"
						}
					],
					"name": "recipients",
					"outputs": [
						{
							"internalType": "address",
							"name": "",
							"type": "address"
						}
					],
					"stateMutability": "view",
					"type": "function"
				},
				{
					"inputs": [],
					"name": "roundUnlock",
					"outputs": [
						{
							"internalType": "uint256",
							"name": "",
							"type": "uint256"
						}
					],
					"stateMutability": "view",
					"type": "function"
				},
				{
					"inputs": [],
					"name": "token",
					"outputs": [
						{
							"internalType": "contract IERC20",
							"name": "",
							"type": "address"
						}
					],
					"stateMutability": "view",
					"type": "function"
				},
				{
					"inputs": [
						{
							"internalType": "uint256",
							"name": "newLockPeriod",
							"type": "uint256"
						}
					],
					"name": "updateLockPeriod",
					"outputs": [],
					"stateMutability": "view",
					"type": "function"
				},
				{
					"inputs": [
						{
							"internalType": "address",
							"name": "_rewardAddress",
							"type": "address"
						}
					],
					"name": "withdraw",
					"outputs": [],
					"stateMutability": "nonpayable",
					"type": "function"
				}
			],
			"devdoc": {
				"kind": "dev",
				"methods": {},
				"version": 1
			},
			"evm": {
				"assembly": "    /* \"contracts/test.sol\":554:7357  contract AutoDistribution {... */\n  mstore(0x40, 0x80)\n    /* \"contracts/test.sol\":705:707  60 */\n  0x3c\n    /* \"contracts/test.sol\":675:707  uint256 public onlineReward = 60 */\n  0x03\n  sstore\n    /* \"contracts/test.sol\":787:790  180 */\n  0xb4\n    /* \"contracts/test.sol\":781:784  100 */\n  0x64\n    /* \"contracts/test.sol\":775:777  70 */\n  0x46\n    /* \"contracts/test.sol\":760:772  onlineReward */\n  sload(0x03)\n    /* \"contracts/test.sol\":760:777  onlineReward * 70 */\n  tag_1\n  swap2\n  swap1\n  tag_2\n  jump\t// in\ntag_1:\n    /* \"contracts/test.sol\":759:784  (onlineReward * 70) / 100 */\n  tag_3\n  swap2\n  swap1\n  tag_4\n  jump\t// in\ntag_3:\n    /* \"contracts/test.sol\":759:790  (onlineReward * 70) / 100 / 180 */\n  tag_5\n  swap2\n  swap1\n  tag_4\n  jump\t// in\ntag_5:\n    /* \"contracts/test.sol\":730:790  uint256 public roundUnlock = (onlineReward * 70) / 100 / 180 */\n  0x04\n  sstore\n    /* \"contracts/test.sol\":1922:2123  constructor(address _token, address _checker) {... */\n  callvalue\n  dup1\n  iszero\n  tag_6\n  jumpi\n  revert(0x00, 0x00)\ntag_6:\n  pop\n  mload(0x40)\n  sub(codesize, bytecodeSize)\n  dup1\n  bytecodeSize\n  dup4\n  codecopy\n  dup2\n  dup2\n  add\n  0x40\n  mstore\n  dup2\n  add\n  swap1\n  tag_7\n  swap2\n  swap1\n  tag_8\n  jump\t// in\ntag_7:\n    /* \"contracts/test.sol\":1994:2000  _token */\n  dup2\n    /* \"contracts/test.sol\":1979:1984  token */\n  0x00\n  0x00\n    /* \"contracts/test.sol\":1979:2001  token = IERC20(_token) */\n  0x0100\n  exp\n  dup2\n  sload\n  dup2\n  0xffffffffffffffffffffffffffffffffffffffff\n  mul\n  not\n  and\n  swap1\n  dup4\n  0xffffffffffffffffffffffffffffffffffffffff\n  and\n  mul\n  or\n  swap1\n  sstore\n  pop\n    /* \"contracts/test.sol\":2030:2038  _checker */\n  dup1\n    /* \"contracts/test.sol\":2012:2019  checker */\n  0x01\n  0x00\n    /* \"contracts/test.sol\":2012:2039  checker = CHECKER(_checker) */\n  0x0100\n  exp\n  dup2\n  sload\n  dup2\n  0xffffffffffffffffffffffffffffffffffffffff\n  mul\n  not\n  and\n  swap1\n  dup4\n  0xffffffffffffffffffffffffffffffffffffffff\n  and\n  mul\n  or\n  swap1\n  sstore\n  pop\n    /* \"contracts/test.sol\":2058:2068  msg.sender */\n  caller\n    /* \"contracts/test.sol\":2050:2055  owner */\n  0x02\n  0x00\n    /* \"contracts/test.sol\":2050:2068  owner = msg.sender */\n  0x0100\n  exp\n  dup2\n  sload\n  dup2\n  0xffffffffffffffffffffffffffffffffffffffff\n  mul\n  not\n  and\n  swap1\n  dup4\n  0xffffffffffffffffffffffffffffffffffffffff\n  and\n  mul\n  or\n  swap1\n  sstore\n  pop\n    /* \"contracts/test.sol\":2103:2115  block.number */\n  number\n    /* \"contracts/test.sol\":2079:2100  lastDistributionBlock */\n  0x05\n    /* \"contracts/test.sol\":2079:2115  lastDistributionBlock = block.number */\n  dup2\n  swap1\n  sstore\n  pop\n    /* \"contracts/test.sol\":1922:2123  constructor(address _token, address _checker) {... */\n  pop\n  pop\n    /* \"contracts/test.sol\":554:7357  contract AutoDistribution {... */\n  jump(tag_11)\n    /* \"#utility.yul\":7:84   */\ntag_12:\n    /* \"#utility.yul\":44:51   */\n  0x00\n    /* \"#utility.yul\":73:78   */\n  dup2\n    /* \"#utility.yul\":62:78   */\n  swap1\n  pop\n    /* \"#utility.yul\":7:84   */\n  swap2\n  swap1\n  pop\n  jump\t// out\n    /* \"#utility.yul\":90:270   */\ntag_13:\n    /* \"#utility.yul\":138:215   */\n  0x4e487b7100000000000000000000000000000000000000000000000000000000\n    /* \"#utility.yul\":135:136   */\n  0x00\n    /* \"#utility.yul\":128:216   */\n  mstore\n    /* \"#utility.yul\":235:239   */\n  0x11\n    /* \"#utility.yul\":232:233   */\n  0x04\n    /* \"#utility.yul\":225:240   */\n  mstore\n    /* \"#utility.yul\":259:263   */\n  0x24\n    /* \"#utility.yul\":256:257   */\n  0x00\n    /* \"#utility.yul\":249:264   */\n  revert\n    /* \"#utility.yul\":276:686   */\ntag_2:\n    /* \"#utility.yul\":316:323   */\n  0x00\n    /* \"#utility.yul\":339:359   */\n  tag_26\n    /* \"#utility.yul\":357:358   */\n  dup3\n    /* \"#utility.yul\":339:359   */\n  tag_12\n  jump\t// in\ntag_26:\n    /* \"#utility.yul\":334:359   */\n  swap2\n  pop\n    /* \"#utility.yul\":373:393   */\n  tag_27\n    /* \"#utility.yul\":391:392   */\n  dup4\n    /* \"#utility.yul\":373:393   */\n  tag_12\n  jump\t// in\ntag_27:\n    /* \"#utility.yul\":368:393   */\n  swap3\n  pop\n    /* \"#utility.yul\":428:429   */\n  dup3\n    /* \"#utility.yul\":425:426   */\n  dup3\n    /* \"#utility.yul\":421:430   */\n  mul\n    /* \"#utility.yul\":450:480   */\n  tag_28\n    /* \"#utility.yul\":468:479   */\n  dup2\n    /* \"#utility.yul\":450:480   */\n  tag_12\n  jump\t// in\ntag_28:\n    /* \"#utility.yul\":439:480   */\n  swap2\n  pop\n    /* \"#utility.yul\":629:630   */\n  dup3\n    /* \"#utility.yul\":620:627   */\n  dup3\n    /* \"#utility.yul\":616:631   */\n  div\n    /* \"#utility.yul\":613:614   */\n  dup5\n    /* \"#utility.yul\":610:632   */\n  eq\n    /* \"#utility.yul\":590:591   */\n  dup4\n    /* \"#utility.yul\":583:592   */\n  iszero\n    /* \"#utility.yul\":563:646   */\n  or\n    /* \"#utility.yul\":540:679   */\n  tag_29\n  jumpi\n    /* \"#utility.yul\":659:677   */\n  tag_30\n  tag_13\n  jump\t// in\ntag_30:\n    /* \"#utility.yul\":540:679   */\ntag_29:\n    /* \"#utility.yul\":324:686   */\n  pop\n    /* \"#utility.yul\":276:686   */\n  swap3\n  swap2\n  pop\n  pop\n  jump\t// out\n    /* \"#utility.yul\":692:872   */\ntag_14:\n    /* \"#utility.yul\":740:817   */\n  0x4e487b7100000000000000000000000000000000000000000000000000000000\n    /* \"#utility.yul\":737:738   */\n  0x00\n    /* \"#utility.yul\":730:818   */\n  mstore\n    /* \"#utility.yul\":837:841   */\n  0x12\n    /* \"#utility.yul\":834:835   */\n  0x04\n    /* \"#utility.yul\":827:842   */\n  mstore\n    /* \"#utility.yul\":861:865   */\n  0x24\n    /* \"#utility.yul\":858:859   */\n  0x00\n    /* \"#utility.yul\":851:866   */\n  revert\n    /* \"#utility.yul\":878:1063   */\ntag_4:\n    /* \"#utility.yul\":918:919   */\n  0x00\n    /* \"#utility.yul\":935:955   */\n  tag_33\n    /* \"#utility.yul\":953:954   */\n  dup3\n    /* \"#utility.yul\":935:955   */\n  tag_12\n  jump\t// in\ntag_33:\n    /* \"#utility.yul\":930:955   */\n  swap2\n  pop\n    /* \"#utility.yul\":969:989   */\n  tag_34\n    /* \"#utility.yul\":987:988   */\n  dup4\n    /* \"#utility.yul\":969:989   */\n  tag_12\n  jump\t// in\ntag_34:\n    /* \"#utility.yul\":964:989   */\n  swap3\n  pop\n    /* \"#utility.yul\":1008:1009   */\n  dup3\n    /* \"#utility.yul\":998:1033   */\n  tag_35\n  jumpi\n    /* \"#utility.yul\":1013:1031   */\n  tag_36\n  tag_14\n  jump\t// in\ntag_36:\n    /* \"#utility.yul\":998:1033   */\ntag_35:\n    /* \"#utility.yul\":1055:1056   */\n  dup3\n    /* \"#utility.yul\":1052:1053   */\n  dup3\n    /* \"#utility.yul\":1048:1057   */\n  div\n    /* \"#utility.yul\":1043:1057   */\n  swap1\n  pop\n    /* \"#utility.yul\":878:1063   */\n  swap3\n  swap2\n  pop\n  pop\n  jump\t// out\n    /* \"#utility.yul\":1150:1267   */\ntag_16:\n    /* \"#utility.yul\":1259:1260   */\n  0x00\n    /* \"#utility.yul\":1256:1257   */\n  0x00\n    /* \"#utility.yul\":1249:1261   */\n  revert\n    /* \"#utility.yul\":1396:1522   */\ntag_18:\n    /* \"#utility.yul\":1433:1440   */\n  0x00\n    /* \"#utility.yul\":1473:1515   */\n  0xffffffffffffffffffffffffffffffffffffffff\n    /* \"#utility.yul\":1466:1471   */\n  dup3\n    /* \"#utility.yul\":1462:1516   */\n  and\n    /* \"#utility.yul\":1451:1516   */\n  swap1\n  pop\n    /* \"#utility.yul\":1396:1522   */\n  swap2\n  swap1\n  pop\n  jump\t// out\n    /* \"#utility.yul\":1528:1624   */\ntag_19:\n    /* \"#utility.yul\":1565:1572   */\n  0x00\n    /* \"#utility.yul\":1594:1618   */\n  tag_42\n    /* \"#utility.yul\":1612:1617   */\n  dup3\n    /* \"#utility.yul\":1594:1618   */\n  tag_18\n  jump\t// in\ntag_42:\n    /* \"#utility.yul\":1583:1618   */\n  swap1\n  pop\n    /* \"#utility.yul\":1528:1624   */\n  swap2\n  swap1\n  pop\n  jump\t// out\n    /* \"#utility.yul\":1630:1752   */\ntag_20:\n    /* \"#utility.yul\":1703:1727   */\n  tag_44\n    /* \"#utility.yul\":1721:1726   */\n  dup2\n    /* \"#utility.yul\":1703:1727   */\n  tag_19\n  jump\t// in\ntag_44:\n    /* \"#utility.yul\":1696:1701   */\n  dup2\n    /* \"#utility.yul\":1693:1728   */\n  eq\n    /* \"#utility.yul\":1683:1746   */\n  tag_45\n  jumpi\n    /* \"#utility.yul\":1742:1743   */\n  0x00\n    /* \"#utility.yul\":1739:1740   */\n  0x00\n    /* \"#utility.yul\":1732:1744   */\n  revert\n    /* \"#utility.yul\":1683:1746   */\ntag_45:\n    /* \"#utility.yul\":1630:1752   */\n  pop\n  jump\t// out\n    /* \"#utility.yul\":1758:1901   */\ntag_21:\n    /* \"#utility.yul\":1815:1820   */\n  0x00\n    /* \"#utility.yul\":1846:1852   */\n  dup2\n    /* \"#utility.yul\":1840:1853   */\n  mload\n    /* \"#utility.yul\":1831:1853   */\n  swap1\n  pop\n    /* \"#utility.yul\":1862:1895   */\n  tag_47\n    /* \"#utility.yul\":1889:1894   */\n  dup2\n    /* \"#utility.yul\":1862:1895   */\n  tag_20\n  jump\t// in\ntag_47:\n    /* \"#utility.yul\":1758:1901   */\n  swap3\n  swap2\n  pop\n  pop\n  jump\t// out\n    /* \"#utility.yul\":1907:2414   */\ntag_8:\n    /* \"#utility.yul\":1986:1992   */\n  0x00\n    /* \"#utility.yul\":1994:2000   */\n  0x00\n    /* \"#utility.yul\":2043:2045   */\n  0x40\n    /* \"#utility.yul\":2031:2040   */\n  dup4\n    /* \"#utility.yul\":2022:2029   */\n  dup6\n    /* \"#utility.yul\":2018:2041   */\n  sub\n    /* \"#utility.yul\":2014:2046   */\n  slt\n    /* \"#utility.yul\":2011:2130   */\n  iszero\n  tag_49\n  jumpi\n    /* \"#utility.yul\":2049:2128   */\n  tag_50\n  tag_16\n  jump\t// in\ntag_50:\n    /* \"#utility.yul\":2011:2130   */\ntag_49:\n    /* \"#utility.yul\":2169:2170   */\n  0x00\n    /* \"#utility.yul\":2194:2258   */\n  tag_51\n    /* \"#utility.yul\":2250:2257   */\n  dup6\n    /* \"#utility.yul\":2241:2247   */\n  dup3\n    /* \"#utility.yul\":2230:2239   */\n  dup7\n    /* \"#utility.yul\":2226:2248   */\n  add\n    /* \"#utility.yul\":2194:2258   */\n  tag_21\n  jump\t// in\ntag_51:\n    /* \"#utility.yul\":2184:2258   */\n  swap3\n  pop\n    /* \"#utility.yul\":2140:2268   */\n  pop\n    /* \"#utility.yul\":2307:2309   */\n  0x20\n    /* \"#utility.yul\":2333:2397   */\n  tag_52\n    /* \"#utility.yul\":2389:2396   */\n  dup6\n    /* \"#utility.yul\":2380:2386   */\n  dup3\n    /* \"#utility.yul\":2369:2378   */\n  dup7\n    /* \"#utility.yul\":2365:2387   */\n  add\n    /* \"#utility.yul\":2333:2397   */\n  tag_21\n  jump\t// in\ntag_52:\n    /* \"#utility.yul\":2323:2397   */\n  swap2\n  pop\n    /* \"#utility.yul\":2278:2407   */\n  pop\n    /* \"#utility.yul\":1907:2414   */\n  swap3\n  pop\n  swap3\n  swap1\n  pop\n  jump\t// out\n    /* \"contracts/test.sol\":554:7357  contract AutoDistribution {... */\ntag_11:\n  dataSize(sub_0)\n  dup1\n  dataOffset(sub_0)\n  0x00\n  codecopy\n  0x00\n  return\nstop\n\nsub_0: assembly {\n        /* \"contracts/test.sol\":554:7357  contract AutoDistribution {... */\n      mstore(0x40, 0x80)\n      callvalue\n      dup1\n      iszero\n      tag_1\n      jumpi\n      revert(0x00, 0x00)\n    tag_1:\n      pop\n      jumpi(tag_2, lt(calldatasize, 0x04))\n      shr(0xe0, calldataload(0x00))\n      dup1\n      0x91db7b0d\n      gt\n      tag_24\n      jumpi\n      dup1\n      0xdf4d971d\n      gt\n      tag_25\n      jumpi\n      dup1\n      0xdf4d971d\n      eq\n      tag_18\n      jumpi\n      dup1\n      0xefeb5f1f\n      eq\n      tag_19\n      jumpi\n      dup1\n      0xf2bc79a3\n      eq\n      tag_20\n      jumpi\n      dup1\n      0xf5c330a8\n      eq\n      tag_21\n      jumpi\n      dup1\n      0xfc0c546a\n      eq\n      tag_22\n      jumpi\n      dup1\n      0xfe9fbb80\n      eq\n      tag_23\n      jumpi\n      jump(tag_2)\n    tag_25:\n      dup1\n      0x91db7b0d\n      eq\n      tag_13\n      jumpi\n      dup1\n      0x9eda5810\n      eq\n      tag_14\n      jumpi\n      dup1\n      0xcb3cc126\n      eq\n      tag_15\n      jumpi\n      dup1\n      0xcf5303cf\n      eq\n      tag_16\n      jumpi\n      dup1\n      0xd1bc76a1\n      eq\n      tag_17\n      jumpi\n      jump(tag_2)\n    tag_24:\n      dup1\n      0x51cff8d9\n      gt\n      tag_26\n      jumpi\n      dup1\n      0x51cff8d9\n      eq\n      tag_8\n      jumpi\n      dup1\n      0x69a63036\n      eq\n      tag_9\n      jumpi\n      dup1\n      0x6f4a2cd0\n      eq\n      tag_10\n      jumpi\n      dup1\n      0x82dc7c9d\n      eq\n      tag_11\n      jumpi\n      dup1\n      0x8da5cb5b\n      eq\n      tag_12\n      jumpi\n      jump(tag_2)\n    tag_26:\n      dup1\n      0x012e0867\n      eq\n      tag_3\n      jumpi\n      dup1\n      0x0483a7f6\n      eq\n      tag_4\n      jumpi\n      dup1\n      0x13c6dabf\n      eq\n      tag_5\n      jumpi\n      dup1\n      0x31008aae\n      eq\n      tag_6\n      jumpi\n      dup1\n      0x3638104a\n      eq\n      tag_7\n      jumpi\n    tag_2:\n      revert(0x00, 0x00)\n        /* \"contracts/test.sol\":1092:1141  uint256 public constant EARLY_UNLOCK_PERCENT = 30 */\n    tag_3:\n      tag_27\n      tag_28\n      jump\t// in\n    tag_27:\n      mload(0x40)\n      tag_29\n      swap2\n      swap1\n      tag_30\n      jump\t// in\n    tag_29:\n      mload(0x40)\n      dup1\n      swap2\n      sub\n      swap1\n      return\n        /* \"contracts/test.sol\":1603:1651  mapping(address => Reward) public lockedBalances */\n    tag_4:\n      tag_31\n      0x04\n      dup1\n      calldatasize\n      sub\n      dup2\n      add\n      swap1\n      tag_32\n      swap2\n      swap1\n      tag_33\n      jump\t// in\n    tag_32:\n      tag_34\n      jump\t// in\n    tag_31:\n      mload(0x40)\n      tag_35\n      swap2\n      swap1\n      tag_30\n      jump\t// in\n    tag_35:\n      mload(0x40)\n      dup1\n      swap2\n      sub\n      swap1\n      return\n        /* \"contracts/test.sol\":4135:5738  function claimReleaseTokens(address _rewardAddress) public {... */\n    tag_5:\n      tag_36\n      0x04\n      dup1\n      calldatasize\n      sub\n      dup2\n      add\n      swap1\n      tag_37\n      swap2\n      swap1\n      tag_33\n      jump\t// in\n    tag_37:\n      tag_38\n      jump\t// in\n    tag_36:\n      stop\n        /* \"contracts/test.sol\":859:917  uint256 public constant DISTRIBUTION_BLOCK_INTERVAL = 7200 */\n    tag_6:\n      tag_39\n      tag_40\n      jump\t// in\n    tag_39:\n      mload(0x40)\n      tag_41\n      swap2\n      swap1\n      tag_30\n      jump\t// in\n    tag_41:\n      mload(0x40)\n      dup1\n      swap2\n      sub\n      swap1\n      return\n        /* \"contracts/test.sol\":1681:1730  mapping(address => bool) public authorizedAddress */\n    tag_7:\n      tag_42\n      0x04\n      dup1\n      calldatasize\n      sub\n      dup2\n      add\n      swap1\n      tag_43\n      swap2\n      swap1\n      tag_33\n      jump\t// in\n    tag_43:\n      tag_44\n      jump\t// in\n    tag_42:\n      mload(0x40)\n      tag_45\n      swap2\n      swap1\n      tag_46\n      jump\t// in\n    tag_45:\n      mload(0x40)\n      dup1\n      swap2\n      sub\n      swap1\n      return\n        /* \"contracts/test.sol\":5761:6158  function withdraw(address _rewardAddress) public {... */\n    tag_8:\n      tag_47\n      0x04\n      dup1\n      calldatasize\n      sub\n      dup2\n      add\n      swap1\n      tag_48\n      swap2\n      swap1\n      tag_33\n      jump\t// in\n    tag_48:\n      tag_49\n      jump\t// in\n    tag_47:\n      stop\n        /* \"contracts/test.sol\":3379:4093  function claimUnlockedTokens(address _rewardAddress) public {... */\n    tag_9:\n      tag_50\n      0x04\n      dup1\n      calldatasize\n      sub\n      dup2\n      add\n      swap1\n      tag_51\n      swap2\n      swap1\n      tag_33\n      jump\t// in\n    tag_51:\n      tag_52\n      jump\t// in\n    tag_50:\n      stop\n        /* \"contracts/test.sol\":2408:3344  function distributeRewards() public {... */\n    tag_10:\n      tag_53\n      tag_54\n      jump\t// in\n    tag_53:\n      stop\n        /* \"contracts/test.sol\":970:1015  uint256 public constant LOCK_BLOCKS = 1080000 */\n    tag_11:\n      tag_55\n      tag_56\n      jump\t// in\n    tag_55:\n      mload(0x40)\n      tag_57\n      swap2\n      swap1\n      tag_30\n      jump\t// in\n    tag_57:\n      mload(0x40)\n      dup1\n      swap2\n      sub\n      swap1\n      return\n        /* \"contracts/test.sol\":648:668  address public owner */\n    tag_12:\n      tag_58\n      tag_59\n      jump\t// in\n    tag_58:\n      mload(0x40)\n      tag_60\n      swap2\n      swap1\n      tag_61\n      jump\t// in\n    tag_60:\n      mload(0x40)\n      dup1\n      swap2\n      sub\n      swap1\n      return\n        /* \"contracts/test.sol\":6214:6362  function updateLockPeriod(uint256 newLockPeriod) public view onlyOwner {... */\n    tag_13:\n      tag_62\n      0x04\n      dup1\n      calldatasize\n      sub\n      dup2\n      add\n      swap1\n      tag_63\n      swap2\n      swap1\n      tag_64\n      jump\t// in\n    tag_63:\n      tag_65\n      jump\t// in\n    tag_62:\n      stop\n        /* \"contracts/test.sol\":1481:1530  mapping(address => address) public bindingWallets */\n    tag_14:\n      tag_66\n      0x04\n      dup1\n      calldatasize\n      sub\n      dup2\n      add\n      swap1\n      tag_67\n      swap2\n      swap1\n      tag_33\n      jump\t// in\n    tag_67:\n      tag_68\n      jump\t// in\n    tag_66:\n      mload(0x40)\n      tag_69\n      swap2\n      swap1\n      tag_61\n      jump\t// in\n    tag_69:\n      mload(0x40)\n      dup1\n      swap2\n      sub\n      swap1\n      return\n        /* \"contracts/test.sol\":675:707  uint256 public onlineReward = 60 */\n    tag_15:\n      tag_70\n      tag_71\n      jump\t// in\n    tag_70:\n      mload(0x40)\n      tag_72\n      swap2\n      swap1\n      tag_30\n      jump\t// in\n    tag_72:\n      mload(0x40)\n      dup1\n      swap2\n      sub\n      swap1\n      return\n        /* \"contracts/test.sol\":613:635  CHECKER public checker */\n    tag_16:\n      tag_73\n      tag_74\n      jump\t// in\n    tag_73:\n      mload(0x40)\n      tag_75\n      swap2\n      swap1\n      tag_76\n      jump\t// in\n    tag_75:\n      mload(0x40)\n      dup1\n      swap2\n      sub\n      swap1\n      return\n        /* \"contracts/test.sol\":1753:1780  address[] public recipients */\n    tag_17:\n      tag_77\n      0x04\n      dup1\n      calldatasize\n      sub\n      dup2\n      add\n      swap1\n      tag_78\n      swap2\n      swap1\n      tag_64\n      jump\t// in\n    tag_78:\n      tag_79\n      jump\t// in\n    tag_77:\n      mload(0x40)\n      tag_80\n      swap2\n      swap1\n      tag_61\n      jump\t// in\n    tag_80:\n      mload(0x40)\n      dup1\n      swap2\n      sub\n      swap1\n      return\n        /* \"contracts/test.sol\":6464:7194  function earlyUnlock(address _rewardAddress) public {... */\n    tag_18:\n      tag_81\n      0x04\n      dup1\n      calldatasize\n      sub\n      dup2\n      add\n      swap1\n      tag_82\n      swap2\n      swap1\n      tag_33\n      jump\t// in\n    tag_82:\n      tag_83\n      jump\t// in\n    tag_81:\n      stop\n        /* \"contracts/test.sol\":2170:2379  function addWallet(address wallet) public onlyOwner {... */\n    tag_19:\n      tag_84\n      0x04\n      dup1\n      calldatasize\n      sub\n      dup2\n      add\n      swap1\n      tag_85\n      swap2\n      swap1\n      tag_33\n      jump\t// in\n    tag_85:\n      tag_86\n      jump\t// in\n    tag_84:\n      stop\n        /* \"contracts/test.sol\":816:852  uint256 public lastDistributionBlock */\n    tag_20:\n      tag_87\n      tag_88\n      jump\t// in\n    tag_87:\n      mload(0x40)\n      tag_89\n      swap2\n      swap1\n      tag_30\n      jump\t// in\n    tag_89:\n      mload(0x40)\n      dup1\n      swap2\n      sub\n      swap1\n      return\n        /* \"contracts/test.sol\":730:790  uint256 public roundUnlock = (onlineReward * 70) / 100 / 180 */\n    tag_21:\n      tag_90\n      tag_91\n      jump\t// in\n    tag_90:\n      mload(0x40)\n      tag_92\n      swap2\n      swap1\n      tag_30\n      jump\t// in\n    tag_92:\n      mload(0x40)\n      dup1\n      swap2\n      sub\n      swap1\n      return\n        /* \"contracts/test.sol\":587:606  IERC20 public token */\n    tag_22:\n      tag_93\n      tag_94\n      jump\t// in\n    tag_93:\n      mload(0x40)\n      tag_95\n      swap2\n      swap1\n      tag_96\n      jump\t// in\n    tag_95:\n      mload(0x40)\n      dup1\n      swap2\n      sub\n      swap1\n      return\n        /* \"contracts/test.sol\":7238:7354  function isAuthorized(address wallet) public view returns (bool) {... */\n    tag_23:\n      tag_97\n      0x04\n      dup1\n      calldatasize\n      sub\n      dup2\n      add\n      swap1\n      tag_98\n      swap2\n      swap1\n      tag_33\n      jump\t// in\n    tag_98:\n      tag_99\n      jump\t// in\n    tag_97:\n      mload(0x40)\n      tag_100\n      swap2\n      swap1\n      tag_46\n      jump\t// in\n    tag_100:\n      mload(0x40)\n      dup1\n      swap2\n      sub\n      swap1\n      return\n        /* \"contracts/test.sol\":1092:1141  uint256 public constant EARLY_UNLOCK_PERCENT = 30 */\n    tag_28:\n        /* \"contracts/test.sol\":1139:1141  30 */\n      0x1e\n        /* \"contracts/test.sol\":1092:1141  uint256 public constant EARLY_UNLOCK_PERCENT = 30 */\n      dup2\n      jump\t// out\n        /* \"contracts/test.sol\":1603:1651  mapping(address => Reward) public lockedBalances */\n    tag_34:\n      mstore(0x20, 0x07)\n      dup1\n      0x00\n      mstore\n      keccak256(0x00, 0x40)\n      0x00\n      swap2\n      pop\n      swap1\n      pop\n      dup1\n      0x01\n      add\n      sload\n      swap1\n      pop\n      dup2\n      jump\t// out\n        /* \"contracts/test.sol\":4135:5738  function claimReleaseTokens(address _rewardAddress) public {... */\n    tag_38:\n        /* \"contracts/test.sol\":4247:4257  msg.sender */\n      caller\n        /* \"contracts/test.sol\":4213:4257  bindingWallets[_rewardAddress] == msg.sender */\n      0xffffffffffffffffffffffffffffffffffffffff\n      and\n        /* \"contracts/test.sol\":4213:4227  bindingWallets */\n      0x06\n        /* \"contracts/test.sol\":4213:4243  bindingWallets[_rewardAddress] */\n      0x00\n        /* \"contracts/test.sol\":4228:4242  _rewardAddress */\n      dup4\n        /* \"contracts/test.sol\":4213:4243  bindingWallets[_rewardAddress] */\n      0xffffffffffffffffffffffffffffffffffffffff\n      and\n      0xffffffffffffffffffffffffffffffffffffffff\n      and\n      dup2\n      mstore\n      0x20\n      add\n      swap1\n      dup2\n      mstore\n      0x20\n      add\n      0x00\n      keccak256\n      0x00\n      swap1\n      sload\n      swap1\n      0x0100\n      exp\n      swap1\n      div\n      0xffffffffffffffffffffffffffffffffffffffff\n      and\n        /* \"contracts/test.sol\":4213:4257  bindingWallets[_rewardAddress] == msg.sender */\n      0xffffffffffffffffffffffffffffffffffffffff\n      and\n      eq\n        /* \"contracts/test.sol\":4205:4272  require(bindingWallets[_rewardAddress] == msg.sender, \"No binding\") */\n      tag_102\n      jumpi\n      mload(0x40)\n      0x08c379a000000000000000000000000000000000000000000000000000000000\n      dup2\n      mstore\n      0x04\n      add\n      tag_103\n      swap1\n      tag_104\n      jump\t// in\n    tag_103:\n      mload(0x40)\n      dup1\n      swap2\n      sub\n      swap1\n      revert\n    tag_102:\n        /* \"contracts/test.sol\":4283:4304  Reward storage reward */\n      0x00\n        /* \"contracts/test.sol\":4307:4321  lockedBalances */\n      0x07\n        /* \"contracts/test.sol\":4307:4337  lockedBalances[_rewardAddress] */\n      0x00\n        /* \"contracts/test.sol\":4322:4336  _rewardAddress */\n      dup4\n        /* \"contracts/test.sol\":4307:4337  lockedBalances[_rewardAddress] */\n      0xffffffffffffffffffffffffffffffffffffffff\n      and\n      0xffffffffffffffffffffffffffffffffffffffff\n      and\n      dup2\n      mstore\n      0x20\n      add\n      swap1\n      dup2\n      mstore\n      0x20\n      add\n      0x00\n      keccak256\n        /* \"contracts/test.sol\":4283:4337  Reward storage reward = lockedBalances[_rewardAddress] */\n      swap1\n      pop\n        /* \"contracts/test.sol\":4381:4382  0 */\n      0x00\n        /* \"contracts/test.sol\":4356:4362  reward */\n      dup2\n        /* \"contracts/test.sol\":4356:4371  reward.lockInfo */\n      0x00\n      add\n        /* \"contracts/test.sol\":4356:4378  reward.lockInfo.length */\n      dup1\n      sload\n      swap1\n      pop\n        /* \"contracts/test.sol\":4356:4382  reward.lockInfo.length > 0 */\n      gt\n        /* \"contracts/test.sol\":4348:4403  require(reward.lockInfo.length > 0, \"No locked tokens\") */\n      tag_105\n      jumpi\n      mload(0x40)\n      0x08c379a000000000000000000000000000000000000000000000000000000000\n      dup2\n      mstore\n      0x04\n      add\n      tag_106\n      swap1\n      tag_107\n      jump\t// in\n    tag_106:\n      mload(0x40)\n      dup1\n      swap2\n      sub\n      swap1\n      revert\n    tag_105:\n        /* \"contracts/test.sol\":4421:4430  uint256 i */\n      0x00\n        /* \"contracts/test.sol\":4433:4434  0 */\n      0x00\n        /* \"contracts/test.sol\":4421:4434  uint256 i = 0 */\n      swap1\n      pop\n        /* \"contracts/test.sol\":4416:5731  for (uint256 i = 0; i < reward.lockInfo.length; i++) {... */\n    tag_108:\n        /* \"contracts/test.sol\":4440:4446  reward */\n      dup2\n        /* \"contracts/test.sol\":4440:4455  reward.lockInfo */\n      0x00\n      add\n        /* \"contracts/test.sol\":4440:4462  reward.lockInfo.length */\n      dup1\n      sload\n      swap1\n      pop\n        /* \"contracts/test.sol\":4436:4437  i */\n      dup2\n        /* \"contracts/test.sol\":4436:4462  i < reward.lockInfo.length */\n      lt\n        /* \"contracts/test.sol\":4416:5731  for (uint256 i = 0; i < reward.lockInfo.length; i++) {... */\n      iszero\n      tag_109\n      jumpi\n        /* \"contracts/test.sol\":4489:4495  reward */\n      dup2\n        /* \"contracts/test.sol\":4489:4504  reward.lockInfo */\n      0x00\n      add\n        /* \"contracts/test.sol\":4505:4506  i */\n      dup2\n        /* \"contracts/test.sol\":4489:4507  reward.lockInfo[i] */\n      dup2\n      sload\n      dup2\n      lt\n      tag_111\n      jumpi\n      tag_112\n      tag_113\n      jump\t// in\n    tag_112:\n    tag_111:\n      swap1\n      0x00\n      mstore\n      keccak256(0x00, 0x20)\n      swap1\n      0x04\n      mul\n      add\n        /* \"contracts/test.sol\":4489:4518  reward.lockInfo[i].isUnlocked */\n      0x03\n      add\n      0x00\n      swap1\n      sload\n      swap1\n      0x0100\n      exp\n      swap1\n      div\n      0xff\n      and\n        /* \"contracts/test.sol\":4484:5720  if (!reward.lockInfo[i].isUnlocked) {... */\n      tag_115\n      jumpi\n        /* \"contracts/test.sol\":4539:4560  uint256 elapsedBlocks */\n      0x00\n        /* \"contracts/test.sol\":1008:1015  1080000 */\n      0x107ac0\n        /* \"contracts/test.sol\":4598:4604  reward */\n      dup4\n        /* \"contracts/test.sol\":4598:4613  reward.lockInfo */\n      0x00\n      add\n        /* \"contracts/test.sol\":4614:4615  i */\n      dup4\n        /* \"contracts/test.sol\":4598:4616  reward.lockInfo[i] */\n      dup2\n      sload\n      dup2\n      lt\n      tag_116\n      jumpi\n      tag_117\n      tag_113\n      jump\t// in\n    tag_117:\n    tag_116:\n      swap1\n      0x00\n      mstore\n      keccak256(0x00, 0x20)\n      swap1\n      0x04\n      mul\n      add\n        /* \"contracts/test.sol\":4598:4627  reward.lockInfo[i].startBlock */\n      0x01\n      add\n      sload\n        /* \"contracts/test.sol\":4583:4595  block.number */\n      number\n        /* \"contracts/test.sol\":4583:4627  block.number - reward.lockInfo[i].startBlock */\n      tag_119\n      swap2\n      swap1\n      tag_120\n      jump\t// in\n    tag_119:\n        /* \"contracts/test.sol\":4583:4642  block.number - reward.lockInfo[i].startBlock >= LOCK_BLOCKS */\n      lt\n        /* \"contracts/test.sol\":4579:4899  if (block.number - reward.lockInfo[i].startBlock >= LOCK_BLOCKS) {... */\n      tag_121\n      jumpi\n        /* \"contracts/test.sol\":4729:4735  reward */\n      dup3\n        /* \"contracts/test.sol\":4729:4744  reward.lockInfo */\n      0x00\n      add\n        /* \"contracts/test.sol\":4745:4746  i */\n      dup3\n        /* \"contracts/test.sol\":4729:4747  reward.lockInfo[i] */\n      dup2\n      sload\n      dup2\n      lt\n      tag_122\n      jumpi\n      tag_123\n      tag_113\n      jump\t// in\n    tag_123:\n    tag_122:\n      swap1\n      0x00\n      mstore\n      keccak256(0x00, 0x20)\n      swap1\n      0x04\n      mul\n      add\n        /* \"contracts/test.sol\":4729:4764  reward.lockInfo[i].lastClaimedBlock */\n      0x02\n      add\n      sload\n        /* \"contracts/test.sol\":1008:1015  1080000 */\n      0x107ac0\n        /* \"contracts/test.sol\":4683:4689  reward */\n      dup5\n        /* \"contracts/test.sol\":4683:4698  reward.lockInfo */\n      0x00\n      add\n        /* \"contracts/test.sol\":4699:4700  i */\n      dup5\n        /* \"contracts/test.sol\":4683:4701  reward.lockInfo[i] */\n      dup2\n      sload\n      dup2\n      lt\n      tag_125\n      jumpi\n      tag_126\n      tag_113\n      jump\t// in\n    tag_126:\n    tag_125:\n      swap1\n      0x00\n      mstore\n      keccak256(0x00, 0x20)\n      swap1\n      0x04\n      mul\n      add\n        /* \"contracts/test.sol\":4683:4712  reward.lockInfo[i].startBlock */\n      0x01\n      add\n      sload\n        /* \"contracts/test.sol\":4683:4726  reward.lockInfo[i].startBlock + LOCK_BLOCKS */\n      tag_128\n      swap2\n      swap1\n      tag_129\n      jump\t// in\n    tag_128:\n        /* \"contracts/test.sol\":4683:4764  reward.lockInfo[i].startBlock + LOCK_BLOCKS - reward.lockInfo[i].lastClaimedBlock */\n      tag_130\n      swap2\n      swap1\n      tag_120\n      jump\t// in\n    tag_130:\n        /* \"contracts/test.sol\":4667:4764  elapsedBlocks = reward.lockInfo[i].startBlock + LOCK_BLOCKS - reward.lockInfo[i].lastClaimedBlock */\n      swap1\n      pop\n        /* \"contracts/test.sol\":4579:4899  if (block.number - reward.lockInfo[i].startBlock >= LOCK_BLOCKS) {... */\n      jump(tag_131)\n    tag_121:\n        /* \"contracts/test.sol\":4844:4850  reward */\n      dup3\n        /* \"contracts/test.sol\":4844:4859  reward.lockInfo */\n      0x00\n      add\n        /* \"contracts/test.sol\":4860:4861  i */\n      dup3\n        /* \"contracts/test.sol\":4844:4862  reward.lockInfo[i] */\n      dup2\n      sload\n      dup2\n      lt\n      tag_132\n      jumpi\n      tag_133\n      tag_113\n      jump\t// in\n    tag_133:\n    tag_132:\n      swap1\n      0x00\n      mstore\n      keccak256(0x00, 0x20)\n      swap1\n      0x04\n      mul\n      add\n        /* \"contracts/test.sol\":4844:4879  reward.lockInfo[i].lastClaimedBlock */\n      0x02\n      add\n      sload\n        /* \"contracts/test.sol\":4829:4841  block.number */\n      number\n        /* \"contracts/test.sol\":4829:4879  block.number - reward.lockInfo[i].lastClaimedBlock */\n      tag_135\n      swap2\n      swap1\n      tag_120\n      jump\t// in\n    tag_135:\n        /* \"contracts/test.sol\":4813:4879  elapsedBlocks = block.number - reward.lockInfo[i].lastClaimedBlock */\n      swap1\n      pop\n        /* \"contracts/test.sol\":4579:4899  if (block.number - reward.lockInfo[i].startBlock >= LOCK_BLOCKS) {... */\n    tag_131:\n        /* \"contracts/test.sol\":913:917  7200 */\n      0x1c20\n        /* \"contracts/test.sol\":4925:4938  elapsedBlocks */\n      dup2\n        /* \"contracts/test.sol\":4925:4969  elapsedBlocks >= DISTRIBUTION_BLOCK_INTERVAL */\n      lt\n      iszero\n        /* \"contracts/test.sol\":4917:5007  require(elapsedBlocks >= DISTRIBUTION_BLOCK_INTERVAL, \"Not yet reached next unlock point\") */\n      tag_136\n      jumpi\n      mload(0x40)\n      0x08c379a000000000000000000000000000000000000000000000000000000000\n      dup2\n      mstore\n      0x04\n      add\n      tag_137\n      swap1\n      tag_138\n      jump\t// in\n    tag_137:\n      mload(0x40)\n      dup1\n      swap2\n      sub\n      swap1\n      revert\n    tag_136:\n        /* \"contracts/test.sol\":5028:5048  uint256 unlockRounds */\n      0x00\n        /* \"contracts/test.sol\":913:917  7200 */\n      0x1c20\n        /* \"contracts/test.sol\":5051:5064  elapsedBlocks */\n      dup3\n        /* \"contracts/test.sol\":5051:5094  elapsedBlocks / DISTRIBUTION_BLOCK_INTERVAL */\n      tag_139\n      swap2\n      swap1\n      tag_140\n      jump\t// in\n    tag_139:\n        /* \"contracts/test.sol\":5028:5094  uint256 unlockRounds = elapsedBlocks / DISTRIBUTION_BLOCK_INTERVAL */\n      swap1\n      pop\n        /* \"contracts/test.sol\":5113:5133  uint256 unlockReward */\n      0x00\n        /* \"contracts/test.sol\":5151:5162  roundUnlock */\n      sload(0x04)\n        /* \"contracts/test.sol\":5136:5148  unlockRounds */\n      dup3\n        /* \"contracts/test.sol\":5136:5162  unlockRounds * roundUnlock */\n      tag_141\n      swap2\n      swap1\n      tag_142\n      jump\t// in\n    tag_141:\n        /* \"contracts/test.sol\":5113:5162  uint256 unlockReward = unlockRounds * roundUnlock */\n      swap1\n      pop\n        /* \"contracts/test.sol\":5200:5206  reward */\n      dup5\n        /* \"contracts/test.sol\":5200:5215  reward.lockInfo */\n      0x00\n      add\n        /* \"contracts/test.sol\":5216:5217  i */\n      dup5\n        /* \"contracts/test.sol\":5200:5218  reward.lockInfo[i] */\n      dup2\n      sload\n      dup2\n      lt\n      tag_143\n      jumpi\n      tag_144\n      tag_113\n      jump\t// in\n    tag_144:\n    tag_143:\n      swap1\n      0x00\n      mstore\n      keccak256(0x00, 0x20)\n      swap1\n      0x04\n      mul\n      add\n        /* \"contracts/test.sol\":5200:5230  reward.lockInfo[i].totalAmount */\n      0x00\n      add\n      sload\n        /* \"contracts/test.sol\":5185:5197  unlockReward */\n      dup2\n        /* \"contracts/test.sol\":5185:5230  unlockReward < reward.lockInfo[i].totalAmount */\n      lt\n        /* \"contracts/test.sol\":5181:5705  if (unlockReward < reward.lockInfo[i].totalAmount) {... */\n      iszero\n      tag_146\n      jumpi\n        /* \"contracts/test.sol\":5280:5292  unlockReward */\n      dup1\n        /* \"contracts/test.sol\":5255:5261  reward */\n      dup6\n        /* \"contracts/test.sol\":5255:5276  reward.unlockedAmount */\n      0x01\n      add\n      0x00\n        /* \"contracts/test.sol\":5255:5292  reward.unlockedAmount += unlockReward */\n      dup3\n      dup3\n      sload\n      tag_147\n      swap2\n      swap1\n      tag_129\n      jump\t// in\n    tag_147:\n      swap3\n      pop\n      pop\n      dup2\n      swap1\n      sstore\n      pop\n        /* \"contracts/test.sol\":5349:5361  unlockReward */\n      dup1\n        /* \"contracts/test.sol\":5315:5321  reward */\n      dup6\n        /* \"contracts/test.sol\":5315:5330  reward.lockInfo */\n      0x00\n      add\n        /* \"contracts/test.sol\":5331:5332  i */\n      dup6\n        /* \"contracts/test.sol\":5315:5333  reward.lockInfo[i] */\n      dup2\n      sload\n      dup2\n      lt\n      tag_148\n      jumpi\n      tag_149\n      tag_113\n      jump\t// in\n    tag_149:\n    tag_148:\n      swap1\n      0x00\n      mstore\n      keccak256(0x00, 0x20)\n      swap1\n      0x04\n      mul\n      add\n        /* \"contracts/test.sol\":5315:5345  reward.lockInfo[i].totalAmount */\n      0x00\n      add\n      0x00\n        /* \"contracts/test.sol\":5315:5361  reward.lockInfo[i].totalAmount -= unlockReward */\n      dup3\n      dup3\n      sload\n      tag_151\n      swap2\n      swap1\n      tag_120\n      jump\t// in\n    tag_151:\n      swap3\n      pop\n      pop\n      dup2\n      swap1\n      sstore\n      pop\n        /* \"contracts/test.sol\":913:917  7200 */\n      0x1c20\n        /* \"contracts/test.sol\":5423:5435  unlockRounds */\n      dup3\n        /* \"contracts/test.sol\":5423:5465  unlockRounds * DISTRIBUTION_BLOCK_INTERVAL */\n      tag_152\n      swap2\n      swap1\n      tag_142\n      jump\t// in\n    tag_152:\n        /* \"contracts/test.sol\":5384:5390  reward */\n      dup6\n        /* \"contracts/test.sol\":5384:5399  reward.lockInfo */\n      0x00\n      add\n        /* \"contracts/test.sol\":5400:5401  i */\n      dup6\n        /* \"contracts/test.sol\":5384:5402  reward.lockInfo[i] */\n      dup2\n      sload\n      dup2\n      lt\n      tag_153\n      jumpi\n      tag_154\n      tag_113\n      jump\t// in\n    tag_154:\n    tag_153:\n      swap1\n      0x00\n      mstore\n      keccak256(0x00, 0x20)\n      swap1\n      0x04\n      mul\n      add\n        /* \"contracts/test.sol\":5384:5419  reward.lockInfo[i].lastClaimedBlock */\n      0x02\n      add\n      0x00\n        /* \"contracts/test.sol\":5384:5465  reward.lockInfo[i].lastClaimedBlock += unlockRounds * DISTRIBUTION_BLOCK_INTERVAL */\n      dup3\n      dup3\n      sload\n      tag_156\n      swap2\n      swap1\n      tag_129\n      jump\t// in\n    tag_156:\n      swap3\n      pop\n      pop\n      dup2\n      swap1\n      sstore\n      pop\n        /* \"contracts/test.sol\":5181:5705  if (unlockReward < reward.lockInfo[i].totalAmount) {... */\n      jump(tag_157)\n    tag_146:\n        /* \"contracts/test.sol\":5539:5545  reward */\n      dup5\n        /* \"contracts/test.sol\":5539:5554  reward.lockInfo */\n      0x00\n      add\n        /* \"contracts/test.sol\":5555:5556  i */\n      dup5\n        /* \"contracts/test.sol\":5539:5557  reward.lockInfo[i] */\n      dup2\n      sload\n      dup2\n      lt\n      tag_158\n      jumpi\n      tag_159\n      tag_113\n      jump\t// in\n    tag_159:\n    tag_158:\n      swap1\n      0x00\n      mstore\n      keccak256(0x00, 0x20)\n      swap1\n      0x04\n      mul\n      add\n        /* \"contracts/test.sol\":5539:5569  reward.lockInfo[i].totalAmount */\n      0x00\n      add\n      sload\n        /* \"contracts/test.sol\":5514:5520  reward */\n      dup6\n        /* \"contracts/test.sol\":5514:5535  reward.unlockedAmount */\n      0x01\n      add\n      0x00\n        /* \"contracts/test.sol\":5514:5569  reward.unlockedAmount += reward.lockInfo[i].totalAmount */\n      dup3\n      dup3\n      sload\n      tag_161\n      swap2\n      swap1\n      tag_129\n      jump\t// in\n    tag_161:\n      swap3\n      pop\n      pop\n      dup2\n      swap1\n      sstore\n      pop\n        /* \"contracts/test.sol\":5625:5626  0 */\n      0x00\n        /* \"contracts/test.sol\":5592:5598  reward */\n      dup6\n        /* \"contracts/test.sol\":5592:5607  reward.lockInfo */\n      0x00\n      add\n        /* \"contracts/test.sol\":5608:5609  i */\n      dup6\n        /* \"contracts/test.sol\":5592:5610  reward.lockInfo[i] */\n      dup2\n      sload\n      dup2\n      lt\n      tag_162\n      jumpi\n      tag_163\n      tag_113\n      jump\t// in\n    tag_163:\n    tag_162:\n      swap1\n      0x00\n      mstore\n      keccak256(0x00, 0x20)\n      swap1\n      0x04\n      mul\n      add\n        /* \"contracts/test.sol\":5592:5622  reward.lockInfo[i].totalAmount */\n      0x00\n      add\n        /* \"contracts/test.sol\":5592:5626  reward.lockInfo[i].totalAmount = 0 */\n      dup2\n      swap1\n      sstore\n      pop\n        /* \"contracts/test.sol\":5681:5685  true */\n      0x01\n        /* \"contracts/test.sol\":5649:5655  reward */\n      dup6\n        /* \"contracts/test.sol\":5649:5664  reward.lockInfo */\n      0x00\n      add\n        /* \"contracts/test.sol\":5665:5666  i */\n      dup6\n        /* \"contracts/test.sol\":5649:5667  reward.lockInfo[i] */\n      dup2\n      sload\n      dup2\n      lt\n      tag_165\n      jumpi\n      tag_166\n      tag_113\n      jump\t// in\n    tag_166:\n    tag_165:\n      swap1\n      0x00\n      mstore\n      keccak256(0x00, 0x20)\n      swap1\n      0x04\n      mul\n      add\n        /* \"contracts/test.sol\":5649:5678  reward.lockInfo[i].isUnlocked */\n      0x03\n      add\n      0x00\n        /* \"contracts/test.sol\":5649:5685  reward.lockInfo[i].isUnlocked = true */\n      0x0100\n      exp\n      dup2\n      sload\n      dup2\n      0xff\n      mul\n      not\n      and\n      swap1\n      dup4\n      iszero\n      iszero\n      mul\n      or\n      swap1\n      sstore\n      pop\n        /* \"contracts/test.sol\":5181:5705  if (unlockReward < reward.lockInfo[i].totalAmount) {... */\n    tag_157:\n        /* \"contracts/test.sol\":4520:5720  {... */\n      pop\n      pop\n      pop\n        /* \"contracts/test.sol\":4484:5720  if (!reward.lockInfo[i].isUnlocked) {... */\n    tag_115:\n        /* \"contracts/test.sol\":4464:4467  i++ */\n      dup1\n      dup1\n      0x01\n      add\n      swap2\n      pop\n      pop\n        /* \"contracts/test.sol\":4416:5731  for (uint256 i = 0; i < reward.lockInfo.length; i++) {... */\n      jump(tag_108)\n    tag_109:\n      pop\n        /* \"contracts/test.sol\":4194:5738  {... */\n      pop\n        /* \"contracts/test.sol\":4135:5738  function claimReleaseTokens(address _rewardAddress) public {... */\n      pop\n      jump\t// out\n        /* \"contracts/test.sol\":859:917  uint256 public constant DISTRIBUTION_BLOCK_INTERVAL = 7200 */\n    tag_40:\n        /* \"contracts/test.sol\":913:917  7200 */\n      0x1c20\n        /* \"contracts/test.sol\":859:917  uint256 public constant DISTRIBUTION_BLOCK_INTERVAL = 7200 */\n      dup2\n      jump\t// out\n        /* \"contracts/test.sol\":1681:1730  mapping(address => bool) public authorizedAddress */\n    tag_44:\n      mstore(0x20, 0x08)\n      dup1\n      0x00\n      mstore\n      keccak256(0x00, 0x40)\n      0x00\n      swap2\n      pop\n      sload\n      swap1\n      0x0100\n      exp\n      swap1\n      div\n      0xff\n      and\n      dup2\n      jump\t// out\n        /* \"contracts/test.sol\":5761:6158  function withdraw(address _rewardAddress) public {... */\n    tag_49:\n        /* \"contracts/test.sol\":5863:5873  msg.sender */\n      caller\n        /* \"contracts/test.sol\":5829:5873  bindingWallets[_rewardAddress] == msg.sender */\n      0xffffffffffffffffffffffffffffffffffffffff\n      and\n        /* \"contracts/test.sol\":5829:5843  bindingWallets */\n      0x06\n        /* \"contracts/test.sol\":5829:5859  bindingWallets[_rewardAddress] */\n      0x00\n        /* \"contracts/test.sol\":5844:5858  _rewardAddress */\n      dup4\n        /* \"contracts/test.sol\":5829:5859  bindingWallets[_rewardAddress] */\n      0xffffffffffffffffffffffffffffffffffffffff\n      and\n      0xffffffffffffffffffffffffffffffffffffffff\n      and\n      dup2\n      mstore\n      0x20\n      add\n      swap1\n      dup2\n      mstore\n      0x20\n      add\n      0x00\n      keccak256\n      0x00\n      swap1\n      sload\n      swap1\n      0x0100\n      exp\n      swap1\n      div\n      0xffffffffffffffffffffffffffffffffffffffff\n      and\n        /* \"contracts/test.sol\":5829:5873  bindingWallets[_rewardAddress] == msg.sender */\n      0xffffffffffffffffffffffffffffffffffffffff\n      and\n      eq\n        /* \"contracts/test.sol\":5821:5888  require(bindingWallets[_rewardAddress] == msg.sender, \"No binding\") */\n      tag_169\n      jumpi\n      mload(0x40)\n      0x08c379a000000000000000000000000000000000000000000000000000000000\n      dup2\n      mstore\n      0x04\n      add\n      tag_170\n      swap1\n      tag_104\n      jump\t// in\n    tag_170:\n      mload(0x40)\n      dup1\n      swap2\n      sub\n      swap1\n      revert\n    tag_169:\n        /* \"contracts/test.sol\":5899:5920  Reward storage reward */\n      0x00\n        /* \"contracts/test.sol\":5923:5937  lockedBalances */\n      0x07\n        /* \"contracts/test.sol\":5923:5953  lockedBalances[_rewardAddress] */\n      0x00\n        /* \"contracts/test.sol\":5938:5952  _rewardAddress */\n      dup4\n        /* \"contracts/test.sol\":5923:5953  lockedBalances[_rewardAddress] */\n      0xffffffffffffffffffffffffffffffffffffffff\n      and\n      0xffffffffffffffffffffffffffffffffffffffff\n      and\n      dup2\n      mstore\n      0x20\n      add\n      swap1\n      dup2\n      mstore\n      0x20\n      add\n      0x00\n      keccak256\n        /* \"contracts/test.sol\":5899:5953  Reward storage reward = lockedBalances[_rewardAddress] */\n      swap1\n      pop\n        /* \"contracts/test.sol\":5998:5999  0 */\n      0x00\n        /* \"contracts/test.sol\":5974:5980  reward */\n      dup2\n        /* \"contracts/test.sol\":5974:5995  reward.unlockedAmount */\n      0x01\n      add\n      sload\n        /* \"contracts/test.sol\":5974:5999  reward.unlockedAmount > 0 */\n      gt\n        /* \"contracts/test.sol\":5966:6026  require(reward.unlockedAmount > 0, \"No unlocked tokens yet\") */\n      tag_171\n      jumpi\n      mload(0x40)\n      0x08c379a000000000000000000000000000000000000000000000000000000000\n      dup2\n      mstore\n      0x04\n      add\n      tag_172\n      swap1\n      tag_173\n      jump\t// in\n    tag_172:\n      mload(0x40)\n      dup1\n      swap2\n      sub\n      swap1\n      revert\n    tag_171:\n        /* \"contracts/test.sol\":6045:6050  token */\n      0x00\n      0x00\n      swap1\n      sload\n      swap1\n      0x0100\n      exp\n      swap1\n      div\n      0xffffffffffffffffffffffffffffffffffffffff\n      and\n        /* \"contracts/test.sol\":6045:6059  token.transfer */\n      0xffffffffffffffffffffffffffffffffffffffff\n      and\n      0xa9059cbb\n        /* \"contracts/test.sol\":6060:6070  msg.sender */\n      caller\n        /* \"contracts/test.sol\":6072:6078  reward */\n      dup4\n        /* \"contracts/test.sol\":6072:6093  reward.unlockedAmount */\n      0x01\n      add\n      sload\n        /* \"contracts/test.sol\":6045:6094  token.transfer(msg.sender, reward.unlockedAmount) */\n      mload(0x40)\n      dup4\n      0xffffffff\n      and\n      0xe0\n      shl\n      dup2\n      mstore\n      0x04\n      add\n      tag_174\n      swap3\n      swap2\n      swap1\n      tag_175\n      jump\t// in\n    tag_174:\n      0x20\n      mload(0x40)\n      dup1\n      dup4\n      sub\n      dup2\n      0x00\n      dup8\n      gas\n      call\n      iszero\n      dup1\n      iszero\n      tag_177\n      jumpi\n      returndatacopy(0x00, 0x00, returndatasize)\n      revert(0x00, returndatasize)\n    tag_177:\n      pop\n      pop\n      pop\n      pop\n      mload(0x40)\n      returndatasize\n      not(0x1f)\n      0x1f\n      dup3\n      add\n      and\n      dup3\n      add\n      dup1\n      0x40\n      mstore\n      pop\n      dup2\n      add\n      swap1\n      tag_178\n      swap2\n      swap1\n      tag_179\n      jump\t// in\n    tag_178:\n        /* \"contracts/test.sol\":6037:6114  require(token.transfer(msg.sender, reward.unlockedAmount), \"Transfer failed\") */\n      tag_180\n      jumpi\n      mload(0x40)\n      0x08c379a000000000000000000000000000000000000000000000000000000000\n      dup2\n      mstore\n      0x04\n      add\n      tag_181\n      swap1\n      tag_182\n      jump\t// in\n    tag_181:\n      mload(0x40)\n      dup1\n      swap2\n      sub\n      swap1\n      revert\n    tag_180:\n        /* \"contracts/test.sol\":6149:6150  0 */\n      0x00\n        /* \"contracts/test.sol\":6125:6131  reward */\n      dup2\n        /* \"contracts/test.sol\":6125:6146  reward.unlockedAmount */\n      0x01\n      add\n        /* \"contracts/test.sol\":6125:6150  reward.unlockedAmount = 0 */\n      dup2\n      swap1\n      sstore\n      pop\n        /* \"contracts/test.sol\":5810:6158  {... */\n      pop\n        /* \"contracts/test.sol\":5761:6158  function withdraw(address _rewardAddress) public {... */\n      pop\n      jump\t// out\n        /* \"contracts/test.sol\":3379:4093  function claimUnlockedTokens(address _rewardAddress) public {... */\n    tag_52:\n        /* \"contracts/test.sol\":3492:3502  msg.sender */\n      caller\n        /* \"contracts/test.sol\":3458:3502  bindingWallets[_rewardAddress] == msg.sender */\n      0xffffffffffffffffffffffffffffffffffffffff\n      and\n        /* \"contracts/test.sol\":3458:3472  bindingWallets */\n      0x06\n        /* \"contracts/test.sol\":3458:3488  bindingWallets[_rewardAddress] */\n      0x00\n        /* \"contracts/test.sol\":3473:3487  _rewardAddress */\n      dup4\n        /* \"contracts/test.sol\":3458:3488  bindingWallets[_rewardAddress] */\n      0xffffffffffffffffffffffffffffffffffffffff\n      and\n      0xffffffffffffffffffffffffffffffffffffffff\n      and\n      dup2\n      mstore\n      0x20\n      add\n      swap1\n      dup2\n      mstore\n      0x20\n      add\n      0x00\n      keccak256\n      0x00\n      swap1\n      sload\n      swap1\n      0x0100\n      exp\n      swap1\n      div\n      0xffffffffffffffffffffffffffffffffffffffff\n      and\n        /* \"contracts/test.sol\":3458:3502  bindingWallets[_rewardAddress] == msg.sender */\n      0xffffffffffffffffffffffffffffffffffffffff\n      and\n      eq\n        /* \"contracts/test.sol\":3450:3517  require(bindingWallets[_rewardAddress] == msg.sender, \"No binding\") */\n      tag_184\n      jumpi\n      mload(0x40)\n      0x08c379a000000000000000000000000000000000000000000000000000000000\n      dup2\n      mstore\n      0x04\n      add\n      tag_185\n      swap1\n      tag_104\n      jump\t// in\n    tag_185:\n      mload(0x40)\n      dup1\n      swap2\n      sub\n      swap1\n      revert\n    tag_184:\n        /* \"contracts/test.sol\":3528:3549  Reward storage reward */\n      0x00\n        /* \"contracts/test.sol\":3552:3566  lockedBalances */\n      0x07\n        /* \"contracts/test.sol\":3552:3582  lockedBalances[_rewardAddress] */\n      0x00\n        /* \"contracts/test.sol\":3567:3581  _rewardAddress */\n      dup4\n        /* \"contracts/test.sol\":3552:3582  lockedBalances[_rewardAddress] */\n      0xffffffffffffffffffffffffffffffffffffffff\n      and\n      0xffffffffffffffffffffffffffffffffffffffff\n      and\n      dup2\n      mstore\n      0x20\n      add\n      swap1\n      dup2\n      mstore\n      0x20\n      add\n      0x00\n      keccak256\n        /* \"contracts/test.sol\":3528:3582  Reward storage reward = lockedBalances[_rewardAddress] */\n      swap1\n      pop\n        /* \"contracts/test.sol\":3626:3627  0 */\n      0x00\n        /* \"contracts/test.sol\":3601:3607  reward */\n      dup2\n        /* \"contracts/test.sol\":3601:3616  reward.lockInfo */\n      0x00\n      add\n        /* \"contracts/test.sol\":3601:3623  reward.lockInfo.length */\n      dup1\n      sload\n      swap1\n      pop\n        /* \"contracts/test.sol\":3601:3627  reward.lockInfo.length > 0 */\n      gt\n        /* \"contracts/test.sol\":3593:3648  require(reward.lockInfo.length > 0, \"No locked tokens\") */\n      tag_186\n      jumpi\n      mload(0x40)\n      0x08c379a000000000000000000000000000000000000000000000000000000000\n      dup2\n      mstore\n      0x04\n      add\n      tag_187\n      swap1\n      tag_107\n      jump\t// in\n    tag_187:\n      mload(0x40)\n      dup1\n      swap2\n      sub\n      swap1\n      revert\n    tag_186:\n        /* \"contracts/test.sol\":3666:3675  uint256 i */\n      0x00\n        /* \"contracts/test.sol\":3678:3679  0 */\n      0x00\n        /* \"contracts/test.sol\":3666:3679  uint256 i = 0 */\n      swap1\n      pop\n        /* \"contracts/test.sol\":3661:4086  for (uint256 i = 0; i < reward.lockInfo.length; i++) {... */\n    tag_188:\n        /* \"contracts/test.sol\":3685:3691  reward */\n      dup2\n        /* \"contracts/test.sol\":3685:3700  reward.lockInfo */\n      0x00\n      add\n        /* \"contracts/test.sol\":3685:3707  reward.lockInfo.length */\n      dup1\n      sload\n      swap1\n      pop\n        /* \"contracts/test.sol\":3681:3682  i */\n      dup2\n        /* \"contracts/test.sol\":3681:3707  i < reward.lockInfo.length */\n      lt\n        /* \"contracts/test.sol\":3661:4086  for (uint256 i = 0; i < reward.lockInfo.length; i++) {... */\n      iszero\n      tag_189\n      jumpi\n        /* \"contracts/test.sol\":3734:3740  reward */\n      dup2\n        /* \"contracts/test.sol\":3734:3749  reward.lockInfo */\n      0x00\n      add\n        /* \"contracts/test.sol\":3750:3751  i */\n      dup2\n        /* \"contracts/test.sol\":3734:3752  reward.lockInfo[i] */\n      dup2\n      sload\n      dup2\n      lt\n      tag_191\n      jumpi\n      tag_192\n      tag_113\n      jump\t// in\n    tag_192:\n    tag_191:\n      swap1\n      0x00\n      mstore\n      keccak256(0x00, 0x20)\n      swap1\n      0x04\n      mul\n      add\n        /* \"contracts/test.sol\":3734:3763  reward.lockInfo[i].isUnlocked */\n      0x03\n      add\n      0x00\n      swap1\n      sload\n      swap1\n      0x0100\n      exp\n      swap1\n      div\n      0xff\n      and\n        /* \"contracts/test.sol\":3729:4075  if (!reward.lockInfo[i].isUnlocked) {... */\n      tag_194\n      jumpi\n        /* \"contracts/test.sol\":3784:3805  uint256 elapsedBlocks */\n      0x00\n        /* \"contracts/test.sol\":3823:3829  reward */\n      dup3\n        /* \"contracts/test.sol\":3823:3838  reward.lockInfo */\n      0x00\n      add\n        /* \"contracts/test.sol\":3839:3840  i */\n      dup3\n        /* \"contracts/test.sol\":3823:3841  reward.lockInfo[i] */\n      dup2\n      sload\n      dup2\n      lt\n      tag_195\n      jumpi\n      tag_196\n      tag_113\n      jump\t// in\n    tag_196:\n    tag_195:\n      swap1\n      0x00\n      mstore\n      keccak256(0x00, 0x20)\n      swap1\n      0x04\n      mul\n      add\n        /* \"contracts/test.sol\":3823:3852  reward.lockInfo[i].startBlock */\n      0x01\n      add\n      sload\n        /* \"contracts/test.sol\":3808:3820  block.number */\n      number\n        /* \"contracts/test.sol\":3808:3852  block.number - reward.lockInfo[i].startBlock */\n      tag_198\n      swap2\n      swap1\n      tag_120\n      jump\t// in\n    tag_198:\n        /* \"contracts/test.sol\":3784:3852  uint256 elapsedBlocks = block.number - reward.lockInfo[i].startBlock */\n      swap1\n      pop\n        /* \"contracts/test.sol\":1008:1015  1080000 */\n      0x107ac0\n        /* \"contracts/test.sol\":3875:3888  elapsedBlocks */\n      dup2\n        /* \"contracts/test.sol\":3875:3903  elapsedBlocks >= LOCK_BLOCKS */\n      lt\n        /* \"contracts/test.sol\":3871:4060  if (elapsedBlocks >= LOCK_BLOCKS) {... */\n      tag_199\n      jumpi\n        /* \"contracts/test.sol\":3953:3959  reward */\n      dup3\n        /* \"contracts/test.sol\":3953:3968  reward.lockInfo */\n      0x00\n      add\n        /* \"contracts/test.sol\":3969:3970  i */\n      dup3\n        /* \"contracts/test.sol\":3953:3971  reward.lockInfo[i] */\n      dup2\n      sload\n      dup2\n      lt\n      tag_200\n      jumpi\n      tag_201\n      tag_113\n      jump\t// in\n    tag_201:\n    tag_200:\n      swap1\n      0x00\n      mstore\n      keccak256(0x00, 0x20)\n      swap1\n      0x04\n      mul\n      add\n        /* \"contracts/test.sol\":3953:3983  reward.lockInfo[i].totalAmount */\n      0x00\n      add\n      sload\n        /* \"contracts/test.sol\":3928:3934  reward */\n      dup4\n        /* \"contracts/test.sol\":3928:3949  reward.unlockedAmount */\n      0x01\n      add\n      0x00\n        /* \"contracts/test.sol\":3928:3983  reward.unlockedAmount += reward.lockInfo[i].totalAmount */\n      dup3\n      dup3\n      sload\n      tag_203\n      swap2\n      swap1\n      tag_129\n      jump\t// in\n    tag_203:\n      swap3\n      pop\n      pop\n      dup2\n      swap1\n      sstore\n      pop\n        /* \"contracts/test.sol\":4039:4040  0 */\n      0x00\n        /* \"contracts/test.sol\":4006:4012  reward */\n      dup4\n        /* \"contracts/test.sol\":4006:4021  reward.lockInfo */\n      0x00\n      add\n        /* \"contracts/test.sol\":4022:4023  i */\n      dup4\n        /* \"contracts/test.sol\":4006:4024  reward.lockInfo[i] */\n      dup2\n      sload\n      dup2\n      lt\n      tag_204\n      jumpi\n      tag_205\n      tag_113\n      jump\t// in\n    tag_205:\n    tag_204:\n      swap1\n      0x00\n      mstore\n      keccak256(0x00, 0x20)\n      swap1\n      0x04\n      mul\n      add\n        /* \"contracts/test.sol\":4006:4036  reward.lockInfo[i].totalAmount */\n      0x00\n      add\n        /* \"contracts/test.sol\":4006:4040  reward.lockInfo[i].totalAmount = 0 */\n      dup2\n      swap1\n      sstore\n      pop\n        /* \"contracts/test.sol\":3871:4060  if (elapsedBlocks >= LOCK_BLOCKS) {... */\n    tag_199:\n        /* \"contracts/test.sol\":3765:4075  {... */\n      pop\n        /* \"contracts/test.sol\":3729:4075  if (!reward.lockInfo[i].isUnlocked) {... */\n    tag_194:\n        /* \"contracts/test.sol\":3709:3712  i++ */\n      dup1\n      dup1\n      0x01\n      add\n      swap2\n      pop\n      pop\n        /* \"contracts/test.sol\":3661:4086  for (uint256 i = 0; i < reward.lockInfo.length; i++) {... */\n      jump(tag_188)\n    tag_189:\n      pop\n        /* \"contracts/test.sol\":3439:4093  {... */\n      pop\n        /* \"contracts/test.sol\":3379:4093  function claimUnlockedTokens(address _rewardAddress) public {... */\n      pop\n      jump\t// out\n        /* \"contracts/test.sol\":2408:3344  function distributeRewards() public {... */\n    tag_54:\n        /* \"contracts/test.sol\":913:917  7200 */\n      0x1c20\n        /* \"contracts/test.sol\":2479:2500  lastDistributionBlock */\n      sload(0x05)\n        /* \"contracts/test.sol\":2479:2530  lastDistributionBlock + DISTRIBUTION_BLOCK_INTERVAL */\n      tag_208\n      swap2\n      swap1\n      tag_129\n      jump\t// in\n    tag_208:\n        /* \"contracts/test.sol\":2463:2475  block.number */\n      number\n        /* \"contracts/test.sol\":2463:2530  block.number >= lastDistributionBlock + DISTRIBUTION_BLOCK_INTERVAL */\n      lt\n      iszero\n        /* \"contracts/test.sol\":2455:2557  require(block.number >= lastDistributionBlock + DISTRIBUTION_BLOCK_INTERVAL, \"Distribution not ready\") */\n      tag_209\n      jumpi\n      mload(0x40)\n      0x08c379a000000000000000000000000000000000000000000000000000000000\n      dup2\n      mstore\n      0x04\n      add\n      tag_210\n      swap1\n      tag_211\n      jump\t// in\n    tag_210:\n      mload(0x40)\n      dup1\n      swap2\n      sub\n      swap1\n      revert\n    tag_209:\n        /* \"contracts/test.sol\":2594:2606  block.number */\n      number\n        /* \"contracts/test.sol\":2570:2591  lastDistributionBlock */\n      0x05\n        /* \"contracts/test.sol\":2570:2606  lastDistributionBlock = block.number */\n      dup2\n      swap1\n      sstore\n      pop\n        /* \"contracts/test.sol\":2622:2631  uint256 i */\n      0x00\n        /* \"contracts/test.sol\":2634:2635  0 */\n      0x00\n        /* \"contracts/test.sol\":2622:2635  uint256 i = 0 */\n      swap1\n      pop\n        /* \"contracts/test.sol\":2617:3337  for (uint256 i = 0; i < recipients.length; i++) {... */\n    tag_212:\n        /* \"contracts/test.sol\":2641:2651  recipients */\n      0x09\n        /* \"contracts/test.sol\":2641:2658  recipients.length */\n      dup1\n      sload\n      swap1\n      pop\n        /* \"contracts/test.sol\":2637:2638  i */\n      dup2\n        /* \"contracts/test.sol\":2637:2658  i < recipients.length */\n      lt\n        /* \"contracts/test.sol\":2617:3337  for (uint256 i = 0; i < recipients.length; i++) {... */\n      iszero\n      tag_213\n      jumpi\n        /* \"contracts/test.sol\":2680:2697  address recipient */\n      0x00\n        /* \"contracts/test.sol\":2700:2710  recipients */\n      0x09\n        /* \"contracts/test.sol\":2711:2712  i */\n      dup3\n        /* \"contracts/test.sol\":2700:2713  recipients[i] */\n      dup2\n      sload\n      dup2\n      lt\n      tag_215\n      jumpi\n      tag_216\n      tag_113\n      jump\t// in\n    tag_216:\n    tag_215:\n      swap1\n      0x00\n      mstore\n      keccak256(0x00, 0x20)\n      add\n      0x00\n      swap1\n      sload\n      swap1\n      0x0100\n      exp\n      swap1\n      div\n      0xffffffffffffffffffffffffffffffffffffffff\n      and\n        /* \"contracts/test.sol\":2680:2713  address recipient = recipients[i] */\n      swap1\n      pop\n        /* \"contracts/test.sol\":2764:2765  3 */\n      0x03\n        /* \"contracts/test.sol\":2732:2739  checker */\n      0x01\n      0x00\n      swap1\n      sload\n      swap1\n      0x0100\n      exp\n      swap1\n      div\n      0xffffffffffffffffffffffffffffffffffffffff\n      and\n        /* \"contracts/test.sol\":2732:2749  checker.checkPass */\n      0xffffffffffffffffffffffffffffffffffffffff\n      and\n      0x7279c14e\n        /* \"contracts/test.sol\":2750:2759  recipient */\n      dup4\n        /* \"contracts/test.sol\":2732:2760  checker.checkPass(recipient) */\n      mload(0x40)\n      dup3\n      0xffffffff\n      and\n      0xe0\n      shl\n      dup2\n      mstore\n      0x04\n      add\n      tag_218\n      swap2\n      swap1\n      tag_61\n      jump\t// in\n    tag_218:\n      0x20\n      mload(0x40)\n      dup1\n      dup4\n      sub\n      dup2\n      dup7\n      gas\n      staticcall\n      iszero\n      dup1\n      iszero\n      tag_220\n      jumpi\n      returndatacopy(0x00, 0x00, returndatasize)\n      revert(0x00, returndatasize)\n    tag_220:\n      pop\n      pop\n      pop\n      pop\n      mload(0x40)\n      returndatasize\n      not(0x1f)\n      0x1f\n      dup3\n      add\n      and\n      dup3\n      add\n      dup1\n      0x40\n      mstore\n      pop\n      dup2\n      add\n      swap1\n      tag_221\n      swap2\n      swap1\n      tag_222\n      jump\t// in\n    tag_221:\n        /* \"contracts/test.sol\":2732:2765  checker.checkPass(recipient) >= 3 */\n      lt\n        /* \"contracts/test.sol\":2728:3280  if (checker.checkPass(recipient) >= 3) {... */\n      tag_223\n      jumpi\n        /* \"contracts/test.sol\":2786:2807  uint256 initialAmount */\n      0x00\n        /* \"contracts/test.sol\":2832:2835  100 */\n      0x64\n        /* \"contracts/test.sol\":2826:2828  30 */\n      0x1e\n        /* \"contracts/test.sol\":2811:2823  onlineReward */\n      sload(0x03)\n        /* \"contracts/test.sol\":2811:2828  onlineReward * 30 */\n      tag_224\n      swap2\n      swap1\n      tag_142\n      jump\t// in\n    tag_224:\n        /* \"contracts/test.sol\":2810:2835  (onlineReward * 30) / 100 */\n      tag_225\n      swap2\n      swap1\n      tag_140\n      jump\t// in\n    tag_225:\n        /* \"contracts/test.sol\":2786:2835  uint256 initialAmount = (onlineReward * 30) / 100 */\n      swap1\n      pop\n        /* \"contracts/test.sol\":2898:2911  initialAmount */\n      dup1\n        /* \"contracts/test.sol\":2854:2868  lockedBalances */\n      0x07\n        /* \"contracts/test.sol\":2854:2879  lockedBalances[recipient] */\n      0x00\n        /* \"contracts/test.sol\":2869:2878  recipient */\n      dup5\n        /* \"contracts/test.sol\":2854:2879  lockedBalances[recipient] */\n      0xffffffffffffffffffffffffffffffffffffffff\n      and\n      0xffffffffffffffffffffffffffffffffffffffff\n      and\n      dup2\n      mstore\n      0x20\n      add\n      swap1\n      dup2\n      mstore\n      0x20\n      add\n      0x00\n      keccak256\n        /* \"contracts/test.sol\":2854:2894  lockedBalances[recipient].unlockedAmount */\n      0x01\n      add\n      0x00\n        /* \"contracts/test.sol\":2854:2911  lockedBalances[recipient].unlockedAmount += initialAmount */\n      dup3\n      dup3\n      sload\n      tag_226\n      swap2\n      swap1\n      tag_129\n      jump\t// in\n    tag_226:\n      swap3\n      pop\n      pop\n      dup2\n      swap1\n      sstore\n      pop\n        /* \"contracts/test.sol\":2930:2944  lockedBalances */\n      0x07\n        /* \"contracts/test.sol\":2930:2955  lockedBalances[recipient] */\n      0x00\n        /* \"contracts/test.sol\":2945:2954  recipient */\n      dup4\n        /* \"contracts/test.sol\":2930:2955  lockedBalances[recipient] */\n      0xffffffffffffffffffffffffffffffffffffffff\n      and\n      0xffffffffffffffffffffffffffffffffffffffff\n      and\n      dup2\n      mstore\n      0x20\n      add\n      swap1\n      dup2\n      mstore\n      0x20\n      add\n      0x00\n      keccak256\n        /* \"contracts/test.sol\":2930:2964  lockedBalances[recipient].lockInfo */\n      0x00\n      add\n        /* \"contracts/test.sol\":2970:3263  LockInfo({... */\n      mload(0x40)\n      dup1\n      0x80\n      add\n      0x40\n      mstore\n      dup1\n        /* \"contracts/test.sol\":3030:3043  initialAmount */\n      dup4\n        /* \"contracts/test.sol\":3015:3027  onlineReward */\n      sload(0x03)\n        /* \"contracts/test.sol\":3015:3043  onlineReward - initialAmount */\n      tag_227\n      swap2\n      swap1\n      tag_120\n      jump\t// in\n    tag_227:\n        /* \"contracts/test.sol\":2970:3263  LockInfo({... */\n      dup2\n      mstore\n      0x20\n      add\n        /* \"contracts/test.sol\":3078:3099  lastDistributionBlock */\n      sload(0x05)\n        /* \"contracts/test.sol\":2970:3263  LockInfo({... */\n      dup2\n      mstore\n      0x20\n      add\n        /* \"contracts/test.sol\":3164:3185  lastDistributionBlock */\n      sload(0x05)\n        /* \"contracts/test.sol\":2970:3263  LockInfo({... */\n      dup2\n      mstore\n      0x20\n      add\n        /* \"contracts/test.sol\":3238:3243  false */\n      0x00\n        /* \"contracts/test.sol\":2970:3263  LockInfo({... */\n      iszero\n      iszero\n      dup2\n      mstore\n      pop\n        /* \"contracts/test.sol\":2930:3264  lockedBalances[recipient].lockInfo.push(LockInfo({... */\n      swap1\n      dup1\n      0x01\n      dup2\n      sload\n      add\n      dup1\n      dup3\n      sstore\n      dup1\n      swap2\n      pop\n      pop\n      0x01\n      swap1\n      sub\n      swap1\n      0x00\n      mstore\n      keccak256(0x00, 0x20)\n      swap1\n      0x04\n      mul\n      add\n      0x00\n      swap1\n      swap2\n      swap1\n      swap2\n      swap1\n      swap2\n      pop\n      0x00\n      dup3\n      add\n      mload\n      dup2\n      0x00\n      add\n      sstore\n      0x20\n      dup3\n      add\n      mload\n      dup2\n      0x01\n      add\n      sstore\n      0x40\n      dup3\n      add\n      mload\n      dup2\n      0x02\n      add\n      sstore\n      0x60\n      dup3\n      add\n      mload\n      dup2\n      0x03\n      add\n      exp(0x0100, 0x00)\n      dup2\n      sload\n      dup2\n      0xff\n      mul\n      not\n      and\n      swap1\n      dup4\n      iszero\n      iszero\n      mul\n      or\n      swap1\n      sstore\n      pop\n      pop\n      pop\n        /* \"contracts/test.sol\":2767:3280  {... */\n      pop\n        /* \"contracts/test.sol\":2728:3280  if (checker.checkPass(recipient) >= 3) {... */\n    tag_223:\n        /* \"contracts/test.sol\":3294:3301  checker */\n      0x01\n      0x00\n      swap1\n      sload\n      swap1\n      0x0100\n      exp\n      swap1\n      div\n      0xffffffffffffffffffffffffffffffffffffffff\n      and\n        /* \"contracts/test.sol\":3294:3314  checker.resetChecker */\n      0xffffffffffffffffffffffffffffffffffffffff\n      and\n      0x3bc8df83\n        /* \"contracts/test.sol\":3315:3324  recipient */\n      dup3\n        /* \"contracts/test.sol\":3294:3325  checker.resetChecker(recipient) */\n      mload(0x40)\n      dup3\n      0xffffffff\n      and\n      0xe0\n      shl\n      dup2\n      mstore\n      0x04\n      add\n      tag_229\n      swap2\n      swap1\n      tag_61\n      jump\t// in\n    tag_229:\n      0x00\n      mload(0x40)\n      dup1\n      dup4\n      sub\n      dup2\n      0x00\n      dup8\n      dup1\n      extcodesize\n      iszero\n      dup1\n      iszero\n      tag_230\n      jumpi\n      revert(0x00, 0x00)\n    tag_230:\n      pop\n      gas\n      call\n      iszero\n      dup1\n      iszero\n      tag_232\n      jumpi\n      returndatacopy(0x00, 0x00, returndatasize)\n      revert(0x00, returndatasize)\n    tag_232:\n      pop\n      pop\n      pop\n      pop\n        /* \"contracts/test.sol\":2665:3337  {... */\n      pop\n        /* \"contracts/test.sol\":2660:2663  i++ */\n      dup1\n      dup1\n      0x01\n      add\n      swap2\n      pop\n      pop\n        /* \"contracts/test.sol\":2617:3337  for (uint256 i = 0; i < recipients.length; i++) {... */\n      jump(tag_212)\n    tag_213:\n      pop\n        /* \"contracts/test.sol\":2408:3344  function distributeRewards() public {... */\n      jump\t// out\n        /* \"contracts/test.sol\":970:1015  uint256 public constant LOCK_BLOCKS = 1080000 */\n    tag_56:\n        /* \"contracts/test.sol\":1008:1015  1080000 */\n      0x107ac0\n        /* \"contracts/test.sol\":970:1015  uint256 public constant LOCK_BLOCKS = 1080000 */\n      dup2\n      jump\t// out\n        /* \"contracts/test.sol\":648:668  address public owner */\n    tag_59:\n      0x02\n      0x00\n      swap1\n      sload\n      swap1\n      0x0100\n      exp\n      swap1\n      div\n      0xffffffffffffffffffffffffffffffffffffffff\n      and\n      dup2\n      jump\t// out\n        /* \"contracts/test.sol\":6214:6362  function updateLockPeriod(uint256 newLockPeriod) public view onlyOwner {... */\n    tag_65:\n        /* \"contracts/test.sol\":1865:1870  owner */\n      0x02\n      0x00\n      swap1\n      sload\n      swap1\n      0x0100\n      exp\n      swap1\n      div\n      0xffffffffffffffffffffffffffffffffffffffff\n      and\n        /* \"contracts/test.sol\":1851:1870  msg.sender == owner */\n      0xffffffffffffffffffffffffffffffffffffffff\n      and\n        /* \"contracts/test.sol\":1851:1861  msg.sender */\n      caller\n        /* \"contracts/test.sol\":1851:1870  msg.sender == owner */\n      0xffffffffffffffffffffffffffffffffffffffff\n      and\n      eq\n        /* \"contracts/test.sol\":1843:1894  require(msg.sender == owner, \"Only owner can call\") */\n      tag_234\n      jumpi\n      mload(0x40)\n      0x08c379a000000000000000000000000000000000000000000000000000000000\n      dup2\n      mstore\n      0x04\n      add\n      tag_235\n      swap1\n      tag_236\n      jump\t// in\n    tag_235:\n      mload(0x40)\n      dup1\n      swap2\n      sub\n      swap1\n      revert\n    tag_234:\n        /* \"contracts/test.sol\":6320:6321  0 */\n      0x00\n        /* \"contracts/test.sol\":6304:6317  newLockPeriod */\n      dup2\n        /* \"contracts/test.sol\":6304:6321  newLockPeriod > 0 */\n      gt\n        /* \"contracts/test.sol\":6296:6354  require(newLockPeriod > 0, \"Lock period must be positive\") */\n      tag_238\n      jumpi\n      mload(0x40)\n      0x08c379a000000000000000000000000000000000000000000000000000000000\n      dup2\n      mstore\n      0x04\n      add\n      tag_239\n      swap1\n      tag_240\n      jump\t// in\n    tag_239:\n      mload(0x40)\n      dup1\n      swap2\n      sub\n      swap1\n      revert\n    tag_238:\n        /* \"contracts/test.sol\":6214:6362  function updateLockPeriod(uint256 newLockPeriod) public view onlyOwner {... */\n      pop\n      jump\t// out\n        /* \"contracts/test.sol\":1481:1530  mapping(address => address) public bindingWallets */\n    tag_68:\n      mstore(0x20, 0x06)\n      dup1\n      0x00\n      mstore\n      keccak256(0x00, 0x40)\n      0x00\n      swap2\n      pop\n      sload\n      swap1\n      0x0100\n      exp\n      swap1\n      div\n      0xffffffffffffffffffffffffffffffffffffffff\n      and\n      dup2\n      jump\t// out\n        /* \"contracts/test.sol\":675:707  uint256 public onlineReward = 60 */\n    tag_71:\n      sload(0x03)\n      dup2\n      jump\t// out\n        /* \"contracts/test.sol\":613:635  CHECKER public checker */\n    tag_74:\n      0x01\n      0x00\n      swap1\n      sload\n      swap1\n      0x0100\n      exp\n      swap1\n      div\n      0xffffffffffffffffffffffffffffffffffffffff\n      and\n      dup2\n      jump\t// out\n        /* \"contracts/test.sol\":1753:1780  address[] public recipients */\n    tag_79:\n      0x09\n      dup2\n      dup2\n      sload\n      dup2\n      lt\n      tag_241\n      jumpi\n      0x00\n      dup1\n      revert\n    tag_241:\n      swap1\n      0x00\n      mstore\n      keccak256(0x00, 0x20)\n      add\n      0x00\n      swap2\n      pop\n      sload\n      swap1\n      0x0100\n      exp\n      swap1\n      div\n      0xffffffffffffffffffffffffffffffffffffffff\n      and\n      dup2\n      jump\t// out\n        /* \"contracts/test.sol\":6464:7194  function earlyUnlock(address _rewardAddress) public {... */\n    tag_83:\n        /* \"contracts/test.sol\":6569:6579  msg.sender */\n      caller\n        /* \"contracts/test.sol\":6535:6579  bindingWallets[_rewardAddress] == msg.sender */\n      0xffffffffffffffffffffffffffffffffffffffff\n      and\n        /* \"contracts/test.sol\":6535:6549  bindingWallets */\n      0x06\n        /* \"contracts/test.sol\":6535:6565  bindingWallets[_rewardAddress] */\n      0x00\n        /* \"contracts/test.sol\":6550:6564  _rewardAddress */\n      dup4\n        /* \"contracts/test.sol\":6535:6565  bindingWallets[_rewardAddress] */\n      0xffffffffffffffffffffffffffffffffffffffff\n      and\n      0xffffffffffffffffffffffffffffffffffffffff\n      and\n      dup2\n      mstore\n      0x20\n      add\n      swap1\n      dup2\n      mstore\n      0x20\n      add\n      0x00\n      keccak256\n      0x00\n      swap1\n      sload\n      swap1\n      0x0100\n      exp\n      swap1\n      div\n      0xffffffffffffffffffffffffffffffffffffffff\n      and\n        /* \"contracts/test.sol\":6535:6579  bindingWallets[_rewardAddress] == msg.sender */\n      0xffffffffffffffffffffffffffffffffffffffff\n      and\n      eq\n        /* \"contracts/test.sol\":6527:6594  require(bindingWallets[_rewardAddress] == msg.sender, \"No binding\") */\n      tag_244\n      jumpi\n      mload(0x40)\n      0x08c379a000000000000000000000000000000000000000000000000000000000\n      dup2\n      mstore\n      0x04\n      add\n      tag_245\n      swap1\n      tag_104\n      jump\t// in\n    tag_245:\n      mload(0x40)\n      dup1\n      swap2\n      sub\n      swap1\n      revert\n    tag_244:\n        /* \"contracts/test.sol\":6605:6626  Reward storage reward */\n      0x00\n        /* \"contracts/test.sol\":6629:6643  lockedBalances */\n      0x07\n        /* \"contracts/test.sol\":6629:6659  lockedBalances[_rewardAddress] */\n      0x00\n        /* \"contracts/test.sol\":6644:6658  _rewardAddress */\n      dup4\n        /* \"contracts/test.sol\":6629:6659  lockedBalances[_rewardAddress] */\n      0xffffffffffffffffffffffffffffffffffffffff\n      and\n      0xffffffffffffffffffffffffffffffffffffffff\n      and\n      dup2\n      mstore\n      0x20\n      add\n      swap1\n      dup2\n      mstore\n      0x20\n      add\n      0x00\n      keccak256\n        /* \"contracts/test.sol\":6605:6659  Reward storage reward = lockedBalances[_rewardAddress] */\n      swap1\n      pop\n        /* \"contracts/test.sol\":6672:6691  uint256 earlyAmount */\n      0x00\n        /* \"contracts/test.sol\":6694:6695  0 */\n      0x00\n        /* \"contracts/test.sol\":6672:6695  uint256 earlyAmount = 0 */\n      swap1\n      pop\n        /* \"contracts/test.sol\":6711:6720  uint256 i */\n      0x00\n        /* \"contracts/test.sol\":6723:6724  0 */\n      0x00\n        /* \"contracts/test.sol\":6711:6724  uint256 i = 0 */\n      swap1\n      pop\n        /* \"contracts/test.sol\":6706:7085  for (uint256 i = 0; i <  reward.lockInfo.length; i ++) {... */\n    tag_246:\n        /* \"contracts/test.sol\":6731:6737  reward */\n      dup3\n        /* \"contracts/test.sol\":6731:6746  reward.lockInfo */\n      0x00\n      add\n        /* \"contracts/test.sol\":6731:6753  reward.lockInfo.length */\n      dup1\n      sload\n      swap1\n      pop\n        /* \"contracts/test.sol\":6726:6727  i */\n      dup2\n        /* \"contracts/test.sol\":6726:6753  i <  reward.lockInfo.length */\n      lt\n        /* \"contracts/test.sol\":6706:7085  for (uint256 i = 0; i <  reward.lockInfo.length; i ++) {... */\n      iszero\n      tag_247\n      jumpi\n        /* \"contracts/test.sol\":6781:6787  reward */\n      dup3\n        /* \"contracts/test.sol\":6781:6796  reward.lockInfo */\n      0x00\n      add\n        /* \"contracts/test.sol\":6797:6798  i */\n      dup2\n        /* \"contracts/test.sol\":6781:6799  reward.lockInfo[i] */\n      dup2\n      sload\n      dup2\n      lt\n      tag_249\n      jumpi\n      tag_250\n      tag_113\n      jump\t// in\n    tag_250:\n    tag_249:\n      swap1\n      0x00\n      mstore\n      keccak256(0x00, 0x20)\n      swap1\n      0x04\n      mul\n      add\n        /* \"contracts/test.sol\":6781:6810  reward.lockInfo[i].isUnlocked */\n      0x03\n      add\n      0x00\n      swap1\n      sload\n      swap1\n      0x0100\n      exp\n      swap1\n      div\n      0xff\n      and\n        /* \"contracts/test.sol\":6776:7074  if (!reward.lockInfo[i].isUnlocked) {... */\n      tag_252\n      jumpi\n        /* \"contracts/test.sol\":6904:6907  100 */\n      0x64\n        /* \"contracts/test.sol\":1139:1141  30 */\n      0x1e\n        /* \"contracts/test.sol\":6847:6853  reward */\n      dup5\n        /* \"contracts/test.sol\":6847:6862  reward.lockInfo */\n      0x00\n      add\n        /* \"contracts/test.sol\":6863:6864  i */\n      dup4\n        /* \"contracts/test.sol\":6847:6865  reward.lockInfo[i] */\n      dup2\n      sload\n      dup2\n      lt\n      tag_253\n      jumpi\n      tag_254\n      tag_113\n      jump\t// in\n    tag_254:\n    tag_253:\n      swap1\n      0x00\n      mstore\n      keccak256(0x00, 0x20)\n      swap1\n      0x04\n      mul\n      add\n        /* \"contracts/test.sol\":6847:6877  reward.lockInfo[i].totalAmount */\n      0x00\n      add\n      sload\n        /* \"contracts/test.sol\":6847:6900  reward.lockInfo[i].totalAmount * EARLY_UNLOCK_PERCENT */\n      tag_256\n      swap2\n      swap1\n      tag_142\n      jump\t// in\n    tag_256:\n        /* \"contracts/test.sol\":6846:6907  (reward.lockInfo[i].totalAmount * EARLY_UNLOCK_PERCENT) / 100 */\n      tag_257\n      swap2\n      swap1\n      tag_140\n      jump\t// in\n    tag_257:\n        /* \"contracts/test.sol\":6831:6907  earlyAmount += (reward.lockInfo[i].totalAmount * EARLY_UNLOCK_PERCENT) / 100 */\n      dup3\n      tag_258\n      swap2\n      swap1\n      tag_129\n      jump\t// in\n    tag_258:\n      swap2\n      pop\n        /* \"contracts/test.sol\":6958:6962  true */\n      0x01\n        /* \"contracts/test.sol\":6926:6932  reward */\n      dup4\n        /* \"contracts/test.sol\":6926:6941  reward.lockInfo */\n      0x00\n      add\n        /* \"contracts/test.sol\":6942:6943  i */\n      dup3\n        /* \"contracts/test.sol\":6926:6944  reward.lockInfo[i] */\n      dup2\n      sload\n      dup2\n      lt\n      tag_259\n      jumpi\n      tag_260\n      tag_113\n      jump\t// in\n    tag_260:\n    tag_259:\n      swap1\n      0x00\n      mstore\n      keccak256(0x00, 0x20)\n      swap1\n      0x04\n      mul\n      add\n        /* \"contracts/test.sol\":6926:6955  reward.lockInfo[i].isUnlocked */\n      0x03\n      add\n      0x00\n        /* \"contracts/test.sol\":6926:6962  reward.lockInfo[i].isUnlocked = true */\n      0x0100\n      exp\n      dup2\n      sload\n      dup2\n      0xff\n      mul\n      not\n      and\n      swap1\n      dup4\n      iszero\n      iszero\n      mul\n      or\n      swap1\n      sstore\n      pop\n        /* \"contracts/test.sol\":7014:7015  0 */\n      0x00\n        /* \"contracts/test.sol\":6981:6987  reward */\n      dup4\n        /* \"contracts/test.sol\":6981:6996  reward.lockInfo */\n      0x00\n      add\n        /* \"contracts/test.sol\":6997:6998  i */\n      dup3\n        /* \"contracts/test.sol\":6981:6999  reward.lockInfo[i] */\n      dup2\n      sload\n      dup2\n      lt\n      tag_262\n      jumpi\n      tag_263\n      tag_113\n      jump\t// in\n    tag_263:\n    tag_262:\n      swap1\n      0x00\n      mstore\n      keccak256(0x00, 0x20)\n      swap1\n      0x04\n      mul\n      add\n        /* \"contracts/test.sol\":6981:7011  reward.lockInfo[i].totalAmount */\n      0x00\n      add\n        /* \"contracts/test.sol\":6981:7015  reward.lockInfo[i].totalAmount = 0 */\n      dup2\n      swap1\n      sstore\n      pop\n        /* \"contracts/test.sol\":6776:7074  if (!reward.lockInfo[i].isUnlocked) {... */\n    tag_252:\n        /* \"contracts/test.sol\":6755:6759  i ++ */\n      dup1\n      dup1\n      0x01\n      add\n      swap2\n      pop\n      pop\n        /* \"contracts/test.sol\":6706:7085  for (uint256 i = 0; i <  reward.lockInfo.length; i ++) {... */\n      jump(tag_246)\n    tag_247:\n      pop\n        /* \"contracts/test.sol\":7117:7118  0 */\n      0x00\n        /* \"contracts/test.sol\":7103:7114  earlyAmount */\n      dup2\n        /* \"contracts/test.sol\":7103:7118  earlyAmount > 0 */\n      gt\n        /* \"contracts/test.sol\":7095:7139  require(earlyAmount > 0, \"No locked tokens\") */\n      tag_265\n      jumpi\n      mload(0x40)\n      0x08c379a000000000000000000000000000000000000000000000000000000000\n      dup2\n      mstore\n      0x04\n      add\n      tag_266\n      swap1\n      tag_107\n      jump\t// in\n    tag_266:\n      mload(0x40)\n      dup1\n      swap2\n      sub\n      swap1\n      revert\n    tag_265:\n        /* \"contracts/test.sol\":7175:7186  earlyAmount */\n      dup1\n        /* \"contracts/test.sol\":7150:7156  reward */\n      dup3\n        /* \"contracts/test.sol\":7150:7171  reward.unlockedAmount */\n      0x01\n      add\n      0x00\n        /* \"contracts/test.sol\":7150:7186  reward.unlockedAmount += earlyAmount */\n      dup3\n      dup3\n      sload\n      tag_267\n      swap2\n      swap1\n      tag_129\n      jump\t// in\n    tag_267:\n      swap3\n      pop\n      pop\n      dup2\n      swap1\n      sstore\n      pop\n        /* \"contracts/test.sol\":6516:7194  {... */\n      pop\n      pop\n        /* \"contracts/test.sol\":6464:7194  function earlyUnlock(address _rewardAddress) public {... */\n      pop\n      jump\t// out\n        /* \"contracts/test.sol\":2170:2379  function addWallet(address wallet) public onlyOwner {... */\n    tag_86:\n        /* \"contracts/test.sol\":1865:1870  owner */\n      0x02\n      0x00\n      swap1\n      sload\n      swap1\n      0x0100\n      exp\n      swap1\n      div\n      0xffffffffffffffffffffffffffffffffffffffff\n      and\n        /* \"contracts/test.sol\":1851:1870  msg.sender == owner */\n      0xffffffffffffffffffffffffffffffffffffffff\n      and\n        /* \"contracts/test.sol\":1851:1861  msg.sender */\n      caller\n        /* \"contracts/test.sol\":1851:1870  msg.sender == owner */\n      0xffffffffffffffffffffffffffffffffffffffff\n      and\n      eq\n        /* \"contracts/test.sol\":1843:1894  require(msg.sender == owner, \"Only owner can call\") */\n      tag_269\n      jumpi\n      mload(0x40)\n      0x08c379a000000000000000000000000000000000000000000000000000000000\n      dup2\n      mstore\n      0x04\n      add\n      tag_270\n      swap1\n      tag_236\n      jump\t// in\n    tag_270:\n      mload(0x40)\n      dup1\n      swap2\n      sub\n      swap1\n      revert\n    tag_269:\n        /* \"contracts/test.sol\":2242:2259  authorizedAddress */\n      0x08\n        /* \"contracts/test.sol\":2242:2267  authorizedAddress[wallet] */\n      0x00\n        /* \"contracts/test.sol\":2260:2266  wallet */\n      dup3\n        /* \"contracts/test.sol\":2242:2267  authorizedAddress[wallet] */\n      0xffffffffffffffffffffffffffffffffffffffff\n      and\n      0xffffffffffffffffffffffffffffffffffffffff\n      and\n      dup2\n      mstore\n      0x20\n      add\n      swap1\n      dup2\n      mstore\n      0x20\n      add\n      0x00\n      keccak256\n      0x00\n      swap1\n      sload\n      swap1\n      0x0100\n      exp\n      swap1\n      div\n      0xff\n      and\n        /* \"contracts/test.sol\":2241:2267  !authorizedAddress[wallet] */\n      iszero\n        /* \"contracts/test.sol\":2233:2292  require(!authorizedAddress[wallet], \"Wallet already added\") */\n      tag_272\n      jumpi\n      mload(0x40)\n      0x08c379a000000000000000000000000000000000000000000000000000000000\n      dup2\n      mstore\n      0x04\n      add\n      tag_273\n      swap1\n      tag_274\n      jump\t// in\n    tag_273:\n      mload(0x40)\n      dup1\n      swap2\n      sub\n      swap1\n      revert\n    tag_272:\n        /* \"contracts/test.sol\":2333:2337  true */\n      0x01\n        /* \"contracts/test.sol\":2305:2322  authorizedAddress */\n      0x08\n        /* \"contracts/test.sol\":2305:2330  authorizedAddress[wallet] */\n      0x00\n        /* \"contracts/test.sol\":2323:2329  wallet */\n      dup4\n        /* \"contracts/test.sol\":2305:2330  authorizedAddress[wallet] */\n      0xffffffffffffffffffffffffffffffffffffffff\n      and\n      0xffffffffffffffffffffffffffffffffffffffff\n      and\n      dup2\n      mstore\n      0x20\n      add\n      swap1\n      dup2\n      mstore\n      0x20\n      add\n      0x00\n      keccak256\n      0x00\n        /* \"contracts/test.sol\":2305:2337  authorizedAddress[wallet] = true */\n      0x0100\n      exp\n      dup2\n      sload\n      dup2\n      0xff\n      mul\n      not\n      and\n      swap1\n      dup4\n      iszero\n      iszero\n      mul\n      or\n      swap1\n      sstore\n      pop\n        /* \"contracts/test.sol\":2348:2358  recipients */\n      0x09\n        /* \"contracts/test.sol\":2364:2370  wallet */\n      dup2\n        /* \"contracts/test.sol\":2348:2371  recipients.push(wallet) */\n      swap1\n      dup1\n      0x01\n      dup2\n      sload\n      add\n      dup1\n      dup3\n      sstore\n      dup1\n      swap2\n      pop\n      pop\n      0x01\n      swap1\n      sub\n      swap1\n      0x00\n      mstore\n      keccak256(0x00, 0x20)\n      add\n      0x00\n      swap1\n      swap2\n      swap1\n      swap2\n      swap1\n      swap2\n      0x0100\n      exp\n      dup2\n      sload\n      dup2\n      0xffffffffffffffffffffffffffffffffffffffff\n      mul\n      not\n      and\n      swap1\n      dup4\n      0xffffffffffffffffffffffffffffffffffffffff\n      and\n      mul\n      or\n      swap1\n      sstore\n      pop\n        /* \"contracts/test.sol\":2170:2379  function addWallet(address wallet) public onlyOwner {... */\n      pop\n      jump\t// out\n        /* \"contracts/test.sol\":816:852  uint256 public lastDistributionBlock */\n    tag_88:\n      sload(0x05)\n      dup2\n      jump\t// out\n        /* \"contracts/test.sol\":730:790  uint256 public roundUnlock = (onlineReward * 70) / 100 / 180 */\n    tag_91:\n      sload(0x04)\n      dup2\n      jump\t// out\n        /* \"contracts/test.sol\":587:606  IERC20 public token */\n    tag_94:\n      0x00\n      0x00\n      swap1\n      sload\n      swap1\n      0x0100\n      exp\n      swap1\n      div\n      0xffffffffffffffffffffffffffffffffffffffff\n      and\n      dup2\n      jump\t// out\n        /* \"contracts/test.sol\":7238:7354  function isAuthorized(address wallet) public view returns (bool) {... */\n    tag_99:\n        /* \"contracts/test.sol\":7297:7301  bool */\n      0x00\n        /* \"contracts/test.sol\":7321:7338  authorizedAddress */\n      0x08\n        /* \"contracts/test.sol\":7321:7346  authorizedAddress[wallet] */\n      0x00\n        /* \"contracts/test.sol\":7339:7345  wallet */\n      dup4\n        /* \"contracts/test.sol\":7321:7346  authorizedAddress[wallet] */\n      0xffffffffffffffffffffffffffffffffffffffff\n      and\n      0xffffffffffffffffffffffffffffffffffffffff\n      and\n      dup2\n      mstore\n      0x20\n      add\n      swap1\n      dup2\n      mstore\n      0x20\n      add\n      0x00\n      keccak256\n      0x00\n      swap1\n      sload\n      swap1\n      0x0100\n      exp\n      swap1\n      div\n      0xff\n      and\n        /* \"contracts/test.sol\":7314:7346  return authorizedAddress[wallet] */\n      swap1\n      pop\n        /* \"contracts/test.sol\":7238:7354  function isAuthorized(address wallet) public view returns (bool) {... */\n      swap2\n      swap1\n      pop\n      jump\t// out\n        /* \"#utility.yul\":7:84   */\n    tag_277:\n        /* \"#utility.yul\":44:51   */\n      0x00\n        /* \"#utility.yul\":73:78   */\n      dup2\n        /* \"#utility.yul\":62:78   */\n      swap1\n      pop\n        /* \"#utility.yul\":7:84   */\n      swap2\n      swap1\n      pop\n      jump\t// out\n        /* \"#utility.yul\":90:208   */\n    tag_278:\n        /* \"#utility.yul\":177:201   */\n      tag_325\n        /* \"#utility.yul\":195:200   */\n      dup2\n        /* \"#utility.yul\":177:201   */\n      tag_277\n      jump\t// in\n    tag_325:\n        /* \"#utility.yul\":172:175   */\n      dup3\n        /* \"#utility.yul\":165:202   */\n      mstore\n        /* \"#utility.yul\":90:208   */\n      pop\n      pop\n      jump\t// out\n        /* \"#utility.yul\":214:436   */\n    tag_30:\n        /* \"#utility.yul\":307:311   */\n      0x00\n        /* \"#utility.yul\":345:347   */\n      0x20\n        /* \"#utility.yul\":334:343   */\n      dup3\n        /* \"#utility.yul\":330:348   */\n      add\n        /* \"#utility.yul\":322:348   */\n      swap1\n      pop\n        /* \"#utility.yul\":358:429   */\n      tag_327\n        /* \"#utility.yul\":426:427   */\n      0x00\n        /* \"#utility.yul\":415:424   */\n      dup4\n        /* \"#utility.yul\":411:428   */\n      add\n        /* \"#utility.yul\":402:408   */\n      dup5\n        /* \"#utility.yul\":358:429   */\n      tag_278\n      jump\t// in\n    tag_327:\n        /* \"#utility.yul\":214:436   */\n      swap3\n      swap2\n      pop\n      pop\n      jump\t// out\n        /* \"#utility.yul\":523:640   */\n    tag_280:\n        /* \"#utility.yul\":632:633   */\n      0x00\n        /* \"#utility.yul\":629:630   */\n      0x00\n        /* \"#utility.yul\":622:634   */\n      revert\n        /* \"#utility.yul\":769:895   */\n    tag_282:\n        /* \"#utility.yul\":806:813   */\n      0x00\n        /* \"#utility.yul\":846:888   */\n      0xffffffffffffffffffffffffffffffffffffffff\n        /* \"#utility.yul\":839:844   */\n      dup3\n        /* \"#utility.yul\":835:889   */\n      and\n        /* \"#utility.yul\":824:889   */\n      swap1\n      pop\n        /* \"#utility.yul\":769:895   */\n      swap2\n      swap1\n      pop\n      jump\t// out\n        /* \"#utility.yul\":901:997   */\n    tag_283:\n        /* \"#utility.yul\":938:945   */\n      0x00\n        /* \"#utility.yul\":967:991   */\n      tag_333\n        /* \"#utility.yul\":985:990   */\n      dup3\n        /* \"#utility.yul\":967:991   */\n      tag_282\n      jump\t// in\n    tag_333:\n        /* \"#utility.yul\":956:991   */\n      swap1\n      pop\n        /* \"#utility.yul\":901:997   */\n      swap2\n      swap1\n      pop\n      jump\t// out\n        /* \"#utility.yul\":1003:1125   */\n    tag_284:\n        /* \"#utility.yul\":1076:1100   */\n      tag_335\n        /* \"#utility.yul\":1094:1099   */\n      dup2\n        /* \"#utility.yul\":1076:1100   */\n      tag_283\n      jump\t// in\n    tag_335:\n        /* \"#utility.yul\":1069:1074   */\n      dup2\n        /* \"#utility.yul\":1066:1101   */\n      eq\n        /* \"#utility.yul\":1056:1119   */\n      tag_336\n      jumpi\n        /* \"#utility.yul\":1115:1116   */\n      0x00\n        /* \"#utility.yul\":1112:1113   */\n      0x00\n        /* \"#utility.yul\":1105:1117   */\n      revert\n        /* \"#utility.yul\":1056:1119   */\n    tag_336:\n        /* \"#utility.yul\":1003:1125   */\n      pop\n      jump\t// out\n        /* \"#utility.yul\":1131:1270   */\n    tag_285:\n        /* \"#utility.yul\":1177:1182   */\n      0x00\n        /* \"#utility.yul\":1215:1221   */\n      dup2\n        /* \"#utility.yul\":1202:1222   */\n      calldataload\n        /* \"#utility.yul\":1193:1222   */\n      swap1\n      pop\n        /* \"#utility.yul\":1231:1264   */\n      tag_338\n        /* \"#utility.yul\":1258:1263   */\n      dup2\n        /* \"#utility.yul\":1231:1264   */\n      tag_284\n      jump\t// in\n    tag_338:\n        /* \"#utility.yul\":1131:1270   */\n      swap3\n      swap2\n      pop\n      pop\n      jump\t// out\n        /* \"#utility.yul\":1276:1605   */\n    tag_33:\n        /* \"#utility.yul\":1335:1341   */\n      0x00\n        /* \"#utility.yul\":1384:1386   */\n      0x20\n        /* \"#utility.yul\":1372:1381   */\n      dup3\n        /* \"#utility.yul\":1363:1370   */\n      dup5\n        /* \"#utility.yul\":1359:1382   */\n      sub\n        /* \"#utility.yul\":1355:1387   */\n      slt\n        /* \"#utility.yul\":1352:1471   */\n      iszero\n      tag_340\n      jumpi\n        /* \"#utility.yul\":1390:1469   */\n      tag_341\n      tag_280\n      jump\t// in\n    tag_341:\n        /* \"#utility.yul\":1352:1471   */\n    tag_340:\n        /* \"#utility.yul\":1510:1511   */\n      0x00\n        /* \"#utility.yul\":1535:1588   */\n      tag_342\n        /* \"#utility.yul\":1580:1587   */\n      dup5\n        /* \"#utility.yul\":1571:1577   */\n      dup3\n        /* \"#utility.yul\":1560:1569   */\n      dup6\n        /* \"#utility.yul\":1556:1578   */\n      add\n        /* \"#utility.yul\":1535:1588   */\n      tag_285\n      jump\t// in\n    tag_342:\n        /* \"#utility.yul\":1525:1588   */\n      swap2\n      pop\n        /* \"#utility.yul\":1481:1598   */\n      pop\n        /* \"#utility.yul\":1276:1605   */\n      swap3\n      swap2\n      pop\n      pop\n      jump\t// out\n        /* \"#utility.yul\":1611:1701   */\n    tag_286:\n        /* \"#utility.yul\":1645:1652   */\n      0x00\n        /* \"#utility.yul\":1688:1693   */\n      dup2\n        /* \"#utility.yul\":1681:1694   */\n      iszero\n        /* \"#utility.yul\":1674:1695   */\n      iszero\n        /* \"#utility.yul\":1663:1695   */\n      swap1\n      pop\n        /* \"#utility.yul\":1611:1701   */\n      swap2\n      swap1\n      pop\n      jump\t// out\n        /* \"#utility.yul\":1707:1816   */\n    tag_287:\n        /* \"#utility.yul\":1788:1809   */\n      tag_345\n        /* \"#utility.yul\":1803:1808   */\n      dup2\n        /* \"#utility.yul\":1788:1809   */\n      tag_286\n      jump\t// in\n    tag_345:\n        /* \"#utility.yul\":1783:1786   */\n      dup3\n        /* \"#utility.yul\":1776:1810   */\n      mstore\n        /* \"#utility.yul\":1707:1816   */\n      pop\n      pop\n      jump\t// out\n        /* \"#utility.yul\":1822:2032   */\n    tag_46:\n        /* \"#utility.yul\":1909:1913   */\n      0x00\n        /* \"#utility.yul\":1947:1949   */\n      0x20\n        /* \"#utility.yul\":1936:1945   */\n      dup3\n        /* \"#utility.yul\":1932:1950   */\n      add\n        /* \"#utility.yul\":1924:1950   */\n      swap1\n      pop\n        /* \"#utility.yul\":1960:2025   */\n      tag_347\n        /* \"#utility.yul\":2022:2023   */\n      0x00\n        /* \"#utility.yul\":2011:2020   */\n      dup4\n        /* \"#utility.yul\":2007:2024   */\n      add\n        /* \"#utility.yul\":1998:2004   */\n      dup5\n        /* \"#utility.yul\":1960:2025   */\n      tag_287\n      jump\t// in\n    tag_347:\n        /* \"#utility.yul\":1822:2032   */\n      swap3\n      swap2\n      pop\n      pop\n      jump\t// out\n        /* \"#utility.yul\":2038:2156   */\n    tag_288:\n        /* \"#utility.yul\":2125:2149   */\n      tag_349\n        /* \"#utility.yul\":2143:2148   */\n      dup2\n        /* \"#utility.yul\":2125:2149   */\n      tag_283\n      jump\t// in\n    tag_349:\n        /* \"#utility.yul\":2120:2123   */\n      dup3\n        /* \"#utility.yul\":2113:2150   */\n      mstore\n        /* \"#utility.yul\":2038:2156   */\n      pop\n      pop\n      jump\t// out\n        /* \"#utility.yul\":2162:2384   */\n    tag_61:\n        /* \"#utility.yul\":2255:2259   */\n      0x00\n        /* \"#utility.yul\":2293:2295   */\n      0x20\n        /* \"#utility.yul\":2282:2291   */\n      dup3\n        /* \"#utility.yul\":2278:2296   */\n      add\n        /* \"#utility.yul\":2270:2296   */\n      swap1\n      pop\n        /* \"#utility.yul\":2306:2377   */\n      tag_351\n        /* \"#utility.yul\":2374:2375   */\n      0x00\n        /* \"#utility.yul\":2363:2372   */\n      dup4\n        /* \"#utility.yul\":2359:2376   */\n      add\n        /* \"#utility.yul\":2350:2356   */\n      dup5\n        /* \"#utility.yul\":2306:2377   */\n      tag_288\n      jump\t// in\n    tag_351:\n        /* \"#utility.yul\":2162:2384   */\n      swap3\n      swap2\n      pop\n      pop\n      jump\t// out\n        /* \"#utility.yul\":2390:2512   */\n    tag_289:\n        /* \"#utility.yul\":2463:2487   */\n      tag_353\n        /* \"#utility.yul\":2481:2486   */\n      dup2\n        /* \"#utility.yul\":2463:2487   */\n      tag_277\n      jump\t// in\n    tag_353:\n        /* \"#utility.yul\":2456:2461   */\n      dup2\n        /* \"#utility.yul\":2453:2488   */\n      eq\n        /* \"#utility.yul\":2443:2506   */\n      tag_354\n      jumpi\n        /* \"#utility.yul\":2502:2503   */\n      0x00\n        /* \"#utility.yul\":2499:2500   */\n      0x00\n        /* \"#utility.yul\":2492:2504   */\n      revert\n        /* \"#utility.yul\":2443:2506   */\n    tag_354:\n        /* \"#utility.yul\":2390:2512   */\n      pop\n      jump\t// out\n        /* \"#utility.yul\":2518:2657   */\n    tag_290:\n        /* \"#utility.yul\":2564:2569   */\n      0x00\n        /* \"#utility.yul\":2602:2608   */\n      dup2\n        /* \"#utility.yul\":2589:2609   */\n      calldataload\n        /* \"#utility.yul\":2580:2609   */\n      swap1\n      pop\n        /* \"#utility.yul\":2618:2651   */\n      tag_356\n        /* \"#utility.yul\":2645:2650   */\n      dup2\n        /* \"#utility.yul\":2618:2651   */\n      tag_289\n      jump\t// in\n    tag_356:\n        /* \"#utility.yul\":2518:2657   */\n      swap3\n      swap2\n      pop\n      pop\n      jump\t// out\n        /* \"#utility.yul\":2663:2992   */\n    tag_64:\n        /* \"#utility.yul\":2722:2728   */\n      0x00\n        /* \"#utility.yul\":2771:2773   */\n      0x20\n        /* \"#utility.yul\":2759:2768   */\n      dup3\n        /* \"#utility.yul\":2750:2757   */\n      dup5\n        /* \"#utility.yul\":2746:2769   */\n      sub\n        /* \"#utility.yul\":2742:2774   */\n      slt\n        /* \"#utility.yul\":2739:2858   */\n      iszero\n      tag_358\n      jumpi\n        /* \"#utility.yul\":2777:2856   */\n      tag_359\n      tag_280\n      jump\t// in\n    tag_359:\n        /* \"#utility.yul\":2739:2858   */\n    tag_358:\n        /* \"#utility.yul\":2897:2898   */\n      0x00\n        /* \"#utility.yul\":2922:2975   */\n      tag_360\n        /* \"#utility.yul\":2967:2974   */\n      dup5\n        /* \"#utility.yul\":2958:2964   */\n      dup3\n        /* \"#utility.yul\":2947:2956   */\n      dup6\n        /* \"#utility.yul\":2943:2965   */\n      add\n        /* \"#utility.yul\":2922:2975   */\n      tag_290\n      jump\t// in\n    tag_360:\n        /* \"#utility.yul\":2912:2975   */\n      swap2\n      pop\n        /* \"#utility.yul\":2868:2985   */\n      pop\n        /* \"#utility.yul\":2663:2992   */\n      swap3\n      swap2\n      pop\n      pop\n      jump\t// out\n        /* \"#utility.yul\":2998:3058   */\n    tag_291:\n        /* \"#utility.yul\":3026:3029   */\n      0x00\n        /* \"#utility.yul\":3047:3052   */\n      dup2\n        /* \"#utility.yul\":3040:3052   */\n      swap1\n      pop\n        /* \"#utility.yul\":2998:3058   */\n      swap2\n      swap1\n      pop\n      jump\t// out\n        /* \"#utility.yul\":3064:3206   */\n    tag_292:\n        /* \"#utility.yul\":3114:3123   */\n      0x00\n        /* \"#utility.yul\":3147:3200   */\n      tag_363\n        /* \"#utility.yul\":3165:3199   */\n      tag_364\n        /* \"#utility.yul\":3174:3198   */\n      tag_365\n        /* \"#utility.yul\":3192:3197   */\n      dup5\n        /* \"#utility.yul\":3174:3198   */\n      tag_282\n      jump\t// in\n    tag_365:\n        /* \"#utility.yul\":3165:3199   */\n      tag_291\n      jump\t// in\n    tag_364:\n        /* \"#utility.yul\":3147:3200   */\n      tag_282\n      jump\t// in\n    tag_363:\n        /* \"#utility.yul\":3134:3200   */\n      swap1\n      pop\n        /* \"#utility.yul\":3064:3206   */\n      swap2\n      swap1\n      pop\n      jump\t// out\n        /* \"#utility.yul\":3212:3338   */\n    tag_293:\n        /* \"#utility.yul\":3262:3271   */\n      0x00\n        /* \"#utility.yul\":3295:3332   */\n      tag_367\n        /* \"#utility.yul\":3326:3331   */\n      dup3\n        /* \"#utility.yul\":3295:3332   */\n      tag_292\n      jump\t// in\n    tag_367:\n        /* \"#utility.yul\":3282:3332   */\n      swap1\n      pop\n        /* \"#utility.yul\":3212:3338   */\n      swap2\n      swap1\n      pop\n      jump\t// out\n        /* \"#utility.yul\":3344:3484   */\n    tag_294:\n        /* \"#utility.yul\":3408:3417   */\n      0x00\n        /* \"#utility.yul\":3441:3478   */\n      tag_369\n        /* \"#utility.yul\":3472:3477   */\n      dup3\n        /* \"#utility.yul\":3441:3478   */\n      tag_293\n      jump\t// in\n    tag_369:\n        /* \"#utility.yul\":3428:3478   */\n      swap1\n      pop\n        /* \"#utility.yul\":3344:3484   */\n      swap2\n      swap1\n      pop\n      jump\t// out\n        /* \"#utility.yul\":3490:3649   */\n    tag_295:\n        /* \"#utility.yul\":3591:3642   */\n      tag_371\n        /* \"#utility.yul\":3636:3641   */\n      dup2\n        /* \"#utility.yul\":3591:3642   */\n      tag_294\n      jump\t// in\n    tag_371:\n        /* \"#utility.yul\":3586:3589   */\n      dup3\n        /* \"#utility.yul\":3579:3643   */\n      mstore\n        /* \"#utility.yul\":3490:3649   */\n      pop\n      pop\n      jump\t// out\n        /* \"#utility.yul\":3655:3905   */\n    tag_76:\n        /* \"#utility.yul\":3762:3766   */\n      0x00\n        /* \"#utility.yul\":3800:3802   */\n      0x20\n        /* \"#utility.yul\":3789:3798   */\n      dup3\n        /* \"#utility.yul\":3785:3803   */\n      add\n        /* \"#utility.yul\":3777:3803   */\n      swap1\n      pop\n        /* \"#utility.yul\":3813:3898   */\n      tag_373\n        /* \"#utility.yul\":3895:3896   */\n      0x00\n        /* \"#utility.yul\":3884:3893   */\n      dup4\n        /* \"#utility.yul\":3880:3897   */\n      add\n        /* \"#utility.yul\":3871:3877   */\n      dup5\n        /* \"#utility.yul\":3813:3898   */\n      tag_295\n      jump\t// in\n    tag_373:\n        /* \"#utility.yul\":3655:3905   */\n      swap3\n      swap2\n      pop\n      pop\n      jump\t// out\n        /* \"#utility.yul\":3911:4050   */\n    tag_296:\n        /* \"#utility.yul\":3974:3983   */\n      0x00\n        /* \"#utility.yul\":4007:4044   */\n      tag_375\n        /* \"#utility.yul\":4038:4043   */\n      dup3\n        /* \"#utility.yul\":4007:4044   */\n      tag_293\n      jump\t// in\n    tag_375:\n        /* \"#utility.yul\":3994:4044   */\n      swap1\n      pop\n        /* \"#utility.yul\":3911:4050   */\n      swap2\n      swap1\n      pop\n      jump\t// out\n        /* \"#utility.yul\":4056:4213   */\n    tag_297:\n        /* \"#utility.yul\":4156:4206   */\n      tag_377\n        /* \"#utility.yul\":4200:4205   */\n      dup2\n        /* \"#utility.yul\":4156:4206   */\n      tag_296\n      jump\t// in\n    tag_377:\n        /* \"#utility.yul\":4151:4154   */\n      dup3\n        /* \"#utility.yul\":4144:4207   */\n      mstore\n        /* \"#utility.yul\":4056:4213   */\n      pop\n      pop\n      jump\t// out\n        /* \"#utility.yul\":4219:4467   */\n    tag_96:\n        /* \"#utility.yul\":4325:4329   */\n      0x00\n        /* \"#utility.yul\":4363:4365   */\n      0x20\n        /* \"#utility.yul\":4352:4361   */\n      dup3\n        /* \"#utility.yul\":4348:4366   */\n      add\n        /* \"#utility.yul\":4340:4366   */\n      swap1\n      pop\n        /* \"#utility.yul\":4376:4460   */\n      tag_379\n        /* \"#utility.yul\":4457:4458   */\n      0x00\n        /* \"#utility.yul\":4446:4455   */\n      dup4\n        /* \"#utility.yul\":4442:4459   */\n      add\n        /* \"#utility.yul\":4433:4439   */\n      dup5\n        /* \"#utility.yul\":4376:4460   */\n      tag_297\n      jump\t// in\n    tag_379:\n        /* \"#utility.yul\":4219:4467   */\n      swap3\n      swap2\n      pop\n      pop\n      jump\t// out\n        /* \"#utility.yul\":4473:4642   */\n    tag_298:\n        /* \"#utility.yul\":4557:4568   */\n      0x00\n        /* \"#utility.yul\":4591:4597   */\n      dup3\n        /* \"#utility.yul\":4586:4589   */\n      dup3\n        /* \"#utility.yul\":4579:4598   */\n      mstore\n        /* \"#utility.yul\":4631:4635   */\n      0x20\n        /* \"#utility.yul\":4626:4629   */\n      dup3\n        /* \"#utility.yul\":4622:4636   */\n      add\n        /* \"#utility.yul\":4607:4636   */\n      swap1\n      pop\n        /* \"#utility.yul\":4473:4642   */\n      swap3\n      swap2\n      pop\n      pop\n      jump\t// out\n        /* \"#utility.yul\":4648:4808   */\n    tag_299:\n        /* \"#utility.yul\":4788:4800   */\n      0x4e6f2062696e64696e6700000000000000000000000000000000000000000000\n        /* \"#utility.yul\":4784:4785   */\n      0x00\n        /* \"#utility.yul\":4776:4782   */\n      dup3\n        /* \"#utility.yul\":4772:4786   */\n      add\n        /* \"#utility.yul\":4765:4801   */\n      mstore\n        /* \"#utility.yul\":4648:4808   */\n      pop\n      jump\t// out\n        /* \"#utility.yul\":4814:5180   */\n    tag_300:\n        /* \"#utility.yul\":4956:4959   */\n      0x00\n        /* \"#utility.yul\":4977:5044   */\n      tag_383\n        /* \"#utility.yul\":5041:5043   */\n      0x0a\n        /* \"#utility.yul\":5036:5039   */\n      dup4\n        /* \"#utility.yul\":4977:5044   */\n      tag_298\n      jump\t// in\n    tag_383:\n        /* \"#utility.yul\":4970:5044   */\n      swap2\n      pop\n        /* \"#utility.yul\":5053:5146   */\n      tag_384\n        /* \"#utility.yul\":5142:5145   */\n      dup3\n        /* \"#utility.yul\":5053:5146   */\n      tag_299\n      jump\t// in\n    tag_384:\n        /* \"#utility.yul\":5171:5173   */\n      0x20\n        /* \"#utility.yul\":5166:5169   */\n      dup3\n        /* \"#utility.yul\":5162:5174   */\n      add\n        /* \"#utility.yul\":5155:5174   */\n      swap1\n      pop\n        /* \"#utility.yul\":4814:5180   */\n      swap2\n      swap1\n      pop\n      jump\t// out\n        /* \"#utility.yul\":5186:5605   */\n    tag_104:\n        /* \"#utility.yul\":5352:5356   */\n      0x00\n        /* \"#utility.yul\":5390:5392   */\n      0x20\n        /* \"#utility.yul\":5379:5388   */\n      dup3\n        /* \"#utility.yul\":5375:5393   */\n      add\n        /* \"#utility.yul\":5367:5393   */\n      swap1\n      pop\n        /* \"#utility.yul\":5439:5448   */\n      dup2\n        /* \"#utility.yul\":5433:5437   */\n      dup2\n        /* \"#utility.yul\":5429:5449   */\n      sub\n        /* \"#utility.yul\":5425:5426   */\n      0x00\n        /* \"#utility.yul\":5414:5423   */\n      dup4\n        /* \"#utility.yul\":5410:5427   */\n      add\n        /* \"#utility.yul\":5403:5450   */\n      mstore\n        /* \"#utility.yul\":5467:5598   */\n      tag_386\n        /* \"#utility.yul\":5593:5597   */\n      dup2\n        /* \"#utility.yul\":5467:5598   */\n      tag_300\n      jump\t// in\n    tag_386:\n        /* \"#utility.yul\":5459:5598   */\n      swap1\n      pop\n        /* \"#utility.yul\":5186:5605   */\n      swap2\n      swap1\n      pop\n      jump\t// out\n        /* \"#utility.yul\":5611:5777   */\n    tag_301:\n        /* \"#utility.yul\":5751:5769   */\n      0x4e6f206c6f636b656420746f6b656e7300000000000000000000000000000000\n        /* \"#utility.yul\":5747:5748   */\n      0x00\n        /* \"#utility.yul\":5739:5745   */\n      dup3\n        /* \"#utility.yul\":5735:5749   */\n      add\n        /* \"#utility.yul\":5728:5770   */\n      mstore\n        /* \"#utility.yul\":5611:5777   */\n      pop\n      jump\t// out\n        /* \"#utility.yul\":5783:6149   */\n    tag_302:\n        /* \"#utility.yul\":5925:5928   */\n      0x00\n        /* \"#utility.yul\":5946:6013   */\n      tag_389\n        /* \"#utility.yul\":6010:6012   */\n      0x10\n        /* \"#utility.yul\":6005:6008   */\n      dup4\n        /* \"#utility.yul\":5946:6013   */\n      tag_298\n      jump\t// in\n    tag_389:\n        /* \"#utility.yul\":5939:6013   */\n      swap2\n      pop\n        /* \"#utility.yul\":6022:6115   */\n      tag_390\n        /* \"#utility.yul\":6111:6114   */\n      dup3\n        /* \"#utility.yul\":6022:6115   */\n      tag_301\n      jump\t// in\n    tag_390:\n        /* \"#utility.yul\":6140:6142   */\n      0x20\n        /* \"#utility.yul\":6135:6138   */\n      dup3\n        /* \"#utility.yul\":6131:6143   */\n      add\n        /* \"#utility.yul\":6124:6143   */\n      swap1\n      pop\n        /* \"#utility.yul\":5783:6149   */\n      swap2\n      swap1\n      pop\n      jump\t// out\n        /* \"#utility.yul\":6155:6574   */\n    tag_107:\n        /* \"#utility.yul\":6321:6325   */\n      0x00\n        /* \"#utility.yul\":6359:6361   */\n      0x20\n        /* \"#utility.yul\":6348:6357   */\n      dup3\n        /* \"#utility.yul\":6344:6362   */\n      add\n        /* \"#utility.yul\":6336:6362   */\n      swap1\n      pop\n        /* \"#utility.yul\":6408:6417   */\n      dup2\n        /* \"#utility.yul\":6402:6406   */\n      dup2\n        /* \"#utility.yul\":6398:6418   */\n      sub\n        /* \"#utility.yul\":6394:6395   */\n      0x00\n        /* \"#utility.yul\":6383:6392   */\n      dup4\n        /* \"#utility.yul\":6379:6396   */\n      add\n        /* \"#utility.yul\":6372:6419   */\n      mstore\n        /* \"#utility.yul\":6436:6567   */\n      tag_392\n        /* \"#utility.yul\":6562:6566   */\n      dup2\n        /* \"#utility.yul\":6436:6567   */\n      tag_302\n      jump\t// in\n    tag_392:\n        /* \"#utility.yul\":6428:6567   */\n      swap1\n      pop\n        /* \"#utility.yul\":6155:6574   */\n      swap2\n      swap1\n      pop\n      jump\t// out\n        /* \"#utility.yul\":6580:6760   */\n    tag_113:\n        /* \"#utility.yul\":6628:6705   */\n      0x4e487b7100000000000000000000000000000000000000000000000000000000\n        /* \"#utility.yul\":6625:6626   */\n      0x00\n        /* \"#utility.yul\":6618:6706   */\n      mstore\n        /* \"#utility.yul\":6725:6729   */\n      0x32\n        /* \"#utility.yul\":6722:6723   */\n      0x04\n        /* \"#utility.yul\":6715:6730   */\n      mstore\n        /* \"#utility.yul\":6749:6753   */\n      0x24\n        /* \"#utility.yul\":6746:6747   */\n      0x00\n        /* \"#utility.yul\":6739:6754   */\n      revert\n        /* \"#utility.yul\":6766:6946   */\n    tag_303:\n        /* \"#utility.yul\":6814:6891   */\n      0x4e487b7100000000000000000000000000000000000000000000000000000000\n        /* \"#utility.yul\":6811:6812   */\n      0x00\n        /* \"#utility.yul\":6804:6892   */\n      mstore\n        /* \"#utility.yul\":6911:6915   */\n      0x11\n        /* \"#utility.yul\":6908:6909   */\n      0x04\n        /* \"#utility.yul\":6901:6916   */\n      mstore\n        /* \"#utility.yul\":6935:6939   */\n      0x24\n        /* \"#utility.yul\":6932:6933   */\n      0x00\n        /* \"#utility.yul\":6925:6940   */\n      revert\n        /* \"#utility.yul\":6952:7146   */\n    tag_120:\n        /* \"#utility.yul\":6992:6996   */\n      0x00\n        /* \"#utility.yul\":7012:7032   */\n      tag_396\n        /* \"#utility.yul\":7030:7031   */\n      dup3\n        /* \"#utility.yul\":7012:7032   */\n      tag_277\n      jump\t// in\n    tag_396:\n        /* \"#utility.yul\":7007:7032   */\n      swap2\n      pop\n        /* \"#utility.yul\":7046:7066   */\n      tag_397\n        /* \"#utility.yul\":7064:7065   */\n      dup4\n        /* \"#utility.yul\":7046:7066   */\n      tag_277\n      jump\t// in\n    tag_397:\n        /* \"#utility.yul\":7041:7066   */\n      swap3\n      pop\n        /* \"#utility.yul\":7090:7091   */\n      dup3\n        /* \"#utility.yul\":7087:7088   */\n      dup3\n        /* \"#utility.yul\":7083:7092   */\n      sub\n        /* \"#utility.yul\":7075:7092   */\n      swap1\n      pop\n        /* \"#utility.yul\":7114:7115   */\n      dup2\n        /* \"#utility.yul\":7108:7112   */\n      dup2\n        /* \"#utility.yul\":7105:7116   */\n      gt\n        /* \"#utility.yul\":7102:7139   */\n      iszero\n      tag_398\n      jumpi\n        /* \"#utility.yul\":7119:7137   */\n      tag_399\n      tag_303\n      jump\t// in\n    tag_399:\n        /* \"#utility.yul\":7102:7139   */\n    tag_398:\n        /* \"#utility.yul\":6952:7146   */\n      swap3\n      swap2\n      pop\n      pop\n      jump\t// out\n        /* \"#utility.yul\":7152:7343   */\n    tag_129:\n        /* \"#utility.yul\":7192:7195   */\n      0x00\n        /* \"#utility.yul\":7211:7231   */\n      tag_401\n        /* \"#utility.yul\":7229:7230   */\n      dup3\n        /* \"#utility.yul\":7211:7231   */\n      tag_277\n      jump\t// in\n    tag_401:\n        /* \"#utility.yul\":7206:7231   */\n      swap2\n      pop\n        /* \"#utility.yul\":7245:7265   */\n      tag_402\n        /* \"#utility.yul\":7263:7264   */\n      dup4\n        /* \"#utility.yul\":7245:7265   */\n      tag_277\n      jump\t// in\n    tag_402:\n        /* \"#utility.yul\":7240:7265   */\n      swap3\n      pop\n        /* \"#utility.yul\":7288:7289   */\n      dup3\n        /* \"#utility.yul\":7285:7286   */\n      dup3\n        /* \"#utility.yul\":7281:7290   */\n      add\n        /* \"#utility.yul\":7274:7290   */\n      swap1\n      pop\n        /* \"#utility.yul\":7309:7312   */\n      dup1\n        /* \"#utility.yul\":7306:7307   */\n      dup3\n        /* \"#utility.yul\":7303:7313   */\n      gt\n        /* \"#utility.yul\":7300:7336   */\n      iszero\n      tag_403\n      jumpi\n        /* \"#utility.yul\":7316:7334   */\n      tag_404\n      tag_303\n      jump\t// in\n    tag_404:\n        /* \"#utility.yul\":7300:7336   */\n    tag_403:\n        /* \"#utility.yul\":7152:7343   */\n      swap3\n      swap2\n      pop\n      pop\n      jump\t// out\n        /* \"#utility.yul\":7349:7569   */\n    tag_304:\n        /* \"#utility.yul\":7489:7523   */\n      0x4e6f74207965742072656163686564206e65787420756e6c6f636b20706f696e\n        /* \"#utility.yul\":7485:7486   */\n      0x00\n        /* \"#utility.yul\":7477:7483   */\n      dup3\n        /* \"#utility.yul\":7473:7487   */\n      add\n        /* \"#utility.yul\":7466:7524   */\n      mstore\n        /* \"#utility.yul\":7558:7561   */\n      0x7400000000000000000000000000000000000000000000000000000000000000\n        /* \"#utility.yul\":7553:7555   */\n      0x20\n        /* \"#utility.yul\":7545:7551   */\n      dup3\n        /* \"#utility.yul\":7541:7556   */\n      add\n        /* \"#utility.yul\":7534:7562   */\n      mstore\n        /* \"#utility.yul\":7349:7569   */\n      pop\n      jump\t// out\n        /* \"#utility.yul\":7575:7941   */\n    tag_305:\n        /* \"#utility.yul\":7717:7720   */\n      0x00\n        /* \"#utility.yul\":7738:7805   */\n      tag_407\n        /* \"#utility.yul\":7802:7804   */\n      0x21\n        /* \"#utility.yul\":7797:7800   */\n      dup4\n        /* \"#utility.yul\":7738:7805   */\n      tag_298\n      jump\t// in\n    tag_407:\n        /* \"#utility.yul\":7731:7805   */\n      swap2\n      pop\n        /* \"#utility.yul\":7814:7907   */\n      tag_408\n        /* \"#utility.yul\":7903:7906   */\n      dup3\n        /* \"#utility.yul\":7814:7907   */\n      tag_304\n      jump\t// in\n    tag_408:\n        /* \"#utility.yul\":7932:7934   */\n      0x40\n        /* \"#utility.yul\":7927:7930   */\n      dup3\n        /* \"#utility.yul\":7923:7935   */\n      add\n        /* \"#utility.yul\":7916:7935   */\n      swap1\n      pop\n        /* \"#utility.yul\":7575:7941   */\n      swap2\n      swap1\n      pop\n      jump\t// out\n        /* \"#utility.yul\":7947:8366   */\n    tag_138:\n        /* \"#utility.yul\":8113:8117   */\n      0x00\n        /* \"#utility.yul\":8151:8153   */\n      0x20\n        /* \"#utility.yul\":8140:8149   */\n      dup3\n        /* \"#utility.yul\":8136:8154   */\n      add\n        /* \"#utility.yul\":8128:8154   */\n      swap1\n      pop\n        /* \"#utility.yul\":8200:8209   */\n      dup2\n        /* \"#utility.yul\":8194:8198   */\n      dup2\n        /* \"#utility.yul\":8190:8210   */\n      sub\n        /* \"#utility.yul\":8186:8187   */\n      0x00\n        /* \"#utility.yul\":8175:8184   */\n      dup4\n        /* \"#utility.yul\":8171:8188   */\n      add\n        /* \"#utility.yul\":8164:8211   */\n      mstore\n        /* \"#utility.yul\":8228:8359   */\n      tag_410\n        /* \"#utility.yul\":8354:8358   */\n      dup2\n        /* \"#utility.yul\":8228:8359   */\n      tag_305\n      jump\t// in\n    tag_410:\n        /* \"#utility.yul\":8220:8359   */\n      swap1\n      pop\n        /* \"#utility.yul\":7947:8366   */\n      swap2\n      swap1\n      pop\n      jump\t// out\n        /* \"#utility.yul\":8372:8552   */\n    tag_306:\n        /* \"#utility.yul\":8420:8497   */\n      0x4e487b7100000000000000000000000000000000000000000000000000000000\n        /* \"#utility.yul\":8417:8418   */\n      0x00\n        /* \"#utility.yul\":8410:8498   */\n      mstore\n        /* \"#utility.yul\":8517:8521   */\n      0x12\n        /* \"#utility.yul\":8514:8515   */\n      0x04\n        /* \"#utility.yul\":8507:8522   */\n      mstore\n        /* \"#utility.yul\":8541:8545   */\n      0x24\n        /* \"#utility.yul\":8538:8539   */\n      0x00\n        /* \"#utility.yul\":8531:8546   */\n      revert\n        /* \"#utility.yul\":8558:8743   */\n    tag_140:\n        /* \"#utility.yul\":8598:8599   */\n      0x00\n        /* \"#utility.yul\":8615:8635   */\n      tag_413\n        /* \"#utility.yul\":8633:8634   */\n      dup3\n        /* \"#utility.yul\":8615:8635   */\n      tag_277\n      jump\t// in\n    tag_413:\n        /* \"#utility.yul\":8610:8635   */\n      swap2\n      pop\n        /* \"#utility.yul\":8649:8669   */\n      tag_414\n        /* \"#utility.yul\":8667:8668   */\n      dup4\n        /* \"#utility.yul\":8649:8669   */\n      tag_277\n      jump\t// in\n    tag_414:\n        /* \"#utility.yul\":8644:8669   */\n      swap3\n      pop\n        /* \"#utility.yul\":8688:8689   */\n      dup3\n        /* \"#utility.yul\":8678:8713   */\n      tag_415\n      jumpi\n        /* \"#utility.yul\":8693:8711   */\n      tag_416\n      tag_306\n      jump\t// in\n    tag_416:\n        /* \"#utility.yul\":8678:8713   */\n    tag_415:\n        /* \"#utility.yul\":8735:8736   */\n      dup3\n        /* \"#utility.yul\":8732:8733   */\n      dup3\n        /* \"#utility.yul\":8728:8737   */\n      div\n        /* \"#utility.yul\":8723:8737   */\n      swap1\n      pop\n        /* \"#utility.yul\":8558:8743   */\n      swap3\n      swap2\n      pop\n      pop\n      jump\t// out\n        /* \"#utility.yul\":8749:9159   */\n    tag_142:\n        /* \"#utility.yul\":8789:8796   */\n      0x00\n        /* \"#utility.yul\":8812:8832   */\n      tag_418\n        /* \"#utility.yul\":8830:8831   */\n      dup3\n        /* \"#utility.yul\":8812:8832   */\n      tag_277\n      jump\t// in\n    tag_418:\n        /* \"#utility.yul\":8807:8832   */\n      swap2\n      pop\n        /* \"#utility.yul\":8846:8866   */\n      tag_419\n        /* \"#utility.yul\":8864:8865   */\n      dup4\n        /* \"#utility.yul\":8846:8866   */\n      tag_277\n      jump\t// in\n    tag_419:\n        /* \"#utility.yul\":8841:8866   */\n      swap3\n      pop\n        /* \"#utility.yul\":8901:8902   */\n      dup3\n        /* \"#utility.yul\":8898:8899   */\n      dup3\n        /* \"#utility.yul\":8894:8903   */\n      mul\n        /* \"#utility.yul\":8923:8953   */\n      tag_420\n        /* \"#utility.yul\":8941:8952   */\n      dup2\n        /* \"#utility.yul\":8923:8953   */\n      tag_277\n      jump\t// in\n    tag_420:\n        /* \"#utility.yul\":8912:8953   */\n      swap2\n      pop\n        /* \"#utility.yul\":9102:9103   */\n      dup3\n        /* \"#utility.yul\":9093:9100   */\n      dup3\n        /* \"#utility.yul\":9089:9104   */\n      div\n        /* \"#utility.yul\":9086:9087   */\n      dup5\n        /* \"#utility.yul\":9083:9105   */\n      eq\n        /* \"#utility.yul\":9063:9064   */\n      dup4\n        /* \"#utility.yul\":9056:9065   */\n      iszero\n        /* \"#utility.yul\":9036:9119   */\n      or\n        /* \"#utility.yul\":9013:9152   */\n      tag_421\n      jumpi\n        /* \"#utility.yul\":9132:9150   */\n      tag_422\n      tag_303\n      jump\t// in\n    tag_422:\n        /* \"#utility.yul\":9013:9152   */\n    tag_421:\n        /* \"#utility.yul\":8797:9159   */\n      pop\n        /* \"#utility.yul\":8749:9159   */\n      swap3\n      swap2\n      pop\n      pop\n      jump\t// out\n        /* \"#utility.yul\":9165:9337   */\n    tag_307:\n        /* \"#utility.yul\":9305:9329   */\n      0x4e6f20756e6c6f636b656420746f6b656e732079657400000000000000000000\n        /* \"#utility.yul\":9301:9302   */\n      0x00\n        /* \"#utility.yul\":9293:9299   */\n      dup3\n        /* \"#utility.yul\":9289:9303   */\n      add\n        /* \"#utility.yul\":9282:9330   */\n      mstore\n        /* \"#utility.yul\":9165:9337   */\n      pop\n      jump\t// out\n        /* \"#utility.yul\":9343:9709   */\n    tag_308:\n        /* \"#utility.yul\":9485:9488   */\n      0x00\n        /* \"#utility.yul\":9506:9573   */\n      tag_425\n        /* \"#utility.yul\":9570:9572   */\n      0x16\n        /* \"#utility.yul\":9565:9568   */\n      dup4\n        /* \"#utility.yul\":9506:9573   */\n      tag_298\n      jump\t// in\n    tag_425:\n        /* \"#utility.yul\":9499:9573   */\n      swap2\n      pop\n        /* \"#utility.yul\":9582:9675   */\n      tag_426\n        /* \"#utility.yul\":9671:9674   */\n      dup3\n        /* \"#utility.yul\":9582:9675   */\n      tag_307\n      jump\t// in\n    tag_426:\n        /* \"#utility.yul\":9700:9702   */\n      0x20\n        /* \"#utility.yul\":9695:9698   */\n      dup3\n        /* \"#utility.yul\":9691:9703   */\n      add\n        /* \"#utility.yul\":9684:9703   */\n      swap1\n      pop\n        /* \"#utility.yul\":9343:9709   */\n      swap2\n      swap1\n      pop\n      jump\t// out\n        /* \"#utility.yul\":9715:10134   */\n    tag_173:\n        /* \"#utility.yul\":9881:9885   */\n      0x00\n        /* \"#utility.yul\":9919:9921   */\n      0x20\n        /* \"#utility.yul\":9908:9917   */\n      dup3\n        /* \"#utility.yul\":9904:9922   */\n      add\n        /* \"#utility.yul\":9896:9922   */\n      swap1\n      pop\n        /* \"#utility.yul\":9968:9977   */\n      dup2\n        /* \"#utility.yul\":9962:9966   */\n      dup2\n        /* \"#utility.yul\":9958:9978   */\n      sub\n        /* \"#utility.yul\":9954:9955   */\n      0x00\n        /* \"#utility.yul\":9943:9952   */\n      dup4\n        /* \"#utility.yul\":9939:9956   */\n      add\n        /* \"#utility.yul\":9932:9979   */\n      mstore\n        /* \"#utility.yul\":9996:10127   */\n      tag_428\n        /* \"#utility.yul\":10122:10126   */\n      dup2\n        /* \"#utility.yul\":9996:10127   */\n      tag_308\n      jump\t// in\n    tag_428:\n        /* \"#utility.yul\":9988:10127   */\n      swap1\n      pop\n        /* \"#utility.yul\":9715:10134   */\n      swap2\n      swap1\n      pop\n      jump\t// out\n        /* \"#utility.yul\":10140:10472   */\n    tag_175:\n        /* \"#utility.yul\":10261:10265   */\n      0x00\n        /* \"#utility.yul\":10299:10301   */\n      0x40\n        /* \"#utility.yul\":10288:10297   */\n      dup3\n        /* \"#utility.yul\":10284:10302   */\n      add\n        /* \"#utility.yul\":10276:10302   */\n      swap1\n      pop\n        /* \"#utility.yul\":10312:10383   */\n      tag_430\n        /* \"#utility.yul\":10380:10381   */\n      0x00\n        /* \"#utility.yul\":10369:10378   */\n      dup4\n        /* \"#utility.yul\":10365:10382   */\n      add\n        /* \"#utility.yul\":10356:10362   */\n      dup6\n        /* \"#utility.yul\":10312:10383   */\n      tag_288\n      jump\t// in\n    tag_430:\n        /* \"#utility.yul\":10393:10465   */\n      tag_431\n        /* \"#utility.yul\":10461:10463   */\n      0x20\n        /* \"#utility.yul\":10450:10459   */\n      dup4\n        /* \"#utility.yul\":10446:10464   */\n      add\n        /* \"#utility.yul\":10437:10443   */\n      dup5\n        /* \"#utility.yul\":10393:10465   */\n      tag_278\n      jump\t// in\n    tag_431:\n        /* \"#utility.yul\":10140:10472   */\n      swap4\n      swap3\n      pop\n      pop\n      pop\n      jump\t// out\n        /* \"#utility.yul\":10478:10594   */\n    tag_309:\n        /* \"#utility.yul\":10548:10569   */\n      tag_433\n        /* \"#utility.yul\":10563:10568   */\n      dup2\n        /* \"#utility.yul\":10548:10569   */\n      tag_286\n      jump\t// in\n    tag_433:\n        /* \"#utility.yul\":10541:10546   */\n      dup2\n        /* \"#utility.yul\":10538:10570   */\n      eq\n        /* \"#utility.yul\":10528:10588   */\n      tag_434\n      jumpi\n        /* \"#utility.yul\":10584:10585   */\n      0x00\n        /* \"#utility.yul\":10581:10582   */\n      0x00\n        /* \"#utility.yul\":10574:10586   */\n      revert\n        /* \"#utility.yul\":10528:10588   */\n    tag_434:\n        /* \"#utility.yul\":10478:10594   */\n      pop\n      jump\t// out\n        /* \"#utility.yul\":10600:10737   */\n    tag_310:\n        /* \"#utility.yul\":10654:10659   */\n      0x00\n        /* \"#utility.yul\":10685:10691   */\n      dup2\n        /* \"#utility.yul\":10679:10692   */\n      mload\n        /* \"#utility.yul\":10670:10692   */\n      swap1\n      pop\n        /* \"#utility.yul\":10701:10731   */\n      tag_436\n        /* \"#utility.yul\":10725:10730   */\n      dup2\n        /* \"#utility.yul\":10701:10731   */\n      tag_309\n      jump\t// in\n    tag_436:\n        /* \"#utility.yul\":10600:10737   */\n      swap3\n      swap2\n      pop\n      pop\n      jump\t// out\n        /* \"#utility.yul\":10743:11088   */\n    tag_179:\n        /* \"#utility.yul\":10810:10816   */\n      0x00\n        /* \"#utility.yul\":10859:10861   */\n      0x20\n        /* \"#utility.yul\":10847:10856   */\n      dup3\n        /* \"#utility.yul\":10838:10845   */\n      dup5\n        /* \"#utility.yul\":10834:10857   */\n      sub\n        /* \"#utility.yul\":10830:10862   */\n      slt\n        /* \"#utility.yul\":10827:10946   */\n      iszero\n      tag_438\n      jumpi\n        /* \"#utility.yul\":10865:10944   */\n      tag_439\n      tag_280\n      jump\t// in\n    tag_439:\n        /* \"#utility.yul\":10827:10946   */\n    tag_438:\n        /* \"#utility.yul\":10985:10986   */\n      0x00\n        /* \"#utility.yul\":11010:11071   */\n      tag_440\n        /* \"#utility.yul\":11063:11070   */\n      dup5\n        /* \"#utility.yul\":11054:11060   */\n      dup3\n        /* \"#utility.yul\":11043:11052   */\n      dup6\n        /* \"#utility.yul\":11039:11061   */\n      add\n        /* \"#utility.yul\":11010:11071   */\n      tag_310\n      jump\t// in\n    tag_440:\n        /* \"#utility.yul\":11000:11071   */\n      swap2\n      pop\n        /* \"#utility.yul\":10956:11081   */\n      pop\n        /* \"#utility.yul\":10743:11088   */\n      swap3\n      swap2\n      pop\n      pop\n      jump\t// out\n        /* \"#utility.yul\":11094:11259   */\n    tag_311:\n        /* \"#utility.yul\":11234:11251   */\n      0x5472616e73666572206661696c65640000000000000000000000000000000000\n        /* \"#utility.yul\":11230:11231   */\n      0x00\n        /* \"#utility.yul\":11222:11228   */\n      dup3\n        /* \"#utility.yul\":11218:11232   */\n      add\n        /* \"#utility.yul\":11211:11252   */\n      mstore\n        /* \"#utility.yul\":11094:11259   */\n      pop\n      jump\t// out\n        /* \"#utility.yul\":11265:11631   */\n    tag_312:\n        /* \"#utility.yul\":11407:11410   */\n      0x00\n        /* \"#utility.yul\":11428:11495   */\n      tag_443\n        /* \"#utility.yul\":11492:11494   */\n      0x0f\n        /* \"#utility.yul\":11487:11490   */\n      dup4\n        /* \"#utility.yul\":11428:11495   */\n      tag_298\n      jump\t// in\n    tag_443:\n        /* \"#utility.yul\":11421:11495   */\n      swap2\n      pop\n        /* \"#utility.yul\":11504:11597   */\n      tag_444\n        /* \"#utility.yul\":11593:11596   */\n      dup3\n        /* \"#utility.yul\":11504:11597   */\n      tag_311\n      jump\t// in\n    tag_444:\n        /* \"#utility.yul\":11622:11624   */\n      0x20\n        /* \"#utility.yul\":11617:11620   */\n      dup3\n        /* \"#utility.yul\":11613:11625   */\n      add\n        /* \"#utility.yul\":11606:11625   */\n      swap1\n      pop\n        /* \"#utility.yul\":11265:11631   */\n      swap2\n      swap1\n      pop\n      jump\t// out\n        /* \"#utility.yul\":11637:12056   */\n    tag_182:\n        /* \"#utility.yul\":11803:11807   */\n      0x00\n        /* \"#utility.yul\":11841:11843   */\n      0x20\n        /* \"#utility.yul\":11830:11839   */\n      dup3\n        /* \"#utility.yul\":11826:11844   */\n      add\n        /* \"#utility.yul\":11818:11844   */\n      swap1\n      pop\n        /* \"#utility.yul\":11890:11899   */\n      dup2\n        /* \"#utility.yul\":11884:11888   */\n      dup2\n        /* \"#utility.yul\":11880:11900   */\n      sub\n        /* \"#utility.yul\":11876:11877   */\n      0x00\n        /* \"#utility.yul\":11865:11874   */\n      dup4\n        /* \"#utility.yul\":11861:11878   */\n      add\n        /* \"#utility.yul\":11854:11901   */\n      mstore\n        /* \"#utility.yul\":11918:12049   */\n      tag_446\n        /* \"#utility.yul\":12044:12048   */\n      dup2\n        /* \"#utility.yul\":11918:12049   */\n      tag_312\n      jump\t// in\n    tag_446:\n        /* \"#utility.yul\":11910:12049   */\n      swap1\n      pop\n        /* \"#utility.yul\":11637:12056   */\n      swap2\n      swap1\n      pop\n      jump\t// out\n        /* \"#utility.yul\":12062:12234   */\n    tag_313:\n        /* \"#utility.yul\":12202:12226   */\n      0x446973747269627574696f6e206e6f7420726561647900000000000000000000\n        /* \"#utility.yul\":12198:12199   */\n      0x00\n        /* \"#utility.yul\":12190:12196   */\n      dup3\n        /* \"#utility.yul\":12186:12200   */\n      add\n        /* \"#utility.yul\":12179:12227   */\n      mstore\n        /* \"#utility.yul\":12062:12234   */\n      pop\n      jump\t// out\n        /* \"#utility.yul\":12240:12606   */\n    tag_314:\n        /* \"#utility.yul\":12382:12385   */\n      0x00\n        /* \"#utility.yul\":12403:12470   */\n      tag_449\n        /* \"#utility.yul\":12467:12469   */\n      0x16\n        /* \"#utility.yul\":12462:12465   */\n      dup4\n        /* \"#utility.yul\":12403:12470   */\n      tag_298\n      jump\t// in\n    tag_449:\n        /* \"#utility.yul\":12396:12470   */\n      swap2\n      pop\n        /* \"#utility.yul\":12479:12572   */\n      tag_450\n        /* \"#utility.yul\":12568:12571   */\n      dup3\n        /* \"#utility.yul\":12479:12572   */\n      tag_313\n      jump\t// in\n    tag_450:\n        /* \"#utility.yul\":12597:12599   */\n      0x20\n        /* \"#utility.yul\":12592:12595   */\n      dup3\n        /* \"#utility.yul\":12588:12600   */\n      add\n        /* \"#utility.yul\":12581:12600   */\n      swap1\n      pop\n        /* \"#utility.yul\":12240:12606   */\n      swap2\n      swap1\n      pop\n      jump\t// out\n        /* \"#utility.yul\":12612:13031   */\n    tag_211:\n        /* \"#utility.yul\":12778:12782   */\n      0x00\n        /* \"#utility.yul\":12816:12818   */\n      0x20\n        /* \"#utility.yul\":12805:12814   */\n      dup3\n        /* \"#utility.yul\":12801:12819   */\n      add\n        /* \"#utility.yul\":12793:12819   */\n      swap1\n      pop\n        /* \"#utility.yul\":12865:12874   */\n      dup2\n        /* \"#utility.yul\":12859:12863   */\n      dup2\n        /* \"#utility.yul\":12855:12875   */\n      sub\n        /* \"#utility.yul\":12851:12852   */\n      0x00\n        /* \"#utility.yul\":12840:12849   */\n      dup4\n        /* \"#utility.yul\":12836:12853   */\n      add\n        /* \"#utility.yul\":12829:12876   */\n      mstore\n        /* \"#utility.yul\":12893:13024   */\n      tag_452\n        /* \"#utility.yul\":13019:13023   */\n      dup2\n        /* \"#utility.yul\":12893:13024   */\n      tag_314\n      jump\t// in\n    tag_452:\n        /* \"#utility.yul\":12885:13024   */\n      swap1\n      pop\n        /* \"#utility.yul\":12612:13031   */\n      swap2\n      swap1\n      pop\n      jump\t// out\n        /* \"#utility.yul\":13037:13180   */\n    tag_315:\n        /* \"#utility.yul\":13094:13099   */\n      0x00\n        /* \"#utility.yul\":13125:13131   */\n      dup2\n        /* \"#utility.yul\":13119:13132   */\n      mload\n        /* \"#utility.yul\":13110:13132   */\n      swap1\n      pop\n        /* \"#utility.yul\":13141:13174   */\n      tag_454\n        /* \"#utility.yul\":13168:13173   */\n      dup2\n        /* \"#utility.yul\":13141:13174   */\n      tag_289\n      jump\t// in\n    tag_454:\n        /* \"#utility.yul\":13037:13180   */\n      swap3\n      swap2\n      pop\n      pop\n      jump\t// out\n        /* \"#utility.yul\":13186:13537   */\n    tag_222:\n        /* \"#utility.yul\":13256:13262   */\n      0x00\n        /* \"#utility.yul\":13305:13307   */\n      0x20\n        /* \"#utility.yul\":13293:13302   */\n      dup3\n        /* \"#utility.yul\":13284:13291   */\n      dup5\n        /* \"#utility.yul\":13280:13303   */\n      sub\n        /* \"#utility.yul\":13276:13308   */\n      slt\n        /* \"#utility.yul\":13273:13392   */\n      iszero\n      tag_456\n      jumpi\n        /* \"#utility.yul\":13311:13390   */\n      tag_457\n      tag_280\n      jump\t// in\n    tag_457:\n        /* \"#utility.yul\":13273:13392   */\n    tag_456:\n        /* \"#utility.yul\":13431:13432   */\n      0x00\n        /* \"#utility.yul\":13456:13520   */\n      tag_458\n        /* \"#utility.yul\":13512:13519   */\n      dup5\n        /* \"#utility.yul\":13503:13509   */\n      dup3\n        /* \"#utility.yul\":13492:13501   */\n      dup6\n        /* \"#utility.yul\":13488:13510   */\n      add\n        /* \"#utility.yul\":13456:13520   */\n      tag_315\n      jump\t// in\n    tag_458:\n        /* \"#utility.yul\":13446:13520   */\n      swap2\n      pop\n        /* \"#utility.yul\":13402:13530   */\n      pop\n        /* \"#utility.yul\":13186:13537   */\n      swap3\n      swap2\n      pop\n      pop\n      jump\t// out\n        /* \"#utility.yul\":13543:13712   */\n    tag_316:\n        /* \"#utility.yul\":13683:13704   */\n      0x4f6e6c79206f776e65722063616e2063616c6c00000000000000000000000000\n        /* \"#utility.yul\":13679:13680   */\n      0x00\n        /* \"#utility.yul\":13671:13677   */\n      dup3\n        /* \"#utility.yul\":13667:13681   */\n      add\n        /* \"#utility.yul\":13660:13705   */\n      mstore\n        /* \"#utility.yul\":13543:13712   */\n      pop\n      jump\t// out\n        /* \"#utility.yul\":13718:14084   */\n    tag_317:\n        /* \"#utility.yul\":13860:13863   */\n      0x00\n        /* \"#utility.yul\":13881:13948   */\n      tag_461\n        /* \"#utility.yul\":13945:13947   */\n      0x13\n        /* \"#utility.yul\":13940:13943   */\n      dup4\n        /* \"#utility.yul\":13881:13948   */\n      tag_298\n      jump\t// in\n    tag_461:\n        /* \"#utility.yul\":13874:13948   */\n      swap2\n      pop\n        /* \"#utility.yul\":13957:14050   */\n      tag_462\n        /* \"#utility.yul\":14046:14049   */\n      dup3\n        /* \"#utility.yul\":13957:14050   */\n      tag_316\n      jump\t// in\n    tag_462:\n        /* \"#utility.yul\":14075:14077   */\n      0x20\n        /* \"#utility.yul\":14070:14073   */\n      dup3\n        /* \"#utility.yul\":14066:14078   */\n      add\n        /* \"#utility.yul\":14059:14078   */\n      swap1\n      pop\n        /* \"#utility.yul\":13718:14084   */\n      swap2\n      swap1\n      pop\n      jump\t// out\n        /* \"#utility.yul\":14090:14509   */\n    tag_236:\n        /* \"#utility.yul\":14256:14260   */\n      0x00\n        /* \"#utility.yul\":14294:14296   */\n      0x20\n        /* \"#utility.yul\":14283:14292   */\n      dup3\n        /* \"#utility.yul\":14279:14297   */\n      add\n        /* \"#utility.yul\":14271:14297   */\n      swap1\n      pop\n        /* \"#utility.yul\":14343:14352   */\n      dup2\n        /* \"#utility.yul\":14337:14341   */\n      dup2\n        /* \"#utility.yul\":14333:14353   */\n      sub\n        /* \"#utility.yul\":14329:14330   */\n      0x00\n        /* \"#utility.yul\":14318:14327   */\n      dup4\n        /* \"#utility.yul\":14314:14331   */\n      add\n        /* \"#utility.yul\":14307:14354   */\n      mstore\n        /* \"#utility.yul\":14371:14502   */\n      tag_464\n        /* \"#utility.yul\":14497:14501   */\n      dup2\n        /* \"#utility.yul\":14371:14502   */\n      tag_317\n      jump\t// in\n    tag_464:\n        /* \"#utility.yul\":14363:14502   */\n      swap1\n      pop\n        /* \"#utility.yul\":14090:14509   */\n      swap2\n      swap1\n      pop\n      jump\t// out\n        /* \"#utility.yul\":14515:14693   */\n    tag_318:\n        /* \"#utility.yul\":14655:14685   */\n      0x4c6f636b20706572696f64206d75737420626520706f73697469766500000000\n        /* \"#utility.yul\":14651:14652   */\n      0x00\n        /* \"#utility.yul\":14643:14649   */\n      dup3\n        /* \"#utility.yul\":14639:14653   */\n      add\n        /* \"#utility.yul\":14632:14686   */\n      mstore\n        /* \"#utility.yul\":14515:14693   */\n      pop\n      jump\t// out\n        /* \"#utility.yul\":14699:15065   */\n    tag_319:\n        /* \"#utility.yul\":14841:14844   */\n      0x00\n        /* \"#utility.yul\":14862:14929   */\n      tag_467\n        /* \"#utility.yul\":14926:14928   */\n      0x1c\n        /* \"#utility.yul\":14921:14924   */\n      dup4\n        /* \"#utility.yul\":14862:14929   */\n      tag_298\n      jump\t// in\n    tag_467:\n        /* \"#utility.yul\":14855:14929   */\n      swap2\n      pop\n        /* \"#utility.yul\":14938:15031   */\n      tag_468\n        /* \"#utility.yul\":15027:15030   */\n      dup3\n        /* \"#utility.yul\":14938:15031   */\n      tag_318\n      jump\t// in\n    tag_468:\n        /* \"#utility.yul\":15056:15058   */\n      0x20\n        /* \"#utility.yul\":15051:15054   */\n      dup3\n        /* \"#utility.yul\":15047:15059   */\n      add\n        /* \"#utility.yul\":15040:15059   */\n      swap1\n      pop\n        /* \"#utility.yul\":14699:15065   */\n      swap2\n      swap1\n      pop\n      jump\t// out\n        /* \"#utility.yul\":15071:15490   */\n    tag_240:\n        /* \"#utility.yul\":15237:15241   */\n      0x00\n        /* \"#utility.yul\":15275:15277   */\n      0x20\n        /* \"#utility.yul\":15264:15273   */\n      dup3\n        /* \"#utility.yul\":15260:15278   */\n      add\n        /* \"#utility.yul\":15252:15278   */\n      swap1\n      pop\n        /* \"#utility.yul\":15324:15333   */\n      dup2\n        /* \"#utility.yul\":15318:15322   */\n      dup2\n        /* \"#utility.yul\":15314:15334   */\n      sub\n        /* \"#utility.yul\":15310:15311   */\n      0x00\n        /* \"#utility.yul\":15299:15308   */\n      dup4\n        /* \"#utility.yul\":15295:15312   */\n      add\n        /* \"#utility.yul\":15288:15335   */\n      mstore\n        /* \"#utility.yul\":15352:15483   */\n      tag_470\n        /* \"#utility.yul\":15478:15482   */\n      dup2\n        /* \"#utility.yul\":15352:15483   */\n      tag_319\n      jump\t// in\n    tag_470:\n        /* \"#utility.yul\":15344:15483   */\n      swap1\n      pop\n        /* \"#utility.yul\":15071:15490   */\n      swap2\n      swap1\n      pop\n      jump\t// out\n        /* \"#utility.yul\":15496:15666   */\n    tag_320:\n        /* \"#utility.yul\":15636:15658   */\n      0x57616c6c657420616c7265616479206164646564000000000000000000000000\n        /* \"#utility.yul\":15632:15633   */\n      0x00\n        /* \"#utility.yul\":15624:15630   */\n      dup3\n        /* \"#utility.yul\":15620:15634   */\n      add\n        /* \"#utility.yul\":15613:15659   */\n      mstore\n        /* \"#utility.yul\":15496:15666   */\n      pop\n      jump\t// out\n        /* \"#utility.yul\":15672:16038   */\n    tag_321:\n        /* \"#utility.yul\":15814:15817   */\n      0x00\n        /* \"#utility.yul\":15835:15902   */\n      tag_473\n        /* \"#utility.yul\":15899:15901   */\n      0x14\n        /* \"#utility.yul\":15894:15897   */\n      dup4\n        /* \"#utility.yul\":15835:15902   */\n      tag_298\n      jump\t// in\n    tag_473:\n        /* \"#utility.yul\":15828:15902   */\n      swap2\n      pop\n        /* \"#utility.yul\":15911:16004   */\n      tag_474\n        /* \"#utility.yul\":16000:16003   */\n      dup3\n        /* \"#utility.yul\":15911:16004   */\n      tag_320\n      jump\t// in\n    tag_474:\n        /* \"#utility.yul\":16029:16031   */\n      0x20\n        /* \"#utility.yul\":16024:16027   */\n      dup3\n        /* \"#utility.yul\":16020:16032   */\n      add\n        /* \"#utility.yul\":16013:16032   */\n      swap1\n      pop\n        /* \"#utility.yul\":15672:16038   */\n      swap2\n      swap1\n      pop\n      jump\t// out\n        /* \"#utility.yul\":16044:16463   */\n    tag_274:\n        /* \"#utility.yul\":16210:16214   */\n      0x00\n        /* \"#utility.yul\":16248:16250   */\n      0x20\n        /* \"#utility.yul\":16237:16246   */\n      dup3\n        /* \"#utility.yul\":16233:16251   */\n      add\n        /* \"#utility.yul\":16225:16251   */\n      swap1\n      pop\n        /* \"#utility.yul\":16297:16306   */\n      dup2\n        /* \"#utility.yul\":16291:16295   */\n      dup2\n        /* \"#utility.yul\":16287:16307   */\n      sub\n        /* \"#utility.yul\":16283:16284   */\n      0x00\n        /* \"#utility.yul\":16272:16281   */\n      dup4\n        /* \"#utility.yul\":16268:16285   */\n      add\n        /* \"#utility.yul\":16261:16308   */\n      mstore\n        /* \"#utility.yul\":16325:16456   */\n      tag_476\n        /* \"#utility.yul\":16451:16455   */\n      dup2\n        /* \"#utility.yul\":16325:16456   */\n      tag_321\n      jump\t// in\n    tag_476:\n        /* \"#utility.yul\":16317:16456   */\n      swap1\n      pop\n        /* \"#utility.yul\":16044:16463   */\n      swap2\n      swap1\n      pop\n      jump\t// out\n\n    auxdata: 0xa26469706673582212208ed87b55b4ae203669a894849b6a39a39625a68d3b9704824c01391f54c78bd064736f6c634300081c0033\n}\n",
				"bytecode": {
					"linkReferences": {},
					"object": "6080604052603c60035560b46064604660035461001c9190610163565b61002691906101d1565b61003091906101d1565b60045534801561003e575f5ffd5b506040516121893803806121898339818101604052810190610060919061025f565b815f5f6101000a81548173ffffffffffffffffffffffffffffffffffffffff021916908373ffffffffffffffffffffffffffffffffffffffff1602179055508060015f6101000a81548173ffffffffffffffffffffffffffffffffffffffff021916908373ffffffffffffffffffffffffffffffffffffffff1602179055503360025f6101000a81548173ffffffffffffffffffffffffffffffffffffffff021916908373ffffffffffffffffffffffffffffffffffffffff16021790555043600581905550505061029d565b5f819050919050565b7f4e487b71000000000000000000000000000000000000000000000000000000005f52601160045260245ffd5b5f61016d8261012d565b91506101788361012d565b92508282026101868161012d565b9150828204841483151761019d5761019c610136565b5b5092915050565b7f4e487b71000000000000000000000000000000000000000000000000000000005f52601260045260245ffd5b5f6101db8261012d565b91506101e68361012d565b9250826101f6576101f56101a4565b5b828204905092915050565b5f5ffd5b5f73ffffffffffffffffffffffffffffffffffffffff82169050919050565b5f61022e82610205565b9050919050565b61023e81610224565b8114610248575f5ffd5b50565b5f8151905061025981610235565b92915050565b5f5f6040838503121561027557610274610201565b5b5f6102828582860161024b565b92505060206102938582860161024b565b9150509250929050565b611edf806102aa5f395ff3fe608060405234801561000f575f5ffd5b5060043610610135575f3560e01c806391db7b0d116100b6578063df4d971d1161007a578063df4d971d14610327578063efeb5f1f14610343578063f2bc79a31461035f578063f5c330a81461037d578063fc0c546a1461039b578063fe9fbb80146103b957610135565b806391db7b0d1461026f5780639eda58101461028b578063cb3cc126146102bb578063cf5303cf146102d9578063d1bc76a1146102f757610135565b806351cff8d9116100fd57806351cff8d9146101f157806369a630361461020d5780636f4a2cd01461022957806382dc7c9d146102335780638da5cb5b1461025157610135565b8063012e0867146101395780630483a7f61461015757806313c6dabf1461018757806331008aae146101a35780633638104a146101c1575b5f5ffd5b6101416103e9565b60405161014e91906116b3565b60405180910390f35b610171600480360381019061016c919061172a565b6103ee565b60405161017e91906116b3565b60405180910390f35b6101a1600480360381019061019c919061172a565b610409565b005b6101ab610862565b6040516101b891906116b3565b60405180910390f35b6101db60048036038101906101d6919061172a565b610868565b6040516101e8919061176f565b60405180910390f35b61020b6004803603810190610206919061172a565b610885565b005b6102276004803603810190610222919061172a565b610ac0565b005b610231610d11565b005b61023b61103f565b60405161024891906116b3565b60405180910390f35b610259611046565b6040516102669190611797565b60405180910390f35b610289600480360381019061028491906117da565b61106b565b005b6102a560048036038101906102a0919061172a565b61113f565b6040516102b29190611797565b60405180910390f35b6102c361116f565b6040516102d091906116b3565b60405180910390f35b6102e1611175565b6040516102ee9190611860565b60405180910390f35b610311600480360381019061030c91906117da565b61119a565b60405161031e9190611797565b60405180910390f35b610341600480360381019061033c919061172a565b6111d5565b005b61035d6004803603810190610358919061172a565b611448565b005b610367611619565b60405161037491906116b3565b60405180910390f35b61038561161f565b60405161039291906116b3565b60405180910390f35b6103a3611625565b6040516103b09190611899565b60405180910390f35b6103d360048036038101906103ce919061172a565b611649565b6040516103e0919061176f565b60405180910390f35b601e81565b6007602052805f5260405f205f915090508060010154905081565b3373ffffffffffffffffffffffffffffffffffffffff1660065f8373ffffffffffffffffffffffffffffffffffffffff1673ffffffffffffffffffffffffffffffffffffffff1681526020019081526020015f205f9054906101000a900473ffffffffffffffffffffffffffffffffffffffff1673ffffffffffffffffffffffffffffffffffffffff16146104d3576040517f08c379a00000000000000000000000000000000000000000000000000000000081526004016104ca9061190c565b60405180910390fd5b5f60075f8373ffffffffffffffffffffffffffffffffffffffff1673ffffffffffffffffffffffffffffffffffffffff1681526020019081526020015f2090505f815f01805490501161055b576040517f08c379a000000000000000000000000000000000000000000000000000000000815260040161055290611974565b60405180910390fd5b5f5f90505b815f018054905081101561085d57815f01818154811061058357610582611992565b5b905f5260205f2090600402016003015f9054906101000a900460ff16610850575f62107ac0835f0183815481106105bd576105bc611992565b5b905f5260205f20906004020160010154436105d891906119ec565b1061064657825f0182815481106105f2576105f1611992565b5b905f5260205f2090600402016002015462107ac0845f01848154811061061b5761061a611992565b5b905f5260205f209060040201600101546106359190611a1f565b61063f91906119ec565b9050610679565b825f01828154811061065b5761065a611992565b5b905f5260205f209060040201600201544361067691906119ec565b90505b611c208110156106be576040517f08c379a00000000000000000000000000000000000000000000000000000000081526004016106b590611ac2565b60405180910390fd5b5f611c20826106cd9190611b0d565b90505f600454826106de9190611b3d565b9050845f0184815481106106f5576106f4611992565b5b905f5260205f2090600402015f01548110156107aa5780856001015f82825461071e9190611a1f565b9250508190555080855f01858154811061073b5761073a611992565b5b905f5260205f2090600402015f015f82825461075791906119ec565b92505081905550611c208261076c9190611b3d565b855f01858154811061078157610780611992565b5b905f5260205f2090600402016002015f82825461079e9190611a1f565b9250508190555061084c565b845f0184815481106107bf576107be611992565b5b905f5260205f2090600402015f0154856001015f8282546107e09190611a1f565b925050819055505f855f0185815481106107fd576107fc611992565b5b905f5260205f2090600402015f01819055506001855f01858154811061082657610825611992565b5b905f5260205f2090600402016003015f6101000a81548160ff0219169083151502179055505b5050505b8080600101915050610560565b505050565b611c2081565b6008602052805f5260405f205f915054906101000a900460ff1681565b3373ffffffffffffffffffffffffffffffffffffffff1660065f8373ffffffffffffffffffffffffffffffffffffffff1673ffffffffffffffffffffffffffffffffffffffff1681526020019081526020015f205f9054906101000a900473ffffffffffffffffffffffffffffffffffffffff1673ffffffffffffffffffffffffffffffffffffffff161461094f576040517f08c379a00000000000000000000000000000000000000000000000000000000081526004016109469061190c565b60405180910390fd5b5f60075f8373ffffffffffffffffffffffffffffffffffffffff1673ffffffffffffffffffffffffffffffffffffffff1681526020019081526020015f2090505f8160010154116109d5576040517f08c379a00000000000000000000000000000000000000000000000000000000081526004016109cc90611bc8565b60405180910390fd5b5f5f9054906101000a900473ffffffffffffffffffffffffffffffffffffffff1673ffffffffffffffffffffffffffffffffffffffff1663a9059cbb3383600101546040518363ffffffff1660e01b8152600401610a34929190611be6565b6020604051808303815f875af1158015610a50573d5f5f3e3d5ffd5b505050506040513d601f19601f82011682018060405250810190610a749190611c37565b610ab3576040517f08c379a0000000000000000000000000000000000000000000000000000000008152600401610aaa90611cac565b60405180910390fd5b5f81600101819055505050565b3373ffffffffffffffffffffffffffffffffffffffff1660065f8373ffffffffffffffffffffffffffffffffffffffff1673ffffffffffffffffffffffffffffffffffffffff1681526020019081526020015f205f9054906101000a900473ffffffffffffffffffffffffffffffffffffffff1673ffffffffffffffffffffffffffffffffffffffff1614610b8a576040517f08c379a0000000000000000000000000000000000000000000000000000000008152600401610b819061190c565b60405180910390fd5b5f60075f8373ffffffffffffffffffffffffffffffffffffffff1673ffffffffffffffffffffffffffffffffffffffff1681526020019081526020015f2090505f815f018054905011610c12576040517f08c379a0000000000000000000000000000000000000000000000000000000008152600401610c0990611974565b60405180910390fd5b5f5f90505b815f0180549050811015610d0c57815f018181548110610c3a57610c39611992565b5b905f5260205f2090600402016003015f9054906101000a900460ff16610cff575f825f018281548110610c7057610c6f611992565b5b905f5260205f2090600402016001015443610c8b91906119ec565b905062107ac08110610cfd57825f018281548110610cac57610cab611992565b5b905f5260205f2090600402015f0154836001015f828254610ccd9190611a1f565b925050819055505f835f018381548110610cea57610ce9611992565b5b905f5260205f2090600402015f01819055505b505b8080600101915050610c17565b505050565b611c20600554610d219190611a1f565b431015610d63576040517f08c379a0000000000000000000000000000000000000000000000000000000008152600401610d5a90611d14565b60405180910390fd5b436005819055505f5f90505b60098054905081101561103c575f60098281548110610d9157610d90611992565b5b905f5260205f20015f9054906101000a900473ffffffffffffffffffffffffffffffffffffffff169050600360015f9054906101000a900473ffffffffffffffffffffffffffffffffffffffff1673ffffffffffffffffffffffffffffffffffffffff16637279c14e836040518263ffffffff1660e01b8152600401610e179190611797565b602060405180830381865afa158015610e32573d5f5f3e3d5ffd5b505050506040513d601f19601f82011682018060405250810190610e569190611d46565b10610fa7575f6064601e600354610e6d9190611b3d565b610e779190611b0d565b90508060075f8473ffffffffffffffffffffffffffffffffffffffff1673ffffffffffffffffffffffffffffffffffffffff1681526020019081526020015f206001015f828254610ec89190611a1f565b9250508190555060075f8373ffffffffffffffffffffffffffffffffffffffff1673ffffffffffffffffffffffffffffffffffffffff1681526020019081526020015f205f01604051806080016040528083600354610f2791906119ec565b8152602001600554815260200160055481526020015f1515815250908060018154018082558091505060019003905f5260205f2090600402015f909190919091505f820151815f015560208201518160010155604082015181600201556060820151816003015f6101000a81548160ff0219169083151502179055505050505b60015f9054906101000a900473ffffffffffffffffffffffffffffffffffffffff1673ffffffffffffffffffffffffffffffffffffffff16633bc8df83826040518263ffffffff1660e01b81526004016110019190611797565b5f604051808303815f87803b158015611018575f5ffd5b505af115801561102a573d5f5f3e3d5ffd5b50505050508080600101915050610d6f565b50565b62107ac081565b60025f9054906101000a900473ffffffffffffffffffffffffffffffffffffffff1681565b60025f9054906101000a900473ffffffffffffffffffffffffffffffffffffffff1673ffffffffffffffffffffffffffffffffffffffff163373ffffffffffffffffffffffffffffffffffffffff16146110fa576040517f08c379a00000000000000000000000000000000000000000000000000000000081526004016110f190611dbb565b60405180910390fd5b5f811161113c576040517f08c379a000000000000000000000000000000000000000000000000000000000815260040161113390611e23565b60405180910390fd5b50565b6006602052805f5260405f205f915054906101000a900473ffffffffffffffffffffffffffffffffffffffff1681565b60035481565b60015f9054906101000a900473ffffffffffffffffffffffffffffffffffffffff1681565b600981815481106111a9575f80fd5b905f5260205f20015f915054906101000a900473ffffffffffffffffffffffffffffffffffffffff1681565b3373ffffffffffffffffffffffffffffffffffffffff1660065f8373ffffffffffffffffffffffffffffffffffffffff1673ffffffffffffffffffffffffffffffffffffffff1681526020019081526020015f205f9054906101000a900473ffffffffffffffffffffffffffffffffffffffff1673ffffffffffffffffffffffffffffffffffffffff161461129f576040517f08c379a00000000000000000000000000000000000000000000000000000000081526004016112969061190c565b60405180910390fd5b5f60075f8373ffffffffffffffffffffffffffffffffffffffff1673ffffffffffffffffffffffffffffffffffffffff1681526020019081526020015f2090505f5f90505f5f90505b825f01805490508110156113e657825f01818154811061130b5761130a611992565b5b905f5260205f2090600402016003015f9054906101000a900460ff166113d9576064601e845f01838154811061134457611343611992565b5b905f5260205f2090600402015f015461135d9190611b3d565b6113679190611b0d565b826113729190611a1f565b91506001835f01828154811061138b5761138a611992565b5b905f5260205f2090600402016003015f6101000a81548160ff0219169083151502179055505f835f0182815481106113c6576113c5611992565b5b905f5260205f2090600402015f01819055505b80806001019150506112e8565b505f8111611429576040517f08c379a000000000000000000000000000000000000000000000000000000000815260040161142090611974565b60405180910390fd5b80826001015f82825461143c9190611a1f565b92505081905550505050565b60025f9054906101000a900473ffffffffffffffffffffffffffffffffffffffff1673ffffffffffffffffffffffffffffffffffffffff163373ffffffffffffffffffffffffffffffffffffffff16146114d7576040517f08c379a00000000000000000000000000000000000000000000000000000000081526004016114ce90611dbb565b60405180910390fd5b60085f8273ffffffffffffffffffffffffffffffffffffffff1673ffffffffffffffffffffffffffffffffffffffff1681526020019081526020015f205f9054906101000a900460ff1615611561576040517f08c379a000000000000000000000000000000000000000000000000000000000815260040161155890611e8b565b60405180910390fd5b600160085f8373ffffffffffffffffffffffffffffffffffffffff1673ffffffffffffffffffffffffffffffffffffffff1681526020019081526020015f205f6101000a81548160ff021916908315150217905550600981908060018154018082558091505060019003905f5260205f20015f9091909190916101000a81548173ffffffffffffffffffffffffffffffffffffffff021916908373ffffffffffffffffffffffffffffffffffffffff16021790555050565b60055481565b60045481565b5f5f9054906101000a900473ffffffffffffffffffffffffffffffffffffffff1681565b5f60085f8373ffffffffffffffffffffffffffffffffffffffff1673ffffffffffffffffffffffffffffffffffffffff1681526020019081526020015f205f9054906101000a900460ff169050919050565b5f819050919050565b6116ad8161169b565b82525050565b5f6020820190506116c65f8301846116a4565b92915050565b5f5ffd5b5f73ffffffffffffffffffffffffffffffffffffffff82169050919050565b5f6116f9826116d0565b9050919050565b611709816116ef565b8114611713575f5ffd5b50565b5f8135905061172481611700565b92915050565b5f6020828403121561173f5761173e6116cc565b5b5f61174c84828501611716565b91505092915050565b5f8115159050919050565b61176981611755565b82525050565b5f6020820190506117825f830184611760565b92915050565b611791816116ef565b82525050565b5f6020820190506117aa5f830184611788565b92915050565b6117b98161169b565b81146117c3575f5ffd5b50565b5f813590506117d4816117b0565b92915050565b5f602082840312156117ef576117ee6116cc565b5b5f6117fc848285016117c6565b91505092915050565b5f819050919050565b5f61182861182361181e846116d0565b611805565b6116d0565b9050919050565b5f6118398261180e565b9050919050565b5f61184a8261182f565b9050919050565b61185a81611840565b82525050565b5f6020820190506118735f830184611851565b92915050565b5f6118838261182f565b9050919050565b61189381611879565b82525050565b5f6020820190506118ac5f83018461188a565b92915050565b5f82825260208201905092915050565b7f4e6f2062696e64696e67000000000000000000000000000000000000000000005f82015250565b5f6118f6600a836118b2565b9150611901826118c2565b602082019050919050565b5f6020820190508181035f830152611923816118ea565b9050919050565b7f4e6f206c6f636b656420746f6b656e73000000000000000000000000000000005f82015250565b5f61195e6010836118b2565b91506119698261192a565b602082019050919050565b5f6020820190508181035f83015261198b81611952565b9050919050565b7f4e487b71000000000000000000000000000000000000000000000000000000005f52603260045260245ffd5b7f4e487b71000000000000000000000000000000000000000000000000000000005f52601160045260245ffd5b5f6119f68261169b565b9150611a018361169b565b9250828203905081811115611a1957611a186119bf565b5b92915050565b5f611a298261169b565b9150611a348361169b565b9250828201905080821115611a4c57611a4b6119bf565b5b92915050565b7f4e6f74207965742072656163686564206e65787420756e6c6f636b20706f696e5f8201527f7400000000000000000000000000000000000000000000000000000000000000602082015250565b5f611aac6021836118b2565b9150611ab782611a52565b604082019050919050565b5f6020820190508181035f830152611ad981611aa0565b9050919050565b7f4e487b71000000000000000000000000000000000000000000000000000000005f52601260045260245ffd5b5f611b178261169b565b9150611b228361169b565b925082611b3257611b31611ae0565b5b828204905092915050565b5f611b478261169b565b9150611b528361169b565b9250828202611b608161169b565b91508282048414831517611b7757611b766119bf565b5b5092915050565b7f4e6f20756e6c6f636b656420746f6b656e7320796574000000000000000000005f82015250565b5f611bb26016836118b2565b9150611bbd82611b7e565b602082019050919050565b5f6020820190508181035f830152611bdf81611ba6565b9050919050565b5f604082019050611bf95f830185611788565b611c0660208301846116a4565b9392505050565b611c1681611755565b8114611c20575f5ffd5b50565b5f81519050611c3181611c0d565b92915050565b5f60208284031215611c4c57611c4b6116cc565b5b5f611c5984828501611c23565b91505092915050565b7f5472616e73666572206661696c656400000000000000000000000000000000005f82015250565b5f611c96600f836118b2565b9150611ca182611c62565b602082019050919050565b5f6020820190508181035f830152611cc381611c8a565b9050919050565b7f446973747269627574696f6e206e6f74207265616479000000000000000000005f82015250565b5f611cfe6016836118b2565b9150611d0982611cca565b602082019050919050565b5f6020820190508181035f830152611d2b81611cf2565b9050919050565b5f81519050611d40816117b0565b92915050565b5f60208284031215611d5b57611d5a6116cc565b5b5f611d6884828501611d32565b91505092915050565b7f4f6e6c79206f776e65722063616e2063616c6c000000000000000000000000005f82015250565b5f611da56013836118b2565b9150611db082611d71565b602082019050919050565b5f6020820190508181035f830152611dd281611d99565b9050919050565b7f4c6f636b20706572696f64206d75737420626520706f736974697665000000005f82015250565b5f611e0d601c836118b2565b9150611e1882611dd9565b602082019050919050565b5f6020820190508181035f830152611e3a81611e01565b9050919050565b7f57616c6c657420616c72656164792061646465640000000000000000000000005f82015250565b5f611e756014836118b2565b9150611e8082611e41565b602082019050919050565b5f6020820190508181035f830152611ea281611e69565b905091905056fea26469706673582212208ed87b55b4ae203669a894849b6a39a39625a68d3b9704824c01391f54c78bd064736f6c634300081c0033",
					"opcodes": "PUSH1 0x80 PUSH1 0x40 MSTORE PUSH1 0x3C PUSH1 0x3 SSTORE PUSH1 0xB4 PUSH1 0x64 PUSH1 0x46 PUSH1 0x3 SLOAD PUSH2 0x1C SWAP2 SWAP1 PUSH2 0x163 JUMP JUMPDEST PUSH2 0x26 SWAP2 SWAP1 PUSH2 0x1D1 JUMP JUMPDEST PUSH2 0x30 SWAP2 SWAP1 PUSH2 0x1D1 JUMP JUMPDEST PUSH1 0x4 SSTORE CALLVALUE DUP1 ISZERO PUSH2 0x3E JUMPI PUSH0 PUSH0 REVERT JUMPDEST POP PUSH1 0x40 MLOAD PUSH2 0x2189 CODESIZE SUB DUP1 PUSH2 0x2189 DUP4 CODECOPY DUP2 DUP2 ADD PUSH1 0x40 MSTORE DUP2 ADD SWAP1 PUSH2 0x60 SWAP2 SWAP1 PUSH2 0x25F JUMP JUMPDEST DUP2 PUSH0 PUSH0 PUSH2 0x100 EXP DUP2 SLOAD DUP2 PUSH20 0xFFFFFFFFFFFFFFFFFFFFFFFFFFFFFFFFFFFFFFFF MUL NOT AND SWAP1 DUP4 PUSH20 0xFFFFFFFFFFFFFFFFFFFFFFFFFFFFFFFFFFFFFFFF AND MUL OR SWAP1 SSTORE POP DUP1 PUSH1 0x1 PUSH0 PUSH2 0x100 EXP DUP2 SLOAD DUP2 PUSH20 0xFFFFFFFFFFFFFFFFFFFFFFFFFFFFFFFFFFFFFFFF MUL NOT AND SWAP1 DUP4 PUSH20 0xFFFFFFFFFFFFFFFFFFFFFFFFFFFFFFFFFFFFFFFF AND MUL OR SWAP1 SSTORE POP CALLER PUSH1 0x2 PUSH0 PUSH2 0x100 EXP DUP2 SLOAD DUP2 PUSH20 0xFFFFFFFFFFFFFFFFFFFFFFFFFFFFFFFFFFFFFFFF MUL NOT AND SWAP1 DUP4 PUSH20 0xFFFFFFFFFFFFFFFFFFFFFFFFFFFFFFFFFFFFFFFF AND MUL OR SWAP1 SSTORE POP NUMBER PUSH1 0x5 DUP2 SWAP1 SSTORE POP POP POP PUSH2 0x29D JUMP JUMPDEST PUSH0 DUP2 SWAP1 POP SWAP2 SWAP1 POP JUMP JUMPDEST PUSH32 0x4E487B7100000000000000000000000000000000000000000000000000000000 PUSH0 MSTORE PUSH1 0x11 PUSH1 0x4 MSTORE PUSH1 0x24 PUSH0 REVERT JUMPDEST PUSH0 PUSH2 0x16D DUP3 PUSH2 0x12D JUMP JUMPDEST SWAP2 POP PUSH2 0x178 DUP4 PUSH2 0x12D JUMP JUMPDEST SWAP3 POP DUP3 DUP3 MUL PUSH2 0x186 DUP2 PUSH2 0x12D JUMP JUMPDEST SWAP2 POP DUP3 DUP3 DIV DUP5 EQ DUP4 ISZERO OR PUSH2 0x19D JUMPI PUSH2 0x19C PUSH2 0x136 JUMP JUMPDEST JUMPDEST POP SWAP3 SWAP2 POP POP JUMP JUMPDEST PUSH32 0x4E487B7100000000000000000000000000000000000000000000000000000000 PUSH0 MSTORE PUSH1 0x12 PUSH1 0x4 MSTORE PUSH1 0x24 PUSH0 REVERT JUMPDEST PUSH0 PUSH2 0x1DB DUP3 PUSH2 0x12D JUMP JUMPDEST SWAP2 POP PUSH2 0x1E6 DUP4 PUSH2 0x12D JUMP JUMPDEST SWAP3 POP DUP3 PUSH2 0x1F6 JUMPI PUSH2 0x1F5 PUSH2 0x1A4 JUMP JUMPDEST JUMPDEST DUP3 DUP3 DIV SWAP1 POP SWAP3 SWAP2 POP POP JUMP JUMPDEST PUSH0 PUSH0 REVERT JUMPDEST PUSH0 PUSH20 0xFFFFFFFFFFFFFFFFFFFFFFFFFFFFFFFFFFFFFFFF DUP3 AND SWAP1 POP SWAP2 SWAP1 POP JUMP JUMPDEST PUSH0 PUSH2 0x22E DUP3 PUSH2 0x205 JUMP JUMPDEST SWAP1 POP SWAP2 SWAP1 POP JUMP JUMPDEST PUSH2 0x23E DUP2 PUSH2 0x224 JUMP JUMPDEST DUP2 EQ PUSH2 0x248 JUMPI PUSH0 PUSH0 REVERT JUMPDEST POP JUMP JUMPDEST PUSH0 DUP2 MLOAD SWAP1 POP PUSH2 0x259 DUP2 PUSH2 0x235 JUMP JUMPDEST SWAP3 SWAP2 POP POP JUMP JUMPDEST PUSH0 PUSH0 PUSH1 0x40 DUP4 DUP6 SUB SLT ISZERO PUSH2 0x275 JUMPI PUSH2 0x274 PUSH2 0x201 JUMP JUMPDEST JUMPDEST PUSH0 PUSH2 0x282 DUP6 DUP3 DUP7 ADD PUSH2 0x24B JUMP JUMPDEST SWAP3 POP POP PUSH1 0x20 PUSH2 0x293 DUP6 DUP3 DUP7 ADD PUSH2 0x24B JUMP JUMPDEST SWAP2 POP POP SWAP3 POP SWAP3 SWAP1 POP JUMP JUMPDEST PUSH2 0x1EDF DUP1 PUSH2 0x2AA PUSH0 CODECOPY PUSH0 RETURN INVALID PUSH1 0x80 PUSH1 0x40 MSTORE CALLVALUE DUP1 ISZERO PUSH2 0xF JUMPI PUSH0 PUSH0 REVERT JUMPDEST POP PUSH1 0x4 CALLDATASIZE LT PUSH2 0x135 JUMPI PUSH0 CALLDATALOAD PUSH1 0xE0 SHR DUP1 PUSH4 0x91DB7B0D GT PUSH2 0xB6 JUMPI DUP1 PUSH4 0xDF4D971D GT PUSH2 0x7A JUMPI DUP1 PUSH4 0xDF4D971D EQ PUSH2 0x327 JUMPI DUP1 PUSH4 0xEFEB5F1F EQ PUSH2 0x343 JUMPI DUP1 PUSH4 0xF2BC79A3 EQ PUSH2 0x35F JUMPI DUP1 PUSH4 0xF5C330A8 EQ PUSH2 0x37D JUMPI DUP1 PUSH4 0xFC0C546A EQ PUSH2 0x39B JUMPI DUP1 PUSH4 0xFE9FBB80 EQ PUSH2 0x3B9 JUMPI PUSH2 0x135 JUMP JUMPDEST DUP1 PUSH4 0x91DB7B0D EQ PUSH2 0x26F JUMPI DUP1 PUSH4 0x9EDA5810 EQ PUSH2 0x28B JUMPI DUP1 PUSH4 0xCB3CC126 EQ PUSH2 0x2BB JUMPI DUP1 PUSH4 0xCF5303CF EQ PUSH2 0x2D9 JUMPI DUP1 PUSH4 0xD1BC76A1 EQ PUSH2 0x2F7 JUMPI PUSH2 0x135 JUMP JUMPDEST DUP1 PUSH4 0x51CFF8D9 GT PUSH2 0xFD JUMPI DUP1 PUSH4 0x51CFF8D9 EQ PUSH2 0x1F1 JUMPI DUP1 PUSH4 0x69A63036 EQ PUSH2 0x20D JUMPI DUP1 PUSH4 0x6F4A2CD0 EQ PUSH2 0x229 JUMPI DUP1 PUSH4 0x82DC7C9D EQ PUSH2 0x233 JUMPI DUP1 PUSH4 0x8DA5CB5B EQ PUSH2 0x251 JUMPI PUSH2 0x135 JUMP JUMPDEST DUP1 PUSH4 0x12E0867 EQ PUSH2 0x139 JUMPI DUP1 PUSH4 0x483A7F6 EQ PUSH2 0x157 JUMPI DUP1 PUSH4 0x13C6DABF EQ PUSH2 0x187 JUMPI DUP1 PUSH4 0x31008AAE EQ PUSH2 0x1A3 JUMPI DUP1 PUSH4 0x3638104A EQ PUSH2 0x1C1 JUMPI JUMPDEST PUSH0 PUSH0 REVERT JUMPDEST PUSH2 0x141 PUSH2 0x3E9 JUMP JUMPDEST PUSH1 0x40 MLOAD PUSH2 0x14E SWAP2 SWAP1 PUSH2 0x16B3 JUMP JUMPDEST PUSH1 0x40 MLOAD DUP1 SWAP2 SUB SWAP1 RETURN JUMPDEST PUSH2 0x171 PUSH1 0x4 DUP1 CALLDATASIZE SUB DUP2 ADD SWAP1 PUSH2 0x16C SWAP2 SWAP1 PUSH2 0x172A JUMP JUMPDEST PUSH2 0x3EE JUMP JUMPDEST PUSH1 0x40 MLOAD PUSH2 0x17E SWAP2 SWAP1 PUSH2 0x16B3 JUMP JUMPDEST PUSH1 0x40 MLOAD DUP1 SWAP2 SUB SWAP1 RETURN JUMPDEST PUSH2 0x1A1 PUSH1 0x4 DUP1 CALLDATASIZE SUB DUP2 ADD SWAP1 PUSH2 0x19C SWAP2 SWAP1 PUSH2 0x172A JUMP JUMPDEST PUSH2 0x409 JUMP JUMPDEST STOP JUMPDEST PUSH2 0x1AB PUSH2 0x862 JUMP JUMPDEST PUSH1 0x40 MLOAD PUSH2 0x1B8 SWAP2 SWAP1 PUSH2 0x16B3 JUMP JUMPDEST PUSH1 0x40 MLOAD DUP1 SWAP2 SUB SWAP1 RETURN JUMPDEST PUSH2 0x1DB PUSH1 0x4 DUP1 CALLDATASIZE SUB DUP2 ADD SWAP1 PUSH2 0x1D6 SWAP2 SWAP1 PUSH2 0x172A JUMP JUMPDEST PUSH2 0x868 JUMP JUMPDEST PUSH1 0x40 MLOAD PUSH2 0x1E8 SWAP2 SWAP1 PUSH2 0x176F JUMP JUMPDEST PUSH1 0x40 MLOAD DUP1 SWAP2 SUB SWAP1 RETURN JUMPDEST PUSH2 0x20B PUSH1 0x4 DUP1 CALLDATASIZE SUB DUP2 ADD SWAP1 PUSH2 0x206 SWAP2 SWAP1 PUSH2 0x172A JUMP JUMPDEST PUSH2 0x885 JUMP JUMPDEST STOP JUMPDEST PUSH2 0x227 PUSH1 0x4 DUP1 CALLDATASIZE SUB DUP2 ADD SWAP1 PUSH2 0x222 SWAP2 SWAP1 PUSH2 0x172A JUMP JUMPDEST PUSH2 0xAC0 JUMP JUMPDEST STOP JUMPDEST PUSH2 0x231 PUSH2 0xD11 JUMP JUMPDEST STOP JUMPDEST PUSH2 0x23B PUSH2 0x103F JUMP JUMPDEST PUSH1 0x40 MLOAD PUSH2 0x248 SWAP2 SWAP1 PUSH2 0x16B3 JUMP JUMPDEST PUSH1 0x40 MLOAD DUP1 SWAP2 SUB SWAP1 RETURN JUMPDEST PUSH2 0x259 PUSH2 0x1046 JUMP JUMPDEST PUSH1 0x40 MLOAD PUSH2 0x266 SWAP2 SWAP1 PUSH2 0x1797 JUMP JUMPDEST PUSH1 0x40 MLOAD DUP1 SWAP2 SUB SWAP1 RETURN JUMPDEST PUSH2 0x289 PUSH1 0x4 DUP1 CALLDATASIZE SUB DUP2 ADD SWAP1 PUSH2 0x284 SWAP2 SWAP1 PUSH2 0x17DA JUMP JUMPDEST PUSH2 0x106B JUMP JUMPDEST STOP JUMPDEST PUSH2 0x2A5 PUSH1 0x4 DUP1 CALLDATASIZE SUB DUP2 ADD SWAP1 PUSH2 0x2A0 SWAP2 SWAP1 PUSH2 0x172A JUMP JUMPDEST PUSH2 0x113F JUMP JUMPDEST PUSH1 0x40 MLOAD PUSH2 0x2B2 SWAP2 SWAP1 PUSH2 0x1797 JUMP JUMPDEST PUSH1 0x40 MLOAD DUP1 SWAP2 SUB SWAP1 RETURN JUMPDEST PUSH2 0x2C3 PUSH2 0x116F JUMP JUMPDEST PUSH1 0x40 MLOAD PUSH2 0x2D0 SWAP2 SWAP1 PUSH2 0x16B3 JUMP JUMPDEST PUSH1 0x40 MLOAD DUP1 SWAP2 SUB SWAP1 RETURN JUMPDEST PUSH2 0x2E1 PUSH2 0x1175 JUMP JUMPDEST PUSH1 0x40 MLOAD PUSH2 0x2EE SWAP2 SWAP1 PUSH2 0x1860 JUMP JUMPDEST PUSH1 0x40 MLOAD DUP1 SWAP2 SUB SWAP1 RETURN JUMPDEST PUSH2 0x311 PUSH1 0x4 DUP1 CALLDATASIZE SUB DUP2 ADD SWAP1 PUSH2 0x30C SWAP2 SWAP1 PUSH2 0x17DA JUMP JUMPDEST PUSH2 0x119A JUMP JUMPDEST PUSH1 0x40 MLOAD PUSH2 0x31E SWAP2 SWAP1 PUSH2 0x1797 JUMP JUMPDEST PUSH1 0x40 MLOAD DUP1 SWAP2 SUB SWAP1 RETURN JUMPDEST PUSH2 0x341 PUSH1 0x4 DUP1 CALLDATASIZE SUB DUP2 ADD SWAP1 PUSH2 0x33C SWAP2 SWAP1 PUSH2 0x172A JUMP JUMPDEST PUSH2 0x11D5 JUMP JUMPDEST STOP JUMPDEST PUSH2 0x35D PUSH1 0x4 DUP1 CALLDATASIZE SUB DUP2 ADD SWAP1 PUSH2 0x358 SWAP2 SWAP1 PUSH2 0x172A JUMP JUMPDEST PUSH2 0x1448 JUMP JUMPDEST STOP JUMPDEST PUSH2 0x367 PUSH2 0x1619 JUMP JUMPDEST PUSH1 0x40 MLOAD PUSH2 0x374 SWAP2 SWAP1 PUSH2 0x16B3 JUMP JUMPDEST PUSH1 0x40 MLOAD DUP1 SWAP2 SUB SWAP1 RETURN JUMPDEST PUSH2 0x385 PUSH2 0x161F JUMP JUMPDEST PUSH1 0x40 MLOAD PUSH2 0x392 SWAP2 SWAP1 PUSH2 0x16B3 JUMP JUMPDEST PUSH1 0x40 MLOAD DUP1 SWAP2 SUB SWAP1 RETURN JUMPDEST PUSH2 0x3A3 PUSH2 0x1625 JUMP JUMPDEST PUSH1 0x40 MLOAD PUSH2 0x3B0 SWAP2 SWAP1 PUSH2 0x1899 JUMP JUMPDEST PUSH1 0x40 MLOAD DUP1 SWAP2 SUB SWAP1 RETURN JUMPDEST PUSH2 0x3D3 PUSH1 0x4 DUP1 CALLDATASIZE SUB DUP2 ADD SWAP1 PUSH2 0x3CE SWAP2 SWAP1 PUSH2 0x172A JUMP JUMPDEST PUSH2 0x1649 JUMP JUMPDEST PUSH1 0x40 MLOAD PUSH2 0x3E0 SWAP2 SWAP1 PUSH2 0x176F JUMP JUMPDEST PUSH1 0x40 MLOAD DUP1 SWAP2 SUB SWAP1 RETURN JUMPDEST PUSH1 0x1E DUP2 JUMP JUMPDEST PUSH1 0x7 PUSH1 0x20 MSTORE DUP1 PUSH0 MSTORE PUSH1 0x40 PUSH0 KECCAK256 PUSH0 SWAP2 POP SWAP1 POP DUP1 PUSH1 0x1 ADD SLOAD SWAP1 POP DUP2 JUMP JUMPDEST CALLER PUSH20 0xFFFFFFFFFFFFFFFFFFFFFFFFFFFFFFFFFFFFFFFF AND PUSH1 0x6 PUSH0 DUP4 PUSH20 0xFFFFFFFFFFFFFFFFFFFFFFFFFFFFFFFFFFFFFFFF AND PUSH20 0xFFFFFFFFFFFFFFFFFFFFFFFFFFFFFFFFFFFFFFFF AND DUP2 MSTORE PUSH1 0x20 ADD SWAP1 DUP2 MSTORE PUSH1 0x20 ADD PUSH0 KECCAK256 PUSH0 SWAP1 SLOAD SWAP1 PUSH2 0x100 EXP SWAP1 DIV PUSH20 0xFFFFFFFFFFFFFFFFFFFFFFFFFFFFFFFFFFFFFFFF AND PUSH20 0xFFFFFFFFFFFFFFFFFFFFFFFFFFFFFFFFFFFFFFFF AND EQ PUSH2 0x4D3 JUMPI PUSH1 0x40 MLOAD PUSH32 0x8C379A000000000000000000000000000000000000000000000000000000000 DUP2 MSTORE PUSH1 0x4 ADD PUSH2 0x4CA SWAP1 PUSH2 0x190C JUMP JUMPDEST PUSH1 0x40 MLOAD DUP1 SWAP2 SUB SWAP1 REVERT JUMPDEST PUSH0 PUSH1 0x7 PUSH0 DUP4 PUSH20 0xFFFFFFFFFFFFFFFFFFFFFFFFFFFFFFFFFFFFFFFF AND PUSH20 0xFFFFFFFFFFFFFFFFFFFFFFFFFFFFFFFFFFFFFFFF AND DUP2 MSTORE PUSH1 0x20 ADD SWAP1 DUP2 MSTORE PUSH1 0x20 ADD PUSH0 KECCAK256 SWAP1 POP PUSH0 DUP2 PUSH0 ADD DUP1 SLOAD SWAP1 POP GT PUSH2 0x55B JUMPI PUSH1 0x40 MLOAD PUSH32 0x8C379A000000000000000000000000000000000000000000000000000000000 DUP2 MSTORE PUSH1 0x4 ADD PUSH2 0x552 SWAP1 PUSH2 0x1974 JUMP JUMPDEST PUSH1 0x40 MLOAD DUP1 SWAP2 SUB SWAP1 REVERT JUMPDEST PUSH0 PUSH0 SWAP1 POP JUMPDEST DUP2 PUSH0 ADD DUP1 SLOAD SWAP1 POP DUP2 LT ISZERO PUSH2 0x85D JUMPI DUP2 PUSH0 ADD DUP2 DUP2 SLOAD DUP2 LT PUSH2 0x583 JUMPI PUSH2 0x582 PUSH2 0x1992 JUMP JUMPDEST JUMPDEST SWAP1 PUSH0 MSTORE PUSH1 0x20 PUSH0 KECCAK256 SWAP1 PUSH1 0x4 MUL ADD PUSH1 0x3 ADD PUSH0 SWAP1 SLOAD SWAP1 PUSH2 0x100 EXP SWAP1 DIV PUSH1 0xFF AND PUSH2 0x850 JUMPI PUSH0 PUSH3 0x107AC0 DUP4 PUSH0 ADD DUP4 DUP2 SLOAD DUP2 LT PUSH2 0x5BD JUMPI PUSH2 0x5BC PUSH2 0x1992 JUMP JUMPDEST JUMPDEST SWAP1 PUSH0 MSTORE PUSH1 0x20 PUSH0 KECCAK256 SWAP1 PUSH1 0x4 MUL ADD PUSH1 0x1 ADD SLOAD NUMBER PUSH2 0x5D8 SWAP2 SWAP1 PUSH2 0x19EC JUMP JUMPDEST LT PUSH2 0x646 JUMPI DUP3 PUSH0 ADD DUP3 DUP2 SLOAD DUP2 LT PUSH2 0x5F2 JUMPI PUSH2 0x5F1 PUSH2 0x1992 JUMP JUMPDEST JUMPDEST SWAP1 PUSH0 MSTORE PUSH1 0x20 PUSH0 KECCAK256 SWAP1 PUSH1 0x4 MUL ADD PUSH1 0x2 ADD SLOAD PUSH3 0x107AC0 DUP5 PUSH0 ADD DUP5 DUP2 SLOAD DUP2 LT PUSH2 0x61B JUMPI PUSH2 0x61A PUSH2 0x1992 JUMP JUMPDEST JUMPDEST SWAP1 PUSH0 MSTORE PUSH1 0x20 PUSH0 KECCAK256 SWAP1 PUSH1 0x4 MUL ADD PUSH1 0x1 ADD SLOAD PUSH2 0x635 SWAP2 SWAP1 PUSH2 0x1A1F JUMP JUMPDEST PUSH2 0x63F SWAP2 SWAP1 PUSH2 0x19EC JUMP JUMPDEST SWAP1 POP PUSH2 0x679 JUMP JUMPDEST DUP3 PUSH0 ADD DUP3 DUP2 SLOAD DUP2 LT PUSH2 0x65B JUMPI PUSH2 0x65A PUSH2 0x1992 JUMP JUMPDEST JUMPDEST SWAP1 PUSH0 MSTORE PUSH1 0x20 PUSH0 KECCAK256 SWAP1 PUSH1 0x4 MUL ADD PUSH1 0x2 ADD SLOAD NUMBER PUSH2 0x676 SWAP2 SWAP1 PUSH2 0x19EC JUMP JUMPDEST SWAP1 POP JUMPDEST PUSH2 0x1C20 DUP2 LT ISZERO PUSH2 0x6BE JUMPI PUSH1 0x40 MLOAD PUSH32 0x8C379A000000000000000000000000000000000000000000000000000000000 DUP2 MSTORE PUSH1 0x4 ADD PUSH2 0x6B5 SWAP1 PUSH2 0x1AC2 JUMP JUMPDEST PUSH1 0x40 MLOAD DUP1 SWAP2 SUB SWAP1 REVERT JUMPDEST PUSH0 PUSH2 0x1C20 DUP3 PUSH2 0x6CD SWAP2 SWAP1 PUSH2 0x1B0D JUMP JUMPDEST SWAP1 POP PUSH0 PUSH1 0x4 SLOAD DUP3 PUSH2 0x6DE SWAP2 SWAP1 PUSH2 0x1B3D JUMP JUMPDEST SWAP1 POP DUP5 PUSH0 ADD DUP5 DUP2 SLOAD DUP2 LT PUSH2 0x6F5 JUMPI PUSH2 0x6F4 PUSH2 0x1992 JUMP JUMPDEST JUMPDEST SWAP1 PUSH0 MSTORE PUSH1 0x20 PUSH0 KECCAK256 SWAP1 PUSH1 0x4 MUL ADD PUSH0 ADD SLOAD DUP2 LT ISZERO PUSH2 0x7AA JUMPI DUP1 DUP6 PUSH1 0x1 ADD PUSH0 DUP3 DUP3 SLOAD PUSH2 0x71E SWAP2 SWAP1 PUSH2 0x1A1F JUMP JUMPDEST SWAP3 POP POP DUP2 SWAP1 SSTORE POP DUP1 DUP6 PUSH0 ADD DUP6 DUP2 SLOAD DUP2 LT PUSH2 0x73B JUMPI PUSH2 0x73A PUSH2 0x1992 JUMP JUMPDEST JUMPDEST SWAP1 PUSH0 MSTORE PUSH1 0x20 PUSH0 KECCAK256 SWAP1 PUSH1 0x4 MUL ADD PUSH0 ADD PUSH0 DUP3 DUP3 SLOAD PUSH2 0x757 SWAP2 SWAP1 PUSH2 0x19EC JUMP JUMPDEST SWAP3 POP POP DUP2 SWAP1 SSTORE POP PUSH2 0x1C20 DUP3 PUSH2 0x76C SWAP2 SWAP1 PUSH2 0x1B3D JUMP JUMPDEST DUP6 PUSH0 ADD DUP6 DUP2 SLOAD DUP2 LT PUSH2 0x781 JUMPI PUSH2 0x780 PUSH2 0x1992 JUMP JUMPDEST JUMPDEST SWAP1 PUSH0 MSTORE PUSH1 0x20 PUSH0 KECCAK256 SWAP1 PUSH1 0x4 MUL ADD PUSH1 0x2 ADD PUSH0 DUP3 DUP3 SLOAD PUSH2 0x79E SWAP2 SWAP1 PUSH2 0x1A1F JUMP JUMPDEST SWAP3 POP POP DUP2 SWAP1 SSTORE POP PUSH2 0x84C JUMP JUMPDEST DUP5 PUSH0 ADD DUP5 DUP2 SLOAD DUP2 LT PUSH2 0x7BF JUMPI PUSH2 0x7BE PUSH2 0x1992 JUMP JUMPDEST JUMPDEST SWAP1 PUSH0 MSTORE PUSH1 0x20 PUSH0 KECCAK256 SWAP1 PUSH1 0x4 MUL ADD PUSH0 ADD SLOAD DUP6 PUSH1 0x1 ADD PUSH0 DUP3 DUP3 SLOAD PUSH2 0x7E0 SWAP2 SWAP1 PUSH2 0x1A1F JUMP JUMPDEST SWAP3 POP POP DUP2 SWAP1 SSTORE POP PUSH0 DUP6 PUSH0 ADD DUP6 DUP2 SLOAD DUP2 LT PUSH2 0x7FD JUMPI PUSH2 0x7FC PUSH2 0x1992 JUMP JUMPDEST JUMPDEST SWAP1 PUSH0 MSTORE PUSH1 0x20 PUSH0 KECCAK256 SWAP1 PUSH1 0x4 MUL ADD PUSH0 ADD DUP2 SWAP1 SSTORE POP PUSH1 0x1 DUP6 PUSH0 ADD DUP6 DUP2 SLOAD DUP2 LT PUSH2 0x826 JUMPI PUSH2 0x825 PUSH2 0x1992 JUMP JUMPDEST JUMPDEST SWAP1 PUSH0 MSTORE PUSH1 0x20 PUSH0 KECCAK256 SWAP1 PUSH1 0x4 MUL ADD PUSH1 0x3 ADD PUSH0 PUSH2 0x100 EXP DUP2 SLOAD DUP2 PUSH1 0xFF MUL NOT AND SWAP1 DUP4 ISZERO ISZERO MUL OR SWAP1 SSTORE POP JUMPDEST POP POP POP JUMPDEST DUP1 DUP1 PUSH1 0x1 ADD SWAP2 POP POP PUSH2 0x560 JUMP JUMPDEST POP POP POP JUMP JUMPDEST PUSH2 0x1C20 DUP2 JUMP JUMPDEST PUSH1 0x8 PUSH1 0x20 MSTORE DUP1 PUSH0 MSTORE PUSH1 0x40 PUSH0 KECCAK256 PUSH0 SWAP2 POP SLOAD SWAP1 PUSH2 0x100 EXP SWAP1 DIV PUSH1 0xFF AND DUP2 JUMP JUMPDEST CALLER PUSH20 0xFFFFFFFFFFFFFFFFFFFFFFFFFFFFFFFFFFFFFFFF AND PUSH1 0x6 PUSH0 DUP4 PUSH20 0xFFFFFFFFFFFFFFFFFFFFFFFFFFFFFFFFFFFFFFFF AND PUSH20 0xFFFFFFFFFFFFFFFFFFFFFFFFFFFFFFFFFFFFFFFF AND DUP2 MSTORE PUSH1 0x20 ADD SWAP1 DUP2 MSTORE PUSH1 0x20 ADD PUSH0 KECCAK256 PUSH0 SWAP1 SLOAD SWAP1 PUSH2 0x100 EXP SWAP1 DIV PUSH20 0xFFFFFFFFFFFFFFFFFFFFFFFFFFFFFFFFFFFFFFFF AND PUSH20 0xFFFFFFFFFFFFFFFFFFFFFFFFFFFFFFFFFFFFFFFF AND EQ PUSH2 0x94F JUMPI PUSH1 0x40 MLOAD PUSH32 0x8C379A000000000000000000000000000000000000000000000000000000000 DUP2 MSTORE PUSH1 0x4 ADD PUSH2 0x946 SWAP1 PUSH2 0x190C JUMP JUMPDEST PUSH1 0x40 MLOAD DUP1 SWAP2 SUB SWAP1 REVERT JUMPDEST PUSH0 PUSH1 0x7 PUSH0 DUP4 PUSH20 0xFFFFFFFFFFFFFFFFFFFFFFFFFFFFFFFFFFFFFFFF AND PUSH20 0xFFFFFFFFFFFFFFFFFFFFFFFFFFFFFFFFFFFFFFFF AND DUP2 MSTORE PUSH1 0x20 ADD SWAP1 DUP2 MSTORE PUSH1 0x20 ADD PUSH0 KECCAK256 SWAP1 POP PUSH0 DUP2 PUSH1 0x1 ADD SLOAD GT PUSH2 0x9D5 JUMPI PUSH1 0x40 MLOAD PUSH32 0x8C379A000000000000000000000000000000000000000000000000000000000 DUP2 MSTORE PUSH1 0x4 ADD PUSH2 0x9CC SWAP1 PUSH2 0x1BC8 JUMP JUMPDEST PUSH1 0x40 MLOAD DUP1 SWAP2 SUB SWAP1 REVERT JUMPDEST PUSH0 PUSH0 SWAP1 SLOAD SWAP1 PUSH2 0x100 EXP SWAP1 DIV PUSH20 0xFFFFFFFFFFFFFFFFFFFFFFFFFFFFFFFFFFFFFFFF AND PUSH20 0xFFFFFFFFFFFFFFFFFFFFFFFFFFFFFFFFFFFFFFFF AND PUSH4 0xA9059CBB CALLER DUP4 PUSH1 0x1 ADD SLOAD PUSH1 0x40 MLOAD DUP4 PUSH4 0xFFFFFFFF AND PUSH1 0xE0 SHL DUP2 MSTORE PUSH1 0x4 ADD PUSH2 0xA34 SWAP3 SWAP2 SWAP1 PUSH2 0x1BE6 JUMP JUMPDEST PUSH1 0x20 PUSH1 0x40 MLOAD DUP1 DUP4 SUB DUP2 PUSH0 DUP8 GAS CALL ISZERO DUP1 ISZERO PUSH2 0xA50 JUMPI RETURNDATASIZE PUSH0 PUSH0 RETURNDATACOPY RETURNDATASIZE PUSH0 REVERT JUMPDEST POP POP POP POP PUSH1 0x40 MLOAD RETURNDATASIZE PUSH1 0x1F NOT PUSH1 0x1F DUP3 ADD AND DUP3 ADD DUP1 PUSH1 0x40 MSTORE POP DUP2 ADD SWAP1 PUSH2 0xA74 SWAP2 SWAP1 PUSH2 0x1C37 JUMP JUMPDEST PUSH2 0xAB3 JUMPI PUSH1 0x40 MLOAD PUSH32 0x8C379A000000000000000000000000000000000000000000000000000000000 DUP2 MSTORE PUSH1 0x4 ADD PUSH2 0xAAA SWAP1 PUSH2 0x1CAC JUMP JUMPDEST PUSH1 0x40 MLOAD DUP1 SWAP2 SUB SWAP1 REVERT JUMPDEST PUSH0 DUP2 PUSH1 0x1 ADD DUP2 SWAP1 SSTORE POP POP POP JUMP JUMPDEST CALLER PUSH20 0xFFFFFFFFFFFFFFFFFFFFFFFFFFFFFFFFFFFFFFFF AND PUSH1 0x6 PUSH0 DUP4 PUSH20 0xFFFFFFFFFFFFFFFFFFFFFFFFFFFFFFFFFFFFFFFF AND PUSH20 0xFFFFFFFFFFFFFFFFFFFFFFFFFFFFFFFFFFFFFFFF AND DUP2 MSTORE PUSH1 0x20 ADD SWAP1 DUP2 MSTORE PUSH1 0x20 ADD PUSH0 KECCAK256 PUSH0 SWAP1 SLOAD SWAP1 PUSH2 0x100 EXP SWAP1 DIV PUSH20 0xFFFFFFFFFFFFFFFFFFFFFFFFFFFFFFFFFFFFFFFF AND PUSH20 0xFFFFFFFFFFFFFFFFFFFFFFFFFFFFFFFFFFFFFFFF AND EQ PUSH2 0xB8A JUMPI PUSH1 0x40 MLOAD PUSH32 0x8C379A000000000000000000000000000000000000000000000000000000000 DUP2 MSTORE PUSH1 0x4 ADD PUSH2 0xB81 SWAP1 PUSH2 0x190C JUMP JUMPDEST PUSH1 0x40 MLOAD DUP1 SWAP2 SUB SWAP1 REVERT JUMPDEST PUSH0 PUSH1 0x7 PUSH0 DUP4 PUSH20 0xFFFFFFFFFFFFFFFFFFFFFFFFFFFFFFFFFFFFFFFF AND PUSH20 0xFFFFFFFFFFFFFFFFFFFFFFFFFFFFFFFFFFFFFFFF AND DUP2 MSTORE PUSH1 0x20 ADD SWAP1 DUP2 MSTORE PUSH1 0x20 ADD PUSH0 KECCAK256 SWAP1 POP PUSH0 DUP2 PUSH0 ADD DUP1 SLOAD SWAP1 POP GT PUSH2 0xC12 JUMPI PUSH1 0x40 MLOAD PUSH32 0x8C379A000000000000000000000000000000000000000000000000000000000 DUP2 MSTORE PUSH1 0x4 ADD PUSH2 0xC09 SWAP1 PUSH2 0x1974 JUMP JUMPDEST PUSH1 0x40 MLOAD DUP1 SWAP2 SUB SWAP1 REVERT JUMPDEST PUSH0 PUSH0 SWAP1 POP JUMPDEST DUP2 PUSH0 ADD DUP1 SLOAD SWAP1 POP DUP2 LT ISZERO PUSH2 0xD0C JUMPI DUP2 PUSH0 ADD DUP2 DUP2 SLOAD DUP2 LT PUSH2 0xC3A JUMPI PUSH2 0xC39 PUSH2 0x1992 JUMP JUMPDEST JUMPDEST SWAP1 PUSH0 MSTORE PUSH1 0x20 PUSH0 KECCAK256 SWAP1 PUSH1 0x4 MUL ADD PUSH1 0x3 ADD PUSH0 SWAP1 SLOAD SWAP1 PUSH2 0x100 EXP SWAP1 DIV PUSH1 0xFF AND PUSH2 0xCFF JUMPI PUSH0 DUP3 PUSH0 ADD DUP3 DUP2 SLOAD DUP2 LT PUSH2 0xC70 JUMPI PUSH2 0xC6F PUSH2 0x1992 JUMP JUMPDEST JUMPDEST SWAP1 PUSH0 MSTORE PUSH1 0x20 PUSH0 KECCAK256 SWAP1 PUSH1 0x4 MUL ADD PUSH1 0x1 ADD SLOAD NUMBER PUSH2 0xC8B SWAP2 SWAP1 PUSH2 0x19EC JUMP JUMPDEST SWAP1 POP PUSH3 0x107AC0 DUP2 LT PUSH2 0xCFD JUMPI DUP3 PUSH0 ADD DUP3 DUP2 SLOAD DUP2 LT PUSH2 0xCAC JUMPI PUSH2 0xCAB PUSH2 0x1992 JUMP JUMPDEST JUMPDEST SWAP1 PUSH0 MSTORE PUSH1 0x20 PUSH0 KECCAK256 SWAP1 PUSH1 0x4 MUL ADD PUSH0 ADD SLOAD DUP4 PUSH1 0x1 ADD PUSH0 DUP3 DUP3 SLOAD PUSH2 0xCCD SWAP2 SWAP1 PUSH2 0x1A1F JUMP JUMPDEST SWAP3 POP POP DUP2 SWAP1 SSTORE POP PUSH0 DUP4 PUSH0 ADD DUP4 DUP2 SLOAD DUP2 LT PUSH2 0xCEA JUMPI PUSH2 0xCE9 PUSH2 0x1992 JUMP JUMPDEST JUMPDEST SWAP1 PUSH0 MSTORE PUSH1 0x20 PUSH0 KECCAK256 SWAP1 PUSH1 0x4 MUL ADD PUSH0 ADD DUP2 SWAP1 SSTORE POP JUMPDEST POP JUMPDEST DUP1 DUP1 PUSH1 0x1 ADD SWAP2 POP POP PUSH2 0xC17 JUMP JUMPDEST POP POP POP JUMP JUMPDEST PUSH2 0x1C20 PUSH1 0x5 SLOAD PUSH2 0xD21 SWAP2 SWAP1 PUSH2 0x1A1F JUMP JUMPDEST NUMBER LT ISZERO PUSH2 0xD63 JUMPI PUSH1 0x40 MLOAD PUSH32 0x8C379A000000000000000000000000000000000000000000000000000000000 DUP2 MSTORE PUSH1 0x4 ADD PUSH2 0xD5A SWAP1 PUSH2 0x1D14 JUMP JUMPDEST PUSH1 0x40 MLOAD DUP1 SWAP2 SUB SWAP1 REVERT JUMPDEST NUMBER PUSH1 0x5 DUP2 SWAP1 SSTORE POP PUSH0 PUSH0 SWAP1 POP JUMPDEST PUSH1 0x9 DUP1 SLOAD SWAP1 POP DUP2 LT ISZERO PUSH2 0x103C JUMPI PUSH0 PUSH1 0x9 DUP3 DUP2 SLOAD DUP2 LT PUSH2 0xD91 JUMPI PUSH2 0xD90 PUSH2 0x1992 JUMP JUMPDEST JUMPDEST SWAP1 PUSH0 MSTORE PUSH1 0x20 PUSH0 KECCAK256 ADD PUSH0 SWAP1 SLOAD SWAP1 PUSH2 0x100 EXP SWAP1 DIV PUSH20 0xFFFFFFFFFFFFFFFFFFFFFFFFFFFFFFFFFFFFFFFF AND SWAP1 POP PUSH1 0x3 PUSH1 0x1 PUSH0 SWAP1 SLOAD SWAP1 PUSH2 0x100 EXP SWAP1 DIV PUSH20 0xFFFFFFFFFFFFFFFFFFFFFFFFFFFFFFFFFFFFFFFF AND PUSH20 0xFFFFFFFFFFFFFFFFFFFFFFFFFFFFFFFFFFFFFFFF AND PUSH4 0x7279C14E DUP4 PUSH1 0x40 MLOAD DUP3 PUSH4 0xFFFFFFFF AND PUSH1 0xE0 SHL DUP2 MSTORE PUSH1 0x4 ADD PUSH2 0xE17 SWAP2 SWAP1 PUSH2 0x1797 JUMP JUMPDEST PUSH1 0x20 PUSH1 0x40 MLOAD DUP1 DUP4 SUB DUP2 DUP7 GAS STATICCALL ISZERO DUP1 ISZERO PUSH2 0xE32 JUMPI RETURNDATASIZE PUSH0 PUSH0 RETURNDATACOPY RETURNDATASIZE PUSH0 REVERT JUMPDEST POP POP POP POP PUSH1 0x40 MLOAD RETURNDATASIZE PUSH1 0x1F NOT PUSH1 0x1F DUP3 ADD AND DUP3 ADD DUP1 PUSH1 0x40 MSTORE POP DUP2 ADD SWAP1 PUSH2 0xE56 SWAP2 SWAP1 PUSH2 0x1D46 JUMP JUMPDEST LT PUSH2 0xFA7 JUMPI PUSH0 PUSH1 0x64 PUSH1 0x1E PUSH1 0x3 SLOAD PUSH2 0xE6D SWAP2 SWAP1 PUSH2 0x1B3D JUMP JUMPDEST PUSH2 0xE77 SWAP2 SWAP1 PUSH2 0x1B0D JUMP JUMPDEST SWAP1 POP DUP1 PUSH1 0x7 PUSH0 DUP5 PUSH20 0xFFFFFFFFFFFFFFFFFFFFFFFFFFFFFFFFFFFFFFFF AND PUSH20 0xFFFFFFFFFFFFFFFFFFFFFFFFFFFFFFFFFFFFFFFF AND DUP2 MSTORE PUSH1 0x20 ADD SWAP1 DUP2 MSTORE PUSH1 0x20 ADD PUSH0 KECCAK256 PUSH1 0x1 ADD PUSH0 DUP3 DUP3 SLOAD PUSH2 0xEC8 SWAP2 SWAP1 PUSH2 0x1A1F JUMP JUMPDEST SWAP3 POP POP DUP2 SWAP1 SSTORE POP PUSH1 0x7 PUSH0 DUP4 PUSH20 0xFFFFFFFFFFFFFFFFFFFFFFFFFFFFFFFFFFFFFFFF AND PUSH20 0xFFFFFFFFFFFFFFFFFFFFFFFFFFFFFFFFFFFFFFFF AND DUP2 MSTORE PUSH1 0x20 ADD SWAP1 DUP2 MSTORE PUSH1 0x20 ADD PUSH0 KECCAK256 PUSH0 ADD PUSH1 0x40 MLOAD DUP1 PUSH1 0x80 ADD PUSH1 0x40 MSTORE DUP1 DUP4 PUSH1 0x3 SLOAD PUSH2 0xF27 SWAP2 SWAP1 PUSH2 0x19EC JUMP JUMPDEST DUP2 MSTORE PUSH1 0x20 ADD PUSH1 0x5 SLOAD DUP2 MSTORE PUSH1 0x20 ADD PUSH1 0x5 SLOAD DUP2 MSTORE PUSH1 0x20 ADD PUSH0 ISZERO ISZERO DUP2 MSTORE POP SWAP1 DUP1 PUSH1 0x1 DUP2 SLOAD ADD DUP1 DUP3 SSTORE DUP1 SWAP2 POP POP PUSH1 0x1 SWAP1 SUB SWAP1 PUSH0 MSTORE PUSH1 0x20 PUSH0 KECCAK256 SWAP1 PUSH1 0x4 MUL ADD PUSH0 SWAP1 SWAP2 SWAP1 SWAP2 SWAP1 SWAP2 POP PUSH0 DUP3 ADD MLOAD DUP2 PUSH0 ADD SSTORE PUSH1 0x20 DUP3 ADD MLOAD DUP2 PUSH1 0x1 ADD SSTORE PUSH1 0x40 DUP3 ADD MLOAD DUP2 PUSH1 0x2 ADD SSTORE PUSH1 0x60 DUP3 ADD MLOAD DUP2 PUSH1 0x3 ADD PUSH0 PUSH2 0x100 EXP DUP2 SLOAD DUP2 PUSH1 0xFF MUL NOT AND SWAP1 DUP4 ISZERO ISZERO MUL OR SWAP1 SSTORE POP POP POP POP JUMPDEST PUSH1 0x1 PUSH0 SWAP1 SLOAD SWAP1 PUSH2 0x100 EXP SWAP1 DIV PUSH20 0xFFFFFFFFFFFFFFFFFFFFFFFFFFFFFFFFFFFFFFFF AND PUSH20 0xFFFFFFFFFFFFFFFFFFFFFFFFFFFFFFFFFFFFFFFF AND PUSH4 0x3BC8DF83 DUP3 PUSH1 0x40 MLOAD DUP3 PUSH4 0xFFFFFFFF AND PUSH1 0xE0 SHL DUP2 MSTORE PUSH1 0x4 ADD PUSH2 0x1001 SWAP2 SWAP1 PUSH2 0x1797 JUMP JUMPDEST PUSH0 PUSH1 0x40 MLOAD DUP1 DUP4 SUB DUP2 PUSH0 DUP8 DUP1 EXTCODESIZE ISZERO DUP1 ISZERO PUSH2 0x1018 JUMPI PUSH0 PUSH0 REVERT JUMPDEST POP GAS CALL ISZERO DUP1 ISZERO PUSH2 0x102A JUMPI RETURNDATASIZE PUSH0 PUSH0 RETURNDATACOPY RETURNDATASIZE PUSH0 REVERT JUMPDEST POP POP POP POP POP DUP1 DUP1 PUSH1 0x1 ADD SWAP2 POP POP PUSH2 0xD6F JUMP JUMPDEST POP JUMP JUMPDEST PUSH3 0x107AC0 DUP2 JUMP JUMPDEST PUSH1 0x2 PUSH0 SWAP1 SLOAD SWAP1 PUSH2 0x100 EXP SWAP1 DIV PUSH20 0xFFFFFFFFFFFFFFFFFFFFFFFFFFFFFFFFFFFFFFFF AND DUP2 JUMP JUMPDEST PUSH1 0x2 PUSH0 SWAP1 SLOAD SWAP1 PUSH2 0x100 EXP SWAP1 DIV PUSH20 0xFFFFFFFFFFFFFFFFFFFFFFFFFFFFFFFFFFFFFFFF AND PUSH20 0xFFFFFFFFFFFFFFFFFFFFFFFFFFFFFFFFFFFFFFFF AND CALLER PUSH20 0xFFFFFFFFFFFFFFFFFFFFFFFFFFFFFFFFFFFFFFFF AND EQ PUSH2 0x10FA JUMPI PUSH1 0x40 MLOAD PUSH32 0x8C379A000000000000000000000000000000000000000000000000000000000 DUP2 MSTORE PUSH1 0x4 ADD PUSH2 0x10F1 SWAP1 PUSH2 0x1DBB JUMP JUMPDEST PUSH1 0x40 MLOAD DUP1 SWAP2 SUB SWAP1 REVERT JUMPDEST PUSH0 DUP2 GT PUSH2 0x113C JUMPI PUSH1 0x40 MLOAD PUSH32 0x8C379A000000000000000000000000000000000000000000000000000000000 DUP2 MSTORE PUSH1 0x4 ADD PUSH2 0x1133 SWAP1 PUSH2 0x1E23 JUMP JUMPDEST PUSH1 0x40 MLOAD DUP1 SWAP2 SUB SWAP1 REVERT JUMPDEST POP JUMP JUMPDEST PUSH1 0x6 PUSH1 0x20 MSTORE DUP1 PUSH0 MSTORE PUSH1 0x40 PUSH0 KECCAK256 PUSH0 SWAP2 POP SLOAD SWAP1 PUSH2 0x100 EXP SWAP1 DIV PUSH20 0xFFFFFFFFFFFFFFFFFFFFFFFFFFFFFFFFFFFFFFFF AND DUP2 JUMP JUMPDEST PUSH1 0x3 SLOAD DUP2 JUMP JUMPDEST PUSH1 0x1 PUSH0 SWAP1 SLOAD SWAP1 PUSH2 0x100 EXP SWAP1 DIV PUSH20 0xFFFFFFFFFFFFFFFFFFFFFFFFFFFFFFFFFFFFFFFF AND DUP2 JUMP JUMPDEST PUSH1 0x9 DUP2 DUP2 SLOAD DUP2 LT PUSH2 0x11A9 JUMPI PUSH0 DUP1 REVERT JUMPDEST SWAP1 PUSH0 MSTORE PUSH1 0x20 PUSH0 KECCAK256 ADD PUSH0 SWAP2 POP SLOAD SWAP1 PUSH2 0x100 EXP SWAP1 DIV PUSH20 0xFFFFFFFFFFFFFFFFFFFFFFFFFFFFFFFFFFFFFFFF AND DUP2 JUMP JUMPDEST CALLER PUSH20 0xFFFFFFFFFFFFFFFFFFFFFFFFFFFFFFFFFFFFFFFF AND PUSH1 0x6 PUSH0 DUP4 PUSH20 0xFFFFFFFFFFFFFFFFFFFFFFFFFFFFFFFFFFFFFFFF AND PUSH20 0xFFFFFFFFFFFFFFFFFFFFFFFFFFFFFFFFFFFFFFFF AND DUP2 MSTORE PUSH1 0x20 ADD SWAP1 DUP2 MSTORE PUSH1 0x20 ADD PUSH0 KECCAK256 PUSH0 SWAP1 SLOAD SWAP1 PUSH2 0x100 EXP SWAP1 DIV PUSH20 0xFFFFFFFFFFFFFFFFFFFFFFFFFFFFFFFFFFFFFFFF AND PUSH20 0xFFFFFFFFFFFFFFFFFFFFFFFFFFFFFFFFFFFFFFFF AND EQ PUSH2 0x129F JUMPI PUSH1 0x40 MLOAD PUSH32 0x8C379A000000000000000000000000000000000000000000000000000000000 DUP2 MSTORE PUSH1 0x4 ADD PUSH2 0x1296 SWAP1 PUSH2 0x190C JUMP JUMPDEST PUSH1 0x40 MLOAD DUP1 SWAP2 SUB SWAP1 REVERT JUMPDEST PUSH0 PUSH1 0x7 PUSH0 DUP4 PUSH20 0xFFFFFFFFFFFFFFFFFFFFFFFFFFFFFFFFFFFFFFFF AND PUSH20 0xFFFFFFFFFFFFFFFFFFFFFFFFFFFFFFFFFFFFFFFF AND DUP2 MSTORE PUSH1 0x20 ADD SWAP1 DUP2 MSTORE PUSH1 0x20 ADD PUSH0 KECCAK256 SWAP1 POP PUSH0 PUSH0 SWAP1 POP PUSH0 PUSH0 SWAP1 POP JUMPDEST DUP3 PUSH0 ADD DUP1 SLOAD SWAP1 POP DUP2 LT ISZERO PUSH2 0x13E6 JUMPI DUP3 PUSH0 ADD DUP2 DUP2 SLOAD DUP2 LT PUSH2 0x130B JUMPI PUSH2 0x130A PUSH2 0x1992 JUMP JUMPDEST JUMPDEST SWAP1 PUSH0 MSTORE PUSH1 0x20 PUSH0 KECCAK256 SWAP1 PUSH1 0x4 MUL ADD PUSH1 0x3 ADD PUSH0 SWAP1 SLOAD SWAP1 PUSH2 0x100 EXP SWAP1 DIV PUSH1 0xFF AND PUSH2 0x13D9 JUMPI PUSH1 0x64 PUSH1 0x1E DUP5 PUSH0 ADD DUP4 DUP2 SLOAD DUP2 LT PUSH2 0x1344 JUMPI PUSH2 0x1343 PUSH2 0x1992 JUMP JUMPDEST JUMPDEST SWAP1 PUSH0 MSTORE PUSH1 0x20 PUSH0 KECCAK256 SWAP1 PUSH1 0x4 MUL ADD PUSH0 ADD SLOAD PUSH2 0x135D SWAP2 SWAP1 PUSH2 0x1B3D JUMP JUMPDEST PUSH2 0x1367 SWAP2 SWAP1 PUSH2 0x1B0D JUMP JUMPDEST DUP3 PUSH2 0x1372 SWAP2 SWAP1 PUSH2 0x1A1F JUMP JUMPDEST SWAP2 POP PUSH1 0x1 DUP4 PUSH0 ADD DUP3 DUP2 SLOAD DUP2 LT PUSH2 0x138B JUMPI PUSH2 0x138A PUSH2 0x1992 JUMP JUMPDEST JUMPDEST SWAP1 PUSH0 MSTORE PUSH1 0x20 PUSH0 KECCAK256 SWAP1 PUSH1 0x4 MUL ADD PUSH1 0x3 ADD PUSH0 PUSH2 0x100 EXP DUP2 SLOAD DUP2 PUSH1 0xFF MUL NOT AND SWAP1 DUP4 ISZERO ISZERO MUL OR SWAP1 SSTORE POP PUSH0 DUP4 PUSH0 ADD DUP3 DUP2 SLOAD DUP2 LT PUSH2 0x13C6 JUMPI PUSH2 0x13C5 PUSH2 0x1992 JUMP JUMPDEST JUMPDEST SWAP1 PUSH0 MSTORE PUSH1 0x20 PUSH0 KECCAK256 SWAP1 PUSH1 0x4 MUL ADD PUSH0 ADD DUP2 SWAP1 SSTORE POP JUMPDEST DUP1 DUP1 PUSH1 0x1 ADD SWAP2 POP POP PUSH2 0x12E8 JUMP JUMPDEST POP PUSH0 DUP2 GT PUSH2 0x1429 JUMPI PUSH1 0x40 MLOAD PUSH32 0x8C379A000000000000000000000000000000000000000000000000000000000 DUP2 MSTORE PUSH1 0x4 ADD PUSH2 0x1420 SWAP1 PUSH2 0x1974 JUMP JUMPDEST PUSH1 0x40 MLOAD DUP1 SWAP2 SUB SWAP1 REVERT JUMPDEST DUP1 DUP3 PUSH1 0x1 ADD PUSH0 DUP3 DUP3 SLOAD PUSH2 0x143C SWAP2 SWAP1 PUSH2 0x1A1F JUMP JUMPDEST SWAP3 POP POP DUP2 SWAP1 SSTORE POP POP POP POP JUMP JUMPDEST PUSH1 0x2 PUSH0 SWAP1 SLOAD SWAP1 PUSH2 0x100 EXP SWAP1 DIV PUSH20 0xFFFFFFFFFFFFFFFFFFFFFFFFFFFFFFFFFFFFFFFF AND PUSH20 0xFFFFFFFFFFFFFFFFFFFFFFFFFFFFFFFFFFFFFFFF AND CALLER PUSH20 0xFFFFFFFFFFFFFFFFFFFFFFFFFFFFFFFFFFFFFFFF AND EQ PUSH2 0x14D7 JUMPI PUSH1 0x40 MLOAD PUSH32 0x8C379A000000000000000000000000000000000000000000000000000000000 DUP2 MSTORE PUSH1 0x4 ADD PUSH2 0x14CE SWAP1 PUSH2 0x1DBB JUMP JUMPDEST PUSH1 0x40 MLOAD DUP1 SWAP2 SUB SWAP1 REVERT JUMPDEST PUSH1 0x8 PUSH0 DUP3 PUSH20 0xFFFFFFFFFFFFFFFFFFFFFFFFFFFFFFFFFFFFFFFF AND PUSH20 0xFFFFFFFFFFFFFFFFFFFFFFFFFFFFFFFFFFFFFFFF AND DUP2 MSTORE PUSH1 0x20 ADD SWAP1 DUP2 MSTORE PUSH1 0x20 ADD PUSH0 KECCAK256 PUSH0 SWAP1 SLOAD SWAP1 PUSH2 0x100 EXP SWAP1 DIV PUSH1 0xFF AND ISZERO PUSH2 0x1561 JUMPI PUSH1 0x40 MLOAD PUSH32 0x8C379A000000000000000000000000000000000000000000000000000000000 DUP2 MSTORE PUSH1 0x4 ADD PUSH2 0x1558 SWAP1 PUSH2 0x1E8B JUMP JUMPDEST PUSH1 0x40 MLOAD DUP1 SWAP2 SUB SWAP1 REVERT JUMPDEST PUSH1 0x1 PUSH1 0x8 PUSH0 DUP4 PUSH20 0xFFFFFFFFFFFFFFFFFFFFFFFFFFFFFFFFFFFFFFFF AND PUSH20 0xFFFFFFFFFFFFFFFFFFFFFFFFFFFFFFFFFFFFFFFF AND DUP2 MSTORE PUSH1 0x20 ADD SWAP1 DUP2 MSTORE PUSH1 0x20 ADD PUSH0 KECCAK256 PUSH0 PUSH2 0x100 EXP DUP2 SLOAD DUP2 PUSH1 0xFF MUL NOT AND SWAP1 DUP4 ISZERO ISZERO MUL OR SWAP1 SSTORE POP PUSH1 0x9 DUP2 SWAP1 DUP1 PUSH1 0x1 DUP2 SLOAD ADD DUP1 DUP3 SSTORE DUP1 SWAP2 POP POP PUSH1 0x1 SWAP1 SUB SWAP1 PUSH0 MSTORE PUSH1 0x20 PUSH0 KECCAK256 ADD PUSH0 SWAP1 SWAP2 SWAP1 SWAP2 SWAP1 SWAP2 PUSH2 0x100 EXP DUP2 SLOAD DUP2 PUSH20 0xFFFFFFFFFFFFFFFFFFFFFFFFFFFFFFFFFFFFFFFF MUL NOT AND SWAP1 DUP4 PUSH20 0xFFFFFFFFFFFFFFFFFFFFFFFFFFFFFFFFFFFFFFFF AND MUL OR SWAP1 SSTORE POP POP JUMP JUMPDEST PUSH1 0x5 SLOAD DUP2 JUMP JUMPDEST PUSH1 0x4 SLOAD DUP2 JUMP JUMPDEST PUSH0 PUSH0 SWAP1 SLOAD SWAP1 PUSH2 0x100 EXP SWAP1 DIV PUSH20 0xFFFFFFFFFFFFFFFFFFFFFFFFFFFFFFFFFFFFFFFF AND DUP2 JUMP JUMPDEST PUSH0 PUSH1 0x8 PUSH0 DUP4 PUSH20 0xFFFFFFFFFFFFFFFFFFFFFFFFFFFFFFFFFFFFFFFF AND PUSH20 0xFFFFFFFFFFFFFFFFFFFFFFFFFFFFFFFFFFFFFFFF AND DUP2 MSTORE PUSH1 0x20 ADD SWAP1 DUP2 MSTORE PUSH1 0x20 ADD PUSH0 KECCAK256 PUSH0 SWAP1 SLOAD SWAP1 PUSH2 0x100 EXP SWAP1 DIV PUSH1 0xFF AND SWAP1 POP SWAP2 SWAP1 POP JUMP JUMPDEST PUSH0 DUP2 SWAP1 POP SWAP2 SWAP1 POP JUMP JUMPDEST PUSH2 0x16AD DUP2 PUSH2 0x169B JUMP JUMPDEST DUP3 MSTORE POP POP JUMP JUMPDEST PUSH0 PUSH1 0x20 DUP3 ADD SWAP1 POP PUSH2 0x16C6 PUSH0 DUP4 ADD DUP5 PUSH2 0x16A4 JUMP JUMPDEST SWAP3 SWAP2 POP POP JUMP JUMPDEST PUSH0 PUSH0 REVERT JUMPDEST PUSH0 PUSH20 0xFFFFFFFFFFFFFFFFFFFFFFFFFFFFFFFFFFFFFFFF DUP3 AND SWAP1 POP SWAP2 SWAP1 POP JUMP JUMPDEST PUSH0 PUSH2 0x16F9 DUP3 PUSH2 0x16D0 JUMP JUMPDEST SWAP1 POP SWAP2 SWAP1 POP JUMP JUMPDEST PUSH2 0x1709 DUP2 PUSH2 0x16EF JUMP JUMPDEST DUP2 EQ PUSH2 0x1713 JUMPI PUSH0 PUSH0 REVERT JUMPDEST POP JUMP JUMPDEST PUSH0 DUP2 CALLDATALOAD SWAP1 POP PUSH2 0x1724 DUP2 PUSH2 0x1700 JUMP JUMPDEST SWAP3 SWAP2 POP POP JUMP JUMPDEST PUSH0 PUSH1 0x20 DUP3 DUP5 SUB SLT ISZERO PUSH2 0x173F JUMPI PUSH2 0x173E PUSH2 0x16CC JUMP JUMPDEST JUMPDEST PUSH0 PUSH2 0x174C DUP5 DUP3 DUP6 ADD PUSH2 0x1716 JUMP JUMPDEST SWAP2 POP POP SWAP3 SWAP2 POP POP JUMP JUMPDEST PUSH0 DUP2 ISZERO ISZERO SWAP1 POP SWAP2 SWAP1 POP JUMP JUMPDEST PUSH2 0x1769 DUP2 PUSH2 0x1755 JUMP JUMPDEST DUP3 MSTORE POP POP JUMP JUMPDEST PUSH0 PUSH1 0x20 DUP3 ADD SWAP1 POP PUSH2 0x1782 PUSH0 DUP4 ADD DUP5 PUSH2 0x1760 JUMP JUMPDEST SWAP3 SWAP2 POP POP JUMP JUMPDEST PUSH2 0x1791 DUP2 PUSH2 0x16EF JUMP JUMPDEST DUP3 MSTORE POP POP JUMP JUMPDEST PUSH0 PUSH1 0x20 DUP3 ADD SWAP1 POP PUSH2 0x17AA PUSH0 DUP4 ADD DUP5 PUSH2 0x1788 JUMP JUMPDEST SWAP3 SWAP2 POP POP JUMP JUMPDEST PUSH2 0x17B9 DUP2 PUSH2 0x169B JUMP JUMPDEST DUP2 EQ PUSH2 0x17C3 JUMPI PUSH0 PUSH0 REVERT JUMPDEST POP JUMP JUMPDEST PUSH0 DUP2 CALLDATALOAD SWAP1 POP PUSH2 0x17D4 DUP2 PUSH2 0x17B0 JUMP JUMPDEST SWAP3 SWAP2 POP POP JUMP JUMPDEST PUSH0 PUSH1 0x20 DUP3 DUP5 SUB SLT ISZERO PUSH2 0x17EF JUMPI PUSH2 0x17EE PUSH2 0x16CC JUMP JUMPDEST JUMPDEST PUSH0 PUSH2 0x17FC DUP5 DUP3 DUP6 ADD PUSH2 0x17C6 JUMP JUMPDEST SWAP2 POP POP SWAP3 SWAP2 POP POP JUMP JUMPDEST PUSH0 DUP2 SWAP1 POP SWAP2 SWAP1 POP JUMP JUMPDEST PUSH0 PUSH2 0x1828 PUSH2 0x1823 PUSH2 0x181E DUP5 PUSH2 0x16D0 JUMP JUMPDEST PUSH2 0x1805 JUMP JUMPDEST PUSH2 0x16D0 JUMP JUMPDEST SWAP1 POP SWAP2 SWAP1 POP JUMP JUMPDEST PUSH0 PUSH2 0x1839 DUP3 PUSH2 0x180E JUMP JUMPDEST SWAP1 POP SWAP2 SWAP1 POP JUMP JUMPDEST PUSH0 PUSH2 0x184A DUP3 PUSH2 0x182F JUMP JUMPDEST SWAP1 POP SWAP2 SWAP1 POP JUMP JUMPDEST PUSH2 0x185A DUP2 PUSH2 0x1840 JUMP JUMPDEST DUP3 MSTORE POP POP JUMP JUMPDEST PUSH0 PUSH1 0x20 DUP3 ADD SWAP1 POP PUSH2 0x1873 PUSH0 DUP4 ADD DUP5 PUSH2 0x1851 JUMP JUMPDEST SWAP3 SWAP2 POP POP JUMP JUMPDEST PUSH0 PUSH2 0x1883 DUP3 PUSH2 0x182F JUMP JUMPDEST SWAP1 POP SWAP2 SWAP1 POP JUMP JUMPDEST PUSH2 0x1893 DUP2 PUSH2 0x1879 JUMP JUMPDEST DUP3 MSTORE POP POP JUMP JUMPDEST PUSH0 PUSH1 0x20 DUP3 ADD SWAP1 POP PUSH2 0x18AC PUSH0 DUP4 ADD DUP5 PUSH2 0x188A JUMP JUMPDEST SWAP3 SWAP2 POP POP JUMP JUMPDEST PUSH0 DUP3 DUP3 MSTORE PUSH1 0x20 DUP3 ADD SWAP1 POP SWAP3 SWAP2 POP POP JUMP JUMPDEST PUSH32 0x4E6F2062696E64696E6700000000000000000000000000000000000000000000 PUSH0 DUP3 ADD MSTORE POP JUMP JUMPDEST PUSH0 PUSH2 0x18F6 PUSH1 0xA DUP4 PUSH2 0x18B2 JUMP JUMPDEST SWAP2 POP PUSH2 0x1901 DUP3 PUSH2 0x18C2 JUMP JUMPDEST PUSH1 0x20 DUP3 ADD SWAP1 POP SWAP2 SWAP1 POP JUMP JUMPDEST PUSH0 PUSH1 0x20 DUP3 ADD SWAP1 POP DUP2 DUP2 SUB PUSH0 DUP4 ADD MSTORE PUSH2 0x1923 DUP2 PUSH2 0x18EA JUMP JUMPDEST SWAP1 POP SWAP2 SWAP1 POP JUMP JUMPDEST PUSH32 0x4E6F206C6F636B656420746F6B656E7300000000000000000000000000000000 PUSH0 DUP3 ADD MSTORE POP JUMP JUMPDEST PUSH0 PUSH2 0x195E PUSH1 0x10 DUP4 PUSH2 0x18B2 JUMP JUMPDEST SWAP2 POP PUSH2 0x1969 DUP3 PUSH2 0x192A JUMP JUMPDEST PUSH1 0x20 DUP3 ADD SWAP1 POP SWAP2 SWAP1 POP JUMP JUMPDEST PUSH0 PUSH1 0x20 DUP3 ADD SWAP1 POP DUP2 DUP2 SUB PUSH0 DUP4 ADD MSTORE PUSH2 0x198B DUP2 PUSH2 0x1952 JUMP JUMPDEST SWAP1 POP SWAP2 SWAP1 POP JUMP JUMPDEST PUSH32 0x4E487B7100000000000000000000000000000000000000000000000000000000 PUSH0 MSTORE PUSH1 0x32 PUSH1 0x4 MSTORE PUSH1 0x24 PUSH0 REVERT JUMPDEST PUSH32 0x4E487B7100000000000000000000000000000000000000000000000000000000 PUSH0 MSTORE PUSH1 0x11 PUSH1 0x4 MSTORE PUSH1 0x24 PUSH0 REVERT JUMPDEST PUSH0 PUSH2 0x19F6 DUP3 PUSH2 0x169B JUMP JUMPDEST SWAP2 POP PUSH2 0x1A01 DUP4 PUSH2 0x169B JUMP JUMPDEST SWAP3 POP DUP3 DUP3 SUB SWAP1 POP DUP2 DUP2 GT ISZERO PUSH2 0x1A19 JUMPI PUSH2 0x1A18 PUSH2 0x19BF JUMP JUMPDEST JUMPDEST SWAP3 SWAP2 POP POP JUMP JUMPDEST PUSH0 PUSH2 0x1A29 DUP3 PUSH2 0x169B JUMP JUMPDEST SWAP2 POP PUSH2 0x1A34 DUP4 PUSH2 0x169B JUMP JUMPDEST SWAP3 POP DUP3 DUP3 ADD SWAP1 POP DUP1 DUP3 GT ISZERO PUSH2 0x1A4C JUMPI PUSH2 0x1A4B PUSH2 0x19BF JUMP JUMPDEST JUMPDEST SWAP3 SWAP2 POP POP JUMP JUMPDEST PUSH32 0x4E6F74207965742072656163686564206E65787420756E6C6F636B20706F696E PUSH0 DUP3 ADD MSTORE PUSH32 0x7400000000000000000000000000000000000000000000000000000000000000 PUSH1 0x20 DUP3 ADD MSTORE POP JUMP JUMPDEST PUSH0 PUSH2 0x1AAC PUSH1 0x21 DUP4 PUSH2 0x18B2 JUMP JUMPDEST SWAP2 POP PUSH2 0x1AB7 DUP3 PUSH2 0x1A52 JUMP JUMPDEST PUSH1 0x40 DUP3 ADD SWAP1 POP SWAP2 SWAP1 POP JUMP JUMPDEST PUSH0 PUSH1 0x20 DUP3 ADD SWAP1 POP DUP2 DUP2 SUB PUSH0 DUP4 ADD MSTORE PUSH2 0x1AD9 DUP2 PUSH2 0x1AA0 JUMP JUMPDEST SWAP1 POP SWAP2 SWAP1 POP JUMP JUMPDEST PUSH32 0x4E487B7100000000000000000000000000000000000000000000000000000000 PUSH0 MSTORE PUSH1 0x12 PUSH1 0x4 MSTORE PUSH1 0x24 PUSH0 REVERT JUMPDEST PUSH0 PUSH2 0x1B17 DUP3 PUSH2 0x169B JUMP JUMPDEST SWAP2 POP PUSH2 0x1B22 DUP4 PUSH2 0x169B JUMP JUMPDEST SWAP3 POP DUP3 PUSH2 0x1B32 JUMPI PUSH2 0x1B31 PUSH2 0x1AE0 JUMP JUMPDEST JUMPDEST DUP3 DUP3 DIV SWAP1 POP SWAP3 SWAP2 POP POP JUMP JUMPDEST PUSH0 PUSH2 0x1B47 DUP3 PUSH2 0x169B JUMP JUMPDEST SWAP2 POP PUSH2 0x1B52 DUP4 PUSH2 0x169B JUMP JUMPDEST SWAP3 POP DUP3 DUP3 MUL PUSH2 0x1B60 DUP2 PUSH2 0x169B JUMP JUMPDEST SWAP2 POP DUP3 DUP3 DIV DUP5 EQ DUP4 ISZERO OR PUSH2 0x1B77 JUMPI PUSH2 0x1B76 PUSH2 0x19BF JUMP JUMPDEST JUMPDEST POP SWAP3 SWAP2 POP POP JUMP JUMPDEST PUSH32 0x4E6F20756E6C6F636B656420746F6B656E732079657400000000000000000000 PUSH0 DUP3 ADD MSTORE POP JUMP JUMPDEST PUSH0 PUSH2 0x1BB2 PUSH1 0x16 DUP4 PUSH2 0x18B2 JUMP JUMPDEST SWAP2 POP PUSH2 0x1BBD DUP3 PUSH2 0x1B7E JUMP JUMPDEST PUSH1 0x20 DUP3 ADD SWAP1 POP SWAP2 SWAP1 POP JUMP JUMPDEST PUSH0 PUSH1 0x20 DUP3 ADD SWAP1 POP DUP2 DUP2 SUB PUSH0 DUP4 ADD MSTORE PUSH2 0x1BDF DUP2 PUSH2 0x1BA6 JUMP JUMPDEST SWAP1 POP SWAP2 SWAP1 POP JUMP JUMPDEST PUSH0 PUSH1 0x40 DUP3 ADD SWAP1 POP PUSH2 0x1BF9 PUSH0 DUP4 ADD DUP6 PUSH2 0x1788 JUMP JUMPDEST PUSH2 0x1C06 PUSH1 0x20 DUP4 ADD DUP5 PUSH2 0x16A4 JUMP JUMPDEST SWAP4 SWAP3 POP POP POP JUMP JUMPDEST PUSH2 0x1C16 DUP2 PUSH2 0x1755 JUMP JUMPDEST DUP2 EQ PUSH2 0x1C20 JUMPI PUSH0 PUSH0 REVERT JUMPDEST POP JUMP JUMPDEST PUSH0 DUP2 MLOAD SWAP1 POP PUSH2 0x1C31 DUP2 PUSH2 0x1C0D JUMP JUMPDEST SWAP3 SWAP2 POP POP JUMP JUMPDEST PUSH0 PUSH1 0x20 DUP3 DUP5 SUB SLT ISZERO PUSH2 0x1C4C JUMPI PUSH2 0x1C4B PUSH2 0x16CC JUMP JUMPDEST JUMPDEST PUSH0 PUSH2 0x1C59 DUP5 DUP3 DUP6 ADD PUSH2 0x1C23 JUMP JUMPDEST SWAP2 POP POP SWAP3 SWAP2 POP POP JUMP JUMPDEST PUSH32 0x5472616E73666572206661696C65640000000000000000000000000000000000 PUSH0 DUP3 ADD MSTORE POP JUMP JUMPDEST PUSH0 PUSH2 0x1C96 PUSH1 0xF DUP4 PUSH2 0x18B2 JUMP JUMPDEST SWAP2 POP PUSH2 0x1CA1 DUP3 PUSH2 0x1C62 JUMP JUMPDEST PUSH1 0x20 DUP3 ADD SWAP1 POP SWAP2 SWAP1 POP JUMP JUMPDEST PUSH0 PUSH1 0x20 DUP3 ADD SWAP1 POP DUP2 DUP2 SUB PUSH0 DUP4 ADD MSTORE PUSH2 0x1CC3 DUP2 PUSH2 0x1C8A JUMP JUMPDEST SWAP1 POP SWAP2 SWAP1 POP JUMP JUMPDEST PUSH32 0x446973747269627574696F6E206E6F7420726561647900000000000000000000 PUSH0 DUP3 ADD MSTORE POP JUMP JUMPDEST PUSH0 PUSH2 0x1CFE PUSH1 0x16 DUP4 PUSH2 0x18B2 JUMP JUMPDEST SWAP2 POP PUSH2 0x1D09 DUP3 PUSH2 0x1CCA JUMP JUMPDEST PUSH1 0x20 DUP3 ADD SWAP1 POP SWAP2 SWAP1 POP JUMP JUMPDEST PUSH0 PUSH1 0x20 DUP3 ADD SWAP1 POP DUP2 DUP2 SUB PUSH0 DUP4 ADD MSTORE PUSH2 0x1D2B DUP2 PUSH2 0x1CF2 JUMP JUMPDEST SWAP1 POP SWAP2 SWAP1 POP JUMP JUMPDEST PUSH0 DUP2 MLOAD SWAP1 POP PUSH2 0x1D40 DUP2 PUSH2 0x17B0 JUMP JUMPDEST SWAP3 SWAP2 POP POP JUMP JUMPDEST PUSH0 PUSH1 0x20 DUP3 DUP5 SUB SLT ISZERO PUSH2 0x1D5B JUMPI PUSH2 0x1D5A PUSH2 0x16CC JUMP JUMPDEST JUMPDEST PUSH0 PUSH2 0x1D68 DUP5 DUP3 DUP6 ADD PUSH2 0x1D32 JUMP JUMPDEST SWAP2 POP POP SWAP3 SWAP2 POP POP JUMP JUMPDEST PUSH32 0x4F6E6C79206F776E65722063616E2063616C6C00000000000000000000000000 PUSH0 DUP3 ADD MSTORE POP JUMP JUMPDEST PUSH0 PUSH2 0x1DA5 PUSH1 0x13 DUP4 PUSH2 0x18B2 JUMP JUMPDEST SWAP2 POP PUSH2 0x1DB0 DUP3 PUSH2 0x1D71 JUMP JUMPDEST PUSH1 0x20 DUP3 ADD SWAP1 POP SWAP2 SWAP1 POP JUMP JUMPDEST PUSH0 PUSH1 0x20 DUP3 ADD SWAP1 POP DUP2 DUP2 SUB PUSH0 DUP4 ADD MSTORE PUSH2 0x1DD2 DUP2 PUSH2 0x1D99 JUMP JUMPDEST SWAP1 POP SWAP2 SWAP1 POP JUMP JUMPDEST PUSH32 0x4C6F636B20706572696F64206D75737420626520706F73697469766500000000 PUSH0 DUP3 ADD MSTORE POP JUMP JUMPDEST PUSH0 PUSH2 0x1E0D PUSH1 0x1C DUP4 PUSH2 0x18B2 JUMP JUMPDEST SWAP2 POP PUSH2 0x1E18 DUP3 PUSH2 0x1DD9 JUMP JUMPDEST PUSH1 0x20 DUP3 ADD SWAP1 POP SWAP2 SWAP1 POP JUMP JUMPDEST PUSH0 PUSH1 0x20 DUP3 ADD SWAP1 POP DUP2 DUP2 SUB PUSH0 DUP4 ADD MSTORE PUSH2 0x1E3A DUP2 PUSH2 0x1E01 JUMP JUMPDEST SWAP1 POP SWAP2 SWAP1 POP JUMP JUMPDEST PUSH32 0x57616C6C657420616C7265616479206164646564000000000000000000000000 PUSH0 DUP3 ADD MSTORE POP JUMP JUMPDEST PUSH0 PUSH2 0x1E75 PUSH1 0x14 DUP4 PUSH2 0x18B2 JUMP JUMPDEST SWAP2 POP PUSH2 0x1E80 DUP3 PUSH2 0x1E41 JUMP JUMPDEST PUSH1 0x20 DUP3 ADD SWAP1 POP SWAP2 SWAP1 POP JUMP JUMPDEST PUSH0 PUSH1 0x20 DUP3 ADD SWAP1 POP DUP2 DUP2 SUB PUSH0 DUP4 ADD MSTORE PUSH2 0x1EA2 DUP2 PUSH2 0x1E69 JUMP JUMPDEST SWAP1 POP SWAP2 SWAP1 POP JUMP INVALID LOG2 PUSH5 0x6970667358 0x22 SLT KECCAK256 DUP15 0xD8 PUSH28 0x55B4AE203669A894849B6A39A39625A68D3B9704824C01391F54C78B 0xD0 PUSH5 0x736F6C6343 STOP ADDMOD SHR STOP CALLER "
				},
				"gasEstimates": {
					"creation": {
						"codeDepositCost": "1580600",
						"executionCost": "infinite",
						"totalCost": "infinite"
					},
					"external": {
						"DISTRIBUTION_BLOCK_INTERVAL()": "415",
						"EARLY_UNLOCK_PERCENT()": "349",
						"LOCK_BLOCKS()": "414",
						"addWallet(address)": "77835",
						"authorizedAddress(address)": "2945",
						"bindingWallets(address)": "infinite",
						"checker()": "infinite",
						"claimReleaseTokens(address)": "infinite",
						"claimUnlockedTokens(address)": "infinite",
						"distributeRewards()": "infinite",
						"earlyUnlock(address)": "infinite",
						"isAuthorized(address)": "3002",
						"lastDistributionBlock()": "2491",
						"lockedBalances(address)": "2862",
						"onlineReward()": "2492",
						"owner()": "2619",
						"recipients(uint256)": "5055",
						"roundUnlock()": "2513",
						"token()": "infinite",
						"updateLockPeriod(uint256)": "2897",
						"withdraw(address)": "infinite"
					}
				},
				"methodIdentifiers": {
					"DISTRIBUTION_BLOCK_INTERVAL()": "31008aae",
					"EARLY_UNLOCK_PERCENT()": "012e0867",
					"LOCK_BLOCKS()": "82dc7c9d",
					"addWallet(address)": "efeb5f1f",
					"authorizedAddress(address)": "3638104a",
					"bindingWallets(address)": "9eda5810",
					"checker()": "cf5303cf",
					"claimReleaseTokens(address)": "13c6dabf",
					"claimUnlockedTokens(address)": "69a63036",
					"distributeRewards()": "6f4a2cd0",
					"earlyUnlock(address)": "df4d971d",
					"isAuthorized(address)": "fe9fbb80",
					"lastDistributionBlock()": "f2bc79a3",
					"lockedBalances(address)": "0483a7f6",
					"onlineReward()": "cb3cc126",
					"owner()": "8da5cb5b",
					"recipients(uint256)": "d1bc76a1",
					"roundUnlock()": "f5c330a8",
					"token()": "fc0c546a",
					"updateLockPeriod(uint256)": "91db7b0d",
					"withdraw(address)": "51cff8d9"
				}
			},
			"storageLayout": {
				"storage": [
					{
						"astId": 50,
						"contract": "contracts/test.sol:AutoDistribution",
						"label": "token",
						"offset": 0,
						"slot": "0",
						"type": "t_contract(IERC20)34"
					},
					{
						"astId": 53,
						"contract": "contracts/test.sol:AutoDistribution",
						"label": "checker",
						"offset": 0,
						"slot": "1",
						"type": "t_contract(CHECKER)47"
					},
					{
						"astId": 55,
						"contract": "contracts/test.sol:AutoDistribution",
						"label": "owner",
						"offset": 0,
						"slot": "2",
						"type": "t_address"
					},
					{
						"astId": 58,
						"contract": "contracts/test.sol:AutoDistribution",
						"label": "onlineReward",
						"offset": 0,
						"slot": "3",
						"type": "t_uint256"
					},
					{
						"astId": 68,
						"contract": "contracts/test.sol:AutoDistribution",
						"label": "roundUnlock",
						"offset": 0,
						"slot": "4",
						"type": "t_uint256"
					},
					{
						"astId": 70,
						"contract": "contracts/test.sol:AutoDistribution",
						"label": "lastDistributionBlock",
						"offset": 0,
						"slot": "5",
						"type": "t_uint256"
					},
					{
						"astId": 99,
						"contract": "contracts/test.sol:AutoDistribution",
						"label": "bindingWallets",
						"offset": 0,
						"slot": "6",
						"type": "t_mapping(t_address,t_address)"
					},
					{
						"astId": 104,
						"contract": "contracts/test.sol:AutoDistribution",
						"label": "lockedBalances",
						"offset": 0,
						"slot": "7",
						"type": "t_mapping(t_address,t_struct(Reward)95_storage)"
					},
					{
						"astId": 108,
						"contract": "contracts/test.sol:AutoDistribution",
						"label": "authorizedAddress",
						"offset": 0,
						"slot": "8",
						"type": "t_mapping(t_address,t_bool)"
					},
					{
						"astId": 111,
						"contract": "contracts/test.sol:AutoDistribution",
						"label": "recipients",
						"offset": 0,
						"slot": "9",
						"type": "t_array(t_address)dyn_storage"
					}
				],
				"types": {
					"t_address": {
						"encoding": "inplace",
						"label": "address",
						"numberOfBytes": "20"
					},
					"t_array(t_address)dyn_storage": {
						"base": "t_address",
						"encoding": "dynamic_array",
						"label": "address[]",
						"numberOfBytes": "32"
					},
					"t_array(t_struct(LockInfo)88_storage)dyn_storage": {
						"base": "t_struct(LockInfo)88_storage",
						"encoding": "dynamic_array",
						"label": "struct AutoDistribution.LockInfo[]",
						"numberOfBytes": "32"
					},
					"t_bool": {
						"encoding": "inplace",
						"label": "bool",
						"numberOfBytes": "1"
					},
					"t_contract(CHECKER)47": {
						"encoding": "inplace",
						"label": "contract CHECKER",
						"numberOfBytes": "20"
					},
					"t_contract(IERC20)34": {
						"encoding": "inplace",
						"label": "contract IERC20",
						"numberOfBytes": "20"
					},
					"t_mapping(t_address,t_address)": {
						"encoding": "mapping",
						"key": "t_address",
						"label": "mapping(address => address)",
						"numberOfBytes": "32",
						"value": "t_address"
					},
					"t_mapping(t_address,t_bool)": {
						"encoding": "mapping",
						"key": "t_address",
						"label": "mapping(address => bool)",
						"numberOfBytes": "32",
						"value": "t_bool"
					},
					"t_mapping(t_address,t_struct(Reward)95_storage)": {
						"encoding": "mapping",
						"key": "t_address",
						"label": "mapping(address => struct AutoDistribution.Reward)",
						"numberOfBytes": "32",
						"value": "t_struct(Reward)95_storage"
					},
					"t_struct(LockInfo)88_storage": {
						"encoding": "inplace",
						"label": "struct AutoDistribution.LockInfo",
						"members": [
							{
								"astId": 81,
								"contract": "contracts/test.sol:AutoDistribution",
								"label": "totalAmount",
								"offset": 0,
								"slot": "0",
								"type": "t_uint256"
							},
							{
								"astId": 83,
								"contract": "contracts/test.sol:AutoDistribution",
								"label": "startBlock",
								"offset": 0,
								"slot": "1",
								"type": "t_uint256"
							},
							{
								"astId": 85,
								"contract": "contracts/test.sol:AutoDistribution",
								"label": "lastClaimedBlock",
								"offset": 0,
								"slot": "2",
								"type": "t_uint256"
							},
							{
								"astId": 87,
								"contract": "contracts/test.sol:AutoDistribution",
								"label": "isUnlocked",
								"offset": 0,
								"slot": "3",
								"type": "t_bool"
							}
						],
						"numberOfBytes": "128"
					},
					"t_struct(Reward)95_storage": {
						"encoding": "inplace",
						"label": "struct AutoDistribution.Reward",
						"members": [
							{
								"astId": 92,
								"contract": "contracts/test.sol:AutoDistribution",
								"label": "lockInfo",
								"offset": 0,
								"slot": "0",
								"type": "t_array(t_struct(LockInfo)88_storage)dyn_storage"
							},
							{
								"astId": 94,
								"contract": "contracts/test.sol:AutoDistribution",
								"label": "unlockedAmount",
								"offset": 0,
								"slot": "1",
								"type": "t_uint256"
							}
						],
						"numberOfBytes": "64"
					},
					"t_uint256": {
						"encoding": "inplace",
						"label": "uint256",
						"numberOfBytes": "32"
					}
				}
			},
			"userdoc": {
				"kind": "user",
				"methods": {},
				"version": 1
			}
		}
	}
}