{
	"contracts/checker.sol": {
		"Checker": {
			"abi": [
				{
					"inputs": [
						{
							"internalType": "address",
							"name": "",
							"type": "address"
						},
						{
							"internalType": "uint256",
							"name": "",
							"type": "uint256"
						}
					],
					"name": "checkNode",
					"outputs": [
						{
							"internalType": "bool",
							"name": "",
							"type": "bool"
						}
					],
					"stateMutability": "view",
					"type": "function"
				},
				{
					"inputs": [
						{
							"internalType": "bytes32",
							"name": "messageHash",
							"type": "bytes32"
						},
						{
							"internalType": "uint8",
							"name": "v",
							"type": "uint8"
						},
						{
							"internalType": "bytes32",
							"name": "r",
							"type": "bytes32"
						},
						{
							"internalType": "bytes32",
							"name": "s",
							"type": "bytes32"
						}
					],
					"name": "checkOnline",
					"outputs": [],
					"stateMutability": "nonpayable",
					"type": "function"
				},
				{
					"inputs": [
						{
							"internalType": "address",
							"name": "_address",
							"type": "address"
						}
					],
					"name": "checkPass",
					"outputs": [
						{
							"internalType": "uint256",
							"name": "",
							"type": "uint256"
						}
					],
					"stateMutability": "view",
					"type": "function"
				},
				{
					"inputs": [
						{
							"internalType": "bytes32",
							"name": "messageHash",
							"type": "bytes32"
						}
					],
					"name": "getEthSignedMessageHash",
					"outputs": [
						{
							"internalType": "bytes32",
							"name": "",
							"type": "bytes32"
						}
					],
					"stateMutability": "pure",
					"type": "function"
				},
				{
					"inputs": [
						{
							"internalType": "address",
							"name": "_address",
							"type": "address"
						}
					],
					"name": "resetChecker",
					"outputs": [],
					"stateMutability": "nonpayable",
					"type": "function"
				},
				{
					"inputs": [
						{
							"internalType": "address",
							"name": "signer",
							"type": "address"
						},
						{
							"internalType": "bytes32",
							"name": "messageHash",
							"type": "bytes32"
						},
						{
							"internalType": "uint8",
							"name": "v",
							"type": "uint8"
						},
						{
							"internalType": "bytes32",
							"name": "r",
							"type": "bytes32"
						},
						{
							"internalType": "bytes32",
							"name": "s",
							"type": "bytes32"
						}
					],
					"name": "verify",
					"outputs": [
						{
							"internalType": "bool",
							"name": "",
							"type": "bool"
						}
					],
					"stateMutability": "pure",
					"type": "function"
				}
			],
			"devdoc": {
				"kind": "dev",
				"methods": {},
				"version": 1
			},
			"evm": {
				"assembly": "    /* \"contracts/checker.sol\":57:1281  contract Checker {... */\n  mstore(0x40, 0x80)\n  callvalue\n  dup1\n  iszero\n  tag_1\n  jumpi\n  revert(0x00, 0x00)\ntag_1:\n  pop\n  dataSize(sub_0)\n  dup1\n  dataOffset(sub_0)\n  0x00\n  codecopy\n  0x00\n  return\nstop\n\nsub_0: assembly {\n        /* \"contracts/checker.sol\":57:1281  contract Checker {... */\n      mstore(0x40, 0x80)\n      callvalue\n      dup1\n      iszero\n      tag_1\n      jumpi\n      revert(0x00, 0x00)\n    tag_1:\n      pop\n      jumpi(tag_2, lt(calldatasize, 0x04))\n      shr(0xe0, calldataload(0x00))\n      dup1\n      0x3bc8df83\n      eq\n      tag_3\n      jumpi\n      dup1\n      0x506535f3\n      eq\n      tag_4\n      jumpi\n      dup1\n      0x7279c14e\n      eq\n      tag_5\n      jumpi\n      dup1\n      0xa3f60869\n      eq\n      tag_6\n      jumpi\n      dup1\n      0xc3cf0e72\n      eq\n      tag_7\n      jumpi\n      dup1\n      0xfa540801\n      eq\n      tag_8\n      jumpi\n    tag_2:\n      revert(0x00, 0x00)\n        /* \"contracts/checker.sol\":1189:1279  function resetChecker(address _address) public {... */\n    tag_3:\n      tag_9\n      0x04\n      dup1\n      calldatasize\n      sub\n      dup2\n      add\n      swap1\n      tag_10\n      swap2\n      swap1\n      tag_11\n      jump\t// in\n    tag_10:\n      tag_12\n      jump\t// in\n    tag_9:\n      stop\n        /* \"contracts/checker.sol\":409:717  function verify(... */\n    tag_4:\n      tag_13\n      0x04\n      dup1\n      calldatasize\n      sub\n      dup2\n      add\n      swap1\n      tag_14\n      swap2\n      swap1\n      tag_15\n      jump\t// in\n    tag_14:\n      tag_16\n      jump\t// in\n    tag_13:\n      mload(0x40)\n      tag_17\n      swap2\n      swap1\n      tag_18\n      jump\t// in\n    tag_17:\n      mload(0x40)\n      dup1\n      swap2\n      sub\n      swap1\n      return\n        /* \"contracts/checker.sol\":1069:1183  function checkPass(address _address) public view returns (uint) {... */\n    tag_5:\n      tag_19\n      0x04\n      dup1\n      calldatasize\n      sub\n      dup2\n      add\n      swap1\n      tag_20\n      swap2\n      swap1\n      tag_11\n      jump\t// in\n    tag_20:\n      tag_21\n      jump\t// in\n    tag_19:\n      mload(0x40)\n      tag_22\n      swap2\n      swap1\n      tag_23\n      jump\t// in\n    tag_22:\n      mload(0x40)\n      dup1\n      swap2\n      sub\n      swap1\n      return\n        /* \"contracts/checker.sol\":80:123  mapping(address => bool[]) public checkNode */\n    tag_6:\n      tag_24\n      0x04\n      dup1\n      calldatasize\n      sub\n      dup2\n      add\n      swap1\n      tag_25\n      swap2\n      swap1\n      tag_26\n      jump\t// in\n    tag_25:\n      tag_27\n      jump\t// in\n    tag_24:\n      mload(0x40)\n      tag_28\n      swap2\n      swap1\n      tag_18\n      jump\t// in\n    tag_28:\n      mload(0x40)\n      dup1\n      swap2\n      sub\n      swap1\n      return\n        /* \"contracts/checker.sol\":743:1063  function checkOnline(... */\n    tag_7:\n      tag_29\n      0x04\n      dup1\n      calldatasize\n      sub\n      dup2\n      add\n      swap1\n      tag_30\n      swap2\n      swap1\n      tag_31\n      jump\t// in\n    tag_30:\n      tag_32\n      jump\t// in\n    tag_29:\n      stop\n        /* \"contracts/checker.sol\":193:377  function getEthSignedMessageHash(bytes32 messageHash) public pure returns (bytes32) {... */\n    tag_8:\n      tag_33\n      0x04\n      dup1\n      calldatasize\n      sub\n      dup2\n      add\n      swap1\n      tag_34\n      swap2\n      swap1\n      tag_35\n      jump\t// in\n    tag_34:\n      tag_36\n      jump\t// in\n    tag_33:\n      mload(0x40)\n      tag_37\n      swap2\n      swap1\n      tag_38\n      jump\t// in\n    tag_37:\n      mload(0x40)\n      dup1\n      swap2\n      sub\n      swap1\n      return\n        /* \"contracts/checker.sol\":1189:1279  function resetChecker(address _address) public {... */\n    tag_12:\n        /* \"contracts/checker.sol\":1253:1262  checkNode */\n      0x00\n        /* \"contracts/checker.sol\":1253:1272  checkNode[_address] */\n      0x00\n        /* \"contracts/checker.sol\":1263:1271  _address */\n      dup3\n        /* \"contracts/checker.sol\":1253:1272  checkNode[_address] */\n      0xffffffffffffffffffffffffffffffffffffffff\n      and\n      0xffffffffffffffffffffffffffffffffffffffff\n      and\n      dup2\n      mstore\n      0x20\n      add\n      swap1\n      dup2\n      mstore\n      0x20\n      add\n      0x00\n      keccak256\n      0x00\n        /* \"contracts/checker.sol\":1246:1272  delete checkNode[_address] */\n      tag_40\n      swap2\n      swap1\n      tag_41\n      jump\t// in\n    tag_40:\n        /* \"contracts/checker.sol\":1189:1279  function resetChecker(address _address) public {... */\n      pop\n      jump\t// out\n        /* \"contracts/checker.sol\":409:717  function verify(... */\n    tag_16:\n        /* \"contracts/checker.sol\":560:564  bool */\n      0x00\n        /* \"contracts/checker.sol\":576:604  bytes32 ethSignedMessageHash */\n      0x00\n        /* \"contracts/checker.sol\":607:643  getEthSignedMessageHash(messageHash) */\n      tag_43\n        /* \"contracts/checker.sol\":631:642  messageHash */\n      dup7\n        /* \"contracts/checker.sol\":607:630  getEthSignedMessageHash */\n      tag_36\n        /* \"contracts/checker.sol\":607:643  getEthSignedMessageHash(messageHash) */\n      jump\t// in\n    tag_43:\n        /* \"contracts/checker.sol\":576:643  bytes32 ethSignedMessageHash = getEthSignedMessageHash(messageHash) */\n      swap1\n      pop\n        /* \"contracts/checker.sol\":704:710  signer */\n      dup7\n        /* \"contracts/checker.sol\":660:710  ecrecover(ethSignedMessageHash, v, r, s) == signer */\n      0xffffffffffffffffffffffffffffffffffffffff\n      and\n        /* \"contracts/checker.sol\":660:700  ecrecover(ethSignedMessageHash, v, r, s) */\n      0x01\n        /* \"contracts/checker.sol\":670:690  ethSignedMessageHash */\n      dup3\n        /* \"contracts/checker.sol\":692:693  v */\n      dup8\n        /* \"contracts/checker.sol\":695:696  r */\n      dup8\n        /* \"contracts/checker.sol\":698:699  s */\n      dup8\n        /* \"contracts/checker.sol\":660:700  ecrecover(ethSignedMessageHash, v, r, s) */\n      mload(0x40)\n      0x00\n      dup2\n      mstore\n      0x20\n      add\n      0x40\n      mstore\n      mload(0x40)\n      tag_44\n      swap5\n      swap4\n      swap3\n      swap2\n      swap1\n      tag_45\n      jump\t// in\n    tag_44:\n      0x20\n      mload(0x40)\n      0x20\n      dup2\n      sub\n      swap1\n      dup1\n      dup5\n      sub\n      swap1\n      dup6\n      gas\n      staticcall\n      iszero\n      dup1\n      iszero\n      tag_47\n      jumpi\n      returndatacopy(0x00, 0x00, returndatasize)\n      revert(0x00, returndatasize)\n    tag_47:\n      pop\n      pop\n      pop\n      mload(sub(mload(0x40), 0x20))\n        /* \"contracts/checker.sol\":660:710  ecrecover(ethSignedMessageHash, v, r, s) == signer */\n      0xffffffffffffffffffffffffffffffffffffffff\n      and\n      eq\n        /* \"contracts/checker.sol\":653:710  return ecrecover(ethSignedMessageHash, v, r, s) == signer */\n      swap2\n      pop\n      pop\n        /* \"contracts/checker.sol\":409:717  function verify(... */\n      swap6\n      swap5\n      pop\n      pop\n      pop\n      pop\n      pop\n      jump\t// out\n        /* \"contracts/checker.sol\":1069:1183  function checkPass(address _address) public view returns (uint) {... */\n    tag_21:\n        /* \"contracts/checker.sol\":1127:1131  uint */\n      0x00\n        /* \"contracts/checker.sol\":1150:1159  checkNode */\n      0x00\n        /* \"contracts/checker.sol\":1150:1169  checkNode[_address] */\n      0x00\n        /* \"contracts/checker.sol\":1160:1168  _address */\n      dup4\n        /* \"contracts/checker.sol\":1150:1169  checkNode[_address] */\n      0xffffffffffffffffffffffffffffffffffffffff\n      and\n      0xffffffffffffffffffffffffffffffffffffffff\n      and\n      dup2\n      mstore\n      0x20\n      add\n      swap1\n      dup2\n      mstore\n      0x20\n      add\n      0x00\n      keccak256\n        /* \"contracts/checker.sol\":1150:1176  checkNode[_address].length */\n      dup1\n      sload\n      swap1\n      pop\n        /* \"contracts/checker.sol\":1143:1176  return checkNode[_address].length */\n      swap1\n      pop\n        /* \"contracts/checker.sol\":1069:1183  function checkPass(address _address) public view returns (uint) {... */\n      swap2\n      swap1\n      pop\n      jump\t// out\n        /* \"contracts/checker.sol\":80:123  mapping(address => bool[]) public checkNode */\n    tag_27:\n      mstore(0x20, 0x00)\n      dup2\n      0x00\n      mstore\n      keccak256(0x00, 0x40)\n      dup2\n      dup2\n      sload\n      dup2\n      lt\n      tag_49\n      jumpi\n      0x00\n      dup1\n      revert\n    tag_49:\n      swap1\n      0x00\n      mstore\n      keccak256(0x00, 0x20)\n      swap1\n      0x20\n      swap2\n      dup3\n      dup3\n      div\n      add\n      swap2\n      swap1\n      mod\n      swap2\n      pop\n      swap2\n      pop\n      swap1\n      sload\n      swap1\n      0x0100\n      exp\n      swap1\n      div\n      0xff\n      and\n      dup2\n      jump\t// out\n        /* \"contracts/checker.sol\":743:1063  function checkOnline(... */\n    tag_32:\n        /* \"contracts/checker.sol\":955:995  verify(msg.sender, messageHash, v, r, s) */\n      tag_52\n        /* \"contracts/checker.sol\":962:972  msg.sender */\n      caller\n        /* \"contracts/checker.sol\":974:985  messageHash */\n      dup6\n        /* \"contracts/checker.sol\":987:988  v */\n      dup6\n        /* \"contracts/checker.sol\":990:991  r */\n      dup6\n        /* \"contracts/checker.sol\":993:994  s */\n      dup6\n        /* \"contracts/checker.sol\":955:961  verify */\n      tag_16\n        /* \"contracts/checker.sol\":955:995  verify(msg.sender, messageHash, v, r, s) */\n      jump\t// in\n    tag_52:\n        /* \"contracts/checker.sol\":947:1014  require(verify(msg.sender, messageHash, v, r, s), \"Invalid signer\") */\n      tag_53\n      jumpi\n      mload(0x40)\n      0x08c379a000000000000000000000000000000000000000000000000000000000\n      dup2\n      mstore\n      0x04\n      add\n      tag_54\n      swap1\n      tag_55\n      jump\t// in\n    tag_54:\n      mload(0x40)\n      dup1\n      swap2\n      sub\n      swap1\n      revert\n    tag_53:\n        /* \"contracts/checker.sol\":1024:1033  checkNode */\n      0x00\n        /* \"contracts/checker.sol\":1024:1045  checkNode[msg.sender] */\n      0x00\n        /* \"contracts/checker.sol\":1034:1044  msg.sender */\n      caller\n        /* \"contracts/checker.sol\":1024:1045  checkNode[msg.sender] */\n      0xffffffffffffffffffffffffffffffffffffffff\n      and\n      0xffffffffffffffffffffffffffffffffffffffff\n      and\n      dup2\n      mstore\n      0x20\n      add\n      swap1\n      dup2\n      mstore\n      0x20\n      add\n      0x00\n      keccak256\n        /* \"contracts/checker.sol\":1051:1055  true */\n      0x01\n        /* \"contracts/checker.sol\":1024:1056  checkNode[msg.sender].push(true) */\n      swap1\n      dup1\n      0x01\n      dup2\n      sload\n      add\n      dup1\n      dup3\n      sstore\n      dup1\n      swap2\n      pop\n      pop\n      0x01\n      swap1\n      sub\n      swap1\n      0x00\n      mstore\n      keccak256(0x00, 0x20)\n      swap1\n      0x20\n      swap2\n      dup3\n      dup3\n      div\n      add\n      swap2\n      swap1\n      mod\n      swap1\n      swap2\n      swap1\n      swap2\n      swap1\n      swap2\n      0x0100\n      exp\n      dup2\n      sload\n      dup2\n      0xff\n      mul\n      not\n      and\n      swap1\n      dup4\n      iszero\n      iszero\n      mul\n      or\n      swap1\n      sstore\n      pop\n        /* \"contracts/checker.sol\":743:1063  function checkOnline(... */\n      pop\n      pop\n      pop\n      pop\n      jump\t// out\n        /* \"contracts/checker.sol\":193:377  function getEthSignedMessageHash(bytes32 messageHash) public pure returns (bytes32) {... */\n    tag_36:\n        /* \"contracts/checker.sol\":268:275  bytes32 */\n      0x00\n        /* \"contracts/checker.sol\":357:368  messageHash */\n      dup2\n        /* \"contracts/checker.sol\":304:369  abi.encodePacked(\"\\x19Ethereum Signed Message:\\n32\", messageHash) */\n      add(0x20, mload(0x40))\n      tag_58\n      swap2\n      swap1\n      tag_59\n      jump\t// in\n    tag_58:\n      mload(0x40)\n      0x20\n      dup2\n      dup4\n      sub\n      sub\n      dup2\n      mstore\n      swap1\n      0x40\n      mstore\n        /* \"contracts/checker.sol\":294:370  keccak256(abi.encodePacked(\"\\x19Ethereum Signed Message:\\n32\", messageHash)) */\n      dup1\n      mload\n      swap1\n      0x20\n      add\n      keccak256\n        /* \"contracts/checker.sol\":287:370  return keccak256(abi.encodePacked(\"\\x19Ethereum Signed Message:\\n32\", messageHash)) */\n      swap1\n      pop\n        /* \"contracts/checker.sol\":193:377  function getEthSignedMessageHash(bytes32 messageHash) public pure returns (bytes32) {... */\n      swap2\n      swap1\n      pop\n      jump\t// out\n    tag_41:\n      pop\n      dup1\n      sload\n      0x00\n      dup3\n      sstore\n      0x1f\n      add\n      0x20\n      swap1\n      div\n      swap1\n      0x00\n      mstore\n      keccak256(0x00, 0x20)\n      swap1\n      dup2\n      add\n      swap1\n      tag_61\n      swap2\n      swap1\n      tag_62\n      jump\t// in\n    tag_61:\n      pop\n      jump\t// out\n    tag_62:\n    tag_63:\n      dup1\n      dup3\n      gt\n      iszero\n      tag_64\n      jumpi\n      0x00\n      dup2\n      0x00\n      swap1\n      sstore\n      pop\n      0x01\n      add\n      jump(tag_63)\n    tag_64:\n      pop\n      swap1\n      jump\t// out\n        /* \"#utility.yul\":88:205   */\n    tag_66:\n        /* \"#utility.yul\":197:198   */\n      0x00\n        /* \"#utility.yul\":194:195   */\n      0x00\n        /* \"#utility.yul\":187:199   */\n      revert\n        /* \"#utility.yul\":334:460   */\n    tag_68:\n        /* \"#utility.yul\":371:378   */\n      0x00\n        /* \"#utility.yul\":411:453   */\n      0xffffffffffffffffffffffffffffffffffffffff\n        /* \"#utility.yul\":404:409   */\n      dup3\n        /* \"#utility.yul\":400:454   */\n      and\n        /* \"#utility.yul\":389:454   */\n      swap1\n      pop\n        /* \"#utility.yul\":334:460   */\n      swap2\n      swap1\n      pop\n      jump\t// out\n        /* \"#utility.yul\":466:562   */\n    tag_69:\n        /* \"#utility.yul\":503:510   */\n      0x00\n        /* \"#utility.yul\":532:556   */\n      tag_100\n        /* \"#utility.yul\":550:555   */\n      dup3\n        /* \"#utility.yul\":532:556   */\n      tag_68\n      jump\t// in\n    tag_100:\n        /* \"#utility.yul\":521:556   */\n      swap1\n      pop\n        /* \"#utility.yul\":466:562   */\n      swap2\n      swap1\n      pop\n      jump\t// out\n        /* \"#utility.yul\":568:690   */\n    tag_70:\n        /* \"#utility.yul\":641:665   */\n      tag_102\n        /* \"#utility.yul\":659:664   */\n      dup2\n        /* \"#utility.yul\":641:665   */\n      tag_69\n      jump\t// in\n    tag_102:\n        /* \"#utility.yul\":634:639   */\n      dup2\n        /* \"#utility.yul\":631:666   */\n      eq\n        /* \"#utility.yul\":621:684   */\n      tag_103\n      jumpi\n        /* \"#utility.yul\":680:681   */\n      0x00\n        /* \"#utility.yul\":677:678   */\n      0x00\n        /* \"#utility.yul\":670:682   */\n      revert\n        /* \"#utility.yul\":621:684   */\n    tag_103:\n        /* \"#utility.yul\":568:690   */\n      pop\n      jump\t// out\n        /* \"#utility.yul\":696:835   */\n    tag_71:\n        /* \"#utility.yul\":742:747   */\n      0x00\n        /* \"#utility.yul\":780:786   */\n      dup2\n        /* \"#utility.yul\":767:787   */\n      calldataload\n        /* \"#utility.yul\":758:787   */\n      swap1\n      pop\n        /* \"#utility.yul\":796:829   */\n      tag_105\n        /* \"#utility.yul\":823:828   */\n      dup2\n        /* \"#utility.yul\":796:829   */\n      tag_70\n      jump\t// in\n    tag_105:\n        /* \"#utility.yul\":696:835   */\n      swap3\n      swap2\n      pop\n      pop\n      jump\t// out\n        /* \"#utility.yul\":841:1170   */\n    tag_11:\n        /* \"#utility.yul\":900:906   */\n      0x00\n        /* \"#utility.yul\":949:951   */\n      0x20\n        /* \"#utility.yul\":937:946   */\n      dup3\n        /* \"#utility.yul\":928:935   */\n      dup5\n        /* \"#utility.yul\":924:947   */\n      sub\n        /* \"#utility.yul\":920:952   */\n      slt\n        /* \"#utility.yul\":917:1036   */\n      iszero\n      tag_107\n      jumpi\n        /* \"#utility.yul\":955:1034   */\n      tag_108\n      tag_66\n      jump\t// in\n    tag_108:\n        /* \"#utility.yul\":917:1036   */\n    tag_107:\n        /* \"#utility.yul\":1075:1076   */\n      0x00\n        /* \"#utility.yul\":1100:1153   */\n      tag_109\n        /* \"#utility.yul\":1145:1152   */\n      dup5\n        /* \"#utility.yul\":1136:1142   */\n      dup3\n        /* \"#utility.yul\":1125:1134   */\n      dup6\n        /* \"#utility.yul\":1121:1143   */\n      add\n        /* \"#utility.yul\":1100:1153   */\n      tag_71\n      jump\t// in\n    tag_109:\n        /* \"#utility.yul\":1090:1153   */\n      swap2\n      pop\n        /* \"#utility.yul\":1046:1163   */\n      pop\n        /* \"#utility.yul\":841:1170   */\n      swap3\n      swap2\n      pop\n      pop\n      jump\t// out\n        /* \"#utility.yul\":1176:1253   */\n    tag_72:\n        /* \"#utility.yul\":1213:1220   */\n      0x00\n        /* \"#utility.yul\":1242:1247   */\n      dup2\n        /* \"#utility.yul\":1231:1247   */\n      swap1\n      pop\n        /* \"#utility.yul\":1176:1253   */\n      swap2\n      swap1\n      pop\n      jump\t// out\n        /* \"#utility.yul\":1259:1381   */\n    tag_73:\n        /* \"#utility.yul\":1332:1356   */\n      tag_112\n        /* \"#utility.yul\":1350:1355   */\n      dup2\n        /* \"#utility.yul\":1332:1356   */\n      tag_72\n      jump\t// in\n    tag_112:\n        /* \"#utility.yul\":1325:1330   */\n      dup2\n        /* \"#utility.yul\":1322:1357   */\n      eq\n        /* \"#utility.yul\":1312:1375   */\n      tag_113\n      jumpi\n        /* \"#utility.yul\":1371:1372   */\n      0x00\n        /* \"#utility.yul\":1368:1369   */\n      0x00\n        /* \"#utility.yul\":1361:1373   */\n      revert\n        /* \"#utility.yul\":1312:1375   */\n    tag_113:\n        /* \"#utility.yul\":1259:1381   */\n      pop\n      jump\t// out\n        /* \"#utility.yul\":1387:1526   */\n    tag_74:\n        /* \"#utility.yul\":1433:1438   */\n      0x00\n        /* \"#utility.yul\":1471:1477   */\n      dup2\n        /* \"#utility.yul\":1458:1478   */\n      calldataload\n        /* \"#utility.yul\":1449:1478   */\n      swap1\n      pop\n        /* \"#utility.yul\":1487:1520   */\n      tag_115\n        /* \"#utility.yul\":1514:1519   */\n      dup2\n        /* \"#utility.yul\":1487:1520   */\n      tag_73\n      jump\t// in\n    tag_115:\n        /* \"#utility.yul\":1387:1526   */\n      swap3\n      swap2\n      pop\n      pop\n      jump\t// out\n        /* \"#utility.yul\":1532:1618   */\n    tag_75:\n        /* \"#utility.yul\":1567:1574   */\n      0x00\n        /* \"#utility.yul\":1607:1611   */\n      0xff\n        /* \"#utility.yul\":1600:1605   */\n      dup3\n        /* \"#utility.yul\":1596:1612   */\n      and\n        /* \"#utility.yul\":1585:1612   */\n      swap1\n      pop\n        /* \"#utility.yul\":1532:1618   */\n      swap2\n      swap1\n      pop\n      jump\t// out\n        /* \"#utility.yul\":1624:1742   */\n    tag_76:\n        /* \"#utility.yul\":1695:1717   */\n      tag_118\n        /* \"#utility.yul\":1711:1716   */\n      dup2\n        /* \"#utility.yul\":1695:1717   */\n      tag_75\n      jump\t// in\n    tag_118:\n        /* \"#utility.yul\":1688:1693   */\n      dup2\n        /* \"#utility.yul\":1685:1718   */\n      eq\n        /* \"#utility.yul\":1675:1736   */\n      tag_119\n      jumpi\n        /* \"#utility.yul\":1732:1733   */\n      0x00\n        /* \"#utility.yul\":1729:1730   */\n      0x00\n        /* \"#utility.yul\":1722:1734   */\n      revert\n        /* \"#utility.yul\":1675:1736   */\n    tag_119:\n        /* \"#utility.yul\":1624:1742   */\n      pop\n      jump\t// out\n        /* \"#utility.yul\":1748:1883   */\n    tag_77:\n        /* \"#utility.yul\":1792:1797   */\n      0x00\n        /* \"#utility.yul\":1830:1836   */\n      dup2\n        /* \"#utility.yul\":1817:1837   */\n      calldataload\n        /* \"#utility.yul\":1808:1837   */\n      swap1\n      pop\n        /* \"#utility.yul\":1846:1877   */\n      tag_121\n        /* \"#utility.yul\":1871:1876   */\n      dup2\n        /* \"#utility.yul\":1846:1877   */\n      tag_76\n      jump\t// in\n    tag_121:\n        /* \"#utility.yul\":1748:1883   */\n      swap3\n      swap2\n      pop\n      pop\n      jump\t// out\n        /* \"#utility.yul\":1889:2796   */\n    tag_15:\n        /* \"#utility.yul\":1982:1988   */\n      0x00\n        /* \"#utility.yul\":1990:1996   */\n      0x00\n        /* \"#utility.yul\":1998:2004   */\n      0x00\n        /* \"#utility.yul\":2006:2012   */\n      0x00\n        /* \"#utility.yul\":2014:2020   */\n      0x00\n        /* \"#utility.yul\":2063:2066   */\n      0xa0\n        /* \"#utility.yul\":2051:2060   */\n      dup7\n        /* \"#utility.yul\":2042:2049   */\n      dup9\n        /* \"#utility.yul\":2038:2061   */\n      sub\n        /* \"#utility.yul\":2034:2067   */\n      slt\n        /* \"#utility.yul\":2031:2151   */\n      iszero\n      tag_123\n      jumpi\n        /* \"#utility.yul\":2070:2149   */\n      tag_124\n      tag_66\n      jump\t// in\n    tag_124:\n        /* \"#utility.yul\":2031:2151   */\n    tag_123:\n        /* \"#utility.yul\":2190:2191   */\n      0x00\n        /* \"#utility.yul\":2215:2268   */\n      tag_125\n        /* \"#utility.yul\":2260:2267   */\n      dup9\n        /* \"#utility.yul\":2251:2257   */\n      dup3\n        /* \"#utility.yul\":2240:2249   */\n      dup10\n        /* \"#utility.yul\":2236:2258   */\n      add\n        /* \"#utility.yul\":2215:2268   */\n      tag_71\n      jump\t// in\n    tag_125:\n        /* \"#utility.yul\":2205:2268   */\n      swap6\n      pop\n        /* \"#utility.yul\":2161:2278   */\n      pop\n        /* \"#utility.yul\":2317:2319   */\n      0x20\n        /* \"#utility.yul\":2343:2396   */\n      tag_126\n        /* \"#utility.yul\":2388:2395   */\n      dup9\n        /* \"#utility.yul\":2379:2385   */\n      dup3\n        /* \"#utility.yul\":2368:2377   */\n      dup10\n        /* \"#utility.yul\":2364:2386   */\n      add\n        /* \"#utility.yul\":2343:2396   */\n      tag_74\n      jump\t// in\n    tag_126:\n        /* \"#utility.yul\":2333:2396   */\n      swap5\n      pop\n        /* \"#utility.yul\":2288:2406   */\n      pop\n        /* \"#utility.yul\":2445:2447   */\n      0x40\n        /* \"#utility.yul\":2471:2522   */\n      tag_127\n        /* \"#utility.yul\":2514:2521   */\n      dup9\n        /* \"#utility.yul\":2505:2511   */\n      dup3\n        /* \"#utility.yul\":2494:2503   */\n      dup10\n        /* \"#utility.yul\":2490:2512   */\n      add\n        /* \"#utility.yul\":2471:2522   */\n      tag_77\n      jump\t// in\n    tag_127:\n        /* \"#utility.yul\":2461:2522   */\n      swap4\n      pop\n        /* \"#utility.yul\":2416:2532   */\n      pop\n        /* \"#utility.yul\":2571:2573   */\n      0x60\n        /* \"#utility.yul\":2597:2650   */\n      tag_128\n        /* \"#utility.yul\":2642:2649   */\n      dup9\n        /* \"#utility.yul\":2633:2639   */\n      dup3\n        /* \"#utility.yul\":2622:2631   */\n      dup10\n        /* \"#utility.yul\":2618:2640   */\n      add\n        /* \"#utility.yul\":2597:2650   */\n      tag_74\n      jump\t// in\n    tag_128:\n        /* \"#utility.yul\":2587:2650   */\n      swap3\n      pop\n        /* \"#utility.yul\":2542:2660   */\n      pop\n        /* \"#utility.yul\":2699:2702   */\n      0x80\n        /* \"#utility.yul\":2726:2779   */\n      tag_129\n        /* \"#utility.yul\":2771:2778   */\n      dup9\n        /* \"#utility.yul\":2762:2768   */\n      dup3\n        /* \"#utility.yul\":2751:2760   */\n      dup10\n        /* \"#utility.yul\":2747:2769   */\n      add\n        /* \"#utility.yul\":2726:2779   */\n      tag_74\n      jump\t// in\n    tag_129:\n        /* \"#utility.yul\":2716:2779   */\n      swap2\n      pop\n        /* \"#utility.yul\":2670:2789   */\n      pop\n        /* \"#utility.yul\":1889:2796   */\n      swap3\n      swap6\n      pop\n      swap3\n      swap6\n      swap1\n      swap4\n      pop\n      jump\t// out\n        /* \"#utility.yul\":2802:2892   */\n    tag_78:\n        /* \"#utility.yul\":2836:2843   */\n      0x00\n        /* \"#utility.yul\":2879:2884   */\n      dup2\n        /* \"#utility.yul\":2872:2885   */\n      iszero\n        /* \"#utility.yul\":2865:2886   */\n      iszero\n        /* \"#utility.yul\":2854:2886   */\n      swap1\n      pop\n        /* \"#utility.yul\":2802:2892   */\n      swap2\n      swap1\n      pop\n      jump\t// out\n        /* \"#utility.yul\":2898:3007   */\n    tag_79:\n        /* \"#utility.yul\":2979:3000   */\n      tag_132\n        /* \"#utility.yul\":2994:2999   */\n      dup2\n        /* \"#utility.yul\":2979:3000   */\n      tag_78\n      jump\t// in\n    tag_132:\n        /* \"#utility.yul\":2974:2977   */\n      dup3\n        /* \"#utility.yul\":2967:3001   */\n      mstore\n        /* \"#utility.yul\":2898:3007   */\n      pop\n      pop\n      jump\t// out\n        /* \"#utility.yul\":3013:3223   */\n    tag_18:\n        /* \"#utility.yul\":3100:3104   */\n      0x00\n        /* \"#utility.yul\":3138:3140   */\n      0x20\n        /* \"#utility.yul\":3127:3136   */\n      dup3\n        /* \"#utility.yul\":3123:3141   */\n      add\n        /* \"#utility.yul\":3115:3141   */\n      swap1\n      pop\n        /* \"#utility.yul\":3151:3216   */\n      tag_134\n        /* \"#utility.yul\":3213:3214   */\n      0x00\n        /* \"#utility.yul\":3202:3211   */\n      dup4\n        /* \"#utility.yul\":3198:3215   */\n      add\n        /* \"#utility.yul\":3189:3195   */\n      dup5\n        /* \"#utility.yul\":3151:3216   */\n      tag_79\n      jump\t// in\n    tag_134:\n        /* \"#utility.yul\":3013:3223   */\n      swap3\n      swap2\n      pop\n      pop\n      jump\t// out\n        /* \"#utility.yul\":3229:3306   */\n    tag_80:\n        /* \"#utility.yul\":3266:3273   */\n      0x00\n        /* \"#utility.yul\":3295:3300   */\n      dup2\n        /* \"#utility.yul\":3284:3300   */\n      swap1\n      pop\n        /* \"#utility.yul\":3229:3306   */\n      swap2\n      swap1\n      pop\n      jump\t// out\n        /* \"#utility.yul\":3312:3430   */\n    tag_81:\n        /* \"#utility.yul\":3399:3423   */\n      tag_137\n        /* \"#utility.yul\":3417:3422   */\n      dup2\n        /* \"#utility.yul\":3399:3423   */\n      tag_80\n      jump\t// in\n    tag_137:\n        /* \"#utility.yul\":3394:3397   */\n      dup3\n        /* \"#utility.yul\":3387:3424   */\n      mstore\n        /* \"#utility.yul\":3312:3430   */\n      pop\n      pop\n      jump\t// out\n        /* \"#utility.yul\":3436:3658   */\n    tag_23:\n        /* \"#utility.yul\":3529:3533   */\n      0x00\n        /* \"#utility.yul\":3567:3569   */\n      0x20\n        /* \"#utility.yul\":3556:3565   */\n      dup3\n        /* \"#utility.yul\":3552:3570   */\n      add\n        /* \"#utility.yul\":3544:3570   */\n      swap1\n      pop\n        /* \"#utility.yul\":3580:3651   */\n      tag_139\n        /* \"#utility.yul\":3648:3649   */\n      0x00\n        /* \"#utility.yul\":3637:3646   */\n      dup4\n        /* \"#utility.yul\":3633:3650   */\n      add\n        /* \"#utility.yul\":3624:3630   */\n      dup5\n        /* \"#utility.yul\":3580:3651   */\n      tag_81\n      jump\t// in\n    tag_139:\n        /* \"#utility.yul\":3436:3658   */\n      swap3\n      swap2\n      pop\n      pop\n      jump\t// out\n        /* \"#utility.yul\":3664:3786   */\n    tag_82:\n        /* \"#utility.yul\":3737:3761   */\n      tag_141\n        /* \"#utility.yul\":3755:3760   */\n      dup2\n        /* \"#utility.yul\":3737:3761   */\n      tag_80\n      jump\t// in\n    tag_141:\n        /* \"#utility.yul\":3730:3735   */\n      dup2\n        /* \"#utility.yul\":3727:3762   */\n      eq\n        /* \"#utility.yul\":3717:3780   */\n      tag_142\n      jumpi\n        /* \"#utility.yul\":3776:3777   */\n      0x00\n        /* \"#utility.yul\":3773:3774   */\n      0x00\n        /* \"#utility.yul\":3766:3778   */\n      revert\n        /* \"#utility.yul\":3717:3780   */\n    tag_142:\n        /* \"#utility.yul\":3664:3786   */\n      pop\n      jump\t// out\n        /* \"#utility.yul\":3792:3931   */\n    tag_83:\n        /* \"#utility.yul\":3838:3843   */\n      0x00\n        /* \"#utility.yul\":3876:3882   */\n      dup2\n        /* \"#utility.yul\":3863:3883   */\n      calldataload\n        /* \"#utility.yul\":3854:3883   */\n      swap1\n      pop\n        /* \"#utility.yul\":3892:3925   */\n      tag_144\n        /* \"#utility.yul\":3919:3924   */\n      dup2\n        /* \"#utility.yul\":3892:3925   */\n      tag_82\n      jump\t// in\n    tag_144:\n        /* \"#utility.yul\":3792:3931   */\n      swap3\n      swap2\n      pop\n      pop\n      jump\t// out\n        /* \"#utility.yul\":3937:4411   */\n    tag_26:\n        /* \"#utility.yul\":4005:4011   */\n      0x00\n        /* \"#utility.yul\":4013:4019   */\n      0x00\n        /* \"#utility.yul\":4062:4064   */\n      0x40\n        /* \"#utility.yul\":4050:4059   */\n      dup4\n        /* \"#utility.yul\":4041:4048   */\n      dup6\n        /* \"#utility.yul\":4037:4060   */\n      sub\n        /* \"#utility.yul\":4033:4065   */\n      slt\n        /* \"#utility.yul\":4030:4149   */\n      iszero\n      tag_146\n      jumpi\n        /* \"#utility.yul\":4068:4147   */\n      tag_147\n      tag_66\n      jump\t// in\n    tag_147:\n        /* \"#utility.yul\":4030:4149   */\n    tag_146:\n        /* \"#utility.yul\":4188:4189   */\n      0x00\n        /* \"#utility.yul\":4213:4266   */\n      tag_148\n        /* \"#utility.yul\":4258:4265   */\n      dup6\n        /* \"#utility.yul\":4249:4255   */\n      dup3\n        /* \"#utility.yul\":4238:4247   */\n      dup7\n        /* \"#utility.yul\":4234:4256   */\n      add\n        /* \"#utility.yul\":4213:4266   */\n      tag_71\n      jump\t// in\n    tag_148:\n        /* \"#utility.yul\":4203:4266   */\n      swap3\n      pop\n        /* \"#utility.yul\":4159:4276   */\n      pop\n        /* \"#utility.yul\":4315:4317   */\n      0x20\n        /* \"#utility.yul\":4341:4394   */\n      tag_149\n        /* \"#utility.yul\":4386:4393   */\n      dup6\n        /* \"#utility.yul\":4377:4383   */\n      dup3\n        /* \"#utility.yul\":4366:4375   */\n      dup7\n        /* \"#utility.yul\":4362:4384   */\n      add\n        /* \"#utility.yul\":4341:4394   */\n      tag_83\n      jump\t// in\n    tag_149:\n        /* \"#utility.yul\":4331:4394   */\n      swap2\n      pop\n        /* \"#utility.yul\":4286:4404   */\n      pop\n        /* \"#utility.yul\":3937:4411   */\n      swap3\n      pop\n      swap3\n      swap1\n      pop\n      jump\t// out\n        /* \"#utility.yul\":4417:5178   */\n    tag_31:\n        /* \"#utility.yul\":4501:4507   */\n      0x00\n        /* \"#utility.yul\":4509:4515   */\n      0x00\n        /* \"#utility.yul\":4517:4523   */\n      0x00\n        /* \"#utility.yul\":4525:4531   */\n      0x00\n        /* \"#utility.yul\":4574:4577   */\n      0x80\n        /* \"#utility.yul\":4562:4571   */\n      dup6\n        /* \"#utility.yul\":4553:4560   */\n      dup8\n        /* \"#utility.yul\":4549:4572   */\n      sub\n        /* \"#utility.yul\":4545:4578   */\n      slt\n        /* \"#utility.yul\":4542:4662   */\n      iszero\n      tag_151\n      jumpi\n        /* \"#utility.yul\":4581:4660   */\n      tag_152\n      tag_66\n      jump\t// in\n    tag_152:\n        /* \"#utility.yul\":4542:4662   */\n    tag_151:\n        /* \"#utility.yul\":4701:4702   */\n      0x00\n        /* \"#utility.yul\":4726:4779   */\n      tag_153\n        /* \"#utility.yul\":4771:4778   */\n      dup8\n        /* \"#utility.yul\":4762:4768   */\n      dup3\n        /* \"#utility.yul\":4751:4760   */\n      dup9\n        /* \"#utility.yul\":4747:4769   */\n      add\n        /* \"#utility.yul\":4726:4779   */\n      tag_74\n      jump\t// in\n    tag_153:\n        /* \"#utility.yul\":4716:4779   */\n      swap5\n      pop\n        /* \"#utility.yul\":4672:4789   */\n      pop\n        /* \"#utility.yul\":4828:4830   */\n      0x20\n        /* \"#utility.yul\":4854:4905   */\n      tag_154\n        /* \"#utility.yul\":4897:4904   */\n      dup8\n        /* \"#utility.yul\":4888:4894   */\n      dup3\n        /* \"#utility.yul\":4877:4886   */\n      dup9\n        /* \"#utility.yul\":4873:4895   */\n      add\n        /* \"#utility.yul\":4854:4905   */\n      tag_77\n      jump\t// in\n    tag_154:\n        /* \"#utility.yul\":4844:4905   */\n      swap4\n      pop\n        /* \"#utility.yul\":4799:4915   */\n      pop\n        /* \"#utility.yul\":4954:4956   */\n      0x40\n        /* \"#utility.yul\":4980:5033   */\n      tag_155\n        /* \"#utility.yul\":5025:5032   */\n      dup8\n        /* \"#utility.yul\":5016:5022   */\n      dup3\n        /* \"#utility.yul\":5005:5014   */\n      dup9\n        /* \"#utility.yul\":5001:5023   */\n      add\n        /* \"#utility.yul\":4980:5033   */\n      tag_74\n      jump\t// in\n    tag_155:\n        /* \"#utility.yul\":4970:5033   */\n      swap3\n      pop\n        /* \"#utility.yul\":4925:5043   */\n      pop\n        /* \"#utility.yul\":5082:5084   */\n      0x60\n        /* \"#utility.yul\":5108:5161   */\n      tag_156\n        /* \"#utility.yul\":5153:5160   */\n      dup8\n        /* \"#utility.yul\":5144:5150   */\n      dup3\n        /* \"#utility.yul\":5133:5142   */\n      dup9\n        /* \"#utility.yul\":5129:5151   */\n      add\n        /* \"#utility.yul\":5108:5161   */\n      tag_74\n      jump\t// in\n    tag_156:\n        /* \"#utility.yul\":5098:5161   */\n      swap2\n      pop\n        /* \"#utility.yul\":5053:5171   */\n      pop\n        /* \"#utility.yul\":4417:5178   */\n      swap3\n      swap6\n      swap2\n      swap5\n      pop\n      swap3\n      pop\n      jump\t// out\n        /* \"#utility.yul\":5184:5513   */\n    tag_35:\n        /* \"#utility.yul\":5243:5249   */\n      0x00\n        /* \"#utility.yul\":5292:5294   */\n      0x20\n        /* \"#utility.yul\":5280:5289   */\n      dup3\n        /* \"#utility.yul\":5271:5278   */\n      dup5\n        /* \"#utility.yul\":5267:5290   */\n      sub\n        /* \"#utility.yul\":5263:5295   */\n      slt\n        /* \"#utility.yul\":5260:5379   */\n      iszero\n      tag_158\n      jumpi\n        /* \"#utility.yul\":5298:5377   */\n      tag_159\n      tag_66\n      jump\t// in\n    tag_159:\n        /* \"#utility.yul\":5260:5379   */\n    tag_158:\n        /* \"#utility.yul\":5418:5419   */\n      0x00\n        /* \"#utility.yul\":5443:5496   */\n      tag_160\n        /* \"#utility.yul\":5488:5495   */\n      dup5\n        /* \"#utility.yul\":5479:5485   */\n      dup3\n        /* \"#utility.yul\":5468:5477   */\n      dup6\n        /* \"#utility.yul\":5464:5486   */\n      add\n        /* \"#utility.yul\":5443:5496   */\n      tag_74\n      jump\t// in\n    tag_160:\n        /* \"#utility.yul\":5433:5496   */\n      swap2\n      pop\n        /* \"#utility.yul\":5389:5506   */\n      pop\n        /* \"#utility.yul\":5184:5513   */\n      swap3\n      swap2\n      pop\n      pop\n      jump\t// out\n        /* \"#utility.yul\":5519:5637   */\n    tag_84:\n        /* \"#utility.yul\":5606:5630   */\n      tag_162\n        /* \"#utility.yul\":5624:5629   */\n      dup2\n        /* \"#utility.yul\":5606:5630   */\n      tag_72\n      jump\t// in\n    tag_162:\n        /* \"#utility.yul\":5601:5604   */\n      dup3\n        /* \"#utility.yul\":5594:5631   */\n      mstore\n        /* \"#utility.yul\":5519:5637   */\n      pop\n      pop\n      jump\t// out\n        /* \"#utility.yul\":5643:5865   */\n    tag_38:\n        /* \"#utility.yul\":5736:5740   */\n      0x00\n        /* \"#utility.yul\":5774:5776   */\n      0x20\n        /* \"#utility.yul\":5763:5772   */\n      dup3\n        /* \"#utility.yul\":5759:5777   */\n      add\n        /* \"#utility.yul\":5751:5777   */\n      swap1\n      pop\n        /* \"#utility.yul\":5787:5858   */\n      tag_164\n        /* \"#utility.yul\":5855:5856   */\n      0x00\n        /* \"#utility.yul\":5844:5853   */\n      dup4\n        /* \"#utility.yul\":5840:5857   */\n      add\n        /* \"#utility.yul\":5831:5837   */\n      dup5\n        /* \"#utility.yul\":5787:5858   */\n      tag_84\n      jump\t// in\n    tag_164:\n        /* \"#utility.yul\":5643:5865   */\n      swap3\n      swap2\n      pop\n      pop\n      jump\t// out\n        /* \"#utility.yul\":5871:5983   */\n    tag_85:\n        /* \"#utility.yul\":5954:5976   */\n      tag_166\n        /* \"#utility.yul\":5970:5975   */\n      dup2\n        /* \"#utility.yul\":5954:5976   */\n      tag_75\n      jump\t// in\n    tag_166:\n        /* \"#utility.yul\":5949:5952   */\n      dup3\n        /* \"#utility.yul\":5942:5977   */\n      mstore\n        /* \"#utility.yul\":5871:5983   */\n      pop\n      pop\n      jump\t// out\n        /* \"#utility.yul\":5989:6534   */\n    tag_45:\n        /* \"#utility.yul\":6162:6166   */\n      0x00\n        /* \"#utility.yul\":6200:6203   */\n      0x80\n        /* \"#utility.yul\":6189:6198   */\n      dup3\n        /* \"#utility.yul\":6185:6204   */\n      add\n        /* \"#utility.yul\":6177:6204   */\n      swap1\n      pop\n        /* \"#utility.yul\":6214:6285   */\n      tag_168\n        /* \"#utility.yul\":6282:6283   */\n      0x00\n        /* \"#utility.yul\":6271:6280   */\n      dup4\n        /* \"#utility.yul\":6267:6284   */\n      add\n        /* \"#utility.yul\":6258:6264   */\n      dup8\n        /* \"#utility.yul\":6214:6285   */\n      tag_84\n      jump\t// in\n    tag_168:\n        /* \"#utility.yul\":6295:6363   */\n      tag_169\n        /* \"#utility.yul\":6359:6361   */\n      0x20\n        /* \"#utility.yul\":6348:6357   */\n      dup4\n        /* \"#utility.yul\":6344:6362   */\n      add\n        /* \"#utility.yul\":6335:6341   */\n      dup7\n        /* \"#utility.yul\":6295:6363   */\n      tag_85\n      jump\t// in\n    tag_169:\n        /* \"#utility.yul\":6373:6445   */\n      tag_170\n        /* \"#utility.yul\":6441:6443   */\n      0x40\n        /* \"#utility.yul\":6430:6439   */\n      dup4\n        /* \"#utility.yul\":6426:6444   */\n      add\n        /* \"#utility.yul\":6417:6423   */\n      dup6\n        /* \"#utility.yul\":6373:6445   */\n      tag_84\n      jump\t// in\n    tag_170:\n        /* \"#utility.yul\":6455:6527   */\n      tag_171\n        /* \"#utility.yul\":6523:6525   */\n      0x60\n        /* \"#utility.yul\":6512:6521   */\n      dup4\n        /* \"#utility.yul\":6508:6526   */\n      add\n        /* \"#utility.yul\":6499:6505   */\n      dup5\n        /* \"#utility.yul\":6455:6527   */\n      tag_84\n      jump\t// in\n    tag_171:\n        /* \"#utility.yul\":5989:6534   */\n      swap6\n      swap5\n      pop\n      pop\n      pop\n      pop\n      pop\n      jump\t// out\n        /* \"#utility.yul\":6540:6709   */\n    tag_86:\n        /* \"#utility.yul\":6624:6635   */\n      0x00\n        /* \"#utility.yul\":6658:6664   */\n      dup3\n        /* \"#utility.yul\":6653:6656   */\n      dup3\n        /* \"#utility.yul\":6646:6665   */\n      mstore\n        /* \"#utility.yul\":6698:6702   */\n      0x20\n        /* \"#utility.yul\":6693:6696   */\n      dup3\n        /* \"#utility.yul\":6689:6703   */\n      add\n        /* \"#utility.yul\":6674:6703   */\n      swap1\n      pop\n        /* \"#utility.yul\":6540:6709   */\n      swap3\n      swap2\n      pop\n      pop\n      jump\t// out\n        /* \"#utility.yul\":6715:6879   */\n    tag_87:\n        /* \"#utility.yul\":6855:6871   */\n      0x496e76616c6964207369676e6572000000000000000000000000000000000000\n        /* \"#utility.yul\":6851:6852   */\n      0x00\n        /* \"#utility.yul\":6843:6849   */\n      dup3\n        /* \"#utility.yul\":6839:6853   */\n      add\n        /* \"#utility.yul\":6832:6872   */\n      mstore\n        /* \"#utility.yul\":6715:6879   */\n      pop\n      jump\t// out\n        /* \"#utility.yul\":6885:7251   */\n    tag_88:\n        /* \"#utility.yul\":7027:7030   */\n      0x00\n        /* \"#utility.yul\":7048:7115   */\n      tag_175\n        /* \"#utility.yul\":7112:7114   */\n      0x0e\n        /* \"#utility.yul\":7107:7110   */\n      dup4\n        /* \"#utility.yul\":7048:7115   */\n      tag_86\n      jump\t// in\n    tag_175:\n        /* \"#utility.yul\":7041:7115   */\n      swap2\n      pop\n        /* \"#utility.yul\":7124:7217   */\n      tag_176\n        /* \"#utility.yul\":7213:7216   */\n      dup3\n        /* \"#utility.yul\":7124:7217   */\n      tag_87\n      jump\t// in\n    tag_176:\n        /* \"#utility.yul\":7242:7244   */\n      0x20\n        /* \"#utility.yul\":7237:7240   */\n      dup3\n        /* \"#utility.yul\":7233:7245   */\n      add\n        /* \"#utility.yul\":7226:7245   */\n      swap1\n      pop\n        /* \"#utility.yul\":6885:7251   */\n      swap2\n      swap1\n      pop\n      jump\t// out\n        /* \"#utility.yul\":7257:7676   */\n    tag_55:\n        /* \"#utility.yul\":7423:7427   */\n      0x00\n        /* \"#utility.yul\":7461:7463   */\n      0x20\n        /* \"#utility.yul\":7450:7459   */\n      dup3\n        /* \"#utility.yul\":7446:7464   */\n      add\n        /* \"#utility.yul\":7438:7464   */\n      swap1\n      pop\n        /* \"#utility.yul\":7510:7519   */\n      dup2\n        /* \"#utility.yul\":7504:7508   */\n      dup2\n        /* \"#utility.yul\":7500:7520   */\n      sub\n        /* \"#utility.yul\":7496:7497   */\n      0x00\n        /* \"#utility.yul\":7485:7494   */\n      dup4\n        /* \"#utility.yul\":7481:7498   */\n      add\n        /* \"#utility.yul\":7474:7521   */\n      mstore\n        /* \"#utility.yul\":7538:7669   */\n      tag_178\n        /* \"#utility.yul\":7664:7668   */\n      dup2\n        /* \"#utility.yul\":7538:7669   */\n      tag_88\n      jump\t// in\n    tag_178:\n        /* \"#utility.yul\":7530:7669   */\n      swap1\n      pop\n        /* \"#utility.yul\":7257:7676   */\n      swap2\n      swap1\n      pop\n      jump\t// out\n        /* \"#utility.yul\":7682:7830   */\n    tag_89:\n        /* \"#utility.yul\":7784:7795   */\n      0x00\n        /* \"#utility.yul\":7821:7824   */\n      dup2\n        /* \"#utility.yul\":7806:7824   */\n      swap1\n      pop\n        /* \"#utility.yul\":7682:7830   */\n      swap3\n      swap2\n      pop\n      pop\n      jump\t// out\n        /* \"#utility.yul\":7836:8050   */\n    tag_90:\n        /* \"#utility.yul\":7976:8042   */\n      0x19457468657265756d205369676e6564204d6573736167653a0a333200000000\n        /* \"#utility.yul\":7972:7973   */\n      0x00\n        /* \"#utility.yul\":7964:7970   */\n      dup3\n        /* \"#utility.yul\":7960:7974   */\n      add\n        /* \"#utility.yul\":7953:8043   */\n      mstore\n        /* \"#utility.yul\":7836:8050   */\n      pop\n      jump\t// out\n        /* \"#utility.yul\":8056:8458   */\n    tag_91:\n        /* \"#utility.yul\":8216:8219   */\n      0x00\n        /* \"#utility.yul\":8237:8322   */\n      tag_182\n        /* \"#utility.yul\":8319:8321   */\n      0x1c\n        /* \"#utility.yul\":8314:8317   */\n      dup4\n        /* \"#utility.yul\":8237:8322   */\n      tag_89\n      jump\t// in\n    tag_182:\n        /* \"#utility.yul\":8230:8322   */\n      swap2\n      pop\n        /* \"#utility.yul\":8331:8424   */\n      tag_183\n        /* \"#utility.yul\":8420:8423   */\n      dup3\n        /* \"#utility.yul\":8331:8424   */\n      tag_90\n      jump\t// in\n    tag_183:\n        /* \"#utility.yul\":8449:8451   */\n      0x1c\n        /* \"#utility.yul\":8444:8447   */\n      dup3\n        /* \"#utility.yul\":8440:8452   */\n      add\n        /* \"#utility.yul\":8433:8452   */\n      swap1\n      pop\n        /* \"#utility.yul\":8056:8458   */\n      swap2\n      swap1\n      pop\n      jump\t// out\n        /* \"#utility.yul\":8464:8543   */\n    tag_92:\n        /* \"#utility.yul\":8503:8510   */\n      0x00\n        /* \"#utility.yul\":8532:8537   */\n      dup2\n        /* \"#utility.yul\":8521:8537   */\n      swap1\n      pop\n        /* \"#utility.yul\":8464:8543   */\n      swap2\n      swap1\n      pop\n      jump\t// out\n        /* \"#utility.yul\":8549:8706   */\n    tag_93:\n        /* \"#utility.yul\":8654:8699   */\n      tag_186\n        /* \"#utility.yul\":8674:8698   */\n      tag_187\n        /* \"#utility.yul\":8692:8697   */\n      dup3\n        /* \"#utility.yul\":8674:8698   */\n      tag_72\n      jump\t// in\n    tag_187:\n        /* \"#utility.yul\":8654:8699   */\n      tag_92\n      jump\t// in\n    tag_186:\n        /* \"#utility.yul\":8649:8652   */\n      dup3\n        /* \"#utility.yul\":8642:8700   */\n      mstore\n        /* \"#utility.yul\":8549:8706   */\n      pop\n      pop\n      jump\t// out\n        /* \"#utility.yul\":8712:9234   */\n    tag_59:\n        /* \"#utility.yul\":8925:8928   */\n      0x00\n        /* \"#utility.yul\":8947:9095   */\n      tag_189\n        /* \"#utility.yul\":9091:9094   */\n      dup3\n        /* \"#utility.yul\":8947:9095   */\n      tag_91\n      jump\t// in\n    tag_189:\n        /* \"#utility.yul\":8940:9095   */\n      swap2\n      pop\n        /* \"#utility.yul\":9105:9180   */\n      tag_190\n        /* \"#utility.yul\":9176:9179   */\n      dup3\n        /* \"#utility.yul\":9167:9173   */\n      dup5\n        /* \"#utility.yul\":9105:9180   */\n      tag_93\n      jump\t// in\n    tag_190:\n        /* \"#utility.yul\":9205:9207   */\n      0x20\n        /* \"#utility.yul\":9200:9203   */\n      dup3\n        /* \"#utility.yul\":9196:9208   */\n      add\n        /* \"#utility.yul\":9189:9208   */\n      swap2\n      pop\n        /* \"#utility.yul\":9225:9228   */\n      dup2\n        /* \"#utility.yul\":9218:9228   */\n      swap1\n      pop\n        /* \"#utility.yul\":8712:9234   */\n      swap3\n      swap2\n      pop\n      pop\n      jump\t// out\n\n    auxdata: 0xa2646970667358221220fcf75094f92a0cf72c1b68b8978c89665b58df876189d528de2e1170299c28e964736f6c634300081c0033\n}\n",
				"bytecode": {
					"linkReferences": {},
					"object": "6080604052348015600e575f5ffd5b506108818061001c5f395ff3fe608060405234801561000f575f5ffd5b5060043610610060575f3560e01c80633bc8df8314610064578063506535f3146100805780637279c14e146100b0578063a3f60869146100e0578063c3cf0e7214610110578063fa5408011461012c575b5f5ffd5b61007e6004803603810190610079919061045a565b61015c565b005b61009a600480360381019061009591906104ee565b6101a6565b6040516100a7919061057f565b60405180910390f35b6100ca60048036038101906100c5919061045a565b610239565b6040516100d791906105b0565b60405180910390f35b6100fa60048036038101906100f591906105f3565b610281565b604051610107919061057f565b60405180910390f35b61012a60048036038101906101259190610631565b6102be565b005b61014660048036038101906101419190610695565b61038d565b60405161015391906106cf565b60405180910390f35b5f5f8273ffffffffffffffffffffffffffffffffffffffff1673ffffffffffffffffffffffffffffffffffffffff1681526020019081526020015f205f6101a391906103bc565b50565b5f5f6101b18661038d565b90508673ffffffffffffffffffffffffffffffffffffffff166001828787876040515f81526020016040526040516101ec94939291906106f7565b6020604051602081039080840390855afa15801561020c573d5f5f3e3d5ffd5b5050506020604051035173ffffffffffffffffffffffffffffffffffffffff161491505095945050505050565b5f5f5f8373ffffffffffffffffffffffffffffffffffffffff1673ffffffffffffffffffffffffffffffffffffffff1681526020019081526020015f20805490509050919050565b5f602052815f5260405f208181548110610299575f80fd5b905f5260205f209060209182820401919006915091509054906101000a900460ff1681565b6102cb33858585856101a6565b61030a576040517f08c379a000000000000000000000000000000000000000000000000000000000815260040161030190610794565b60405180910390fd5b5f5f3373ffffffffffffffffffffffffffffffffffffffff1673ffffffffffffffffffffffffffffffffffffffff1681526020019081526020015f206001908060018154018082558091505060019003905f5260205f2090602091828204019190069091909190916101000a81548160ff02191690831515021790555050505050565b5f8160405160200161039f9190610826565b604051602081830303815290604052805190602001209050919050565b5080545f8255601f0160209004905f5260205f20908101906103de91906103e1565b50565b5b808211156103f8575f815f9055506001016103e2565b5090565b5f5ffd5b5f73ffffffffffffffffffffffffffffffffffffffff82169050919050565b5f61042982610400565b9050919050565b6104398161041f565b8114610443575f5ffd5b50565b5f8135905061045481610430565b92915050565b5f6020828403121561046f5761046e6103fc565b5b5f61047c84828501610446565b91505092915050565b5f819050919050565b61049781610485565b81146104a1575f5ffd5b50565b5f813590506104b28161048e565b92915050565b5f60ff82169050919050565b6104cd816104b8565b81146104d7575f5ffd5b50565b5f813590506104e8816104c4565b92915050565b5f5f5f5f5f60a08688031215610507576105066103fc565b5b5f61051488828901610446565b9550506020610525888289016104a4565b9450506040610536888289016104da565b9350506060610547888289016104a4565b9250506080610558888289016104a4565b9150509295509295909350565b5f8115159050919050565b61057981610565565b82525050565b5f6020820190506105925f830184610570565b92915050565b5f819050919050565b6105aa81610598565b82525050565b5f6020820190506105c35f8301846105a1565b92915050565b6105d281610598565b81146105dc575f5ffd5b50565b5f813590506105ed816105c9565b92915050565b5f5f60408385031215610609576106086103fc565b5b5f61061685828601610446565b9250506020610627858286016105df565b9150509250929050565b5f5f5f5f60808587031215610649576106486103fc565b5b5f610656878288016104a4565b9450506020610667878288016104da565b9350506040610678878288016104a4565b9250506060610689878288016104a4565b91505092959194509250565b5f602082840312156106aa576106a96103fc565b5b5f6106b7848285016104a4565b91505092915050565b6106c981610485565b82525050565b5f6020820190506106e25f8301846106c0565b92915050565b6106f1816104b8565b82525050565b5f60808201905061070a5f8301876106c0565b61071760208301866106e8565b61072460408301856106c0565b61073160608301846106c0565b95945050505050565b5f82825260208201905092915050565b7f496e76616c6964207369676e65720000000000000000000000000000000000005f82015250565b5f61077e600e8361073a565b91506107898261074a565b602082019050919050565b5f6020820190508181035f8301526107ab81610772565b9050919050565b5f81905092915050565b7f19457468657265756d205369676e6564204d6573736167653a0a3332000000005f82015250565b5f6107f0601c836107b2565b91506107fb826107bc565b601c82019050919050565b5f819050919050565b61082061081b82610485565b610806565b82525050565b5f610830826107e4565b915061083c828461080f565b6020820191508190509291505056fea2646970667358221220fcf75094f92a0cf72c1b68b8978c89665b58df876189d528de2e1170299c28e964736f6c634300081c0033",
					"opcodes": "PUSH1 0x80 PUSH1 0x40 MSTORE CALLVALUE DUP1 ISZERO PUSH1 0xE JUMPI PUSH0 PUSH0 REVERT JUMPDEST POP PUSH2 0x881 DUP1 PUSH2 0x1C PUSH0 CODECOPY PUSH0 RETURN INVALID PUSH1 0x80 PUSH1 0x40 MSTORE CALLVALUE DUP1 ISZERO PUSH2 0xF JUMPI PUSH0 PUSH0 REVERT JUMPDEST POP PUSH1 0x4 CALLDATASIZE LT PUSH2 0x60 JUMPI PUSH0 CALLDATALOAD PUSH1 0xE0 SHR DUP1 PUSH4 0x3BC8DF83 EQ PUSH2 0x64 JUMPI DUP1 PUSH4 0x506535F3 EQ PUSH2 0x80 JUMPI DUP1 PUSH4 0x7279C14E EQ PUSH2 0xB0 JUMPI DUP1 PUSH4 0xA3F60869 EQ PUSH2 0xE0 JUMPI DUP1 PUSH4 0xC3CF0E72 EQ PUSH2 0x110 JUMPI DUP1 PUSH4 0xFA540801 EQ PUSH2 0x12C JUMPI JUMPDEST PUSH0 PUSH0 REVERT JUMPDEST PUSH2 0x7E PUSH1 0x4 DUP1 CALLDATASIZE SUB DUP2 ADD SWAP1 PUSH2 0x79 SWAP2 SWAP1 PUSH2 0x45A JUMP JUMPDEST PUSH2 0x15C JUMP JUMPDEST STOP JUMPDEST PUSH2 0x9A PUSH1 0x4 DUP1 CALLDATASIZE SUB DUP2 ADD SWAP1 PUSH2 0x95 SWAP2 SWAP1 PUSH2 0x4EE JUMP JUMPDEST PUSH2 0x1A6 JUMP JUMPDEST PUSH1 0x40 MLOAD PUSH2 0xA7 SWAP2 SWAP1 PUSH2 0x57F JUMP JUMPDEST PUSH1 0x40 MLOAD DUP1 SWAP2 SUB SWAP1 RETURN JUMPDEST PUSH2 0xCA PUSH1 0x4 DUP1 CALLDATASIZE SUB DUP2 ADD SWAP1 PUSH2 0xC5 SWAP2 SWAP1 PUSH2 0x45A JUMP JUMPDEST PUSH2 0x239 JUMP JUMPDEST PUSH1 0x40 MLOAD PUSH2 0xD7 SWAP2 SWAP1 PUSH2 0x5B0 JUMP JUMPDEST PUSH1 0x40 MLOAD DUP1 SWAP2 SUB SWAP1 RETURN JUMPDEST PUSH2 0xFA PUSH1 0x4 DUP1 CALLDATASIZE SUB DUP2 ADD SWAP1 PUSH2 0xF5 SWAP2 SWAP1 PUSH2 0x5F3 JUMP JUMPDEST PUSH2 0x281 JUMP JUMPDEST PUSH1 0x40 MLOAD PUSH2 0x107 SWAP2 SWAP1 PUSH2 0x57F JUMP JUMPDEST PUSH1 0x40 MLOAD DUP1 SWAP2 SUB SWAP1 RETURN JUMPDEST PUSH2 0x12A PUSH1 0x4 DUP1 CALLDATASIZE SUB DUP2 ADD SWAP1 PUSH2 0x125 SWAP2 SWAP1 PUSH2 0x631 JUMP JUMPDEST PUSH2 0x2BE JUMP JUMPDEST STOP JUMPDEST PUSH2 0x146 PUSH1 0x4 DUP1 CALLDATASIZE SUB DUP2 ADD SWAP1 PUSH2 0x141 SWAP2 SWAP1 PUSH2 0x695 JUMP JUMPDEST PUSH2 0x38D JUMP JUMPDEST PUSH1 0x40 MLOAD PUSH2 0x153 SWAP2 SWAP1 PUSH2 0x6CF JUMP JUMPDEST PUSH1 0x40 MLOAD DUP1 SWAP2 SUB SWAP1 RETURN JUMPDEST PUSH0 PUSH0 DUP3 PUSH20 0xFFFFFFFFFFFFFFFFFFFFFFFFFFFFFFFFFFFFFFFF AND PUSH20 0xFFFFFFFFFFFFFFFFFFFFFFFFFFFFFFFFFFFFFFFF AND DUP2 MSTORE PUSH1 0x20 ADD SWAP1 DUP2 MSTORE PUSH1 0x20 ADD PUSH0 KECCAK256 PUSH0 PUSH2 0x1A3 SWAP2 SWAP1 PUSH2 0x3BC JUMP JUMPDEST POP JUMP JUMPDEST PUSH0 PUSH0 PUSH2 0x1B1 DUP7 PUSH2 0x38D JUMP JUMPDEST SWAP1 POP DUP7 PUSH20 0xFFFFFFFFFFFFFFFFFFFFFFFFFFFFFFFFFFFFFFFF AND PUSH1 0x1 DUP3 DUP8 DUP8 DUP8 PUSH1 0x40 MLOAD PUSH0 DUP2 MSTORE PUSH1 0x20 ADD PUSH1 0x40 MSTORE PUSH1 0x40 MLOAD PUSH2 0x1EC SWAP5 SWAP4 SWAP3 SWAP2 SWAP1 PUSH2 0x6F7 JUMP JUMPDEST PUSH1 0x20 PUSH1 0x40 MLOAD PUSH1 0x20 DUP2 SUB SWAP1 DUP1 DUP5 SUB SWAP1 DUP6 GAS STATICCALL ISZERO DUP1 ISZERO PUSH2 0x20C JUMPI RETURNDATASIZE PUSH0 PUSH0 RETURNDATACOPY RETURNDATASIZE PUSH0 REVERT JUMPDEST POP POP POP PUSH1 0x20 PUSH1 0x40 MLOAD SUB MLOAD PUSH20 0xFFFFFFFFFFFFFFFFFFFFFFFFFFFFFFFFFFFFFFFF AND EQ SWAP2 POP POP SWAP6 SWAP5 POP POP POP POP POP JUMP JUMPDEST PUSH0 PUSH0 PUSH0 DUP4 PUSH20 0xFFFFFFFFFFFFFFFFFFFFFFFFFFFFFFFFFFFFFFFF AND PUSH20 0xFFFFFFFFFFFFFFFFFFFFFFFFFFFFFFFFFFFFFFFF AND DUP2 MSTORE PUSH1 0x20 ADD SWAP1 DUP2 MSTORE PUSH1 0x20 ADD PUSH0 KECCAK256 DUP1 SLOAD SWAP1 POP SWAP1 POP SWAP2 SWAP1 POP JUMP JUMPDEST PUSH0 PUSH1 0x20 MSTORE DUP2 PUSH0 MSTORE PUSH1 0x40 PUSH0 KECCAK256 DUP2 DUP2 SLOAD DUP2 LT PUSH2 0x299 JUMPI PUSH0 DUP1 REVERT JUMPDEST SWAP1 PUSH0 MSTORE PUSH1 0x20 PUSH0 KECCAK256 SWAP1 PUSH1 0x20 SWAP2 DUP3 DUP3 DIV ADD SWAP2 SWAP1 MOD SWAP2 POP SWAP2 POP SWAP1 SLOAD SWAP1 PUSH2 0x100 EXP SWAP1 DIV PUSH1 0xFF AND DUP2 JUMP JUMPDEST PUSH2 0x2CB CALLER DUP6 DUP6 DUP6 DUP6 PUSH2 0x1A6 JUMP JUMPDEST PUSH2 0x30A JUMPI PUSH1 0x40 MLOAD PUSH32 0x8C379A000000000000000000000000000000000000000000000000000000000 DUP2 MSTORE PUSH1 0x4 ADD PUSH2 0x301 SWAP1 PUSH2 0x794 JUMP JUMPDEST PUSH1 0x40 MLOAD DUP1 SWAP2 SUB SWAP1 REVERT JUMPDEST PUSH0 PUSH0 CALLER PUSH20 0xFFFFFFFFFFFFFFFFFFFFFFFFFFFFFFFFFFFFFFFF AND PUSH20 0xFFFFFFFFFFFFFFFFFFFFFFFFFFFFFFFFFFFFFFFF AND DUP2 MSTORE PUSH1 0x20 ADD SWAP1 DUP2 MSTORE PUSH1 0x20 ADD PUSH0 KECCAK256 PUSH1 0x1 SWAP1 DUP1 PUSH1 0x1 DUP2 SLOAD ADD DUP1 DUP3 SSTORE DUP1 SWAP2 POP POP PUSH1 0x1 SWAP1 SUB SWAP1 PUSH0 MSTORE PUSH1 0x20 PUSH0 KECCAK256 SWAP1 PUSH1 0x20 SWAP2 DUP3 DUP3 DIV ADD SWAP2 SWAP1 MOD SWAP1 SWAP2 SWAP1 SWAP2 SWAP1 SWAP2 PUSH2 0x100 EXP DUP2 SLOAD DUP2 PUSH1 0xFF MUL NOT AND SWAP1 DUP4 ISZERO ISZERO MUL OR SWAP1 SSTORE POP POP POP POP POP JUMP JUMPDEST PUSH0 DUP2 PUSH1 0x40 MLOAD PUSH1 0x20 ADD PUSH2 0x39F SWAP2 SWAP1 PUSH2 0x826 JUMP JUMPDEST PUSH1 0x40 MLOAD PUSH1 0x20 DUP2 DUP4 SUB SUB DUP2 MSTORE SWAP1 PUSH1 0x40 MSTORE DUP1 MLOAD SWAP1 PUSH1 0x20 ADD KECCAK256 SWAP1 POP SWAP2 SWAP1 POP JUMP JUMPDEST POP DUP1 SLOAD PUSH0 DUP3 SSTORE PUSH1 0x1F ADD PUSH1 0x20 SWAP1 DIV SWAP1 PUSH0 MSTORE PUSH1 0x20 PUSH0 KECCAK256 SWAP1 DUP2 ADD SWAP1 PUSH2 0x3DE SWAP2 SWAP1 PUSH2 0x3E1 JUMP JUMPDEST POP JUMP JUMPDEST JUMPDEST DUP1 DUP3 GT ISZERO PUSH2 0x3F8 JUMPI PUSH0 DUP2 PUSH0 SWAP1 SSTORE POP PUSH1 0x1 ADD PUSH2 0x3E2 JUMP JUMPDEST POP SWAP1 JUMP JUMPDEST PUSH0 PUSH0 REVERT JUMPDEST PUSH0 PUSH20 0xFFFFFFFFFFFFFFFFFFFFFFFFFFFFFFFFFFFFFFFF DUP3 AND SWAP1 POP SWAP2 SWAP1 POP JUMP JUMPDEST PUSH0 PUSH2 0x429 DUP3 PUSH2 0x400 JUMP JUMPDEST SWAP1 POP SWAP2 SWAP1 POP JUMP JUMPDEST PUSH2 0x439 DUP2 PUSH2 0x41F JUMP JUMPDEST DUP2 EQ PUSH2 0x443 JUMPI PUSH0 PUSH0 REVERT JUMPDEST POP JUMP JUMPDEST PUSH0 DUP2 CALLDATALOAD SWAP1 POP PUSH2 0x454 DUP2 PUSH2 0x430 JUMP JUMPDEST SWAP3 SWAP2 POP POP JUMP JUMPDEST PUSH0 PUSH1 0x20 DUP3 DUP5 SUB SLT ISZERO PUSH2 0x46F JUMPI PUSH2 0x46E PUSH2 0x3FC JUMP JUMPDEST JUMPDEST PUSH0 PUSH2 0x47C DUP5 DUP3 DUP6 ADD PUSH2 0x446 JUMP JUMPDEST SWAP2 POP POP SWAP3 SWAP2 POP POP JUMP JUMPDEST PUSH0 DUP2 SWAP1 POP SWAP2 SWAP1 POP JUMP JUMPDEST PUSH2 0x497 DUP2 PUSH2 0x485 JUMP JUMPDEST DUP2 EQ PUSH2 0x4A1 JUMPI PUSH0 PUSH0 REVERT JUMPDEST POP JUMP JUMPDEST PUSH0 DUP2 CALLDATALOAD SWAP1 POP PUSH2 0x4B2 DUP2 PUSH2 0x48E JUMP JUMPDEST SWAP3 SWAP2 POP POP JUMP JUMPDEST PUSH0 PUSH1 0xFF DUP3 AND SWAP1 POP SWAP2 SWAP1 POP JUMP JUMPDEST PUSH2 0x4CD DUP2 PUSH2 0x4B8 JUMP JUMPDEST DUP2 EQ PUSH2 0x4D7 JUMPI PUSH0 PUSH0 REVERT JUMPDEST POP JUMP JUMPDEST PUSH0 DUP2 CALLDATALOAD SWAP1 POP PUSH2 0x4E8 DUP2 PUSH2 0x4C4 JUMP JUMPDEST SWAP3 SWAP2 POP POP JUMP JUMPDEST PUSH0 PUSH0 PUSH0 PUSH0 PUSH0 PUSH1 0xA0 DUP7 DUP9 SUB SLT ISZERO PUSH2 0x507 JUMPI PUSH2 0x506 PUSH2 0x3FC JUMP JUMPDEST JUMPDEST PUSH0 PUSH2 0x514 DUP9 DUP3 DUP10 ADD PUSH2 0x446 JUMP JUMPDEST SWAP6 POP POP PUSH1 0x20 PUSH2 0x525 DUP9 DUP3 DUP10 ADD PUSH2 0x4A4 JUMP JUMPDEST SWAP5 POP POP PUSH1 0x40 PUSH2 0x536 DUP9 DUP3 DUP10 ADD PUSH2 0x4DA JUMP JUMPDEST SWAP4 POP POP PUSH1 0x60 PUSH2 0x547 DUP9 DUP3 DUP10 ADD PUSH2 0x4A4 JUMP JUMPDEST SWAP3 POP POP PUSH1 0x80 PUSH2 0x558 DUP9 DUP3 DUP10 ADD PUSH2 0x4A4 JUMP JUMPDEST SWAP2 POP POP SWAP3 SWAP6 POP SWAP3 SWAP6 SWAP1 SWAP4 POP JUMP JUMPDEST PUSH0 DUP2 ISZERO ISZERO SWAP1 POP SWAP2 SWAP1 POP JUMP JUMPDEST PUSH2 0x579 DUP2 PUSH2 0x565 JUMP JUMPDEST DUP3 MSTORE POP POP JUMP JUMPDEST PUSH0 PUSH1 0x20 DUP3 ADD SWAP1 POP PUSH2 0x592 PUSH0 DUP4 ADD DUP5 PUSH2 0x570 JUMP JUMPDEST SWAP3 SWAP2 POP POP JUMP JUMPDEST PUSH0 DUP2 SWAP1 POP SWAP2 SWAP1 POP JUMP JUMPDEST PUSH2 0x5AA DUP2 PUSH2 0x598 JUMP JUMPDEST DUP3 MSTORE POP POP JUMP JUMPDEST PUSH0 PUSH1 0x20 DUP3 ADD SWAP1 POP PUSH2 0x5C3 PUSH0 DUP4 ADD DUP5 PUSH2 0x5A1 JUMP JUMPDEST SWAP3 SWAP2 POP POP JUMP JUMPDEST PUSH2 0x5D2 DUP2 PUSH2 0x598 JUMP JUMPDEST DUP2 EQ PUSH2 0x5DC JUMPI PUSH0 PUSH0 REVERT JUMPDEST POP JUMP JUMPDEST PUSH0 DUP2 CALLDATALOAD SWAP1 POP PUSH2 0x5ED DUP2 PUSH2 0x5C9 JUMP JUMPDEST SWAP3 SWAP2 POP POP JUMP JUMPDEST PUSH0 PUSH0 PUSH1 0x40 DUP4 DUP6 SUB SLT ISZERO PUSH2 0x609 JUMPI PUSH2 0x608 PUSH2 0x3FC JUMP JUMPDEST JUMPDEST PUSH0 PUSH2 0x616 DUP6 DUP3 DUP7 ADD PUSH2 0x446 JUMP JUMPDEST SWAP3 POP POP PUSH1 0x20 PUSH2 0x627 DUP6 DUP3 DUP7 ADD PUSH2 0x5DF JUMP JUMPDEST SWAP2 POP POP SWAP3 POP SWAP3 SWAP1 POP JUMP JUMPDEST PUSH0 PUSH0 PUSH0 PUSH0 PUSH1 0x80 DUP6 DUP8 SUB SLT ISZERO PUSH2 0x649 JUMPI PUSH2 0x648 PUSH2 0x3FC JUMP JUMPDEST JUMPDEST PUSH0 PUSH2 0x656 DUP8 DUP3 DUP9 ADD PUSH2 0x4A4 JUMP JUMPDEST SWAP5 POP POP PUSH1 0x20 PUSH2 0x667 DUP8 DUP3 DUP9 ADD PUSH2 0x4DA JUMP JUMPDEST SWAP4 POP POP PUSH1 0x40 PUSH2 0x678 DUP8 DUP3 DUP9 ADD PUSH2 0x4A4 JUMP JUMPDEST SWAP3 POP POP PUSH1 0x60 PUSH2 0x689 DUP8 DUP3 DUP9 ADD PUSH2 0x4A4 JUMP JUMPDEST SWAP2 POP POP SWAP3 SWAP6 SWAP2 SWAP5 POP SWAP3 POP JUMP JUMPDEST PUSH0 PUSH1 0x20 DUP3 DUP5 SUB SLT ISZERO PUSH2 0x6AA JUMPI PUSH2 0x6A9 PUSH2 0x3FC JUMP JUMPDEST JUMPDEST PUSH0 PUSH2 0x6B7 DUP5 DUP3 DUP6 ADD PUSH2 0x4A4 JUMP JUMPDEST SWAP2 POP POP SWAP3 SWAP2 POP POP JUMP JUMPDEST PUSH2 0x6C9 DUP2 PUSH2 0x485 JUMP JUMPDEST DUP3 MSTORE POP POP JUMP JUMPDEST PUSH0 PUSH1 0x20 DUP3 ADD SWAP1 POP PUSH2 0x6E2 PUSH0 DUP4 ADD DUP5 PUSH2 0x6C0 JUMP JUMPDEST SWAP3 SWAP2 POP POP JUMP JUMPDEST PUSH2 0x6F1 DUP2 PUSH2 0x4B8 JUMP JUMPDEST DUP3 MSTORE POP POP JUMP JUMPDEST PUSH0 PUSH1 0x80 DUP3 ADD SWAP1 POP PUSH2 0x70A PUSH0 DUP4 ADD DUP8 PUSH2 0x6C0 JUMP JUMPDEST PUSH2 0x717 PUSH1 0x20 DUP4 ADD DUP7 PUSH2 0x6E8 JUMP JUMPDEST PUSH2 0x724 PUSH1 0x40 DUP4 ADD DUP6 PUSH2 0x6C0 JUMP JUMPDEST PUSH2 0x731 PUSH1 0x60 DUP4 ADD DUP5 PUSH2 0x6C0 JUMP JUMPDEST SWAP6 SWAP5 POP POP POP POP POP JUMP JUMPDEST PUSH0 DUP3 DUP3 MSTORE PUSH1 0x20 DUP3 ADD SWAP1 POP SWAP3 SWAP2 POP POP JUMP JUMPDEST PUSH32 0x496E76616C6964207369676E6572000000000000000000000000000000000000 PUSH0 DUP3 ADD MSTORE POP JUMP JUMPDEST PUSH0 PUSH2 0x77E PUSH1 0xE DUP4 PUSH2 0x73A JUMP JUMPDEST SWAP2 POP PUSH2 0x789 DUP3 PUSH2 0x74A JUMP JUMPDEST PUSH1 0x20 DUP3 ADD SWAP1 POP SWAP2 SWAP1 POP JUMP JUMPDEST PUSH0 PUSH1 0x20 DUP3 ADD SWAP1 POP DUP2 DUP2 SUB PUSH0 DUP4 ADD MSTORE PUSH2 0x7AB DUP2 PUSH2 0x772 JUMP JUMPDEST SWAP1 POP SWAP2 SWAP1 POP JUMP JUMPDEST PUSH0 DUP2 SWAP1 POP SWAP3 SWAP2 POP POP JUMP JUMPDEST PUSH32 0x19457468657265756D205369676E6564204D6573736167653A0A333200000000 PUSH0 DUP3 ADD MSTORE POP JUMP JUMPDEST PUSH0 PUSH2 0x7F0 PUSH1 0x1C DUP4 PUSH2 0x7B2 JUMP JUMPDEST SWAP2 POP PUSH2 0x7FB DUP3 PUSH2 0x7BC JUMP JUMPDEST PUSH1 0x1C DUP3 ADD SWAP1 POP SWAP2 SWAP1 POP JUMP JUMPDEST PUSH0 DUP2 SWAP1 POP SWAP2 SWAP1 POP JUMP JUMPDEST PUSH2 0x820 PUSH2 0x81B DUP3 PUSH2 0x485 JUMP JUMPDEST PUSH2 0x806 JUMP JUMPDEST DUP3 MSTORE POP POP JUMP JUMPDEST PUSH0 PUSH2 0x830 DUP3 PUSH2 0x7E4 JUMP JUMPDEST SWAP2 POP PUSH2 0x83C DUP3 DUP5 PUSH2 0x80F JUMP JUMPDEST PUSH1 0x20 DUP3 ADD SWAP2 POP DUP2 SWAP1 POP SWAP3 SWAP2 POP POP JUMP INVALID LOG2 PUSH5 0x6970667358 0x22 SLT KECCAK256 0xFC 0xF7 POP SWAP5 0xF9 0x2A 0xC 0xF7 0x2C SHL PUSH9 0xB8978C89665B58DF87 PUSH2 0x89D5 0x28 0xDE 0x2E GT PUSH17 0x299C28E964736F6C634300081C00330000 "
				},
				"gasEstimates": {
					"creation": {
						"codeDepositCost": "435400",
						"executionCost": "472",
						"totalCost": "435872"
					},
					"external": {
						"checkNode(address,uint256)": "6859",
						"checkOnline(bytes32,uint8,bytes32,bytes32)": "infinite",
						"checkPass(address)": "2858",
						"getEthSignedMessageHash(bytes32)": "infinite",
						"resetChecker(address)": "infinite",
						"verify(address,bytes32,uint8,bytes32,bytes32)": "infinite"
					}
				},
				"methodIdentifiers": {
					"checkNode(address,uint256)": "a3f60869",
					"checkOnline(bytes32,uint8,bytes32,bytes32)": "c3cf0e72",
					"checkPass(address)": "7279c14e",
					"getEthSignedMessageHash(bytes32)": "fa540801",
					"resetChecker(address)": "3bc8df83",
					"verify(address,bytes32,uint8,bytes32,bytes32)": "506535f3"
				}
			},
			"storageLayout": {
				"storage": [
					{
						"astId": 6,
						"contract": "contracts/checker.sol:Checker",
						"label": "checkNode",
						"offset": 0,
						"slot": "0",
						"type": "t_mapping(t_address,t_array(t_bool)dyn_storage)"
					}
				],
				"types": {
					"t_address": {
						"encoding": "inplace",
						"label": "address",
						"numberOfBytes": "20"
					},
					"t_array(t_bool)dyn_storage": {
						"base": "t_bool",
						"encoding": "dynamic_array",
						"label": "bool[]",
						"numberOfBytes": "32"
					},
					"t_bool": {
						"encoding": "inplace",
						"label": "bool",
						"numberOfBytes": "1"
					},
					"t_mapping(t_address,t_array(t_bool)dyn_storage)": {
						"encoding": "mapping",
						"key": "t_address",
						"label": "mapping(address => bool[])",
						"numberOfBytes": "32",
						"value": "t_array(t_bool)dyn_storage"
					}
				}
			},
			"userdoc": {
				"kind": "user",
				"methods": {},
				"version": 1
			}
		}
	}
}