{
	"contracts/test.sol": {
		"AutoDistribution": {
			"abi": [
				{
					"inputs": [
						{
							"internalType": "address",
							"name": "_token",
							"type": "address"
						}
					],
					"stateMutability": "nonpayable",
					"type": "constructor"
				},
				{
					"inputs": [],
					"name": "DISTRIBUTION_BLOCK_INTERVAL",
					"outputs": [
						{
							"internalType": "uint256",
							"name": "",
							"type": "uint256"
						}
					],
					"stateMutability": "view",
					"type": "function"
				},
				{
					"inputs": [],
					"name": "EARLY_UNLOCK_PERCENT",
					"outputs": [
						{
							"internalType": "uint256",
							"name": "",
							"type": "uint256"
						}
					],
					"stateMutability": "view",
					"type": "function"
				},
				{
					"inputs": [],
					"name": "LOCK_BLOCKS",
					"outputs": [
						{
							"internalType": "uint256",
							"name": "",
							"type": "uint256"
						}
					],
					"stateMutability": "view",
					"type": "function"
				},
				{
					"inputs": [
						{
							"internalType": "address",
							"name": "wallet",
							"type": "address"
						}
					],
					"name": "addWallet",
					"outputs": [],
					"stateMutability": "nonpayable",
					"type": "function"
				},
				{
					"inputs": [
						{
							"internalType": "address",
							"name": "",
							"type": "address"
						}
					],
					"name": "authorizedAddress",
					"outputs": [
						{
							"internalType": "bool",
							"name": "",
							"type": "bool"
						}
					],
					"stateMutability": "view",
					"type": "function"
				},
				{
					"inputs": [
						{
							"internalType": "address",
							"name": "",
							"type": "address"
						}
					],
					"name": "bindingWallets",
					"outputs": [
						{
							"internalType": "address",
							"name": "",
							"type": "address"
						}
					],
					"stateMutability": "view",
					"type": "function"
				},
				{
					"inputs": [
						{
							"internalType": "address",
							"name": "_rewardAddress",
							"type": "address"
						}
					],
					"name": "claimUnlockedTokens",
					"outputs": [],
					"stateMutability": "nonpayable",
					"type": "function"
				},
				{
					"inputs": [],
					"name": "distributeRewards",
					"outputs": [],
					"stateMutability": "nonpayable",
					"type": "function"
				},
				{
					"inputs": [
						{
							"internalType": "address",
							"name": "_rewardAddress",
							"type": "address"
						}
					],
					"name": "earlyUnlock",
					"outputs": [],
					"stateMutability": "nonpayable",
					"type": "function"
				},
				{
					"inputs": [
						{
							"internalType": "address",
							"name": "wallet",
							"type": "address"
						}
					],
					"name": "isAuthorized",
					"outputs": [
						{
							"internalType": "bool",
							"name": "",
							"type": "bool"
						}
					],
					"stateMutability": "view",
					"type": "function"
				},
				{
					"inputs": [],
					"name": "lastDistributionBlock",
					"outputs": [
						{
							"internalType": "uint256",
							"name": "",
							"type": "uint256"
						}
					],
					"stateMutability": "view",
					"type": "function"
				},
				{
					"inputs": [
						{
							"internalType": "address",
							"name": "",
							"type": "address"
						}
					],
					"name": "lockedBalances",
					"outputs": [
						{
							"internalType": "uint256",
							"name": "unlockedAmount",
							"type": "uint256"
						}
					],
					"stateMutability": "view",
					"type": "function"
				},
				{
					"inputs": [],
					"name": "onlineReward",
					"outputs": [
						{
							"internalType": "uint256",
							"name": "",
							"type": "uint256"
						}
					],
					"stateMutability": "view",
					"type": "function"
				},
				{
					"inputs": [],
					"name": "owner",
					"outputs": [
						{
							"internalType": "address",
							"name": "",
							"type": "address"
						}
					],
					"stateMutability": "view",
					"type": "function"
				},
				{
					"inputs": [
						{
							"internalType": "uint256",
							"name": "",
							"type": "uint256"
						}
					],
					"name": "recipients",
					"outputs": [
						{
							"internalType": "address",
							"name": "",
							"type": "address"
						}
					],
					"stateMutability": "view",
					"type": "function"
				},
				{
					"inputs": [],
					"name": "roundUnlock",
					"outputs": [
						{
							"internalType": "uint256",
							"name": "",
							"type": "uint256"
						}
					],
					"stateMutability": "view",
					"type": "function"
				},
				{
					"inputs": [],
					"name": "token",
					"outputs": [
						{
							"internalType": "contract IERC20",
							"name": "",
							"type": "address"
						}
					],
					"stateMutability": "view",
					"type": "function"
				},
				{
					"inputs": [
						{
							"internalType": "uint256",
							"name": "newLockPeriod",
							"type": "uint256"
						}
					],
					"name": "updateLockPeriod",
					"outputs": [],
					"stateMutability": "view",
					"type": "function"
				},
				{
					"inputs": [
						{
							"internalType": "address",
							"name": "_rewardAddress",
							"type": "address"
						}
					],
					"name": "withdraw",
					"outputs": [],
					"stateMutability": "nonpayable",
					"type": "function"
				}
			],
			"devdoc": {
				"kind": "dev",
				"methods": {},
				"version": 1
			},
			"evm": {
				"assembly": "    /* \"contracts/test.sol\":401:7147  contract AutoDistribution {... */\n  mstore(0x40, 0x80)\n    /* \"contracts/test.sol\":522:527  token */\n  0x00\n  0x00\n  swap1\n  sload\n  swap1\n  0x0100\n  exp\n  swap1\n  div\n  0xffffffffffffffffffffffffffffffffffffffff\n  and\n    /* \"contracts/test.sol\":522:536  token.decimals */\n  0xffffffffffffffffffffffffffffffffffffffff\n  and\n  0x313ce567\n    /* \"contracts/test.sol\":522:538  token.decimals() */\n  mload(0x40)\n  dup2\n  0xffffffff\n  and\n  0xe0\n  shl\n  dup2\n  mstore\n  0x04\n  add\n  0x20\n  mload(0x40)\n  dup1\n  dup4\n  sub\n  dup2\n  dup7\n  gas\n  staticcall\n  iszero\n  dup1\n  iszero\n  tag_2\n  jumpi\n  returndatacopy(0x00, 0x00, returndatasize)\n  revert(0x00, returndatasize)\ntag_2:\n  pop\n  pop\n  pop\n  pop\n  mload(0x40)\n  returndatasize\n  not(0x1f)\n  0x1f\n  dup3\n  add\n  and\n  dup3\n  add\n  dup1\n  0x40\n  mstore\n  pop\n  dup2\n  add\n  swap1\n  tag_3\n  swap2\n  swap1\n  tag_4\n  jump\t// in\ntag_3:\n    /* \"contracts/test.sol\":517:519  60 */\n  0x3c\n    /* \"contracts/test.sol\":517:538  60 * token.decimals() */\n  tag_5\n  swap2\n  swap1\n  tag_6\n  jump\t// in\ntag_5:\n    /* \"contracts/test.sol\":487:538  uint256 public onlineReward = 60 * token.decimals() */\n  0xff\n  and\n  0x02\n  sstore\n    /* \"contracts/test.sol\":618:621  180 */\n  0xb4\n    /* \"contracts/test.sol\":612:615  100 */\n  0x64\n    /* \"contracts/test.sol\":606:608  70 */\n  0x46\n    /* \"contracts/test.sol\":591:603  onlineReward */\n  sload(0x02)\n    /* \"contracts/test.sol\":591:608  onlineReward * 70 */\n  tag_7\n  swap2\n  swap1\n  tag_8\n  jump\t// in\ntag_7:\n    /* \"contracts/test.sol\":590:615  (onlineReward * 70) / 100 */\n  tag_9\n  swap2\n  swap1\n  tag_10\n  jump\t// in\ntag_9:\n    /* \"contracts/test.sol\":590:621  (onlineReward * 70) / 100 / 180 */\n  tag_11\n  swap2\n  swap1\n  tag_10\n  jump\t// in\ntag_11:\n    /* \"contracts/test.sol\":561:621  uint256 public roundUnlock = (onlineReward * 70) / 100 / 180 */\n  0x03\n  sstore\n    /* \"contracts/test.sol\":1756:1901  constructor(address _token) {... */\n  callvalue\n  dup1\n  iszero\n  tag_12\n  jumpi\n  revert(0x00, 0x00)\ntag_12:\n  pop\n  mload(0x40)\n  sub(codesize, bytecodeSize)\n  dup1\n  bytecodeSize\n  dup4\n  codecopy\n  dup2\n  dup2\n  add\n  0x40\n  mstore\n  dup2\n  add\n  swap1\n  tag_13\n  swap2\n  swap1\n  tag_14\n  jump\t// in\ntag_13:\n    /* \"contracts/test.sol\":1810:1816  _token */\n  dup1\n    /* \"contracts/test.sol\":1795:1800  token */\n  0x00\n  0x00\n    /* \"contracts/test.sol\":1795:1817  token = IERC20(_token) */\n  0x0100\n  exp\n  dup2\n  sload\n  dup2\n  0xffffffffffffffffffffffffffffffffffffffff\n  mul\n  not\n  and\n  swap1\n  dup4\n  0xffffffffffffffffffffffffffffffffffffffff\n  and\n  mul\n  or\n  swap1\n  sstore\n  pop\n    /* \"contracts/test.sol\":1836:1846  msg.sender */\n  caller\n    /* \"contracts/test.sol\":1828:1833  owner */\n  0x01\n  0x00\n    /* \"contracts/test.sol\":1828:1846  owner = msg.sender */\n  0x0100\n  exp\n  dup2\n  sload\n  dup2\n  0xffffffffffffffffffffffffffffffffffffffff\n  mul\n  not\n  and\n  swap1\n  dup4\n  0xffffffffffffffffffffffffffffffffffffffff\n  and\n  mul\n  or\n  swap1\n  sstore\n  pop\n    /* \"contracts/test.sol\":1881:1893  block.number */\n  number\n    /* \"contracts/test.sol\":1857:1878  lastDistributionBlock */\n  0x04\n    /* \"contracts/test.sol\":1857:1893  lastDistributionBlock = block.number */\n  dup2\n  swap1\n  sstore\n  pop\n    /* \"contracts/test.sol\":1756:1901  constructor(address _token) {... */\n  pop\n    /* \"contracts/test.sol\":401:7147  contract AutoDistribution {... */\n  jump(tag_17)\n    /* \"#utility.yul\":88:205   */\ntag_19:\n    /* \"#utility.yul\":197:198   */\n  0x00\n    /* \"#utility.yul\":194:195   */\n  0x00\n    /* \"#utility.yul\":187:199   */\n  revert\n    /* \"#utility.yul\":334:420   */\ntag_21:\n    /* \"#utility.yul\":369:376   */\n  0x00\n    /* \"#utility.yul\":409:413   */\n  0xff\n    /* \"#utility.yul\":402:407   */\n  dup3\n    /* \"#utility.yul\":398:414   */\n  and\n    /* \"#utility.yul\":387:414   */\n  swap1\n  pop\n    /* \"#utility.yul\":334:420   */\n  swap2\n  swap1\n  pop\n  jump\t// out\n    /* \"#utility.yul\":426:544   */\ntag_22:\n    /* \"#utility.yul\":497:519   */\n  tag_37\n    /* \"#utility.yul\":513:518   */\n  dup2\n    /* \"#utility.yul\":497:519   */\n  tag_21\n  jump\t// in\ntag_37:\n    /* \"#utility.yul\":490:495   */\n  dup2\n    /* \"#utility.yul\":487:520   */\n  eq\n    /* \"#utility.yul\":477:538   */\n  tag_38\n  jumpi\n    /* \"#utility.yul\":534:535   */\n  0x00\n    /* \"#utility.yul\":531:532   */\n  0x00\n    /* \"#utility.yul\":524:536   */\n  revert\n    /* \"#utility.yul\":477:538   */\ntag_38:\n    /* \"#utility.yul\":426:544   */\n  pop\n  jump\t// out\n    /* \"#utility.yul\":550:689   */\ntag_23:\n    /* \"#utility.yul\":605:610   */\n  0x00\n    /* \"#utility.yul\":636:642   */\n  dup2\n    /* \"#utility.yul\":630:643   */\n  mload\n    /* \"#utility.yul\":621:643   */\n  swap1\n  pop\n    /* \"#utility.yul\":652:683   */\n  tag_40\n    /* \"#utility.yul\":677:682   */\n  dup2\n    /* \"#utility.yul\":652:683   */\n  tag_22\n  jump\t// in\ntag_40:\n    /* \"#utility.yul\":550:689   */\n  swap3\n  swap2\n  pop\n  pop\n  jump\t// out\n    /* \"#utility.yul\":695:1042   */\ntag_4:\n    /* \"#utility.yul\":763:769   */\n  0x00\n    /* \"#utility.yul\":812:814   */\n  0x20\n    /* \"#utility.yul\":800:809   */\n  dup3\n    /* \"#utility.yul\":791:798   */\n  dup5\n    /* \"#utility.yul\":787:810   */\n  sub\n    /* \"#utility.yul\":783:815   */\n  slt\n    /* \"#utility.yul\":780:899   */\n  iszero\n  tag_42\n  jumpi\n    /* \"#utility.yul\":818:897   */\n  tag_43\n  tag_19\n  jump\t// in\ntag_43:\n    /* \"#utility.yul\":780:899   */\ntag_42:\n    /* \"#utility.yul\":938:939   */\n  0x00\n    /* \"#utility.yul\":963:1025   */\n  tag_44\n    /* \"#utility.yul\":1017:1024   */\n  dup5\n    /* \"#utility.yul\":1008:1014   */\n  dup3\n    /* \"#utility.yul\":997:1006   */\n  dup6\n    /* \"#utility.yul\":993:1015   */\n  add\n    /* \"#utility.yul\":963:1025   */\n  tag_23\n  jump\t// in\ntag_44:\n    /* \"#utility.yul\":953:1025   */\n  swap2\n  pop\n    /* \"#utility.yul\":909:1035   */\n  pop\n    /* \"#utility.yul\":695:1042   */\n  swap3\n  swap2\n  pop\n  pop\n  jump\t// out\n    /* \"#utility.yul\":1048:1228   */\ntag_24:\n    /* \"#utility.yul\":1096:1173   */\n  0x4e487b7100000000000000000000000000000000000000000000000000000000\n    /* \"#utility.yul\":1093:1094   */\n  0x00\n    /* \"#utility.yul\":1086:1174   */\n  mstore\n    /* \"#utility.yul\":1193:1197   */\n  0x11\n    /* \"#utility.yul\":1190:1191   */\n  0x04\n    /* \"#utility.yul\":1183:1198   */\n  mstore\n    /* \"#utility.yul\":1217:1221   */\n  0x24\n    /* \"#utility.yul\":1214:1215   */\n  0x00\n    /* \"#utility.yul\":1207:1222   */\n  revert\n    /* \"#utility.yul\":1234:1505   */\ntag_6:\n    /* \"#utility.yul\":1272:1279   */\n  0x00\n    /* \"#utility.yul\":1295:1313   */\n  tag_47\n    /* \"#utility.yul\":1311:1312   */\n  dup3\n    /* \"#utility.yul\":1295:1313   */\n  tag_21\n  jump\t// in\ntag_47:\n    /* \"#utility.yul\":1290:1313   */\n  swap2\n  pop\n    /* \"#utility.yul\":1327:1345   */\n  tag_48\n    /* \"#utility.yul\":1343:1344   */\n  dup4\n    /* \"#utility.yul\":1327:1345   */\n  tag_21\n  jump\t// in\ntag_48:\n    /* \"#utility.yul\":1322:1345   */\n  swap3\n  pop\n    /* \"#utility.yul\":1380:1381   */\n  dup3\n    /* \"#utility.yul\":1377:1378   */\n  dup3\n    /* \"#utility.yul\":1373:1382   */\n  mul\n    /* \"#utility.yul\":1402:1430   */\n  tag_49\n    /* \"#utility.yul\":1418:1429   */\n  dup2\n    /* \"#utility.yul\":1402:1430   */\n  tag_21\n  jump\t// in\ntag_49:\n    /* \"#utility.yul\":1391:1430   */\n  swap2\n  pop\n    /* \"#utility.yul\":1462:1473   */\n  dup1\n    /* \"#utility.yul\":1453:1460   */\n  dup3\n    /* \"#utility.yul\":1450:1474   */\n  eq\n    /* \"#utility.yul\":1440:1498   */\n  tag_50\n  jumpi\n    /* \"#utility.yul\":1478:1496   */\n  tag_51\n  tag_24\n  jump\t// in\ntag_51:\n    /* \"#utility.yul\":1440:1498   */\ntag_50:\n    /* \"#utility.yul\":1280:1505   */\n  pop\n    /* \"#utility.yul\":1234:1505   */\n  swap3\n  swap2\n  pop\n  pop\n  jump\t// out\n    /* \"#utility.yul\":1511:1588   */\ntag_25:\n    /* \"#utility.yul\":1548:1555   */\n  0x00\n    /* \"#utility.yul\":1577:1582   */\n  dup2\n    /* \"#utility.yul\":1566:1582   */\n  swap1\n  pop\n    /* \"#utility.yul\":1511:1588   */\n  swap2\n  swap1\n  pop\n  jump\t// out\n    /* \"#utility.yul\":1594:2004   */\ntag_8:\n    /* \"#utility.yul\":1634:1641   */\n  0x00\n    /* \"#utility.yul\":1657:1677   */\n  tag_54\n    /* \"#utility.yul\":1675:1676   */\n  dup3\n    /* \"#utility.yul\":1657:1677   */\n  tag_25\n  jump\t// in\ntag_54:\n    /* \"#utility.yul\":1652:1677   */\n  swap2\n  pop\n    /* \"#utility.yul\":1691:1711   */\n  tag_55\n    /* \"#utility.yul\":1709:1710   */\n  dup4\n    /* \"#utility.yul\":1691:1711   */\n  tag_25\n  jump\t// in\ntag_55:\n    /* \"#utility.yul\":1686:1711   */\n  swap3\n  pop\n    /* \"#utility.yul\":1746:1747   */\n  dup3\n    /* \"#utility.yul\":1743:1744   */\n  dup3\n    /* \"#utility.yul\":1739:1748   */\n  mul\n    /* \"#utility.yul\":1768:1798   */\n  tag_56\n    /* \"#utility.yul\":1786:1797   */\n  dup2\n    /* \"#utility.yul\":1768:1798   */\n  tag_25\n  jump\t// in\ntag_56:\n    /* \"#utility.yul\":1757:1798   */\n  swap2\n  pop\n    /* \"#utility.yul\":1947:1948   */\n  dup3\n    /* \"#utility.yul\":1938:1945   */\n  dup3\n    /* \"#utility.yul\":1934:1949   */\n  div\n    /* \"#utility.yul\":1931:1932   */\n  dup5\n    /* \"#utility.yul\":1928:1950   */\n  eq\n    /* \"#utility.yul\":1908:1909   */\n  dup4\n    /* \"#utility.yul\":1901:1910   */\n  iszero\n    /* \"#utility.yul\":1881:1964   */\n  or\n    /* \"#utility.yul\":1858:1997   */\n  tag_57\n  jumpi\n    /* \"#utility.yul\":1977:1995   */\n  tag_58\n  tag_24\n  jump\t// in\ntag_58:\n    /* \"#utility.yul\":1858:1997   */\ntag_57:\n    /* \"#utility.yul\":1642:2004   */\n  pop\n    /* \"#utility.yul\":1594:2004   */\n  swap3\n  swap2\n  pop\n  pop\n  jump\t// out\n    /* \"#utility.yul\":2010:2190   */\ntag_26:\n    /* \"#utility.yul\":2058:2135   */\n  0x4e487b7100000000000000000000000000000000000000000000000000000000\n    /* \"#utility.yul\":2055:2056   */\n  0x00\n    /* \"#utility.yul\":2048:2136   */\n  mstore\n    /* \"#utility.yul\":2155:2159   */\n  0x12\n    /* \"#utility.yul\":2152:2153   */\n  0x04\n    /* \"#utility.yul\":2145:2160   */\n  mstore\n    /* \"#utility.yul\":2179:2183   */\n  0x24\n    /* \"#utility.yul\":2176:2177   */\n  0x00\n    /* \"#utility.yul\":2169:2184   */\n  revert\n    /* \"#utility.yul\":2196:2381   */\ntag_10:\n    /* \"#utility.yul\":2236:2237   */\n  0x00\n    /* \"#utility.yul\":2253:2273   */\n  tag_61\n    /* \"#utility.yul\":2271:2272   */\n  dup3\n    /* \"#utility.yul\":2253:2273   */\n  tag_25\n  jump\t// in\ntag_61:\n    /* \"#utility.yul\":2248:2273   */\n  swap2\n  pop\n    /* \"#utility.yul\":2287:2307   */\n  tag_62\n    /* \"#utility.yul\":2305:2306   */\n  dup4\n    /* \"#utility.yul\":2287:2307   */\n  tag_25\n  jump\t// in\ntag_62:\n    /* \"#utility.yul\":2282:2307   */\n  swap3\n  pop\n    /* \"#utility.yul\":2326:2327   */\n  dup3\n    /* \"#utility.yul\":2316:2351   */\n  tag_63\n  jumpi\n    /* \"#utility.yul\":2331:2349   */\n  tag_64\n  tag_26\n  jump\t// in\ntag_64:\n    /* \"#utility.yul\":2316:2351   */\ntag_63:\n    /* \"#utility.yul\":2373:2374   */\n  dup3\n    /* \"#utility.yul\":2370:2371   */\n  dup3\n    /* \"#utility.yul\":2366:2375   */\n  div\n    /* \"#utility.yul\":2361:2375   */\n  swap1\n  pop\n    /* \"#utility.yul\":2196:2381   */\n  swap3\n  swap2\n  pop\n  pop\n  jump\t// out\n    /* \"#utility.yul\":2387:2513   */\ntag_27:\n    /* \"#utility.yul\":2424:2431   */\n  0x00\n    /* \"#utility.yul\":2464:2506   */\n  0xffffffffffffffffffffffffffffffffffffffff\n    /* \"#utility.yul\":2457:2462   */\n  dup3\n    /* \"#utility.yul\":2453:2507   */\n  and\n    /* \"#utility.yul\":2442:2507   */\n  swap1\n  pop\n    /* \"#utility.yul\":2387:2513   */\n  swap2\n  swap1\n  pop\n  jump\t// out\n    /* \"#utility.yul\":2519:2615   */\ntag_28:\n    /* \"#utility.yul\":2556:2563   */\n  0x00\n    /* \"#utility.yul\":2585:2609   */\n  tag_67\n    /* \"#utility.yul\":2603:2608   */\n  dup3\n    /* \"#utility.yul\":2585:2609   */\n  tag_27\n  jump\t// in\ntag_67:\n    /* \"#utility.yul\":2574:2609   */\n  swap1\n  pop\n    /* \"#utility.yul\":2519:2615   */\n  swap2\n  swap1\n  pop\n  jump\t// out\n    /* \"#utility.yul\":2621:2743   */\ntag_29:\n    /* \"#utility.yul\":2694:2718   */\n  tag_69\n    /* \"#utility.yul\":2712:2717   */\n  dup2\n    /* \"#utility.yul\":2694:2718   */\n  tag_28\n  jump\t// in\ntag_69:\n    /* \"#utility.yul\":2687:2692   */\n  dup2\n    /* \"#utility.yul\":2684:2719   */\n  eq\n    /* \"#utility.yul\":2674:2737   */\n  tag_70\n  jumpi\n    /* \"#utility.yul\":2733:2734   */\n  0x00\n    /* \"#utility.yul\":2730:2731   */\n  0x00\n    /* \"#utility.yul\":2723:2735   */\n  revert\n    /* \"#utility.yul\":2674:2737   */\ntag_70:\n    /* \"#utility.yul\":2621:2743   */\n  pop\n  jump\t// out\n    /* \"#utility.yul\":2749:2892   */\ntag_30:\n    /* \"#utility.yul\":2806:2811   */\n  0x00\n    /* \"#utility.yul\":2837:2843   */\n  dup2\n    /* \"#utility.yul\":2831:2844   */\n  mload\n    /* \"#utility.yul\":2822:2844   */\n  swap1\n  pop\n    /* \"#utility.yul\":2853:2886   */\n  tag_72\n    /* \"#utility.yul\":2880:2885   */\n  dup2\n    /* \"#utility.yul\":2853:2886   */\n  tag_29\n  jump\t// in\ntag_72:\n    /* \"#utility.yul\":2749:2892   */\n  swap3\n  swap2\n  pop\n  pop\n  jump\t// out\n    /* \"#utility.yul\":2898:3249   */\ntag_14:\n    /* \"#utility.yul\":2968:2974   */\n  0x00\n    /* \"#utility.yul\":3017:3019   */\n  0x20\n    /* \"#utility.yul\":3005:3014   */\n  dup3\n    /* \"#utility.yul\":2996:3003   */\n  dup5\n    /* \"#utility.yul\":2992:3015   */\n  sub\n    /* \"#utility.yul\":2988:3020   */\n  slt\n    /* \"#utility.yul\":2985:3104   */\n  iszero\n  tag_74\n  jumpi\n    /* \"#utility.yul\":3023:3102   */\n  tag_75\n  tag_19\n  jump\t// in\ntag_75:\n    /* \"#utility.yul\":2985:3104   */\ntag_74:\n    /* \"#utility.yul\":3143:3144   */\n  0x00\n    /* \"#utility.yul\":3168:3232   */\n  tag_76\n    /* \"#utility.yul\":3224:3231   */\n  dup5\n    /* \"#utility.yul\":3215:3221   */\n  dup3\n    /* \"#utility.yul\":3204:3213   */\n  dup6\n    /* \"#utility.yul\":3200:3222   */\n  add\n    /* \"#utility.yul\":3168:3232   */\n  tag_30\n  jump\t// in\ntag_76:\n    /* \"#utility.yul\":3158:3232   */\n  swap2\n  pop\n    /* \"#utility.yul\":3114:3242   */\n  pop\n    /* \"#utility.yul\":2898:3249   */\n  swap3\n  swap2\n  pop\n  pop\n  jump\t// out\n    /* \"contracts/test.sol\":401:7147  contract AutoDistribution {... */\ntag_17:\n  dataSize(sub_0)\n  dup1\n  dataOffset(sub_0)\n  0x00\n  codecopy\n  0x00\n  return\nstop\n\nsub_0: assembly {\n        /* \"contracts/test.sol\":401:7147  contract AutoDistribution {... */\n      mstore(0x40, 0x80)\n      callvalue\n      dup1\n      iszero\n      tag_1\n      jumpi\n      revert(0x00, 0x00)\n    tag_1:\n      pop\n      jumpi(tag_2, lt(calldatasize, 0x04))\n      shr(0xe0, calldataload(0x00))\n      dup1\n      0x91db7b0d\n      gt\n      tag_22\n      jumpi\n      dup1\n      0xefeb5f1f\n      gt\n      tag_23\n      jumpi\n      dup1\n      0xefeb5f1f\n      eq\n      tag_17\n      jumpi\n      dup1\n      0xf2bc79a3\n      eq\n      tag_18\n      jumpi\n      dup1\n      0xf5c330a8\n      eq\n      tag_19\n      jumpi\n      dup1\n      0xfc0c546a\n      eq\n      tag_20\n      jumpi\n      dup1\n      0xfe9fbb80\n      eq\n      tag_21\n      jumpi\n      jump(tag_2)\n    tag_23:\n      dup1\n      0x91db7b0d\n      eq\n      tag_12\n      jumpi\n      dup1\n      0x9eda5810\n      eq\n      tag_13\n      jumpi\n      dup1\n      0xcb3cc126\n      eq\n      tag_14\n      jumpi\n      dup1\n      0xd1bc76a1\n      eq\n      tag_15\n      jumpi\n      dup1\n      0xdf4d971d\n      eq\n      tag_16\n      jumpi\n      jump(tag_2)\n    tag_22:\n      dup1\n      0x51cff8d9\n      gt\n      tag_24\n      jumpi\n      dup1\n      0x51cff8d9\n      eq\n      tag_7\n      jumpi\n      dup1\n      0x69a63036\n      eq\n      tag_8\n      jumpi\n      dup1\n      0x6f4a2cd0\n      eq\n      tag_9\n      jumpi\n      dup1\n      0x82dc7c9d\n      eq\n      tag_10\n      jumpi\n      dup1\n      0x8da5cb5b\n      eq\n      tag_11\n      jumpi\n      jump(tag_2)\n    tag_24:\n      dup1\n      0x012e0867\n      eq\n      tag_3\n      jumpi\n      dup1\n      0x0483a7f6\n      eq\n      tag_4\n      jumpi\n      dup1\n      0x31008aae\n      eq\n      tag_5\n      jumpi\n      dup1\n      0x3638104a\n      eq\n      tag_6\n      jumpi\n    tag_2:\n      revert(0x00, 0x00)\n        /* \"contracts/test.sol\":923:972  uint256 public constant EARLY_UNLOCK_PERCENT = 30 */\n    tag_3:\n      tag_25\n      tag_26\n      jump\t// in\n    tag_25:\n      mload(0x40)\n      tag_27\n      swap2\n      swap1\n      tag_28\n      jump\t// in\n    tag_27:\n      mload(0x40)\n      dup1\n      swap2\n      sub\n      swap1\n      return\n        /* \"contracts/test.sol\":1437:1485  mapping(address => Reward) public lockedBalances */\n    tag_4:\n      tag_29\n      0x04\n      dup1\n      calldatasize\n      sub\n      dup2\n      add\n      swap1\n      tag_30\n      swap2\n      swap1\n      tag_31\n      jump\t// in\n    tag_30:\n      tag_32\n      jump\t// in\n    tag_29:\n      mload(0x40)\n      tag_33\n      swap2\n      swap1\n      tag_28\n      jump\t// in\n    tag_33:\n      mload(0x40)\n      dup1\n      swap2\n      sub\n      swap1\n      return\n        /* \"contracts/test.sol\":690:748  uint256 public constant DISTRIBUTION_BLOCK_INTERVAL = 7200 */\n    tag_5:\n      tag_34\n      tag_35\n      jump\t// in\n    tag_34:\n      mload(0x40)\n      tag_36\n      swap2\n      swap1\n      tag_28\n      jump\t// in\n    tag_36:\n      mload(0x40)\n      dup1\n      swap2\n      sub\n      swap1\n      return\n        /* \"contracts/test.sol\":1515:1564  mapping(address => bool) public authorizedAddress */\n    tag_6:\n      tag_37\n      0x04\n      dup1\n      calldatasize\n      sub\n      dup2\n      add\n      swap1\n      tag_38\n      swap2\n      swap1\n      tag_31\n      jump\t// in\n    tag_38:\n      tag_39\n      jump\t// in\n    tag_37:\n      mload(0x40)\n      tag_40\n      swap2\n      swap1\n      tag_41\n      jump\t// in\n    tag_40:\n      mload(0x40)\n      dup1\n      swap2\n      sub\n      swap1\n      return\n        /* \"contracts/test.sol\":5582:5979  function withdraw(address _rewardAddress) public {... */\n    tag_7:\n      tag_42\n      0x04\n      dup1\n      calldatasize\n      sub\n      dup2\n      add\n      swap1\n      tag_43\n      swap2\n      swap1\n      tag_31\n      jump\t// in\n    tag_43:\n      tag_44\n      jump\t// in\n    tag_42:\n      stop\n        /* \"contracts/test.sol\":3119:3833  function claimUnlockedTokens(address _rewardAddress) public {... */\n    tag_8:\n      tag_45\n      0x04\n      dup1\n      calldatasize\n      sub\n      dup2\n      add\n      swap1\n      tag_46\n      swap2\n      swap1\n      tag_31\n      jump\t// in\n    tag_46:\n      tag_47\n      jump\t// in\n    tag_45:\n      stop\n        /* \"contracts/test.sol\":2186:3084  function distributeRewards() public {... */\n    tag_9:\n      tag_48\n      tag_49\n      jump\t// in\n    tag_48:\n      stop\n        /* \"contracts/test.sol\":801:846  uint256 public constant LOCK_BLOCKS = 1080000 */\n    tag_10:\n      tag_50\n      tag_51\n      jump\t// in\n    tag_50:\n      mload(0x40)\n      tag_52\n      swap2\n      swap1\n      tag_28\n      jump\t// in\n    tag_52:\n      mload(0x40)\n      dup1\n      swap2\n      sub\n      swap1\n      return\n        /* \"contracts/test.sol\":460:480  address public owner */\n    tag_11:\n      tag_53\n      tag_54\n      jump\t// in\n    tag_53:\n      mload(0x40)\n      tag_55\n      swap2\n      swap1\n      tag_56\n      jump\t// in\n    tag_55:\n      mload(0x40)\n      dup1\n      swap2\n      sub\n      swap1\n      return\n        /* \"contracts/test.sol\":6035:6183  function updateLockPeriod(uint256 newLockPeriod) public view onlyOwner {... */\n    tag_12:\n      tag_57\n      0x04\n      dup1\n      calldatasize\n      sub\n      dup2\n      add\n      swap1\n      tag_58\n      swap2\n      swap1\n      tag_59\n      jump\t// in\n    tag_58:\n      tag_60\n      jump\t// in\n    tag_57:\n      stop\n        /* \"contracts/test.sol\":1315:1364  mapping(address => address) public bindingWallets */\n    tag_13:\n      tag_61\n      0x04\n      dup1\n      calldatasize\n      sub\n      dup2\n      add\n      swap1\n      tag_62\n      swap2\n      swap1\n      tag_31\n      jump\t// in\n    tag_62:\n      tag_63\n      jump\t// in\n    tag_61:\n      mload(0x40)\n      tag_64\n      swap2\n      swap1\n      tag_56\n      jump\t// in\n    tag_64:\n      mload(0x40)\n      dup1\n      swap2\n      sub\n      swap1\n      return\n        /* \"contracts/test.sol\":487:538  uint256 public onlineReward = 60 * token.decimals() */\n    tag_14:\n      tag_65\n      tag_66\n      jump\t// in\n    tag_65:\n      mload(0x40)\n      tag_67\n      swap2\n      swap1\n      tag_28\n      jump\t// in\n    tag_67:\n      mload(0x40)\n      dup1\n      swap2\n      sub\n      swap1\n      return\n        /* \"contracts/test.sol\":1587:1614  address[] public recipients */\n    tag_15:\n      tag_68\n      0x04\n      dup1\n      calldatasize\n      sub\n      dup2\n      add\n      swap1\n      tag_69\n      swap2\n      swap1\n      tag_59\n      jump\t// in\n    tag_69:\n      tag_70\n      jump\t// in\n    tag_68:\n      mload(0x40)\n      tag_71\n      swap2\n      swap1\n      tag_56\n      jump\t// in\n    tag_71:\n      mload(0x40)\n      dup1\n      swap2\n      sub\n      swap1\n      return\n        /* \"contracts/test.sol\":6254:6984  function earlyUnlock(address _rewardAddress) public {... */\n    tag_16:\n      tag_72\n      0x04\n      dup1\n      calldatasize\n      sub\n      dup2\n      add\n      swap1\n      tag_73\n      swap2\n      swap1\n      tag_31\n      jump\t// in\n    tag_73:\n      tag_74\n      jump\t// in\n    tag_72:\n      stop\n        /* \"contracts/test.sol\":1948:2157  function addWallet(address wallet) public onlyOwner {... */\n    tag_17:\n      tag_75\n      0x04\n      dup1\n      calldatasize\n      sub\n      dup2\n      add\n      swap1\n      tag_76\n      swap2\n      swap1\n      tag_31\n      jump\t// in\n    tag_76:\n      tag_77\n      jump\t// in\n    tag_75:\n      stop\n        /* \"contracts/test.sol\":647:683  uint256 public lastDistributionBlock */\n    tag_18:\n      tag_78\n      tag_79\n      jump\t// in\n    tag_78:\n      mload(0x40)\n      tag_80\n      swap2\n      swap1\n      tag_28\n      jump\t// in\n    tag_80:\n      mload(0x40)\n      dup1\n      swap2\n      sub\n      swap1\n      return\n        /* \"contracts/test.sol\":561:621  uint256 public roundUnlock = (onlineReward * 70) / 100 / 180 */\n    tag_19:\n      tag_81\n      tag_82\n      jump\t// in\n    tag_81:\n      mload(0x40)\n      tag_83\n      swap2\n      swap1\n      tag_28\n      jump\t// in\n    tag_83:\n      mload(0x40)\n      dup1\n      swap2\n      sub\n      swap1\n      return\n        /* \"contracts/test.sol\":434:453  IERC20 public token */\n    tag_20:\n      tag_84\n      tag_85\n      jump\t// in\n    tag_84:\n      mload(0x40)\n      tag_86\n      swap2\n      swap1\n      tag_87\n      jump\t// in\n    tag_86:\n      mload(0x40)\n      dup1\n      swap2\n      sub\n      swap1\n      return\n        /* \"contracts/test.sol\":7028:7144  function isAuthorized(address wallet) public view returns (bool) {... */\n    tag_21:\n      tag_88\n      0x04\n      dup1\n      calldatasize\n      sub\n      dup2\n      add\n      swap1\n      tag_89\n      swap2\n      swap1\n      tag_31\n      jump\t// in\n    tag_89:\n      tag_90\n      jump\t// in\n    tag_88:\n      mload(0x40)\n      tag_91\n      swap2\n      swap1\n      tag_41\n      jump\t// in\n    tag_91:\n      mload(0x40)\n      dup1\n      swap2\n      sub\n      swap1\n      return\n        /* \"contracts/test.sol\":923:972  uint256 public constant EARLY_UNLOCK_PERCENT = 30 */\n    tag_26:\n        /* \"contracts/test.sol\":970:972  30 */\n      0x1e\n        /* \"contracts/test.sol\":923:972  uint256 public constant EARLY_UNLOCK_PERCENT = 30 */\n      dup2\n      jump\t// out\n        /* \"contracts/test.sol\":1437:1485  mapping(address => Reward) public lockedBalances */\n    tag_32:\n      mstore(0x20, 0x06)\n      dup1\n      0x00\n      mstore\n      keccak256(0x00, 0x40)\n      0x00\n      swap2\n      pop\n      swap1\n      pop\n      dup1\n      0x01\n      add\n      sload\n      swap1\n      pop\n      dup2\n      jump\t// out\n        /* \"contracts/test.sol\":690:748  uint256 public constant DISTRIBUTION_BLOCK_INTERVAL = 7200 */\n    tag_35:\n        /* \"contracts/test.sol\":744:748  7200 */\n      0x1c20\n        /* \"contracts/test.sol\":690:748  uint256 public constant DISTRIBUTION_BLOCK_INTERVAL = 7200 */\n      dup2\n      jump\t// out\n        /* \"contracts/test.sol\":1515:1564  mapping(address => bool) public authorizedAddress */\n    tag_39:\n      mstore(0x20, 0x07)\n      dup1\n      0x00\n      mstore\n      keccak256(0x00, 0x40)\n      0x00\n      swap2\n      pop\n      sload\n      swap1\n      0x0100\n      exp\n      swap1\n      div\n      0xff\n      and\n      dup2\n      jump\t// out\n        /* \"contracts/test.sol\":5582:5979  function withdraw(address _rewardAddress) public {... */\n    tag_44:\n        /* \"contracts/test.sol\":5684:5694  msg.sender */\n      caller\n        /* \"contracts/test.sol\":5650:5694  bindingWallets[_rewardAddress] == msg.sender */\n      0xffffffffffffffffffffffffffffffffffffffff\n      and\n        /* \"contracts/test.sol\":5650:5664  bindingWallets */\n      0x05\n        /* \"contracts/test.sol\":5650:5680  bindingWallets[_rewardAddress] */\n      0x00\n        /* \"contracts/test.sol\":5665:5679  _rewardAddress */\n      dup4\n        /* \"contracts/test.sol\":5650:5680  bindingWallets[_rewardAddress] */\n      0xffffffffffffffffffffffffffffffffffffffff\n      and\n      0xffffffffffffffffffffffffffffffffffffffff\n      and\n      dup2\n      mstore\n      0x20\n      add\n      swap1\n      dup2\n      mstore\n      0x20\n      add\n      0x00\n      keccak256\n      0x00\n      swap1\n      sload\n      swap1\n      0x0100\n      exp\n      swap1\n      div\n      0xffffffffffffffffffffffffffffffffffffffff\n      and\n        /* \"contracts/test.sol\":5650:5694  bindingWallets[_rewardAddress] == msg.sender */\n      0xffffffffffffffffffffffffffffffffffffffff\n      and\n      eq\n        /* \"contracts/test.sol\":5642:5709  require(bindingWallets[_rewardAddress] == msg.sender, \"No binding\") */\n      tag_93\n      jumpi\n      mload(0x40)\n      0x08c379a000000000000000000000000000000000000000000000000000000000\n      dup2\n      mstore\n      0x04\n      add\n      tag_94\n      swap1\n      tag_95\n      jump\t// in\n    tag_94:\n      mload(0x40)\n      dup1\n      swap2\n      sub\n      swap1\n      revert\n    tag_93:\n        /* \"contracts/test.sol\":5720:5741  Reward storage reward */\n      0x00\n        /* \"contracts/test.sol\":5744:5758  lockedBalances */\n      0x06\n        /* \"contracts/test.sol\":5744:5774  lockedBalances[_rewardAddress] */\n      0x00\n        /* \"contracts/test.sol\":5759:5773  _rewardAddress */\n      dup4\n        /* \"contracts/test.sol\":5744:5774  lockedBalances[_rewardAddress] */\n      0xffffffffffffffffffffffffffffffffffffffff\n      and\n      0xffffffffffffffffffffffffffffffffffffffff\n      and\n      dup2\n      mstore\n      0x20\n      add\n      swap1\n      dup2\n      mstore\n      0x20\n      add\n      0x00\n      keccak256\n        /* \"contracts/test.sol\":5720:5774  Reward storage reward = lockedBalances[_rewardAddress] */\n      swap1\n      pop\n        /* \"contracts/test.sol\":5819:5820  0 */\n      0x00\n        /* \"contracts/test.sol\":5795:5801  reward */\n      dup2\n        /* \"contracts/test.sol\":5795:5816  reward.unlockedAmount */\n      0x01\n      add\n      sload\n        /* \"contracts/test.sol\":5795:5820  reward.unlockedAmount > 0 */\n      gt\n        /* \"contracts/test.sol\":5787:5847  require(reward.unlockedAmount > 0, \"No unlocked tokens yet\") */\n      tag_96\n      jumpi\n      mload(0x40)\n      0x08c379a000000000000000000000000000000000000000000000000000000000\n      dup2\n      mstore\n      0x04\n      add\n      tag_97\n      swap1\n      tag_98\n      jump\t// in\n    tag_97:\n      mload(0x40)\n      dup1\n      swap2\n      sub\n      swap1\n      revert\n    tag_96:\n        /* \"contracts/test.sol\":5866:5871  token */\n      0x00\n      0x00\n      swap1\n      sload\n      swap1\n      0x0100\n      exp\n      swap1\n      div\n      0xffffffffffffffffffffffffffffffffffffffff\n      and\n        /* \"contracts/test.sol\":5866:5880  token.transfer */\n      0xffffffffffffffffffffffffffffffffffffffff\n      and\n      0xa9059cbb\n        /* \"contracts/test.sol\":5881:5891  msg.sender */\n      caller\n        /* \"contracts/test.sol\":5893:5899  reward */\n      dup4\n        /* \"contracts/test.sol\":5893:5914  reward.unlockedAmount */\n      0x01\n      add\n      sload\n        /* \"contracts/test.sol\":5866:5915  token.transfer(msg.sender, reward.unlockedAmount) */\n      mload(0x40)\n      dup4\n      0xffffffff\n      and\n      0xe0\n      shl\n      dup2\n      mstore\n      0x04\n      add\n      tag_99\n      swap3\n      swap2\n      swap1\n      tag_100\n      jump\t// in\n    tag_99:\n      0x20\n      mload(0x40)\n      dup1\n      dup4\n      sub\n      dup2\n      0x00\n      dup8\n      gas\n      call\n      iszero\n      dup1\n      iszero\n      tag_102\n      jumpi\n      returndatacopy(0x00, 0x00, returndatasize)\n      revert(0x00, returndatasize)\n    tag_102:\n      pop\n      pop\n      pop\n      pop\n      mload(0x40)\n      returndatasize\n      not(0x1f)\n      0x1f\n      dup3\n      add\n      and\n      dup3\n      add\n      dup1\n      0x40\n      mstore\n      pop\n      dup2\n      add\n      swap1\n      tag_103\n      swap2\n      swap1\n      tag_104\n      jump\t// in\n    tag_103:\n        /* \"contracts/test.sol\":5858:5935  require(token.transfer(msg.sender, reward.unlockedAmount), \"Transfer failed\") */\n      tag_105\n      jumpi\n      mload(0x40)\n      0x08c379a000000000000000000000000000000000000000000000000000000000\n      dup2\n      mstore\n      0x04\n      add\n      tag_106\n      swap1\n      tag_107\n      jump\t// in\n    tag_106:\n      mload(0x40)\n      dup1\n      swap2\n      sub\n      swap1\n      revert\n    tag_105:\n        /* \"contracts/test.sol\":5970:5971  0 */\n      0x00\n        /* \"contracts/test.sol\":5946:5952  reward */\n      dup2\n        /* \"contracts/test.sol\":5946:5967  reward.unlockedAmount */\n      0x01\n      add\n        /* \"contracts/test.sol\":5946:5971  reward.unlockedAmount = 0 */\n      dup2\n      swap1\n      sstore\n      pop\n        /* \"contracts/test.sol\":5631:5979  {... */\n      pop\n        /* \"contracts/test.sol\":5582:5979  function withdraw(address _rewardAddress) public {... */\n      pop\n      jump\t// out\n        /* \"contracts/test.sol\":3119:3833  function claimUnlockedTokens(address _rewardAddress) public {... */\n    tag_47:\n        /* \"contracts/test.sol\":3232:3242  msg.sender */\n      caller\n        /* \"contracts/test.sol\":3198:3242  bindingWallets[_rewardAddress] == msg.sender */\n      0xffffffffffffffffffffffffffffffffffffffff\n      and\n        /* \"contracts/test.sol\":3198:3212  bindingWallets */\n      0x05\n        /* \"contracts/test.sol\":3198:3228  bindingWallets[_rewardAddress] */\n      0x00\n        /* \"contracts/test.sol\":3213:3227  _rewardAddress */\n      dup4\n        /* \"contracts/test.sol\":3198:3228  bindingWallets[_rewardAddress] */\n      0xffffffffffffffffffffffffffffffffffffffff\n      and\n      0xffffffffffffffffffffffffffffffffffffffff\n      and\n      dup2\n      mstore\n      0x20\n      add\n      swap1\n      dup2\n      mstore\n      0x20\n      add\n      0x00\n      keccak256\n      0x00\n      swap1\n      sload\n      swap1\n      0x0100\n      exp\n      swap1\n      div\n      0xffffffffffffffffffffffffffffffffffffffff\n      and\n        /* \"contracts/test.sol\":3198:3242  bindingWallets[_rewardAddress] == msg.sender */\n      0xffffffffffffffffffffffffffffffffffffffff\n      and\n      eq\n        /* \"contracts/test.sol\":3190:3257  require(bindingWallets[_rewardAddress] == msg.sender, \"No binding\") */\n      tag_109\n      jumpi\n      mload(0x40)\n      0x08c379a000000000000000000000000000000000000000000000000000000000\n      dup2\n      mstore\n      0x04\n      add\n      tag_110\n      swap1\n      tag_95\n      jump\t// in\n    tag_110:\n      mload(0x40)\n      dup1\n      swap2\n      sub\n      swap1\n      revert\n    tag_109:\n        /* \"contracts/test.sol\":3268:3289  Reward storage reward */\n      0x00\n        /* \"contracts/test.sol\":3292:3306  lockedBalances */\n      0x06\n        /* \"contracts/test.sol\":3292:3322  lockedBalances[_rewardAddress] */\n      0x00\n        /* \"contracts/test.sol\":3307:3321  _rewardAddress */\n      dup4\n        /* \"contracts/test.sol\":3292:3322  lockedBalances[_rewardAddress] */\n      0xffffffffffffffffffffffffffffffffffffffff\n      and\n      0xffffffffffffffffffffffffffffffffffffffff\n      and\n      dup2\n      mstore\n      0x20\n      add\n      swap1\n      dup2\n      mstore\n      0x20\n      add\n      0x00\n      keccak256\n        /* \"contracts/test.sol\":3268:3322  Reward storage reward = lockedBalances[_rewardAddress] */\n      swap1\n      pop\n        /* \"contracts/test.sol\":3366:3367  0 */\n      0x00\n        /* \"contracts/test.sol\":3341:3347  reward */\n      dup2\n        /* \"contracts/test.sol\":3341:3356  reward.lockInfo */\n      0x00\n      add\n        /* \"contracts/test.sol\":3341:3363  reward.lockInfo.length */\n      dup1\n      sload\n      swap1\n      pop\n        /* \"contracts/test.sol\":3341:3367  reward.lockInfo.length > 0 */\n      gt\n        /* \"contracts/test.sol\":3333:3388  require(reward.lockInfo.length > 0, \"No locked tokens\") */\n      tag_111\n      jumpi\n      mload(0x40)\n      0x08c379a000000000000000000000000000000000000000000000000000000000\n      dup2\n      mstore\n      0x04\n      add\n      tag_112\n      swap1\n      tag_113\n      jump\t// in\n    tag_112:\n      mload(0x40)\n      dup1\n      swap2\n      sub\n      swap1\n      revert\n    tag_111:\n        /* \"contracts/test.sol\":3406:3415  uint256 i */\n      0x00\n        /* \"contracts/test.sol\":3418:3419  0 */\n      0x00\n        /* \"contracts/test.sol\":3406:3419  uint256 i = 0 */\n      swap1\n      pop\n        /* \"contracts/test.sol\":3401:3826  for (uint256 i = 0; i < reward.lockInfo.length; i++) {... */\n    tag_114:\n        /* \"contracts/test.sol\":3425:3431  reward */\n      dup2\n        /* \"contracts/test.sol\":3425:3440  reward.lockInfo */\n      0x00\n      add\n        /* \"contracts/test.sol\":3425:3447  reward.lockInfo.length */\n      dup1\n      sload\n      swap1\n      pop\n        /* \"contracts/test.sol\":3421:3422  i */\n      dup2\n        /* \"contracts/test.sol\":3421:3447  i < reward.lockInfo.length */\n      lt\n        /* \"contracts/test.sol\":3401:3826  for (uint256 i = 0; i < reward.lockInfo.length; i++) {... */\n      iszero\n      tag_115\n      jumpi\n        /* \"contracts/test.sol\":3474:3480  reward */\n      dup2\n        /* \"contracts/test.sol\":3474:3489  reward.lockInfo */\n      0x00\n      add\n        /* \"contracts/test.sol\":3490:3491  i */\n      dup2\n        /* \"contracts/test.sol\":3474:3492  reward.lockInfo[i] */\n      dup2\n      sload\n      dup2\n      lt\n      tag_117\n      jumpi\n      tag_118\n      tag_119\n      jump\t// in\n    tag_118:\n    tag_117:\n      swap1\n      0x00\n      mstore\n      keccak256(0x00, 0x20)\n      swap1\n      0x03\n      mul\n      add\n        /* \"contracts/test.sol\":3474:3503  reward.lockInfo[i].isUnlocked */\n      0x02\n      add\n      0x00\n      swap1\n      sload\n      swap1\n      0x0100\n      exp\n      swap1\n      div\n      0xff\n      and\n        /* \"contracts/test.sol\":3469:3815  if (!reward.lockInfo[i].isUnlocked) {... */\n      tag_121\n      jumpi\n        /* \"contracts/test.sol\":3524:3545  uint256 elapsedBlocks */\n      0x00\n        /* \"contracts/test.sol\":3563:3569  reward */\n      dup3\n        /* \"contracts/test.sol\":3563:3578  reward.lockInfo */\n      0x00\n      add\n        /* \"contracts/test.sol\":3579:3580  i */\n      dup3\n        /* \"contracts/test.sol\":3563:3581  reward.lockInfo[i] */\n      dup2\n      sload\n      dup2\n      lt\n      tag_122\n      jumpi\n      tag_123\n      tag_119\n      jump\t// in\n    tag_123:\n    tag_122:\n      swap1\n      0x00\n      mstore\n      keccak256(0x00, 0x20)\n      swap1\n      0x03\n      mul\n      add\n        /* \"contracts/test.sol\":3563:3592  reward.lockInfo[i].startBlock */\n      0x01\n      add\n      sload\n        /* \"contracts/test.sol\":3548:3560  block.number */\n      number\n        /* \"contracts/test.sol\":3548:3592  block.number - reward.lockInfo[i].startBlock */\n      tag_125\n      swap2\n      swap1\n      tag_126\n      jump\t// in\n    tag_125:\n        /* \"contracts/test.sol\":3524:3592  uint256 elapsedBlocks = block.number - reward.lockInfo[i].startBlock */\n      swap1\n      pop\n        /* \"contracts/test.sol\":839:846  1080000 */\n      0x107ac0\n        /* \"contracts/test.sol\":3615:3628  elapsedBlocks */\n      dup2\n        /* \"contracts/test.sol\":3615:3643  elapsedBlocks >= LOCK_BLOCKS */\n      lt\n        /* \"contracts/test.sol\":3611:3800  if (elapsedBlocks >= LOCK_BLOCKS) {... */\n      tag_127\n      jumpi\n        /* \"contracts/test.sol\":3693:3699  reward */\n      dup3\n        /* \"contracts/test.sol\":3693:3708  reward.lockInfo */\n      0x00\n      add\n        /* \"contracts/test.sol\":3709:3710  i */\n      dup3\n        /* \"contracts/test.sol\":3693:3711  reward.lockInfo[i] */\n      dup2\n      sload\n      dup2\n      lt\n      tag_128\n      jumpi\n      tag_129\n      tag_119\n      jump\t// in\n    tag_129:\n    tag_128:\n      swap1\n      0x00\n      mstore\n      keccak256(0x00, 0x20)\n      swap1\n      0x03\n      mul\n      add\n        /* \"contracts/test.sol\":3693:3723  reward.lockInfo[i].totalAmount */\n      0x00\n      add\n      sload\n        /* \"contracts/test.sol\":3668:3674  reward */\n      dup4\n        /* \"contracts/test.sol\":3668:3689  reward.unlockedAmount */\n      0x01\n      add\n      0x00\n        /* \"contracts/test.sol\":3668:3723  reward.unlockedAmount += reward.lockInfo[i].totalAmount */\n      dup3\n      dup3\n      sload\n      tag_131\n      swap2\n      swap1\n      tag_132\n      jump\t// in\n    tag_131:\n      swap3\n      pop\n      pop\n      dup2\n      swap1\n      sstore\n      pop\n        /* \"contracts/test.sol\":3779:3780  0 */\n      0x00\n        /* \"contracts/test.sol\":3746:3752  reward */\n      dup4\n        /* \"contracts/test.sol\":3746:3761  reward.lockInfo */\n      0x00\n      add\n        /* \"contracts/test.sol\":3762:3763  i */\n      dup4\n        /* \"contracts/test.sol\":3746:3764  reward.lockInfo[i] */\n      dup2\n      sload\n      dup2\n      lt\n      tag_133\n      jumpi\n      tag_134\n      tag_119\n      jump\t// in\n    tag_134:\n    tag_133:\n      swap1\n      0x00\n      mstore\n      keccak256(0x00, 0x20)\n      swap1\n      0x03\n      mul\n      add\n        /* \"contracts/test.sol\":3746:3776  reward.lockInfo[i].totalAmount */\n      0x00\n      add\n        /* \"contracts/test.sol\":3746:3780  reward.lockInfo[i].totalAmount = 0 */\n      dup2\n      swap1\n      sstore\n      pop\n        /* \"contracts/test.sol\":3611:3800  if (elapsedBlocks >= LOCK_BLOCKS) {... */\n    tag_127:\n        /* \"contracts/test.sol\":3505:3815  {... */\n      pop\n        /* \"contracts/test.sol\":3469:3815  if (!reward.lockInfo[i].isUnlocked) {... */\n    tag_121:\n        /* \"contracts/test.sol\":3449:3452  i++ */\n      dup1\n      dup1\n      0x01\n      add\n      swap2\n      pop\n      pop\n        /* \"contracts/test.sol\":3401:3826  for (uint256 i = 0; i < reward.lockInfo.length; i++) {... */\n      jump(tag_114)\n    tag_115:\n      pop\n        /* \"contracts/test.sol\":3179:3833  {... */\n      pop\n        /* \"contracts/test.sol\":3119:3833  function claimUnlockedTokens(address _rewardAddress) public {... */\n      pop\n      jump\t// out\n        /* \"contracts/test.sol\":2186:3084  function distributeRewards() public {... */\n    tag_49:\n        /* \"contracts/test.sol\":744:748  7200 */\n      0x1c20\n        /* \"contracts/test.sol\":2257:2278  lastDistributionBlock */\n      sload(0x04)\n        /* \"contracts/test.sol\":2257:2308  lastDistributionBlock + DISTRIBUTION_BLOCK_INTERVAL */\n      tag_137\n      swap2\n      swap1\n      tag_132\n      jump\t// in\n    tag_137:\n        /* \"contracts/test.sol\":2241:2253  block.number */\n      number\n        /* \"contracts/test.sol\":2241:2308  block.number >= lastDistributionBlock + DISTRIBUTION_BLOCK_INTERVAL */\n      lt\n      iszero\n        /* \"contracts/test.sol\":2233:2335  require(block.number >= lastDistributionBlock + DISTRIBUTION_BLOCK_INTERVAL, \"Distribution not ready\") */\n      tag_138\n      jumpi\n      mload(0x40)\n      0x08c379a000000000000000000000000000000000000000000000000000000000\n      dup2\n      mstore\n      0x04\n      add\n      tag_139\n      swap1\n      tag_140\n      jump\t// in\n    tag_139:\n      mload(0x40)\n      dup1\n      swap2\n      sub\n      swap1\n      revert\n    tag_138:\n        /* \"contracts/test.sol\":2372:2384  block.number */\n      number\n        /* \"contracts/test.sol\":2348:2369  lastDistributionBlock */\n      0x04\n        /* \"contracts/test.sol\":2348:2384  lastDistributionBlock = block.number */\n      dup2\n      swap1\n      sstore\n      pop\n        /* \"contracts/test.sol\":2400:2409  uint256 i */\n      0x00\n        /* \"contracts/test.sol\":2412:2413  0 */\n      0x00\n        /* \"contracts/test.sol\":2400:2413  uint256 i = 0 */\n      swap1\n      pop\n        /* \"contracts/test.sol\":2395:3077  for (uint256 i = 0; i < recipients.length; i++) {... */\n    tag_141:\n        /* \"contracts/test.sol\":2419:2429  recipients */\n      0x08\n        /* \"contracts/test.sol\":2419:2436  recipients.length */\n      dup1\n      sload\n      swap1\n      pop\n        /* \"contracts/test.sol\":2415:2416  i */\n      dup2\n        /* \"contracts/test.sol\":2415:2436  i < recipients.length */\n      lt\n        /* \"contracts/test.sol\":2395:3077  for (uint256 i = 0; i < recipients.length; i++) {... */\n      iszero\n      tag_142\n      jumpi\n        /* \"contracts/test.sol\":2458:2475  address recipient */\n      0x00\n        /* \"contracts/test.sol\":2478:2488  recipients */\n      0x08\n        /* \"contracts/test.sol\":2489:2490  i */\n      dup3\n        /* \"contracts/test.sol\":2478:2491  recipients[i] */\n      dup2\n      sload\n      dup2\n      lt\n      tag_144\n      jumpi\n      tag_145\n      tag_119\n      jump\t// in\n    tag_145:\n    tag_144:\n      swap1\n      0x00\n      mstore\n      keccak256(0x00, 0x20)\n      add\n      0x00\n      swap1\n      sload\n      swap1\n      0x0100\n      exp\n      swap1\n      div\n      0xffffffffffffffffffffffffffffffffffffffff\n      and\n        /* \"contracts/test.sol\":2458:2491  address recipient = recipients[i] */\n      swap1\n      pop\n        /* \"contracts/test.sol\":2566:2587  uint256 initialAmount */\n      0x00\n        /* \"contracts/test.sol\":2612:2615  100 */\n      0x64\n        /* \"contracts/test.sol\":2606:2608  30 */\n      0x1e\n        /* \"contracts/test.sol\":2591:2603  onlineReward */\n      sload(0x02)\n        /* \"contracts/test.sol\":2591:2608  onlineReward * 30 */\n      tag_147\n      swap2\n      swap1\n      tag_148\n      jump\t// in\n    tag_147:\n        /* \"contracts/test.sol\":2590:2615  (onlineReward * 30) / 100 */\n      tag_149\n      swap2\n      swap1\n      tag_150\n      jump\t// in\n    tag_149:\n        /* \"contracts/test.sol\":2566:2615  uint256 initialAmount = (onlineReward * 30) / 100 */\n      swap1\n      pop\n        /* \"contracts/test.sol\":2678:2691  initialAmount */\n      dup1\n        /* \"contracts/test.sol\":2634:2648  lockedBalances */\n      0x06\n        /* \"contracts/test.sol\":2634:2659  lockedBalances[recipient] */\n      0x00\n        /* \"contracts/test.sol\":2649:2658  recipient */\n      dup5\n        /* \"contracts/test.sol\":2634:2659  lockedBalances[recipient] */\n      0xffffffffffffffffffffffffffffffffffffffff\n      and\n      0xffffffffffffffffffffffffffffffffffffffff\n      and\n      dup2\n      mstore\n      0x20\n      add\n      swap1\n      dup2\n      mstore\n      0x20\n      add\n      0x00\n      keccak256\n        /* \"contracts/test.sol\":2634:2674  lockedBalances[recipient].unlockedAmount */\n      0x01\n      add\n      0x00\n        /* \"contracts/test.sol\":2634:2691  lockedBalances[recipient].unlockedAmount += initialAmount */\n      dup3\n      dup3\n      sload\n      tag_151\n      swap2\n      swap1\n      tag_132\n      jump\t// in\n    tag_151:\n      swap3\n      pop\n      pop\n      dup2\n      swap1\n      sstore\n      pop\n        /* \"contracts/test.sol\":2710:2724  lockedBalances */\n      0x06\n        /* \"contracts/test.sol\":2710:2735  lockedBalances[recipient] */\n      0x00\n        /* \"contracts/test.sol\":2725:2734  recipient */\n      dup4\n        /* \"contracts/test.sol\":2710:2735  lockedBalances[recipient] */\n      0xffffffffffffffffffffffffffffffffffffffff\n      and\n      0xffffffffffffffffffffffffffffffffffffffff\n      and\n      dup2\n      mstore\n      0x20\n      add\n      swap1\n      dup2\n      mstore\n      0x20\n      add\n      0x00\n      keccak256\n        /* \"contracts/test.sol\":2710:2744  lockedBalances[recipient].lockInfo */\n      0x00\n      add\n        /* \"contracts/test.sol\":2750:3046  LockInfo({... */\n      mload(0x40)\n      dup1\n      0x60\n      add\n      0x40\n      mstore\n      dup1\n        /* \"contracts/test.sol\":2810:2823  initialAmount */\n      dup4\n        /* \"contracts/test.sol\":2795:2807  onlineReward */\n      sload(0x02)\n        /* \"contracts/test.sol\":2795:2823  onlineReward - initialAmount */\n      tag_152\n      swap2\n      swap1\n      tag_126\n      jump\t// in\n    tag_152:\n        /* \"contracts/test.sol\":2750:3046  LockInfo({... */\n      dup2\n      mstore\n      0x20\n      add\n        /* \"contracts/test.sol\":2858:2879  lastDistributionBlock */\n      sload(0x04)\n        /* \"contracts/test.sol\":2750:3046  LockInfo({... */\n      dup2\n      mstore\n      0x20\n      add\n        /* \"contracts/test.sol\":3021:3026  false */\n      0x00\n        /* \"contracts/test.sol\":2750:3046  LockInfo({... */\n      iszero\n      iszero\n      dup2\n      mstore\n      pop\n        /* \"contracts/test.sol\":2710:3047  lockedBalances[recipient].lockInfo.push(LockInfo({... */\n      swap1\n      dup1\n      0x01\n      dup2\n      sload\n      add\n      dup1\n      dup3\n      sstore\n      dup1\n      swap2\n      pop\n      pop\n      0x01\n      swap1\n      sub\n      swap1\n      0x00\n      mstore\n      keccak256(0x00, 0x20)\n      swap1\n      0x03\n      mul\n      add\n      0x00\n      swap1\n      swap2\n      swap1\n      swap2\n      swap1\n      swap2\n      pop\n      0x00\n      dup3\n      add\n      mload\n      dup2\n      0x00\n      add\n      sstore\n      0x20\n      dup3\n      add\n      mload\n      dup2\n      0x01\n      add\n      sstore\n      0x40\n      dup3\n      add\n      mload\n      dup2\n      0x02\n      add\n      exp(0x0100, 0x00)\n      dup2\n      sload\n      dup2\n      0xff\n      mul\n      not\n      and\n      swap1\n      dup4\n      iszero\n      iszero\n      mul\n      or\n      swap1\n      sstore\n      pop\n      pop\n      pop\n        /* \"contracts/test.sol\":2443:3077  {... */\n      pop\n      pop\n        /* \"contracts/test.sol\":2438:2441  i++ */\n      dup1\n      dup1\n      0x01\n      add\n      swap2\n      pop\n      pop\n        /* \"contracts/test.sol\":2395:3077  for (uint256 i = 0; i < recipients.length; i++) {... */\n      jump(tag_141)\n    tag_142:\n      pop\n        /* \"contracts/test.sol\":2186:3084  function distributeRewards() public {... */\n      jump\t// out\n        /* \"contracts/test.sol\":801:846  uint256 public constant LOCK_BLOCKS = 1080000 */\n    tag_51:\n        /* \"contracts/test.sol\":839:846  1080000 */\n      0x107ac0\n        /* \"contracts/test.sol\":801:846  uint256 public constant LOCK_BLOCKS = 1080000 */\n      dup2\n      jump\t// out\n        /* \"contracts/test.sol\":460:480  address public owner */\n    tag_54:\n      0x01\n      0x00\n      swap1\n      sload\n      swap1\n      0x0100\n      exp\n      swap1\n      div\n      0xffffffffffffffffffffffffffffffffffffffff\n      and\n      dup2\n      jump\t// out\n        /* \"contracts/test.sol\":6035:6183  function updateLockPeriod(uint256 newLockPeriod) public view onlyOwner {... */\n    tag_60:\n        /* \"contracts/test.sol\":1699:1704  owner */\n      0x01\n      0x00\n      swap1\n      sload\n      swap1\n      0x0100\n      exp\n      swap1\n      div\n      0xffffffffffffffffffffffffffffffffffffffff\n      and\n        /* \"contracts/test.sol\":1685:1704  msg.sender == owner */\n      0xffffffffffffffffffffffffffffffffffffffff\n      and\n        /* \"contracts/test.sol\":1685:1695  msg.sender */\n      caller\n        /* \"contracts/test.sol\":1685:1704  msg.sender == owner */\n      0xffffffffffffffffffffffffffffffffffffffff\n      and\n      eq\n        /* \"contracts/test.sol\":1677:1728  require(msg.sender == owner, \"Only owner can call\") */\n      tag_155\n      jumpi\n      mload(0x40)\n      0x08c379a000000000000000000000000000000000000000000000000000000000\n      dup2\n      mstore\n      0x04\n      add\n      tag_156\n      swap1\n      tag_157\n      jump\t// in\n    tag_156:\n      mload(0x40)\n      dup1\n      swap2\n      sub\n      swap1\n      revert\n    tag_155:\n        /* \"contracts/test.sol\":6141:6142  0 */\n      0x00\n        /* \"contracts/test.sol\":6125:6138  newLockPeriod */\n      dup2\n        /* \"contracts/test.sol\":6125:6142  newLockPeriod > 0 */\n      gt\n        /* \"contracts/test.sol\":6117:6175  require(newLockPeriod > 0, \"Lock period must be positive\") */\n      tag_159\n      jumpi\n      mload(0x40)\n      0x08c379a000000000000000000000000000000000000000000000000000000000\n      dup2\n      mstore\n      0x04\n      add\n      tag_160\n      swap1\n      tag_161\n      jump\t// in\n    tag_160:\n      mload(0x40)\n      dup1\n      swap2\n      sub\n      swap1\n      revert\n    tag_159:\n        /* \"contracts/test.sol\":6035:6183  function updateLockPeriod(uint256 newLockPeriod) public view onlyOwner {... */\n      pop\n      jump\t// out\n        /* \"contracts/test.sol\":1315:1364  mapping(address => address) public bindingWallets */\n    tag_63:\n      mstore(0x20, 0x05)\n      dup1\n      0x00\n      mstore\n      keccak256(0x00, 0x40)\n      0x00\n      swap2\n      pop\n      sload\n      swap1\n      0x0100\n      exp\n      swap1\n      div\n      0xffffffffffffffffffffffffffffffffffffffff\n      and\n      dup2\n      jump\t// out\n        /* \"contracts/test.sol\":487:538  uint256 public onlineReward = 60 * token.decimals() */\n    tag_66:\n      sload(0x02)\n      dup2\n      jump\t// out\n        /* \"contracts/test.sol\":1587:1614  address[] public recipients */\n    tag_70:\n      0x08\n      dup2\n      dup2\n      sload\n      dup2\n      lt\n      tag_162\n      jumpi\n      0x00\n      dup1\n      revert\n    tag_162:\n      swap1\n      0x00\n      mstore\n      keccak256(0x00, 0x20)\n      add\n      0x00\n      swap2\n      pop\n      sload\n      swap1\n      0x0100\n      exp\n      swap1\n      div\n      0xffffffffffffffffffffffffffffffffffffffff\n      and\n      dup2\n      jump\t// out\n        /* \"contracts/test.sol\":6254:6984  function earlyUnlock(address _rewardAddress) public {... */\n    tag_74:\n        /* \"contracts/test.sol\":6359:6369  msg.sender */\n      caller\n        /* \"contracts/test.sol\":6325:6369  bindingWallets[_rewardAddress] == msg.sender */\n      0xffffffffffffffffffffffffffffffffffffffff\n      and\n        /* \"contracts/test.sol\":6325:6339  bindingWallets */\n      0x05\n        /* \"contracts/test.sol\":6325:6355  bindingWallets[_rewardAddress] */\n      0x00\n        /* \"contracts/test.sol\":6340:6354  _rewardAddress */\n      dup4\n        /* \"contracts/test.sol\":6325:6355  bindingWallets[_rewardAddress] */\n      0xffffffffffffffffffffffffffffffffffffffff\n      and\n      0xffffffffffffffffffffffffffffffffffffffff\n      and\n      dup2\n      mstore\n      0x20\n      add\n      swap1\n      dup2\n      mstore\n      0x20\n      add\n      0x00\n      keccak256\n      0x00\n      swap1\n      sload\n      swap1\n      0x0100\n      exp\n      swap1\n      div\n      0xffffffffffffffffffffffffffffffffffffffff\n      and\n        /* \"contracts/test.sol\":6325:6369  bindingWallets[_rewardAddress] == msg.sender */\n      0xffffffffffffffffffffffffffffffffffffffff\n      and\n      eq\n        /* \"contracts/test.sol\":6317:6384  require(bindingWallets[_rewardAddress] == msg.sender, \"No binding\") */\n      tag_165\n      jumpi\n      mload(0x40)\n      0x08c379a000000000000000000000000000000000000000000000000000000000\n      dup2\n      mstore\n      0x04\n      add\n      tag_166\n      swap1\n      tag_95\n      jump\t// in\n    tag_166:\n      mload(0x40)\n      dup1\n      swap2\n      sub\n      swap1\n      revert\n    tag_165:\n        /* \"contracts/test.sol\":6395:6416  Reward storage reward */\n      0x00\n        /* \"contracts/test.sol\":6419:6433  lockedBalances */\n      0x06\n        /* \"contracts/test.sol\":6419:6449  lockedBalances[_rewardAddress] */\n      0x00\n        /* \"contracts/test.sol\":6434:6448  _rewardAddress */\n      dup4\n        /* \"contracts/test.sol\":6419:6449  lockedBalances[_rewardAddress] */\n      0xffffffffffffffffffffffffffffffffffffffff\n      and\n      0xffffffffffffffffffffffffffffffffffffffff\n      and\n      dup2\n      mstore\n      0x20\n      add\n      swap1\n      dup2\n      mstore\n      0x20\n      add\n      0x00\n      keccak256\n        /* \"contracts/test.sol\":6395:6449  Reward storage reward = lockedBalances[_rewardAddress] */\n      swap1\n      pop\n        /* \"contracts/test.sol\":6462:6481  uint256 earlyAmount */\n      0x00\n        /* \"contracts/test.sol\":6484:6485  0 */\n      0x00\n        /* \"contracts/test.sol\":6462:6485  uint256 earlyAmount = 0 */\n      swap1\n      pop\n        /* \"contracts/test.sol\":6501:6510  uint256 i */\n      0x00\n        /* \"contracts/test.sol\":6513:6514  0 */\n      0x00\n        /* \"contracts/test.sol\":6501:6514  uint256 i = 0 */\n      swap1\n      pop\n        /* \"contracts/test.sol\":6496:6875  for (uint256 i = 0; i <  reward.lockInfo.length; i ++) {... */\n    tag_167:\n        /* \"contracts/test.sol\":6521:6527  reward */\n      dup3\n        /* \"contracts/test.sol\":6521:6536  reward.lockInfo */\n      0x00\n      add\n        /* \"contracts/test.sol\":6521:6543  reward.lockInfo.length */\n      dup1\n      sload\n      swap1\n      pop\n        /* \"contracts/test.sol\":6516:6517  i */\n      dup2\n        /* \"contracts/test.sol\":6516:6543  i <  reward.lockInfo.length */\n      lt\n        /* \"contracts/test.sol\":6496:6875  for (uint256 i = 0; i <  reward.lockInfo.length; i ++) {... */\n      iszero\n      tag_168\n      jumpi\n        /* \"contracts/test.sol\":6571:6577  reward */\n      dup3\n        /* \"contracts/test.sol\":6571:6586  reward.lockInfo */\n      0x00\n      add\n        /* \"contracts/test.sol\":6587:6588  i */\n      dup2\n        /* \"contracts/test.sol\":6571:6589  reward.lockInfo[i] */\n      dup2\n      sload\n      dup2\n      lt\n      tag_170\n      jumpi\n      tag_171\n      tag_119\n      jump\t// in\n    tag_171:\n    tag_170:\n      swap1\n      0x00\n      mstore\n      keccak256(0x00, 0x20)\n      swap1\n      0x03\n      mul\n      add\n        /* \"contracts/test.sol\":6571:6600  reward.lockInfo[i].isUnlocked */\n      0x02\n      add\n      0x00\n      swap1\n      sload\n      swap1\n      0x0100\n      exp\n      swap1\n      div\n      0xff\n      and\n        /* \"contracts/test.sol\":6566:6864  if (!reward.lockInfo[i].isUnlocked) {... */\n      tag_173\n      jumpi\n        /* \"contracts/test.sol\":6694:6697  100 */\n      0x64\n        /* \"contracts/test.sol\":970:972  30 */\n      0x1e\n        /* \"contracts/test.sol\":6637:6643  reward */\n      dup5\n        /* \"contracts/test.sol\":6637:6652  reward.lockInfo */\n      0x00\n      add\n        /* \"contracts/test.sol\":6653:6654  i */\n      dup4\n        /* \"contracts/test.sol\":6637:6655  reward.lockInfo[i] */\n      dup2\n      sload\n      dup2\n      lt\n      tag_174\n      jumpi\n      tag_175\n      tag_119\n      jump\t// in\n    tag_175:\n    tag_174:\n      swap1\n      0x00\n      mstore\n      keccak256(0x00, 0x20)\n      swap1\n      0x03\n      mul\n      add\n        /* \"contracts/test.sol\":6637:6667  reward.lockInfo[i].totalAmount */\n      0x00\n      add\n      sload\n        /* \"contracts/test.sol\":6637:6690  reward.lockInfo[i].totalAmount * EARLY_UNLOCK_PERCENT */\n      tag_177\n      swap2\n      swap1\n      tag_148\n      jump\t// in\n    tag_177:\n        /* \"contracts/test.sol\":6636:6697  (reward.lockInfo[i].totalAmount * EARLY_UNLOCK_PERCENT) / 100 */\n      tag_178\n      swap2\n      swap1\n      tag_150\n      jump\t// in\n    tag_178:\n        /* \"contracts/test.sol\":6621:6697  earlyAmount += (reward.lockInfo[i].totalAmount * EARLY_UNLOCK_PERCENT) / 100 */\n      dup3\n      tag_179\n      swap2\n      swap1\n      tag_132\n      jump\t// in\n    tag_179:\n      swap2\n      pop\n        /* \"contracts/test.sol\":6748:6752  true */\n      0x01\n        /* \"contracts/test.sol\":6716:6722  reward */\n      dup4\n        /* \"contracts/test.sol\":6716:6731  reward.lockInfo */\n      0x00\n      add\n        /* \"contracts/test.sol\":6732:6733  i */\n      dup3\n        /* \"contracts/test.sol\":6716:6734  reward.lockInfo[i] */\n      dup2\n      sload\n      dup2\n      lt\n      tag_180\n      jumpi\n      tag_181\n      tag_119\n      jump\t// in\n    tag_181:\n    tag_180:\n      swap1\n      0x00\n      mstore\n      keccak256(0x00, 0x20)\n      swap1\n      0x03\n      mul\n      add\n        /* \"contracts/test.sol\":6716:6745  reward.lockInfo[i].isUnlocked */\n      0x02\n      add\n      0x00\n        /* \"contracts/test.sol\":6716:6752  reward.lockInfo[i].isUnlocked = true */\n      0x0100\n      exp\n      dup2\n      sload\n      dup2\n      0xff\n      mul\n      not\n      and\n      swap1\n      dup4\n      iszero\n      iszero\n      mul\n      or\n      swap1\n      sstore\n      pop\n        /* \"contracts/test.sol\":6804:6805  0 */\n      0x00\n        /* \"contracts/test.sol\":6771:6777  reward */\n      dup4\n        /* \"contracts/test.sol\":6771:6786  reward.lockInfo */\n      0x00\n      add\n        /* \"contracts/test.sol\":6787:6788  i */\n      dup3\n        /* \"contracts/test.sol\":6771:6789  reward.lockInfo[i] */\n      dup2\n      sload\n      dup2\n      lt\n      tag_183\n      jumpi\n      tag_184\n      tag_119\n      jump\t// in\n    tag_184:\n    tag_183:\n      swap1\n      0x00\n      mstore\n      keccak256(0x00, 0x20)\n      swap1\n      0x03\n      mul\n      add\n        /* \"contracts/test.sol\":6771:6801  reward.lockInfo[i].totalAmount */\n      0x00\n      add\n        /* \"contracts/test.sol\":6771:6805  reward.lockInfo[i].totalAmount = 0 */\n      dup2\n      swap1\n      sstore\n      pop\n        /* \"contracts/test.sol\":6566:6864  if (!reward.lockInfo[i].isUnlocked) {... */\n    tag_173:\n        /* \"contracts/test.sol\":6545:6549  i ++ */\n      dup1\n      dup1\n      0x01\n      add\n      swap2\n      pop\n      pop\n        /* \"contracts/test.sol\":6496:6875  for (uint256 i = 0; i <  reward.lockInfo.length; i ++) {... */\n      jump(tag_167)\n    tag_168:\n      pop\n        /* \"contracts/test.sol\":6907:6908  0 */\n      0x00\n        /* \"contracts/test.sol\":6893:6904  earlyAmount */\n      dup2\n        /* \"contracts/test.sol\":6893:6908  earlyAmount > 0 */\n      gt\n        /* \"contracts/test.sol\":6885:6929  require(earlyAmount > 0, \"No locked tokens\") */\n      tag_186\n      jumpi\n      mload(0x40)\n      0x08c379a000000000000000000000000000000000000000000000000000000000\n      dup2\n      mstore\n      0x04\n      add\n      tag_187\n      swap1\n      tag_113\n      jump\t// in\n    tag_187:\n      mload(0x40)\n      dup1\n      swap2\n      sub\n      swap1\n      revert\n    tag_186:\n        /* \"contracts/test.sol\":6965:6976  earlyAmount */\n      dup1\n        /* \"contracts/test.sol\":6940:6946  reward */\n      dup3\n        /* \"contracts/test.sol\":6940:6961  reward.unlockedAmount */\n      0x01\n      add\n      0x00\n        /* \"contracts/test.sol\":6940:6976  reward.unlockedAmount += earlyAmount */\n      dup3\n      dup3\n      sload\n      tag_188\n      swap2\n      swap1\n      tag_132\n      jump\t// in\n    tag_188:\n      swap3\n      pop\n      pop\n      dup2\n      swap1\n      sstore\n      pop\n        /* \"contracts/test.sol\":6306:6984  {... */\n      pop\n      pop\n        /* \"contracts/test.sol\":6254:6984  function earlyUnlock(address _rewardAddress) public {... */\n      pop\n      jump\t// out\n        /* \"contracts/test.sol\":1948:2157  function addWallet(address wallet) public onlyOwner {... */\n    tag_77:\n        /* \"contracts/test.sol\":1699:1704  owner */\n      0x01\n      0x00\n      swap1\n      sload\n      swap1\n      0x0100\n      exp\n      swap1\n      div\n      0xffffffffffffffffffffffffffffffffffffffff\n      and\n        /* \"contracts/test.sol\":1685:1704  msg.sender == owner */\n      0xffffffffffffffffffffffffffffffffffffffff\n      and\n        /* \"contracts/test.sol\":1685:1695  msg.sender */\n      caller\n        /* \"contracts/test.sol\":1685:1704  msg.sender == owner */\n      0xffffffffffffffffffffffffffffffffffffffff\n      and\n      eq\n        /* \"contracts/test.sol\":1677:1728  require(msg.sender == owner, \"Only owner can call\") */\n      tag_190\n      jumpi\n      mload(0x40)\n      0x08c379a000000000000000000000000000000000000000000000000000000000\n      dup2\n      mstore\n      0x04\n      add\n      tag_191\n      swap1\n      tag_157\n      jump\t// in\n    tag_191:\n      mload(0x40)\n      dup1\n      swap2\n      sub\n      swap1\n      revert\n    tag_190:\n        /* \"contracts/test.sol\":2020:2037  authorizedAddress */\n      0x07\n        /* \"contracts/test.sol\":2020:2045  authorizedAddress[wallet] */\n      0x00\n        /* \"contracts/test.sol\":2038:2044  wallet */\n      dup3\n        /* \"contracts/test.sol\":2020:2045  authorizedAddress[wallet] */\n      0xffffffffffffffffffffffffffffffffffffffff\n      and\n      0xffffffffffffffffffffffffffffffffffffffff\n      and\n      dup2\n      mstore\n      0x20\n      add\n      swap1\n      dup2\n      mstore\n      0x20\n      add\n      0x00\n      keccak256\n      0x00\n      swap1\n      sload\n      swap1\n      0x0100\n      exp\n      swap1\n      div\n      0xff\n      and\n        /* \"contracts/test.sol\":2019:2045  !authorizedAddress[wallet] */\n      iszero\n        /* \"contracts/test.sol\":2011:2070  require(!authorizedAddress[wallet], \"Wallet already added\") */\n      tag_193\n      jumpi\n      mload(0x40)\n      0x08c379a000000000000000000000000000000000000000000000000000000000\n      dup2\n      mstore\n      0x04\n      add\n      tag_194\n      swap1\n      tag_195\n      jump\t// in\n    tag_194:\n      mload(0x40)\n      dup1\n      swap2\n      sub\n      swap1\n      revert\n    tag_193:\n        /* \"contracts/test.sol\":2111:2115  true */\n      0x01\n        /* \"contracts/test.sol\":2083:2100  authorizedAddress */\n      0x07\n        /* \"contracts/test.sol\":2083:2108  authorizedAddress[wallet] */\n      0x00\n        /* \"contracts/test.sol\":2101:2107  wallet */\n      dup4\n        /* \"contracts/test.sol\":2083:2108  authorizedAddress[wallet] */\n      0xffffffffffffffffffffffffffffffffffffffff\n      and\n      0xffffffffffffffffffffffffffffffffffffffff\n      and\n      dup2\n      mstore\n      0x20\n      add\n      swap1\n      dup2\n      mstore\n      0x20\n      add\n      0x00\n      keccak256\n      0x00\n        /* \"contracts/test.sol\":2083:2115  authorizedAddress[wallet] = true */\n      0x0100\n      exp\n      dup2\n      sload\n      dup2\n      0xff\n      mul\n      not\n      and\n      swap1\n      dup4\n      iszero\n      iszero\n      mul\n      or\n      swap1\n      sstore\n      pop\n        /* \"contracts/test.sol\":2126:2136  recipients */\n      0x08\n        /* \"contracts/test.sol\":2142:2148  wallet */\n      dup2\n        /* \"contracts/test.sol\":2126:2149  recipients.push(wallet) */\n      swap1\n      dup1\n      0x01\n      dup2\n      sload\n      add\n      dup1\n      dup3\n      sstore\n      dup1\n      swap2\n      pop\n      pop\n      0x01\n      swap1\n      sub\n      swap1\n      0x00\n      mstore\n      keccak256(0x00, 0x20)\n      add\n      0x00\n      swap1\n      swap2\n      swap1\n      swap2\n      swap1\n      swap2\n      0x0100\n      exp\n      dup2\n      sload\n      dup2\n      0xffffffffffffffffffffffffffffffffffffffff\n      mul\n      not\n      and\n      swap1\n      dup4\n      0xffffffffffffffffffffffffffffffffffffffff\n      and\n      mul\n      or\n      swap1\n      sstore\n      pop\n        /* \"contracts/test.sol\":1948:2157  function addWallet(address wallet) public onlyOwner {... */\n      pop\n      jump\t// out\n        /* \"contracts/test.sol\":647:683  uint256 public lastDistributionBlock */\n    tag_79:\n      sload(0x04)\n      dup2\n      jump\t// out\n        /* \"contracts/test.sol\":561:621  uint256 public roundUnlock = (onlineReward * 70) / 100 / 180 */\n    tag_82:\n      sload(0x03)\n      dup2\n      jump\t// out\n        /* \"contracts/test.sol\":434:453  IERC20 public token */\n    tag_85:\n      0x00\n      0x00\n      swap1\n      sload\n      swap1\n      0x0100\n      exp\n      swap1\n      div\n      0xffffffffffffffffffffffffffffffffffffffff\n      and\n      dup2\n      jump\t// out\n        /* \"contracts/test.sol\":7028:7144  function isAuthorized(address wallet) public view returns (bool) {... */\n    tag_90:\n        /* \"contracts/test.sol\":7087:7091  bool */\n      0x00\n        /* \"contracts/test.sol\":7111:7128  authorizedAddress */\n      0x07\n        /* \"contracts/test.sol\":7111:7136  authorizedAddress[wallet] */\n      0x00\n        /* \"contracts/test.sol\":7129:7135  wallet */\n      dup4\n        /* \"contracts/test.sol\":7111:7136  authorizedAddress[wallet] */\n      0xffffffffffffffffffffffffffffffffffffffff\n      and\n      0xffffffffffffffffffffffffffffffffffffffff\n      and\n      dup2\n      mstore\n      0x20\n      add\n      swap1\n      dup2\n      mstore\n      0x20\n      add\n      0x00\n      keccak256\n      0x00\n      swap1\n      sload\n      swap1\n      0x0100\n      exp\n      swap1\n      div\n      0xff\n      and\n        /* \"contracts/test.sol\":7104:7136  return authorizedAddress[wallet] */\n      swap1\n      pop\n        /* \"contracts/test.sol\":7028:7144  function isAuthorized(address wallet) public view returns (bool) {... */\n      swap2\n      swap1\n      pop\n      jump\t// out\n        /* \"#utility.yul\":7:84   */\n    tag_198:\n        /* \"#utility.yul\":44:51   */\n      0x00\n        /* \"#utility.yul\":73:78   */\n      dup2\n        /* \"#utility.yul\":62:78   */\n      swap1\n      pop\n        /* \"#utility.yul\":7:84   */\n      swap2\n      swap1\n      pop\n      jump\t// out\n        /* \"#utility.yul\":90:208   */\n    tag_199:\n        /* \"#utility.yul\":177:201   */\n      tag_241\n        /* \"#utility.yul\":195:200   */\n      dup2\n        /* \"#utility.yul\":177:201   */\n      tag_198\n      jump\t// in\n    tag_241:\n        /* \"#utility.yul\":172:175   */\n      dup3\n        /* \"#utility.yul\":165:202   */\n      mstore\n        /* \"#utility.yul\":90:208   */\n      pop\n      pop\n      jump\t// out\n        /* \"#utility.yul\":214:436   */\n    tag_28:\n        /* \"#utility.yul\":307:311   */\n      0x00\n        /* \"#utility.yul\":345:347   */\n      0x20\n        /* \"#utility.yul\":334:343   */\n      dup3\n        /* \"#utility.yul\":330:348   */\n      add\n        /* \"#utility.yul\":322:348   */\n      swap1\n      pop\n        /* \"#utility.yul\":358:429   */\n      tag_243\n        /* \"#utility.yul\":426:427   */\n      0x00\n        /* \"#utility.yul\":415:424   */\n      dup4\n        /* \"#utility.yul\":411:428   */\n      add\n        /* \"#utility.yul\":402:408   */\n      dup5\n        /* \"#utility.yul\":358:429   */\n      tag_199\n      jump\t// in\n    tag_243:\n        /* \"#utility.yul\":214:436   */\n      swap3\n      swap2\n      pop\n      pop\n      jump\t// out\n        /* \"#utility.yul\":523:640   */\n    tag_201:\n        /* \"#utility.yul\":632:633   */\n      0x00\n        /* \"#utility.yul\":629:630   */\n      0x00\n        /* \"#utility.yul\":622:634   */\n      revert\n        /* \"#utility.yul\":769:895   */\n    tag_203:\n        /* \"#utility.yul\":806:813   */\n      0x00\n        /* \"#utility.yul\":846:888   */\n      0xffffffffffffffffffffffffffffffffffffffff\n        /* \"#utility.yul\":839:844   */\n      dup3\n        /* \"#utility.yul\":835:889   */\n      and\n        /* \"#utility.yul\":824:889   */\n      swap1\n      pop\n        /* \"#utility.yul\":769:895   */\n      swap2\n      swap1\n      pop\n      jump\t// out\n        /* \"#utility.yul\":901:997   */\n    tag_204:\n        /* \"#utility.yul\":938:945   */\n      0x00\n        /* \"#utility.yul\":967:991   */\n      tag_249\n        /* \"#utility.yul\":985:990   */\n      dup3\n        /* \"#utility.yul\":967:991   */\n      tag_203\n      jump\t// in\n    tag_249:\n        /* \"#utility.yul\":956:991   */\n      swap1\n      pop\n        /* \"#utility.yul\":901:997   */\n      swap2\n      swap1\n      pop\n      jump\t// out\n        /* \"#utility.yul\":1003:1125   */\n    tag_205:\n        /* \"#utility.yul\":1076:1100   */\n      tag_251\n        /* \"#utility.yul\":1094:1099   */\n      dup2\n        /* \"#utility.yul\":1076:1100   */\n      tag_204\n      jump\t// in\n    tag_251:\n        /* \"#utility.yul\":1069:1074   */\n      dup2\n        /* \"#utility.yul\":1066:1101   */\n      eq\n        /* \"#utility.yul\":1056:1119   */\n      tag_252\n      jumpi\n        /* \"#utility.yul\":1115:1116   */\n      0x00\n        /* \"#utility.yul\":1112:1113   */\n      0x00\n        /* \"#utility.yul\":1105:1117   */\n      revert\n        /* \"#utility.yul\":1056:1119   */\n    tag_252:\n        /* \"#utility.yul\":1003:1125   */\n      pop\n      jump\t// out\n        /* \"#utility.yul\":1131:1270   */\n    tag_206:\n        /* \"#utility.yul\":1177:1182   */\n      0x00\n        /* \"#utility.yul\":1215:1221   */\n      dup2\n        /* \"#utility.yul\":1202:1222   */\n      calldataload\n        /* \"#utility.yul\":1193:1222   */\n      swap1\n      pop\n        /* \"#utility.yul\":1231:1264   */\n      tag_254\n        /* \"#utility.yul\":1258:1263   */\n      dup2\n        /* \"#utility.yul\":1231:1264   */\n      tag_205\n      jump\t// in\n    tag_254:\n        /* \"#utility.yul\":1131:1270   */\n      swap3\n      swap2\n      pop\n      pop\n      jump\t// out\n        /* \"#utility.yul\":1276:1605   */\n    tag_31:\n        /* \"#utility.yul\":1335:1341   */\n      0x00\n        /* \"#utility.yul\":1384:1386   */\n      0x20\n        /* \"#utility.yul\":1372:1381   */\n      dup3\n        /* \"#utility.yul\":1363:1370   */\n      dup5\n        /* \"#utility.yul\":1359:1382   */\n      sub\n        /* \"#utility.yul\":1355:1387   */\n      slt\n        /* \"#utility.yul\":1352:1471   */\n      iszero\n      tag_256\n      jumpi\n        /* \"#utility.yul\":1390:1469   */\n      tag_257\n      tag_201\n      jump\t// in\n    tag_257:\n        /* \"#utility.yul\":1352:1471   */\n    tag_256:\n        /* \"#utility.yul\":1510:1511   */\n      0x00\n        /* \"#utility.yul\":1535:1588   */\n      tag_258\n        /* \"#utility.yul\":1580:1587   */\n      dup5\n        /* \"#utility.yul\":1571:1577   */\n      dup3\n        /* \"#utility.yul\":1560:1569   */\n      dup6\n        /* \"#utility.yul\":1556:1578   */\n      add\n        /* \"#utility.yul\":1535:1588   */\n      tag_206\n      jump\t// in\n    tag_258:\n        /* \"#utility.yul\":1525:1588   */\n      swap2\n      pop\n        /* \"#utility.yul\":1481:1598   */\n      pop\n        /* \"#utility.yul\":1276:1605   */\n      swap3\n      swap2\n      pop\n      pop\n      jump\t// out\n        /* \"#utility.yul\":1611:1701   */\n    tag_207:\n        /* \"#utility.yul\":1645:1652   */\n      0x00\n        /* \"#utility.yul\":1688:1693   */\n      dup2\n        /* \"#utility.yul\":1681:1694   */\n      iszero\n        /* \"#utility.yul\":1674:1695   */\n      iszero\n        /* \"#utility.yul\":1663:1695   */\n      swap1\n      pop\n        /* \"#utility.yul\":1611:1701   */\n      swap2\n      swap1\n      pop\n      jump\t// out\n        /* \"#utility.yul\":1707:1816   */\n    tag_208:\n        /* \"#utility.yul\":1788:1809   */\n      tag_261\n        /* \"#utility.yul\":1803:1808   */\n      dup2\n        /* \"#utility.yul\":1788:1809   */\n      tag_207\n      jump\t// in\n    tag_261:\n        /* \"#utility.yul\":1783:1786   */\n      dup3\n        /* \"#utility.yul\":1776:1810   */\n      mstore\n        /* \"#utility.yul\":1707:1816   */\n      pop\n      pop\n      jump\t// out\n        /* \"#utility.yul\":1822:2032   */\n    tag_41:\n        /* \"#utility.yul\":1909:1913   */\n      0x00\n        /* \"#utility.yul\":1947:1949   */\n      0x20\n        /* \"#utility.yul\":1936:1945   */\n      dup3\n        /* \"#utility.yul\":1932:1950   */\n      add\n        /* \"#utility.yul\":1924:1950   */\n      swap1\n      pop\n        /* \"#utility.yul\":1960:2025   */\n      tag_263\n        /* \"#utility.yul\":2022:2023   */\n      0x00\n        /* \"#utility.yul\":2011:2020   */\n      dup4\n        /* \"#utility.yul\":2007:2024   */\n      add\n        /* \"#utility.yul\":1998:2004   */\n      dup5\n        /* \"#utility.yul\":1960:2025   */\n      tag_208\n      jump\t// in\n    tag_263:\n        /* \"#utility.yul\":1822:2032   */\n      swap3\n      swap2\n      pop\n      pop\n      jump\t// out\n        /* \"#utility.yul\":2038:2156   */\n    tag_209:\n        /* \"#utility.yul\":2125:2149   */\n      tag_265\n        /* \"#utility.yul\":2143:2148   */\n      dup2\n        /* \"#utility.yul\":2125:2149   */\n      tag_204\n      jump\t// in\n    tag_265:\n        /* \"#utility.yul\":2120:2123   */\n      dup3\n        /* \"#utility.yul\":2113:2150   */\n      mstore\n        /* \"#utility.yul\":2038:2156   */\n      pop\n      pop\n      jump\t// out\n        /* \"#utility.yul\":2162:2384   */\n    tag_56:\n        /* \"#utility.yul\":2255:2259   */\n      0x00\n        /* \"#utility.yul\":2293:2295   */\n      0x20\n        /* \"#utility.yul\":2282:2291   */\n      dup3\n        /* \"#utility.yul\":2278:2296   */\n      add\n        /* \"#utility.yul\":2270:2296   */\n      swap1\n      pop\n        /* \"#utility.yul\":2306:2377   */\n      tag_267\n        /* \"#utility.yul\":2374:2375   */\n      0x00\n        /* \"#utility.yul\":2363:2372   */\n      dup4\n        /* \"#utility.yul\":2359:2376   */\n      add\n        /* \"#utility.yul\":2350:2356   */\n      dup5\n        /* \"#utility.yul\":2306:2377   */\n      tag_209\n      jump\t// in\n    tag_267:\n        /* \"#utility.yul\":2162:2384   */\n      swap3\n      swap2\n      pop\n      pop\n      jump\t// out\n        /* \"#utility.yul\":2390:2512   */\n    tag_210:\n        /* \"#utility.yul\":2463:2487   */\n      tag_269\n        /* \"#utility.yul\":2481:2486   */\n      dup2\n        /* \"#utility.yul\":2463:2487   */\n      tag_198\n      jump\t// in\n    tag_269:\n        /* \"#utility.yul\":2456:2461   */\n      dup2\n        /* \"#utility.yul\":2453:2488   */\n      eq\n        /* \"#utility.yul\":2443:2506   */\n      tag_270\n      jumpi\n        /* \"#utility.yul\":2502:2503   */\n      0x00\n        /* \"#utility.yul\":2499:2500   */\n      0x00\n        /* \"#utility.yul\":2492:2504   */\n      revert\n        /* \"#utility.yul\":2443:2506   */\n    tag_270:\n        /* \"#utility.yul\":2390:2512   */\n      pop\n      jump\t// out\n        /* \"#utility.yul\":2518:2657   */\n    tag_211:\n        /* \"#utility.yul\":2564:2569   */\n      0x00\n        /* \"#utility.yul\":2602:2608   */\n      dup2\n        /* \"#utility.yul\":2589:2609   */\n      calldataload\n        /* \"#utility.yul\":2580:2609   */\n      swap1\n      pop\n        /* \"#utility.yul\":2618:2651   */\n      tag_272\n        /* \"#utility.yul\":2645:2650   */\n      dup2\n        /* \"#utility.yul\":2618:2651   */\n      tag_210\n      jump\t// in\n    tag_272:\n        /* \"#utility.yul\":2518:2657   */\n      swap3\n      swap2\n      pop\n      pop\n      jump\t// out\n        /* \"#utility.yul\":2663:2992   */\n    tag_59:\n        /* \"#utility.yul\":2722:2728   */\n      0x00\n        /* \"#utility.yul\":2771:2773   */\n      0x20\n        /* \"#utility.yul\":2759:2768   */\n      dup3\n        /* \"#utility.yul\":2750:2757   */\n      dup5\n        /* \"#utility.yul\":2746:2769   */\n      sub\n        /* \"#utility.yul\":2742:2774   */\n      slt\n        /* \"#utility.yul\":2739:2858   */\n      iszero\n      tag_274\n      jumpi\n        /* \"#utility.yul\":2777:2856   */\n      tag_275\n      tag_201\n      jump\t// in\n    tag_275:\n        /* \"#utility.yul\":2739:2858   */\n    tag_274:\n        /* \"#utility.yul\":2897:2898   */\n      0x00\n        /* \"#utility.yul\":2922:2975   */\n      tag_276\n        /* \"#utility.yul\":2967:2974   */\n      dup5\n        /* \"#utility.yul\":2958:2964   */\n      dup3\n        /* \"#utility.yul\":2947:2956   */\n      dup6\n        /* \"#utility.yul\":2943:2965   */\n      add\n        /* \"#utility.yul\":2922:2975   */\n      tag_211\n      jump\t// in\n    tag_276:\n        /* \"#utility.yul\":2912:2975   */\n      swap2\n      pop\n        /* \"#utility.yul\":2868:2985   */\n      pop\n        /* \"#utility.yul\":2663:2992   */\n      swap3\n      swap2\n      pop\n      pop\n      jump\t// out\n        /* \"#utility.yul\":2998:3058   */\n    tag_212:\n        /* \"#utility.yul\":3026:3029   */\n      0x00\n        /* \"#utility.yul\":3047:3052   */\n      dup2\n        /* \"#utility.yul\":3040:3052   */\n      swap1\n      pop\n        /* \"#utility.yul\":2998:3058   */\n      swap2\n      swap1\n      pop\n      jump\t// out\n        /* \"#utility.yul\":3064:3206   */\n    tag_213:\n        /* \"#utility.yul\":3114:3123   */\n      0x00\n        /* \"#utility.yul\":3147:3200   */\n      tag_279\n        /* \"#utility.yul\":3165:3199   */\n      tag_280\n        /* \"#utility.yul\":3174:3198   */\n      tag_281\n        /* \"#utility.yul\":3192:3197   */\n      dup5\n        /* \"#utility.yul\":3174:3198   */\n      tag_203\n      jump\t// in\n    tag_281:\n        /* \"#utility.yul\":3165:3199   */\n      tag_212\n      jump\t// in\n    tag_280:\n        /* \"#utility.yul\":3147:3200   */\n      tag_203\n      jump\t// in\n    tag_279:\n        /* \"#utility.yul\":3134:3200   */\n      swap1\n      pop\n        /* \"#utility.yul\":3064:3206   */\n      swap2\n      swap1\n      pop\n      jump\t// out\n        /* \"#utility.yul\":3212:3338   */\n    tag_214:\n        /* \"#utility.yul\":3262:3271   */\n      0x00\n        /* \"#utility.yul\":3295:3332   */\n      tag_283\n        /* \"#utility.yul\":3326:3331   */\n      dup3\n        /* \"#utility.yul\":3295:3332   */\n      tag_213\n      jump\t// in\n    tag_283:\n        /* \"#utility.yul\":3282:3332   */\n      swap1\n      pop\n        /* \"#utility.yul\":3212:3338   */\n      swap2\n      swap1\n      pop\n      jump\t// out\n        /* \"#utility.yul\":3344:3483   */\n    tag_215:\n        /* \"#utility.yul\":3407:3416   */\n      0x00\n        /* \"#utility.yul\":3440:3477   */\n      tag_285\n        /* \"#utility.yul\":3471:3476   */\n      dup3\n        /* \"#utility.yul\":3440:3477   */\n      tag_214\n      jump\t// in\n    tag_285:\n        /* \"#utility.yul\":3427:3477   */\n      swap1\n      pop\n        /* \"#utility.yul\":3344:3483   */\n      swap2\n      swap1\n      pop\n      jump\t// out\n        /* \"#utility.yul\":3489:3646   */\n    tag_216:\n        /* \"#utility.yul\":3589:3639   */\n      tag_287\n        /* \"#utility.yul\":3633:3638   */\n      dup2\n        /* \"#utility.yul\":3589:3639   */\n      tag_215\n      jump\t// in\n    tag_287:\n        /* \"#utility.yul\":3584:3587   */\n      dup3\n        /* \"#utility.yul\":3577:3640   */\n      mstore\n        /* \"#utility.yul\":3489:3646   */\n      pop\n      pop\n      jump\t// out\n        /* \"#utility.yul\":3652:3900   */\n    tag_87:\n        /* \"#utility.yul\":3758:3762   */\n      0x00\n        /* \"#utility.yul\":3796:3798   */\n      0x20\n        /* \"#utility.yul\":3785:3794   */\n      dup3\n        /* \"#utility.yul\":3781:3799   */\n      add\n        /* \"#utility.yul\":3773:3799   */\n      swap1\n      pop\n        /* \"#utility.yul\":3809:3893   */\n      tag_289\n        /* \"#utility.yul\":3890:3891   */\n      0x00\n        /* \"#utility.yul\":3879:3888   */\n      dup4\n        /* \"#utility.yul\":3875:3892   */\n      add\n        /* \"#utility.yul\":3866:3872   */\n      dup5\n        /* \"#utility.yul\":3809:3893   */\n      tag_216\n      jump\t// in\n    tag_289:\n        /* \"#utility.yul\":3652:3900   */\n      swap3\n      swap2\n      pop\n      pop\n      jump\t// out\n        /* \"#utility.yul\":3906:4075   */\n    tag_217:\n        /* \"#utility.yul\":3990:4001   */\n      0x00\n        /* \"#utility.yul\":4024:4030   */\n      dup3\n        /* \"#utility.yul\":4019:4022   */\n      dup3\n        /* \"#utility.yul\":4012:4031   */\n      mstore\n        /* \"#utility.yul\":4064:4068   */\n      0x20\n        /* \"#utility.yul\":4059:4062   */\n      dup3\n        /* \"#utility.yul\":4055:4069   */\n      add\n        /* \"#utility.yul\":4040:4069   */\n      swap1\n      pop\n        /* \"#utility.yul\":3906:4075   */\n      swap3\n      swap2\n      pop\n      pop\n      jump\t// out\n        /* \"#utility.yul\":4081:4241   */\n    tag_218:\n        /* \"#utility.yul\":4221:4233   */\n      0x4e6f2062696e64696e6700000000000000000000000000000000000000000000\n        /* \"#utility.yul\":4217:4218   */\n      0x00\n        /* \"#utility.yul\":4209:4215   */\n      dup3\n        /* \"#utility.yul\":4205:4219   */\n      add\n        /* \"#utility.yul\":4198:4234   */\n      mstore\n        /* \"#utility.yul\":4081:4241   */\n      pop\n      jump\t// out\n        /* \"#utility.yul\":4247:4613   */\n    tag_219:\n        /* \"#utility.yul\":4389:4392   */\n      0x00\n        /* \"#utility.yul\":4410:4477   */\n      tag_293\n        /* \"#utility.yul\":4474:4476   */\n      0x0a\n        /* \"#utility.yul\":4469:4472   */\n      dup4\n        /* \"#utility.yul\":4410:4477   */\n      tag_217\n      jump\t// in\n    tag_293:\n        /* \"#utility.yul\":4403:4477   */\n      swap2\n      pop\n        /* \"#utility.yul\":4486:4579   */\n      tag_294\n        /* \"#utility.yul\":4575:4578   */\n      dup3\n        /* \"#utility.yul\":4486:4579   */\n      tag_218\n      jump\t// in\n    tag_294:\n        /* \"#utility.yul\":4604:4606   */\n      0x20\n        /* \"#utility.yul\":4599:4602   */\n      dup3\n        /* \"#utility.yul\":4595:4607   */\n      add\n        /* \"#utility.yul\":4588:4607   */\n      swap1\n      pop\n        /* \"#utility.yul\":4247:4613   */\n      swap2\n      swap1\n      pop\n      jump\t// out\n        /* \"#utility.yul\":4619:5038   */\n    tag_95:\n        /* \"#utility.yul\":4785:4789   */\n      0x00\n        /* \"#utility.yul\":4823:4825   */\n      0x20\n        /* \"#utility.yul\":4812:4821   */\n      dup3\n        /* \"#utility.yul\":4808:4826   */\n      add\n        /* \"#utility.yul\":4800:4826   */\n      swap1\n      pop\n        /* \"#utility.yul\":4872:4881   */\n      dup2\n        /* \"#utility.yul\":4866:4870   */\n      dup2\n        /* \"#utility.yul\":4862:4882   */\n      sub\n        /* \"#utility.yul\":4858:4859   */\n      0x00\n        /* \"#utility.yul\":4847:4856   */\n      dup4\n        /* \"#utility.yul\":4843:4860   */\n      add\n        /* \"#utility.yul\":4836:4883   */\n      mstore\n        /* \"#utility.yul\":4900:5031   */\n      tag_296\n        /* \"#utility.yul\":5026:5030   */\n      dup2\n        /* \"#utility.yul\":4900:5031   */\n      tag_219\n      jump\t// in\n    tag_296:\n        /* \"#utility.yul\":4892:5031   */\n      swap1\n      pop\n        /* \"#utility.yul\":4619:5038   */\n      swap2\n      swap1\n      pop\n      jump\t// out\n        /* \"#utility.yul\":5044:5216   */\n    tag_220:\n        /* \"#utility.yul\":5184:5208   */\n      0x4e6f20756e6c6f636b656420746f6b656e732079657400000000000000000000\n        /* \"#utility.yul\":5180:5181   */\n      0x00\n        /* \"#utility.yul\":5172:5178   */\n      dup3\n        /* \"#utility.yul\":5168:5182   */\n      add\n        /* \"#utility.yul\":5161:5209   */\n      mstore\n        /* \"#utility.yul\":5044:5216   */\n      pop\n      jump\t// out\n        /* \"#utility.yul\":5222:5588   */\n    tag_221:\n        /* \"#utility.yul\":5364:5367   */\n      0x00\n        /* \"#utility.yul\":5385:5452   */\n      tag_299\n        /* \"#utility.yul\":5449:5451   */\n      0x16\n        /* \"#utility.yul\":5444:5447   */\n      dup4\n        /* \"#utility.yul\":5385:5452   */\n      tag_217\n      jump\t// in\n    tag_299:\n        /* \"#utility.yul\":5378:5452   */\n      swap2\n      pop\n        /* \"#utility.yul\":5461:5554   */\n      tag_300\n        /* \"#utility.yul\":5550:5553   */\n      dup3\n        /* \"#utility.yul\":5461:5554   */\n      tag_220\n      jump\t// in\n    tag_300:\n        /* \"#utility.yul\":5579:5581   */\n      0x20\n        /* \"#utility.yul\":5574:5577   */\n      dup3\n        /* \"#utility.yul\":5570:5582   */\n      add\n        /* \"#utility.yul\":5563:5582   */\n      swap1\n      pop\n        /* \"#utility.yul\":5222:5588   */\n      swap2\n      swap1\n      pop\n      jump\t// out\n        /* \"#utility.yul\":5594:6013   */\n    tag_98:\n        /* \"#utility.yul\":5760:5764   */\n      0x00\n        /* \"#utility.yul\":5798:5800   */\n      0x20\n        /* \"#utility.yul\":5787:5796   */\n      dup3\n        /* \"#utility.yul\":5783:5801   */\n      add\n        /* \"#utility.yul\":5775:5801   */\n      swap1\n      pop\n        /* \"#utility.yul\":5847:5856   */\n      dup2\n        /* \"#utility.yul\":5841:5845   */\n      dup2\n        /* \"#utility.yul\":5837:5857   */\n      sub\n        /* \"#utility.yul\":5833:5834   */\n      0x00\n        /* \"#utility.yul\":5822:5831   */\n      dup4\n        /* \"#utility.yul\":5818:5835   */\n      add\n        /* \"#utility.yul\":5811:5858   */\n      mstore\n        /* \"#utility.yul\":5875:6006   */\n      tag_302\n        /* \"#utility.yul\":6001:6005   */\n      dup2\n        /* \"#utility.yul\":5875:6006   */\n      tag_221\n      jump\t// in\n    tag_302:\n        /* \"#utility.yul\":5867:6006   */\n      swap1\n      pop\n        /* \"#utility.yul\":5594:6013   */\n      swap2\n      swap1\n      pop\n      jump\t// out\n        /* \"#utility.yul\":6019:6351   */\n    tag_100:\n        /* \"#utility.yul\":6140:6144   */\n      0x00\n        /* \"#utility.yul\":6178:6180   */\n      0x40\n        /* \"#utility.yul\":6167:6176   */\n      dup3\n        /* \"#utility.yul\":6163:6181   */\n      add\n        /* \"#utility.yul\":6155:6181   */\n      swap1\n      pop\n        /* \"#utility.yul\":6191:6262   */\n      tag_304\n        /* \"#utility.yul\":6259:6260   */\n      0x00\n        /* \"#utility.yul\":6248:6257   */\n      dup4\n        /* \"#utility.yul\":6244:6261   */\n      add\n        /* \"#utility.yul\":6235:6241   */\n      dup6\n        /* \"#utility.yul\":6191:6262   */\n      tag_209\n      jump\t// in\n    tag_304:\n        /* \"#utility.yul\":6272:6344   */\n      tag_305\n        /* \"#utility.yul\":6340:6342   */\n      0x20\n        /* \"#utility.yul\":6329:6338   */\n      dup4\n        /* \"#utility.yul\":6325:6343   */\n      add\n        /* \"#utility.yul\":6316:6322   */\n      dup5\n        /* \"#utility.yul\":6272:6344   */\n      tag_199\n      jump\t// in\n    tag_305:\n        /* \"#utility.yul\":6019:6351   */\n      swap4\n      swap3\n      pop\n      pop\n      pop\n      jump\t// out\n        /* \"#utility.yul\":6357:6473   */\n    tag_222:\n        /* \"#utility.yul\":6427:6448   */\n      tag_307\n        /* \"#utility.yul\":6442:6447   */\n      dup2\n        /* \"#utility.yul\":6427:6448   */\n      tag_207\n      jump\t// in\n    tag_307:\n        /* \"#utility.yul\":6420:6425   */\n      dup2\n        /* \"#utility.yul\":6417:6449   */\n      eq\n        /* \"#utility.yul\":6407:6467   */\n      tag_308\n      jumpi\n        /* \"#utility.yul\":6463:6464   */\n      0x00\n        /* \"#utility.yul\":6460:6461   */\n      0x00\n        /* \"#utility.yul\":6453:6465   */\n      revert\n        /* \"#utility.yul\":6407:6467   */\n    tag_308:\n        /* \"#utility.yul\":6357:6473   */\n      pop\n      jump\t// out\n        /* \"#utility.yul\":6479:6616   */\n    tag_223:\n        /* \"#utility.yul\":6533:6538   */\n      0x00\n        /* \"#utility.yul\":6564:6570   */\n      dup2\n        /* \"#utility.yul\":6558:6571   */\n      mload\n        /* \"#utility.yul\":6549:6571   */\n      swap1\n      pop\n        /* \"#utility.yul\":6580:6610   */\n      tag_310\n        /* \"#utility.yul\":6604:6609   */\n      dup2\n        /* \"#utility.yul\":6580:6610   */\n      tag_222\n      jump\t// in\n    tag_310:\n        /* \"#utility.yul\":6479:6616   */\n      swap3\n      swap2\n      pop\n      pop\n      jump\t// out\n        /* \"#utility.yul\":6622:6967   */\n    tag_104:\n        /* \"#utility.yul\":6689:6695   */\n      0x00\n        /* \"#utility.yul\":6738:6740   */\n      0x20\n        /* \"#utility.yul\":6726:6735   */\n      dup3\n        /* \"#utility.yul\":6717:6724   */\n      dup5\n        /* \"#utility.yul\":6713:6736   */\n      sub\n        /* \"#utility.yul\":6709:6741   */\n      slt\n        /* \"#utility.yul\":6706:6825   */\n      iszero\n      tag_312\n      jumpi\n        /* \"#utility.yul\":6744:6823   */\n      tag_313\n      tag_201\n      jump\t// in\n    tag_313:\n        /* \"#utility.yul\":6706:6825   */\n    tag_312:\n        /* \"#utility.yul\":6864:6865   */\n      0x00\n        /* \"#utility.yul\":6889:6950   */\n      tag_314\n        /* \"#utility.yul\":6942:6949   */\n      dup5\n        /* \"#utility.yul\":6933:6939   */\n      dup3\n        /* \"#utility.yul\":6922:6931   */\n      dup6\n        /* \"#utility.yul\":6918:6940   */\n      add\n        /* \"#utility.yul\":6889:6950   */\n      tag_223\n      jump\t// in\n    tag_314:\n        /* \"#utility.yul\":6879:6950   */\n      swap2\n      pop\n        /* \"#utility.yul\":6835:6960   */\n      pop\n        /* \"#utility.yul\":6622:6967   */\n      swap3\n      swap2\n      pop\n      pop\n      jump\t// out\n        /* \"#utility.yul\":6973:7138   */\n    tag_224:\n        /* \"#utility.yul\":7113:7130   */\n      0x5472616e73666572206661696c65640000000000000000000000000000000000\n        /* \"#utility.yul\":7109:7110   */\n      0x00\n        /* \"#utility.yul\":7101:7107   */\n      dup3\n        /* \"#utility.yul\":7097:7111   */\n      add\n        /* \"#utility.yul\":7090:7131   */\n      mstore\n        /* \"#utility.yul\":6973:7138   */\n      pop\n      jump\t// out\n        /* \"#utility.yul\":7144:7510   */\n    tag_225:\n        /* \"#utility.yul\":7286:7289   */\n      0x00\n        /* \"#utility.yul\":7307:7374   */\n      tag_317\n        /* \"#utility.yul\":7371:7373   */\n      0x0f\n        /* \"#utility.yul\":7366:7369   */\n      dup4\n        /* \"#utility.yul\":7307:7374   */\n      tag_217\n      jump\t// in\n    tag_317:\n        /* \"#utility.yul\":7300:7374   */\n      swap2\n      pop\n        /* \"#utility.yul\":7383:7476   */\n      tag_318\n        /* \"#utility.yul\":7472:7475   */\n      dup3\n        /* \"#utility.yul\":7383:7476   */\n      tag_224\n      jump\t// in\n    tag_318:\n        /* \"#utility.yul\":7501:7503   */\n      0x20\n        /* \"#utility.yul\":7496:7499   */\n      dup3\n        /* \"#utility.yul\":7492:7504   */\n      add\n        /* \"#utility.yul\":7485:7504   */\n      swap1\n      pop\n        /* \"#utility.yul\":7144:7510   */\n      swap2\n      swap1\n      pop\n      jump\t// out\n        /* \"#utility.yul\":7516:7935   */\n    tag_107:\n        /* \"#utility.yul\":7682:7686   */\n      0x00\n        /* \"#utility.yul\":7720:7722   */\n      0x20\n        /* \"#utility.yul\":7709:7718   */\n      dup3\n        /* \"#utility.yul\":7705:7723   */\n      add\n        /* \"#utility.yul\":7697:7723   */\n      swap1\n      pop\n        /* \"#utility.yul\":7769:7778   */\n      dup2\n        /* \"#utility.yul\":7763:7767   */\n      dup2\n        /* \"#utility.yul\":7759:7779   */\n      sub\n        /* \"#utility.yul\":7755:7756   */\n      0x00\n        /* \"#utility.yul\":7744:7753   */\n      dup4\n        /* \"#utility.yul\":7740:7757   */\n      add\n        /* \"#utility.yul\":7733:7780   */\n      mstore\n        /* \"#utility.yul\":7797:7928   */\n      tag_320\n        /* \"#utility.yul\":7923:7927   */\n      dup2\n        /* \"#utility.yul\":7797:7928   */\n      tag_225\n      jump\t// in\n    tag_320:\n        /* \"#utility.yul\":7789:7928   */\n      swap1\n      pop\n        /* \"#utility.yul\":7516:7935   */\n      swap2\n      swap1\n      pop\n      jump\t// out\n        /* \"#utility.yul\":7941:8107   */\n    tag_226:\n        /* \"#utility.yul\":8081:8099   */\n      0x4e6f206c6f636b656420746f6b656e7300000000000000000000000000000000\n        /* \"#utility.yul\":8077:8078   */\n      0x00\n        /* \"#utility.yul\":8069:8075   */\n      dup3\n        /* \"#utility.yul\":8065:8079   */\n      add\n        /* \"#utility.yul\":8058:8100   */\n      mstore\n        /* \"#utility.yul\":7941:8107   */\n      pop\n      jump\t// out\n        /* \"#utility.yul\":8113:8479   */\n    tag_227:\n        /* \"#utility.yul\":8255:8258   */\n      0x00\n        /* \"#utility.yul\":8276:8343   */\n      tag_323\n        /* \"#utility.yul\":8340:8342   */\n      0x10\n        /* \"#utility.yul\":8335:8338   */\n      dup4\n        /* \"#utility.yul\":8276:8343   */\n      tag_217\n      jump\t// in\n    tag_323:\n        /* \"#utility.yul\":8269:8343   */\n      swap2\n      pop\n        /* \"#utility.yul\":8352:8445   */\n      tag_324\n        /* \"#utility.yul\":8441:8444   */\n      dup3\n        /* \"#utility.yul\":8352:8445   */\n      tag_226\n      jump\t// in\n    tag_324:\n        /* \"#utility.yul\":8470:8472   */\n      0x20\n        /* \"#utility.yul\":8465:8468   */\n      dup3\n        /* \"#utility.yul\":8461:8473   */\n      add\n        /* \"#utility.yul\":8454:8473   */\n      swap1\n      pop\n        /* \"#utility.yul\":8113:8479   */\n      swap2\n      swap1\n      pop\n      jump\t// out\n        /* \"#utility.yul\":8485:8904   */\n    tag_113:\n        /* \"#utility.yul\":8651:8655   */\n      0x00\n        /* \"#utility.yul\":8689:8691   */\n      0x20\n        /* \"#utility.yul\":8678:8687   */\n      dup3\n        /* \"#utility.yul\":8674:8692   */\n      add\n        /* \"#utility.yul\":8666:8692   */\n      swap1\n      pop\n        /* \"#utility.yul\":8738:8747   */\n      dup2\n        /* \"#utility.yul\":8732:8736   */\n      dup2\n        /* \"#utility.yul\":8728:8748   */\n      sub\n        /* \"#utility.yul\":8724:8725   */\n      0x00\n        /* \"#utility.yul\":8713:8722   */\n      dup4\n        /* \"#utility.yul\":8709:8726   */\n      add\n        /* \"#utility.yul\":8702:8749   */\n      mstore\n        /* \"#utility.yul\":8766:8897   */\n      tag_326\n        /* \"#utility.yul\":8892:8896   */\n      dup2\n        /* \"#utility.yul\":8766:8897   */\n      tag_227\n      jump\t// in\n    tag_326:\n        /* \"#utility.yul\":8758:8897   */\n      swap1\n      pop\n        /* \"#utility.yul\":8485:8904   */\n      swap2\n      swap1\n      pop\n      jump\t// out\n        /* \"#utility.yul\":8910:9090   */\n    tag_119:\n        /* \"#utility.yul\":8958:9035   */\n      0x4e487b7100000000000000000000000000000000000000000000000000000000\n        /* \"#utility.yul\":8955:8956   */\n      0x00\n        /* \"#utility.yul\":8948:9036   */\n      mstore\n        /* \"#utility.yul\":9055:9059   */\n      0x32\n        /* \"#utility.yul\":9052:9053   */\n      0x04\n        /* \"#utility.yul\":9045:9060   */\n      mstore\n        /* \"#utility.yul\":9079:9083   */\n      0x24\n        /* \"#utility.yul\":9076:9077   */\n      0x00\n        /* \"#utility.yul\":9069:9084   */\n      revert\n        /* \"#utility.yul\":9096:9276   */\n    tag_228:\n        /* \"#utility.yul\":9144:9221   */\n      0x4e487b7100000000000000000000000000000000000000000000000000000000\n        /* \"#utility.yul\":9141:9142   */\n      0x00\n        /* \"#utility.yul\":9134:9222   */\n      mstore\n        /* \"#utility.yul\":9241:9245   */\n      0x11\n        /* \"#utility.yul\":9238:9239   */\n      0x04\n        /* \"#utility.yul\":9231:9246   */\n      mstore\n        /* \"#utility.yul\":9265:9269   */\n      0x24\n        /* \"#utility.yul\":9262:9263   */\n      0x00\n        /* \"#utility.yul\":9255:9270   */\n      revert\n        /* \"#utility.yul\":9282:9476   */\n    tag_126:\n        /* \"#utility.yul\":9322:9326   */\n      0x00\n        /* \"#utility.yul\":9342:9362   */\n      tag_330\n        /* \"#utility.yul\":9360:9361   */\n      dup3\n        /* \"#utility.yul\":9342:9362   */\n      tag_198\n      jump\t// in\n    tag_330:\n        /* \"#utility.yul\":9337:9362   */\n      swap2\n      pop\n        /* \"#utility.yul\":9376:9396   */\n      tag_331\n        /* \"#utility.yul\":9394:9395   */\n      dup4\n        /* \"#utility.yul\":9376:9396   */\n      tag_198\n      jump\t// in\n    tag_331:\n        /* \"#utility.yul\":9371:9396   */\n      swap3\n      pop\n        /* \"#utility.yul\":9420:9421   */\n      dup3\n        /* \"#utility.yul\":9417:9418   */\n      dup3\n        /* \"#utility.yul\":9413:9422   */\n      sub\n        /* \"#utility.yul\":9405:9422   */\n      swap1\n      pop\n        /* \"#utility.yul\":9444:9445   */\n      dup2\n        /* \"#utility.yul\":9438:9442   */\n      dup2\n        /* \"#utility.yul\":9435:9446   */\n      gt\n        /* \"#utility.yul\":9432:9469   */\n      iszero\n      tag_332\n      jumpi\n        /* \"#utility.yul\":9449:9467   */\n      tag_333\n      tag_228\n      jump\t// in\n    tag_333:\n        /* \"#utility.yul\":9432:9469   */\n    tag_332:\n        /* \"#utility.yul\":9282:9476   */\n      swap3\n      swap2\n      pop\n      pop\n      jump\t// out\n        /* \"#utility.yul\":9482:9673   */\n    tag_132:\n        /* \"#utility.yul\":9522:9525   */\n      0x00\n        /* \"#utility.yul\":9541:9561   */\n      tag_335\n        /* \"#utility.yul\":9559:9560   */\n      dup3\n        /* \"#utility.yul\":9541:9561   */\n      tag_198\n      jump\t// in\n    tag_335:\n        /* \"#utility.yul\":9536:9561   */\n      swap2\n      pop\n        /* \"#utility.yul\":9575:9595   */\n      tag_336\n        /* \"#utility.yul\":9593:9594   */\n      dup4\n        /* \"#utility.yul\":9575:9595   */\n      tag_198\n      jump\t// in\n    tag_336:\n        /* \"#utility.yul\":9570:9595   */\n      swap3\n      pop\n        /* \"#utility.yul\":9618:9619   */\n      dup3\n        /* \"#utility.yul\":9615:9616   */\n      dup3\n        /* \"#utility.yul\":9611:9620   */\n      add\n        /* \"#utility.yul\":9604:9620   */\n      swap1\n      pop\n        /* \"#utility.yul\":9639:9642   */\n      dup1\n        /* \"#utility.yul\":9636:9637   */\n      dup3\n        /* \"#utility.yul\":9633:9643   */\n      gt\n        /* \"#utility.yul\":9630:9666   */\n      iszero\n      tag_337\n      jumpi\n        /* \"#utility.yul\":9646:9664   */\n      tag_338\n      tag_228\n      jump\t// in\n    tag_338:\n        /* \"#utility.yul\":9630:9666   */\n    tag_337:\n        /* \"#utility.yul\":9482:9673   */\n      swap3\n      swap2\n      pop\n      pop\n      jump\t// out\n        /* \"#utility.yul\":9679:9851   */\n    tag_229:\n        /* \"#utility.yul\":9819:9843   */\n      0x446973747269627574696f6e206e6f7420726561647900000000000000000000\n        /* \"#utility.yul\":9815:9816   */\n      0x00\n        /* \"#utility.yul\":9807:9813   */\n      dup3\n        /* \"#utility.yul\":9803:9817   */\n      add\n        /* \"#utility.yul\":9796:9844   */\n      mstore\n        /* \"#utility.yul\":9679:9851   */\n      pop\n      jump\t// out\n        /* \"#utility.yul\":9857:10223   */\n    tag_230:\n        /* \"#utility.yul\":9999:10002   */\n      0x00\n        /* \"#utility.yul\":10020:10087   */\n      tag_341\n        /* \"#utility.yul\":10084:10086   */\n      0x16\n        /* \"#utility.yul\":10079:10082   */\n      dup4\n        /* \"#utility.yul\":10020:10087   */\n      tag_217\n      jump\t// in\n    tag_341:\n        /* \"#utility.yul\":10013:10087   */\n      swap2\n      pop\n        /* \"#utility.yul\":10096:10189   */\n      tag_342\n        /* \"#utility.yul\":10185:10188   */\n      dup3\n        /* \"#utility.yul\":10096:10189   */\n      tag_229\n      jump\t// in\n    tag_342:\n        /* \"#utility.yul\":10214:10216   */\n      0x20\n        /* \"#utility.yul\":10209:10212   */\n      dup3\n        /* \"#utility.yul\":10205:10217   */\n      add\n        /* \"#utility.yul\":10198:10217   */\n      swap1\n      pop\n        /* \"#utility.yul\":9857:10223   */\n      swap2\n      swap1\n      pop\n      jump\t// out\n        /* \"#utility.yul\":10229:10648   */\n    tag_140:\n        /* \"#utility.yul\":10395:10399   */\n      0x00\n        /* \"#utility.yul\":10433:10435   */\n      0x20\n        /* \"#utility.yul\":10422:10431   */\n      dup3\n        /* \"#utility.yul\":10418:10436   */\n      add\n        /* \"#utility.yul\":10410:10436   */\n      swap1\n      pop\n        /* \"#utility.yul\":10482:10491   */\n      dup2\n        /* \"#utility.yul\":10476:10480   */\n      dup2\n        /* \"#utility.yul\":10472:10492   */\n      sub\n        /* \"#utility.yul\":10468:10469   */\n      0x00\n        /* \"#utility.yul\":10457:10466   */\n      dup4\n        /* \"#utility.yul\":10453:10470   */\n      add\n        /* \"#utility.yul\":10446:10493   */\n      mstore\n        /* \"#utility.yul\":10510:10641   */\n      tag_344\n        /* \"#utility.yul\":10636:10640   */\n      dup2\n        /* \"#utility.yul\":10510:10641   */\n      tag_230\n      jump\t// in\n    tag_344:\n        /* \"#utility.yul\":10502:10641   */\n      swap1\n      pop\n        /* \"#utility.yul\":10229:10648   */\n      swap2\n      swap1\n      pop\n      jump\t// out\n        /* \"#utility.yul\":10654:11064   */\n    tag_148:\n        /* \"#utility.yul\":10694:10701   */\n      0x00\n        /* \"#utility.yul\":10717:10737   */\n      tag_346\n        /* \"#utility.yul\":10735:10736   */\n      dup3\n        /* \"#utility.yul\":10717:10737   */\n      tag_198\n      jump\t// in\n    tag_346:\n        /* \"#utility.yul\":10712:10737   */\n      swap2\n      pop\n        /* \"#utility.yul\":10751:10771   */\n      tag_347\n        /* \"#utility.yul\":10769:10770   */\n      dup4\n        /* \"#utility.yul\":10751:10771   */\n      tag_198\n      jump\t// in\n    tag_347:\n        /* \"#utility.yul\":10746:10771   */\n      swap3\n      pop\n        /* \"#utility.yul\":10806:10807   */\n      dup3\n        /* \"#utility.yul\":10803:10804   */\n      dup3\n        /* \"#utility.yul\":10799:10808   */\n      mul\n        /* \"#utility.yul\":10828:10858   */\n      tag_348\n        /* \"#utility.yul\":10846:10857   */\n      dup2\n        /* \"#utility.yul\":10828:10858   */\n      tag_198\n      jump\t// in\n    tag_348:\n        /* \"#utility.yul\":10817:10858   */\n      swap2\n      pop\n        /* \"#utility.yul\":11007:11008   */\n      dup3\n        /* \"#utility.yul\":10998:11005   */\n      dup3\n        /* \"#utility.yul\":10994:11009   */\n      div\n        /* \"#utility.yul\":10991:10992   */\n      dup5\n        /* \"#utility.yul\":10988:11010   */\n      eq\n        /* \"#utility.yul\":10968:10969   */\n      dup4\n        /* \"#utility.yul\":10961:10970   */\n      iszero\n        /* \"#utility.yul\":10941:11024   */\n      or\n        /* \"#utility.yul\":10918:11057   */\n      tag_349\n      jumpi\n        /* \"#utility.yul\":11037:11055   */\n      tag_350\n      tag_228\n      jump\t// in\n    tag_350:\n        /* \"#utility.yul\":10918:11057   */\n    tag_349:\n        /* \"#utility.yul\":10702:11064   */\n      pop\n        /* \"#utility.yul\":10654:11064   */\n      swap3\n      swap2\n      pop\n      pop\n      jump\t// out\n        /* \"#utility.yul\":11070:11250   */\n    tag_231:\n        /* \"#utility.yul\":11118:11195   */\n      0x4e487b7100000000000000000000000000000000000000000000000000000000\n        /* \"#utility.yul\":11115:11116   */\n      0x00\n        /* \"#utility.yul\":11108:11196   */\n      mstore\n        /* \"#utility.yul\":11215:11219   */\n      0x12\n        /* \"#utility.yul\":11212:11213   */\n      0x04\n        /* \"#utility.yul\":11205:11220   */\n      mstore\n        /* \"#utility.yul\":11239:11243   */\n      0x24\n        /* \"#utility.yul\":11236:11237   */\n      0x00\n        /* \"#utility.yul\":11229:11244   */\n      revert\n        /* \"#utility.yul\":11256:11441   */\n    tag_150:\n        /* \"#utility.yul\":11296:11297   */\n      0x00\n        /* \"#utility.yul\":11313:11333   */\n      tag_353\n        /* \"#utility.yul\":11331:11332   */\n      dup3\n        /* \"#utility.yul\":11313:11333   */\n      tag_198\n      jump\t// in\n    tag_353:\n        /* \"#utility.yul\":11308:11333   */\n      swap2\n      pop\n        /* \"#utility.yul\":11347:11367   */\n      tag_354\n        /* \"#utility.yul\":11365:11366   */\n      dup4\n        /* \"#utility.yul\":11347:11367   */\n      tag_198\n      jump\t// in\n    tag_354:\n        /* \"#utility.yul\":11342:11367   */\n      swap3\n      pop\n        /* \"#utility.yul\":11386:11387   */\n      dup3\n        /* \"#utility.yul\":11376:11411   */\n      tag_355\n      jumpi\n        /* \"#utility.yul\":11391:11409   */\n      tag_356\n      tag_231\n      jump\t// in\n    tag_356:\n        /* \"#utility.yul\":11376:11411   */\n    tag_355:\n        /* \"#utility.yul\":11433:11434   */\n      dup3\n        /* \"#utility.yul\":11430:11431   */\n      dup3\n        /* \"#utility.yul\":11426:11435   */\n      div\n        /* \"#utility.yul\":11421:11435   */\n      swap1\n      pop\n        /* \"#utility.yul\":11256:11441   */\n      swap3\n      swap2\n      pop\n      pop\n      jump\t// out\n        /* \"#utility.yul\":11447:11616   */\n    tag_232:\n        /* \"#utility.yul\":11587:11608   */\n      0x4f6e6c79206f776e65722063616e2063616c6c00000000000000000000000000\n        /* \"#utility.yul\":11583:11584   */\n      0x00\n        /* \"#utility.yul\":11575:11581   */\n      dup3\n        /* \"#utility.yul\":11571:11585   */\n      add\n        /* \"#utility.yul\":11564:11609   */\n      mstore\n        /* \"#utility.yul\":11447:11616   */\n      pop\n      jump\t// out\n        /* \"#utility.yul\":11622:11988   */\n    tag_233:\n        /* \"#utility.yul\":11764:11767   */\n      0x00\n        /* \"#utility.yul\":11785:11852   */\n      tag_359\n        /* \"#utility.yul\":11849:11851   */\n      0x13\n        /* \"#utility.yul\":11844:11847   */\n      dup4\n        /* \"#utility.yul\":11785:11852   */\n      tag_217\n      jump\t// in\n    tag_359:\n        /* \"#utility.yul\":11778:11852   */\n      swap2\n      pop\n        /* \"#utility.yul\":11861:11954   */\n      tag_360\n        /* \"#utility.yul\":11950:11953   */\n      dup3\n        /* \"#utility.yul\":11861:11954   */\n      tag_232\n      jump\t// in\n    tag_360:\n        /* \"#utility.yul\":11979:11981   */\n      0x20\n        /* \"#utility.yul\":11974:11977   */\n      dup3\n        /* \"#utility.yul\":11970:11982   */\n      add\n        /* \"#utility.yul\":11963:11982   */\n      swap1\n      pop\n        /* \"#utility.yul\":11622:11988   */\n      swap2\n      swap1\n      pop\n      jump\t// out\n        /* \"#utility.yul\":11994:12413   */\n    tag_157:\n        /* \"#utility.yul\":12160:12164   */\n      0x00\n        /* \"#utility.yul\":12198:12200   */\n      0x20\n        /* \"#utility.yul\":12187:12196   */\n      dup3\n        /* \"#utility.yul\":12183:12201   */\n      add\n        /* \"#utility.yul\":12175:12201   */\n      swap1\n      pop\n        /* \"#utility.yul\":12247:12256   */\n      dup2\n        /* \"#utility.yul\":12241:12245   */\n      dup2\n        /* \"#utility.yul\":12237:12257   */\n      sub\n        /* \"#utility.yul\":12233:12234   */\n      0x00\n        /* \"#utility.yul\":12222:12231   */\n      dup4\n        /* \"#utility.yul\":12218:12235   */\n      add\n        /* \"#utility.yul\":12211:12258   */\n      mstore\n        /* \"#utility.yul\":12275:12406   */\n      tag_362\n        /* \"#utility.yul\":12401:12405   */\n      dup2\n        /* \"#utility.yul\":12275:12406   */\n      tag_233\n      jump\t// in\n    tag_362:\n        /* \"#utility.yul\":12267:12406   */\n      swap1\n      pop\n        /* \"#utility.yul\":11994:12413   */\n      swap2\n      swap1\n      pop\n      jump\t// out\n        /* \"#utility.yul\":12419:12597   */\n    tag_234:\n        /* \"#utility.yul\":12559:12589   */\n      0x4c6f636b20706572696f64206d75737420626520706f73697469766500000000\n        /* \"#utility.yul\":12555:12556   */\n      0x00\n        /* \"#utility.yul\":12547:12553   */\n      dup3\n        /* \"#utility.yul\":12543:12557   */\n      add\n        /* \"#utility.yul\":12536:12590   */\n      mstore\n        /* \"#utility.yul\":12419:12597   */\n      pop\n      jump\t// out\n        /* \"#utility.yul\":12603:12969   */\n    tag_235:\n        /* \"#utility.yul\":12745:12748   */\n      0x00\n        /* \"#utility.yul\":12766:12833   */\n      tag_365\n        /* \"#utility.yul\":12830:12832   */\n      0x1c\n        /* \"#utility.yul\":12825:12828   */\n      dup4\n        /* \"#utility.yul\":12766:12833   */\n      tag_217\n      jump\t// in\n    tag_365:\n        /* \"#utility.yul\":12759:12833   */\n      swap2\n      pop\n        /* \"#utility.yul\":12842:12935   */\n      tag_366\n        /* \"#utility.yul\":12931:12934   */\n      dup3\n        /* \"#utility.yul\":12842:12935   */\n      tag_234\n      jump\t// in\n    tag_366:\n        /* \"#utility.yul\":12960:12962   */\n      0x20\n        /* \"#utility.yul\":12955:12958   */\n      dup3\n        /* \"#utility.yul\":12951:12963   */\n      add\n        /* \"#utility.yul\":12944:12963   */\n      swap1\n      pop\n        /* \"#utility.yul\":12603:12969   */\n      swap2\n      swap1\n      pop\n      jump\t// out\n        /* \"#utility.yul\":12975:13394   */\n    tag_161:\n        /* \"#utility.yul\":13141:13145   */\n      0x00\n        /* \"#utility.yul\":13179:13181   */\n      0x20\n        /* \"#utility.yul\":13168:13177   */\n      dup3\n        /* \"#utility.yul\":13164:13182   */\n      add\n        /* \"#utility.yul\":13156:13182   */\n      swap1\n      pop\n        /* \"#utility.yul\":13228:13237   */\n      dup2\n        /* \"#utility.yul\":13222:13226   */\n      dup2\n        /* \"#utility.yul\":13218:13238   */\n      sub\n        /* \"#utility.yul\":13214:13215   */\n      0x00\n        /* \"#utility.yul\":13203:13212   */\n      dup4\n        /* \"#utility.yul\":13199:13216   */\n      add\n        /* \"#utility.yul\":13192:13239   */\n      mstore\n        /* \"#utility.yul\":13256:13387   */\n      tag_368\n        /* \"#utility.yul\":13382:13386   */\n      dup2\n        /* \"#utility.yul\":13256:13387   */\n      tag_235\n      jump\t// in\n    tag_368:\n        /* \"#utility.yul\":13248:13387   */\n      swap1\n      pop\n        /* \"#utility.yul\":12975:13394   */\n      swap2\n      swap1\n      pop\n      jump\t// out\n        /* \"#utility.yul\":13400:13570   */\n    tag_236:\n        /* \"#utility.yul\":13540:13562   */\n      0x57616c6c657420616c7265616479206164646564000000000000000000000000\n        /* \"#utility.yul\":13536:13537   */\n      0x00\n        /* \"#utility.yul\":13528:13534   */\n      dup3\n        /* \"#utility.yul\":13524:13538   */\n      add\n        /* \"#utility.yul\":13517:13563   */\n      mstore\n        /* \"#utility.yul\":13400:13570   */\n      pop\n      jump\t// out\n        /* \"#utility.yul\":13576:13942   */\n    tag_237:\n        /* \"#utility.yul\":13718:13721   */\n      0x00\n        /* \"#utility.yul\":13739:13806   */\n      tag_371\n        /* \"#utility.yul\":13803:13805   */\n      0x14\n        /* \"#utility.yul\":13798:13801   */\n      dup4\n        /* \"#utility.yul\":13739:13806   */\n      tag_217\n      jump\t// in\n    tag_371:\n        /* \"#utility.yul\":13732:13806   */\n      swap2\n      pop\n        /* \"#utility.yul\":13815:13908   */\n      tag_372\n        /* \"#utility.yul\":13904:13907   */\n      dup3\n        /* \"#utility.yul\":13815:13908   */\n      tag_236\n      jump\t// in\n    tag_372:\n        /* \"#utility.yul\":13933:13935   */\n      0x20\n        /* \"#utility.yul\":13928:13931   */\n      dup3\n        /* \"#utility.yul\":13924:13936   */\n      add\n        /* \"#utility.yul\":13917:13936   */\n      swap1\n      pop\n        /* \"#utility.yul\":13576:13942   */\n      swap2\n      swap1\n      pop\n      jump\t// out\n        /* \"#utility.yul\":13948:14367   */\n    tag_195:\n        /* \"#utility.yul\":14114:14118   */\n      0x00\n        /* \"#utility.yul\":14152:14154   */\n      0x20\n        /* \"#utility.yul\":14141:14150   */\n      dup3\n        /* \"#utility.yul\":14137:14155   */\n      add\n        /* \"#utility.yul\":14129:14155   */\n      swap1\n      pop\n        /* \"#utility.yul\":14201:14210   */\n      dup2\n        /* \"#utility.yul\":14195:14199   */\n      dup2\n        /* \"#utility.yul\":14191:14211   */\n      sub\n        /* \"#utility.yul\":14187:14188   */\n      0x00\n        /* \"#utility.yul\":14176:14185   */\n      dup4\n        /* \"#utility.yul\":14172:14189   */\n      add\n        /* \"#utility.yul\":14165:14212   */\n      mstore\n        /* \"#utility.yul\":14229:14360   */\n      tag_374\n        /* \"#utility.yul\":14355:14359   */\n      dup2\n        /* \"#utility.yul\":14229:14360   */\n      tag_237\n      jump\t// in\n    tag_374:\n        /* \"#utility.yul\":14221:14360   */\n      swap1\n      pop\n        /* \"#utility.yul\":13948:14367   */\n      swap2\n      swap1\n      pop\n      jump\t// out\n\n    auxdata: 0xa264697066735822122065d422565f126e72012e1cb8be074476e5cb1f63e5dc24bd59c686259579656a64736f6c634300081c0033\n}\n",
				"bytecode": {
					"linkReferences": {},
					"object": "60806040525f5f9054906101000a900473ffffffffffffffffffffffffffffffffffffffff1673ffffffffffffffffffffffffffffffffffffffff1663313ce5676040518163ffffffff1660e01b8152600401602060405180830381865afa15801561006d573d5f5f3e3d5ffd5b505050506040513d601f19601f8201168201806040525081019061009191906101c0565b603c61009d9190610218565b60ff1660025560b4606460466002546100b6919061025d565b6100c091906102cb565b6100ca91906102cb565b6003553480156100d8575f5ffd5b50604051611b5e380380611b5e83398181016040528101906100fa9190610355565b805f5f6101000a81548173ffffffffffffffffffffffffffffffffffffffff021916908373ffffffffffffffffffffffffffffffffffffffff1602179055503360015f6101000a81548173ffffffffffffffffffffffffffffffffffffffff021916908373ffffffffffffffffffffffffffffffffffffffff1602179055504360048190555050610380565b5f5ffd5b5f60ff82169050919050565b61019f8161018a565b81146101a9575f5ffd5b50565b5f815190506101ba81610196565b92915050565b5f602082840312156101d5576101d4610186565b5b5f6101e2848285016101ac565b91505092915050565b7f4e487b71000000000000000000000000000000000000000000000000000000005f52601160045260245ffd5b5f6102228261018a565b915061022d8361018a565b925082820261023b8161018a565b915080821461024d5761024c6101eb565b5b5092915050565b5f819050919050565b5f61026782610254565b915061027283610254565b925082820261028081610254565b91508282048414831517610297576102966101eb565b5b5092915050565b7f4e487b71000000000000000000000000000000000000000000000000000000005f52601260045260245ffd5b5f6102d582610254565b91506102e083610254565b9250826102f0576102ef61029e565b5b828204905092915050565b5f73ffffffffffffffffffffffffffffffffffffffff82169050919050565b5f610324826102fb565b9050919050565b6103348161031a565b811461033e575f5ffd5b50565b5f8151905061034f8161032b565b92915050565b5f6020828403121561036a57610369610186565b5b5f61037784828501610341565b91505092915050565b6117d18061038d5f395ff3fe608060405234801561000f575f5ffd5b506004361061011f575f3560e01c806391db7b0d116100ab578063efeb5f1f1161006f578063efeb5f1f146102f3578063f2bc79a31461030f578063f5c330a81461032d578063fc0c546a1461034b578063fe9fbb80146103695761011f565b806391db7b0d1461023d5780639eda581014610259578063cb3cc12614610289578063d1bc76a1146102a7578063df4d971d146102d75761011f565b806351cff8d9116100f257806351cff8d9146101bf57806369a63036146101db5780636f4a2cd0146101f757806382dc7c9d146102015780638da5cb5b1461021f5761011f565b8063012e0867146101235780630483a7f61461014157806331008aae146101715780633638104a1461018f575b5f5ffd5b61012b610399565b60405161013891906110ab565b60405180910390f35b61015b60048036038101906101569190611122565b61039e565b60405161016891906110ab565b60405180910390f35b6101796103b9565b60405161018691906110ab565b60405180910390f35b6101a960048036038101906101a49190611122565b6103bf565b6040516101b69190611167565b60405180910390f35b6101d960048036038101906101d49190611122565b6103dc565b005b6101f560048036038101906101f09190611122565b610617565b005b6101ff610868565b005b610209610a5c565b60405161021691906110ab565b60405180910390f35b610227610a63565b604051610234919061118f565b60405180910390f35b610257600480360381019061025291906111d2565b610a88565b005b610273600480360381019061026e9190611122565b610b5c565b604051610280919061118f565b60405180910390f35b610291610b8c565b60405161029e91906110ab565b60405180910390f35b6102c160048036038101906102bc91906111d2565b610b92565b6040516102ce919061118f565b60405180910390f35b6102f160048036038101906102ec9190611122565b610bcd565b005b61030d60048036038101906103089190611122565b610e40565b005b610317611011565b60405161032491906110ab565b60405180910390f35b610335611017565b60405161034291906110ab565b60405180910390f35b61035361101d565b6040516103609190611258565b60405180910390f35b610383600480360381019061037e9190611122565b611041565b6040516103909190611167565b60405180910390f35b601e81565b6006602052805f5260405f205f915090508060010154905081565b611c2081565b6007602052805f5260405f205f915054906101000a900460ff1681565b3373ffffffffffffffffffffffffffffffffffffffff1660055f8373ffffffffffffffffffffffffffffffffffffffff1673ffffffffffffffffffffffffffffffffffffffff1681526020019081526020015f205f9054906101000a900473ffffffffffffffffffffffffffffffffffffffff1673ffffffffffffffffffffffffffffffffffffffff16146104a6576040517f08c379a000000000000000000000000000000000000000000000000000000000815260040161049d906112cb565b60405180910390fd5b5f60065f8373ffffffffffffffffffffffffffffffffffffffff1673ffffffffffffffffffffffffffffffffffffffff1681526020019081526020015f2090505f81600101541161052c576040517f08c379a000000000000000000000000000000000000000000000000000000000815260040161052390611333565b60405180910390fd5b5f5f9054906101000a900473ffffffffffffffffffffffffffffffffffffffff1673ffffffffffffffffffffffffffffffffffffffff1663a9059cbb3383600101546040518363ffffffff1660e01b815260040161058b929190611351565b6020604051808303815f875af11580156105a7573d5f5f3e3d5ffd5b505050506040513d601f19601f820116820180604052508101906105cb91906113a2565b61060a576040517f08c379a000000000000000000000000000000000000000000000000000000000815260040161060190611417565b60405180910390fd5b5f81600101819055505050565b3373ffffffffffffffffffffffffffffffffffffffff1660055f8373ffffffffffffffffffffffffffffffffffffffff1673ffffffffffffffffffffffffffffffffffffffff1681526020019081526020015f205f9054906101000a900473ffffffffffffffffffffffffffffffffffffffff1673ffffffffffffffffffffffffffffffffffffffff16146106e1576040517f08c379a00000000000000000000000000000000000000000000000000000000081526004016106d8906112cb565b60405180910390fd5b5f60065f8373ffffffffffffffffffffffffffffffffffffffff1673ffffffffffffffffffffffffffffffffffffffff1681526020019081526020015f2090505f815f018054905011610769576040517f08c379a00000000000000000000000000000000000000000000000000000000081526004016107609061147f565b60405180910390fd5b5f5f90505b815f018054905081101561086357815f0181815481106107915761079061149d565b5b905f5260205f2090600302016002015f9054906101000a900460ff16610856575f825f0182815481106107c7576107c661149d565b5b905f5260205f20906003020160010154436107e291906114f7565b905062107ac0811061085457825f0182815481106108035761080261149d565b5b905f5260205f2090600302015f0154836001015f828254610824919061152a565b925050819055505f835f0183815481106108415761084061149d565b5b905f5260205f2090600302015f01819055505b505b808060010191505061076e565b505050565b611c20600454610878919061152a565b4310156108ba576040517f08c379a00000000000000000000000000000000000000000000000000000000081526004016108b1906115a7565b60405180910390fd5b436004819055505f5f90505b600880549050811015610a59575f600882815481106108e8576108e761149d565b5b905f5260205f20015f9054906101000a900473ffffffffffffffffffffffffffffffffffffffff1690505f6064601e60025461092491906115c5565b61092e9190611633565b90508060065f8473ffffffffffffffffffffffffffffffffffffffff1673ffffffffffffffffffffffffffffffffffffffff1681526020019081526020015f206001015f82825461097f919061152a565b9250508190555060065f8373ffffffffffffffffffffffffffffffffffffffff1673ffffffffffffffffffffffffffffffffffffffff1681526020019081526020015f205f016040518060600160405280836002546109de91906114f7565b815260200160045481526020015f1515815250908060018154018082558091505060019003905f5260205f2090600302015f909190919091505f820151815f0155602082015181600101556040820151816002015f6101000a81548160ff0219169083151502179055505050505080806001019150506108c6565b50565b62107ac081565b60015f9054906101000a900473ffffffffffffffffffffffffffffffffffffffff1681565b60015f9054906101000a900473ffffffffffffffffffffffffffffffffffffffff1673ffffffffffffffffffffffffffffffffffffffff163373ffffffffffffffffffffffffffffffffffffffff1614610b17576040517f08c379a0000000000000000000000000000000000000000000000000000000008152600401610b0e906116ad565b60405180910390fd5b5f8111610b59576040517f08c379a0000000000000000000000000000000000000000000000000000000008152600401610b5090611715565b60405180910390fd5b50565b6005602052805f5260405f205f915054906101000a900473ffffffffffffffffffffffffffffffffffffffff1681565b60025481565b60088181548110610ba1575f80fd5b905f5260205f20015f915054906101000a900473ffffffffffffffffffffffffffffffffffffffff1681565b3373ffffffffffffffffffffffffffffffffffffffff1660055f8373ffffffffffffffffffffffffffffffffffffffff1673ffffffffffffffffffffffffffffffffffffffff1681526020019081526020015f205f9054906101000a900473ffffffffffffffffffffffffffffffffffffffff1673ffffffffffffffffffffffffffffffffffffffff1614610c97576040517f08c379a0000000000000000000000000000000000000000000000000000000008152600401610c8e906112cb565b60405180910390fd5b5f60065f8373ffffffffffffffffffffffffffffffffffffffff1673ffffffffffffffffffffffffffffffffffffffff1681526020019081526020015f2090505f5f90505f5f90505b825f0180549050811015610dde57825f018181548110610d0357610d0261149d565b5b905f5260205f2090600302016002015f9054906101000a900460ff16610dd1576064601e845f018381548110610d3c57610d3b61149d565b5b905f5260205f2090600302015f0154610d5591906115c5565b610d5f9190611633565b82610d6a919061152a565b91506001835f018281548110610d8357610d8261149d565b5b905f5260205f2090600302016002015f6101000a81548160ff0219169083151502179055505f835f018281548110610dbe57610dbd61149d565b5b905f5260205f2090600302015f01819055505b8080600101915050610ce0565b505f8111610e21576040517f08c379a0000000000000000000000000000000000000000000000000000000008152600401610e189061147f565b60405180910390fd5b80826001015f828254610e34919061152a565b92505081905550505050565b60015f9054906101000a900473ffffffffffffffffffffffffffffffffffffffff1673ffffffffffffffffffffffffffffffffffffffff163373ffffffffffffffffffffffffffffffffffffffff1614610ecf576040517f08c379a0000000000000000000000000000000000000000000000000000000008152600401610ec6906116ad565b60405180910390fd5b60075f8273ffffffffffffffffffffffffffffffffffffffff1673ffffffffffffffffffffffffffffffffffffffff1681526020019081526020015f205f9054906101000a900460ff1615610f59576040517f08c379a0000000000000000000000000000000000000000000000000000000008152600401610f509061177d565b60405180910390fd5b600160075f8373ffffffffffffffffffffffffffffffffffffffff1673ffffffffffffffffffffffffffffffffffffffff1681526020019081526020015f205f6101000a81548160ff021916908315150217905550600881908060018154018082558091505060019003905f5260205f20015f9091909190916101000a81548173ffffffffffffffffffffffffffffffffffffffff021916908373ffffffffffffffffffffffffffffffffffffffff16021790555050565b60045481565b60035481565b5f5f9054906101000a900473ffffffffffffffffffffffffffffffffffffffff1681565b5f60075f8373ffffffffffffffffffffffffffffffffffffffff1673ffffffffffffffffffffffffffffffffffffffff1681526020019081526020015f205f9054906101000a900460ff169050919050565b5f819050919050565b6110a581611093565b82525050565b5f6020820190506110be5f83018461109c565b92915050565b5f5ffd5b5f73ffffffffffffffffffffffffffffffffffffffff82169050919050565b5f6110f1826110c8565b9050919050565b611101816110e7565b811461110b575f5ffd5b50565b5f8135905061111c816110f8565b92915050565b5f60208284031215611137576111366110c4565b5b5f6111448482850161110e565b91505092915050565b5f8115159050919050565b6111618161114d565b82525050565b5f60208201905061117a5f830184611158565b92915050565b611189816110e7565b82525050565b5f6020820190506111a25f830184611180565b92915050565b6111b181611093565b81146111bb575f5ffd5b50565b5f813590506111cc816111a8565b92915050565b5f602082840312156111e7576111e66110c4565b5b5f6111f4848285016111be565b91505092915050565b5f819050919050565b5f61122061121b611216846110c8565b6111fd565b6110c8565b9050919050565b5f61123182611206565b9050919050565b5f61124282611227565b9050919050565b61125281611238565b82525050565b5f60208201905061126b5f830184611249565b92915050565b5f82825260208201905092915050565b7f4e6f2062696e64696e67000000000000000000000000000000000000000000005f82015250565b5f6112b5600a83611271565b91506112c082611281565b602082019050919050565b5f6020820190508181035f8301526112e2816112a9565b9050919050565b7f4e6f20756e6c6f636b656420746f6b656e7320796574000000000000000000005f82015250565b5f61131d601683611271565b9150611328826112e9565b602082019050919050565b5f6020820190508181035f83015261134a81611311565b9050919050565b5f6040820190506113645f830185611180565b611371602083018461109c565b9392505050565b6113818161114d565b811461138b575f5ffd5b50565b5f8151905061139c81611378565b92915050565b5f602082840312156113b7576113b66110c4565b5b5f6113c48482850161138e565b91505092915050565b7f5472616e73666572206661696c656400000000000000000000000000000000005f82015250565b5f611401600f83611271565b915061140c826113cd565b602082019050919050565b5f6020820190508181035f83015261142e816113f5565b9050919050565b7f4e6f206c6f636b656420746f6b656e73000000000000000000000000000000005f82015250565b5f611469601083611271565b915061147482611435565b602082019050919050565b5f6020820190508181035f8301526114968161145d565b9050919050565b7f4e487b71000000000000000000000000000000000000000000000000000000005f52603260045260245ffd5b7f4e487b71000000000000000000000000000000000000000000000000000000005f52601160045260245ffd5b5f61150182611093565b915061150c83611093565b9250828203905081811115611524576115236114ca565b5b92915050565b5f61153482611093565b915061153f83611093565b9250828201905080821115611557576115566114ca565b5b92915050565b7f446973747269627574696f6e206e6f74207265616479000000000000000000005f82015250565b5f611591601683611271565b915061159c8261155d565b602082019050919050565b5f6020820190508181035f8301526115be81611585565b9050919050565b5f6115cf82611093565b91506115da83611093565b92508282026115e881611093565b915082820484148315176115ff576115fe6114ca565b5b5092915050565b7f4e487b71000000000000000000000000000000000000000000000000000000005f52601260045260245ffd5b5f61163d82611093565b915061164883611093565b92508261165857611657611606565b5b828204905092915050565b7f4f6e6c79206f776e65722063616e2063616c6c000000000000000000000000005f82015250565b5f611697601383611271565b91506116a282611663565b602082019050919050565b5f6020820190508181035f8301526116c48161168b565b9050919050565b7f4c6f636b20706572696f64206d75737420626520706f736974697665000000005f82015250565b5f6116ff601c83611271565b915061170a826116cb565b602082019050919050565b5f6020820190508181035f83015261172c816116f3565b9050919050565b7f57616c6c657420616c72656164792061646465640000000000000000000000005f82015250565b5f611767601483611271565b915061177282611733565b602082019050919050565b5f6020820190508181035f8301526117948161175b565b905091905056fea264697066735822122065d422565f126e72012e1cb8be074476e5cb1f63e5dc24bd59c686259579656a64736f6c634300081c0033",
					"opcodes": "PUSH1 0x80 PUSH1 0x40 MSTORE PUSH0 PUSH0 SWAP1 SLOAD SWAP1 PUSH2 0x100 EXP SWAP1 DIV PUSH20 0xFFFFFFFFFFFFFFFFFFFFFFFFFFFFFFFFFFFFFFFF AND PUSH20 0xFFFFFFFFFFFFFFFFFFFFFFFFFFFFFFFFFFFFFFFF AND PUSH4 0x313CE567 PUSH1 0x40 MLOAD DUP2 PUSH4 0xFFFFFFFF AND PUSH1 0xE0 SHL DUP2 MSTORE PUSH1 0x4 ADD PUSH1 0x20 PUSH1 0x40 MLOAD DUP1 DUP4 SUB DUP2 DUP7 GAS STATICCALL ISZERO DUP1 ISZERO PUSH2 0x6D JUMPI RETURNDATASIZE PUSH0 PUSH0 RETURNDATACOPY RETURNDATASIZE PUSH0 REVERT JUMPDEST POP POP POP POP PUSH1 0x40 MLOAD RETURNDATASIZE PUSH1 0x1F NOT PUSH1 0x1F DUP3 ADD AND DUP3 ADD DUP1 PUSH1 0x40 MSTORE POP DUP2 ADD SWAP1 PUSH2 0x91 SWAP2 SWAP1 PUSH2 0x1C0 JUMP JUMPDEST PUSH1 0x3C PUSH2 0x9D SWAP2 SWAP1 PUSH2 0x218 JUMP JUMPDEST PUSH1 0xFF AND PUSH1 0x2 SSTORE PUSH1 0xB4 PUSH1 0x64 PUSH1 0x46 PUSH1 0x2 SLOAD PUSH2 0xB6 SWAP2 SWAP1 PUSH2 0x25D JUMP JUMPDEST PUSH2 0xC0 SWAP2 SWAP1 PUSH2 0x2CB JUMP JUMPDEST PUSH2 0xCA SWAP2 SWAP1 PUSH2 0x2CB JUMP JUMPDEST PUSH1 0x3 SSTORE CALLVALUE DUP1 ISZERO PUSH2 0xD8 JUMPI PUSH0 PUSH0 REVERT JUMPDEST POP PUSH1 0x40 MLOAD PUSH2 0x1B5E CODESIZE SUB DUP1 PUSH2 0x1B5E DUP4 CODECOPY DUP2 DUP2 ADD PUSH1 0x40 MSTORE DUP2 ADD SWAP1 PUSH2 0xFA SWAP2 SWAP1 PUSH2 0x355 JUMP JUMPDEST DUP1 PUSH0 PUSH0 PUSH2 0x100 EXP DUP2 SLOAD DUP2 PUSH20 0xFFFFFFFFFFFFFFFFFFFFFFFFFFFFFFFFFFFFFFFF MUL NOT AND SWAP1 DUP4 PUSH20 0xFFFFFFFFFFFFFFFFFFFFFFFFFFFFFFFFFFFFFFFF AND MUL OR SWAP1 SSTORE POP CALLER PUSH1 0x1 PUSH0 PUSH2 0x100 EXP DUP2 SLOAD DUP2 PUSH20 0xFFFFFFFFFFFFFFFFFFFFFFFFFFFFFFFFFFFFFFFF MUL NOT AND SWAP1 DUP4 PUSH20 0xFFFFFFFFFFFFFFFFFFFFFFFFFFFFFFFFFFFFFFFF AND MUL OR SWAP1 SSTORE POP NUMBER PUSH1 0x4 DUP2 SWAP1 SSTORE POP POP PUSH2 0x380 JUMP JUMPDEST PUSH0 PUSH0 REVERT JUMPDEST PUSH0 PUSH1 0xFF DUP3 AND SWAP1 POP SWAP2 SWAP1 POP JUMP JUMPDEST PUSH2 0x19F DUP2 PUSH2 0x18A JUMP JUMPDEST DUP2 EQ PUSH2 0x1A9 JUMPI PUSH0 PUSH0 REVERT JUMPDEST POP JUMP JUMPDEST PUSH0 DUP2 MLOAD SWAP1 POP PUSH2 0x1BA DUP2 PUSH2 0x196 JUMP JUMPDEST SWAP3 SWAP2 POP POP JUMP JUMPDEST PUSH0 PUSH1 0x20 DUP3 DUP5 SUB SLT ISZERO PUSH2 0x1D5 JUMPI PUSH2 0x1D4 PUSH2 0x186 JUMP JUMPDEST JUMPDEST PUSH0 PUSH2 0x1E2 DUP5 DUP3 DUP6 ADD PUSH2 0x1AC JUMP JUMPDEST SWAP2 POP POP SWAP3 SWAP2 POP POP JUMP JUMPDEST PUSH32 0x4E487B7100000000000000000000000000000000000000000000000000000000 PUSH0 MSTORE PUSH1 0x11 PUSH1 0x4 MSTORE PUSH1 0x24 PUSH0 REVERT JUMPDEST PUSH0 PUSH2 0x222 DUP3 PUSH2 0x18A JUMP JUMPDEST SWAP2 POP PUSH2 0x22D DUP4 PUSH2 0x18A JUMP JUMPDEST SWAP3 POP DUP3 DUP3 MUL PUSH2 0x23B DUP2 PUSH2 0x18A JUMP JUMPDEST SWAP2 POP DUP1 DUP3 EQ PUSH2 0x24D JUMPI PUSH2 0x24C PUSH2 0x1EB JUMP JUMPDEST JUMPDEST POP SWAP3 SWAP2 POP POP JUMP JUMPDEST PUSH0 DUP2 SWAP1 POP SWAP2 SWAP1 POP JUMP JUMPDEST PUSH0 PUSH2 0x267 DUP3 PUSH2 0x254 JUMP JUMPDEST SWAP2 POP PUSH2 0x272 DUP4 PUSH2 0x254 JUMP JUMPDEST SWAP3 POP DUP3 DUP3 MUL PUSH2 0x280 DUP2 PUSH2 0x254 JUMP JUMPDEST SWAP2 POP DUP3 DUP3 DIV DUP5 EQ DUP4 ISZERO OR PUSH2 0x297 JUMPI PUSH2 0x296 PUSH2 0x1EB JUMP JUMPDEST JUMPDEST POP SWAP3 SWAP2 POP POP JUMP JUMPDEST PUSH32 0x4E487B7100000000000000000000000000000000000000000000000000000000 PUSH0 MSTORE PUSH1 0x12 PUSH1 0x4 MSTORE PUSH1 0x24 PUSH0 REVERT JUMPDEST PUSH0 PUSH2 0x2D5 DUP3 PUSH2 0x254 JUMP JUMPDEST SWAP2 POP PUSH2 0x2E0 DUP4 PUSH2 0x254 JUMP JUMPDEST SWAP3 POP DUP3 PUSH2 0x2F0 JUMPI PUSH2 0x2EF PUSH2 0x29E JUMP JUMPDEST JUMPDEST DUP3 DUP3 DIV SWAP1 POP SWAP3 SWAP2 POP POP JUMP JUMPDEST PUSH0 PUSH20 0xFFFFFFFFFFFFFFFFFFFFFFFFFFFFFFFFFFFFFFFF DUP3 AND SWAP1 POP SWAP2 SWAP1 POP JUMP JUMPDEST PUSH0 PUSH2 0x324 DUP3 PUSH2 0x2FB JUMP JUMPDEST SWAP1 POP SWAP2 SWAP1 POP JUMP JUMPDEST PUSH2 0x334 DUP2 PUSH2 0x31A JUMP JUMPDEST DUP2 EQ PUSH2 0x33E JUMPI PUSH0 PUSH0 REVERT JUMPDEST POP JUMP JUMPDEST PUSH0 DUP2 MLOAD SWAP1 POP PUSH2 0x34F DUP2 PUSH2 0x32B JUMP JUMPDEST SWAP3 SWAP2 POP POP JUMP JUMPDEST PUSH0 PUSH1 0x20 DUP3 DUP5 SUB SLT ISZERO PUSH2 0x36A JUMPI PUSH2 0x369 PUSH2 0x186 JUMP JUMPDEST JUMPDEST PUSH0 PUSH2 0x377 DUP5 DUP3 DUP6 ADD PUSH2 0x341 JUMP JUMPDEST SWAP2 POP POP SWAP3 SWAP2 POP POP JUMP JUMPDEST PUSH2 0x17D1 DUP1 PUSH2 0x38D PUSH0 CODECOPY PUSH0 RETURN INVALID PUSH1 0x80 PUSH1 0x40 MSTORE CALLVALUE DUP1 ISZERO PUSH2 0xF JUMPI PUSH0 PUSH0 REVERT JUMPDEST POP PUSH1 0x4 CALLDATASIZE LT PUSH2 0x11F JUMPI PUSH0 CALLDATALOAD PUSH1 0xE0 SHR DUP1 PUSH4 0x91DB7B0D GT PUSH2 0xAB JUMPI DUP1 PUSH4 0xEFEB5F1F GT PUSH2 0x6F JUMPI DUP1 PUSH4 0xEFEB5F1F EQ PUSH2 0x2F3 JUMPI DUP1 PUSH4 0xF2BC79A3 EQ PUSH2 0x30F JUMPI DUP1 PUSH4 0xF5C330A8 EQ PUSH2 0x32D JUMPI DUP1 PUSH4 0xFC0C546A EQ PUSH2 0x34B JUMPI DUP1 PUSH4 0xFE9FBB80 EQ PUSH2 0x369 JUMPI PUSH2 0x11F JUMP JUMPDEST DUP1 PUSH4 0x91DB7B0D EQ PUSH2 0x23D JUMPI DUP1 PUSH4 0x9EDA5810 EQ PUSH2 0x259 JUMPI DUP1 PUSH4 0xCB3CC126 EQ PUSH2 0x289 JUMPI DUP1 PUSH4 0xD1BC76A1 EQ PUSH2 0x2A7 JUMPI DUP1 PUSH4 0xDF4D971D EQ PUSH2 0x2D7 JUMPI PUSH2 0x11F JUMP JUMPDEST DUP1 PUSH4 0x51CFF8D9 GT PUSH2 0xF2 JUMPI DUP1 PUSH4 0x51CFF8D9 EQ PUSH2 0x1BF JUMPI DUP1 PUSH4 0x69A63036 EQ PUSH2 0x1DB JUMPI DUP1 PUSH4 0x6F4A2CD0 EQ PUSH2 0x1F7 JUMPI DUP1 PUSH4 0x82DC7C9D EQ PUSH2 0x201 JUMPI DUP1 PUSH4 0x8DA5CB5B EQ PUSH2 0x21F JUMPI PUSH2 0x11F JUMP JUMPDEST DUP1 PUSH4 0x12E0867 EQ PUSH2 0x123 JUMPI DUP1 PUSH4 0x483A7F6 EQ PUSH2 0x141 JUMPI DUP1 PUSH4 0x31008AAE EQ PUSH2 0x171 JUMPI DUP1 PUSH4 0x3638104A EQ PUSH2 0x18F JUMPI JUMPDEST PUSH0 PUSH0 REVERT JUMPDEST PUSH2 0x12B PUSH2 0x399 JUMP JUMPDEST PUSH1 0x40 MLOAD PUSH2 0x138 SWAP2 SWAP1 PUSH2 0x10AB JUMP JUMPDEST PUSH1 0x40 MLOAD DUP1 SWAP2 SUB SWAP1 RETURN JUMPDEST PUSH2 0x15B PUSH1 0x4 DUP1 CALLDATASIZE SUB DUP2 ADD SWAP1 PUSH2 0x156 SWAP2 SWAP1 PUSH2 0x1122 JUMP JUMPDEST PUSH2 0x39E JUMP JUMPDEST PUSH1 0x40 MLOAD PUSH2 0x168 SWAP2 SWAP1 PUSH2 0x10AB JUMP JUMPDEST PUSH1 0x40 MLOAD DUP1 SWAP2 SUB SWAP1 RETURN JUMPDEST PUSH2 0x179 PUSH2 0x3B9 JUMP JUMPDEST PUSH1 0x40 MLOAD PUSH2 0x186 SWAP2 SWAP1 PUSH2 0x10AB JUMP JUMPDEST PUSH1 0x40 MLOAD DUP1 SWAP2 SUB SWAP1 RETURN JUMPDEST PUSH2 0x1A9 PUSH1 0x4 DUP1 CALLDATASIZE SUB DUP2 ADD SWAP1 PUSH2 0x1A4 SWAP2 SWAP1 PUSH2 0x1122 JUMP JUMPDEST PUSH2 0x3BF JUMP JUMPDEST PUSH1 0x40 MLOAD PUSH2 0x1B6 SWAP2 SWAP1 PUSH2 0x1167 JUMP JUMPDEST PUSH1 0x40 MLOAD DUP1 SWAP2 SUB SWAP1 RETURN JUMPDEST PUSH2 0x1D9 PUSH1 0x4 DUP1 CALLDATASIZE SUB DUP2 ADD SWAP1 PUSH2 0x1D4 SWAP2 SWAP1 PUSH2 0x1122 JUMP JUMPDEST PUSH2 0x3DC JUMP JUMPDEST STOP JUMPDEST PUSH2 0x1F5 PUSH1 0x4 DUP1 CALLDATASIZE SUB DUP2 ADD SWAP1 PUSH2 0x1F0 SWAP2 SWAP1 PUSH2 0x1122 JUMP JUMPDEST PUSH2 0x617 JUMP JUMPDEST STOP JUMPDEST PUSH2 0x1FF PUSH2 0x868 JUMP JUMPDEST STOP JUMPDEST PUSH2 0x209 PUSH2 0xA5C JUMP JUMPDEST PUSH1 0x40 MLOAD PUSH2 0x216 SWAP2 SWAP1 PUSH2 0x10AB JUMP JUMPDEST PUSH1 0x40 MLOAD DUP1 SWAP2 SUB SWAP1 RETURN JUMPDEST PUSH2 0x227 PUSH2 0xA63 JUMP JUMPDEST PUSH1 0x40 MLOAD PUSH2 0x234 SWAP2 SWAP1 PUSH2 0x118F JUMP JUMPDEST PUSH1 0x40 MLOAD DUP1 SWAP2 SUB SWAP1 RETURN JUMPDEST PUSH2 0x257 PUSH1 0x4 DUP1 CALLDATASIZE SUB DUP2 ADD SWAP1 PUSH2 0x252 SWAP2 SWAP1 PUSH2 0x11D2 JUMP JUMPDEST PUSH2 0xA88 JUMP JUMPDEST STOP JUMPDEST PUSH2 0x273 PUSH1 0x4 DUP1 CALLDATASIZE SUB DUP2 ADD SWAP1 PUSH2 0x26E SWAP2 SWAP1 PUSH2 0x1122 JUMP JUMPDEST PUSH2 0xB5C JUMP JUMPDEST PUSH1 0x40 MLOAD PUSH2 0x280 SWAP2 SWAP1 PUSH2 0x118F JUMP JUMPDEST PUSH1 0x40 MLOAD DUP1 SWAP2 SUB SWAP1 RETURN JUMPDEST PUSH2 0x291 PUSH2 0xB8C JUMP JUMPDEST PUSH1 0x40 MLOAD PUSH2 0x29E SWAP2 SWAP1 PUSH2 0x10AB JUMP JUMPDEST PUSH1 0x40 MLOAD DUP1 SWAP2 SUB SWAP1 RETURN JUMPDEST PUSH2 0x2C1 PUSH1 0x4 DUP1 CALLDATASIZE SUB DUP2 ADD SWAP1 PUSH2 0x2BC SWAP2 SWAP1 PUSH2 0x11D2 JUMP JUMPDEST PUSH2 0xB92 JUMP JUMPDEST PUSH1 0x40 MLOAD PUSH2 0x2CE SWAP2 SWAP1 PUSH2 0x118F JUMP JUMPDEST PUSH1 0x40 MLOAD DUP1 SWAP2 SUB SWAP1 RETURN JUMPDEST PUSH2 0x2F1 PUSH1 0x4 DUP1 CALLDATASIZE SUB DUP2 ADD SWAP1 PUSH2 0x2EC SWAP2 SWAP1 PUSH2 0x1122 JUMP JUMPDEST PUSH2 0xBCD JUMP JUMPDEST STOP JUMPDEST PUSH2 0x30D PUSH1 0x4 DUP1 CALLDATASIZE SUB DUP2 ADD SWAP1 PUSH2 0x308 SWAP2 SWAP1 PUSH2 0x1122 JUMP JUMPDEST PUSH2 0xE40 JUMP JUMPDEST STOP JUMPDEST PUSH2 0x317 PUSH2 0x1011 JUMP JUMPDEST PUSH1 0x40 MLOAD PUSH2 0x324 SWAP2 SWAP1 PUSH2 0x10AB JUMP JUMPDEST PUSH1 0x40 MLOAD DUP1 SWAP2 SUB SWAP1 RETURN JUMPDEST PUSH2 0x335 PUSH2 0x1017 JUMP JUMPDEST PUSH1 0x40 MLOAD PUSH2 0x342 SWAP2 SWAP1 PUSH2 0x10AB JUMP JUMPDEST PUSH1 0x40 MLOAD DUP1 SWAP2 SUB SWAP1 RETURN JUMPDEST PUSH2 0x353 PUSH2 0x101D JUMP JUMPDEST PUSH1 0x40 MLOAD PUSH2 0x360 SWAP2 SWAP1 PUSH2 0x1258 JUMP JUMPDEST PUSH1 0x40 MLOAD DUP1 SWAP2 SUB SWAP1 RETURN JUMPDEST PUSH2 0x383 PUSH1 0x4 DUP1 CALLDATASIZE SUB DUP2 ADD SWAP1 PUSH2 0x37E SWAP2 SWAP1 PUSH2 0x1122 JUMP JUMPDEST PUSH2 0x1041 JUMP JUMPDEST PUSH1 0x40 MLOAD PUSH2 0x390 SWAP2 SWAP1 PUSH2 0x1167 JUMP JUMPDEST PUSH1 0x40 MLOAD DUP1 SWAP2 SUB SWAP1 RETURN JUMPDEST PUSH1 0x1E DUP2 JUMP JUMPDEST PUSH1 0x6 PUSH1 0x20 MSTORE DUP1 PUSH0 MSTORE PUSH1 0x40 PUSH0 KECCAK256 PUSH0 SWAP2 POP SWAP1 POP DUP1 PUSH1 0x1 ADD SLOAD SWAP1 POP DUP2 JUMP JUMPDEST PUSH2 0x1C20 DUP2 JUMP JUMPDEST PUSH1 0x7 PUSH1 0x20 MSTORE DUP1 PUSH0 MSTORE PUSH1 0x40 PUSH0 KECCAK256 PUSH0 SWAP2 POP SLOAD SWAP1 PUSH2 0x100 EXP SWAP1 DIV PUSH1 0xFF AND DUP2 JUMP JUMPDEST CALLER PUSH20 0xFFFFFFFFFFFFFFFFFFFFFFFFFFFFFFFFFFFFFFFF AND PUSH1 0x5 PUSH0 DUP4 PUSH20 0xFFFFFFFFFFFFFFFFFFFFFFFFFFFFFFFFFFFFFFFF AND PUSH20 0xFFFFFFFFFFFFFFFFFFFFFFFFFFFFFFFFFFFFFFFF AND DUP2 MSTORE PUSH1 0x20 ADD SWAP1 DUP2 MSTORE PUSH1 0x20 ADD PUSH0 KECCAK256 PUSH0 SWAP1 SLOAD SWAP1 PUSH2 0x100 EXP SWAP1 DIV PUSH20 0xFFFFFFFFFFFFFFFFFFFFFFFFFFFFFFFFFFFFFFFF AND PUSH20 0xFFFFFFFFFFFFFFFFFFFFFFFFFFFFFFFFFFFFFFFF AND EQ PUSH2 0x4A6 JUMPI PUSH1 0x40 MLOAD PUSH32 0x8C379A000000000000000000000000000000000000000000000000000000000 DUP2 MSTORE PUSH1 0x4 ADD PUSH2 0x49D SWAP1 PUSH2 0x12CB JUMP JUMPDEST PUSH1 0x40 MLOAD DUP1 SWAP2 SUB SWAP1 REVERT JUMPDEST PUSH0 PUSH1 0x6 PUSH0 DUP4 PUSH20 0xFFFFFFFFFFFFFFFFFFFFFFFFFFFFFFFFFFFFFFFF AND PUSH20 0xFFFFFFFFFFFFFFFFFFFFFFFFFFFFFFFFFFFFFFFF AND DUP2 MSTORE PUSH1 0x20 ADD SWAP1 DUP2 MSTORE PUSH1 0x20 ADD PUSH0 KECCAK256 SWAP1 POP PUSH0 DUP2 PUSH1 0x1 ADD SLOAD GT PUSH2 0x52C JUMPI PUSH1 0x40 MLOAD PUSH32 0x8C379A000000000000000000000000000000000000000000000000000000000 DUP2 MSTORE PUSH1 0x4 ADD PUSH2 0x523 SWAP1 PUSH2 0x1333 JUMP JUMPDEST PUSH1 0x40 MLOAD DUP1 SWAP2 SUB SWAP1 REVERT JUMPDEST PUSH0 PUSH0 SWAP1 SLOAD SWAP1 PUSH2 0x100 EXP SWAP1 DIV PUSH20 0xFFFFFFFFFFFFFFFFFFFFFFFFFFFFFFFFFFFFFFFF AND PUSH20 0xFFFFFFFFFFFFFFFFFFFFFFFFFFFFFFFFFFFFFFFF AND PUSH4 0xA9059CBB CALLER DUP4 PUSH1 0x1 ADD SLOAD PUSH1 0x40 MLOAD DUP4 PUSH4 0xFFFFFFFF AND PUSH1 0xE0 SHL DUP2 MSTORE PUSH1 0x4 ADD PUSH2 0x58B SWAP3 SWAP2 SWAP1 PUSH2 0x1351 JUMP JUMPDEST PUSH1 0x20 PUSH1 0x40 MLOAD DUP1 DUP4 SUB DUP2 PUSH0 DUP8 GAS CALL ISZERO DUP1 ISZERO PUSH2 0x5A7 JUMPI RETURNDATASIZE PUSH0 PUSH0 RETURNDATACOPY RETURNDATASIZE PUSH0 REVERT JUMPDEST POP POP POP POP PUSH1 0x40 MLOAD RETURNDATASIZE PUSH1 0x1F NOT PUSH1 0x1F DUP3 ADD AND DUP3 ADD DUP1 PUSH1 0x40 MSTORE POP DUP2 ADD SWAP1 PUSH2 0x5CB SWAP2 SWAP1 PUSH2 0x13A2 JUMP JUMPDEST PUSH2 0x60A JUMPI PUSH1 0x40 MLOAD PUSH32 0x8C379A000000000000000000000000000000000000000000000000000000000 DUP2 MSTORE PUSH1 0x4 ADD PUSH2 0x601 SWAP1 PUSH2 0x1417 JUMP JUMPDEST PUSH1 0x40 MLOAD DUP1 SWAP2 SUB SWAP1 REVERT JUMPDEST PUSH0 DUP2 PUSH1 0x1 ADD DUP2 SWAP1 SSTORE POP POP POP JUMP JUMPDEST CALLER PUSH20 0xFFFFFFFFFFFFFFFFFFFFFFFFFFFFFFFFFFFFFFFF AND PUSH1 0x5 PUSH0 DUP4 PUSH20 0xFFFFFFFFFFFFFFFFFFFFFFFFFFFFFFFFFFFFFFFF AND PUSH20 0xFFFFFFFFFFFFFFFFFFFFFFFFFFFFFFFFFFFFFFFF AND DUP2 MSTORE PUSH1 0x20 ADD SWAP1 DUP2 MSTORE PUSH1 0x20 ADD PUSH0 KECCAK256 PUSH0 SWAP1 SLOAD SWAP1 PUSH2 0x100 EXP SWAP1 DIV PUSH20 0xFFFFFFFFFFFFFFFFFFFFFFFFFFFFFFFFFFFFFFFF AND PUSH20 0xFFFFFFFFFFFFFFFFFFFFFFFFFFFFFFFFFFFFFFFF AND EQ PUSH2 0x6E1 JUMPI PUSH1 0x40 MLOAD PUSH32 0x8C379A000000000000000000000000000000000000000000000000000000000 DUP2 MSTORE PUSH1 0x4 ADD PUSH2 0x6D8 SWAP1 PUSH2 0x12CB JUMP JUMPDEST PUSH1 0x40 MLOAD DUP1 SWAP2 SUB SWAP1 REVERT JUMPDEST PUSH0 PUSH1 0x6 PUSH0 DUP4 PUSH20 0xFFFFFFFFFFFFFFFFFFFFFFFFFFFFFFFFFFFFFFFF AND PUSH20 0xFFFFFFFFFFFFFFFFFFFFFFFFFFFFFFFFFFFFFFFF AND DUP2 MSTORE PUSH1 0x20 ADD SWAP1 DUP2 MSTORE PUSH1 0x20 ADD PUSH0 KECCAK256 SWAP1 POP PUSH0 DUP2 PUSH0 ADD DUP1 SLOAD SWAP1 POP GT PUSH2 0x769 JUMPI PUSH1 0x40 MLOAD PUSH32 0x8C379A000000000000000000000000000000000000000000000000000000000 DUP2 MSTORE PUSH1 0x4 ADD PUSH2 0x760 SWAP1 PUSH2 0x147F JUMP JUMPDEST PUSH1 0x40 MLOAD DUP1 SWAP2 SUB SWAP1 REVERT JUMPDEST PUSH0 PUSH0 SWAP1 POP JUMPDEST DUP2 PUSH0 ADD DUP1 SLOAD SWAP1 POP DUP2 LT ISZERO PUSH2 0x863 JUMPI DUP2 PUSH0 ADD DUP2 DUP2 SLOAD DUP2 LT PUSH2 0x791 JUMPI PUSH2 0x790 PUSH2 0x149D JUMP JUMPDEST JUMPDEST SWAP1 PUSH0 MSTORE PUSH1 0x20 PUSH0 KECCAK256 SWAP1 PUSH1 0x3 MUL ADD PUSH1 0x2 ADD PUSH0 SWAP1 SLOAD SWAP1 PUSH2 0x100 EXP SWAP1 DIV PUSH1 0xFF AND PUSH2 0x856 JUMPI PUSH0 DUP3 PUSH0 ADD DUP3 DUP2 SLOAD DUP2 LT PUSH2 0x7C7 JUMPI PUSH2 0x7C6 PUSH2 0x149D JUMP JUMPDEST JUMPDEST SWAP1 PUSH0 MSTORE PUSH1 0x20 PUSH0 KECCAK256 SWAP1 PUSH1 0x3 MUL ADD PUSH1 0x1 ADD SLOAD NUMBER PUSH2 0x7E2 SWAP2 SWAP1 PUSH2 0x14F7 JUMP JUMPDEST SWAP1 POP PUSH3 0x107AC0 DUP2 LT PUSH2 0x854 JUMPI DUP3 PUSH0 ADD DUP3 DUP2 SLOAD DUP2 LT PUSH2 0x803 JUMPI PUSH2 0x802 PUSH2 0x149D JUMP JUMPDEST JUMPDEST SWAP1 PUSH0 MSTORE PUSH1 0x20 PUSH0 KECCAK256 SWAP1 PUSH1 0x3 MUL ADD PUSH0 ADD SLOAD DUP4 PUSH1 0x1 ADD PUSH0 DUP3 DUP3 SLOAD PUSH2 0x824 SWAP2 SWAP1 PUSH2 0x152A JUMP JUMPDEST SWAP3 POP POP DUP2 SWAP1 SSTORE POP PUSH0 DUP4 PUSH0 ADD DUP4 DUP2 SLOAD DUP2 LT PUSH2 0x841 JUMPI PUSH2 0x840 PUSH2 0x149D JUMP JUMPDEST JUMPDEST SWAP1 PUSH0 MSTORE PUSH1 0x20 PUSH0 KECCAK256 SWAP1 PUSH1 0x3 MUL ADD PUSH0 ADD DUP2 SWAP1 SSTORE POP JUMPDEST POP JUMPDEST DUP1 DUP1 PUSH1 0x1 ADD SWAP2 POP POP PUSH2 0x76E JUMP JUMPDEST POP POP POP JUMP JUMPDEST PUSH2 0x1C20 PUSH1 0x4 SLOAD PUSH2 0x878 SWAP2 SWAP1 PUSH2 0x152A JUMP JUMPDEST NUMBER LT ISZERO PUSH2 0x8BA JUMPI PUSH1 0x40 MLOAD PUSH32 0x8C379A000000000000000000000000000000000000000000000000000000000 DUP2 MSTORE PUSH1 0x4 ADD PUSH2 0x8B1 SWAP1 PUSH2 0x15A7 JUMP JUMPDEST PUSH1 0x40 MLOAD DUP1 SWAP2 SUB SWAP1 REVERT JUMPDEST NUMBER PUSH1 0x4 DUP2 SWAP1 SSTORE POP PUSH0 PUSH0 SWAP1 POP JUMPDEST PUSH1 0x8 DUP1 SLOAD SWAP1 POP DUP2 LT ISZERO PUSH2 0xA59 JUMPI PUSH0 PUSH1 0x8 DUP3 DUP2 SLOAD DUP2 LT PUSH2 0x8E8 JUMPI PUSH2 0x8E7 PUSH2 0x149D JUMP JUMPDEST JUMPDEST SWAP1 PUSH0 MSTORE PUSH1 0x20 PUSH0 KECCAK256 ADD PUSH0 SWAP1 SLOAD SWAP1 PUSH2 0x100 EXP SWAP1 DIV PUSH20 0xFFFFFFFFFFFFFFFFFFFFFFFFFFFFFFFFFFFFFFFF AND SWAP1 POP PUSH0 PUSH1 0x64 PUSH1 0x1E PUSH1 0x2 SLOAD PUSH2 0x924 SWAP2 SWAP1 PUSH2 0x15C5 JUMP JUMPDEST PUSH2 0x92E SWAP2 SWAP1 PUSH2 0x1633 JUMP JUMPDEST SWAP1 POP DUP1 PUSH1 0x6 PUSH0 DUP5 PUSH20 0xFFFFFFFFFFFFFFFFFFFFFFFFFFFFFFFFFFFFFFFF AND PUSH20 0xFFFFFFFFFFFFFFFFFFFFFFFFFFFFFFFFFFFFFFFF AND DUP2 MSTORE PUSH1 0x20 ADD SWAP1 DUP2 MSTORE PUSH1 0x20 ADD PUSH0 KECCAK256 PUSH1 0x1 ADD PUSH0 DUP3 DUP3 SLOAD PUSH2 0x97F SWAP2 SWAP1 PUSH2 0x152A JUMP JUMPDEST SWAP3 POP POP DUP2 SWAP1 SSTORE POP PUSH1 0x6 PUSH0 DUP4 PUSH20 0xFFFFFFFFFFFFFFFFFFFFFFFFFFFFFFFFFFFFFFFF AND PUSH20 0xFFFFFFFFFFFFFFFFFFFFFFFFFFFFFFFFFFFFFFFF AND DUP2 MSTORE PUSH1 0x20 ADD SWAP1 DUP2 MSTORE PUSH1 0x20 ADD PUSH0 KECCAK256 PUSH0 ADD PUSH1 0x40 MLOAD DUP1 PUSH1 0x60 ADD PUSH1 0x40 MSTORE DUP1 DUP4 PUSH1 0x2 SLOAD PUSH2 0x9DE SWAP2 SWAP1 PUSH2 0x14F7 JUMP JUMPDEST DUP2 MSTORE PUSH1 0x20 ADD PUSH1 0x4 SLOAD DUP2 MSTORE PUSH1 0x20 ADD PUSH0 ISZERO ISZERO DUP2 MSTORE POP SWAP1 DUP1 PUSH1 0x1 DUP2 SLOAD ADD DUP1 DUP3 SSTORE DUP1 SWAP2 POP POP PUSH1 0x1 SWAP1 SUB SWAP1 PUSH0 MSTORE PUSH1 0x20 PUSH0 KECCAK256 SWAP1 PUSH1 0x3 MUL ADD PUSH0 SWAP1 SWAP2 SWAP1 SWAP2 SWAP1 SWAP2 POP PUSH0 DUP3 ADD MLOAD DUP2 PUSH0 ADD SSTORE PUSH1 0x20 DUP3 ADD MLOAD DUP2 PUSH1 0x1 ADD SSTORE PUSH1 0x40 DUP3 ADD MLOAD DUP2 PUSH1 0x2 ADD PUSH0 PUSH2 0x100 EXP DUP2 SLOAD DUP2 PUSH1 0xFF MUL NOT AND SWAP1 DUP4 ISZERO ISZERO MUL OR SWAP1 SSTORE POP POP POP POP POP DUP1 DUP1 PUSH1 0x1 ADD SWAP2 POP POP PUSH2 0x8C6 JUMP JUMPDEST POP JUMP JUMPDEST PUSH3 0x107AC0 DUP2 JUMP JUMPDEST PUSH1 0x1 PUSH0 SWAP1 SLOAD SWAP1 PUSH2 0x100 EXP SWAP1 DIV PUSH20 0xFFFFFFFFFFFFFFFFFFFFFFFFFFFFFFFFFFFFFFFF AND DUP2 JUMP JUMPDEST PUSH1 0x1 PUSH0 SWAP1 SLOAD SWAP1 PUSH2 0x100 EXP SWAP1 DIV PUSH20 0xFFFFFFFFFFFFFFFFFFFFFFFFFFFFFFFFFFFFFFFF AND PUSH20 0xFFFFFFFFFFFFFFFFFFFFFFFFFFFFFFFFFFFFFFFF AND CALLER PUSH20 0xFFFFFFFFFFFFFFFFFFFFFFFFFFFFFFFFFFFFFFFF AND EQ PUSH2 0xB17 JUMPI PUSH1 0x40 MLOAD PUSH32 0x8C379A000000000000000000000000000000000000000000000000000000000 DUP2 MSTORE PUSH1 0x4 ADD PUSH2 0xB0E SWAP1 PUSH2 0x16AD JUMP JUMPDEST PUSH1 0x40 MLOAD DUP1 SWAP2 SUB SWAP1 REVERT JUMPDEST PUSH0 DUP2 GT PUSH2 0xB59 JUMPI PUSH1 0x40 MLOAD PUSH32 0x8C379A000000000000000000000000000000000000000000000000000000000 DUP2 MSTORE PUSH1 0x4 ADD PUSH2 0xB50 SWAP1 PUSH2 0x1715 JUMP JUMPDEST PUSH1 0x40 MLOAD DUP1 SWAP2 SUB SWAP1 REVERT JUMPDEST POP JUMP JUMPDEST PUSH1 0x5 PUSH1 0x20 MSTORE DUP1 PUSH0 MSTORE PUSH1 0x40 PUSH0 KECCAK256 PUSH0 SWAP2 POP SLOAD SWAP1 PUSH2 0x100 EXP SWAP1 DIV PUSH20 0xFFFFFFFFFFFFFFFFFFFFFFFFFFFFFFFFFFFFFFFF AND DUP2 JUMP JUMPDEST PUSH1 0x2 SLOAD DUP2 JUMP JUMPDEST PUSH1 0x8 DUP2 DUP2 SLOAD DUP2 LT PUSH2 0xBA1 JUMPI PUSH0 DUP1 REVERT JUMPDEST SWAP1 PUSH0 MSTORE PUSH1 0x20 PUSH0 KECCAK256 ADD PUSH0 SWAP2 POP SLOAD SWAP1 PUSH2 0x100 EXP SWAP1 DIV PUSH20 0xFFFFFFFFFFFFFFFFFFFFFFFFFFFFFFFFFFFFFFFF AND DUP2 JUMP JUMPDEST CALLER PUSH20 0xFFFFFFFFFFFFFFFFFFFFFFFFFFFFFFFFFFFFFFFF AND PUSH1 0x5 PUSH0 DUP4 PUSH20 0xFFFFFFFFFFFFFFFFFFFFFFFFFFFFFFFFFFFFFFFF AND PUSH20 0xFFFFFFFFFFFFFFFFFFFFFFFFFFFFFFFFFFFFFFFF AND DUP2 MSTORE PUSH1 0x20 ADD SWAP1 DUP2 MSTORE PUSH1 0x20 ADD PUSH0 KECCAK256 PUSH0 SWAP1 SLOAD SWAP1 PUSH2 0x100 EXP SWAP1 DIV PUSH20 0xFFFFFFFFFFFFFFFFFFFFFFFFFFFFFFFFFFFFFFFF AND PUSH20 0xFFFFFFFFFFFFFFFFFFFFFFFFFFFFFFFFFFFFFFFF AND EQ PUSH2 0xC97 JUMPI PUSH1 0x40 MLOAD PUSH32 0x8C379A000000000000000000000000000000000000000000000000000000000 DUP2 MSTORE PUSH1 0x4 ADD PUSH2 0xC8E SWAP1 PUSH2 0x12CB JUMP JUMPDEST PUSH1 0x40 MLOAD DUP1 SWAP2 SUB SWAP1 REVERT JUMPDEST PUSH0 PUSH1 0x6 PUSH0 DUP4 PUSH20 0xFFFFFFFFFFFFFFFFFFFFFFFFFFFFFFFFFFFFFFFF AND PUSH20 0xFFFFFFFFFFFFFFFFFFFFFFFFFFFFFFFFFFFFFFFF AND DUP2 MSTORE PUSH1 0x20 ADD SWAP1 DUP2 MSTORE PUSH1 0x20 ADD PUSH0 KECCAK256 SWAP1 POP PUSH0 PUSH0 SWAP1 POP PUSH0 PUSH0 SWAP1 POP JUMPDEST DUP3 PUSH0 ADD DUP1 SLOAD SWAP1 POP DUP2 LT ISZERO PUSH2 0xDDE JUMPI DUP3 PUSH0 ADD DUP2 DUP2 SLOAD DUP2 LT PUSH2 0xD03 JUMPI PUSH2 0xD02 PUSH2 0x149D JUMP JUMPDEST JUMPDEST SWAP1 PUSH0 MSTORE PUSH1 0x20 PUSH0 KECCAK256 SWAP1 PUSH1 0x3 MUL ADD PUSH1 0x2 ADD PUSH0 SWAP1 SLOAD SWAP1 PUSH2 0x100 EXP SWAP1 DIV PUSH1 0xFF AND PUSH2 0xDD1 JUMPI PUSH1 0x64 PUSH1 0x1E DUP5 PUSH0 ADD DUP4 DUP2 SLOAD DUP2 LT PUSH2 0xD3C JUMPI PUSH2 0xD3B PUSH2 0x149D JUMP JUMPDEST JUMPDEST SWAP1 PUSH0 MSTORE PUSH1 0x20 PUSH0 KECCAK256 SWAP1 PUSH1 0x3 MUL ADD PUSH0 ADD SLOAD PUSH2 0xD55 SWAP2 SWAP1 PUSH2 0x15C5 JUMP JUMPDEST PUSH2 0xD5F SWAP2 SWAP1 PUSH2 0x1633 JUMP JUMPDEST DUP3 PUSH2 0xD6A SWAP2 SWAP1 PUSH2 0x152A JUMP JUMPDEST SWAP2 POP PUSH1 0x1 DUP4 PUSH0 ADD DUP3 DUP2 SLOAD DUP2 LT PUSH2 0xD83 JUMPI PUSH2 0xD82 PUSH2 0x149D JUMP JUMPDEST JUMPDEST SWAP1 PUSH0 MSTORE PUSH1 0x20 PUSH0 KECCAK256 SWAP1 PUSH1 0x3 MUL ADD PUSH1 0x2 ADD PUSH0 PUSH2 0x100 EXP DUP2 SLOAD DUP2 PUSH1 0xFF MUL NOT AND SWAP1 DUP4 ISZERO ISZERO MUL OR SWAP1 SSTORE POP PUSH0 DUP4 PUSH0 ADD DUP3 DUP2 SLOAD DUP2 LT PUSH2 0xDBE JUMPI PUSH2 0xDBD PUSH2 0x149D JUMP JUMPDEST JUMPDEST SWAP1 PUSH0 MSTORE PUSH1 0x20 PUSH0 KECCAK256 SWAP1 PUSH1 0x3 MUL ADD PUSH0 ADD DUP2 SWAP1 SSTORE POP JUMPDEST DUP1 DUP1 PUSH1 0x1 ADD SWAP2 POP POP PUSH2 0xCE0 JUMP JUMPDEST POP PUSH0 DUP2 GT PUSH2 0xE21 JUMPI PUSH1 0x40 MLOAD PUSH32 0x8C379A000000000000000000000000000000000000000000000000000000000 DUP2 MSTORE PUSH1 0x4 ADD PUSH2 0xE18 SWAP1 PUSH2 0x147F JUMP JUMPDEST PUSH1 0x40 MLOAD DUP1 SWAP2 SUB SWAP1 REVERT JUMPDEST DUP1 DUP3 PUSH1 0x1 ADD PUSH0 DUP3 DUP3 SLOAD PUSH2 0xE34 SWAP2 SWAP1 PUSH2 0x152A JUMP JUMPDEST SWAP3 POP POP DUP2 SWAP1 SSTORE POP POP POP POP JUMP JUMPDEST PUSH1 0x1 PUSH0 SWAP1 SLOAD SWAP1 PUSH2 0x100 EXP SWAP1 DIV PUSH20 0xFFFFFFFFFFFFFFFFFFFFFFFFFFFFFFFFFFFFFFFF AND PUSH20 0xFFFFFFFFFFFFFFFFFFFFFFFFFFFFFFFFFFFFFFFF AND CALLER PUSH20 0xFFFFFFFFFFFFFFFFFFFFFFFFFFFFFFFFFFFFFFFF AND EQ PUSH2 0xECF JUMPI PUSH1 0x40 MLOAD PUSH32 0x8C379A000000000000000000000000000000000000000000000000000000000 DUP2 MSTORE PUSH1 0x4 ADD PUSH2 0xEC6 SWAP1 PUSH2 0x16AD JUMP JUMPDEST PUSH1 0x40 MLOAD DUP1 SWAP2 SUB SWAP1 REVERT JUMPDEST PUSH1 0x7 PUSH0 DUP3 PUSH20 0xFFFFFFFFFFFFFFFFFFFFFFFFFFFFFFFFFFFFFFFF AND PUSH20 0xFFFFFFFFFFFFFFFFFFFFFFFFFFFFFFFFFFFFFFFF AND DUP2 MSTORE PUSH1 0x20 ADD SWAP1 DUP2 MSTORE PUSH1 0x20 ADD PUSH0 KECCAK256 PUSH0 SWAP1 SLOAD SWAP1 PUSH2 0x100 EXP SWAP1 DIV PUSH1 0xFF AND ISZERO PUSH2 0xF59 JUMPI PUSH1 0x40 MLOAD PUSH32 0x8C379A000000000000000000000000000000000000000000000000000000000 DUP2 MSTORE PUSH1 0x4 ADD PUSH2 0xF50 SWAP1 PUSH2 0x177D JUMP JUMPDEST PUSH1 0x40 MLOAD DUP1 SWAP2 SUB SWAP1 REVERT JUMPDEST PUSH1 0x1 PUSH1 0x7 PUSH0 DUP4 PUSH20 0xFFFFFFFFFFFFFFFFFFFFFFFFFFFFFFFFFFFFFFFF AND PUSH20 0xFFFFFFFFFFFFFFFFFFFFFFFFFFFFFFFFFFFFFFFF AND DUP2 MSTORE PUSH1 0x20 ADD SWAP1 DUP2 MSTORE PUSH1 0x20 ADD PUSH0 KECCAK256 PUSH0 PUSH2 0x100 EXP DUP2 SLOAD DUP2 PUSH1 0xFF MUL NOT AND SWAP1 DUP4 ISZERO ISZERO MUL OR SWAP1 SSTORE POP PUSH1 0x8 DUP2 SWAP1 DUP1 PUSH1 0x1 DUP2 SLOAD ADD DUP1 DUP3 SSTORE DUP1 SWAP2 POP POP PUSH1 0x1 SWAP1 SUB SWAP1 PUSH0 MSTORE PUSH1 0x20 PUSH0 KECCAK256 ADD PUSH0 SWAP1 SWAP2 SWAP1 SWAP2 SWAP1 SWAP2 PUSH2 0x100 EXP DUP2 SLOAD DUP2 PUSH20 0xFFFFFFFFFFFFFFFFFFFFFFFFFFFFFFFFFFFFFFFF MUL NOT AND SWAP1 DUP4 PUSH20 0xFFFFFFFFFFFFFFFFFFFFFFFFFFFFFFFFFFFFFFFF AND MUL OR SWAP1 SSTORE POP POP JUMP JUMPDEST PUSH1 0x4 SLOAD DUP2 JUMP JUMPDEST PUSH1 0x3 SLOAD DUP2 JUMP JUMPDEST PUSH0 PUSH0 SWAP1 SLOAD SWAP1 PUSH2 0x100 EXP SWAP1 DIV PUSH20 0xFFFFFFFFFFFFFFFFFFFFFFFFFFFFFFFFFFFFFFFF AND DUP2 JUMP JUMPDEST PUSH0 PUSH1 0x7 PUSH0 DUP4 PUSH20 0xFFFFFFFFFFFFFFFFFFFFFFFFFFFFFFFFFFFFFFFF AND PUSH20 0xFFFFFFFFFFFFFFFFFFFFFFFFFFFFFFFFFFFFFFFF AND DUP2 MSTORE PUSH1 0x20 ADD SWAP1 DUP2 MSTORE PUSH1 0x20 ADD PUSH0 KECCAK256 PUSH0 SWAP1 SLOAD SWAP1 PUSH2 0x100 EXP SWAP1 DIV PUSH1 0xFF AND SWAP1 POP SWAP2 SWAP1 POP JUMP JUMPDEST PUSH0 DUP2 SWAP1 POP SWAP2 SWAP1 POP JUMP JUMPDEST PUSH2 0x10A5 DUP2 PUSH2 0x1093 JUMP JUMPDEST DUP3 MSTORE POP POP JUMP JUMPDEST PUSH0 PUSH1 0x20 DUP3 ADD SWAP1 POP PUSH2 0x10BE PUSH0 DUP4 ADD DUP5 PUSH2 0x109C JUMP JUMPDEST SWAP3 SWAP2 POP POP JUMP JUMPDEST PUSH0 PUSH0 REVERT JUMPDEST PUSH0 PUSH20 0xFFFFFFFFFFFFFFFFFFFFFFFFFFFFFFFFFFFFFFFF DUP3 AND SWAP1 POP SWAP2 SWAP1 POP JUMP JUMPDEST PUSH0 PUSH2 0x10F1 DUP3 PUSH2 0x10C8 JUMP JUMPDEST SWAP1 POP SWAP2 SWAP1 POP JUMP JUMPDEST PUSH2 0x1101 DUP2 PUSH2 0x10E7 JUMP JUMPDEST DUP2 EQ PUSH2 0x110B JUMPI PUSH0 PUSH0 REVERT JUMPDEST POP JUMP JUMPDEST PUSH0 DUP2 CALLDATALOAD SWAP1 POP PUSH2 0x111C DUP2 PUSH2 0x10F8 JUMP JUMPDEST SWAP3 SWAP2 POP POP JUMP JUMPDEST PUSH0 PUSH1 0x20 DUP3 DUP5 SUB SLT ISZERO PUSH2 0x1137 JUMPI PUSH2 0x1136 PUSH2 0x10C4 JUMP JUMPDEST JUMPDEST PUSH0 PUSH2 0x1144 DUP5 DUP3 DUP6 ADD PUSH2 0x110E JUMP JUMPDEST SWAP2 POP POP SWAP3 SWAP2 POP POP JUMP JUMPDEST PUSH0 DUP2 ISZERO ISZERO SWAP1 POP SWAP2 SWAP1 POP JUMP JUMPDEST PUSH2 0x1161 DUP2 PUSH2 0x114D JUMP JUMPDEST DUP3 MSTORE POP POP JUMP JUMPDEST PUSH0 PUSH1 0x20 DUP3 ADD SWAP1 POP PUSH2 0x117A PUSH0 DUP4 ADD DUP5 PUSH2 0x1158 JUMP JUMPDEST SWAP3 SWAP2 POP POP JUMP JUMPDEST PUSH2 0x1189 DUP2 PUSH2 0x10E7 JUMP JUMPDEST DUP3 MSTORE POP POP JUMP JUMPDEST PUSH0 PUSH1 0x20 DUP3 ADD SWAP1 POP PUSH2 0x11A2 PUSH0 DUP4 ADD DUP5 PUSH2 0x1180 JUMP JUMPDEST SWAP3 SWAP2 POP POP JUMP JUMPDEST PUSH2 0x11B1 DUP2 PUSH2 0x1093 JUMP JUMPDEST DUP2 EQ PUSH2 0x11BB JUMPI PUSH0 PUSH0 REVERT JUMPDEST POP JUMP JUMPDEST PUSH0 DUP2 CALLDATALOAD SWAP1 POP PUSH2 0x11CC DUP2 PUSH2 0x11A8 JUMP JUMPDEST SWAP3 SWAP2 POP POP JUMP JUMPDEST PUSH0 PUSH1 0x20 DUP3 DUP5 SUB SLT ISZERO PUSH2 0x11E7 JUMPI PUSH2 0x11E6 PUSH2 0x10C4 JUMP JUMPDEST JUMPDEST PUSH0 PUSH2 0x11F4 DUP5 DUP3 DUP6 ADD PUSH2 0x11BE JUMP JUMPDEST SWAP2 POP POP SWAP3 SWAP2 POP POP JUMP JUMPDEST PUSH0 DUP2 SWAP1 POP SWAP2 SWAP1 POP JUMP JUMPDEST PUSH0 PUSH2 0x1220 PUSH2 0x121B PUSH2 0x1216 DUP5 PUSH2 0x10C8 JUMP JUMPDEST PUSH2 0x11FD JUMP JUMPDEST PUSH2 0x10C8 JUMP JUMPDEST SWAP1 POP SWAP2 SWAP1 POP JUMP JUMPDEST PUSH0 PUSH2 0x1231 DUP3 PUSH2 0x1206 JUMP JUMPDEST SWAP1 POP SWAP2 SWAP1 POP JUMP JUMPDEST PUSH0 PUSH2 0x1242 DUP3 PUSH2 0x1227 JUMP JUMPDEST SWAP1 POP SWAP2 SWAP1 POP JUMP JUMPDEST PUSH2 0x1252 DUP2 PUSH2 0x1238 JUMP JUMPDEST DUP3 MSTORE POP POP JUMP JUMPDEST PUSH0 PUSH1 0x20 DUP3 ADD SWAP1 POP PUSH2 0x126B PUSH0 DUP4 ADD DUP5 PUSH2 0x1249 JUMP JUMPDEST SWAP3 SWAP2 POP POP JUMP JUMPDEST PUSH0 DUP3 DUP3 MSTORE PUSH1 0x20 DUP3 ADD SWAP1 POP SWAP3 SWAP2 POP POP JUMP JUMPDEST PUSH32 0x4E6F2062696E64696E6700000000000000000000000000000000000000000000 PUSH0 DUP3 ADD MSTORE POP JUMP JUMPDEST PUSH0 PUSH2 0x12B5 PUSH1 0xA DUP4 PUSH2 0x1271 JUMP JUMPDEST SWAP2 POP PUSH2 0x12C0 DUP3 PUSH2 0x1281 JUMP JUMPDEST PUSH1 0x20 DUP3 ADD SWAP1 POP SWAP2 SWAP1 POP JUMP JUMPDEST PUSH0 PUSH1 0x20 DUP3 ADD SWAP1 POP DUP2 DUP2 SUB PUSH0 DUP4 ADD MSTORE PUSH2 0x12E2 DUP2 PUSH2 0x12A9 JUMP JUMPDEST SWAP1 POP SWAP2 SWAP1 POP JUMP JUMPDEST PUSH32 0x4E6F20756E6C6F636B656420746F6B656E732079657400000000000000000000 PUSH0 DUP3 ADD MSTORE POP JUMP JUMPDEST PUSH0 PUSH2 0x131D PUSH1 0x16 DUP4 PUSH2 0x1271 JUMP JUMPDEST SWAP2 POP PUSH2 0x1328 DUP3 PUSH2 0x12E9 JUMP JUMPDEST PUSH1 0x20 DUP3 ADD SWAP1 POP SWAP2 SWAP1 POP JUMP JUMPDEST PUSH0 PUSH1 0x20 DUP3 ADD SWAP1 POP DUP2 DUP2 SUB PUSH0 DUP4 ADD MSTORE PUSH2 0x134A DUP2 PUSH2 0x1311 JUMP JUMPDEST SWAP1 POP SWAP2 SWAP1 POP JUMP JUMPDEST PUSH0 PUSH1 0x40 DUP3 ADD SWAP1 POP PUSH2 0x1364 PUSH0 DUP4 ADD DUP6 PUSH2 0x1180 JUMP JUMPDEST PUSH2 0x1371 PUSH1 0x20 DUP4 ADD DUP5 PUSH2 0x109C JUMP JUMPDEST SWAP4 SWAP3 POP POP POP JUMP JUMPDEST PUSH2 0x1381 DUP2 PUSH2 0x114D JUMP JUMPDEST DUP2 EQ PUSH2 0x138B JUMPI PUSH0 PUSH0 REVERT JUMPDEST POP JUMP JUMPDEST PUSH0 DUP2 MLOAD SWAP1 POP PUSH2 0x139C DUP2 PUSH2 0x1378 JUMP JUMPDEST SWAP3 SWAP2 POP POP JUMP JUMPDEST PUSH0 PUSH1 0x20 DUP3 DUP5 SUB SLT ISZERO PUSH2 0x13B7 JUMPI PUSH2 0x13B6 PUSH2 0x10C4 JUMP JUMPDEST JUMPDEST PUSH0 PUSH2 0x13C4 DUP5 DUP3 DUP6 ADD PUSH2 0x138E JUMP JUMPDEST SWAP2 POP POP SWAP3 SWAP2 POP POP JUMP JUMPDEST PUSH32 0x5472616E73666572206661696C65640000000000000000000000000000000000 PUSH0 DUP3 ADD MSTORE POP JUMP JUMPDEST PUSH0 PUSH2 0x1401 PUSH1 0xF DUP4 PUSH2 0x1271 JUMP JUMPDEST SWAP2 POP PUSH2 0x140C DUP3 PUSH2 0x13CD JUMP JUMPDEST PUSH1 0x20 DUP3 ADD SWAP1 POP SWAP2 SWAP1 POP JUMP JUMPDEST PUSH0 PUSH1 0x20 DUP3 ADD SWAP1 POP DUP2 DUP2 SUB PUSH0 DUP4 ADD MSTORE PUSH2 0x142E DUP2 PUSH2 0x13F5 JUMP JUMPDEST SWAP1 POP SWAP2 SWAP1 POP JUMP JUMPDEST PUSH32 0x4E6F206C6F636B656420746F6B656E7300000000000000000000000000000000 PUSH0 DUP3 ADD MSTORE POP JUMP JUMPDEST PUSH0 PUSH2 0x1469 PUSH1 0x10 DUP4 PUSH2 0x1271 JUMP JUMPDEST SWAP2 POP PUSH2 0x1474 DUP3 PUSH2 0x1435 JUMP JUMPDEST PUSH1 0x20 DUP3 ADD SWAP1 POP SWAP2 SWAP1 POP JUMP JUMPDEST PUSH0 PUSH1 0x20 DUP3 ADD SWAP1 POP DUP2 DUP2 SUB PUSH0 DUP4 ADD MSTORE PUSH2 0x1496 DUP2 PUSH2 0x145D JUMP JUMPDEST SWAP1 POP SWAP2 SWAP1 POP JUMP JUMPDEST PUSH32 0x4E487B7100000000000000000000000000000000000000000000000000000000 PUSH0 MSTORE PUSH1 0x32 PUSH1 0x4 MSTORE PUSH1 0x24 PUSH0 REVERT JUMPDEST PUSH32 0x4E487B7100000000000000000000000000000000000000000000000000000000 PUSH0 MSTORE PUSH1 0x11 PUSH1 0x4 MSTORE PUSH1 0x24 PUSH0 REVERT JUMPDEST PUSH0 PUSH2 0x1501 DUP3 PUSH2 0x1093 JUMP JUMPDEST SWAP2 POP PUSH2 0x150C DUP4 PUSH2 0x1093 JUMP JUMPDEST SWAP3 POP DUP3 DUP3 SUB SWAP1 POP DUP2 DUP2 GT ISZERO PUSH2 0x1524 JUMPI PUSH2 0x1523 PUSH2 0x14CA JUMP JUMPDEST JUMPDEST SWAP3 SWAP2 POP POP JUMP JUMPDEST PUSH0 PUSH2 0x1534 DUP3 PUSH2 0x1093 JUMP JUMPDEST SWAP2 POP PUSH2 0x153F DUP4 PUSH2 0x1093 JUMP JUMPDEST SWAP3 POP DUP3 DUP3 ADD SWAP1 POP DUP1 DUP3 GT ISZERO PUSH2 0x1557 JUMPI PUSH2 0x1556 PUSH2 0x14CA JUMP JUMPDEST JUMPDEST SWAP3 SWAP2 POP POP JUMP JUMPDEST PUSH32 0x446973747269627574696F6E206E6F7420726561647900000000000000000000 PUSH0 DUP3 ADD MSTORE POP JUMP JUMPDEST PUSH0 PUSH2 0x1591 PUSH1 0x16 DUP4 PUSH2 0x1271 JUMP JUMPDEST SWAP2 POP PUSH2 0x159C DUP3 PUSH2 0x155D JUMP JUMPDEST PUSH1 0x20 DUP3 ADD SWAP1 POP SWAP2 SWAP1 POP JUMP JUMPDEST PUSH0 PUSH1 0x20 DUP3 ADD SWAP1 POP DUP2 DUP2 SUB PUSH0 DUP4 ADD MSTORE PUSH2 0x15BE DUP2 PUSH2 0x1585 JUMP JUMPDEST SWAP1 POP SWAP2 SWAP1 POP JUMP JUMPDEST PUSH0 PUSH2 0x15CF DUP3 PUSH2 0x1093 JUMP JUMPDEST SWAP2 POP PUSH2 0x15DA DUP4 PUSH2 0x1093 JUMP JUMPDEST SWAP3 POP DUP3 DUP3 MUL PUSH2 0x15E8 DUP2 PUSH2 0x1093 JUMP JUMPDEST SWAP2 POP DUP3 DUP3 DIV DUP5 EQ DUP4 ISZERO OR PUSH2 0x15FF JUMPI PUSH2 0x15FE PUSH2 0x14CA JUMP JUMPDEST JUMPDEST POP SWAP3 SWAP2 POP POP JUMP JUMPDEST PUSH32 0x4E487B7100000000000000000000000000000000000000000000000000000000 PUSH0 MSTORE PUSH1 0x12 PUSH1 0x4 MSTORE PUSH1 0x24 PUSH0 REVERT JUMPDEST PUSH0 PUSH2 0x163D DUP3 PUSH2 0x1093 JUMP JUMPDEST SWAP2 POP PUSH2 0x1648 DUP4 PUSH2 0x1093 JUMP JUMPDEST SWAP3 POP DUP3 PUSH2 0x1658 JUMPI PUSH2 0x1657 PUSH2 0x1606 JUMP JUMPDEST JUMPDEST DUP3 DUP3 DIV SWAP1 POP SWAP3 SWAP2 POP POP JUMP JUMPDEST PUSH32 0x4F6E6C79206F776E65722063616E2063616C6C00000000000000000000000000 PUSH0 DUP3 ADD MSTORE POP JUMP JUMPDEST PUSH0 PUSH2 0x1697 PUSH1 0x13 DUP4 PUSH2 0x1271 JUMP JUMPDEST SWAP2 POP PUSH2 0x16A2 DUP3 PUSH2 0x1663 JUMP JUMPDEST PUSH1 0x20 DUP3 ADD SWAP1 POP SWAP2 SWAP1 POP JUMP JUMPDEST PUSH0 PUSH1 0x20 DUP3 ADD SWAP1 POP DUP2 DUP2 SUB PUSH0 DUP4 ADD MSTORE PUSH2 0x16C4 DUP2 PUSH2 0x168B JUMP JUMPDEST SWAP1 POP SWAP2 SWAP1 POP JUMP JUMPDEST PUSH32 0x4C6F636B20706572696F64206D75737420626520706F73697469766500000000 PUSH0 DUP3 ADD MSTORE POP JUMP JUMPDEST PUSH0 PUSH2 0x16FF PUSH1 0x1C DUP4 PUSH2 0x1271 JUMP JUMPDEST SWAP2 POP PUSH2 0x170A DUP3 PUSH2 0x16CB JUMP JUMPDEST PUSH1 0x20 DUP3 ADD SWAP1 POP SWAP2 SWAP1 POP JUMP JUMPDEST PUSH0 PUSH1 0x20 DUP3 ADD SWAP1 POP DUP2 DUP2 SUB PUSH0 DUP4 ADD MSTORE PUSH2 0x172C DUP2 PUSH2 0x16F3 JUMP JUMPDEST SWAP1 POP SWAP2 SWAP1 POP JUMP JUMPDEST PUSH32 0x57616C6C657420616C7265616479206164646564000000000000000000000000 PUSH0 DUP3 ADD MSTORE POP JUMP JUMPDEST PUSH0 PUSH2 0x1767 PUSH1 0x14 DUP4 PUSH2 0x1271 JUMP JUMPDEST SWAP2 POP PUSH2 0x1772 DUP3 PUSH2 0x1733 JUMP JUMPDEST PUSH1 0x20 DUP3 ADD SWAP1 POP SWAP2 SWAP1 POP JUMP JUMPDEST PUSH0 PUSH1 0x20 DUP3 ADD SWAP1 POP DUP2 DUP2 SUB PUSH0 DUP4 ADD MSTORE PUSH2 0x1794 DUP2 PUSH2 0x175B JUMP JUMPDEST SWAP1 POP SWAP2 SWAP1 POP JUMP INVALID LOG2 PUSH5 0x6970667358 0x22 SLT KECCAK256 PUSH6 0xD422565F126E PUSH19 0x12E1CB8BE074476E5CB1F63E5DC24BD59C686 0x25 SWAP6 PUSH26 0x656A64736F6C634300081C003300000000000000000000000000 "
				},
				"gasEstimates": {
					"creation": {
						"codeDepositCost": "1219400",
						"executionCost": "infinite",
						"totalCost": "infinite"
					},
					"external": {
						"DISTRIBUTION_BLOCK_INTERVAL()": "393",
						"EARLY_UNLOCK_PERCENT()": "349",
						"LOCK_BLOCKS()": "414",
						"addWallet(address)": "77813",
						"authorizedAddress(address)": "2923",
						"bindingWallets(address)": "infinite",
						"claimUnlockedTokens(address)": "infinite",
						"distributeRewards()": "infinite",
						"earlyUnlock(address)": "infinite",
						"isAuthorized(address)": "2980",
						"lastDistributionBlock()": "2469",
						"lockedBalances(address)": "2862",
						"onlineReward()": "2492",
						"owner()": "2619",
						"recipients(uint256)": "5033",
						"roundUnlock()": "2491",
						"token()": "infinite",
						"updateLockPeriod(uint256)": "2897",
						"withdraw(address)": "infinite"
					}
				},
				"methodIdentifiers": {
					"DISTRIBUTION_BLOCK_INTERVAL()": "31008aae",
					"EARLY_UNLOCK_PERCENT()": "012e0867",
					"LOCK_BLOCKS()": "82dc7c9d",
					"addWallet(address)": "efeb5f1f",
					"authorizedAddress(address)": "3638104a",
					"bindingWallets(address)": "9eda5810",
					"claimUnlockedTokens(address)": "69a63036",
					"distributeRewards()": "6f4a2cd0",
					"earlyUnlock(address)": "df4d971d",
					"isAuthorized(address)": "fe9fbb80",
					"lastDistributionBlock()": "f2bc79a3",
					"lockedBalances(address)": "0483a7f6",
					"onlineReward()": "cb3cc126",
					"owner()": "8da5cb5b",
					"recipients(uint256)": "d1bc76a1",
					"roundUnlock()": "f5c330a8",
					"token()": "fc0c546a",
					"updateLockPeriod(uint256)": "91db7b0d",
					"withdraw(address)": "51cff8d9"
				}
			},
			"storageLayout": {
				"storage": [
					{
						"astId": 37,
						"contract": "contracts/test.sol:AutoDistribution",
						"label": "token",
						"offset": 0,
						"slot": "0",
						"type": "t_contract(IERC20)34"
					},
					{
						"astId": 39,
						"contract": "contracts/test.sol:AutoDistribution",
						"label": "owner",
						"offset": 0,
						"slot": "1",
						"type": "t_address"
					},
					{
						"astId": 46,
						"contract": "contracts/test.sol:AutoDistribution",
						"label": "onlineReward",
						"offset": 0,
						"slot": "2",
						"type": "t_uint256"
					},
					{
						"astId": 56,
						"contract": "contracts/test.sol:AutoDistribution",
						"label": "roundUnlock",
						"offset": 0,
						"slot": "3",
						"type": "t_uint256"
					},
					{
						"astId": 58,
						"contract": "contracts/test.sol:AutoDistribution",
						"label": "lastDistributionBlock",
						"offset": 0,
						"slot": "4",
						"type": "t_uint256"
					},
					{
						"astId": 85,
						"contract": "contracts/test.sol:AutoDistribution",
						"label": "bindingWallets",
						"offset": 0,
						"slot": "5",
						"type": "t_mapping(t_address,t_address)"
					},
					{
						"astId": 90,
						"contract": "contracts/test.sol:AutoDistribution",
						"label": "lockedBalances",
						"offset": 0,
						"slot": "6",
						"type": "t_mapping(t_address,t_struct(Reward)81_storage)"
					},
					{
						"astId": 94,
						"contract": "contracts/test.sol:AutoDistribution",
						"label": "authorizedAddress",
						"offset": 0,
						"slot": "7",
						"type": "t_mapping(t_address,t_bool)"
					},
					{
						"astId": 97,
						"contract": "contracts/test.sol:AutoDistribution",
						"label": "recipients",
						"offset": 0,
						"slot": "8",
						"type": "t_array(t_address)dyn_storage"
					}
				],
				"types": {
					"t_address": {
						"encoding": "inplace",
						"label": "address",
						"numberOfBytes": "20"
					},
					"t_array(t_address)dyn_storage": {
						"base": "t_address",
						"encoding": "dynamic_array",
						"label": "address[]",
						"numberOfBytes": "32"
					},
					"t_array(t_struct(LockInfo)74_storage)dyn_storage": {
						"base": "t_struct(LockInfo)74_storage",
						"encoding": "dynamic_array",
						"label": "struct AutoDistribution.LockInfo[]",
						"numberOfBytes": "32"
					},
					"t_bool": {
						"encoding": "inplace",
						"label": "bool",
						"numberOfBytes": "1"
					},
					"t_contract(IERC20)34": {
						"encoding": "inplace",
						"label": "contract IERC20",
						"numberOfBytes": "20"
					},
					"t_mapping(t_address,t_address)": {
						"encoding": "mapping",
						"key": "t_address",
						"label": "mapping(address => address)",
						"numberOfBytes": "32",
						"value": "t_address"
					},
					"t_mapping(t_address,t_bool)": {
						"encoding": "mapping",
						"key": "t_address",
						"label": "mapping(address => bool)",
						"numberOfBytes": "32",
						"value": "t_bool"
					},
					"t_mapping(t_address,t_struct(Reward)81_storage)": {
						"encoding": "mapping",
						"key": "t_address",
						"label": "mapping(address => struct AutoDistribution.Reward)",
						"numberOfBytes": "32",
						"value": "t_struct(Reward)81_storage"
					},
					"t_struct(LockInfo)74_storage": {
						"encoding": "inplace",
						"label": "struct AutoDistribution.LockInfo",
						"members": [
							{
								"astId": 69,
								"contract": "contracts/test.sol:AutoDistribution",
								"label": "totalAmount",
								"offset": 0,
								"slot": "0",
								"type": "t_uint256"
							},
							{
								"astId": 71,
								"contract": "contracts/test.sol:AutoDistribution",
								"label": "startBlock",
								"offset": 0,
								"slot": "1",
								"type": "t_uint256"
							},
							{
								"astId": 73,
								"contract": "contracts/test.sol:AutoDistribution",
								"label": "isUnlocked",
								"offset": 0,
								"slot": "2",
								"type": "t_bool"
							}
						],
						"numberOfBytes": "96"
					},
					"t_struct(Reward)81_storage": {
						"encoding": "inplace",
						"label": "struct AutoDistribution.Reward",
						"members": [
							{
								"astId": 78,
								"contract": "contracts/test.sol:AutoDistribution",
								"label": "lockInfo",
								"offset": 0,
								"slot": "0",
								"type": "t_array(t_struct(LockInfo)74_storage)dyn_storage"
							},
							{
								"astId": 80,
								"contract": "contracts/test.sol:AutoDistribution",
								"label": "unlockedAmount",
								"offset": 0,
								"slot": "1",
								"type": "t_uint256"
							}
						],
						"numberOfBytes": "64"
					},
					"t_uint256": {
						"encoding": "inplace",
						"label": "uint256",
						"numberOfBytes": "32"
					}
				}
			},
			"userdoc": {
				"kind": "user",
				"methods": {},
				"version": 1
			}
		}
	}
}