{
	"contracts/Reword.sol": {
		"REWORD": {
			"abi": [
				{
					"inputs": [
						{
							"internalType": "address",
							"name": "_token",
							"type": "address"
						}
					],
					"stateMutability": "nonpayable",
					"type": "constructor"
				},
				{
					"inputs": [
						{
							"internalType": "string",
							"name": "_license",
							"type": "string"
						},
						{
							"internalType": "address",
							"name": "_address",
							"type": "address"
						}
					],
					"name": "bind",
					"outputs": [],
					"stateMutability": "nonpayable",
					"type": "function"
				},
				{
					"inputs": [],
					"name": "claim",
					"outputs": [],
					"stateMutability": "payable",
					"type": "function"
				},
				{
					"inputs": [
						{
							"internalType": "address",
							"name": "",
							"type": "address"
						}
					],
					"name": "claim_list",
					"outputs": [
						{
							"internalType": "uint256",
							"name": "",
							"type": "uint256"
						}
					],
					"stateMutability": "view",
					"type": "function"
				},
				{
					"inputs": [],
					"name": "distribution",
					"outputs": [],
					"stateMutability": "nonpayable",
					"type": "function"
				},
				{
					"inputs": [],
					"name": "getReward",
					"outputs": [
						{
							"internalType": "uint256",
							"name": "",
							"type": "uint256"
						}
					],
					"stateMutability": "view",
					"type": "function"
				},
				{
					"inputs": [
						{
							"internalType": "string",
							"name": "",
							"type": "string"
						}
					],
					"name": "isLicense",
					"outputs": [
						{
							"internalType": "bool",
							"name": "",
							"type": "bool"
						}
					],
					"stateMutability": "view",
					"type": "function"
				},
				{
					"inputs": [
						{
							"internalType": "string",
							"name": "",
							"type": "string"
						}
					],
					"name": "license_bind",
					"outputs": [
						{
							"internalType": "address",
							"name": "",
							"type": "address"
						}
					],
					"stateMutability": "view",
					"type": "function"
				},
				{
					"inputs": [
						{
							"internalType": "uint256",
							"name": "",
							"type": "uint256"
						}
					],
					"name": "licenses",
					"outputs": [
						{
							"internalType": "string",
							"name": "",
							"type": "string"
						}
					],
					"stateMutability": "view",
					"type": "function"
				},
				{
					"inputs": [],
					"name": "reward",
					"outputs": [
						{
							"internalType": "uint256",
							"name": "",
							"type": "uint256"
						}
					],
					"stateMutability": "view",
					"type": "function"
				}
			],
			"devdoc": {
				"kind": "dev",
				"methods": {},
				"version": 1
			},
			"evm": {
				"assembly": "    /* \"contracts/Reword.sol\":471:1902  contract REWORD {... */\n  mstore(0x40, 0x80)\n    /* \"contracts/Reword.sol\":733:961  constructor(... */\n  callvalue\n  dup1\n  iszero\n  tag_1\n  jumpi\n  revert(0x00, 0x00)\ntag_1:\n  pop\n  mload(0x40)\n  sub(codesize, bytecodeSize)\n  dup1\n  bytecodeSize\n  dup4\n  codecopy\n  dup2\n  dup2\n  add\n  0x40\n  mstore\n  dup2\n  add\n  swap1\n  tag_2\n  swap2\n  swap1\n  tag_3\n  jump\t// in\ntag_2:\n    /* \"contracts/Reword.sol\":946:952  _token */\n  dup1\n    /* \"contracts/Reword.sol\":931:936  token */\n  0x00\n  0x00\n    /* \"contracts/Reword.sol\":931:953  token = IERC20(_token) */\n  0x0100\n  exp\n  dup2\n  sload\n  dup2\n  0xffffffffffffffffffffffffffffffffffffffff\n  mul\n  not\n  and\n  swap1\n  dup4\n  0xffffffffffffffffffffffffffffffffffffffff\n  and\n  mul\n  or\n  swap1\n  sstore\n  pop\n    /* \"contracts/Reword.sol\":733:961  constructor(... */\n  pop\n    /* \"contracts/Reword.sol\":471:1902  contract REWORD {... */\n  jump(tag_6)\n    /* \"#utility.yul\":88:205   */\ntag_8:\n    /* \"#utility.yul\":197:198   */\n  0x00\n    /* \"#utility.yul\":194:195   */\n  0x00\n    /* \"#utility.yul\":187:199   */\n  revert\n    /* \"#utility.yul\":334:460   */\ntag_10:\n    /* \"#utility.yul\":371:378   */\n  0x00\n    /* \"#utility.yul\":411:453   */\n  0xffffffffffffffffffffffffffffffffffffffff\n    /* \"#utility.yul\":404:409   */\n  dup3\n    /* \"#utility.yul\":400:454   */\n  and\n    /* \"#utility.yul\":389:454   */\n  swap1\n  pop\n    /* \"#utility.yul\":334:460   */\n  swap2\n  swap1\n  pop\n  jump\t// out\n    /* \"#utility.yul\":466:562   */\ntag_11:\n    /* \"#utility.yul\":503:510   */\n  0x00\n    /* \"#utility.yul\":532:556   */\n  tag_20\n    /* \"#utility.yul\":550:555   */\n  dup3\n    /* \"#utility.yul\":532:556   */\n  tag_10\n  jump\t// in\ntag_20:\n    /* \"#utility.yul\":521:556   */\n  swap1\n  pop\n    /* \"#utility.yul\":466:562   */\n  swap2\n  swap1\n  pop\n  jump\t// out\n    /* \"#utility.yul\":568:690   */\ntag_12:\n    /* \"#utility.yul\":641:665   */\n  tag_22\n    /* \"#utility.yul\":659:664   */\n  dup2\n    /* \"#utility.yul\":641:665   */\n  tag_11\n  jump\t// in\ntag_22:\n    /* \"#utility.yul\":634:639   */\n  dup2\n    /* \"#utility.yul\":631:666   */\n  eq\n    /* \"#utility.yul\":621:684   */\n  tag_23\n  jumpi\n    /* \"#utility.yul\":680:681   */\n  0x00\n    /* \"#utility.yul\":677:678   */\n  0x00\n    /* \"#utility.yul\":670:682   */\n  revert\n    /* \"#utility.yul\":621:684   */\ntag_23:\n    /* \"#utility.yul\":568:690   */\n  pop\n  jump\t// out\n    /* \"#utility.yul\":696:839   */\ntag_13:\n    /* \"#utility.yul\":753:758   */\n  0x00\n    /* \"#utility.yul\":784:790   */\n  dup2\n    /* \"#utility.yul\":778:791   */\n  mload\n    /* \"#utility.yul\":769:791   */\n  swap1\n  pop\n    /* \"#utility.yul\":800:833   */\n  tag_25\n    /* \"#utility.yul\":827:832   */\n  dup2\n    /* \"#utility.yul\":800:833   */\n  tag_12\n  jump\t// in\ntag_25:\n    /* \"#utility.yul\":696:839   */\n  swap3\n  swap2\n  pop\n  pop\n  jump\t// out\n    /* \"#utility.yul\":845:1196   */\ntag_3:\n    /* \"#utility.yul\":915:921   */\n  0x00\n    /* \"#utility.yul\":964:966   */\n  0x20\n    /* \"#utility.yul\":952:961   */\n  dup3\n    /* \"#utility.yul\":943:950   */\n  dup5\n    /* \"#utility.yul\":939:962   */\n  sub\n    /* \"#utility.yul\":935:967   */\n  slt\n    /* \"#utility.yul\":932:1051   */\n  iszero\n  tag_27\n  jumpi\n    /* \"#utility.yul\":970:1049   */\n  tag_28\n  tag_8\n  jump\t// in\ntag_28:\n    /* \"#utility.yul\":932:1051   */\ntag_27:\n    /* \"#utility.yul\":1090:1091   */\n  0x00\n    /* \"#utility.yul\":1115:1179   */\n  tag_29\n    /* \"#utility.yul\":1171:1178   */\n  dup5\n    /* \"#utility.yul\":1162:1168   */\n  dup3\n    /* \"#utility.yul\":1151:1160   */\n  dup6\n    /* \"#utility.yul\":1147:1169   */\n  add\n    /* \"#utility.yul\":1115:1179   */\n  tag_13\n  jump\t// in\ntag_29:\n    /* \"#utility.yul\":1105:1179   */\n  swap2\n  pop\n    /* \"#utility.yul\":1061:1189   */\n  pop\n    /* \"#utility.yul\":845:1196   */\n  swap3\n  swap2\n  pop\n  pop\n  jump\t// out\n    /* \"contracts/Reword.sol\":471:1902  contract REWORD {... */\ntag_6:\n  dataSize(sub_0)\n  dup1\n  dataOffset(sub_0)\n  0x00\n  codecopy\n  0x00\n  return\nstop\n\nsub_0: assembly {\n        /* \"contracts/Reword.sol\":471:1902  contract REWORD {... */\n      mstore(0x40, 0x80)\n      jumpi(tag_1, lt(calldatasize, 0x04))\n      shr(0xe0, calldataload(0x00))\n      dup1\n      0x5ee58efc\n      gt\n      tag_11\n      jumpi\n      dup1\n      0x5ee58efc\n      eq\n      tag_6\n      jumpi\n      dup1\n      0x78a55b1d\n      eq\n      tag_7\n      jumpi\n      dup1\n      0x91d1e303\n      eq\n      tag_8\n      jumpi\n      dup1\n      0xa02c1eda\n      eq\n      tag_9\n      jumpi\n      dup1\n      0xd76db139\n      eq\n      tag_10\n      jumpi\n      jump(tag_1)\n    tag_11:\n      dup1\n      0x228cb733\n      eq\n      tag_2\n      jumpi\n      dup1\n      0x33790845\n      eq\n      tag_3\n      jumpi\n      dup1\n      0x3d18b912\n      eq\n      tag_4\n      jumpi\n      dup1\n      0x4e71d92d\n      eq\n      tag_5\n      jumpi\n    tag_1:\n      revert(0x00, 0x00)\n        /* \"contracts/Reword.sol\":521:539  uint public reward */\n    tag_2:\n      callvalue\n      dup1\n      iszero\n      tag_12\n      jumpi\n      revert(0x00, 0x00)\n    tag_12:\n      pop\n      tag_13\n      tag_14\n      jump\t// in\n    tag_13:\n      mload(0x40)\n      tag_15\n      swap2\n      swap1\n      tag_16\n      jump\t// in\n    tag_15:\n      mload(0x40)\n      dup1\n      swap2\n      sub\n      swap1\n      return\n        /* \"contracts/Reword.sol\":546:570  string[] public licenses */\n    tag_3:\n      callvalue\n      dup1\n      iszero\n      tag_17\n      jumpi\n      revert(0x00, 0x00)\n    tag_17:\n      pop\n      tag_18\n      0x04\n      dup1\n      calldatasize\n      sub\n      dup2\n      add\n      swap1\n      tag_19\n      swap2\n      swap1\n      tag_20\n      jump\t// in\n    tag_19:\n      tag_21\n      jump\t// in\n    tag_18:\n      mload(0x40)\n      tag_22\n      swap2\n      swap1\n      tag_23\n      jump\t// in\n    tag_22:\n      mload(0x40)\n      dup1\n      swap2\n      sub\n      swap1\n      return\n        /* \"contracts/Reword.sol\":1679:1775  function getReward() public view returns (uint) {... */\n    tag_4:\n      callvalue\n      dup1\n      iszero\n      tag_24\n      jumpi\n      revert(0x00, 0x00)\n    tag_24:\n      pop\n      tag_25\n      tag_26\n      jump\t// in\n    tag_25:\n      mload(0x40)\n      tag_27\n      swap2\n      swap1\n      tag_16\n      jump\t// in\n    tag_27:\n      mload(0x40)\n      dup1\n      swap2\n      sub\n      swap1\n      return\n        /* \"contracts/Reword.sol\":1798:1899  function claim() public payable {... */\n    tag_5:\n      tag_28\n      tag_29\n      jump\t// in\n    tag_28:\n      stop\n        /* \"contracts/Reword.sol\":1359:1650  function distribution() public {... */\n    tag_6:\n      callvalue\n      dup1\n      iszero\n      tag_30\n      jumpi\n      revert(0x00, 0x00)\n    tag_30:\n      pop\n      tag_31\n      tag_32\n      jump\t// in\n    tag_31:\n      stop\n        /* \"contracts/Reword.sol\":990:1300  function bind(string calldata _license, address _address) public {... */\n    tag_7:\n      callvalue\n      dup1\n      iszero\n      tag_33\n      jumpi\n      revert(0x00, 0x00)\n    tag_33:\n      pop\n      tag_34\n      0x04\n      dup1\n      calldatasize\n      sub\n      dup2\n      add\n      swap1\n      tag_35\n      swap2\n      swap1\n      tag_36\n      jump\t// in\n    tag_35:\n      tag_37\n      jump\t// in\n    tag_34:\n      stop\n        /* \"contracts/Reword.sol\":677:724  mapping (string => address) public license_bind */\n    tag_8:\n      callvalue\n      dup1\n      iszero\n      tag_38\n      jumpi\n      revert(0x00, 0x00)\n    tag_38:\n      pop\n      tag_39\n      0x04\n      dup1\n      calldatasize\n      sub\n      dup2\n      add\n      swap1\n      tag_40\n      swap2\n      swap1\n      tag_41\n      jump\t// in\n    tag_40:\n      tag_42\n      jump\t// in\n    tag_39:\n      mload(0x40)\n      tag_43\n      swap2\n      swap1\n      tag_44\n      jump\t// in\n    tag_43:\n      mload(0x40)\n      dup1\n      swap2\n      sub\n      swap1\n      return\n        /* \"contracts/Reword.sol\":627:670  mapping (address => uint) public claim_list */\n    tag_9:\n      callvalue\n      dup1\n      iszero\n      tag_45\n      jumpi\n      revert(0x00, 0x00)\n    tag_45:\n      pop\n      tag_46\n      0x04\n      dup1\n      calldatasize\n      sub\n      dup2\n      add\n      swap1\n      tag_47\n      swap2\n      swap1\n      tag_48\n      jump\t// in\n    tag_47:\n      tag_49\n      jump\t// in\n    tag_46:\n      mload(0x40)\n      tag_50\n      swap2\n      swap1\n      tag_16\n      jump\t// in\n    tag_50:\n      mload(0x40)\n      dup1\n      swap2\n      sub\n      swap1\n      return\n        /* \"contracts/Reword.sol\":579:620  mapping (string => bool) public isLicense */\n    tag_10:\n      callvalue\n      dup1\n      iszero\n      tag_51\n      jumpi\n      revert(0x00, 0x00)\n    tag_51:\n      pop\n      tag_52\n      0x04\n      dup1\n      calldatasize\n      sub\n      dup2\n      add\n      swap1\n      tag_53\n      swap2\n      swap1\n      tag_41\n      jump\t// in\n    tag_53:\n      tag_54\n      jump\t// in\n    tag_52:\n      mload(0x40)\n      tag_55\n      swap2\n      swap1\n      tag_56\n      jump\t// in\n    tag_55:\n      mload(0x40)\n      dup1\n      swap2\n      sub\n      swap1\n      return\n        /* \"contracts/Reword.sol\":521:539  uint public reward */\n    tag_14:\n      sload(0x01)\n      dup2\n      jump\t// out\n        /* \"contracts/Reword.sol\":546:570  string[] public licenses */\n    tag_21:\n      0x02\n      dup2\n      dup2\n      sload\n      dup2\n      lt\n      tag_57\n      jumpi\n      0x00\n      dup1\n      revert\n    tag_57:\n      swap1\n      0x00\n      mstore\n      keccak256(0x00, 0x20)\n      add\n      0x00\n      swap2\n      pop\n      swap1\n      pop\n      dup1\n      sload\n      tag_59\n      swap1\n      tag_60\n      jump\t// in\n    tag_59:\n      dup1\n      0x1f\n      add\n      0x20\n      dup1\n      swap2\n      div\n      mul\n      0x20\n      add\n      mload(0x40)\n      swap1\n      dup2\n      add\n      0x40\n      mstore\n      dup1\n      swap3\n      swap2\n      swap1\n      dup2\n      dup2\n      mstore\n      0x20\n      add\n      dup3\n      dup1\n      sload\n      tag_61\n      swap1\n      tag_60\n      jump\t// in\n    tag_61:\n      dup1\n      iszero\n      tag_62\n      jumpi\n      dup1\n      0x1f\n      lt\n      tag_63\n      jumpi\n      0x0100\n      dup1\n      dup4\n      sload\n      div\n      mul\n      dup4\n      mstore\n      swap2\n      0x20\n      add\n      swap2\n      jump(tag_62)\n    tag_63:\n      dup3\n      add\n      swap2\n      swap1\n      0x00\n      mstore\n      keccak256(0x00, 0x20)\n      swap1\n    tag_64:\n      dup2\n      sload\n      dup2\n      mstore\n      swap1\n      0x01\n      add\n      swap1\n      0x20\n      add\n      dup1\n      dup4\n      gt\n      tag_64\n      jumpi\n      dup3\n      swap1\n      sub\n      0x1f\n      and\n      dup3\n      add\n      swap2\n    tag_62:\n      pop\n      pop\n      pop\n      pop\n      pop\n      dup2\n      jump\t// out\n        /* \"contracts/Reword.sol\":1679:1775  function getReward() public view returns (uint) {... */\n    tag_26:\n        /* \"contracts/Reword.sol\":1721:1725  uint */\n      0x00\n        /* \"contracts/Reword.sol\":1745:1755  claim_list */\n      0x04\n        /* \"contracts/Reword.sol\":1745:1767  claim_list[msg.sender] */\n      0x00\n        /* \"contracts/Reword.sol\":1756:1766  msg.sender */\n      caller\n        /* \"contracts/Reword.sol\":1745:1767  claim_list[msg.sender] */\n      0xffffffffffffffffffffffffffffffffffffffff\n      and\n      0xffffffffffffffffffffffffffffffffffffffff\n      and\n      dup2\n      mstore\n      0x20\n      add\n      swap1\n      dup2\n      mstore\n      0x20\n      add\n      0x00\n      keccak256\n      sload\n        /* \"contracts/Reword.sol\":1738:1767  return claim_list[msg.sender] */\n      swap1\n      pop\n        /* \"contracts/Reword.sol\":1679:1775  function getReward() public view returns (uint) {... */\n      swap1\n      jump\t// out\n        /* \"contracts/Reword.sol\":1798:1899  function claim() public payable {... */\n    tag_29:\n        /* \"contracts/Reword.sol\":1841:1846  token */\n      0x00\n      0x00\n      swap1\n      sload\n      swap1\n      0x0100\n      exp\n      swap1\n      div\n      0xffffffffffffffffffffffffffffffffffffffff\n      and\n        /* \"contracts/Reword.sol\":1841:1855  token.transfer */\n      0xffffffffffffffffffffffffffffffffffffffff\n      and\n      0xa9059cbb\n        /* \"contracts/Reword.sol\":1856:1866  msg.sender */\n      caller\n        /* \"contracts/Reword.sol\":1868:1878  claim_list */\n      0x04\n        /* \"contracts/Reword.sol\":1868:1890  claim_list[msg.sender] */\n      0x00\n        /* \"contracts/Reword.sol\":1879:1889  msg.sender */\n      caller\n        /* \"contracts/Reword.sol\":1868:1890  claim_list[msg.sender] */\n      0xffffffffffffffffffffffffffffffffffffffff\n      and\n      0xffffffffffffffffffffffffffffffffffffffff\n      and\n      dup2\n      mstore\n      0x20\n      add\n      swap1\n      dup2\n      mstore\n      0x20\n      add\n      0x00\n      keccak256\n      sload\n        /* \"contracts/Reword.sol\":1841:1891  token.transfer(msg.sender, claim_list[msg.sender]) */\n      mload(0x40)\n      dup4\n      0xffffffff\n      and\n      0xe0\n      shl\n      dup2\n      mstore\n      0x04\n      add\n      tag_67\n      swap3\n      swap2\n      swap1\n      tag_68\n      jump\t// in\n    tag_67:\n      0x20\n      mload(0x40)\n      dup1\n      dup4\n      sub\n      dup2\n      0x00\n      dup8\n      gas\n      call\n      iszero\n      dup1\n      iszero\n      tag_70\n      jumpi\n      returndatacopy(0x00, 0x00, returndatasize)\n      revert(0x00, returndatasize)\n    tag_70:\n      pop\n      pop\n      pop\n      pop\n      mload(0x40)\n      returndatasize\n      not(0x1f)\n      0x1f\n      dup3\n      add\n      and\n      dup3\n      add\n      dup1\n      0x40\n      mstore\n      pop\n      dup2\n      add\n      swap1\n      tag_71\n      swap2\n      swap1\n      tag_72\n      jump\t// in\n    tag_71:\n      pop\n        /* \"contracts/Reword.sol\":1798:1899  function claim() public payable {... */\n      jump\t// out\n        /* \"contracts/Reword.sol\":1359:1650  function distribution() public {... */\n    tag_32:\n        /* \"contracts/Reword.sol\":1406:1412  uint i */\n      0x00\n        /* \"contracts/Reword.sol\":1415:1416  0 */\n      0x00\n        /* \"contracts/Reword.sol\":1406:1416  uint i = 0 */\n      swap1\n      pop\n        /* \"contracts/Reword.sol\":1401:1643  for (uint i = 0; i < licenses.length; i++) {... */\n    tag_74:\n        /* \"contracts/Reword.sol\":1422:1430  licenses */\n      0x02\n        /* \"contracts/Reword.sol\":1422:1437  licenses.length */\n      dup1\n      sload\n      swap1\n      pop\n        /* \"contracts/Reword.sol\":1418:1419  i */\n      dup2\n        /* \"contracts/Reword.sol\":1418:1437  i < licenses.length */\n      lt\n        /* \"contracts/Reword.sol\":1401:1643  for (uint i = 0; i < licenses.length; i++) {... */\n      iszero\n      tag_75\n      jumpi\n        /* \"contracts/Reword.sol\":1459:1482  address _address_reward */\n      0x00\n        /* \"contracts/Reword.sol\":1485:1497  license_bind */\n      0x05\n        /* \"contracts/Reword.sol\":1498:1506  licenses */\n      0x02\n        /* \"contracts/Reword.sol\":1507:1508  i */\n      dup4\n        /* \"contracts/Reword.sol\":1498:1509  licenses[i] */\n      dup2\n      sload\n      dup2\n      lt\n      tag_77\n      jumpi\n      tag_78\n      tag_79\n      jump\t// in\n    tag_78:\n    tag_77:\n      swap1\n      0x00\n      mstore\n      keccak256(0x00, 0x20)\n      add\n        /* \"contracts/Reword.sol\":1485:1510  license_bind[licenses[i]] */\n      mload(0x40)\n      tag_81\n      swap2\n      swap1\n      tag_82\n      jump\t// in\n    tag_81:\n      swap1\n      dup2\n      mstore\n      0x20\n      add\n      mload(0x40)\n      dup1\n      swap2\n      sub\n      swap1\n      keccak256\n      0x00\n      swap1\n      sload\n      swap1\n      0x0100\n      exp\n      swap1\n      div\n      0xffffffffffffffffffffffffffffffffffffffff\n      and\n        /* \"contracts/Reword.sol\":1459:1510  address _address_reward = license_bind[licenses[i]] */\n      swap1\n      pop\n        /* \"contracts/Reword.sol\":1556:1557  0 */\n      0x00\n        /* \"contracts/Reword.sol\":1529:1558  _address_reward != address(0) */\n      0xffffffffffffffffffffffffffffffffffffffff\n      and\n        /* \"contracts/Reword.sol\":1529:1544  _address_reward */\n      dup2\n        /* \"contracts/Reword.sol\":1529:1558  _address_reward != address(0) */\n      0xffffffffffffffffffffffffffffffffffffffff\n      and\n      eq\n        /* \"contracts/Reword.sol\":1525:1632  if (_address_reward != address(0)) {... */\n      tag_83\n      jumpi\n        /* \"contracts/Reword.sol\":1610:1616  reward */\n      sload(0x01)\n        /* \"contracts/Reword.sol\":1579:1589  claim_list */\n      0x04\n        /* \"contracts/Reword.sol\":1579:1606  claim_list[_address_reward] */\n      0x00\n        /* \"contracts/Reword.sol\":1590:1605  _address_reward */\n      dup4\n        /* \"contracts/Reword.sol\":1579:1606  claim_list[_address_reward] */\n      0xffffffffffffffffffffffffffffffffffffffff\n      and\n      0xffffffffffffffffffffffffffffffffffffffff\n      and\n      dup2\n      mstore\n      0x20\n      add\n      swap1\n      dup2\n      mstore\n      0x20\n      add\n      0x00\n      keccak256\n      0x00\n        /* \"contracts/Reword.sol\":1579:1616  claim_list[_address_reward] += reward */\n      dup3\n      dup3\n      sload\n      tag_84\n      swap2\n      swap1\n      tag_85\n      jump\t// in\n    tag_84:\n      swap3\n      pop\n      pop\n      dup2\n      swap1\n      sstore\n      pop\n        /* \"contracts/Reword.sol\":1525:1632  if (_address_reward != address(0)) {... */\n    tag_83:\n        /* \"contracts/Reword.sol\":1444:1643  {... */\n      pop\n        /* \"contracts/Reword.sol\":1439:1442  i++ */\n      dup1\n      dup1\n      0x01\n      add\n      swap2\n      pop\n      pop\n        /* \"contracts/Reword.sol\":1401:1643  for (uint i = 0; i < licenses.length; i++) {... */\n      jump(tag_74)\n    tag_75:\n      pop\n        /* \"contracts/Reword.sol\":1359:1650  function distribution() public {... */\n      jump\t// out\n        /* \"contracts/Reword.sol\":990:1300  function bind(string calldata _license, address _address) public {... */\n    tag_37:\n        /* \"contracts/Reword.sol\":1074:1083  isLicense */\n      0x03\n        /* \"contracts/Reword.sol\":1084:1092  _license */\n      dup4\n      dup4\n        /* \"contracts/Reword.sol\":1074:1093  isLicense[_license] */\n      mload(0x40)\n      tag_87\n      swap3\n      swap2\n      swap1\n      tag_88\n      jump\t// in\n    tag_87:\n      swap1\n      dup2\n      mstore\n      0x20\n      add\n      mload(0x40)\n      dup1\n      swap2\n      sub\n      swap1\n      keccak256\n      0x00\n      swap1\n      sload\n      swap1\n      0x0100\n      exp\n      swap1\n      div\n      0xff\n      and\n        /* \"contracts/Reword.sol\":1066:1126  require(isLicense[_license], \"This license is not allowed.\") */\n      tag_89\n      jumpi\n      mload(0x40)\n      0x08c379a000000000000000000000000000000000000000000000000000000000\n      dup2\n      mstore\n      0x04\n      add\n      tag_90\n      swap1\n      tag_91\n      jump\t// in\n    tag_90:\n      mload(0x40)\n      dup1\n      swap2\n      sub\n      swap1\n      revert\n    tag_89:\n        /* \"contracts/Reword.sol\":1161:1162  0 */\n      0x00\n        /* \"contracts/Reword.sol\":1141:1163  _address == address(0) */\n      0xffffffffffffffffffffffffffffffffffffffff\n      and\n        /* \"contracts/Reword.sol\":1141:1149  _address */\n      dup2\n        /* \"contracts/Reword.sol\":1141:1163  _address == address(0) */\n      0xffffffffffffffffffffffffffffffffffffffff\n      and\n      sub\n        /* \"contracts/Reword.sol\":1137:1293  if (_address == address(0)) {... */\n      tag_92\n      jumpi\n        /* \"contracts/Reword.sol\":1205:1215  msg.sender */\n      caller\n        /* \"contracts/Reword.sol\":1180:1192  license_bind */\n      0x05\n        /* \"contracts/Reword.sol\":1193:1201  _license */\n      dup5\n      dup5\n        /* \"contracts/Reword.sol\":1180:1202  license_bind[_license] */\n      mload(0x40)\n      tag_93\n      swap3\n      swap2\n      swap1\n      tag_88\n      jump\t// in\n    tag_93:\n      swap1\n      dup2\n      mstore\n      0x20\n      add\n      mload(0x40)\n      dup1\n      swap2\n      sub\n      swap1\n      keccak256\n      0x00\n        /* \"contracts/Reword.sol\":1180:1215  license_bind[_license] = msg.sender */\n      0x0100\n      exp\n      dup2\n      sload\n      dup2\n      0xffffffffffffffffffffffffffffffffffffffff\n      mul\n      not\n      and\n      swap1\n      dup4\n      0xffffffffffffffffffffffffffffffffffffffff\n      and\n      mul\n      or\n      swap1\n      sstore\n      pop\n        /* \"contracts/Reword.sol\":1137:1293  if (_address == address(0)) {... */\n      jump(tag_94)\n    tag_92:\n        /* \"contracts/Reword.sol\":1273:1281  _address */\n      dup1\n        /* \"contracts/Reword.sol\":1248:1260  license_bind */\n      0x05\n        /* \"contracts/Reword.sol\":1261:1269  _license */\n      dup5\n      dup5\n        /* \"contracts/Reword.sol\":1248:1270  license_bind[_license] */\n      mload(0x40)\n      tag_95\n      swap3\n      swap2\n      swap1\n      tag_88\n      jump\t// in\n    tag_95:\n      swap1\n      dup2\n      mstore\n      0x20\n      add\n      mload(0x40)\n      dup1\n      swap2\n      sub\n      swap1\n      keccak256\n      0x00\n        /* \"contracts/Reword.sol\":1248:1281  license_bind[_license] = _address */\n      0x0100\n      exp\n      dup2\n      sload\n      dup2\n      0xffffffffffffffffffffffffffffffffffffffff\n      mul\n      not\n      and\n      swap1\n      dup4\n      0xffffffffffffffffffffffffffffffffffffffff\n      and\n      mul\n      or\n      swap1\n      sstore\n      pop\n        /* \"contracts/Reword.sol\":1137:1293  if (_address == address(0)) {... */\n    tag_94:\n        /* \"contracts/Reword.sol\":990:1300  function bind(string calldata _license, address _address) public {... */\n      pop\n      pop\n      pop\n      jump\t// out\n        /* \"contracts/Reword.sol\":677:724  mapping (string => address) public license_bind */\n    tag_42:\n      0x05\n      dup2\n      dup1\n      mload\n      0x20\n      dup2\n      add\n      dup3\n      add\n      dup1\n      mload\n      dup5\n      dup3\n      mstore\n      0x20\n      dup4\n      add\n      0x20\n      dup6\n      add\n      keccak256\n      dup2\n      dup4\n      mstore\n      dup1\n      swap6\n      pop\n      pop\n      pop\n      pop\n      pop\n      pop\n      0x00\n      swap2\n      pop\n      sload\n      swap1\n      0x0100\n      exp\n      swap1\n      div\n      0xffffffffffffffffffffffffffffffffffffffff\n      and\n      dup2\n      jump\t// out\n        /* \"contracts/Reword.sol\":627:670  mapping (address => uint) public claim_list */\n    tag_49:\n      mstore(0x20, 0x04)\n      dup1\n      0x00\n      mstore\n      keccak256(0x00, 0x40)\n      0x00\n      swap2\n      pop\n      swap1\n      pop\n      sload\n      dup2\n      jump\t// out\n        /* \"contracts/Reword.sol\":579:620  mapping (string => bool) public isLicense */\n    tag_54:\n      0x03\n      dup2\n      dup1\n      mload\n      0x20\n      dup2\n      add\n      dup3\n      add\n      dup1\n      mload\n      dup5\n      dup3\n      mstore\n      0x20\n      dup4\n      add\n      0x20\n      dup6\n      add\n      keccak256\n      dup2\n      dup4\n      mstore\n      dup1\n      swap6\n      pop\n      pop\n      pop\n      pop\n      pop\n      pop\n      0x00\n      swap2\n      pop\n      sload\n      swap1\n      0x0100\n      exp\n      swap1\n      div\n      0xff\n      and\n      dup2\n      jump\t// out\n        /* \"#utility.yul\":7:84   */\n    tag_96:\n        /* \"#utility.yul\":44:51   */\n      0x00\n        /* \"#utility.yul\":73:78   */\n      dup2\n        /* \"#utility.yul\":62:78   */\n      swap1\n      pop\n        /* \"#utility.yul\":7:84   */\n      swap2\n      swap1\n      pop\n      jump\t// out\n        /* \"#utility.yul\":90:208   */\n    tag_97:\n        /* \"#utility.yul\":177:201   */\n      tag_140\n        /* \"#utility.yul\":195:200   */\n      dup2\n        /* \"#utility.yul\":177:201   */\n      tag_96\n      jump\t// in\n    tag_140:\n        /* \"#utility.yul\":172:175   */\n      dup3\n        /* \"#utility.yul\":165:202   */\n      mstore\n        /* \"#utility.yul\":90:208   */\n      pop\n      pop\n      jump\t// out\n        /* \"#utility.yul\":214:436   */\n    tag_16:\n        /* \"#utility.yul\":307:311   */\n      0x00\n        /* \"#utility.yul\":345:347   */\n      0x20\n        /* \"#utility.yul\":334:343   */\n      dup3\n        /* \"#utility.yul\":330:348   */\n      add\n        /* \"#utility.yul\":322:348   */\n      swap1\n      pop\n        /* \"#utility.yul\":358:429   */\n      tag_142\n        /* \"#utility.yul\":426:427   */\n      0x00\n        /* \"#utility.yul\":415:424   */\n      dup4\n        /* \"#utility.yul\":411:428   */\n      add\n        /* \"#utility.yul\":402:408   */\n      dup5\n        /* \"#utility.yul\":358:429   */\n      tag_97\n      jump\t// in\n    tag_142:\n        /* \"#utility.yul\":214:436   */\n      swap3\n      swap2\n      pop\n      pop\n      jump\t// out\n        /* \"#utility.yul\":442:517   */\n    tag_98:\n        /* \"#utility.yul\":475:481   */\n      0x00\n        /* \"#utility.yul\":508:510   */\n      0x40\n        /* \"#utility.yul\":502:511   */\n      mload\n        /* \"#utility.yul\":492:511   */\n      swap1\n      pop\n        /* \"#utility.yul\":442:517   */\n      swap1\n      jump\t// out\n        /* \"#utility.yul\":523:640   */\n    tag_99:\n        /* \"#utility.yul\":632:633   */\n      0x00\n        /* \"#utility.yul\":629:630   */\n      0x00\n        /* \"#utility.yul\":622:634   */\n      revert\n        /* \"#utility.yul\":646:763   */\n    tag_100:\n        /* \"#utility.yul\":755:756   */\n      0x00\n        /* \"#utility.yul\":752:753   */\n      0x00\n        /* \"#utility.yul\":745:757   */\n      revert\n        /* \"#utility.yul\":769:891   */\n    tag_101:\n        /* \"#utility.yul\":842:866   */\n      tag_147\n        /* \"#utility.yul\":860:865   */\n      dup2\n        /* \"#utility.yul\":842:866   */\n      tag_96\n      jump\t// in\n    tag_147:\n        /* \"#utility.yul\":835:840   */\n      dup2\n        /* \"#utility.yul\":832:867   */\n      eq\n        /* \"#utility.yul\":822:885   */\n      tag_148\n      jumpi\n        /* \"#utility.yul\":881:882   */\n      0x00\n        /* \"#utility.yul\":878:879   */\n      0x00\n        /* \"#utility.yul\":871:883   */\n      revert\n        /* \"#utility.yul\":822:885   */\n    tag_148:\n        /* \"#utility.yul\":769:891   */\n      pop\n      jump\t// out\n        /* \"#utility.yul\":897:1036   */\n    tag_102:\n        /* \"#utility.yul\":943:948   */\n      0x00\n        /* \"#utility.yul\":981:987   */\n      dup2\n        /* \"#utility.yul\":968:988   */\n      calldataload\n        /* \"#utility.yul\":959:988   */\n      swap1\n      pop\n        /* \"#utility.yul\":997:1030   */\n      tag_150\n        /* \"#utility.yul\":1024:1029   */\n      dup2\n        /* \"#utility.yul\":997:1030   */\n      tag_101\n      jump\t// in\n    tag_150:\n        /* \"#utility.yul\":897:1036   */\n      swap3\n      swap2\n      pop\n      pop\n      jump\t// out\n        /* \"#utility.yul\":1042:1371   */\n    tag_20:\n        /* \"#utility.yul\":1101:1107   */\n      0x00\n        /* \"#utility.yul\":1150:1152   */\n      0x20\n        /* \"#utility.yul\":1138:1147   */\n      dup3\n        /* \"#utility.yul\":1129:1136   */\n      dup5\n        /* \"#utility.yul\":1125:1148   */\n      sub\n        /* \"#utility.yul\":1121:1153   */\n      slt\n        /* \"#utility.yul\":1118:1237   */\n      iszero\n      tag_152\n      jumpi\n        /* \"#utility.yul\":1156:1235   */\n      tag_153\n      tag_99\n      jump\t// in\n    tag_153:\n        /* \"#utility.yul\":1118:1237   */\n    tag_152:\n        /* \"#utility.yul\":1276:1277   */\n      0x00\n        /* \"#utility.yul\":1301:1354   */\n      tag_154\n        /* \"#utility.yul\":1346:1353   */\n      dup5\n        /* \"#utility.yul\":1337:1343   */\n      dup3\n        /* \"#utility.yul\":1326:1335   */\n      dup6\n        /* \"#utility.yul\":1322:1344   */\n      add\n        /* \"#utility.yul\":1301:1354   */\n      tag_102\n      jump\t// in\n    tag_154:\n        /* \"#utility.yul\":1291:1354   */\n      swap2\n      pop\n        /* \"#utility.yul\":1247:1364   */\n      pop\n        /* \"#utility.yul\":1042:1371   */\n      swap3\n      swap2\n      pop\n      pop\n      jump\t// out\n        /* \"#utility.yul\":1377:1476   */\n    tag_103:\n        /* \"#utility.yul\":1429:1435   */\n      0x00\n        /* \"#utility.yul\":1463:1468   */\n      dup2\n        /* \"#utility.yul\":1457:1469   */\n      mload\n        /* \"#utility.yul\":1447:1469   */\n      swap1\n      pop\n        /* \"#utility.yul\":1377:1476   */\n      swap2\n      swap1\n      pop\n      jump\t// out\n        /* \"#utility.yul\":1482:1651   */\n    tag_104:\n        /* \"#utility.yul\":1566:1577   */\n      0x00\n        /* \"#utility.yul\":1600:1606   */\n      dup3\n        /* \"#utility.yul\":1595:1598   */\n      dup3\n        /* \"#utility.yul\":1588:1607   */\n      mstore\n        /* \"#utility.yul\":1640:1644   */\n      0x20\n        /* \"#utility.yul\":1635:1638   */\n      dup3\n        /* \"#utility.yul\":1631:1645   */\n      add\n        /* \"#utility.yul\":1616:1645   */\n      swap1\n      pop\n        /* \"#utility.yul\":1482:1651   */\n      swap3\n      swap2\n      pop\n      pop\n      jump\t// out\n        /* \"#utility.yul\":1657:1796   */\n    tag_105:\n        /* \"#utility.yul\":1746:1752   */\n      dup3\n        /* \"#utility.yul\":1741:1744   */\n      dup2\n        /* \"#utility.yul\":1736:1739   */\n      dup4\n        /* \"#utility.yul\":1730:1753   */\n      mcopy\n        /* \"#utility.yul\":1787:1788   */\n      0x00\n        /* \"#utility.yul\":1778:1784   */\n      dup4\n        /* \"#utility.yul\":1773:1776   */\n      dup4\n        /* \"#utility.yul\":1769:1785   */\n      add\n        /* \"#utility.yul\":1762:1789   */\n      mstore\n        /* \"#utility.yul\":1657:1796   */\n      pop\n      pop\n      pop\n      jump\t// out\n        /* \"#utility.yul\":1802:1904   */\n    tag_106:\n        /* \"#utility.yul\":1843:1849   */\n      0x00\n        /* \"#utility.yul\":1894:1896   */\n      0x1f\n        /* \"#utility.yul\":1890:1897   */\n      not\n        /* \"#utility.yul\":1885:1887   */\n      0x1f\n        /* \"#utility.yul\":1878:1883   */\n      dup4\n        /* \"#utility.yul\":1874:1888   */\n      add\n        /* \"#utility.yul\":1870:1898   */\n      and\n        /* \"#utility.yul\":1860:1898   */\n      swap1\n      pop\n        /* \"#utility.yul\":1802:1904   */\n      swap2\n      swap1\n      pop\n      jump\t// out\n        /* \"#utility.yul\":1910:2287   */\n    tag_107:\n        /* \"#utility.yul\":1998:2001   */\n      0x00\n        /* \"#utility.yul\":2026:2065   */\n      tag_160\n        /* \"#utility.yul\":2059:2064   */\n      dup3\n        /* \"#utility.yul\":2026:2065   */\n      tag_103\n      jump\t// in\n    tag_160:\n        /* \"#utility.yul\":2081:2152   */\n      tag_161\n        /* \"#utility.yul\":2145:2151   */\n      dup2\n        /* \"#utility.yul\":2140:2143   */\n      dup6\n        /* \"#utility.yul\":2081:2152   */\n      tag_104\n      jump\t// in\n    tag_161:\n        /* \"#utility.yul\":2074:2152   */\n      swap4\n      pop\n        /* \"#utility.yul\":2161:2226   */\n      tag_162\n        /* \"#utility.yul\":2219:2225   */\n      dup2\n        /* \"#utility.yul\":2214:2217   */\n      dup6\n        /* \"#utility.yul\":2207:2211   */\n      0x20\n        /* \"#utility.yul\":2200:2205   */\n      dup7\n        /* \"#utility.yul\":2196:2212   */\n      add\n        /* \"#utility.yul\":2161:2226   */\n      tag_105\n      jump\t// in\n    tag_162:\n        /* \"#utility.yul\":2251:2280   */\n      tag_163\n        /* \"#utility.yul\":2273:2279   */\n      dup2\n        /* \"#utility.yul\":2251:2280   */\n      tag_106\n      jump\t// in\n    tag_163:\n        /* \"#utility.yul\":2246:2249   */\n      dup5\n        /* \"#utility.yul\":2242:2281   */\n      add\n        /* \"#utility.yul\":2235:2281   */\n      swap2\n      pop\n        /* \"#utility.yul\":2002:2287   */\n      pop\n        /* \"#utility.yul\":1910:2287   */\n      swap3\n      swap2\n      pop\n      pop\n      jump\t// out\n        /* \"#utility.yul\":2293:2606   */\n    tag_23:\n        /* \"#utility.yul\":2406:2410   */\n      0x00\n        /* \"#utility.yul\":2444:2446   */\n      0x20\n        /* \"#utility.yul\":2433:2442   */\n      dup3\n        /* \"#utility.yul\":2429:2447   */\n      add\n        /* \"#utility.yul\":2421:2447   */\n      swap1\n      pop\n        /* \"#utility.yul\":2493:2502   */\n      dup2\n        /* \"#utility.yul\":2487:2491   */\n      dup2\n        /* \"#utility.yul\":2483:2503   */\n      sub\n        /* \"#utility.yul\":2479:2480   */\n      0x00\n        /* \"#utility.yul\":2468:2477   */\n      dup4\n        /* \"#utility.yul\":2464:2481   */\n      add\n        /* \"#utility.yul\":2457:2504   */\n      mstore\n        /* \"#utility.yul\":2521:2599   */\n      tag_165\n        /* \"#utility.yul\":2594:2598   */\n      dup2\n        /* \"#utility.yul\":2585:2591   */\n      dup5\n        /* \"#utility.yul\":2521:2599   */\n      tag_107\n      jump\t// in\n    tag_165:\n        /* \"#utility.yul\":2513:2599   */\n      swap1\n      pop\n        /* \"#utility.yul\":2293:2606   */\n      swap3\n      swap2\n      pop\n      pop\n      jump\t// out\n        /* \"#utility.yul\":2612:2729   */\n    tag_108:\n        /* \"#utility.yul\":2721:2722   */\n      0x00\n        /* \"#utility.yul\":2718:2719   */\n      0x00\n        /* \"#utility.yul\":2711:2723   */\n      revert\n        /* \"#utility.yul\":2735:2852   */\n    tag_109:\n        /* \"#utility.yul\":2844:2845   */\n      0x00\n        /* \"#utility.yul\":2841:2842   */\n      0x00\n        /* \"#utility.yul\":2834:2846   */\n      revert\n        /* \"#utility.yul\":2858:2975   */\n    tag_110:\n        /* \"#utility.yul\":2967:2968   */\n      0x00\n        /* \"#utility.yul\":2964:2965   */\n      0x00\n        /* \"#utility.yul\":2957:2969   */\n      revert\n        /* \"#utility.yul\":2995:3548   */\n    tag_111:\n        /* \"#utility.yul\":3053:3061   */\n      0x00\n        /* \"#utility.yul\":3063:3069   */\n      0x00\n        /* \"#utility.yul\":3113:3116   */\n      dup4\n        /* \"#utility.yul\":3106:3110   */\n      0x1f\n        /* \"#utility.yul\":3098:3104   */\n      dup5\n        /* \"#utility.yul\":3094:3111   */\n      add\n        /* \"#utility.yul\":3090:3117   */\n      slt\n        /* \"#utility.yul\":3080:3202   */\n      tag_170\n      jumpi\n        /* \"#utility.yul\":3121:3200   */\n      tag_171\n      tag_108\n      jump\t// in\n    tag_171:\n        /* \"#utility.yul\":3080:3202   */\n    tag_170:\n        /* \"#utility.yul\":3234:3240   */\n      dup3\n        /* \"#utility.yul\":3221:3241   */\n      calldataload\n        /* \"#utility.yul\":3211:3241   */\n      swap1\n      pop\n        /* \"#utility.yul\":3264:3282   */\n      0xffffffffffffffff\n        /* \"#utility.yul\":3256:3262   */\n      dup2\n        /* \"#utility.yul\":3253:3283   */\n      gt\n        /* \"#utility.yul\":3250:3367   */\n      iszero\n      tag_172\n      jumpi\n        /* \"#utility.yul\":3286:3365   */\n      tag_173\n      tag_109\n      jump\t// in\n    tag_173:\n        /* \"#utility.yul\":3250:3367   */\n    tag_172:\n        /* \"#utility.yul\":3400:3404   */\n      0x20\n        /* \"#utility.yul\":3392:3398   */\n      dup4\n        /* \"#utility.yul\":3388:3405   */\n      add\n        /* \"#utility.yul\":3376:3405   */\n      swap2\n      pop\n        /* \"#utility.yul\":3454:3457   */\n      dup4\n        /* \"#utility.yul\":3446:3450   */\n      0x01\n        /* \"#utility.yul\":3438:3444   */\n      dup3\n        /* \"#utility.yul\":3434:3451   */\n      mul\n        /* \"#utility.yul\":3424:3432   */\n      dup4\n        /* \"#utility.yul\":3420:3452   */\n      add\n        /* \"#utility.yul\":3417:3458   */\n      gt\n        /* \"#utility.yul\":3414:3542   */\n      iszero\n      tag_174\n      jumpi\n        /* \"#utility.yul\":3461:3540   */\n      tag_175\n      tag_110\n      jump\t// in\n    tag_175:\n        /* \"#utility.yul\":3414:3542   */\n    tag_174:\n        /* \"#utility.yul\":2995:3548   */\n      swap3\n      pop\n      swap3\n      swap1\n      pop\n      jump\t// out\n        /* \"#utility.yul\":3554:3680   */\n    tag_112:\n        /* \"#utility.yul\":3591:3598   */\n      0x00\n        /* \"#utility.yul\":3631:3673   */\n      0xffffffffffffffffffffffffffffffffffffffff\n        /* \"#utility.yul\":3624:3629   */\n      dup3\n        /* \"#utility.yul\":3620:3674   */\n      and\n        /* \"#utility.yul\":3609:3674   */\n      swap1\n      pop\n        /* \"#utility.yul\":3554:3680   */\n      swap2\n      swap1\n      pop\n      jump\t// out\n        /* \"#utility.yul\":3686:3782   */\n    tag_113:\n        /* \"#utility.yul\":3723:3730   */\n      0x00\n        /* \"#utility.yul\":3752:3776   */\n      tag_178\n        /* \"#utility.yul\":3770:3775   */\n      dup3\n        /* \"#utility.yul\":3752:3776   */\n      tag_112\n      jump\t// in\n    tag_178:\n        /* \"#utility.yul\":3741:3776   */\n      swap1\n      pop\n        /* \"#utility.yul\":3686:3782   */\n      swap2\n      swap1\n      pop\n      jump\t// out\n        /* \"#utility.yul\":3788:3910   */\n    tag_114:\n        /* \"#utility.yul\":3861:3885   */\n      tag_180\n        /* \"#utility.yul\":3879:3884   */\n      dup2\n        /* \"#utility.yul\":3861:3885   */\n      tag_113\n      jump\t// in\n    tag_180:\n        /* \"#utility.yul\":3854:3859   */\n      dup2\n        /* \"#utility.yul\":3851:3886   */\n      eq\n        /* \"#utility.yul\":3841:3904   */\n      tag_181\n      jumpi\n        /* \"#utility.yul\":3900:3901   */\n      0x00\n        /* \"#utility.yul\":3897:3898   */\n      0x00\n        /* \"#utility.yul\":3890:3902   */\n      revert\n        /* \"#utility.yul\":3841:3904   */\n    tag_181:\n        /* \"#utility.yul\":3788:3910   */\n      pop\n      jump\t// out\n        /* \"#utility.yul\":3916:4055   */\n    tag_115:\n        /* \"#utility.yul\":3962:3967   */\n      0x00\n        /* \"#utility.yul\":4000:4006   */\n      dup2\n        /* \"#utility.yul\":3987:4007   */\n      calldataload\n        /* \"#utility.yul\":3978:4007   */\n      swap1\n      pop\n        /* \"#utility.yul\":4016:4049   */\n      tag_183\n        /* \"#utility.yul\":4043:4048   */\n      dup2\n        /* \"#utility.yul\":4016:4049   */\n      tag_114\n      jump\t// in\n    tag_183:\n        /* \"#utility.yul\":3916:4055   */\n      swap3\n      swap2\n      pop\n      pop\n      jump\t// out\n        /* \"#utility.yul\":4061:4735   */\n    tag_36:\n        /* \"#utility.yul\":4141:4147   */\n      0x00\n        /* \"#utility.yul\":4149:4155   */\n      0x00\n        /* \"#utility.yul\":4157:4163   */\n      0x00\n        /* \"#utility.yul\":4206:4208   */\n      0x40\n        /* \"#utility.yul\":4194:4203   */\n      dup5\n        /* \"#utility.yul\":4185:4192   */\n      dup7\n        /* \"#utility.yul\":4181:4204   */\n      sub\n        /* \"#utility.yul\":4177:4209   */\n      slt\n        /* \"#utility.yul\":4174:4293   */\n      iszero\n      tag_185\n      jumpi\n        /* \"#utility.yul\":4212:4291   */\n      tag_186\n      tag_99\n      jump\t// in\n    tag_186:\n        /* \"#utility.yul\":4174:4293   */\n    tag_185:\n        /* \"#utility.yul\":4360:4361   */\n      0x00\n        /* \"#utility.yul\":4349:4358   */\n      dup5\n        /* \"#utility.yul\":4345:4362   */\n      add\n        /* \"#utility.yul\":4332:4363   */\n      calldataload\n        /* \"#utility.yul\":4390:4408   */\n      0xffffffffffffffff\n        /* \"#utility.yul\":4382:4388   */\n      dup2\n        /* \"#utility.yul\":4379:4409   */\n      gt\n        /* \"#utility.yul\":4376:4493   */\n      iszero\n      tag_187\n      jumpi\n        /* \"#utility.yul\":4412:4491   */\n      tag_188\n      tag_100\n      jump\t// in\n    tag_188:\n        /* \"#utility.yul\":4376:4493   */\n    tag_187:\n        /* \"#utility.yul\":4525:4590   */\n      tag_189\n        /* \"#utility.yul\":4582:4589   */\n      dup7\n        /* \"#utility.yul\":4573:4579   */\n      dup3\n        /* \"#utility.yul\":4562:4571   */\n      dup8\n        /* \"#utility.yul\":4558:4580   */\n      add\n        /* \"#utility.yul\":4525:4590   */\n      tag_111\n      jump\t// in\n    tag_189:\n        /* \"#utility.yul\":4507:4590   */\n      swap4\n      pop\n      swap4\n      pop\n        /* \"#utility.yul\":4303:4600   */\n      pop\n        /* \"#utility.yul\":4639:4641   */\n      0x20\n        /* \"#utility.yul\":4665:4718   */\n      tag_190\n        /* \"#utility.yul\":4710:4717   */\n      dup7\n        /* \"#utility.yul\":4701:4707   */\n      dup3\n        /* \"#utility.yul\":4690:4699   */\n      dup8\n        /* \"#utility.yul\":4686:4708   */\n      add\n        /* \"#utility.yul\":4665:4718   */\n      tag_115\n      jump\t// in\n    tag_190:\n        /* \"#utility.yul\":4655:4718   */\n      swap2\n      pop\n        /* \"#utility.yul\":4610:4728   */\n      pop\n        /* \"#utility.yul\":4061:4735   */\n      swap3\n      pop\n      swap3\n      pop\n      swap3\n      jump\t// out\n        /* \"#utility.yul\":4741:4858   */\n    tag_116:\n        /* \"#utility.yul\":4850:4851   */\n      0x00\n        /* \"#utility.yul\":4847:4848   */\n      0x00\n        /* \"#utility.yul\":4840:4852   */\n      revert\n        /* \"#utility.yul\":4864:5044   */\n    tag_117:\n        /* \"#utility.yul\":4912:4989   */\n      0x4e487b7100000000000000000000000000000000000000000000000000000000\n        /* \"#utility.yul\":4909:4910   */\n      0x00\n        /* \"#utility.yul\":4902:4990   */\n      mstore\n        /* \"#utility.yul\":5009:5013   */\n      0x41\n        /* \"#utility.yul\":5006:5007   */\n      0x04\n        /* \"#utility.yul\":4999:5014   */\n      mstore\n        /* \"#utility.yul\":5033:5037   */\n      0x24\n        /* \"#utility.yul\":5030:5031   */\n      0x00\n        /* \"#utility.yul\":5023:5038   */\n      revert\n        /* \"#utility.yul\":5050:5331   */\n    tag_118:\n        /* \"#utility.yul\":5133:5160   */\n      tag_194\n        /* \"#utility.yul\":5155:5159   */\n      dup3\n        /* \"#utility.yul\":5133:5160   */\n      tag_106\n      jump\t// in\n    tag_194:\n        /* \"#utility.yul\":5125:5131   */\n      dup2\n        /* \"#utility.yul\":5121:5161   */\n      add\n        /* \"#utility.yul\":5263:5269   */\n      dup2\n        /* \"#utility.yul\":5251:5261   */\n      dup2\n        /* \"#utility.yul\":5248:5270   */\n      lt\n        /* \"#utility.yul\":5227:5245   */\n      0xffffffffffffffff\n        /* \"#utility.yul\":5215:5225   */\n      dup3\n        /* \"#utility.yul\":5212:5246   */\n      gt\n        /* \"#utility.yul\":5209:5271   */\n      or\n        /* \"#utility.yul\":5206:5294   */\n      iszero\n      tag_195\n      jumpi\n        /* \"#utility.yul\":5274:5292   */\n      tag_196\n      tag_117\n      jump\t// in\n    tag_196:\n        /* \"#utility.yul\":5206:5294   */\n    tag_195:\n        /* \"#utility.yul\":5314:5324   */\n      dup1\n        /* \"#utility.yul\":5310:5312   */\n      0x40\n        /* \"#utility.yul\":5303:5325   */\n      mstore\n        /* \"#utility.yul\":5093:5331   */\n      pop\n        /* \"#utility.yul\":5050:5331   */\n      pop\n      pop\n      jump\t// out\n        /* \"#utility.yul\":5337:5466   */\n    tag_119:\n        /* \"#utility.yul\":5371:5377   */\n      0x00\n        /* \"#utility.yul\":5398:5418   */\n      tag_198\n      tag_98\n      jump\t// in\n    tag_198:\n        /* \"#utility.yul\":5388:5418   */\n      swap1\n      pop\n        /* \"#utility.yul\":5427:5460   */\n      tag_199\n        /* \"#utility.yul\":5455:5459   */\n      dup3\n        /* \"#utility.yul\":5447:5453   */\n      dup3\n        /* \"#utility.yul\":5427:5460   */\n      tag_118\n      jump\t// in\n    tag_199:\n        /* \"#utility.yul\":5337:5466   */\n      swap2\n      swap1\n      pop\n      jump\t// out\n        /* \"#utility.yul\":5472:5780   */\n    tag_120:\n        /* \"#utility.yul\":5534:5538   */\n      0x00\n        /* \"#utility.yul\":5624:5642   */\n      0xffffffffffffffff\n        /* \"#utility.yul\":5616:5622   */\n      dup3\n        /* \"#utility.yul\":5613:5643   */\n      gt\n        /* \"#utility.yul\":5610:5666   */\n      iszero\n      tag_201\n      jumpi\n        /* \"#utility.yul\":5646:5664   */\n      tag_202\n      tag_117\n      jump\t// in\n    tag_202:\n        /* \"#utility.yul\":5610:5666   */\n    tag_201:\n        /* \"#utility.yul\":5684:5713   */\n      tag_203\n        /* \"#utility.yul\":5706:5712   */\n      dup3\n        /* \"#utility.yul\":5684:5713   */\n      tag_106\n      jump\t// in\n    tag_203:\n        /* \"#utility.yul\":5676:5713   */\n      swap1\n      pop\n        /* \"#utility.yul\":5768:5772   */\n      0x20\n        /* \"#utility.yul\":5762:5766   */\n      dup2\n        /* \"#utility.yul\":5758:5773   */\n      add\n        /* \"#utility.yul\":5750:5773   */\n      swap1\n      pop\n        /* \"#utility.yul\":5472:5780   */\n      swap2\n      swap1\n      pop\n      jump\t// out\n        /* \"#utility.yul\":5786:5934   */\n    tag_121:\n        /* \"#utility.yul\":5884:5890   */\n      dup3\n        /* \"#utility.yul\":5879:5882   */\n      dup2\n        /* \"#utility.yul\":5874:5877   */\n      dup4\n        /* \"#utility.yul\":5861:5891   */\n      calldatacopy\n        /* \"#utility.yul\":5925:5926   */\n      0x00\n        /* \"#utility.yul\":5916:5922   */\n      dup4\n        /* \"#utility.yul\":5911:5914   */\n      dup4\n        /* \"#utility.yul\":5907:5923   */\n      add\n        /* \"#utility.yul\":5900:5927   */\n      mstore\n        /* \"#utility.yul\":5786:5934   */\n      pop\n      pop\n      pop\n      jump\t// out\n        /* \"#utility.yul\":5940:6365   */\n    tag_122:\n        /* \"#utility.yul\":6018:6023   */\n      0x00\n        /* \"#utility.yul\":6043:6109   */\n      tag_206\n        /* \"#utility.yul\":6059:6108   */\n      tag_207\n        /* \"#utility.yul\":6101:6107   */\n      dup5\n        /* \"#utility.yul\":6059:6108   */\n      tag_120\n      jump\t// in\n    tag_207:\n        /* \"#utility.yul\":6043:6109   */\n      tag_119\n      jump\t// in\n    tag_206:\n        /* \"#utility.yul\":6034:6109   */\n      swap1\n      pop\n        /* \"#utility.yul\":6132:6138   */\n      dup3\n        /* \"#utility.yul\":6125:6130   */\n      dup2\n        /* \"#utility.yul\":6118:6139   */\n      mstore\n        /* \"#utility.yul\":6170:6174   */\n      0x20\n        /* \"#utility.yul\":6163:6168   */\n      dup2\n        /* \"#utility.yul\":6159:6175   */\n      add\n        /* \"#utility.yul\":6208:6211   */\n      dup5\n        /* \"#utility.yul\":6199:6205   */\n      dup5\n        /* \"#utility.yul\":6194:6197   */\n      dup5\n        /* \"#utility.yul\":6190:6206   */\n      add\n        /* \"#utility.yul\":6187:6212   */\n      gt\n        /* \"#utility.yul\":6184:6296   */\n      iszero\n      tag_208\n      jumpi\n        /* \"#utility.yul\":6215:6294   */\n      tag_209\n      tag_116\n      jump\t// in\n    tag_209:\n        /* \"#utility.yul\":6184:6296   */\n    tag_208:\n        /* \"#utility.yul\":6305:6359   */\n      tag_210\n        /* \"#utility.yul\":6352:6358   */\n      dup5\n        /* \"#utility.yul\":6347:6350   */\n      dup3\n        /* \"#utility.yul\":6342:6345   */\n      dup6\n        /* \"#utility.yul\":6305:6359   */\n      tag_121\n      jump\t// in\n    tag_210:\n        /* \"#utility.yul\":6024:6365   */\n      pop\n        /* \"#utility.yul\":5940:6365   */\n      swap4\n      swap3\n      pop\n      pop\n      pop\n      jump\t// out\n        /* \"#utility.yul\":6385:6725   */\n    tag_123:\n        /* \"#utility.yul\":6441:6446   */\n      0x00\n        /* \"#utility.yul\":6490:6493   */\n      dup3\n        /* \"#utility.yul\":6483:6487   */\n      0x1f\n        /* \"#utility.yul\":6475:6481   */\n      dup4\n        /* \"#utility.yul\":6471:6488   */\n      add\n        /* \"#utility.yul\":6467:6494   */\n      slt\n        /* \"#utility.yul\":6457:6579   */\n      tag_212\n      jumpi\n        /* \"#utility.yul\":6498:6577   */\n      tag_213\n      tag_108\n      jump\t// in\n    tag_213:\n        /* \"#utility.yul\":6457:6579   */\n    tag_212:\n        /* \"#utility.yul\":6615:6621   */\n      dup2\n        /* \"#utility.yul\":6602:6622   */\n      calldataload\n        /* \"#utility.yul\":6640:6719   */\n      tag_214\n        /* \"#utility.yul\":6715:6718   */\n      dup5\n        /* \"#utility.yul\":6707:6713   */\n      dup3\n        /* \"#utility.yul\":6700:6704   */\n      0x20\n        /* \"#utility.yul\":6692:6698   */\n      dup7\n        /* \"#utility.yul\":6688:6705   */\n      add\n        /* \"#utility.yul\":6640:6719   */\n      tag_122\n      jump\t// in\n    tag_214:\n        /* \"#utility.yul\":6631:6719   */\n      swap2\n      pop\n        /* \"#utility.yul\":6447:6725   */\n      pop\n        /* \"#utility.yul\":6385:6725   */\n      swap3\n      swap2\n      pop\n      pop\n      jump\t// out\n        /* \"#utility.yul\":6731:7240   */\n    tag_41:\n        /* \"#utility.yul\":6800:6806   */\n      0x00\n        /* \"#utility.yul\":6849:6851   */\n      0x20\n        /* \"#utility.yul\":6837:6846   */\n      dup3\n        /* \"#utility.yul\":6828:6835   */\n      dup5\n        /* \"#utility.yul\":6824:6847   */\n      sub\n        /* \"#utility.yul\":6820:6852   */\n      slt\n        /* \"#utility.yul\":6817:6936   */\n      iszero\n      tag_216\n      jumpi\n        /* \"#utility.yul\":6855:6934   */\n      tag_217\n      tag_99\n      jump\t// in\n    tag_217:\n        /* \"#utility.yul\":6817:6936   */\n    tag_216:\n        /* \"#utility.yul\":7003:7004   */\n      0x00\n        /* \"#utility.yul\":6992:7001   */\n      dup3\n        /* \"#utility.yul\":6988:7005   */\n      add\n        /* \"#utility.yul\":6975:7006   */\n      calldataload\n        /* \"#utility.yul\":7033:7051   */\n      0xffffffffffffffff\n        /* \"#utility.yul\":7025:7031   */\n      dup2\n        /* \"#utility.yul\":7022:7052   */\n      gt\n        /* \"#utility.yul\":7019:7136   */\n      iszero\n      tag_218\n      jumpi\n        /* \"#utility.yul\":7055:7134   */\n      tag_219\n      tag_100\n      jump\t// in\n    tag_219:\n        /* \"#utility.yul\":7019:7136   */\n    tag_218:\n        /* \"#utility.yul\":7160:7223   */\n      tag_220\n        /* \"#utility.yul\":7215:7222   */\n      dup5\n        /* \"#utility.yul\":7206:7212   */\n      dup3\n        /* \"#utility.yul\":7195:7204   */\n      dup6\n        /* \"#utility.yul\":7191:7213   */\n      add\n        /* \"#utility.yul\":7160:7223   */\n      tag_123\n      jump\t// in\n    tag_220:\n        /* \"#utility.yul\":7150:7223   */\n      swap2\n      pop\n        /* \"#utility.yul\":6946:7233   */\n      pop\n        /* \"#utility.yul\":6731:7240   */\n      swap3\n      swap2\n      pop\n      pop\n      jump\t// out\n        /* \"#utility.yul\":7246:7364   */\n    tag_124:\n        /* \"#utility.yul\":7333:7357   */\n      tag_222\n        /* \"#utility.yul\":7351:7356   */\n      dup2\n        /* \"#utility.yul\":7333:7357   */\n      tag_113\n      jump\t// in\n    tag_222:\n        /* \"#utility.yul\":7328:7331   */\n      dup3\n        /* \"#utility.yul\":7321:7358   */\n      mstore\n        /* \"#utility.yul\":7246:7364   */\n      pop\n      pop\n      jump\t// out\n        /* \"#utility.yul\":7370:7592   */\n    tag_44:\n        /* \"#utility.yul\":7463:7467   */\n      0x00\n        /* \"#utility.yul\":7501:7503   */\n      0x20\n        /* \"#utility.yul\":7490:7499   */\n      dup3\n        /* \"#utility.yul\":7486:7504   */\n      add\n        /* \"#utility.yul\":7478:7504   */\n      swap1\n      pop\n        /* \"#utility.yul\":7514:7585   */\n      tag_224\n        /* \"#utility.yul\":7582:7583   */\n      0x00\n        /* \"#utility.yul\":7571:7580   */\n      dup4\n        /* \"#utility.yul\":7567:7584   */\n      add\n        /* \"#utility.yul\":7558:7564   */\n      dup5\n        /* \"#utility.yul\":7514:7585   */\n      tag_124\n      jump\t// in\n    tag_224:\n        /* \"#utility.yul\":7370:7592   */\n      swap3\n      swap2\n      pop\n      pop\n      jump\t// out\n        /* \"#utility.yul\":7598:7927   */\n    tag_48:\n        /* \"#utility.yul\":7657:7663   */\n      0x00\n        /* \"#utility.yul\":7706:7708   */\n      0x20\n        /* \"#utility.yul\":7694:7703   */\n      dup3\n        /* \"#utility.yul\":7685:7692   */\n      dup5\n        /* \"#utility.yul\":7681:7704   */\n      sub\n        /* \"#utility.yul\":7677:7709   */\n      slt\n        /* \"#utility.yul\":7674:7793   */\n      iszero\n      tag_226\n      jumpi\n        /* \"#utility.yul\":7712:7791   */\n      tag_227\n      tag_99\n      jump\t// in\n    tag_227:\n        /* \"#utility.yul\":7674:7793   */\n    tag_226:\n        /* \"#utility.yul\":7832:7833   */\n      0x00\n        /* \"#utility.yul\":7857:7910   */\n      tag_228\n        /* \"#utility.yul\":7902:7909   */\n      dup5\n        /* \"#utility.yul\":7893:7899   */\n      dup3\n        /* \"#utility.yul\":7882:7891   */\n      dup6\n        /* \"#utility.yul\":7878:7900   */\n      add\n        /* \"#utility.yul\":7857:7910   */\n      tag_115\n      jump\t// in\n    tag_228:\n        /* \"#utility.yul\":7847:7910   */\n      swap2\n      pop\n        /* \"#utility.yul\":7803:7920   */\n      pop\n        /* \"#utility.yul\":7598:7927   */\n      swap3\n      swap2\n      pop\n      pop\n      jump\t// out\n        /* \"#utility.yul\":7933:8023   */\n    tag_125:\n        /* \"#utility.yul\":7967:7974   */\n      0x00\n        /* \"#utility.yul\":8010:8015   */\n      dup2\n        /* \"#utility.yul\":8003:8016   */\n      iszero\n        /* \"#utility.yul\":7996:8017   */\n      iszero\n        /* \"#utility.yul\":7985:8017   */\n      swap1\n      pop\n        /* \"#utility.yul\":7933:8023   */\n      swap2\n      swap1\n      pop\n      jump\t// out\n        /* \"#utility.yul\":8029:8138   */\n    tag_126:\n        /* \"#utility.yul\":8110:8131   */\n      tag_231\n        /* \"#utility.yul\":8125:8130   */\n      dup2\n        /* \"#utility.yul\":8110:8131   */\n      tag_125\n      jump\t// in\n    tag_231:\n        /* \"#utility.yul\":8105:8108   */\n      dup3\n        /* \"#utility.yul\":8098:8132   */\n      mstore\n        /* \"#utility.yul\":8029:8138   */\n      pop\n      pop\n      jump\t// out\n        /* \"#utility.yul\":8144:8354   */\n    tag_56:\n        /* \"#utility.yul\":8231:8235   */\n      0x00\n        /* \"#utility.yul\":8269:8271   */\n      0x20\n        /* \"#utility.yul\":8258:8267   */\n      dup3\n        /* \"#utility.yul\":8254:8272   */\n      add\n        /* \"#utility.yul\":8246:8272   */\n      swap1\n      pop\n        /* \"#utility.yul\":8282:8347   */\n      tag_233\n        /* \"#utility.yul\":8344:8345   */\n      0x00\n        /* \"#utility.yul\":8333:8342   */\n      dup4\n        /* \"#utility.yul\":8329:8346   */\n      add\n        /* \"#utility.yul\":8320:8326   */\n      dup5\n        /* \"#utility.yul\":8282:8347   */\n      tag_126\n      jump\t// in\n    tag_233:\n        /* \"#utility.yul\":8144:8354   */\n      swap3\n      swap2\n      pop\n      pop\n      jump\t// out\n        /* \"#utility.yul\":8360:8540   */\n    tag_127:\n        /* \"#utility.yul\":8408:8485   */\n      0x4e487b7100000000000000000000000000000000000000000000000000000000\n        /* \"#utility.yul\":8405:8406   */\n      0x00\n        /* \"#utility.yul\":8398:8486   */\n      mstore\n        /* \"#utility.yul\":8505:8509   */\n      0x22\n        /* \"#utility.yul\":8502:8503   */\n      0x04\n        /* \"#utility.yul\":8495:8510   */\n      mstore\n        /* \"#utility.yul\":8529:8533   */\n      0x24\n        /* \"#utility.yul\":8526:8527   */\n      0x00\n        /* \"#utility.yul\":8519:8534   */\n      revert\n        /* \"#utility.yul\":8546:8866   */\n    tag_60:\n        /* \"#utility.yul\":8590:8596   */\n      0x00\n        /* \"#utility.yul\":8627:8628   */\n      0x02\n        /* \"#utility.yul\":8621:8625   */\n      dup3\n        /* \"#utility.yul\":8617:8629   */\n      div\n        /* \"#utility.yul\":8607:8629   */\n      swap1\n      pop\n        /* \"#utility.yul\":8674:8675   */\n      0x01\n        /* \"#utility.yul\":8668:8672   */\n      dup3\n        /* \"#utility.yul\":8664:8676   */\n      and\n        /* \"#utility.yul\":8695:8713   */\n      dup1\n        /* \"#utility.yul\":8685:8766   */\n      tag_236\n      jumpi\n        /* \"#utility.yul\":8751:8755   */\n      0x7f\n        /* \"#utility.yul\":8743:8749   */\n      dup3\n        /* \"#utility.yul\":8739:8756   */\n      and\n        /* \"#utility.yul\":8729:8756   */\n      swap2\n      pop\n        /* \"#utility.yul\":8685:8766   */\n    tag_236:\n        /* \"#utility.yul\":8813:8815   */\n      0x20\n        /* \"#utility.yul\":8805:8811   */\n      dup3\n        /* \"#utility.yul\":8802:8816   */\n      lt\n        /* \"#utility.yul\":8782:8800   */\n      dup2\n        /* \"#utility.yul\":8779:8817   */\n      sub\n        /* \"#utility.yul\":8776:8860   */\n      tag_237\n      jumpi\n        /* \"#utility.yul\":8832:8850   */\n      tag_238\n      tag_127\n      jump\t// in\n    tag_238:\n        /* \"#utility.yul\":8776:8860   */\n    tag_237:\n        /* \"#utility.yul\":8597:8866   */\n      pop\n        /* \"#utility.yul\":8546:8866   */\n      swap2\n      swap1\n      pop\n      jump\t// out\n        /* \"#utility.yul\":8872:9204   */\n    tag_68:\n        /* \"#utility.yul\":8993:8997   */\n      0x00\n        /* \"#utility.yul\":9031:9033   */\n      0x40\n        /* \"#utility.yul\":9020:9029   */\n      dup3\n        /* \"#utility.yul\":9016:9034   */\n      add\n        /* \"#utility.yul\":9008:9034   */\n      swap1\n      pop\n        /* \"#utility.yul\":9044:9115   */\n      tag_240\n        /* \"#utility.yul\":9112:9113   */\n      0x00\n        /* \"#utility.yul\":9101:9110   */\n      dup4\n        /* \"#utility.yul\":9097:9114   */\n      add\n        /* \"#utility.yul\":9088:9094   */\n      dup6\n        /* \"#utility.yul\":9044:9115   */\n      tag_124\n      jump\t// in\n    tag_240:\n        /* \"#utility.yul\":9125:9197   */\n      tag_241\n        /* \"#utility.yul\":9193:9195   */\n      0x20\n        /* \"#utility.yul\":9182:9191   */\n      dup4\n        /* \"#utility.yul\":9178:9196   */\n      add\n        /* \"#utility.yul\":9169:9175   */\n      dup5\n        /* \"#utility.yul\":9125:9197   */\n      tag_97\n      jump\t// in\n    tag_241:\n        /* \"#utility.yul\":8872:9204   */\n      swap4\n      swap3\n      pop\n      pop\n      pop\n      jump\t// out\n        /* \"#utility.yul\":9210:9326   */\n    tag_128:\n        /* \"#utility.yul\":9280:9301   */\n      tag_243\n        /* \"#utility.yul\":9295:9300   */\n      dup2\n        /* \"#utility.yul\":9280:9301   */\n      tag_125\n      jump\t// in\n    tag_243:\n        /* \"#utility.yul\":9273:9278   */\n      dup2\n        /* \"#utility.yul\":9270:9302   */\n      eq\n        /* \"#utility.yul\":9260:9320   */\n      tag_244\n      jumpi\n        /* \"#utility.yul\":9316:9317   */\n      0x00\n        /* \"#utility.yul\":9313:9314   */\n      0x00\n        /* \"#utility.yul\":9306:9318   */\n      revert\n        /* \"#utility.yul\":9260:9320   */\n    tag_244:\n        /* \"#utility.yul\":9210:9326   */\n      pop\n      jump\t// out\n        /* \"#utility.yul\":9332:9469   */\n    tag_129:\n        /* \"#utility.yul\":9386:9391   */\n      0x00\n        /* \"#utility.yul\":9417:9423   */\n      dup2\n        /* \"#utility.yul\":9411:9424   */\n      mload\n        /* \"#utility.yul\":9402:9424   */\n      swap1\n      pop\n        /* \"#utility.yul\":9433:9463   */\n      tag_246\n        /* \"#utility.yul\":9457:9462   */\n      dup2\n        /* \"#utility.yul\":9433:9463   */\n      tag_128\n      jump\t// in\n    tag_246:\n        /* \"#utility.yul\":9332:9469   */\n      swap3\n      swap2\n      pop\n      pop\n      jump\t// out\n        /* \"#utility.yul\":9475:9820   */\n    tag_72:\n        /* \"#utility.yul\":9542:9548   */\n      0x00\n        /* \"#utility.yul\":9591:9593   */\n      0x20\n        /* \"#utility.yul\":9579:9588   */\n      dup3\n        /* \"#utility.yul\":9570:9577   */\n      dup5\n        /* \"#utility.yul\":9566:9589   */\n      sub\n        /* \"#utility.yul\":9562:9594   */\n      slt\n        /* \"#utility.yul\":9559:9678   */\n      iszero\n      tag_248\n      jumpi\n        /* \"#utility.yul\":9597:9676   */\n      tag_249\n      tag_99\n      jump\t// in\n    tag_249:\n        /* \"#utility.yul\":9559:9678   */\n    tag_248:\n        /* \"#utility.yul\":9717:9718   */\n      0x00\n        /* \"#utility.yul\":9742:9803   */\n      tag_250\n        /* \"#utility.yul\":9795:9802   */\n      dup5\n        /* \"#utility.yul\":9786:9792   */\n      dup3\n        /* \"#utility.yul\":9775:9784   */\n      dup6\n        /* \"#utility.yul\":9771:9793   */\n      add\n        /* \"#utility.yul\":9742:9803   */\n      tag_129\n      jump\t// in\n    tag_250:\n        /* \"#utility.yul\":9732:9803   */\n      swap2\n      pop\n        /* \"#utility.yul\":9688:9813   */\n      pop\n        /* \"#utility.yul\":9475:9820   */\n      swap3\n      swap2\n      pop\n      pop\n      jump\t// out\n        /* \"#utility.yul\":9826:10006   */\n    tag_79:\n        /* \"#utility.yul\":9874:9951   */\n      0x4e487b7100000000000000000000000000000000000000000000000000000000\n        /* \"#utility.yul\":9871:9872   */\n      0x00\n        /* \"#utility.yul\":9864:9952   */\n      mstore\n        /* \"#utility.yul\":9971:9975   */\n      0x32\n        /* \"#utility.yul\":9968:9969   */\n      0x04\n        /* \"#utility.yul\":9961:9976   */\n      mstore\n        /* \"#utility.yul\":9995:9999   */\n      0x24\n        /* \"#utility.yul\":9992:9993   */\n      0x00\n        /* \"#utility.yul\":9985:10000   */\n      revert\n        /* \"#utility.yul\":10012:10160   */\n    tag_130:\n        /* \"#utility.yul\":10114:10125   */\n      0x00\n        /* \"#utility.yul\":10151:10154   */\n      dup2\n        /* \"#utility.yul\":10136:10154   */\n      swap1\n      pop\n        /* \"#utility.yul\":10012:10160   */\n      swap3\n      swap2\n      pop\n      pop\n      jump\t// out\n        /* \"#utility.yul\":10166:10307   */\n    tag_131:\n        /* \"#utility.yul\":10215:10219   */\n      0x00\n        /* \"#utility.yul\":10238:10241   */\n      dup2\n        /* \"#utility.yul\":10230:10241   */\n      swap1\n      pop\n        /* \"#utility.yul\":10261:10264   */\n      dup2\n        /* \"#utility.yul\":10258:10259   */\n      0x00\n        /* \"#utility.yul\":10251:10265   */\n      mstore\n        /* \"#utility.yul\":10295:10299   */\n      0x20\n        /* \"#utility.yul\":10292:10293   */\n      0x00\n        /* \"#utility.yul\":10282:10300   */\n      keccak256\n        /* \"#utility.yul\":10274:10300   */\n      swap1\n      pop\n        /* \"#utility.yul\":10166:10307   */\n      swap2\n      swap1\n      pop\n      jump\t// out\n        /* \"#utility.yul\":10337:11211   */\n    tag_132:\n        /* \"#utility.yul\":10440:10443   */\n      0x00\n        /* \"#utility.yul\":10477:10482   */\n      dup2\n        /* \"#utility.yul\":10471:10483   */\n      sload\n        /* \"#utility.yul\":10506:10542   */\n      tag_255\n        /* \"#utility.yul\":10532:10541   */\n      dup2\n        /* \"#utility.yul\":10506:10542   */\n      tag_60\n      jump\t// in\n    tag_255:\n        /* \"#utility.yul\":10558:10647   */\n      tag_256\n        /* \"#utility.yul\":10640:10646   */\n      dup2\n        /* \"#utility.yul\":10635:10638   */\n      dup7\n        /* \"#utility.yul\":10558:10647   */\n      tag_130\n      jump\t// in\n    tag_256:\n        /* \"#utility.yul\":10551:10647   */\n      swap5\n      pop\n        /* \"#utility.yul\":10678:10679   */\n      0x01\n        /* \"#utility.yul\":10667:10676   */\n      dup3\n        /* \"#utility.yul\":10663:10680   */\n      and\n        /* \"#utility.yul\":10694:10695   */\n      0x00\n        /* \"#utility.yul\":10689:10855   */\n      dup2\n      eq\n      tag_258\n      jumpi\n        /* \"#utility.yul\":10869:10870   */\n      0x01\n        /* \"#utility.yul\":10864:11205   */\n      dup2\n      eq\n      tag_259\n      jumpi\n        /* \"#utility.yul\":10656:11205   */\n      jump(tag_257)\n        /* \"#utility.yul\":10689:10855   */\n    tag_258:\n        /* \"#utility.yul\":10773:10777   */\n      0xff\n        /* \"#utility.yul\":10769:10778   */\n      not\n        /* \"#utility.yul\":10758:10767   */\n      dup4\n        /* \"#utility.yul\":10754:10779   */\n      and\n        /* \"#utility.yul\":10749:10752   */\n      dup7\n        /* \"#utility.yul\":10742:10780   */\n      mstore\n        /* \"#utility.yul\":10835:10841   */\n      dup2\n        /* \"#utility.yul\":10828:10842   */\n      iszero\n        /* \"#utility.yul\":10821:10843   */\n      iszero\n        /* \"#utility.yul\":10813:10819   */\n      dup3\n        /* \"#utility.yul\":10809:10844   */\n      mul\n        /* \"#utility.yul\":10804:10807   */\n      dup7\n        /* \"#utility.yul\":10800:10845   */\n      add\n        /* \"#utility.yul\":10793:10845   */\n      swap4\n      pop\n        /* \"#utility.yul\":10689:10855   */\n      jump(tag_257)\n        /* \"#utility.yul\":10864:11205   */\n    tag_259:\n        /* \"#utility.yul\":10931:10969   */\n      tag_260\n        /* \"#utility.yul\":10963:10968   */\n      dup6\n        /* \"#utility.yul\":10931:10969   */\n      tag_131\n      jump\t// in\n    tag_260:\n        /* \"#utility.yul\":10991:10992   */\n      0x00\n        /* \"#utility.yul\":11005:11159   */\n    tag_261:\n        /* \"#utility.yul\":11019:11025   */\n      dup4\n        /* \"#utility.yul\":11016:11017   */\n      dup2\n        /* \"#utility.yul\":11013:11026   */\n      lt\n        /* \"#utility.yul\":11005:11159   */\n      iszero\n      tag_263\n      jumpi\n        /* \"#utility.yul\":11093:11100   */\n      dup2\n        /* \"#utility.yul\":11087:11101   */\n      sload\n        /* \"#utility.yul\":11083:11084   */\n      dup2\n        /* \"#utility.yul\":11078:11081   */\n      dup10\n        /* \"#utility.yul\":11074:11085   */\n      add\n        /* \"#utility.yul\":11067:11102   */\n      mstore\n        /* \"#utility.yul\":11143:11144   */\n      0x01\n        /* \"#utility.yul\":11134:11141   */\n      dup3\n        /* \"#utility.yul\":11130:11145   */\n      add\n        /* \"#utility.yul\":11119:11145   */\n      swap2\n      pop\n        /* \"#utility.yul\":11041:11045   */\n      0x20\n        /* \"#utility.yul\":11038:11039   */\n      dup2\n        /* \"#utility.yul\":11034:11046   */\n      add\n        /* \"#utility.yul\":11029:11046   */\n      swap1\n      pop\n        /* \"#utility.yul\":11005:11159   */\n      jump(tag_261)\n    tag_263:\n        /* \"#utility.yul\":11188:11194   */\n      dup4\n        /* \"#utility.yul\":11183:11186   */\n      dup9\n        /* \"#utility.yul\":11179:11195   */\n      add\n        /* \"#utility.yul\":11172:11195   */\n      swap6\n      pop\n        /* \"#utility.yul\":10871:11205   */\n      pop\n      pop\n        /* \"#utility.yul\":10656:11205   */\n    tag_257:\n      pop\n        /* \"#utility.yul\":10444:11211   */\n      pop\n      pop\n        /* \"#utility.yul\":10337:11211   */\n      swap3\n      swap2\n      pop\n      pop\n      jump\t// out\n        /* \"#utility.yul\":11217:11486   */\n    tag_82:\n        /* \"#utility.yul\":11346:11349   */\n      0x00\n        /* \"#utility.yul\":11368:11460   */\n      tag_265\n        /* \"#utility.yul\":11456:11459   */\n      dup3\n        /* \"#utility.yul\":11447:11453   */\n      dup5\n        /* \"#utility.yul\":11368:11460   */\n      tag_132\n      jump\t// in\n    tag_265:\n        /* \"#utility.yul\":11361:11460   */\n      swap2\n      pop\n        /* \"#utility.yul\":11477:11480   */\n      dup2\n        /* \"#utility.yul\":11470:11480   */\n      swap1\n      pop\n        /* \"#utility.yul\":11217:11486   */\n      swap3\n      swap2\n      pop\n      pop\n      jump\t// out\n        /* \"#utility.yul\":11492:11672   */\n    tag_133:\n        /* \"#utility.yul\":11540:11617   */\n      0x4e487b7100000000000000000000000000000000000000000000000000000000\n        /* \"#utility.yul\":11537:11538   */\n      0x00\n        /* \"#utility.yul\":11530:11618   */\n      mstore\n        /* \"#utility.yul\":11637:11641   */\n      0x11\n        /* \"#utility.yul\":11634:11635   */\n      0x04\n        /* \"#utility.yul\":11627:11642   */\n      mstore\n        /* \"#utility.yul\":11661:11665   */\n      0x24\n        /* \"#utility.yul\":11658:11659   */\n      0x00\n        /* \"#utility.yul\":11651:11666   */\n      revert\n        /* \"#utility.yul\":11678:11869   */\n    tag_85:\n        /* \"#utility.yul\":11718:11721   */\n      0x00\n        /* \"#utility.yul\":11737:11757   */\n      tag_268\n        /* \"#utility.yul\":11755:11756   */\n      dup3\n        /* \"#utility.yul\":11737:11757   */\n      tag_96\n      jump\t// in\n    tag_268:\n        /* \"#utility.yul\":11732:11757   */\n      swap2\n      pop\n        /* \"#utility.yul\":11771:11791   */\n      tag_269\n        /* \"#utility.yul\":11789:11790   */\n      dup4\n        /* \"#utility.yul\":11771:11791   */\n      tag_96\n      jump\t// in\n    tag_269:\n        /* \"#utility.yul\":11766:11791   */\n      swap3\n      pop\n        /* \"#utility.yul\":11814:11815   */\n      dup3\n        /* \"#utility.yul\":11811:11812   */\n      dup3\n        /* \"#utility.yul\":11807:11816   */\n      add\n        /* \"#utility.yul\":11800:11816   */\n      swap1\n      pop\n        /* \"#utility.yul\":11835:11838   */\n      dup1\n        /* \"#utility.yul\":11832:11833   */\n      dup3\n        /* \"#utility.yul\":11829:11839   */\n      gt\n        /* \"#utility.yul\":11826:11862   */\n      iszero\n      tag_270\n      jumpi\n        /* \"#utility.yul\":11842:11860   */\n      tag_271\n      tag_133\n      jump\t// in\n    tag_271:\n        /* \"#utility.yul\":11826:11862   */\n    tag_270:\n        /* \"#utility.yul\":11678:11869   */\n      swap3\n      swap2\n      pop\n      pop\n      jump\t// out\n        /* \"#utility.yul\":11899:12229   */\n    tag_134:\n        /* \"#utility.yul\":12015:12018   */\n      0x00\n        /* \"#utility.yul\":12036:12125   */\n      tag_273\n        /* \"#utility.yul\":12118:12124   */\n      dup4\n        /* \"#utility.yul\":12113:12116   */\n      dup6\n        /* \"#utility.yul\":12036:12125   */\n      tag_130\n      jump\t// in\n    tag_273:\n        /* \"#utility.yul\":12029:12125   */\n      swap4\n      pop\n        /* \"#utility.yul\":12135:12191   */\n      tag_274\n        /* \"#utility.yul\":12184:12190   */\n      dup4\n        /* \"#utility.yul\":12179:12182   */\n      dup6\n        /* \"#utility.yul\":12172:12177   */\n      dup5\n        /* \"#utility.yul\":12135:12191   */\n      tag_121\n      jump\t// in\n    tag_274:\n        /* \"#utility.yul\":12216:12222   */\n      dup3\n        /* \"#utility.yul\":12211:12214   */\n      dup5\n        /* \"#utility.yul\":12207:12223   */\n      add\n        /* \"#utility.yul\":12200:12223   */\n      swap1\n      pop\n        /* \"#utility.yul\":11899:12229   */\n      swap4\n      swap3\n      pop\n      pop\n      pop\n      jump\t// out\n        /* \"#utility.yul\":12235:12530   */\n    tag_88:\n        /* \"#utility.yul\":12377:12380   */\n      0x00\n        /* \"#utility.yul\":12399:12504   */\n      tag_276\n        /* \"#utility.yul\":12500:12503   */\n      dup3\n        /* \"#utility.yul\":12491:12497   */\n      dup5\n        /* \"#utility.yul\":12483:12489   */\n      dup7\n        /* \"#utility.yul\":12399:12504   */\n      tag_134\n      jump\t// in\n    tag_276:\n        /* \"#utility.yul\":12392:12504   */\n      swap2\n      pop\n        /* \"#utility.yul\":12521:12524   */\n      dup2\n        /* \"#utility.yul\":12514:12524   */\n      swap1\n      pop\n        /* \"#utility.yul\":12235:12530   */\n      swap4\n      swap3\n      pop\n      pop\n      pop\n      jump\t// out\n        /* \"#utility.yul\":12536:12714   */\n    tag_135:\n        /* \"#utility.yul\":12676:12706   */\n      0x54686973206c6963656e7365206973206e6f7420616c6c6f7765642e00000000\n        /* \"#utility.yul\":12672:12673   */\n      0x00\n        /* \"#utility.yul\":12664:12670   */\n      dup3\n        /* \"#utility.yul\":12660:12674   */\n      add\n        /* \"#utility.yul\":12653:12707   */\n      mstore\n        /* \"#utility.yul\":12536:12714   */\n      pop\n      jump\t// out\n        /* \"#utility.yul\":12720:13086   */\n    tag_136:\n        /* \"#utility.yul\":12862:12865   */\n      0x00\n        /* \"#utility.yul\":12883:12950   */\n      tag_279\n        /* \"#utility.yul\":12947:12949   */\n      0x1c\n        /* \"#utility.yul\":12942:12945   */\n      dup4\n        /* \"#utility.yul\":12883:12950   */\n      tag_104\n      jump\t// in\n    tag_279:\n        /* \"#utility.yul\":12876:12950   */\n      swap2\n      pop\n        /* \"#utility.yul\":12959:13052   */\n      tag_280\n        /* \"#utility.yul\":13048:13051   */\n      dup3\n        /* \"#utility.yul\":12959:13052   */\n      tag_135\n      jump\t// in\n    tag_280:\n        /* \"#utility.yul\":13077:13079   */\n      0x20\n        /* \"#utility.yul\":13072:13075   */\n      dup3\n        /* \"#utility.yul\":13068:13080   */\n      add\n        /* \"#utility.yul\":13061:13080   */\n      swap1\n      pop\n        /* \"#utility.yul\":12720:13086   */\n      swap2\n      swap1\n      pop\n      jump\t// out\n        /* \"#utility.yul\":13092:13511   */\n    tag_91:\n        /* \"#utility.yul\":13258:13262   */\n      0x00\n        /* \"#utility.yul\":13296:13298   */\n      0x20\n        /* \"#utility.yul\":13285:13294   */\n      dup3\n        /* \"#utility.yul\":13281:13299   */\n      add\n        /* \"#utility.yul\":13273:13299   */\n      swap1\n      pop\n        /* \"#utility.yul\":13345:13354   */\n      dup2\n        /* \"#utility.yul\":13339:13343   */\n      dup2\n        /* \"#utility.yul\":13335:13355   */\n      sub\n        /* \"#utility.yul\":13331:13332   */\n      0x00\n        /* \"#utility.yul\":13320:13329   */\n      dup4\n        /* \"#utility.yul\":13316:13333   */\n      add\n        /* \"#utility.yul\":13309:13356   */\n      mstore\n        /* \"#utility.yul\":13373:13504   */\n      tag_282\n        /* \"#utility.yul\":13499:13503   */\n      dup2\n        /* \"#utility.yul\":13373:13504   */\n      tag_136\n      jump\t// in\n    tag_282:\n        /* \"#utility.yul\":13365:13504   */\n      swap1\n      pop\n        /* \"#utility.yul\":13092:13511   */\n      swap2\n      swap1\n      pop\n      jump\t// out\n\n    auxdata: 0xa2646970667358221220c3647f43cecb7bae1e161aa9d5d8a4b396d73f304a00e83d225bccf1afb9051c64736f6c634300081c0033\n}\n",
				"bytecode": {
					"linkReferences": {},
					"object": "608060405234801561000f575f5ffd5b50604051610f12380380610f12833981810160405281019061003191906100d4565b805f5f6101000a81548173ffffffffffffffffffffffffffffffffffffffff021916908373ffffffffffffffffffffffffffffffffffffffff160217905550506100ff565b5f5ffd5b5f73ffffffffffffffffffffffffffffffffffffffff82169050919050565b5f6100a38261007a565b9050919050565b6100b381610099565b81146100bd575f5ffd5b50565b5f815190506100ce816100aa565b92915050565b5f602082840312156100e9576100e8610076565b5b5f6100f6848285016100c0565b91505092915050565b610e068061010c5f395ff3fe608060405260043610610085575f3560e01c80635ee58efc116100585780635ee58efc1461012357806378a55b1d1461013957806391d1e30314610161578063a02c1eda1461019d578063d76db139146101d957610085565b8063228cb7331461008957806333790845146100b35780633d18b912146100ef5780634e71d92d14610119575b5f5ffd5b348015610094575f5ffd5b5061009d610215565b6040516100aa91906106f8565b60405180910390f35b3480156100be575f5ffd5b506100d960048036038101906100d4919061074c565b61021b565b6040516100e691906107e7565b60405180910390f35b3480156100fa575f5ffd5b506101036102c1565b60405161011091906106f8565b60405180910390f35b610121610305565b005b34801561012e575f5ffd5b506101376103e0565b005b348015610144575f5ffd5b5061015f600480360381019061015a91906108c2565b6104e8565b005b34801561016c575f5ffd5b5061018760048036038101906101829190610a47565b61064e565b6040516101949190610a9d565b60405180910390f35b3480156101a8575f5ffd5b506101c360048036038101906101be9190610ab6565b610696565b6040516101d091906106f8565b60405180910390f35b3480156101e4575f5ffd5b506101ff60048036038101906101fa9190610a47565b6106ab565b60405161020c9190610afb565b60405180910390f35b60015481565b6002818154811061022a575f80fd5b905f5260205f20015f91509050805461024290610b41565b80601f016020809104026020016040519081016040528092919081815260200182805461026e90610b41565b80156102b95780601f10610290576101008083540402835291602001916102b9565b820191905f5260205f20905b81548152906001019060200180831161029c57829003601f168201915b505050505081565b5f60045f3373ffffffffffffffffffffffffffffffffffffffff1673ffffffffffffffffffffffffffffffffffffffff1681526020019081526020015f2054905090565b5f5f9054906101000a900473ffffffffffffffffffffffffffffffffffffffff1673ffffffffffffffffffffffffffffffffffffffff1663a9059cbb3360045f3373ffffffffffffffffffffffffffffffffffffffff1673ffffffffffffffffffffffffffffffffffffffff1681526020019081526020015f20546040518363ffffffff1660e01b815260040161039d929190610b71565b6020604051808303815f875af11580156103b9573d5f5f3e3d5ffd5b505050506040513d601f19601f820116820180604052508101906103dd9190610bc2565b50565b5f5f90505b6002805490508110156104e5575f60056002838154811061040957610408610bed565b5b905f5260205f200160405161041e9190610cb6565b90815260200160405180910390205f9054906101000a900473ffffffffffffffffffffffffffffffffffffffff1690505f73ffffffffffffffffffffffffffffffffffffffff168173ffffffffffffffffffffffffffffffffffffffff16146104d75760015460045f8373ffffffffffffffffffffffffffffffffffffffff1673ffffffffffffffffffffffffffffffffffffffff1681526020019081526020015f205f8282546104cf9190610cf9565b925050819055505b5080806001019150506103e5565b50565b600383836040516104fa929190610d50565b90815260200160405180910390205f9054906101000a900460ff16610554576040517f08c379a000000000000000000000000000000000000000000000000000000000815260040161054b90610db2565b60405180910390fd5b5f73ffffffffffffffffffffffffffffffffffffffff168173ffffffffffffffffffffffffffffffffffffffff16036105ea57336005848460405161059a929190610d50565b90815260200160405180910390205f6101000a81548173ffffffffffffffffffffffffffffffffffffffff021916908373ffffffffffffffffffffffffffffffffffffffff160217905550610649565b80600584846040516105fd929190610d50565b90815260200160405180910390205f6101000a81548173ffffffffffffffffffffffffffffffffffffffff021916908373ffffffffffffffffffffffffffffffffffffffff1602179055505b505050565b6005818051602081018201805184825260208301602085012081835280955050505050505f915054906101000a900473ffffffffffffffffffffffffffffffffffffffff1681565b6004602052805f5260405f205f915090505481565b6003818051602081018201805184825260208301602085012081835280955050505050505f915054906101000a900460ff1681565b5f819050919050565b6106f2816106e0565b82525050565b5f60208201905061070b5f8301846106e9565b92915050565b5f604051905090565b5f5ffd5b5f5ffd5b61072b816106e0565b8114610735575f5ffd5b50565b5f8135905061074681610722565b92915050565b5f602082840312156107615761076061071a565b5b5f61076e84828501610738565b91505092915050565b5f81519050919050565b5f82825260208201905092915050565b8281835e5f83830152505050565b5f601f19601f8301169050919050565b5f6107b982610777565b6107c38185610781565b93506107d3818560208601610791565b6107dc8161079f565b840191505092915050565b5f6020820190508181035f8301526107ff81846107af565b905092915050565b5f5ffd5b5f5ffd5b5f5ffd5b5f5f83601f84011261082857610827610807565b5b8235905067ffffffffffffffff8111156108455761084461080b565b5b6020830191508360018202830111156108615761086061080f565b5b9250929050565b5f73ffffffffffffffffffffffffffffffffffffffff82169050919050565b5f61089182610868565b9050919050565b6108a181610887565b81146108ab575f5ffd5b50565b5f813590506108bc81610898565b92915050565b5f5f5f604084860312156108d9576108d861071a565b5b5f84013567ffffffffffffffff8111156108f6576108f561071e565b5b61090286828701610813565b93509350506020610915868287016108ae565b9150509250925092565b5f5ffd5b7f4e487b71000000000000000000000000000000000000000000000000000000005f52604160045260245ffd5b6109598261079f565b810181811067ffffffffffffffff8211171561097857610977610923565b5b80604052505050565b5f61098a610711565b90506109968282610950565b919050565b5f67ffffffffffffffff8211156109b5576109b4610923565b5b6109be8261079f565b9050602081019050919050565b828183375f83830152505050565b5f6109eb6109e68461099b565b610981565b905082815260208101848484011115610a0757610a0661091f565b5b610a128482856109cb565b509392505050565b5f82601f830112610a2e57610a2d610807565b5b8135610a3e8482602086016109d9565b91505092915050565b5f60208284031215610a5c57610a5b61071a565b5b5f82013567ffffffffffffffff811115610a7957610a7861071e565b5b610a8584828501610a1a565b91505092915050565b610a9781610887565b82525050565b5f602082019050610ab05f830184610a8e565b92915050565b5f60208284031215610acb57610aca61071a565b5b5f610ad8848285016108ae565b91505092915050565b5f8115159050919050565b610af581610ae1565b82525050565b5f602082019050610b0e5f830184610aec565b92915050565b7f4e487b71000000000000000000000000000000000000000000000000000000005f52602260045260245ffd5b5f6002820490506001821680610b5857607f821691505b602082108103610b6b57610b6a610b14565b5b50919050565b5f604082019050610b845f830185610a8e565b610b9160208301846106e9565b9392505050565b610ba181610ae1565b8114610bab575f5ffd5b50565b5f81519050610bbc81610b98565b92915050565b5f60208284031215610bd757610bd661071a565b5b5f610be484828501610bae565b91505092915050565b7f4e487b71000000000000000000000000000000000000000000000000000000005f52603260045260245ffd5b5f81905092915050565b5f819050815f5260205f209050919050565b5f8154610c4281610b41565b610c4c8186610c1a565b9450600182165f8114610c665760018114610c7b57610cad565b60ff1983168652811515820286019350610cad565b610c8485610c24565b5f5b83811015610ca557815481890152600182019150602081019050610c86565b838801955050505b50505092915050565b5f610cc18284610c36565b915081905092915050565b7f4e487b71000000000000000000000000000000000000000000000000000000005f52601160045260245ffd5b5f610d03826106e0565b9150610d0e836106e0565b9250828201905080821115610d2657610d25610ccc565b5b92915050565b5f610d378385610c1a565b9350610d448385846109cb565b82840190509392505050565b5f610d5c828486610d2c565b91508190509392505050565b7f54686973206c6963656e7365206973206e6f7420616c6c6f7765642e000000005f82015250565b5f610d9c601c83610781565b9150610da782610d68565b602082019050919050565b5f6020820190508181035f830152610dc981610d90565b905091905056fea2646970667358221220c3647f43cecb7bae1e161aa9d5d8a4b396d73f304a00e83d225bccf1afb9051c64736f6c634300081c0033",
					"opcodes": "PUSH1 0x80 PUSH1 0x40 MSTORE CALLVALUE DUP1 ISZERO PUSH2 0xF JUMPI PUSH0 PUSH0 REVERT JUMPDEST POP PUSH1 0x40 MLOAD PUSH2 0xF12 CODESIZE SUB DUP1 PUSH2 0xF12 DUP4 CODECOPY DUP2 DUP2 ADD PUSH1 0x40 MSTORE DUP2 ADD SWAP1 PUSH2 0x31 SWAP2 SWAP1 PUSH2 0xD4 JUMP JUMPDEST DUP1 PUSH0 PUSH0 PUSH2 0x100 EXP DUP2 SLOAD DUP2 PUSH20 0xFFFFFFFFFFFFFFFFFFFFFFFFFFFFFFFFFFFFFFFF MUL NOT AND SWAP1 DUP4 PUSH20 0xFFFFFFFFFFFFFFFFFFFFFFFFFFFFFFFFFFFFFFFF AND MUL OR SWAP1 SSTORE POP POP PUSH2 0xFF JUMP JUMPDEST PUSH0 PUSH0 REVERT JUMPDEST PUSH0 PUSH20 0xFFFFFFFFFFFFFFFFFFFFFFFFFFFFFFFFFFFFFFFF DUP3 AND SWAP1 POP SWAP2 SWAP1 POP JUMP JUMPDEST PUSH0 PUSH2 0xA3 DUP3 PUSH2 0x7A JUMP JUMPDEST SWAP1 POP SWAP2 SWAP1 POP JUMP JUMPDEST PUSH2 0xB3 DUP2 PUSH2 0x99 JUMP JUMPDEST DUP2 EQ PUSH2 0xBD JUMPI PUSH0 PUSH0 REVERT JUMPDEST POP JUMP JUMPDEST PUSH0 DUP2 MLOAD SWAP1 POP PUSH2 0xCE DUP2 PUSH2 0xAA JUMP JUMPDEST SWAP3 SWAP2 POP POP JUMP JUMPDEST PUSH0 PUSH1 0x20 DUP3 DUP5 SUB SLT ISZERO PUSH2 0xE9 JUMPI PUSH2 0xE8 PUSH2 0x76 JUMP JUMPDEST JUMPDEST PUSH0 PUSH2 0xF6 DUP5 DUP3 DUP6 ADD PUSH2 0xC0 JUMP JUMPDEST SWAP2 POP POP SWAP3 SWAP2 POP POP JUMP JUMPDEST PUSH2 0xE06 DUP1 PUSH2 0x10C PUSH0 CODECOPY PUSH0 RETURN INVALID PUSH1 0x80 PUSH1 0x40 MSTORE PUSH1 0x4 CALLDATASIZE LT PUSH2 0x85 JUMPI PUSH0 CALLDATALOAD PUSH1 0xE0 SHR DUP1 PUSH4 0x5EE58EFC GT PUSH2 0x58 JUMPI DUP1 PUSH4 0x5EE58EFC EQ PUSH2 0x123 JUMPI DUP1 PUSH4 0x78A55B1D EQ PUSH2 0x139 JUMPI DUP1 PUSH4 0x91D1E303 EQ PUSH2 0x161 JUMPI DUP1 PUSH4 0xA02C1EDA EQ PUSH2 0x19D JUMPI DUP1 PUSH4 0xD76DB139 EQ PUSH2 0x1D9 JUMPI PUSH2 0x85 JUMP JUMPDEST DUP1 PUSH4 0x228CB733 EQ PUSH2 0x89 JUMPI DUP1 PUSH4 0x33790845 EQ PUSH2 0xB3 JUMPI DUP1 PUSH4 0x3D18B912 EQ PUSH2 0xEF JUMPI DUP1 PUSH4 0x4E71D92D EQ PUSH2 0x119 JUMPI JUMPDEST PUSH0 PUSH0 REVERT JUMPDEST CALLVALUE DUP1 ISZERO PUSH2 0x94 JUMPI PUSH0 PUSH0 REVERT JUMPDEST POP PUSH2 0x9D PUSH2 0x215 JUMP JUMPDEST PUSH1 0x40 MLOAD PUSH2 0xAA SWAP2 SWAP1 PUSH2 0x6F8 JUMP JUMPDEST PUSH1 0x40 MLOAD DUP1 SWAP2 SUB SWAP1 RETURN JUMPDEST CALLVALUE DUP1 ISZERO PUSH2 0xBE JUMPI PUSH0 PUSH0 REVERT JUMPDEST POP PUSH2 0xD9 PUSH1 0x4 DUP1 CALLDATASIZE SUB DUP2 ADD SWAP1 PUSH2 0xD4 SWAP2 SWAP1 PUSH2 0x74C JUMP JUMPDEST PUSH2 0x21B JUMP JUMPDEST PUSH1 0x40 MLOAD PUSH2 0xE6 SWAP2 SWAP1 PUSH2 0x7E7 JUMP JUMPDEST PUSH1 0x40 MLOAD DUP1 SWAP2 SUB SWAP1 RETURN JUMPDEST CALLVALUE DUP1 ISZERO PUSH2 0xFA JUMPI PUSH0 PUSH0 REVERT JUMPDEST POP PUSH2 0x103 PUSH2 0x2C1 JUMP JUMPDEST PUSH1 0x40 MLOAD PUSH2 0x110 SWAP2 SWAP1 PUSH2 0x6F8 JUMP JUMPDEST PUSH1 0x40 MLOAD DUP1 SWAP2 SUB SWAP1 RETURN JUMPDEST PUSH2 0x121 PUSH2 0x305 JUMP JUMPDEST STOP JUMPDEST CALLVALUE DUP1 ISZERO PUSH2 0x12E JUMPI PUSH0 PUSH0 REVERT JUMPDEST POP PUSH2 0x137 PUSH2 0x3E0 JUMP JUMPDEST STOP JUMPDEST CALLVALUE DUP1 ISZERO PUSH2 0x144 JUMPI PUSH0 PUSH0 REVERT JUMPDEST POP PUSH2 0x15F PUSH1 0x4 DUP1 CALLDATASIZE SUB DUP2 ADD SWAP1 PUSH2 0x15A SWAP2 SWAP1 PUSH2 0x8C2 JUMP JUMPDEST PUSH2 0x4E8 JUMP JUMPDEST STOP JUMPDEST CALLVALUE DUP1 ISZERO PUSH2 0x16C JUMPI PUSH0 PUSH0 REVERT JUMPDEST POP PUSH2 0x187 PUSH1 0x4 DUP1 CALLDATASIZE SUB DUP2 ADD SWAP1 PUSH2 0x182 SWAP2 SWAP1 PUSH2 0xA47 JUMP JUMPDEST PUSH2 0x64E JUMP JUMPDEST PUSH1 0x40 MLOAD PUSH2 0x194 SWAP2 SWAP1 PUSH2 0xA9D JUMP JUMPDEST PUSH1 0x40 MLOAD DUP1 SWAP2 SUB SWAP1 RETURN JUMPDEST CALLVALUE DUP1 ISZERO PUSH2 0x1A8 JUMPI PUSH0 PUSH0 REVERT JUMPDEST POP PUSH2 0x1C3 PUSH1 0x4 DUP1 CALLDATASIZE SUB DUP2 ADD SWAP1 PUSH2 0x1BE SWAP2 SWAP1 PUSH2 0xAB6 JUMP JUMPDEST PUSH2 0x696 JUMP JUMPDEST PUSH1 0x40 MLOAD PUSH2 0x1D0 SWAP2 SWAP1 PUSH2 0x6F8 JUMP JUMPDEST PUSH1 0x40 MLOAD DUP1 SWAP2 SUB SWAP1 RETURN JUMPDEST CALLVALUE DUP1 ISZERO PUSH2 0x1E4 JUMPI PUSH0 PUSH0 REVERT JUMPDEST POP PUSH2 0x1FF PUSH1 0x4 DUP1 CALLDATASIZE SUB DUP2 ADD SWAP1 PUSH2 0x1FA SWAP2 SWAP1 PUSH2 0xA47 JUMP JUMPDEST PUSH2 0x6AB JUMP JUMPDEST PUSH1 0x40 MLOAD PUSH2 0x20C SWAP2 SWAP1 PUSH2 0xAFB JUMP JUMPDEST PUSH1 0x40 MLOAD DUP1 SWAP2 SUB SWAP1 RETURN JUMPDEST PUSH1 0x1 SLOAD DUP2 JUMP JUMPDEST PUSH1 0x2 DUP2 DUP2 SLOAD DUP2 LT PUSH2 0x22A JUMPI PUSH0 DUP1 REVERT JUMPDEST SWAP1 PUSH0 MSTORE PUSH1 0x20 PUSH0 KECCAK256 ADD PUSH0 SWAP2 POP SWAP1 POP DUP1 SLOAD PUSH2 0x242 SWAP1 PUSH2 0xB41 JUMP JUMPDEST DUP1 PUSH1 0x1F ADD PUSH1 0x20 DUP1 SWAP2 DIV MUL PUSH1 0x20 ADD PUSH1 0x40 MLOAD SWAP1 DUP2 ADD PUSH1 0x40 MSTORE DUP1 SWAP3 SWAP2 SWAP1 DUP2 DUP2 MSTORE PUSH1 0x20 ADD DUP3 DUP1 SLOAD PUSH2 0x26E SWAP1 PUSH2 0xB41 JUMP JUMPDEST DUP1 ISZERO PUSH2 0x2B9 JUMPI DUP1 PUSH1 0x1F LT PUSH2 0x290 JUMPI PUSH2 0x100 DUP1 DUP4 SLOAD DIV MUL DUP4 MSTORE SWAP2 PUSH1 0x20 ADD SWAP2 PUSH2 0x2B9 JUMP JUMPDEST DUP3 ADD SWAP2 SWAP1 PUSH0 MSTORE PUSH1 0x20 PUSH0 KECCAK256 SWAP1 JUMPDEST DUP2 SLOAD DUP2 MSTORE SWAP1 PUSH1 0x1 ADD SWAP1 PUSH1 0x20 ADD DUP1 DUP4 GT PUSH2 0x29C JUMPI DUP3 SWAP1 SUB PUSH1 0x1F AND DUP3 ADD SWAP2 JUMPDEST POP POP POP POP POP DUP2 JUMP JUMPDEST PUSH0 PUSH1 0x4 PUSH0 CALLER PUSH20 0xFFFFFFFFFFFFFFFFFFFFFFFFFFFFFFFFFFFFFFFF AND PUSH20 0xFFFFFFFFFFFFFFFFFFFFFFFFFFFFFFFFFFFFFFFF AND DUP2 MSTORE PUSH1 0x20 ADD SWAP1 DUP2 MSTORE PUSH1 0x20 ADD PUSH0 KECCAK256 SLOAD SWAP1 POP SWAP1 JUMP JUMPDEST PUSH0 PUSH0 SWAP1 SLOAD SWAP1 PUSH2 0x100 EXP SWAP1 DIV PUSH20 0xFFFFFFFFFFFFFFFFFFFFFFFFFFFFFFFFFFFFFFFF AND PUSH20 0xFFFFFFFFFFFFFFFFFFFFFFFFFFFFFFFFFFFFFFFF AND PUSH4 0xA9059CBB CALLER PUSH1 0x4 PUSH0 CALLER PUSH20 0xFFFFFFFFFFFFFFFFFFFFFFFFFFFFFFFFFFFFFFFF AND PUSH20 0xFFFFFFFFFFFFFFFFFFFFFFFFFFFFFFFFFFFFFFFF AND DUP2 MSTORE PUSH1 0x20 ADD SWAP1 DUP2 MSTORE PUSH1 0x20 ADD PUSH0 KECCAK256 SLOAD PUSH1 0x40 MLOAD DUP4 PUSH4 0xFFFFFFFF AND PUSH1 0xE0 SHL DUP2 MSTORE PUSH1 0x4 ADD PUSH2 0x39D SWAP3 SWAP2 SWAP1 PUSH2 0xB71 JUMP JUMPDEST PUSH1 0x20 PUSH1 0x40 MLOAD DUP1 DUP4 SUB DUP2 PUSH0 DUP8 GAS CALL ISZERO DUP1 ISZERO PUSH2 0x3B9 JUMPI RETURNDATASIZE PUSH0 PUSH0 RETURNDATACOPY RETURNDATASIZE PUSH0 REVERT JUMPDEST POP POP POP POP PUSH1 0x40 MLOAD RETURNDATASIZE PUSH1 0x1F NOT PUSH1 0x1F DUP3 ADD AND DUP3 ADD DUP1 PUSH1 0x40 MSTORE POP DUP2 ADD SWAP1 PUSH2 0x3DD SWAP2 SWAP1 PUSH2 0xBC2 JUMP JUMPDEST POP JUMP JUMPDEST PUSH0 PUSH0 SWAP1 POP JUMPDEST PUSH1 0x2 DUP1 SLOAD SWAP1 POP DUP2 LT ISZERO PUSH2 0x4E5 JUMPI PUSH0 PUSH1 0x5 PUSH1 0x2 DUP4 DUP2 SLOAD DUP2 LT PUSH2 0x409 JUMPI PUSH2 0x408 PUSH2 0xBED JUMP JUMPDEST JUMPDEST SWAP1 PUSH0 MSTORE PUSH1 0x20 PUSH0 KECCAK256 ADD PUSH1 0x40 MLOAD PUSH2 0x41E SWAP2 SWAP1 PUSH2 0xCB6 JUMP JUMPDEST SWAP1 DUP2 MSTORE PUSH1 0x20 ADD PUSH1 0x40 MLOAD DUP1 SWAP2 SUB SWAP1 KECCAK256 PUSH0 SWAP1 SLOAD SWAP1 PUSH2 0x100 EXP SWAP1 DIV PUSH20 0xFFFFFFFFFFFFFFFFFFFFFFFFFFFFFFFFFFFFFFFF AND SWAP1 POP PUSH0 PUSH20 0xFFFFFFFFFFFFFFFFFFFFFFFFFFFFFFFFFFFFFFFF AND DUP2 PUSH20 0xFFFFFFFFFFFFFFFFFFFFFFFFFFFFFFFFFFFFFFFF AND EQ PUSH2 0x4D7 JUMPI PUSH1 0x1 SLOAD PUSH1 0x4 PUSH0 DUP4 PUSH20 0xFFFFFFFFFFFFFFFFFFFFFFFFFFFFFFFFFFFFFFFF AND PUSH20 0xFFFFFFFFFFFFFFFFFFFFFFFFFFFFFFFFFFFFFFFF AND DUP2 MSTORE PUSH1 0x20 ADD SWAP1 DUP2 MSTORE PUSH1 0x20 ADD PUSH0 KECCAK256 PUSH0 DUP3 DUP3 SLOAD PUSH2 0x4CF SWAP2 SWAP1 PUSH2 0xCF9 JUMP JUMPDEST SWAP3 POP POP DUP2 SWAP1 SSTORE POP JUMPDEST POP DUP1 DUP1 PUSH1 0x1 ADD SWAP2 POP POP PUSH2 0x3E5 JUMP JUMPDEST POP JUMP JUMPDEST PUSH1 0x3 DUP4 DUP4 PUSH1 0x40 MLOAD PUSH2 0x4FA SWAP3 SWAP2 SWAP1 PUSH2 0xD50 JUMP JUMPDEST SWAP1 DUP2 MSTORE PUSH1 0x20 ADD PUSH1 0x40 MLOAD DUP1 SWAP2 SUB SWAP1 KECCAK256 PUSH0 SWAP1 SLOAD SWAP1 PUSH2 0x100 EXP SWAP1 DIV PUSH1 0xFF AND PUSH2 0x554 JUMPI PUSH1 0x40 MLOAD PUSH32 0x8C379A000000000000000000000000000000000000000000000000000000000 DUP2 MSTORE PUSH1 0x4 ADD PUSH2 0x54B SWAP1 PUSH2 0xDB2 JUMP JUMPDEST PUSH1 0x40 MLOAD DUP1 SWAP2 SUB SWAP1 REVERT JUMPDEST PUSH0 PUSH20 0xFFFFFFFFFFFFFFFFFFFFFFFFFFFFFFFFFFFFFFFF AND DUP2 PUSH20 0xFFFFFFFFFFFFFFFFFFFFFFFFFFFFFFFFFFFFFFFF AND SUB PUSH2 0x5EA JUMPI CALLER PUSH1 0x5 DUP5 DUP5 PUSH1 0x40 MLOAD PUSH2 0x59A SWAP3 SWAP2 SWAP1 PUSH2 0xD50 JUMP JUMPDEST SWAP1 DUP2 MSTORE PUSH1 0x20 ADD PUSH1 0x40 MLOAD DUP1 SWAP2 SUB SWAP1 KECCAK256 PUSH0 PUSH2 0x100 EXP DUP2 SLOAD DUP2 PUSH20 0xFFFFFFFFFFFFFFFFFFFFFFFFFFFFFFFFFFFFFFFF MUL NOT AND SWAP1 DUP4 PUSH20 0xFFFFFFFFFFFFFFFFFFFFFFFFFFFFFFFFFFFFFFFF AND MUL OR SWAP1 SSTORE POP PUSH2 0x649 JUMP JUMPDEST DUP1 PUSH1 0x5 DUP5 DUP5 PUSH1 0x40 MLOAD PUSH2 0x5FD SWAP3 SWAP2 SWAP1 PUSH2 0xD50 JUMP JUMPDEST SWAP1 DUP2 MSTORE PUSH1 0x20 ADD PUSH1 0x40 MLOAD DUP1 SWAP2 SUB SWAP1 KECCAK256 PUSH0 PUSH2 0x100 EXP DUP2 SLOAD DUP2 PUSH20 0xFFFFFFFFFFFFFFFFFFFFFFFFFFFFFFFFFFFFFFFF MUL NOT AND SWAP1 DUP4 PUSH20 0xFFFFFFFFFFFFFFFFFFFFFFFFFFFFFFFFFFFFFFFF AND MUL OR SWAP1 SSTORE POP JUMPDEST POP POP POP JUMP JUMPDEST PUSH1 0x5 DUP2 DUP1 MLOAD PUSH1 0x20 DUP2 ADD DUP3 ADD DUP1 MLOAD DUP5 DUP3 MSTORE PUSH1 0x20 DUP4 ADD PUSH1 0x20 DUP6 ADD KECCAK256 DUP2 DUP4 MSTORE DUP1 SWAP6 POP POP POP POP POP POP PUSH0 SWAP2 POP SLOAD SWAP1 PUSH2 0x100 EXP SWAP1 DIV PUSH20 0xFFFFFFFFFFFFFFFFFFFFFFFFFFFFFFFFFFFFFFFF AND DUP2 JUMP JUMPDEST PUSH1 0x4 PUSH1 0x20 MSTORE DUP1 PUSH0 MSTORE PUSH1 0x40 PUSH0 KECCAK256 PUSH0 SWAP2 POP SWAP1 POP SLOAD DUP2 JUMP JUMPDEST PUSH1 0x3 DUP2 DUP1 MLOAD PUSH1 0x20 DUP2 ADD DUP3 ADD DUP1 MLOAD DUP5 DUP3 MSTORE PUSH1 0x20 DUP4 ADD PUSH1 0x20 DUP6 ADD KECCAK256 DUP2 DUP4 MSTORE DUP1 SWAP6 POP POP POP POP POP POP PUSH0 SWAP2 POP SLOAD SWAP1 PUSH2 0x100 EXP SWAP1 DIV PUSH1 0xFF AND DUP2 JUMP JUMPDEST PUSH0 DUP2 SWAP1 POP SWAP2 SWAP1 POP JUMP JUMPDEST PUSH2 0x6F2 DUP2 PUSH2 0x6E0 JUMP JUMPDEST DUP3 MSTORE POP POP JUMP JUMPDEST PUSH0 PUSH1 0x20 DUP3 ADD SWAP1 POP PUSH2 0x70B PUSH0 DUP4 ADD DUP5 PUSH2 0x6E9 JUMP JUMPDEST SWAP3 SWAP2 POP POP JUMP JUMPDEST PUSH0 PUSH1 0x40 MLOAD SWAP1 POP SWAP1 JUMP JUMPDEST PUSH0 PUSH0 REVERT JUMPDEST PUSH0 PUSH0 REVERT JUMPDEST PUSH2 0x72B DUP2 PUSH2 0x6E0 JUMP JUMPDEST DUP2 EQ PUSH2 0x735 JUMPI PUSH0 PUSH0 REVERT JUMPDEST POP JUMP JUMPDEST PUSH0 DUP2 CALLDATALOAD SWAP1 POP PUSH2 0x746 DUP2 PUSH2 0x722 JUMP JUMPDEST SWAP3 SWAP2 POP POP JUMP JUMPDEST PUSH0 PUSH1 0x20 DUP3 DUP5 SUB SLT ISZERO PUSH2 0x761 JUMPI PUSH2 0x760 PUSH2 0x71A JUMP JUMPDEST JUMPDEST PUSH0 PUSH2 0x76E DUP5 DUP3 DUP6 ADD PUSH2 0x738 JUMP JUMPDEST SWAP2 POP POP SWAP3 SWAP2 POP POP JUMP JUMPDEST PUSH0 DUP2 MLOAD SWAP1 POP SWAP2 SWAP1 POP JUMP JUMPDEST PUSH0 DUP3 DUP3 MSTORE PUSH1 0x20 DUP3 ADD SWAP1 POP SWAP3 SWAP2 POP POP JUMP JUMPDEST DUP3 DUP2 DUP4 MCOPY PUSH0 DUP4 DUP4 ADD MSTORE POP POP POP JUMP JUMPDEST PUSH0 PUSH1 0x1F NOT PUSH1 0x1F DUP4 ADD AND SWAP1 POP SWAP2 SWAP1 POP JUMP JUMPDEST PUSH0 PUSH2 0x7B9 DUP3 PUSH2 0x777 JUMP JUMPDEST PUSH2 0x7C3 DUP2 DUP6 PUSH2 0x781 JUMP JUMPDEST SWAP4 POP PUSH2 0x7D3 DUP2 DUP6 PUSH1 0x20 DUP7 ADD PUSH2 0x791 JUMP JUMPDEST PUSH2 0x7DC DUP2 PUSH2 0x79F JUMP JUMPDEST DUP5 ADD SWAP2 POP POP SWAP3 SWAP2 POP POP JUMP JUMPDEST PUSH0 PUSH1 0x20 DUP3 ADD SWAP1 POP DUP2 DUP2 SUB PUSH0 DUP4 ADD MSTORE PUSH2 0x7FF DUP2 DUP5 PUSH2 0x7AF JUMP JUMPDEST SWAP1 POP SWAP3 SWAP2 POP POP JUMP JUMPDEST PUSH0 PUSH0 REVERT JUMPDEST PUSH0 PUSH0 REVERT JUMPDEST PUSH0 PUSH0 REVERT JUMPDEST PUSH0 PUSH0 DUP4 PUSH1 0x1F DUP5 ADD SLT PUSH2 0x828 JUMPI PUSH2 0x827 PUSH2 0x807 JUMP JUMPDEST JUMPDEST DUP3 CALLDATALOAD SWAP1 POP PUSH8 0xFFFFFFFFFFFFFFFF DUP2 GT ISZERO PUSH2 0x845 JUMPI PUSH2 0x844 PUSH2 0x80B JUMP JUMPDEST JUMPDEST PUSH1 0x20 DUP4 ADD SWAP2 POP DUP4 PUSH1 0x1 DUP3 MUL DUP4 ADD GT ISZERO PUSH2 0x861 JUMPI PUSH2 0x860 PUSH2 0x80F JUMP JUMPDEST JUMPDEST SWAP3 POP SWAP3 SWAP1 POP JUMP JUMPDEST PUSH0 PUSH20 0xFFFFFFFFFFFFFFFFFFFFFFFFFFFFFFFFFFFFFFFF DUP3 AND SWAP1 POP SWAP2 SWAP1 POP JUMP JUMPDEST PUSH0 PUSH2 0x891 DUP3 PUSH2 0x868 JUMP JUMPDEST SWAP1 POP SWAP2 SWAP1 POP JUMP JUMPDEST PUSH2 0x8A1 DUP2 PUSH2 0x887 JUMP JUMPDEST DUP2 EQ PUSH2 0x8AB JUMPI PUSH0 PUSH0 REVERT JUMPDEST POP JUMP JUMPDEST PUSH0 DUP2 CALLDATALOAD SWAP1 POP PUSH2 0x8BC DUP2 PUSH2 0x898 JUMP JUMPDEST SWAP3 SWAP2 POP POP JUMP JUMPDEST PUSH0 PUSH0 PUSH0 PUSH1 0x40 DUP5 DUP7 SUB SLT ISZERO PUSH2 0x8D9 JUMPI PUSH2 0x8D8 PUSH2 0x71A JUMP JUMPDEST JUMPDEST PUSH0 DUP5 ADD CALLDATALOAD PUSH8 0xFFFFFFFFFFFFFFFF DUP2 GT ISZERO PUSH2 0x8F6 JUMPI PUSH2 0x8F5 PUSH2 0x71E JUMP JUMPDEST JUMPDEST PUSH2 0x902 DUP7 DUP3 DUP8 ADD PUSH2 0x813 JUMP JUMPDEST SWAP4 POP SWAP4 POP POP PUSH1 0x20 PUSH2 0x915 DUP7 DUP3 DUP8 ADD PUSH2 0x8AE JUMP JUMPDEST SWAP2 POP POP SWAP3 POP SWAP3 POP SWAP3 JUMP JUMPDEST PUSH0 PUSH0 REVERT JUMPDEST PUSH32 0x4E487B7100000000000000000000000000000000000000000000000000000000 PUSH0 MSTORE PUSH1 0x41 PUSH1 0x4 MSTORE PUSH1 0x24 PUSH0 REVERT JUMPDEST PUSH2 0x959 DUP3 PUSH2 0x79F JUMP JUMPDEST DUP2 ADD DUP2 DUP2 LT PUSH8 0xFFFFFFFFFFFFFFFF DUP3 GT OR ISZERO PUSH2 0x978 JUMPI PUSH2 0x977 PUSH2 0x923 JUMP JUMPDEST JUMPDEST DUP1 PUSH1 0x40 MSTORE POP POP POP JUMP JUMPDEST PUSH0 PUSH2 0x98A PUSH2 0x711 JUMP JUMPDEST SWAP1 POP PUSH2 0x996 DUP3 DUP3 PUSH2 0x950 JUMP JUMPDEST SWAP2 SWAP1 POP JUMP JUMPDEST PUSH0 PUSH8 0xFFFFFFFFFFFFFFFF DUP3 GT ISZERO PUSH2 0x9B5 JUMPI PUSH2 0x9B4 PUSH2 0x923 JUMP JUMPDEST JUMPDEST PUSH2 0x9BE DUP3 PUSH2 0x79F JUMP JUMPDEST SWAP1 POP PUSH1 0x20 DUP2 ADD SWAP1 POP SWAP2 SWAP1 POP JUMP JUMPDEST DUP3 DUP2 DUP4 CALLDATACOPY PUSH0 DUP4 DUP4 ADD MSTORE POP POP POP JUMP JUMPDEST PUSH0 PUSH2 0x9EB PUSH2 0x9E6 DUP5 PUSH2 0x99B JUMP JUMPDEST PUSH2 0x981 JUMP JUMPDEST SWAP1 POP DUP3 DUP2 MSTORE PUSH1 0x20 DUP2 ADD DUP5 DUP5 DUP5 ADD GT ISZERO PUSH2 0xA07 JUMPI PUSH2 0xA06 PUSH2 0x91F JUMP JUMPDEST JUMPDEST PUSH2 0xA12 DUP5 DUP3 DUP6 PUSH2 0x9CB JUMP JUMPDEST POP SWAP4 SWAP3 POP POP POP JUMP JUMPDEST PUSH0 DUP3 PUSH1 0x1F DUP4 ADD SLT PUSH2 0xA2E JUMPI PUSH2 0xA2D PUSH2 0x807 JUMP JUMPDEST JUMPDEST DUP2 CALLDATALOAD PUSH2 0xA3E DUP5 DUP3 PUSH1 0x20 DUP7 ADD PUSH2 0x9D9 JUMP JUMPDEST SWAP2 POP POP SWAP3 SWAP2 POP POP JUMP JUMPDEST PUSH0 PUSH1 0x20 DUP3 DUP5 SUB SLT ISZERO PUSH2 0xA5C JUMPI PUSH2 0xA5B PUSH2 0x71A JUMP JUMPDEST JUMPDEST PUSH0 DUP3 ADD CALLDATALOAD PUSH8 0xFFFFFFFFFFFFFFFF DUP2 GT ISZERO PUSH2 0xA79 JUMPI PUSH2 0xA78 PUSH2 0x71E JUMP JUMPDEST JUMPDEST PUSH2 0xA85 DUP5 DUP3 DUP6 ADD PUSH2 0xA1A JUMP JUMPDEST SWAP2 POP POP SWAP3 SWAP2 POP POP JUMP JUMPDEST PUSH2 0xA97 DUP2 PUSH2 0x887 JUMP JUMPDEST DUP3 MSTORE POP POP JUMP JUMPDEST PUSH0 PUSH1 0x20 DUP3 ADD SWAP1 POP PUSH2 0xAB0 PUSH0 DUP4 ADD DUP5 PUSH2 0xA8E JUMP JUMPDEST SWAP3 SWAP2 POP POP JUMP JUMPDEST PUSH0 PUSH1 0x20 DUP3 DUP5 SUB SLT ISZERO PUSH2 0xACB JUMPI PUSH2 0xACA PUSH2 0x71A JUMP JUMPDEST JUMPDEST PUSH0 PUSH2 0xAD8 DUP5 DUP3 DUP6 ADD PUSH2 0x8AE JUMP JUMPDEST SWAP2 POP POP SWAP3 SWAP2 POP POP JUMP JUMPDEST PUSH0 DUP2 ISZERO ISZERO SWAP1 POP SWAP2 SWAP1 POP JUMP JUMPDEST PUSH2 0xAF5 DUP2 PUSH2 0xAE1 JUMP JUMPDEST DUP3 MSTORE POP POP JUMP JUMPDEST PUSH0 PUSH1 0x20 DUP3 ADD SWAP1 POP PUSH2 0xB0E PUSH0 DUP4 ADD DUP5 PUSH2 0xAEC JUMP JUMPDEST SWAP3 SWAP2 POP POP JUMP JUMPDEST PUSH32 0x4E487B7100000000000000000000000000000000000000000000000000000000 PUSH0 MSTORE PUSH1 0x22 PUSH1 0x4 MSTORE PUSH1 0x24 PUSH0 REVERT JUMPDEST PUSH0 PUSH1 0x2 DUP3 DIV SWAP1 POP PUSH1 0x1 DUP3 AND DUP1 PUSH2 0xB58 JUMPI PUSH1 0x7F DUP3 AND SWAP2 POP JUMPDEST PUSH1 0x20 DUP3 LT DUP2 SUB PUSH2 0xB6B JUMPI PUSH2 0xB6A PUSH2 0xB14 JUMP JUMPDEST JUMPDEST POP SWAP2 SWAP1 POP JUMP JUMPDEST PUSH0 PUSH1 0x40 DUP3 ADD SWAP1 POP PUSH2 0xB84 PUSH0 DUP4 ADD DUP6 PUSH2 0xA8E JUMP JUMPDEST PUSH2 0xB91 PUSH1 0x20 DUP4 ADD DUP5 PUSH2 0x6E9 JUMP JUMPDEST SWAP4 SWAP3 POP POP POP JUMP JUMPDEST PUSH2 0xBA1 DUP2 PUSH2 0xAE1 JUMP JUMPDEST DUP2 EQ PUSH2 0xBAB JUMPI PUSH0 PUSH0 REVERT JUMPDEST POP JUMP JUMPDEST PUSH0 DUP2 MLOAD SWAP1 POP PUSH2 0xBBC DUP2 PUSH2 0xB98 JUMP JUMPDEST SWAP3 SWAP2 POP POP JUMP JUMPDEST PUSH0 PUSH1 0x20 DUP3 DUP5 SUB SLT ISZERO PUSH2 0xBD7 JUMPI PUSH2 0xBD6 PUSH2 0x71A JUMP JUMPDEST JUMPDEST PUSH0 PUSH2 0xBE4 DUP5 DUP3 DUP6 ADD PUSH2 0xBAE JUMP JUMPDEST SWAP2 POP POP SWAP3 SWAP2 POP POP JUMP JUMPDEST PUSH32 0x4E487B7100000000000000000000000000000000000000000000000000000000 PUSH0 MSTORE PUSH1 0x32 PUSH1 0x4 MSTORE PUSH1 0x24 PUSH0 REVERT JUMPDEST PUSH0 DUP2 SWAP1 POP SWAP3 SWAP2 POP POP JUMP JUMPDEST PUSH0 DUP2 SWAP1 POP DUP2 PUSH0 MSTORE PUSH1 0x20 PUSH0 KECCAK256 SWAP1 POP SWAP2 SWAP1 POP JUMP JUMPDEST PUSH0 DUP2 SLOAD PUSH2 0xC42 DUP2 PUSH2 0xB41 JUMP JUMPDEST PUSH2 0xC4C DUP2 DUP7 PUSH2 0xC1A JUMP JUMPDEST SWAP5 POP PUSH1 0x1 DUP3 AND PUSH0 DUP2 EQ PUSH2 0xC66 JUMPI PUSH1 0x1 DUP2 EQ PUSH2 0xC7B JUMPI PUSH2 0xCAD JUMP JUMPDEST PUSH1 0xFF NOT DUP4 AND DUP7 MSTORE DUP2 ISZERO ISZERO DUP3 MUL DUP7 ADD SWAP4 POP PUSH2 0xCAD JUMP JUMPDEST PUSH2 0xC84 DUP6 PUSH2 0xC24 JUMP JUMPDEST PUSH0 JUMPDEST DUP4 DUP2 LT ISZERO PUSH2 0xCA5 JUMPI DUP2 SLOAD DUP2 DUP10 ADD MSTORE PUSH1 0x1 DUP3 ADD SWAP2 POP PUSH1 0x20 DUP2 ADD SWAP1 POP PUSH2 0xC86 JUMP JUMPDEST DUP4 DUP9 ADD SWAP6 POP POP POP JUMPDEST POP POP POP SWAP3 SWAP2 POP POP JUMP JUMPDEST PUSH0 PUSH2 0xCC1 DUP3 DUP5 PUSH2 0xC36 JUMP JUMPDEST SWAP2 POP DUP2 SWAP1 POP SWAP3 SWAP2 POP POP JUMP JUMPDEST PUSH32 0x4E487B7100000000000000000000000000000000000000000000000000000000 PUSH0 MSTORE PUSH1 0x11 PUSH1 0x4 MSTORE PUSH1 0x24 PUSH0 REVERT JUMPDEST PUSH0 PUSH2 0xD03 DUP3 PUSH2 0x6E0 JUMP JUMPDEST SWAP2 POP PUSH2 0xD0E DUP4 PUSH2 0x6E0 JUMP JUMPDEST SWAP3 POP DUP3 DUP3 ADD SWAP1 POP DUP1 DUP3 GT ISZERO PUSH2 0xD26 JUMPI PUSH2 0xD25 PUSH2 0xCCC JUMP JUMPDEST JUMPDEST SWAP3 SWAP2 POP POP JUMP JUMPDEST PUSH0 PUSH2 0xD37 DUP4 DUP6 PUSH2 0xC1A JUMP JUMPDEST SWAP4 POP PUSH2 0xD44 DUP4 DUP6 DUP5 PUSH2 0x9CB JUMP JUMPDEST DUP3 DUP5 ADD SWAP1 POP SWAP4 SWAP3 POP POP POP JUMP JUMPDEST PUSH0 PUSH2 0xD5C DUP3 DUP5 DUP7 PUSH2 0xD2C JUMP JUMPDEST SWAP2 POP DUP2 SWAP1 POP SWAP4 SWAP3 POP POP POP JUMP JUMPDEST PUSH32 0x54686973206C6963656E7365206973206E6F7420616C6C6F7765642E00000000 PUSH0 DUP3 ADD MSTORE POP JUMP JUMPDEST PUSH0 PUSH2 0xD9C PUSH1 0x1C DUP4 PUSH2 0x781 JUMP JUMPDEST SWAP2 POP PUSH2 0xDA7 DUP3 PUSH2 0xD68 JUMP JUMPDEST PUSH1 0x20 DUP3 ADD SWAP1 POP SWAP2 SWAP1 POP JUMP JUMPDEST PUSH0 PUSH1 0x20 DUP3 ADD SWAP1 POP DUP2 DUP2 SUB PUSH0 DUP4 ADD MSTORE PUSH2 0xDC9 DUP2 PUSH2 0xD90 JUMP JUMPDEST SWAP1 POP SWAP2 SWAP1 POP JUMP INVALID LOG2 PUSH5 0x6970667358 0x22 SLT KECCAK256 0xC3 PUSH5 0x7F43CECB7B 0xAE 0x1E AND BYTE 0xA9 0xD5 0xD8 LOG4 0xB3 SWAP7 0xD7 EXTCODEHASH ADDRESS BLOBBASEFEE STOP 0xE8 RETURNDATASIZE 0x22 JUMPDEST 0xCC CALL 0xAF 0xB9 SDIV SHR PUSH5 0x736F6C6343 STOP ADDMOD SHR STOP CALLER "
				},
				"gasEstimates": {
					"creation": {
						"codeDepositCost": "718000",
						"executionCost": "infinite",
						"totalCost": "infinite"
					},
					"external": {
						"bind(string,address)": "infinite",
						"claim()": "infinite",
						"claim_list(address)": "2868",
						"distribution()": "infinite",
						"getReward()": "2564",
						"isLicense(string)": "infinite",
						"license_bind(string)": "infinite",
						"licenses(uint256)": "infinite",
						"reward()": "2426"
					}
				},
				"methodIdentifiers": {
					"bind(string,address)": "78a55b1d",
					"claim()": "4e71d92d",
					"claim_list(address)": "a02c1eda",
					"distribution()": "5ee58efc",
					"getReward()": "3d18b912",
					"isLicense(string)": "d76db139",
					"license_bind(string)": "91d1e303",
					"licenses(uint256)": "33790845",
					"reward()": "228cb733"
				}
			},
			"storageLayout": {
				"storage": [
					{
						"astId": 46,
						"contract": "contracts/Reword.sol:REWORD",
						"label": "token",
						"offset": 0,
						"slot": "0",
						"type": "t_contract(IERC20)43"
					},
					{
						"astId": 48,
						"contract": "contracts/Reword.sol:REWORD",
						"label": "reward",
						"offset": 0,
						"slot": "1",
						"type": "t_uint256"
					},
					{
						"astId": 51,
						"contract": "contracts/Reword.sol:REWORD",
						"label": "licenses",
						"offset": 0,
						"slot": "2",
						"type": "t_array(t_string_storage)dyn_storage"
					},
					{
						"astId": 55,
						"contract": "contracts/Reword.sol:REWORD",
						"label": "isLicense",
						"offset": 0,
						"slot": "3",
						"type": "t_mapping(t_string_memory_ptr,t_bool)"
					},
					{
						"astId": 59,
						"contract": "contracts/Reword.sol:REWORD",
						"label": "claim_list",
						"offset": 0,
						"slot": "4",
						"type": "t_mapping(t_address,t_uint256)"
					},
					{
						"astId": 63,
						"contract": "contracts/Reword.sol:REWORD",
						"label": "license_bind",
						"offset": 0,
						"slot": "5",
						"type": "t_mapping(t_string_memory_ptr,t_address)"
					}
				],
				"types": {
					"t_address": {
						"encoding": "inplace",
						"label": "address",
						"numberOfBytes": "20"
					},
					"t_array(t_string_storage)dyn_storage": {
						"base": "t_string_storage",
						"encoding": "dynamic_array",
						"label": "string[]",
						"numberOfBytes": "32"
					},
					"t_bool": {
						"encoding": "inplace",
						"label": "bool",
						"numberOfBytes": "1"
					},
					"t_contract(IERC20)43": {
						"encoding": "inplace",
						"label": "contract IERC20",
						"numberOfBytes": "20"
					},
					"t_mapping(t_address,t_uint256)": {
						"encoding": "mapping",
						"key": "t_address",
						"label": "mapping(address => uint256)",
						"numberOfBytes": "32",
						"value": "t_uint256"
					},
					"t_mapping(t_string_memory_ptr,t_address)": {
						"encoding": "mapping",
						"key": "t_string_memory_ptr",
						"label": "mapping(string => address)",
						"numberOfBytes": "32",
						"value": "t_address"
					},
					"t_mapping(t_string_memory_ptr,t_bool)": {
						"encoding": "mapping",
						"key": "t_string_memory_ptr",
						"label": "mapping(string => bool)",
						"numberOfBytes": "32",
						"value": "t_bool"
					},
					"t_string_memory_ptr": {
						"encoding": "bytes",
						"label": "string",
						"numberOfBytes": "32"
					},
					"t_string_storage": {
						"encoding": "bytes",
						"label": "string",
						"numberOfBytes": "32"
					},
					"t_uint256": {
						"encoding": "inplace",
						"label": "uint256",
						"numberOfBytes": "32"
					}
				}
			},
			"userdoc": {
				"kind": "user",
				"methods": {},
				"version": 1
			}
		}
	}
}