{
	"contracts/check.sol": {
		"Checker": {
			"abi": [
				{
					"inputs": [
						{
							"internalType": "address",
							"name": "",
							"type": "address"
						},
						{
							"internalType": "uint256",
							"name": "",
							"type": "uint256"
						}
					],
					"name": "checkNode",
					"outputs": [
						{
							"internalType": "bool",
							"name": "",
							"type": "bool"
						}
					],
					"stateMutability": "view",
					"type": "function"
				},
				{
					"inputs": [
						{
							"internalType": "bytes32",
							"name": "messageHash",
							"type": "bytes32"
						},
						{
							"internalType": "uint8",
							"name": "v",
							"type": "uint8"
						},
						{
							"internalType": "bytes32",
							"name": "r",
							"type": "bytes32"
						},
						{
							"internalType": "bytes32",
							"name": "s",
							"type": "bytes32"
						}
					],
					"name": "checkOnline",
					"outputs": [],
					"stateMutability": "nonpayable",
					"type": "function"
				},
				{
					"inputs": [
						{
							"internalType": "address",
							"name": "_address",
							"type": "address"
						}
					],
					"name": "checkPass",
					"outputs": [
						{
							"internalType": "uint256",
							"name": "",
							"type": "uint256"
						}
					],
					"stateMutability": "view",
					"type": "function"
				},
				{
					"inputs": [
						{
							"internalType": "bytes32",
							"name": "messageHash",
							"type": "bytes32"
						}
					],
					"name": "getEthSignedMessageHash",
					"outputs": [
						{
							"internalType": "bytes32",
							"name": "",
							"type": "bytes32"
						}
					],
					"stateMutability": "pure",
					"type": "function"
				},
				{
					"inputs": [],
					"name": "resetChecker",
					"outputs": [],
					"stateMutability": "nonpayable",
					"type": "function"
				},
				{
					"inputs": [
						{
							"internalType": "address",
							"name": "signer",
							"type": "address"
						},
						{
							"internalType": "bytes32",
							"name": "messageHash",
							"type": "bytes32"
						},
						{
							"internalType": "uint8",
							"name": "v",
							"type": "uint8"
						},
						{
							"internalType": "bytes32",
							"name": "r",
							"type": "bytes32"
						},
						{
							"internalType": "bytes32",
							"name": "s",
							"type": "bytes32"
						}
					],
					"name": "verify",
					"outputs": [
						{
							"internalType": "bool",
							"name": "",
							"type": "bool"
						}
					],
					"stateMutability": "pure",
					"type": "function"
				}
			],
			"devdoc": {
				"kind": "dev",
				"methods": {},
				"version": 1
			},
			"evm": {
				"assembly": "    /* \"contracts/check.sol\":57:1267  contract Checker {... */\n  mstore(0x40, 0x80)\n  callvalue\n  dup1\n  iszero\n  tag_1\n  jumpi\n  revert(0x00, 0x00)\ntag_1:\n  pop\n  dataSize(sub_0)\n  dup1\n  dataOffset(sub_0)\n  0x00\n  codecopy\n  0x00\n  return\nstop\n\nsub_0: assembly {\n        /* \"contracts/check.sol\":57:1267  contract Checker {... */\n      mstore(0x40, 0x80)\n      callvalue\n      dup1\n      iszero\n      tag_1\n      jumpi\n      revert(0x00, 0x00)\n    tag_1:\n      pop\n      jumpi(tag_2, lt(calldatasize, 0x04))\n      shr(0xe0, calldataload(0x00))\n      dup1\n      0x04891de1\n      eq\n      tag_3\n      jumpi\n      dup1\n      0x506535f3\n      eq\n      tag_4\n      jumpi\n      dup1\n      0x7279c14e\n      eq\n      tag_5\n      jumpi\n      dup1\n      0xa3f60869\n      eq\n      tag_6\n      jumpi\n      dup1\n      0xc3cf0e72\n      eq\n      tag_7\n      jumpi\n      dup1\n      0xfa540801\n      eq\n      tag_8\n      jumpi\n    tag_2:\n      revert(0x00, 0x00)\n        /* \"contracts/check.sol\":1189:1265  function resetChecker() public {... */\n    tag_3:\n      tag_9\n      tag_10\n      jump\t// in\n    tag_9:\n      stop\n        /* \"contracts/check.sol\":409:717  function verify(... */\n    tag_4:\n      tag_11\n      0x04\n      dup1\n      calldatasize\n      sub\n      dup2\n      add\n      swap1\n      tag_12\n      swap2\n      swap1\n      tag_13\n      jump\t// in\n    tag_12:\n      tag_14\n      jump\t// in\n    tag_11:\n      mload(0x40)\n      tag_15\n      swap2\n      swap1\n      tag_16\n      jump\t// in\n    tag_15:\n      mload(0x40)\n      dup1\n      swap2\n      sub\n      swap1\n      return\n        /* \"contracts/check.sol\":1069:1183  function checkPass(address _address) public view returns (uint) {... */\n    tag_5:\n      tag_17\n      0x04\n      dup1\n      calldatasize\n      sub\n      dup2\n      add\n      swap1\n      tag_18\n      swap2\n      swap1\n      tag_19\n      jump\t// in\n    tag_18:\n      tag_20\n      jump\t// in\n    tag_17:\n      mload(0x40)\n      tag_21\n      swap2\n      swap1\n      tag_22\n      jump\t// in\n    tag_21:\n      mload(0x40)\n      dup1\n      swap2\n      sub\n      swap1\n      return\n        /* \"contracts/check.sol\":80:123  mapping(address => bool[]) public checkNode */\n    tag_6:\n      tag_23\n      0x04\n      dup1\n      calldatasize\n      sub\n      dup2\n      add\n      swap1\n      tag_24\n      swap2\n      swap1\n      tag_25\n      jump\t// in\n    tag_24:\n      tag_26\n      jump\t// in\n    tag_23:\n      mload(0x40)\n      tag_27\n      swap2\n      swap1\n      tag_16\n      jump\t// in\n    tag_27:\n      mload(0x40)\n      dup1\n      swap2\n      sub\n      swap1\n      return\n        /* \"contracts/check.sol\":743:1063  function checkOnline(... */\n    tag_7:\n      tag_28\n      0x04\n      dup1\n      calldatasize\n      sub\n      dup2\n      add\n      swap1\n      tag_29\n      swap2\n      swap1\n      tag_30\n      jump\t// in\n    tag_29:\n      tag_31\n      jump\t// in\n    tag_28:\n      stop\n        /* \"contracts/check.sol\":193:377  function getEthSignedMessageHash(bytes32 messageHash) public pure returns (bytes32) {... */\n    tag_8:\n      tag_32\n      0x04\n      dup1\n      calldatasize\n      sub\n      dup2\n      add\n      swap1\n      tag_33\n      swap2\n      swap1\n      tag_34\n      jump\t// in\n    tag_33:\n      tag_35\n      jump\t// in\n    tag_32:\n      mload(0x40)\n      tag_36\n      swap2\n      swap1\n      tag_37\n      jump\t// in\n    tag_36:\n      mload(0x40)\n      dup1\n      swap2\n      sub\n      swap1\n      return\n        /* \"contracts/check.sol\":1189:1265  function resetChecker() public {... */\n    tag_10:\n        /* \"contracts/check.sol\":1237:1246  checkNode */\n      0x00\n        /* \"contracts/check.sol\":1237:1258  checkNode[msg.sender] */\n      0x00\n        /* \"contracts/check.sol\":1247:1257  msg.sender */\n      caller\n        /* \"contracts/check.sol\":1237:1258  checkNode[msg.sender] */\n      0xffffffffffffffffffffffffffffffffffffffff\n      and\n      0xffffffffffffffffffffffffffffffffffffffff\n      and\n      dup2\n      mstore\n      0x20\n      add\n      swap1\n      dup2\n      mstore\n      0x20\n      add\n      0x00\n      keccak256\n      0x00\n        /* \"contracts/check.sol\":1230:1258  delete checkNode[msg.sender] */\n      tag_39\n      swap2\n      swap1\n      tag_40\n      jump\t// in\n    tag_39:\n        /* \"contracts/check.sol\":1189:1265  function resetChecker() public {... */\n      jump\t// out\n        /* \"contracts/check.sol\":409:717  function verify(... */\n    tag_14:\n        /* \"contracts/check.sol\":560:564  bool */\n      0x00\n        /* \"contracts/check.sol\":576:604  bytes32 ethSignedMessageHash */\n      0x00\n        /* \"contracts/check.sol\":607:643  getEthSignedMessageHash(messageHash) */\n      tag_42\n        /* \"contracts/check.sol\":631:642  messageHash */\n      dup7\n        /* \"contracts/check.sol\":607:630  getEthSignedMessageHash */\n      tag_35\n        /* \"contracts/check.sol\":607:643  getEthSignedMessageHash(messageHash) */\n      jump\t// in\n    tag_42:\n        /* \"contracts/check.sol\":576:643  bytes32 ethSignedMessageHash = getEthSignedMessageHash(messageHash) */\n      swap1\n      pop\n        /* \"contracts/check.sol\":704:710  signer */\n      dup7\n        /* \"contracts/check.sol\":660:710  ecrecover(ethSignedMessageHash, v, r, s) == signer */\n      0xffffffffffffffffffffffffffffffffffffffff\n      and\n        /* \"contracts/check.sol\":660:700  ecrecover(ethSignedMessageHash, v, r, s) */\n      0x01\n        /* \"contracts/check.sol\":670:690  ethSignedMessageHash */\n      dup3\n        /* \"contracts/check.sol\":692:693  v */\n      dup8\n        /* \"contracts/check.sol\":695:696  r */\n      dup8\n        /* \"contracts/check.sol\":698:699  s */\n      dup8\n        /* \"contracts/check.sol\":660:700  ecrecover(ethSignedMessageHash, v, r, s) */\n      mload(0x40)\n      0x00\n      dup2\n      mstore\n      0x20\n      add\n      0x40\n      mstore\n      mload(0x40)\n      tag_43\n      swap5\n      swap4\n      swap3\n      swap2\n      swap1\n      tag_44\n      jump\t// in\n    tag_43:\n      0x20\n      mload(0x40)\n      0x20\n      dup2\n      sub\n      swap1\n      dup1\n      dup5\n      sub\n      swap1\n      dup6\n      gas\n      staticcall\n      iszero\n      dup1\n      iszero\n      tag_46\n      jumpi\n      returndatacopy(0x00, 0x00, returndatasize)\n      revert(0x00, returndatasize)\n    tag_46:\n      pop\n      pop\n      pop\n      mload(sub(mload(0x40), 0x20))\n        /* \"contracts/check.sol\":660:710  ecrecover(ethSignedMessageHash, v, r, s) == signer */\n      0xffffffffffffffffffffffffffffffffffffffff\n      and\n      eq\n        /* \"contracts/check.sol\":653:710  return ecrecover(ethSignedMessageHash, v, r, s) == signer */\n      swap2\n      pop\n      pop\n        /* \"contracts/check.sol\":409:717  function verify(... */\n      swap6\n      swap5\n      pop\n      pop\n      pop\n      pop\n      pop\n      jump\t// out\n        /* \"contracts/check.sol\":1069:1183  function checkPass(address _address) public view returns (uint) {... */\n    tag_20:\n        /* \"contracts/check.sol\":1127:1131  uint */\n      0x00\n        /* \"contracts/check.sol\":1150:1159  checkNode */\n      0x00\n        /* \"contracts/check.sol\":1150:1169  checkNode[_address] */\n      0x00\n        /* \"contracts/check.sol\":1160:1168  _address */\n      dup4\n        /* \"contracts/check.sol\":1150:1169  checkNode[_address] */\n      0xffffffffffffffffffffffffffffffffffffffff\n      and\n      0xffffffffffffffffffffffffffffffffffffffff\n      and\n      dup2\n      mstore\n      0x20\n      add\n      swap1\n      dup2\n      mstore\n      0x20\n      add\n      0x00\n      keccak256\n        /* \"contracts/check.sol\":1150:1176  checkNode[_address].length */\n      dup1\n      sload\n      swap1\n      pop\n        /* \"contracts/check.sol\":1143:1176  return checkNode[_address].length */\n      swap1\n      pop\n        /* \"contracts/check.sol\":1069:1183  function checkPass(address _address) public view returns (uint) {... */\n      swap2\n      swap1\n      pop\n      jump\t// out\n        /* \"contracts/check.sol\":80:123  mapping(address => bool[]) public checkNode */\n    tag_26:\n      mstore(0x20, 0x00)\n      dup2\n      0x00\n      mstore\n      keccak256(0x00, 0x40)\n      dup2\n      dup2\n      sload\n      dup2\n      lt\n      tag_48\n      jumpi\n      0x00\n      dup1\n      revert\n    tag_48:\n      swap1\n      0x00\n      mstore\n      keccak256(0x00, 0x20)\n      swap1\n      0x20\n      swap2\n      dup3\n      dup3\n      div\n      add\n      swap2\n      swap1\n      mod\n      swap2\n      pop\n      swap2\n      pop\n      swap1\n      sload\n      swap1\n      0x0100\n      exp\n      swap1\n      div\n      0xff\n      and\n      dup2\n      jump\t// out\n        /* \"contracts/check.sol\":743:1063  function checkOnline(... */\n    tag_31:\n        /* \"contracts/check.sol\":955:995  verify(msg.sender, messageHash, v, r, s) */\n      tag_51\n        /* \"contracts/check.sol\":962:972  msg.sender */\n      caller\n        /* \"contracts/check.sol\":974:985  messageHash */\n      dup6\n        /* \"contracts/check.sol\":987:988  v */\n      dup6\n        /* \"contracts/check.sol\":990:991  r */\n      dup6\n        /* \"contracts/check.sol\":993:994  s */\n      dup6\n        /* \"contracts/check.sol\":955:961  verify */\n      tag_14\n        /* \"contracts/check.sol\":955:995  verify(msg.sender, messageHash, v, r, s) */\n      jump\t// in\n    tag_51:\n        /* \"contracts/check.sol\":947:1014  require(verify(msg.sender, messageHash, v, r, s), \"Invalid signer\") */\n      tag_52\n      jumpi\n      mload(0x40)\n      0x08c379a000000000000000000000000000000000000000000000000000000000\n      dup2\n      mstore\n      0x04\n      add\n      tag_53\n      swap1\n      tag_54\n      jump\t// in\n    tag_53:\n      mload(0x40)\n      dup1\n      swap2\n      sub\n      swap1\n      revert\n    tag_52:\n        /* \"contracts/check.sol\":1024:1033  checkNode */\n      0x00\n        /* \"contracts/check.sol\":1024:1045  checkNode[msg.sender] */\n      0x00\n        /* \"contracts/check.sol\":1034:1044  msg.sender */\n      caller\n        /* \"contracts/check.sol\":1024:1045  checkNode[msg.sender] */\n      0xffffffffffffffffffffffffffffffffffffffff\n      and\n      0xffffffffffffffffffffffffffffffffffffffff\n      and\n      dup2\n      mstore\n      0x20\n      add\n      swap1\n      dup2\n      mstore\n      0x20\n      add\n      0x00\n      keccak256\n        /* \"contracts/check.sol\":1051:1055  true */\n      0x01\n        /* \"contracts/check.sol\":1024:1056  checkNode[msg.sender].push(true) */\n      swap1\n      dup1\n      0x01\n      dup2\n      sload\n      add\n      dup1\n      dup3\n      sstore\n      dup1\n      swap2\n      pop\n      pop\n      0x01\n      swap1\n      sub\n      swap1\n      0x00\n      mstore\n      keccak256(0x00, 0x20)\n      swap1\n      0x20\n      swap2\n      dup3\n      dup3\n      div\n      add\n      swap2\n      swap1\n      mod\n      swap1\n      swap2\n      swap1\n      swap2\n      swap1\n      swap2\n      0x0100\n      exp\n      dup2\n      sload\n      dup2\n      0xff\n      mul\n      not\n      and\n      swap1\n      dup4\n      iszero\n      iszero\n      mul\n      or\n      swap1\n      sstore\n      pop\n        /* \"contracts/check.sol\":743:1063  function checkOnline(... */\n      pop\n      pop\n      pop\n      pop\n      jump\t// out\n        /* \"contracts/check.sol\":193:377  function getEthSignedMessageHash(bytes32 messageHash) public pure returns (bytes32) {... */\n    tag_35:\n        /* \"contracts/check.sol\":268:275  bytes32 */\n      0x00\n        /* \"contracts/check.sol\":357:368  messageHash */\n      dup2\n        /* \"contracts/check.sol\":304:369  abi.encodePacked(\"\\x19Ethereum Signed Message:\\n32\", messageHash) */\n      add(0x20, mload(0x40))\n      tag_57\n      swap2\n      swap1\n      tag_58\n      jump\t// in\n    tag_57:\n      mload(0x40)\n      0x20\n      dup2\n      dup4\n      sub\n      sub\n      dup2\n      mstore\n      swap1\n      0x40\n      mstore\n        /* \"contracts/check.sol\":294:370  keccak256(abi.encodePacked(\"\\x19Ethereum Signed Message:\\n32\", messageHash)) */\n      dup1\n      mload\n      swap1\n      0x20\n      add\n      keccak256\n        /* \"contracts/check.sol\":287:370  return keccak256(abi.encodePacked(\"\\x19Ethereum Signed Message:\\n32\", messageHash)) */\n      swap1\n      pop\n        /* \"contracts/check.sol\":193:377  function getEthSignedMessageHash(bytes32 messageHash) public pure returns (bytes32) {... */\n      swap2\n      swap1\n      pop\n      jump\t// out\n    tag_40:\n      pop\n      dup1\n      sload\n      0x00\n      dup3\n      sstore\n      0x1f\n      add\n      0x20\n      swap1\n      div\n      swap1\n      0x00\n      mstore\n      keccak256(0x00, 0x20)\n      swap1\n      dup2\n      add\n      swap1\n      tag_60\n      swap2\n      swap1\n      tag_61\n      jump\t// in\n    tag_60:\n      pop\n      jump\t// out\n    tag_61:\n    tag_62:\n      dup1\n      dup3\n      gt\n      iszero\n      tag_63\n      jumpi\n      0x00\n      dup2\n      0x00\n      swap1\n      sstore\n      pop\n      0x01\n      add\n      jump(tag_62)\n    tag_63:\n      pop\n      swap1\n      jump\t// out\n        /* \"#utility.yul\":88:205   */\n    tag_65:\n        /* \"#utility.yul\":197:198   */\n      0x00\n        /* \"#utility.yul\":194:195   */\n      0x00\n        /* \"#utility.yul\":187:199   */\n      revert\n        /* \"#utility.yul\":334:460   */\n    tag_67:\n        /* \"#utility.yul\":371:378   */\n      0x00\n        /* \"#utility.yul\":411:453   */\n      0xffffffffffffffffffffffffffffffffffffffff\n        /* \"#utility.yul\":404:409   */\n      dup3\n        /* \"#utility.yul\":400:454   */\n      and\n        /* \"#utility.yul\":389:454   */\n      swap1\n      pop\n        /* \"#utility.yul\":334:460   */\n      swap2\n      swap1\n      pop\n      jump\t// out\n        /* \"#utility.yul\":466:562   */\n    tag_68:\n        /* \"#utility.yul\":503:510   */\n      0x00\n        /* \"#utility.yul\":532:556   */\n      tag_99\n        /* \"#utility.yul\":550:555   */\n      dup3\n        /* \"#utility.yul\":532:556   */\n      tag_67\n      jump\t// in\n    tag_99:\n        /* \"#utility.yul\":521:556   */\n      swap1\n      pop\n        /* \"#utility.yul\":466:562   */\n      swap2\n      swap1\n      pop\n      jump\t// out\n        /* \"#utility.yul\":568:690   */\n    tag_69:\n        /* \"#utility.yul\":641:665   */\n      tag_101\n        /* \"#utility.yul\":659:664   */\n      dup2\n        /* \"#utility.yul\":641:665   */\n      tag_68\n      jump\t// in\n    tag_101:\n        /* \"#utility.yul\":634:639   */\n      dup2\n        /* \"#utility.yul\":631:666   */\n      eq\n        /* \"#utility.yul\":621:684   */\n      tag_102\n      jumpi\n        /* \"#utility.yul\":680:681   */\n      0x00\n        /* \"#utility.yul\":677:678   */\n      0x00\n        /* \"#utility.yul\":670:682   */\n      revert\n        /* \"#utility.yul\":621:684   */\n    tag_102:\n        /* \"#utility.yul\":568:690   */\n      pop\n      jump\t// out\n        /* \"#utility.yul\":696:835   */\n    tag_70:\n        /* \"#utility.yul\":742:747   */\n      0x00\n        /* \"#utility.yul\":780:786   */\n      dup2\n        /* \"#utility.yul\":767:787   */\n      calldataload\n        /* \"#utility.yul\":758:787   */\n      swap1\n      pop\n        /* \"#utility.yul\":796:829   */\n      tag_104\n        /* \"#utility.yul\":823:828   */\n      dup2\n        /* \"#utility.yul\":796:829   */\n      tag_69\n      jump\t// in\n    tag_104:\n        /* \"#utility.yul\":696:835   */\n      swap3\n      swap2\n      pop\n      pop\n      jump\t// out\n        /* \"#utility.yul\":841:918   */\n    tag_71:\n        /* \"#utility.yul\":878:885   */\n      0x00\n        /* \"#utility.yul\":907:912   */\n      dup2\n        /* \"#utility.yul\":896:912   */\n      swap1\n      pop\n        /* \"#utility.yul\":841:918   */\n      swap2\n      swap1\n      pop\n      jump\t// out\n        /* \"#utility.yul\":924:1046   */\n    tag_72:\n        /* \"#utility.yul\":997:1021   */\n      tag_107\n        /* \"#utility.yul\":1015:1020   */\n      dup2\n        /* \"#utility.yul\":997:1021   */\n      tag_71\n      jump\t// in\n    tag_107:\n        /* \"#utility.yul\":990:995   */\n      dup2\n        /* \"#utility.yul\":987:1022   */\n      eq\n        /* \"#utility.yul\":977:1040   */\n      tag_108\n      jumpi\n        /* \"#utility.yul\":1036:1037   */\n      0x00\n        /* \"#utility.yul\":1033:1034   */\n      0x00\n        /* \"#utility.yul\":1026:1038   */\n      revert\n        /* \"#utility.yul\":977:1040   */\n    tag_108:\n        /* \"#utility.yul\":924:1046   */\n      pop\n      jump\t// out\n        /* \"#utility.yul\":1052:1191   */\n    tag_73:\n        /* \"#utility.yul\":1098:1103   */\n      0x00\n        /* \"#utility.yul\":1136:1142   */\n      dup2\n        /* \"#utility.yul\":1123:1143   */\n      calldataload\n        /* \"#utility.yul\":1114:1143   */\n      swap1\n      pop\n        /* \"#utility.yul\":1152:1185   */\n      tag_110\n        /* \"#utility.yul\":1179:1184   */\n      dup2\n        /* \"#utility.yul\":1152:1185   */\n      tag_72\n      jump\t// in\n    tag_110:\n        /* \"#utility.yul\":1052:1191   */\n      swap3\n      swap2\n      pop\n      pop\n      jump\t// out\n        /* \"#utility.yul\":1197:1283   */\n    tag_74:\n        /* \"#utility.yul\":1232:1239   */\n      0x00\n        /* \"#utility.yul\":1272:1276   */\n      0xff\n        /* \"#utility.yul\":1265:1270   */\n      dup3\n        /* \"#utility.yul\":1261:1277   */\n      and\n        /* \"#utility.yul\":1250:1277   */\n      swap1\n      pop\n        /* \"#utility.yul\":1197:1283   */\n      swap2\n      swap1\n      pop\n      jump\t// out\n        /* \"#utility.yul\":1289:1407   */\n    tag_75:\n        /* \"#utility.yul\":1360:1382   */\n      tag_113\n        /* \"#utility.yul\":1376:1381   */\n      dup2\n        /* \"#utility.yul\":1360:1382   */\n      tag_74\n      jump\t// in\n    tag_113:\n        /* \"#utility.yul\":1353:1358   */\n      dup2\n        /* \"#utility.yul\":1350:1383   */\n      eq\n        /* \"#utility.yul\":1340:1401   */\n      tag_114\n      jumpi\n        /* \"#utility.yul\":1397:1398   */\n      0x00\n        /* \"#utility.yul\":1394:1395   */\n      0x00\n        /* \"#utility.yul\":1387:1399   */\n      revert\n        /* \"#utility.yul\":1340:1401   */\n    tag_114:\n        /* \"#utility.yul\":1289:1407   */\n      pop\n      jump\t// out\n        /* \"#utility.yul\":1413:1548   */\n    tag_76:\n        /* \"#utility.yul\":1457:1462   */\n      0x00\n        /* \"#utility.yul\":1495:1501   */\n      dup2\n        /* \"#utility.yul\":1482:1502   */\n      calldataload\n        /* \"#utility.yul\":1473:1502   */\n      swap1\n      pop\n        /* \"#utility.yul\":1511:1542   */\n      tag_116\n        /* \"#utility.yul\":1536:1541   */\n      dup2\n        /* \"#utility.yul\":1511:1542   */\n      tag_75\n      jump\t// in\n    tag_116:\n        /* \"#utility.yul\":1413:1548   */\n      swap3\n      swap2\n      pop\n      pop\n      jump\t// out\n        /* \"#utility.yul\":1554:2461   */\n    tag_13:\n        /* \"#utility.yul\":1647:1653   */\n      0x00\n        /* \"#utility.yul\":1655:1661   */\n      0x00\n        /* \"#utility.yul\":1663:1669   */\n      0x00\n        /* \"#utility.yul\":1671:1677   */\n      0x00\n        /* \"#utility.yul\":1679:1685   */\n      0x00\n        /* \"#utility.yul\":1728:1731   */\n      0xa0\n        /* \"#utility.yul\":1716:1725   */\n      dup7\n        /* \"#utility.yul\":1707:1714   */\n      dup9\n        /* \"#utility.yul\":1703:1726   */\n      sub\n        /* \"#utility.yul\":1699:1732   */\n      slt\n        /* \"#utility.yul\":1696:1816   */\n      iszero\n      tag_118\n      jumpi\n        /* \"#utility.yul\":1735:1814   */\n      tag_119\n      tag_65\n      jump\t// in\n    tag_119:\n        /* \"#utility.yul\":1696:1816   */\n    tag_118:\n        /* \"#utility.yul\":1855:1856   */\n      0x00\n        /* \"#utility.yul\":1880:1933   */\n      tag_120\n        /* \"#utility.yul\":1925:1932   */\n      dup9\n        /* \"#utility.yul\":1916:1922   */\n      dup3\n        /* \"#utility.yul\":1905:1914   */\n      dup10\n        /* \"#utility.yul\":1901:1923   */\n      add\n        /* \"#utility.yul\":1880:1933   */\n      tag_70\n      jump\t// in\n    tag_120:\n        /* \"#utility.yul\":1870:1933   */\n      swap6\n      pop\n        /* \"#utility.yul\":1826:1943   */\n      pop\n        /* \"#utility.yul\":1982:1984   */\n      0x20\n        /* \"#utility.yul\":2008:2061   */\n      tag_121\n        /* \"#utility.yul\":2053:2060   */\n      dup9\n        /* \"#utility.yul\":2044:2050   */\n      dup3\n        /* \"#utility.yul\":2033:2042   */\n      dup10\n        /* \"#utility.yul\":2029:2051   */\n      add\n        /* \"#utility.yul\":2008:2061   */\n      tag_73\n      jump\t// in\n    tag_121:\n        /* \"#utility.yul\":1998:2061   */\n      swap5\n      pop\n        /* \"#utility.yul\":1953:2071   */\n      pop\n        /* \"#utility.yul\":2110:2112   */\n      0x40\n        /* \"#utility.yul\":2136:2187   */\n      tag_122\n        /* \"#utility.yul\":2179:2186   */\n      dup9\n        /* \"#utility.yul\":2170:2176   */\n      dup3\n        /* \"#utility.yul\":2159:2168   */\n      dup10\n        /* \"#utility.yul\":2155:2177   */\n      add\n        /* \"#utility.yul\":2136:2187   */\n      tag_76\n      jump\t// in\n    tag_122:\n        /* \"#utility.yul\":2126:2187   */\n      swap4\n      pop\n        /* \"#utility.yul\":2081:2197   */\n      pop\n        /* \"#utility.yul\":2236:2238   */\n      0x60\n        /* \"#utility.yul\":2262:2315   */\n      tag_123\n        /* \"#utility.yul\":2307:2314   */\n      dup9\n        /* \"#utility.yul\":2298:2304   */\n      dup3\n        /* \"#utility.yul\":2287:2296   */\n      dup10\n        /* \"#utility.yul\":2283:2305   */\n      add\n        /* \"#utility.yul\":2262:2315   */\n      tag_73\n      jump\t// in\n    tag_123:\n        /* \"#utility.yul\":2252:2315   */\n      swap3\n      pop\n        /* \"#utility.yul\":2207:2325   */\n      pop\n        /* \"#utility.yul\":2364:2367   */\n      0x80\n        /* \"#utility.yul\":2391:2444   */\n      tag_124\n        /* \"#utility.yul\":2436:2443   */\n      dup9\n        /* \"#utility.yul\":2427:2433   */\n      dup3\n        /* \"#utility.yul\":2416:2425   */\n      dup10\n        /* \"#utility.yul\":2412:2434   */\n      add\n        /* \"#utility.yul\":2391:2444   */\n      tag_73\n      jump\t// in\n    tag_124:\n        /* \"#utility.yul\":2381:2444   */\n      swap2\n      pop\n        /* \"#utility.yul\":2335:2454   */\n      pop\n        /* \"#utility.yul\":1554:2461   */\n      swap3\n      swap6\n      pop\n      swap3\n      swap6\n      swap1\n      swap4\n      pop\n      jump\t// out\n        /* \"#utility.yul\":2467:2557   */\n    tag_77:\n        /* \"#utility.yul\":2501:2508   */\n      0x00\n        /* \"#utility.yul\":2544:2549   */\n      dup2\n        /* \"#utility.yul\":2537:2550   */\n      iszero\n        /* \"#utility.yul\":2530:2551   */\n      iszero\n        /* \"#utility.yul\":2519:2551   */\n      swap1\n      pop\n        /* \"#utility.yul\":2467:2557   */\n      swap2\n      swap1\n      pop\n      jump\t// out\n        /* \"#utility.yul\":2563:2672   */\n    tag_78:\n        /* \"#utility.yul\":2644:2665   */\n      tag_127\n        /* \"#utility.yul\":2659:2664   */\n      dup2\n        /* \"#utility.yul\":2644:2665   */\n      tag_77\n      jump\t// in\n    tag_127:\n        /* \"#utility.yul\":2639:2642   */\n      dup3\n        /* \"#utility.yul\":2632:2666   */\n      mstore\n        /* \"#utility.yul\":2563:2672   */\n      pop\n      pop\n      jump\t// out\n        /* \"#utility.yul\":2678:2888   */\n    tag_16:\n        /* \"#utility.yul\":2765:2769   */\n      0x00\n        /* \"#utility.yul\":2803:2805   */\n      0x20\n        /* \"#utility.yul\":2792:2801   */\n      dup3\n        /* \"#utility.yul\":2788:2806   */\n      add\n        /* \"#utility.yul\":2780:2806   */\n      swap1\n      pop\n        /* \"#utility.yul\":2816:2881   */\n      tag_129\n        /* \"#utility.yul\":2878:2879   */\n      0x00\n        /* \"#utility.yul\":2867:2876   */\n      dup4\n        /* \"#utility.yul\":2863:2880   */\n      add\n        /* \"#utility.yul\":2854:2860   */\n      dup5\n        /* \"#utility.yul\":2816:2881   */\n      tag_78\n      jump\t// in\n    tag_129:\n        /* \"#utility.yul\":2678:2888   */\n      swap3\n      swap2\n      pop\n      pop\n      jump\t// out\n        /* \"#utility.yul\":2894:3223   */\n    tag_19:\n        /* \"#utility.yul\":2953:2959   */\n      0x00\n        /* \"#utility.yul\":3002:3004   */\n      0x20\n        /* \"#utility.yul\":2990:2999   */\n      dup3\n        /* \"#utility.yul\":2981:2988   */\n      dup5\n        /* \"#utility.yul\":2977:3000   */\n      sub\n        /* \"#utility.yul\":2973:3005   */\n      slt\n        /* \"#utility.yul\":2970:3089   */\n      iszero\n      tag_131\n      jumpi\n        /* \"#utility.yul\":3008:3087   */\n      tag_132\n      tag_65\n      jump\t// in\n    tag_132:\n        /* \"#utility.yul\":2970:3089   */\n    tag_131:\n        /* \"#utility.yul\":3128:3129   */\n      0x00\n        /* \"#utility.yul\":3153:3206   */\n      tag_133\n        /* \"#utility.yul\":3198:3205   */\n      dup5\n        /* \"#utility.yul\":3189:3195   */\n      dup3\n        /* \"#utility.yul\":3178:3187   */\n      dup6\n        /* \"#utility.yul\":3174:3196   */\n      add\n        /* \"#utility.yul\":3153:3206   */\n      tag_70\n      jump\t// in\n    tag_133:\n        /* \"#utility.yul\":3143:3206   */\n      swap2\n      pop\n        /* \"#utility.yul\":3099:3216   */\n      pop\n        /* \"#utility.yul\":2894:3223   */\n      swap3\n      swap2\n      pop\n      pop\n      jump\t// out\n        /* \"#utility.yul\":3229:3306   */\n    tag_79:\n        /* \"#utility.yul\":3266:3273   */\n      0x00\n        /* \"#utility.yul\":3295:3300   */\n      dup2\n        /* \"#utility.yul\":3284:3300   */\n      swap1\n      pop\n        /* \"#utility.yul\":3229:3306   */\n      swap2\n      swap1\n      pop\n      jump\t// out\n        /* \"#utility.yul\":3312:3430   */\n    tag_80:\n        /* \"#utility.yul\":3399:3423   */\n      tag_136\n        /* \"#utility.yul\":3417:3422   */\n      dup2\n        /* \"#utility.yul\":3399:3423   */\n      tag_79\n      jump\t// in\n    tag_136:\n        /* \"#utility.yul\":3394:3397   */\n      dup3\n        /* \"#utility.yul\":3387:3424   */\n      mstore\n        /* \"#utility.yul\":3312:3430   */\n      pop\n      pop\n      jump\t// out\n        /* \"#utility.yul\":3436:3658   */\n    tag_22:\n        /* \"#utility.yul\":3529:3533   */\n      0x00\n        /* \"#utility.yul\":3567:3569   */\n      0x20\n        /* \"#utility.yul\":3556:3565   */\n      dup3\n        /* \"#utility.yul\":3552:3570   */\n      add\n        /* \"#utility.yul\":3544:3570   */\n      swap1\n      pop\n        /* \"#utility.yul\":3580:3651   */\n      tag_138\n        /* \"#utility.yul\":3648:3649   */\n      0x00\n        /* \"#utility.yul\":3637:3646   */\n      dup4\n        /* \"#utility.yul\":3633:3650   */\n      add\n        /* \"#utility.yul\":3624:3630   */\n      dup5\n        /* \"#utility.yul\":3580:3651   */\n      tag_80\n      jump\t// in\n    tag_138:\n        /* \"#utility.yul\":3436:3658   */\n      swap3\n      swap2\n      pop\n      pop\n      jump\t// out\n        /* \"#utility.yul\":3664:3786   */\n    tag_81:\n        /* \"#utility.yul\":3737:3761   */\n      tag_140\n        /* \"#utility.yul\":3755:3760   */\n      dup2\n        /* \"#utility.yul\":3737:3761   */\n      tag_79\n      jump\t// in\n    tag_140:\n        /* \"#utility.yul\":3730:3735   */\n      dup2\n        /* \"#utility.yul\":3727:3762   */\n      eq\n        /* \"#utility.yul\":3717:3780   */\n      tag_141\n      jumpi\n        /* \"#utility.yul\":3776:3777   */\n      0x00\n        /* \"#utility.yul\":3773:3774   */\n      0x00\n        /* \"#utility.yul\":3766:3778   */\n      revert\n        /* \"#utility.yul\":3717:3780   */\n    tag_141:\n        /* \"#utility.yul\":3664:3786   */\n      pop\n      jump\t// out\n        /* \"#utility.yul\":3792:3931   */\n    tag_82:\n        /* \"#utility.yul\":3838:3843   */\n      0x00\n        /* \"#utility.yul\":3876:3882   */\n      dup2\n        /* \"#utility.yul\":3863:3883   */\n      calldataload\n        /* \"#utility.yul\":3854:3883   */\n      swap1\n      pop\n        /* \"#utility.yul\":3892:3925   */\n      tag_143\n        /* \"#utility.yul\":3919:3924   */\n      dup2\n        /* \"#utility.yul\":3892:3925   */\n      tag_81\n      jump\t// in\n    tag_143:\n        /* \"#utility.yul\":3792:3931   */\n      swap3\n      swap2\n      pop\n      pop\n      jump\t// out\n        /* \"#utility.yul\":3937:4411   */\n    tag_25:\n        /* \"#utility.yul\":4005:4011   */\n      0x00\n        /* \"#utility.yul\":4013:4019   */\n      0x00\n        /* \"#utility.yul\":4062:4064   */\n      0x40\n        /* \"#utility.yul\":4050:4059   */\n      dup4\n        /* \"#utility.yul\":4041:4048   */\n      dup6\n        /* \"#utility.yul\":4037:4060   */\n      sub\n        /* \"#utility.yul\":4033:4065   */\n      slt\n        /* \"#utility.yul\":4030:4149   */\n      iszero\n      tag_145\n      jumpi\n        /* \"#utility.yul\":4068:4147   */\n      tag_146\n      tag_65\n      jump\t// in\n    tag_146:\n        /* \"#utility.yul\":4030:4149   */\n    tag_145:\n        /* \"#utility.yul\":4188:4189   */\n      0x00\n        /* \"#utility.yul\":4213:4266   */\n      tag_147\n        /* \"#utility.yul\":4258:4265   */\n      dup6\n        /* \"#utility.yul\":4249:4255   */\n      dup3\n        /* \"#utility.yul\":4238:4247   */\n      dup7\n        /* \"#utility.yul\":4234:4256   */\n      add\n        /* \"#utility.yul\":4213:4266   */\n      tag_70\n      jump\t// in\n    tag_147:\n        /* \"#utility.yul\":4203:4266   */\n      swap3\n      pop\n        /* \"#utility.yul\":4159:4276   */\n      pop\n        /* \"#utility.yul\":4315:4317   */\n      0x20\n        /* \"#utility.yul\":4341:4394   */\n      tag_148\n        /* \"#utility.yul\":4386:4393   */\n      dup6\n        /* \"#utility.yul\":4377:4383   */\n      dup3\n        /* \"#utility.yul\":4366:4375   */\n      dup7\n        /* \"#utility.yul\":4362:4384   */\n      add\n        /* \"#utility.yul\":4341:4394   */\n      tag_82\n      jump\t// in\n    tag_148:\n        /* \"#utility.yul\":4331:4394   */\n      swap2\n      pop\n        /* \"#utility.yul\":4286:4404   */\n      pop\n        /* \"#utility.yul\":3937:4411   */\n      swap3\n      pop\n      swap3\n      swap1\n      pop\n      jump\t// out\n        /* \"#utility.yul\":4417:5178   */\n    tag_30:\n        /* \"#utility.yul\":4501:4507   */\n      0x00\n        /* \"#utility.yul\":4509:4515   */\n      0x00\n        /* \"#utility.yul\":4517:4523   */\n      0x00\n        /* \"#utility.yul\":4525:4531   */\n      0x00\n        /* \"#utility.yul\":4574:4577   */\n      0x80\n        /* \"#utility.yul\":4562:4571   */\n      dup6\n        /* \"#utility.yul\":4553:4560   */\n      dup8\n        /* \"#utility.yul\":4549:4572   */\n      sub\n        /* \"#utility.yul\":4545:4578   */\n      slt\n        /* \"#utility.yul\":4542:4662   */\n      iszero\n      tag_150\n      jumpi\n        /* \"#utility.yul\":4581:4660   */\n      tag_151\n      tag_65\n      jump\t// in\n    tag_151:\n        /* \"#utility.yul\":4542:4662   */\n    tag_150:\n        /* \"#utility.yul\":4701:4702   */\n      0x00\n        /* \"#utility.yul\":4726:4779   */\n      tag_152\n        /* \"#utility.yul\":4771:4778   */\n      dup8\n        /* \"#utility.yul\":4762:4768   */\n      dup3\n        /* \"#utility.yul\":4751:4760   */\n      dup9\n        /* \"#utility.yul\":4747:4769   */\n      add\n        /* \"#utility.yul\":4726:4779   */\n      tag_73\n      jump\t// in\n    tag_152:\n        /* \"#utility.yul\":4716:4779   */\n      swap5\n      pop\n        /* \"#utility.yul\":4672:4789   */\n      pop\n        /* \"#utility.yul\":4828:4830   */\n      0x20\n        /* \"#utility.yul\":4854:4905   */\n      tag_153\n        /* \"#utility.yul\":4897:4904   */\n      dup8\n        /* \"#utility.yul\":4888:4894   */\n      dup3\n        /* \"#utility.yul\":4877:4886   */\n      dup9\n        /* \"#utility.yul\":4873:4895   */\n      add\n        /* \"#utility.yul\":4854:4905   */\n      tag_76\n      jump\t// in\n    tag_153:\n        /* \"#utility.yul\":4844:4905   */\n      swap4\n      pop\n        /* \"#utility.yul\":4799:4915   */\n      pop\n        /* \"#utility.yul\":4954:4956   */\n      0x40\n        /* \"#utility.yul\":4980:5033   */\n      tag_154\n        /* \"#utility.yul\":5025:5032   */\n      dup8\n        /* \"#utility.yul\":5016:5022   */\n      dup3\n        /* \"#utility.yul\":5005:5014   */\n      dup9\n        /* \"#utility.yul\":5001:5023   */\n      add\n        /* \"#utility.yul\":4980:5033   */\n      tag_73\n      jump\t// in\n    tag_154:\n        /* \"#utility.yul\":4970:5033   */\n      swap3\n      pop\n        /* \"#utility.yul\":4925:5043   */\n      pop\n        /* \"#utility.yul\":5082:5084   */\n      0x60\n        /* \"#utility.yul\":5108:5161   */\n      tag_155\n        /* \"#utility.yul\":5153:5160   */\n      dup8\n        /* \"#utility.yul\":5144:5150   */\n      dup3\n        /* \"#utility.yul\":5133:5142   */\n      dup9\n        /* \"#utility.yul\":5129:5151   */\n      add\n        /* \"#utility.yul\":5108:5161   */\n      tag_73\n      jump\t// in\n    tag_155:\n        /* \"#utility.yul\":5098:5161   */\n      swap2\n      pop\n        /* \"#utility.yul\":5053:5171   */\n      pop\n        /* \"#utility.yul\":4417:5178   */\n      swap3\n      swap6\n      swap2\n      swap5\n      pop\n      swap3\n      pop\n      jump\t// out\n        /* \"#utility.yul\":5184:5513   */\n    tag_34:\n        /* \"#utility.yul\":5243:5249   */\n      0x00\n        /* \"#utility.yul\":5292:5294   */\n      0x20\n        /* \"#utility.yul\":5280:5289   */\n      dup3\n        /* \"#utility.yul\":5271:5278   */\n      dup5\n        /* \"#utility.yul\":5267:5290   */\n      sub\n        /* \"#utility.yul\":5263:5295   */\n      slt\n        /* \"#utility.yul\":5260:5379   */\n      iszero\n      tag_157\n      jumpi\n        /* \"#utility.yul\":5298:5377   */\n      tag_158\n      tag_65\n      jump\t// in\n    tag_158:\n        /* \"#utility.yul\":5260:5379   */\n    tag_157:\n        /* \"#utility.yul\":5418:5419   */\n      0x00\n        /* \"#utility.yul\":5443:5496   */\n      tag_159\n        /* \"#utility.yul\":5488:5495   */\n      dup5\n        /* \"#utility.yul\":5479:5485   */\n      dup3\n        /* \"#utility.yul\":5468:5477   */\n      dup6\n        /* \"#utility.yul\":5464:5486   */\n      add\n        /* \"#utility.yul\":5443:5496   */\n      tag_73\n      jump\t// in\n    tag_159:\n        /* \"#utility.yul\":5433:5496   */\n      swap2\n      pop\n        /* \"#utility.yul\":5389:5506   */\n      pop\n        /* \"#utility.yul\":5184:5513   */\n      swap3\n      swap2\n      pop\n      pop\n      jump\t// out\n        /* \"#utility.yul\":5519:5637   */\n    tag_83:\n        /* \"#utility.yul\":5606:5630   */\n      tag_161\n        /* \"#utility.yul\":5624:5629   */\n      dup2\n        /* \"#utility.yul\":5606:5630   */\n      tag_71\n      jump\t// in\n    tag_161:\n        /* \"#utility.yul\":5601:5604   */\n      dup3\n        /* \"#utility.yul\":5594:5631   */\n      mstore\n        /* \"#utility.yul\":5519:5637   */\n      pop\n      pop\n      jump\t// out\n        /* \"#utility.yul\":5643:5865   */\n    tag_37:\n        /* \"#utility.yul\":5736:5740   */\n      0x00\n        /* \"#utility.yul\":5774:5776   */\n      0x20\n        /* \"#utility.yul\":5763:5772   */\n      dup3\n        /* \"#utility.yul\":5759:5777   */\n      add\n        /* \"#utility.yul\":5751:5777   */\n      swap1\n      pop\n        /* \"#utility.yul\":5787:5858   */\n      tag_163\n        /* \"#utility.yul\":5855:5856   */\n      0x00\n        /* \"#utility.yul\":5844:5853   */\n      dup4\n        /* \"#utility.yul\":5840:5857   */\n      add\n        /* \"#utility.yul\":5831:5837   */\n      dup5\n        /* \"#utility.yul\":5787:5858   */\n      tag_83\n      jump\t// in\n    tag_163:\n        /* \"#utility.yul\":5643:5865   */\n      swap3\n      swap2\n      pop\n      pop\n      jump\t// out\n        /* \"#utility.yul\":5871:5983   */\n    tag_84:\n        /* \"#utility.yul\":5954:5976   */\n      tag_165\n        /* \"#utility.yul\":5970:5975   */\n      dup2\n        /* \"#utility.yul\":5954:5976   */\n      tag_74\n      jump\t// in\n    tag_165:\n        /* \"#utility.yul\":5949:5952   */\n      dup3\n        /* \"#utility.yul\":5942:5977   */\n      mstore\n        /* \"#utility.yul\":5871:5983   */\n      pop\n      pop\n      jump\t// out\n        /* \"#utility.yul\":5989:6534   */\n    tag_44:\n        /* \"#utility.yul\":6162:6166   */\n      0x00\n        /* \"#utility.yul\":6200:6203   */\n      0x80\n        /* \"#utility.yul\":6189:6198   */\n      dup3\n        /* \"#utility.yul\":6185:6204   */\n      add\n        /* \"#utility.yul\":6177:6204   */\n      swap1\n      pop\n        /* \"#utility.yul\":6214:6285   */\n      tag_167\n        /* \"#utility.yul\":6282:6283   */\n      0x00\n        /* \"#utility.yul\":6271:6280   */\n      dup4\n        /* \"#utility.yul\":6267:6284   */\n      add\n        /* \"#utility.yul\":6258:6264   */\n      dup8\n        /* \"#utility.yul\":6214:6285   */\n      tag_83\n      jump\t// in\n    tag_167:\n        /* \"#utility.yul\":6295:6363   */\n      tag_168\n        /* \"#utility.yul\":6359:6361   */\n      0x20\n        /* \"#utility.yul\":6348:6357   */\n      dup4\n        /* \"#utility.yul\":6344:6362   */\n      add\n        /* \"#utility.yul\":6335:6341   */\n      dup7\n        /* \"#utility.yul\":6295:6363   */\n      tag_84\n      jump\t// in\n    tag_168:\n        /* \"#utility.yul\":6373:6445   */\n      tag_169\n        /* \"#utility.yul\":6441:6443   */\n      0x40\n        /* \"#utility.yul\":6430:6439   */\n      dup4\n        /* \"#utility.yul\":6426:6444   */\n      add\n        /* \"#utility.yul\":6417:6423   */\n      dup6\n        /* \"#utility.yul\":6373:6445   */\n      tag_83\n      jump\t// in\n    tag_169:\n        /* \"#utility.yul\":6455:6527   */\n      tag_170\n        /* \"#utility.yul\":6523:6525   */\n      0x60\n        /* \"#utility.yul\":6512:6521   */\n      dup4\n        /* \"#utility.yul\":6508:6526   */\n      add\n        /* \"#utility.yul\":6499:6505   */\n      dup5\n        /* \"#utility.yul\":6455:6527   */\n      tag_83\n      jump\t// in\n    tag_170:\n        /* \"#utility.yul\":5989:6534   */\n      swap6\n      swap5\n      pop\n      pop\n      pop\n      pop\n      pop\n      jump\t// out\n        /* \"#utility.yul\":6540:6709   */\n    tag_85:\n        /* \"#utility.yul\":6624:6635   */\n      0x00\n        /* \"#utility.yul\":6658:6664   */\n      dup3\n        /* \"#utility.yul\":6653:6656   */\n      dup3\n        /* \"#utility.yul\":6646:6665   */\n      mstore\n        /* \"#utility.yul\":6698:6702   */\n      0x20\n        /* \"#utility.yul\":6693:6696   */\n      dup3\n        /* \"#utility.yul\":6689:6703   */\n      add\n        /* \"#utility.yul\":6674:6703   */\n      swap1\n      pop\n        /* \"#utility.yul\":6540:6709   */\n      swap3\n      swap2\n      pop\n      pop\n      jump\t// out\n        /* \"#utility.yul\":6715:6879   */\n    tag_86:\n        /* \"#utility.yul\":6855:6871   */\n      0x496e76616c6964207369676e6572000000000000000000000000000000000000\n        /* \"#utility.yul\":6851:6852   */\n      0x00\n        /* \"#utility.yul\":6843:6849   */\n      dup3\n        /* \"#utility.yul\":6839:6853   */\n      add\n        /* \"#utility.yul\":6832:6872   */\n      mstore\n        /* \"#utility.yul\":6715:6879   */\n      pop\n      jump\t// out\n        /* \"#utility.yul\":6885:7251   */\n    tag_87:\n        /* \"#utility.yul\":7027:7030   */\n      0x00\n        /* \"#utility.yul\":7048:7115   */\n      tag_174\n        /* \"#utility.yul\":7112:7114   */\n      0x0e\n        /* \"#utility.yul\":7107:7110   */\n      dup4\n        /* \"#utility.yul\":7048:7115   */\n      tag_85\n      jump\t// in\n    tag_174:\n        /* \"#utility.yul\":7041:7115   */\n      swap2\n      pop\n        /* \"#utility.yul\":7124:7217   */\n      tag_175\n        /* \"#utility.yul\":7213:7216   */\n      dup3\n        /* \"#utility.yul\":7124:7217   */\n      tag_86\n      jump\t// in\n    tag_175:\n        /* \"#utility.yul\":7242:7244   */\n      0x20\n        /* \"#utility.yul\":7237:7240   */\n      dup3\n        /* \"#utility.yul\":7233:7245   */\n      add\n        /* \"#utility.yul\":7226:7245   */\n      swap1\n      pop\n        /* \"#utility.yul\":6885:7251   */\n      swap2\n      swap1\n      pop\n      jump\t// out\n        /* \"#utility.yul\":7257:7676   */\n    tag_54:\n        /* \"#utility.yul\":7423:7427   */\n      0x00\n        /* \"#utility.yul\":7461:7463   */\n      0x20\n        /* \"#utility.yul\":7450:7459   */\n      dup3\n        /* \"#utility.yul\":7446:7464   */\n      add\n        /* \"#utility.yul\":7438:7464   */\n      swap1\n      pop\n        /* \"#utility.yul\":7510:7519   */\n      dup2\n        /* \"#utility.yul\":7504:7508   */\n      dup2\n        /* \"#utility.yul\":7500:7520   */\n      sub\n        /* \"#utility.yul\":7496:7497   */\n      0x00\n        /* \"#utility.yul\":7485:7494   */\n      dup4\n        /* \"#utility.yul\":7481:7498   */\n      add\n        /* \"#utility.yul\":7474:7521   */\n      mstore\n        /* \"#utility.yul\":7538:7669   */\n      tag_177\n        /* \"#utility.yul\":7664:7668   */\n      dup2\n        /* \"#utility.yul\":7538:7669   */\n      tag_87\n      jump\t// in\n    tag_177:\n        /* \"#utility.yul\":7530:7669   */\n      swap1\n      pop\n        /* \"#utility.yul\":7257:7676   */\n      swap2\n      swap1\n      pop\n      jump\t// out\n        /* \"#utility.yul\":7682:7830   */\n    tag_88:\n        /* \"#utility.yul\":7784:7795   */\n      0x00\n        /* \"#utility.yul\":7821:7824   */\n      dup2\n        /* \"#utility.yul\":7806:7824   */\n      swap1\n      pop\n        /* \"#utility.yul\":7682:7830   */\n      swap3\n      swap2\n      pop\n      pop\n      jump\t// out\n        /* \"#utility.yul\":7836:8050   */\n    tag_89:\n        /* \"#utility.yul\":7976:8042   */\n      0x19457468657265756d205369676e6564204d6573736167653a0a333200000000\n        /* \"#utility.yul\":7972:7973   */\n      0x00\n        /* \"#utility.yul\":7964:7970   */\n      dup3\n        /* \"#utility.yul\":7960:7974   */\n      add\n        /* \"#utility.yul\":7953:8043   */\n      mstore\n        /* \"#utility.yul\":7836:8050   */\n      pop\n      jump\t// out\n        /* \"#utility.yul\":8056:8458   */\n    tag_90:\n        /* \"#utility.yul\":8216:8219   */\n      0x00\n        /* \"#utility.yul\":8237:8322   */\n      tag_181\n        /* \"#utility.yul\":8319:8321   */\n      0x1c\n        /* \"#utility.yul\":8314:8317   */\n      dup4\n        /* \"#utility.yul\":8237:8322   */\n      tag_88\n      jump\t// in\n    tag_181:\n        /* \"#utility.yul\":8230:8322   */\n      swap2\n      pop\n        /* \"#utility.yul\":8331:8424   */\n      tag_182\n        /* \"#utility.yul\":8420:8423   */\n      dup3\n        /* \"#utility.yul\":8331:8424   */\n      tag_89\n      jump\t// in\n    tag_182:\n        /* \"#utility.yul\":8449:8451   */\n      0x1c\n        /* \"#utility.yul\":8444:8447   */\n      dup3\n        /* \"#utility.yul\":8440:8452   */\n      add\n        /* \"#utility.yul\":8433:8452   */\n      swap1\n      pop\n        /* \"#utility.yul\":8056:8458   */\n      swap2\n      swap1\n      pop\n      jump\t// out\n        /* \"#utility.yul\":8464:8543   */\n    tag_91:\n        /* \"#utility.yul\":8503:8510   */\n      0x00\n        /* \"#utility.yul\":8532:8537   */\n      dup2\n        /* \"#utility.yul\":8521:8537   */\n      swap1\n      pop\n        /* \"#utility.yul\":8464:8543   */\n      swap2\n      swap1\n      pop\n      jump\t// out\n        /* \"#utility.yul\":8549:8706   */\n    tag_92:\n        /* \"#utility.yul\":8654:8699   */\n      tag_185\n        /* \"#utility.yul\":8674:8698   */\n      tag_186\n        /* \"#utility.yul\":8692:8697   */\n      dup3\n        /* \"#utility.yul\":8674:8698   */\n      tag_71\n      jump\t// in\n    tag_186:\n        /* \"#utility.yul\":8654:8699   */\n      tag_91\n      jump\t// in\n    tag_185:\n        /* \"#utility.yul\":8649:8652   */\n      dup3\n        /* \"#utility.yul\":8642:8700   */\n      mstore\n        /* \"#utility.yul\":8549:8706   */\n      pop\n      pop\n      jump\t// out\n        /* \"#utility.yul\":8712:9234   */\n    tag_58:\n        /* \"#utility.yul\":8925:8928   */\n      0x00\n        /* \"#utility.yul\":8947:9095   */\n      tag_188\n        /* \"#utility.yul\":9091:9094   */\n      dup3\n        /* \"#utility.yul\":8947:9095   */\n      tag_90\n      jump\t// in\n    tag_188:\n        /* \"#utility.yul\":8940:9095   */\n      swap2\n      pop\n        /* \"#utility.yul\":9105:9180   */\n      tag_189\n        /* \"#utility.yul\":9176:9179   */\n      dup3\n        /* \"#utility.yul\":9167:9173   */\n      dup5\n        /* \"#utility.yul\":9105:9180   */\n      tag_92\n      jump\t// in\n    tag_189:\n        /* \"#utility.yul\":9205:9207   */\n      0x20\n        /* \"#utility.yul\":9200:9203   */\n      dup3\n        /* \"#utility.yul\":9196:9208   */\n      add\n        /* \"#utility.yul\":9189:9208   */\n      swap2\n      pop\n        /* \"#utility.yul\":9225:9228   */\n      dup2\n        /* \"#utility.yul\":9218:9228   */\n      swap1\n      pop\n        /* \"#utility.yul\":8712:9234   */\n      swap3\n      swap2\n      pop\n      pop\n      jump\t// out\n\n    auxdata: 0xa26469706673582212203928c3f11e4352e897ba64b1bd7fe8f25a689d1dd14df0215d9a4677b3f5934164736f6c634300081c0033\n}\n",
				"bytecode": {
					"linkReferences": {},
					"object": "6080604052348015600e575f5ffd5b5061086e8061001c5f395ff3fe608060405234801561000f575f5ffd5b5060043610610060575f3560e01c806304891de114610064578063506535f31461006e5780637279c14e1461009e578063a3f60869146100ce578063c3cf0e72146100fe578063fa5408011461011a575b5f5ffd5b61006c61014a565b005b610088600480360381019061008391906104b0565b610193565b6040516100959190610541565b60405180910390f35b6100b860048036038101906100b3919061055a565b610226565b6040516100c5919061059d565b60405180910390f35b6100e860048036038101906100e391906105e0565b61026e565b6040516100f59190610541565b60405180910390f35b6101186004803603810190610113919061061e565b6102ab565b005b610134600480360381019061012f9190610682565b61037a565b60405161014191906106bc565b60405180910390f35b5f5f3373ffffffffffffffffffffffffffffffffffffffff1673ffffffffffffffffffffffffffffffffffffffff1681526020019081526020015f205f61019191906103a9565b565b5f5f61019e8661037a565b90508673ffffffffffffffffffffffffffffffffffffffff166001828787876040515f81526020016040526040516101d994939291906106e4565b6020604051602081039080840390855afa1580156101f9573d5f5f3e3d5ffd5b5050506020604051035173ffffffffffffffffffffffffffffffffffffffff161491505095945050505050565b5f5f5f8373ffffffffffffffffffffffffffffffffffffffff1673ffffffffffffffffffffffffffffffffffffffff1681526020019081526020015f20805490509050919050565b5f602052815f5260405f208181548110610286575f80fd5b905f5260205f209060209182820401919006915091509054906101000a900460ff1681565b6102b83385858585610193565b6102f7576040517f08c379a00000000000000000000000000000000000000000000000000000000081526004016102ee90610781565b60405180910390fd5b5f5f3373ffffffffffffffffffffffffffffffffffffffff1673ffffffffffffffffffffffffffffffffffffffff1681526020019081526020015f206001908060018154018082558091505060019003905f5260205f2090602091828204019190069091909190916101000a81548160ff02191690831515021790555050505050565b5f8160405160200161038c9190610813565b604051602081830303815290604052805190602001209050919050565b5080545f8255601f0160209004905f5260205f20908101906103cb91906103ce565b50565b5b808211156103e5575f815f9055506001016103cf565b5090565b5f5ffd5b5f73ffffffffffffffffffffffffffffffffffffffff82169050919050565b5f610416826103ed565b9050919050565b6104268161040c565b8114610430575f5ffd5b50565b5f813590506104418161041d565b92915050565b5f819050919050565b61045981610447565b8114610463575f5ffd5b50565b5f8135905061047481610450565b92915050565b5f60ff82169050919050565b61048f8161047a565b8114610499575f5ffd5b50565b5f813590506104aa81610486565b92915050565b5f5f5f5f5f60a086880312156104c9576104c86103e9565b5b5f6104d688828901610433565b95505060206104e788828901610466565b94505060406104f88882890161049c565b935050606061050988828901610466565b925050608061051a88828901610466565b9150509295509295909350565b5f8115159050919050565b61053b81610527565b82525050565b5f6020820190506105545f830184610532565b92915050565b5f6020828403121561056f5761056e6103e9565b5b5f61057c84828501610433565b91505092915050565b5f819050919050565b61059781610585565b82525050565b5f6020820190506105b05f83018461058e565b92915050565b6105bf81610585565b81146105c9575f5ffd5b50565b5f813590506105da816105b6565b92915050565b5f5f604083850312156105f6576105f56103e9565b5b5f61060385828601610433565b9250506020610614858286016105cc565b9150509250929050565b5f5f5f5f60808587031215610636576106356103e9565b5b5f61064387828801610466565b94505060206106548782880161049c565b935050604061066587828801610466565b925050606061067687828801610466565b91505092959194509250565b5f60208284031215610697576106966103e9565b5b5f6106a484828501610466565b91505092915050565b6106b681610447565b82525050565b5f6020820190506106cf5f8301846106ad565b92915050565b6106de8161047a565b82525050565b5f6080820190506106f75f8301876106ad565b61070460208301866106d5565b61071160408301856106ad565b61071e60608301846106ad565b95945050505050565b5f82825260208201905092915050565b7f496e76616c6964207369676e65720000000000000000000000000000000000005f82015250565b5f61076b600e83610727565b915061077682610737565b602082019050919050565b5f6020820190508181035f8301526107988161075f565b9050919050565b5f81905092915050565b7f19457468657265756d205369676e6564204d6573736167653a0a3332000000005f82015250565b5f6107dd601c8361079f565b91506107e8826107a9565b601c82019050919050565b5f819050919050565b61080d61080882610447565b6107f3565b82525050565b5f61081d826107d1565b915061082982846107fc565b6020820191508190509291505056fea26469706673582212203928c3f11e4352e897ba64b1bd7fe8f25a689d1dd14df0215d9a4677b3f5934164736f6c634300081c0033",
					"opcodes": "PUSH1 0x80 PUSH1 0x40 MSTORE CALLVALUE DUP1 ISZERO PUSH1 0xE JUMPI PUSH0 PUSH0 REVERT JUMPDEST POP PUSH2 0x86E DUP1 PUSH2 0x1C PUSH0 CODECOPY PUSH0 RETURN INVALID PUSH1 0x80 PUSH1 0x40 MSTORE CALLVALUE DUP1 ISZERO PUSH2 0xF JUMPI PUSH0 PUSH0 REVERT JUMPDEST POP PUSH1 0x4 CALLDATASIZE LT PUSH2 0x60 JUMPI PUSH0 CALLDATALOAD PUSH1 0xE0 SHR DUP1 PUSH4 0x4891DE1 EQ PUSH2 0x64 JUMPI DUP1 PUSH4 0x506535F3 EQ PUSH2 0x6E JUMPI DUP1 PUSH4 0x7279C14E EQ PUSH2 0x9E JUMPI DUP1 PUSH4 0xA3F60869 EQ PUSH2 0xCE JUMPI DUP1 PUSH4 0xC3CF0E72 EQ PUSH2 0xFE JUMPI DUP1 PUSH4 0xFA540801 EQ PUSH2 0x11A JUMPI JUMPDEST PUSH0 PUSH0 REVERT JUMPDEST PUSH2 0x6C PUSH2 0x14A JUMP JUMPDEST STOP JUMPDEST PUSH2 0x88 PUSH1 0x4 DUP1 CALLDATASIZE SUB DUP2 ADD SWAP1 PUSH2 0x83 SWAP2 SWAP1 PUSH2 0x4B0 JUMP JUMPDEST PUSH2 0x193 JUMP JUMPDEST PUSH1 0x40 MLOAD PUSH2 0x95 SWAP2 SWAP1 PUSH2 0x541 JUMP JUMPDEST PUSH1 0x40 MLOAD DUP1 SWAP2 SUB SWAP1 RETURN JUMPDEST PUSH2 0xB8 PUSH1 0x4 DUP1 CALLDATASIZE SUB DUP2 ADD SWAP1 PUSH2 0xB3 SWAP2 SWAP1 PUSH2 0x55A JUMP JUMPDEST PUSH2 0x226 JUMP JUMPDEST PUSH1 0x40 MLOAD PUSH2 0xC5 SWAP2 SWAP1 PUSH2 0x59D JUMP JUMPDEST PUSH1 0x40 MLOAD DUP1 SWAP2 SUB SWAP1 RETURN JUMPDEST PUSH2 0xE8 PUSH1 0x4 DUP1 CALLDATASIZE SUB DUP2 ADD SWAP1 PUSH2 0xE3 SWAP2 SWAP1 PUSH2 0x5E0 JUMP JUMPDEST PUSH2 0x26E JUMP JUMPDEST PUSH1 0x40 MLOAD PUSH2 0xF5 SWAP2 SWAP1 PUSH2 0x541 JUMP JUMPDEST PUSH1 0x40 MLOAD DUP1 SWAP2 SUB SWAP1 RETURN JUMPDEST PUSH2 0x118 PUSH1 0x4 DUP1 CALLDATASIZE SUB DUP2 ADD SWAP1 PUSH2 0x113 SWAP2 SWAP1 PUSH2 0x61E JUMP JUMPDEST PUSH2 0x2AB JUMP JUMPDEST STOP JUMPDEST PUSH2 0x134 PUSH1 0x4 DUP1 CALLDATASIZE SUB DUP2 ADD SWAP1 PUSH2 0x12F SWAP2 SWAP1 PUSH2 0x682 JUMP JUMPDEST PUSH2 0x37A JUMP JUMPDEST PUSH1 0x40 MLOAD PUSH2 0x141 SWAP2 SWAP1 PUSH2 0x6BC JUMP JUMPDEST PUSH1 0x40 MLOAD DUP1 SWAP2 SUB SWAP1 RETURN JUMPDEST PUSH0 PUSH0 CALLER PUSH20 0xFFFFFFFFFFFFFFFFFFFFFFFFFFFFFFFFFFFFFFFF AND PUSH20 0xFFFFFFFFFFFFFFFFFFFFFFFFFFFFFFFFFFFFFFFF AND DUP2 MSTORE PUSH1 0x20 ADD SWAP1 DUP2 MSTORE PUSH1 0x20 ADD PUSH0 KECCAK256 PUSH0 PUSH2 0x191 SWAP2 SWAP1 PUSH2 0x3A9 JUMP JUMPDEST JUMP JUMPDEST PUSH0 PUSH0 PUSH2 0x19E DUP7 PUSH2 0x37A JUMP JUMPDEST SWAP1 POP DUP7 PUSH20 0xFFFFFFFFFFFFFFFFFFFFFFFFFFFFFFFFFFFFFFFF AND PUSH1 0x1 DUP3 DUP8 DUP8 DUP8 PUSH1 0x40 MLOAD PUSH0 DUP2 MSTORE PUSH1 0x20 ADD PUSH1 0x40 MSTORE PUSH1 0x40 MLOAD PUSH2 0x1D9 SWAP5 SWAP4 SWAP3 SWAP2 SWAP1 PUSH2 0x6E4 JUMP JUMPDEST PUSH1 0x20 PUSH1 0x40 MLOAD PUSH1 0x20 DUP2 SUB SWAP1 DUP1 DUP5 SUB SWAP1 DUP6 GAS STATICCALL ISZERO DUP1 ISZERO PUSH2 0x1F9 JUMPI RETURNDATASIZE PUSH0 PUSH0 RETURNDATACOPY RETURNDATASIZE PUSH0 REVERT JUMPDEST POP POP POP PUSH1 0x20 PUSH1 0x40 MLOAD SUB MLOAD PUSH20 0xFFFFFFFFFFFFFFFFFFFFFFFFFFFFFFFFFFFFFFFF AND EQ SWAP2 POP POP SWAP6 SWAP5 POP POP POP POP POP JUMP JUMPDEST PUSH0 PUSH0 PUSH0 DUP4 PUSH20 0xFFFFFFFFFFFFFFFFFFFFFFFFFFFFFFFFFFFFFFFF AND PUSH20 0xFFFFFFFFFFFFFFFFFFFFFFFFFFFFFFFFFFFFFFFF AND DUP2 MSTORE PUSH1 0x20 ADD SWAP1 DUP2 MSTORE PUSH1 0x20 ADD PUSH0 KECCAK256 DUP1 SLOAD SWAP1 POP SWAP1 POP SWAP2 SWAP1 POP JUMP JUMPDEST PUSH0 PUSH1 0x20 MSTORE DUP2 PUSH0 MSTORE PUSH1 0x40 PUSH0 KECCAK256 DUP2 DUP2 SLOAD DUP2 LT PUSH2 0x286 JUMPI PUSH0 DUP1 REVERT JUMPDEST SWAP1 PUSH0 MSTORE PUSH1 0x20 PUSH0 KECCAK256 SWAP1 PUSH1 0x20 SWAP2 DUP3 DUP3 DIV ADD SWAP2 SWAP1 MOD SWAP2 POP SWAP2 POP SWAP1 SLOAD SWAP1 PUSH2 0x100 EXP SWAP1 DIV PUSH1 0xFF AND DUP2 JUMP JUMPDEST PUSH2 0x2B8 CALLER DUP6 DUP6 DUP6 DUP6 PUSH2 0x193 JUMP JUMPDEST PUSH2 0x2F7 JUMPI PUSH1 0x40 MLOAD PUSH32 0x8C379A000000000000000000000000000000000000000000000000000000000 DUP2 MSTORE PUSH1 0x4 ADD PUSH2 0x2EE SWAP1 PUSH2 0x781 JUMP JUMPDEST PUSH1 0x40 MLOAD DUP1 SWAP2 SUB SWAP1 REVERT JUMPDEST PUSH0 PUSH0 CALLER PUSH20 0xFFFFFFFFFFFFFFFFFFFFFFFFFFFFFFFFFFFFFFFF AND PUSH20 0xFFFFFFFFFFFFFFFFFFFFFFFFFFFFFFFFFFFFFFFF AND DUP2 MSTORE PUSH1 0x20 ADD SWAP1 DUP2 MSTORE PUSH1 0x20 ADD PUSH0 KECCAK256 PUSH1 0x1 SWAP1 DUP1 PUSH1 0x1 DUP2 SLOAD ADD DUP1 DUP3 SSTORE DUP1 SWAP2 POP POP PUSH1 0x1 SWAP1 SUB SWAP1 PUSH0 MSTORE PUSH1 0x20 PUSH0 KECCAK256 SWAP1 PUSH1 0x20 SWAP2 DUP3 DUP3 DIV ADD SWAP2 SWAP1 MOD SWAP1 SWAP2 SWAP1 SWAP2 SWAP1 SWAP2 PUSH2 0x100 EXP DUP2 SLOAD DUP2 PUSH1 0xFF MUL NOT AND SWAP1 DUP4 ISZERO ISZERO MUL OR SWAP1 SSTORE POP POP POP POP POP JUMP JUMPDEST PUSH0 DUP2 PUSH1 0x40 MLOAD PUSH1 0x20 ADD PUSH2 0x38C SWAP2 SWAP1 PUSH2 0x813 JUMP JUMPDEST PUSH1 0x40 MLOAD PUSH1 0x20 DUP2 DUP4 SUB SUB DUP2 MSTORE SWAP1 PUSH1 0x40 MSTORE DUP1 MLOAD SWAP1 PUSH1 0x20 ADD KECCAK256 SWAP1 POP SWAP2 SWAP1 POP JUMP JUMPDEST POP DUP1 SLOAD PUSH0 DUP3 SSTORE PUSH1 0x1F ADD PUSH1 0x20 SWAP1 DIV SWAP1 PUSH0 MSTORE PUSH1 0x20 PUSH0 KECCAK256 SWAP1 DUP2 ADD SWAP1 PUSH2 0x3CB SWAP2 SWAP1 PUSH2 0x3CE JUMP JUMPDEST POP JUMP JUMPDEST JUMPDEST DUP1 DUP3 GT ISZERO PUSH2 0x3E5 JUMPI PUSH0 DUP2 PUSH0 SWAP1 SSTORE POP PUSH1 0x1 ADD PUSH2 0x3CF JUMP JUMPDEST POP SWAP1 JUMP JUMPDEST PUSH0 PUSH0 REVERT JUMPDEST PUSH0 PUSH20 0xFFFFFFFFFFFFFFFFFFFFFFFFFFFFFFFFFFFFFFFF DUP3 AND SWAP1 POP SWAP2 SWAP1 POP JUMP JUMPDEST PUSH0 PUSH2 0x416 DUP3 PUSH2 0x3ED JUMP JUMPDEST SWAP1 POP SWAP2 SWAP1 POP JUMP JUMPDEST PUSH2 0x426 DUP2 PUSH2 0x40C JUMP JUMPDEST DUP2 EQ PUSH2 0x430 JUMPI PUSH0 PUSH0 REVERT JUMPDEST POP JUMP JUMPDEST PUSH0 DUP2 CALLDATALOAD SWAP1 POP PUSH2 0x441 DUP2 PUSH2 0x41D JUMP JUMPDEST SWAP3 SWAP2 POP POP JUMP JUMPDEST PUSH0 DUP2 SWAP1 POP SWAP2 SWAP1 POP JUMP JUMPDEST PUSH2 0x459 DUP2 PUSH2 0x447 JUMP JUMPDEST DUP2 EQ PUSH2 0x463 JUMPI PUSH0 PUSH0 REVERT JUMPDEST POP JUMP JUMPDEST PUSH0 DUP2 CALLDATALOAD SWAP1 POP PUSH2 0x474 DUP2 PUSH2 0x450 JUMP JUMPDEST SWAP3 SWAP2 POP POP JUMP JUMPDEST PUSH0 PUSH1 0xFF DUP3 AND SWAP1 POP SWAP2 SWAP1 POP JUMP JUMPDEST PUSH2 0x48F DUP2 PUSH2 0x47A JUMP JUMPDEST DUP2 EQ PUSH2 0x499 JUMPI PUSH0 PUSH0 REVERT JUMPDEST POP JUMP JUMPDEST PUSH0 DUP2 CALLDATALOAD SWAP1 POP PUSH2 0x4AA DUP2 PUSH2 0x486 JUMP JUMPDEST SWAP3 SWAP2 POP POP JUMP JUMPDEST PUSH0 PUSH0 PUSH0 PUSH0 PUSH0 PUSH1 0xA0 DUP7 DUP9 SUB SLT ISZERO PUSH2 0x4C9 JUMPI PUSH2 0x4C8 PUSH2 0x3E9 JUMP JUMPDEST JUMPDEST PUSH0 PUSH2 0x4D6 DUP9 DUP3 DUP10 ADD PUSH2 0x433 JUMP JUMPDEST SWAP6 POP POP PUSH1 0x20 PUSH2 0x4E7 DUP9 DUP3 DUP10 ADD PUSH2 0x466 JUMP JUMPDEST SWAP5 POP POP PUSH1 0x40 PUSH2 0x4F8 DUP9 DUP3 DUP10 ADD PUSH2 0x49C JUMP JUMPDEST SWAP4 POP POP PUSH1 0x60 PUSH2 0x509 DUP9 DUP3 DUP10 ADD PUSH2 0x466 JUMP JUMPDEST SWAP3 POP POP PUSH1 0x80 PUSH2 0x51A DUP9 DUP3 DUP10 ADD PUSH2 0x466 JUMP JUMPDEST SWAP2 POP POP SWAP3 SWAP6 POP SWAP3 SWAP6 SWAP1 SWAP4 POP JUMP JUMPDEST PUSH0 DUP2 ISZERO ISZERO SWAP1 POP SWAP2 SWAP1 POP JUMP JUMPDEST PUSH2 0x53B DUP2 PUSH2 0x527 JUMP JUMPDEST DUP3 MSTORE POP POP JUMP JUMPDEST PUSH0 PUSH1 0x20 DUP3 ADD SWAP1 POP PUSH2 0x554 PUSH0 DUP4 ADD DUP5 PUSH2 0x532 JUMP JUMPDEST SWAP3 SWAP2 POP POP JUMP JUMPDEST PUSH0 PUSH1 0x20 DUP3 DUP5 SUB SLT ISZERO PUSH2 0x56F JUMPI PUSH2 0x56E PUSH2 0x3E9 JUMP JUMPDEST JUMPDEST PUSH0 PUSH2 0x57C DUP5 DUP3 DUP6 ADD PUSH2 0x433 JUMP JUMPDEST SWAP2 POP POP SWAP3 SWAP2 POP POP JUMP JUMPDEST PUSH0 DUP2 SWAP1 POP SWAP2 SWAP1 POP JUMP JUMPDEST PUSH2 0x597 DUP2 PUSH2 0x585 JUMP JUMPDEST DUP3 MSTORE POP POP JUMP JUMPDEST PUSH0 PUSH1 0x20 DUP3 ADD SWAP1 POP PUSH2 0x5B0 PUSH0 DUP4 ADD DUP5 PUSH2 0x58E JUMP JUMPDEST SWAP3 SWAP2 POP POP JUMP JUMPDEST PUSH2 0x5BF DUP2 PUSH2 0x585 JUMP JUMPDEST DUP2 EQ PUSH2 0x5C9 JUMPI PUSH0 PUSH0 REVERT JUMPDEST POP JUMP JUMPDEST PUSH0 DUP2 CALLDATALOAD SWAP1 POP PUSH2 0x5DA DUP2 PUSH2 0x5B6 JUMP JUMPDEST SWAP3 SWAP2 POP POP JUMP JUMPDEST PUSH0 PUSH0 PUSH1 0x40 DUP4 DUP6 SUB SLT ISZERO PUSH2 0x5F6 JUMPI PUSH2 0x5F5 PUSH2 0x3E9 JUMP JUMPDEST JUMPDEST PUSH0 PUSH2 0x603 DUP6 DUP3 DUP7 ADD PUSH2 0x433 JUMP JUMPDEST SWAP3 POP POP PUSH1 0x20 PUSH2 0x614 DUP6 DUP3 DUP7 ADD PUSH2 0x5CC JUMP JUMPDEST SWAP2 POP POP SWAP3 POP SWAP3 SWAP1 POP JUMP JUMPDEST PUSH0 PUSH0 PUSH0 PUSH0 PUSH1 0x80 DUP6 DUP8 SUB SLT ISZERO PUSH2 0x636 JUMPI PUSH2 0x635 PUSH2 0x3E9 JUMP JUMPDEST JUMPDEST PUSH0 PUSH2 0x643 DUP8 DUP3 DUP9 ADD PUSH2 0x466 JUMP JUMPDEST SWAP5 POP POP PUSH1 0x20 PUSH2 0x654 DUP8 DUP3 DUP9 ADD PUSH2 0x49C JUMP JUMPDEST SWAP4 POP POP PUSH1 0x40 PUSH2 0x665 DUP8 DUP3 DUP9 ADD PUSH2 0x466 JUMP JUMPDEST SWAP3 POP POP PUSH1 0x60 PUSH2 0x676 DUP8 DUP3 DUP9 ADD PUSH2 0x466 JUMP JUMPDEST SWAP2 POP POP SWAP3 SWAP6 SWAP2 SWAP5 POP SWAP3 POP JUMP JUMPDEST PUSH0 PUSH1 0x20 DUP3 DUP5 SUB SLT ISZERO PUSH2 0x697 JUMPI PUSH2 0x696 PUSH2 0x3E9 JUMP JUMPDEST JUMPDEST PUSH0 PUSH2 0x6A4 DUP5 DUP3 DUP6 ADD PUSH2 0x466 JUMP JUMPDEST SWAP2 POP POP SWAP3 SWAP2 POP POP JUMP JUMPDEST PUSH2 0x6B6 DUP2 PUSH2 0x447 JUMP JUMPDEST DUP3 MSTORE POP POP JUMP JUMPDEST PUSH0 PUSH1 0x20 DUP3 ADD SWAP1 POP PUSH2 0x6CF PUSH0 DUP4 ADD DUP5 PUSH2 0x6AD JUMP JUMPDEST SWAP3 SWAP2 POP POP JUMP JUMPDEST PUSH2 0x6DE DUP2 PUSH2 0x47A JUMP JUMPDEST DUP3 MSTORE POP POP JUMP JUMPDEST PUSH0 PUSH1 0x80 DUP3 ADD SWAP1 POP PUSH2 0x6F7 PUSH0 DUP4 ADD DUP8 PUSH2 0x6AD JUMP JUMPDEST PUSH2 0x704 PUSH1 0x20 DUP4 ADD DUP7 PUSH2 0x6D5 JUMP JUMPDEST PUSH2 0x711 PUSH1 0x40 DUP4 ADD DUP6 PUSH2 0x6AD JUMP JUMPDEST PUSH2 0x71E PUSH1 0x60 DUP4 ADD DUP5 PUSH2 0x6AD JUMP JUMPDEST SWAP6 SWAP5 POP POP POP POP POP JUMP JUMPDEST PUSH0 DUP3 DUP3 MSTORE PUSH1 0x20 DUP3 ADD SWAP1 POP SWAP3 SWAP2 POP POP JUMP JUMPDEST PUSH32 0x496E76616C6964207369676E6572000000000000000000000000000000000000 PUSH0 DUP3 ADD MSTORE POP JUMP JUMPDEST PUSH0 PUSH2 0x76B PUSH1 0xE DUP4 PUSH2 0x727 JUMP JUMPDEST SWAP2 POP PUSH2 0x776 DUP3 PUSH2 0x737 JUMP JUMPDEST PUSH1 0x20 DUP3 ADD SWAP1 POP SWAP2 SWAP1 POP JUMP JUMPDEST PUSH0 PUSH1 0x20 DUP3 ADD SWAP1 POP DUP2 DUP2 SUB PUSH0 DUP4 ADD MSTORE PUSH2 0x798 DUP2 PUSH2 0x75F JUMP JUMPDEST SWAP1 POP SWAP2 SWAP1 POP JUMP JUMPDEST PUSH0 DUP2 SWAP1 POP SWAP3 SWAP2 POP POP JUMP JUMPDEST PUSH32 0x19457468657265756D205369676E6564204D6573736167653A0A333200000000 PUSH0 DUP3 ADD MSTORE POP JUMP JUMPDEST PUSH0 PUSH2 0x7DD PUSH1 0x1C DUP4 PUSH2 0x79F JUMP JUMPDEST SWAP2 POP PUSH2 0x7E8 DUP3 PUSH2 0x7A9 JUMP JUMPDEST PUSH1 0x1C DUP3 ADD SWAP1 POP SWAP2 SWAP1 POP JUMP JUMPDEST PUSH0 DUP2 SWAP1 POP SWAP2 SWAP1 POP JUMP JUMPDEST PUSH2 0x80D PUSH2 0x808 DUP3 PUSH2 0x447 JUMP JUMPDEST PUSH2 0x7F3 JUMP JUMPDEST DUP3 MSTORE POP POP JUMP JUMPDEST PUSH0 PUSH2 0x81D DUP3 PUSH2 0x7D1 JUMP JUMPDEST SWAP2 POP PUSH2 0x829 DUP3 DUP5 PUSH2 0x7FC JUMP JUMPDEST PUSH1 0x20 DUP3 ADD SWAP2 POP DUP2 SWAP1 POP SWAP3 SWAP2 POP POP JUMP INVALID LOG2 PUSH5 0x6970667358 0x22 SLT KECCAK256 CODECOPY 0x28 0xC3 CALL 0x1E NUMBER MSTORE 0xE8 SWAP8 0xBA PUSH5 0xB1BD7FE8F2 GAS PUSH9 0x9D1DD14DF0215D9A46 PUSH24 0xB3F5934164736F6C634300081C0033000000000000000000 "
				},
				"gasEstimates": {
					"creation": {
						"codeDepositCost": "431600",
						"executionCost": "466",
						"totalCost": "432066"
					},
					"external": {
						"checkNode(address,uint256)": "6859",
						"checkOnline(bytes32,uint8,bytes32,bytes32)": "infinite",
						"checkPass(address)": "2858",
						"getEthSignedMessageHash(bytes32)": "infinite",
						"resetChecker()": "infinite",
						"verify(address,bytes32,uint8,bytes32,bytes32)": "infinite"
					}
				},
				"methodIdentifiers": {
					"checkNode(address,uint256)": "a3f60869",
					"checkOnline(bytes32,uint8,bytes32,bytes32)": "c3cf0e72",
					"checkPass(address)": "7279c14e",
					"getEthSignedMessageHash(bytes32)": "fa540801",
					"resetChecker()": "04891de1",
					"verify(address,bytes32,uint8,bytes32,bytes32)": "506535f3"
				}
			},
			"storageLayout": {
				"storage": [
					{
						"astId": 6,
						"contract": "contracts/check.sol:Checker",
						"label": "checkNode",
						"offset": 0,
						"slot": "0",
						"type": "t_mapping(t_address,t_array(t_bool)dyn_storage)"
					}
				],
				"types": {
					"t_address": {
						"encoding": "inplace",
						"label": "address",
						"numberOfBytes": "20"
					},
					"t_array(t_bool)dyn_storage": {
						"base": "t_bool",
						"encoding": "dynamic_array",
						"label": "bool[]",
						"numberOfBytes": "32"
					},
					"t_bool": {
						"encoding": "inplace",
						"label": "bool",
						"numberOfBytes": "1"
					},
					"t_mapping(t_address,t_array(t_bool)dyn_storage)": {
						"encoding": "mapping",
						"key": "t_address",
						"label": "mapping(address => bool[])",
						"numberOfBytes": "32",
						"value": "t_array(t_bool)dyn_storage"
					}
				}
			},
			"userdoc": {
				"kind": "user",
				"methods": {},
				"version": 1
			}
		}
	}
}