{
	"data": {
		"bytecode": {
			"linkReferences": {},
			"object": "6080604052348015600e575f5ffd5b506106fa8061001c5f395ff3fe608060405234801561000f575f5ffd5b506004361061004a575f3560e01c8063506535f31461004e578063a3f608691461007e578063c3cf0e72146100ae578063fa540801146100ca575b5f5ffd5b6100686004803603810190610063919061038f565b6100fa565b6040516100759190610420565b60405180910390f35b6100986004803603810190610093919061046c565b61018d565b6040516100a59190610420565b60405180910390f35b6100c860048036038101906100c391906104aa565b6101ca565b005b6100e460048036038101906100df919061050e565b610299565b6040516100f19190610548565b60405180910390f35b5f5f61010586610299565b90508673ffffffffffffffffffffffffffffffffffffffff166001828787876040515f81526020016040526040516101409493929190610570565b6020604051602081039080840390855afa158015610160573d5f5f3e3d5ffd5b5050506020604051035173ffffffffffffffffffffffffffffffffffffffff161491505095945050505050565b5f602052815f5260405f2081815481106101a5575f80fd5b905f5260205f209060209182820401919006915091509054906101000a900460ff1681565b6101d733858585856100fa565b610216576040517f08c379a000000000000000000000000000000000000000000000000000000000815260040161020d9061060d565b60405180910390fd5b5f5f3373ffffffffffffffffffffffffffffffffffffffff1673ffffffffffffffffffffffffffffffffffffffff1681526020019081526020015f206001908060018154018082558091505060019003905f5260205f2090602091828204019190069091909190916101000a81548160ff02191690831515021790555050505050565b5f816040516020016102ab919061069f565b604051602081830303815290604052805190602001209050919050565b5f5ffd5b5f73ffffffffffffffffffffffffffffffffffffffff82169050919050565b5f6102f5826102cc565b9050919050565b610305816102eb565b811461030f575f5ffd5b50565b5f81359050610320816102fc565b92915050565b5f819050919050565b61033881610326565b8114610342575f5ffd5b50565b5f813590506103538161032f565b92915050565b5f60ff82169050919050565b61036e81610359565b8114610378575f5ffd5b50565b5f8135905061038981610365565b92915050565b5f5f5f5f5f60a086880312156103a8576103a76102c8565b5b5f6103b588828901610312565b95505060206103c688828901610345565b94505060406103d78882890161037b565b93505060606103e888828901610345565b92505060806103f988828901610345565b9150509295509295909350565b5f8115159050919050565b61041a81610406565b82525050565b5f6020820190506104335f830184610411565b92915050565b5f819050919050565b61044b81610439565b8114610455575f5ffd5b50565b5f8135905061046681610442565b92915050565b5f5f60408385031215610482576104816102c8565b5b5f61048f85828601610312565b92505060206104a085828601610458565b9150509250929050565b5f5f5f5f608085870312156104c2576104c16102c8565b5b5f6104cf87828801610345565b94505060206104e08782880161037b565b93505060406104f187828801610345565b925050606061050287828801610345565b91505092959194509250565b5f60208284031215610523576105226102c8565b5b5f61053084828501610345565b91505092915050565b61054281610326565b82525050565b5f60208201905061055b5f830184610539565b92915050565b61056a81610359565b82525050565b5f6080820190506105835f830187610539565b6105906020830186610561565b61059d6040830185610539565b6105aa6060830184610539565b95945050505050565b5f82825260208201905092915050565b7f496e76616c6964207369676e65720000000000000000000000000000000000005f82015250565b5f6105f7600e836105b3565b9150610602826105c3565b602082019050919050565b5f6020820190508181035f830152610624816105eb565b9050919050565b5f81905092915050565b7f19457468657265756d205369676e6564204d6573736167653a0a3332000000005f82015250565b5f610669601c8361062b565b915061067482610635565b601c82019050919050565b5f819050919050565b61069961069482610326565b61067f565b82525050565b5f6106a98261065d565b91506106b58284610688565b6020820191508190509291505056fea2646970667358221220bc712360d1d2a98e5d276254f3031d9adb2139bef4848503ee28c8954cb39d4b64736f6c634300081c0033",
			"opcodes": "PUSH1 0x80 PUSH1 0x40 MSTORE CALLVALUE DUP1 ISZERO PUSH1 0xE JUMPI PUSH0 PUSH0 REVERT JUMPDEST POP PUSH2 0x6FA DUP1 PUSH2 0x1C PUSH0 CODECOPY PUSH0 RETURN INVALID PUSH1 0x80 PUSH1 0x40 MSTORE CALLVALUE DUP1 ISZERO PUSH2 0xF JUMPI PUSH0 PUSH0 REVERT JUMPDEST POP PUSH1 0x4 CALLDATASIZE LT PUSH2 0x4A JUMPI PUSH0 CALLDATALOAD PUSH1 0xE0 SHR DUP1 PUSH4 0x506535F3 EQ PUSH2 0x4E JUMPI DUP1 PUSH4 0xA3F60869 EQ PUSH2 0x7E JUMPI DUP1 PUSH4 0xC3CF0E72 EQ PUSH2 0xAE JUMPI DUP1 PUSH4 0xFA540801 EQ PUSH2 0xCA JUMPI JUMPDEST PUSH0 PUSH0 REVERT JUMPDEST PUSH2 0x68 PUSH1 0x4 DUP1 CALLDATASIZE SUB DUP2 ADD SWAP1 PUSH2 0x63 SWAP2 SWAP1 PUSH2 0x38F JUMP JUMPDEST PUSH2 0xFA JUMP JUMPDEST PUSH1 0x40 MLOAD PUSH2 0x75 SWAP2 SWAP1 PUSH2 0x420 JUMP JUMPDEST PUSH1 0x40 MLOAD DUP1 SWAP2 SUB SWAP1 RETURN JUMPDEST PUSH2 0x98 PUSH1 0x4 DUP1 CALLDATASIZE SUB DUP2 ADD SWAP1 PUSH2 0x93 SWAP2 SWAP1 PUSH2 0x46C JUMP JUMPDEST PUSH2 0x18D JUMP JUMPDEST PUSH1 0x40 MLOAD PUSH2 0xA5 SWAP2 SWAP1 PUSH2 0x420 JUMP JUMPDEST PUSH1 0x40 MLOAD DUP1 SWAP2 SUB SWAP1 RETURN JUMPDEST PUSH2 0xC8 PUSH1 0x4 DUP1 CALLDATASIZE SUB DUP2 ADD SWAP1 PUSH2 0xC3 SWAP2 SWAP1 PUSH2 0x4AA JUMP JUMPDEST PUSH2 0x1CA JUMP JUMPDEST STOP JUMPDEST PUSH2 0xE4 PUSH1 0x4 DUP1 CALLDATASIZE SUB DUP2 ADD SWAP1 PUSH2 0xDF SWAP2 SWAP1 PUSH2 0x50E JUMP JUMPDEST PUSH2 0x299 JUMP JUMPDEST PUSH1 0x40 MLOAD PUSH2 0xF1 SWAP2 SWAP1 PUSH2 0x548 JUMP JUMPDEST PUSH1 0x40 MLOAD DUP1 SWAP2 SUB SWAP1 RETURN JUMPDEST PUSH0 PUSH0 PUSH2 0x105 DUP7 PUSH2 0x299 JUMP JUMPDEST SWAP1 POP DUP7 PUSH20 0xFFFFFFFFFFFFFFFFFFFFFFFFFFFFFFFFFFFFFFFF AND PUSH1 0x1 DUP3 DUP8 DUP8 DUP8 PUSH1 0x40 MLOAD PUSH0 DUP2 MSTORE PUSH1 0x20 ADD PUSH1 0x40 MSTORE PUSH1 0x40 MLOAD PUSH2 0x140 SWAP5 SWAP4 SWAP3 SWAP2 SWAP1 PUSH2 0x570 JUMP JUMPDEST PUSH1 0x20 PUSH1 0x40 MLOAD PUSH1 0x20 DUP2 SUB SWAP1 DUP1 DUP5 SUB SWAP1 DUP6 GAS STATICCALL ISZERO DUP1 ISZERO PUSH2 0x160 JUMPI RETURNDATASIZE PUSH0 PUSH0 RETURNDATACOPY RETURNDATASIZE PUSH0 REVERT JUMPDEST POP POP POP PUSH1 0x20 PUSH1 0x40 MLOAD SUB MLOAD PUSH20 0xFFFFFFFFFFFFFFFFFFFFFFFFFFFFFFFFFFFFFFFF AND EQ SWAP2 POP POP SWAP6 SWAP5 POP POP POP POP POP JUMP JUMPDEST PUSH0 PUSH1 0x20 MSTORE DUP2 PUSH0 MSTORE PUSH1 0x40 PUSH0 KECCAK256 DUP2 DUP2 SLOAD DUP2 LT PUSH2 0x1A5 JUMPI PUSH0 DUP1 REVERT JUMPDEST SWAP1 PUSH0 MSTORE PUSH1 0x20 PUSH0 KECCAK256 SWAP1 PUSH1 0x20 SWAP2 DUP3 DUP3 DIV ADD SWAP2 SWAP1 MOD SWAP2 POP SWAP2 POP SWAP1 SLOAD SWAP1 PUSH2 0x100 EXP SWAP1 DIV PUSH1 0xFF AND DUP2 JUMP JUMPDEST PUSH2 0x1D7 CALLER DUP6 DUP6 DUP6 DUP6 PUSH2 0xFA JUMP JUMPDEST PUSH2 0x216 JUMPI PUSH1 0x40 MLOAD PUSH32 0x8C379A000000000000000000000000000000000000000000000000000000000 DUP2 MSTORE PUSH1 0x4 ADD PUSH2 0x20D SWAP1 PUSH2 0x60D JUMP JUMPDEST PUSH1 0x40 MLOAD DUP1 SWAP2 SUB SWAP1 REVERT JUMPDEST PUSH0 PUSH0 CALLER PUSH20 0xFFFFFFFFFFFFFFFFFFFFFFFFFFFFFFFFFFFFFFFF AND PUSH20 0xFFFFFFFFFFFFFFFFFFFFFFFFFFFFFFFFFFFFFFFF AND DUP2 MSTORE PUSH1 0x20 ADD SWAP1 DUP2 MSTORE PUSH1 0x20 ADD PUSH0 KECCAK256 PUSH1 0x1 SWAP1 DUP1 PUSH1 0x1 DUP2 SLOAD ADD DUP1 DUP3 SSTORE DUP1 SWAP2 POP POP PUSH1 0x1 SWAP1 SUB SWAP1 PUSH0 MSTORE PUSH1 0x20 PUSH0 KECCAK256 SWAP1 PUSH1 0x20 SWAP2 DUP3 DUP3 DIV ADD SWAP2 SWAP1 MOD SWAP1 SWAP2 SWAP1 SWAP2 SWAP1 SWAP2 PUSH2 0x100 EXP DUP2 SLOAD DUP2 PUSH1 0xFF MUL NOT AND SWAP1 DUP4 ISZERO ISZERO MUL OR SWAP1 SSTORE POP POP POP POP POP JUMP JUMPDEST PUSH0 DUP2 PUSH1 0x40 MLOAD PUSH1 0x20 ADD PUSH2 0x2AB SWAP2 SWAP1 PUSH2 0x69F JUMP JUMPDEST PUSH1 0x40 MLOAD PUSH1 0x20 DUP2 DUP4 SUB SUB DUP2 MSTORE SWAP1 PUSH1 0x40 MSTORE DUP1 MLOAD SWAP1 PUSH1 0x20 ADD KECCAK256 SWAP1 POP SWAP2 SWAP1 POP JUMP JUMPDEST PUSH0 PUSH0 REVERT JUMPDEST PUSH0 PUSH20 0xFFFFFFFFFFFFFFFFFFFFFFFFFFFFFFFFFFFFFFFF DUP3 AND SWAP1 POP SWAP2 SWAP1 POP JUMP JUMPDEST PUSH0 PUSH2 0x2F5 DUP3 PUSH2 0x2CC JUMP JUMPDEST SWAP1 POP SWAP2 SWAP1 POP JUMP JUMPDEST PUSH2 0x305 DUP2 PUSH2 0x2EB JUMP JUMPDEST DUP2 EQ PUSH2 0x30F JUMPI PUSH0 PUSH0 REVERT JUMPDEST POP JUMP JUMPDEST PUSH0 DUP2 CALLDATALOAD SWAP1 POP PUSH2 0x320 DUP2 PUSH2 0x2FC JUMP JUMPDEST SWAP3 SWAP2 POP POP JUMP JUMPDEST PUSH0 DUP2 SWAP1 POP SWAP2 SWAP1 POP JUMP JUMPDEST PUSH2 0x338 DUP2 PUSH2 0x326 JUMP JUMPDEST DUP2 EQ PUSH2 0x342 JUMPI PUSH0 PUSH0 REVERT JUMPDEST POP JUMP JUMPDEST PUSH0 DUP2 CALLDATALOAD SWAP1 POP PUSH2 0x353 DUP2 PUSH2 0x32F JUMP JUMPDEST SWAP3 SWAP2 POP POP JUMP JUMPDEST PUSH0 PUSH1 0xFF DUP3 AND SWAP1 POP SWAP2 SWAP1 POP JUMP JUMPDEST PUSH2 0x36E DUP2 PUSH2 0x359 JUMP JUMPDEST DUP2 EQ PUSH2 0x378 JUMPI PUSH0 PUSH0 REVERT JUMPDEST POP JUMP JUMPDEST PUSH0 DUP2 CALLDATALOAD SWAP1 POP PUSH2 0x389 DUP2 PUSH2 0x365 JUMP JUMPDEST SWAP3 SWAP2 POP POP JUMP JUMPDEST PUSH0 PUSH0 PUSH0 PUSH0 PUSH0 PUSH1 0xA0 DUP7 DUP9 SUB SLT ISZERO PUSH2 0x3A8 JUMPI PUSH2 0x3A7 PUSH2 0x2C8 JUMP JUMPDEST JUMPDEST PUSH0 PUSH2 0x3B5 DUP9 DUP3 DUP10 ADD PUSH2 0x312 JUMP JUMPDEST SWAP6 POP POP PUSH1 0x20 PUSH2 0x3C6 DUP9 DUP3 DUP10 ADD PUSH2 0x345 JUMP JUMPDEST SWAP5 POP POP PUSH1 0x40 PUSH2 0x3D7 DUP9 DUP3 DUP10 ADD PUSH2 0x37B JUMP JUMPDEST SWAP4 POP POP PUSH1 0x60 PUSH2 0x3E8 DUP9 DUP3 DUP10 ADD PUSH2 0x345 JUMP JUMPDEST SWAP3 POP POP PUSH1 0x80 PUSH2 0x3F9 DUP9 DUP3 DUP10 ADD PUSH2 0x345 JUMP JUMPDEST SWAP2 POP POP SWAP3 SWAP6 POP SWAP3 SWAP6 SWAP1 SWAP4 POP JUMP JUMPDEST PUSH0 DUP2 ISZERO ISZERO SWAP1 POP SWAP2 SWAP1 POP JUMP JUMPDEST PUSH2 0x41A DUP2 PUSH2 0x406 JUMP JUMPDEST DUP3 MSTORE POP POP JUMP JUMPDEST PUSH0 PUSH1 0x20 DUP3 ADD SWAP1 POP PUSH2 0x433 PUSH0 DUP4 ADD DUP5 PUSH2 0x411 JUMP JUMPDEST SWAP3 SWAP2 POP POP JUMP JUMPDEST PUSH0 DUP2 SWAP1 POP SWAP2 SWAP1 POP JUMP JUMPDEST PUSH2 0x44B DUP2 PUSH2 0x439 JUMP JUMPDEST DUP2 EQ PUSH2 0x455 JUMPI PUSH0 PUSH0 REVERT JUMPDEST POP JUMP JUMPDEST PUSH0 DUP2 CALLDATALOAD SWAP1 POP PUSH2 0x466 DUP2 PUSH2 0x442 JUMP JUMPDEST SWAP3 SWAP2 POP POP JUMP JUMPDEST PUSH0 PUSH0 PUSH1 0x40 DUP4 DUP6 SUB SLT ISZERO PUSH2 0x482 JUMPI PUSH2 0x481 PUSH2 0x2C8 JUMP JUMPDEST JUMPDEST PUSH0 PUSH2 0x48F DUP6 DUP3 DUP7 ADD PUSH2 0x312 JUMP JUMPDEST SWAP3 POP POP PUSH1 0x20 PUSH2 0x4A0 DUP6 DUP3 DUP7 ADD PUSH2 0x458 JUMP JUMPDEST SWAP2 POP POP SWAP3 POP SWAP3 SWAP1 POP JUMP JUMPDEST PUSH0 PUSH0 PUSH0 PUSH0 PUSH1 0x80 DUP6 DUP8 SUB SLT ISZERO PUSH2 0x4C2 JUMPI PUSH2 0x4C1 PUSH2 0x2C8 JUMP JUMPDEST JUMPDEST PUSH0 PUSH2 0x4CF DUP8 DUP3 DUP9 ADD PUSH2 0x345 JUMP JUMPDEST SWAP5 POP POP PUSH1 0x20 PUSH2 0x4E0 DUP8 DUP3 DUP9 ADD PUSH2 0x37B JUMP JUMPDEST SWAP4 POP POP PUSH1 0x40 PUSH2 0x4F1 DUP8 DUP3 DUP9 ADD PUSH2 0x345 JUMP JUMPDEST SWAP3 POP POP PUSH1 0x60 PUSH2 0x502 DUP8 DUP3 DUP9 ADD PUSH2 0x345 JUMP JUMPDEST SWAP2 POP POP SWAP3 SWAP6 SWAP2 SWAP5 POP SWAP3 POP JUMP JUMPDEST PUSH0 PUSH1 0x20 DUP3 DUP5 SUB SLT ISZERO PUSH2 0x523 JUMPI PUSH2 0x522 PUSH2 0x2C8 JUMP JUMPDEST JUMPDEST PUSH0 PUSH2 0x530 DUP5 DUP3 DUP6 ADD PUSH2 0x345 JUMP JUMPDEST SWAP2 POP POP SWAP3 SWAP2 POP POP JUMP JUMPDEST PUSH2 0x542 DUP2 PUSH2 0x326 JUMP JUMPDEST DUP3 MSTORE POP POP JUMP JUMPDEST PUSH0 PUSH1 0x20 DUP3 ADD SWAP1 POP PUSH2 0x55B PUSH0 DUP4 ADD DUP5 PUSH2 0x539 JUMP JUMPDEST SWAP3 SWAP2 POP POP JUMP JUMPDEST PUSH2 0x56A DUP2 PUSH2 0x359 JUMP JUMPDEST DUP3 MSTORE POP POP JUMP JUMPDEST PUSH0 PUSH1 0x80 DUP3 ADD SWAP1 POP PUSH2 0x583 PUSH0 DUP4 ADD DUP8 PUSH2 0x539 JUMP JUMPDEST PUSH2 0x590 PUSH1 0x20 DUP4 ADD DUP7 PUSH2 0x561 JUMP JUMPDEST PUSH2 0x59D PUSH1 0x40 DUP4 ADD DUP6 PUSH2 0x539 JUMP JUMPDEST PUSH2 0x5AA PUSH1 0x60 DUP4 ADD DUP5 PUSH2 0x539 JUMP JUMPDEST SWAP6 SWAP5 POP POP POP POP POP JUMP JUMPDEST PUSH0 DUP3 DUP3 MSTORE PUSH1 0x20 DUP3 ADD SWAP1 POP SWAP3 SWAP2 POP POP JUMP JUMPDEST PUSH32 0x496E76616C6964207369676E6572000000000000000000000000000000000000 PUSH0 DUP3 ADD MSTORE POP JUMP JUMPDEST PUSH0 PUSH2 0x5F7 PUSH1 0xE DUP4 PUSH2 0x5B3 JUMP JUMPDEST SWAP2 POP PUSH2 0x602 DUP3 PUSH2 0x5C3 JUMP JUMPDEST PUSH1 0x20 DUP3 ADD SWAP1 POP SWAP2 SWAP1 POP JUMP JUMPDEST PUSH0 PUSH1 0x20 DUP3 ADD SWAP1 POP DUP2 DUP2 SUB PUSH0 DUP4 ADD MSTORE PUSH2 0x624 DUP2 PUSH2 0x5EB JUMP JUMPDEST SWAP1 POP SWAP2 SWAP1 POP JUMP JUMPDEST PUSH0 DUP2 SWAP1 POP SWAP3 SWAP2 POP POP JUMP JUMPDEST PUSH32 0x19457468657265756D205369676E6564204D6573736167653A0A333200000000 PUSH0 DUP3 ADD MSTORE POP JUMP JUMPDEST PUSH0 PUSH2 0x669 PUSH1 0x1C DUP4 PUSH2 0x62B JUMP JUMPDEST SWAP2 POP PUSH2 0x674 DUP3 PUSH2 0x635 JUMP JUMPDEST PUSH1 0x1C DUP3 ADD SWAP1 POP SWAP2 SWAP1 POP JUMP JUMPDEST PUSH0 DUP2 SWAP1 POP SWAP2 SWAP1 POP JUMP JUMPDEST PUSH2 0x699 PUSH2 0x694 DUP3 PUSH2 0x326 JUMP JUMPDEST PUSH2 0x67F JUMP JUMPDEST DUP3 MSTORE POP POP JUMP JUMPDEST PUSH0 PUSH2 0x6A9 DUP3 PUSH2 0x65D JUMP JUMPDEST SWAP2 POP PUSH2 0x6B5 DUP3 DUP5 PUSH2 0x688 JUMP JUMPDEST PUSH1 0x20 DUP3 ADD SWAP2 POP DUP2 SWAP1 POP SWAP3 SWAP2 POP POP JUMP INVALID LOG2 PUSH5 0x6970667358 0x22 SLT KECCAK256 0xBC PUSH18 0x2360D1D2A98E5D276254F3031D9ADB2139BE DELEGATECALL DUP5 DUP6 SUB 0xEE 0x28 0xC8 SWAP6 0x4C 0xB3 SWAP14 0x4B PUSH5 0x736F6C6343 STOP ADDMOD SHR STOP CALLER "
		},
		"gasEstimates": {
			"creation": {
				"codeDepositCost": "357200",
				"executionCost": "391",
				"totalCost": "357591"
			},
			"external": {
				"checkNode(address,uint256)": "6815",
				"checkOnline(bytes32,uint8,bytes32,bytes32)": "infinite",
				"getEthSignedMessageHash(bytes32)": "infinite",
				"verify(address,bytes32,uint8,bytes32,bytes32)": "infinite"
			}
		},
		"methodIdentifiers": {
			"checkNode(address,uint256)": "a3f60869",
			"checkOnline(bytes32,uint8,bytes32,bytes32)": "c3cf0e72",
			"getEthSignedMessageHash(bytes32)": "fa540801",
			"verify(address,bytes32,uint8,bytes32,bytes32)": "506535f3"
		}
	},
	"abi": [
		{
			"inputs": [
				{
					"internalType": "address",
					"name": "",
					"type": "address"
				},
				{
					"internalType": "uint256",
					"name": "",
					"type": "uint256"
				}
			],
			"name": "checkNode",
			"outputs": [
				{
					"internalType": "bool",
					"name": "",
					"type": "bool"
				}
			],
			"stateMutability": "view",
			"type": "function"
		},
		{
			"inputs": [
				{
					"internalType": "bytes32",
					"name": "messageHash",
					"type": "bytes32"
				},
				{
					"internalType": "uint8",
					"name": "v",
					"type": "uint8"
				},
				{
					"internalType": "bytes32",
					"name": "r",
					"type": "bytes32"
				},
				{
					"internalType": "bytes32",
					"name": "s",
					"type": "bytes32"
				}
			],
			"name": "checkOnline",
			"outputs": [],
			"stateMutability": "nonpayable",
			"type": "function"
		},
		{
			"inputs": [
				{
					"internalType": "bytes32",
					"name": "messageHash",
					"type": "bytes32"
				}
			],
			"name": "getEthSignedMessageHash",
			"outputs": [
				{
					"internalType": "bytes32",
					"name": "",
					"type": "bytes32"
				}
			],
			"stateMutability": "pure",
			"type": "function"
		},
		{
			"inputs": [
				{
					"internalType": "address",
					"name": "signer",
					"type": "address"
				},
				{
					"internalType": "bytes32",
					"name": "messageHash",
					"type": "bytes32"
				},
				{
					"internalType": "uint8",
					"name": "v",
					"type": "uint8"
				},
				{
					"internalType": "bytes32",
					"name": "r",
					"type": "bytes32"
				},
				{
					"internalType": "bytes32",
					"name": "s",
					"type": "bytes32"
				}
			],
			"name": "verify",
			"outputs": [
				{
					"internalType": "bool",
					"name": "",
					"type": "bool"
				}
			],
			"stateMutability": "pure",
			"type": "function"
		}
	]
}